:100000000000042029CA040051CA040053CA040095
:1000100055CA040057CA040059CA04000000000071
:100020000000000000000000000000005BCA0400A7
:100030005DCA0400000000005FCA040061CA040039
:1000400051C9040085B20400C16A000063CA0400FB
:1000500063CA040063CA040063CA040063CA0400DC
:1000600063CA040063CA040063CA040063CA0400CC
:1000700063CA0400F566000063CA040063CA040092
:1000800063CA040063CA040063CA040063CA0400AC
:1000900063CA040063CA040063CA040063CA04009C
:1000A00063CA040063CA040063CA040063CA04008C
:1000B00063CA040063CA04000000000000000000DE
:1000C00063CA040063CA040063CA040063CA04006C
:1000D000795A000063CA040063CA040063CA0400BA
:1000E00063CA040063CA040063CA0400000000007D
:1000F0000000000063CA04000000000063CA04009E
:1001000000000000000000000000000000000000EF
:1001100000000000000000000000000000000000DF
:1001200000000000000000000000000000000000CF
:1001300000000000000000000000000000000000BF
:1001400000000000000000000000000000000000AF
:10015000000000000000000000000000000000009F
:10016000000000000000000000000000000000008F
:10017000000000000000000000000000000000007F
:10018000000000000000000000000000000000006F
:10019000000000000000000000000000000000005F
:1001A000000000000000000000000000000000004F
:1001B000000000000000000000000000000000003F
:1001C000000000000000000000000000000000002F
:1001D000000000000000000000000000000000001F
:1001E000000000000000000000000000000000000F
:1001F00000000000000000000000000000000000FF
:1002000010B5054C237833B9044B13B10448AFF350
:1002100000800123237010BDC801002000000000F1
:10022000C863050008B5034B1BB103490348AFF38E
:10023000008008BD00000000CC010020C86305005C
:10024000A3F5803A704700BF174B002B08BF134B34
:100250009D46FFF7F5FF00218B460F461348144AD1
:10026000121A4CF083FF0E4B002B00D098470D4B19
:10027000002B00D098470020002104000D000D48FD
:10028000002802D00C48AFF300804CF0FDFE2000A7
:10029000290000F080F94CF0E3FE00BF00000800E8
:1002A000000000000000000000000420C801002041
:1002B000202A01200000000000000000094B1A88DD
:1002C00072B9094A1188094A1288C2F50060814250
:1002D000C8BF81B2198019B10548104406F070BC3E
:1002E000704700BFE8030020EC0B0020EA0B002061
:1002F000EA0300200749084A0B8810880344C3F327
:100300000A030B8005490B881B1A0B8000231380FE
:10031000FFF7D4BFEA0B0020E8030020EC0B00201D
:100320002DE9F047194FDFF86C9006460D464FF067
:10033000000AB8463C88B9F800001549C4F50064C5
:10034000A4B2AC4228BF2C4606EB040C66450CD088
:10035000B8F8003016F801EBC218C2F30A020133F4
:1003600001F802E0A8F80030F0E72D1BADB25444CC
:10037000FFF7A4FF1FFA84FA2DB106F011FC10B9A3
:10038000FFF7B8FFD6E75046BDE8F087EC0B00203A
:10039000EA030020EA0B00202DE9F743354D2E88B3
:1003A0000F461346A846CEB90A4633484FF40061BB
:1003B0004DF07EF8B0F5006F044607D32F4839465C
:1003C00006F040FE204603B0BDE8F0832C4B2880A9
:1003D0001E802C4B1E80FFF771FFF3E7284A26484A
:1003E000158801932E44C6F30A06B5428CBFAD1B97
:1003F000C6F50065ADB2914630440A4629464DF037
:1004000057F8041E04DA1D48394606F01BFEE2E7E1
:10041000A54205DDB8F800302344A8F80030DAE73B
:10042000B4F5006F22DAB8F800306BB1FFF746FF81
:1004300006F0B6FB10B9FFF75DFFF4E706F0CDFC60
:100440000146114806F0FEFD019B0B483A464FF469
:1004500000614DF02DF8041E00DCFEE7094AA8F803
:1004600000400023A9F800301380B4E7074839465C
:10047000CBE700BFEC0B0020EA03002038E70400C4
:10048000EA0B0020E803002059E7040072E70400AB
:10049000F8B52A4F2A4C05464618AE424CD92B785F
:1004A0000D2B26D011D8082B11D00A2B1DD0238854
:1004B000B3F5FF7F30D801212846FFF731FF2388AD
:1004C0005A1C228029781F4A0DE07F2BEFD1238808
:1004D00013B303211C48FFF723FF2388194A013B6C
:1004E0009BB223800021D15416E0184B1B780D2BB2
:1004F00012D002213846FFF713FF2388114900224A
:10050000581ECA54944601445BB902B123800D4879
:1005100001F006FC002323800C4B15F8012B1A7008
:10052000BBE708780A2801D00D28EED1013B01F87D
:1005300001C99BB20122E7E7F8BD00BF8FE70400C5
:10054000E6030020E50100208CE70400E401002020
:10055000FFF7D0BE07B50A49019000230B80094977
:100560000B8009490B8009490B8006F013FA019AA8
:100570000749104603B05DF804EB01F0CFBB00BFA4
:10058000E6030020EA0B0020EC0B0020E80300202B
:1005900099030000704770B505460E46314628465F
:1005A00005F0ACFF06F01BFC0446FFF7D3FF05F097
:1005B000CFFF18B1204606F01CFCEFE7204606F0FE
:1005C000CDFD204605F0CAFFF1E7000008B5034A5B
:1005D0000349083004F095FD002008BD91E70400B0
:1005E000E2EA040010B50C6824B9806806F003FC48
:1005F000204610BD2320FCE7803002F0D7BA00006F
:100600002DE9FF410D6804460E4685B9083065495D
:10061000039004F076FD6449039804F072FD634989
:10062000039804F06EFD284604B0BDE8F0815E49F1
:10063000304623F033FB002843D07368002B32D1BF
:1006400054F8080F5A4EDFF88C8106F0D7FC594950
:1006500002680546204604F054FD10273368EB5825
:100660000093736842460421204604F067FD013F71
:1006700006F10806F2D16A6C4F49504EDFF85481FA
:10068000204604F03EFD10273368EB580093736852
:1006900042460421204604F051FD013F06F10806C0
:1006A000F2D10025BFE74649301D23F0F7FA08B91B
:1006B0000725B8E7B568002DFAD1A06806F0A2FCBE
:1006C000B1E73A49304623F0E9FA00283FD0736891
:1006D00083BB54F8080F3B4DDFF8FC8006F0FEFEAC
:1006E000092706462B686A68F35A4146204604F0FB
:1006F00008FD013F05F10805F4D1334FDFF8DC8038
:1007000005257A684146204604F03CFC57F8083B32
:100710003344D3E90023204604F080FC013DF0D1AE
:1007200020462A4904F02EFCD6E90E23204604F088
:1007300075FC78E72249301D23F0B0FA0028B7D0C5
:10074000B568002DB4D1A06806F0D3FE6BE715495B
:10075000304623F0A3FA0028AAD07368A3B954F84E
:10076000080F1B4DDFF86C8006F0ADFE042607462F
:100770002B686A68FB584146204604F0C2FC013EE3
:1007800005F10805F4D18CE70D49301D23F086FAF8
:1007900000288DD0B568002D8AD1A06806F097FE9C
:1007A00041E700BF80ED04009AE704009EE70400E3
:1007B000A4FA0400A2E70400B7E7040024FA040046
:1007C000A70E0500BCF9040024FB0400DBE70400CD
:1007D00004FA0400AFE70400C4E70400CBE7040018
:1007E00008B5806806F00FFB002008BDF0B50E4686
:1007F00089B041490546304623F050FA074600B11A
:100800000436336813BB55F8080F3C4E06F012FB54
:100810000446002C51D02146284604F009FC87B13B
:10082000607C04F0AFFDA17C237CC1F34001019109
:10083000A17C01F00101024600912846314604F0F6
:10084000A1FB284604F0ACFB6469E2E72C49304682
:1008500023F024FA90B1706802A923F0F4F958B992
:10086000069BA8689B0C9B0443F4403343F45073ED
:1008700002A9069306F0E7FA09B0F0BD2149304617
:1008800023F00CFA044650B1706802A923F0DBF99A
:100890000028F1D1A86802A906F0DAFAECE71A49B3
:1008A000304623F0FBF9074648B155F8080F06F02B
:1008B00051FD0146284604F0CDFB2046DCE71349F4
:1008C000304623F0EBF9044648B155F8080F06F01E
:1008D00039FD0146284604F0BDFB3846CCE70C49FB
:1008E000304623F0DBF920B155F8080F06F02EFD55
:1008F000DFE72320C0E700BFF0E70400F3E70400D0
:100900001CE8040042ED040020E804002AE804008A
:100910002FE8040030B585B0044602A9806806F0CF
:100920007EFD0546F0B904F10800029A0F490190D6
:1009300004F0E7FB9DF80C200D49019804F0E1FB61
:100940009DF80D200B49019804F0DBFB9DF80E206B
:100950000949019804F0D5FB9DF80F20074901983B
:1009600004F0CFFB284605B030BD00BF35E80400D9
:1009700047E804005CE8040055E804006DE8040062
:100980000B68F7B505460E46002B3AD10446444F96
:1009900054F8080F434E06F0E2FD03784249032B5A
:1009A00096BF424A424A52F823200546204604F0A8
:1009B000A8FB6B783F4913F0010F14BF3A4632464B
:1009C000204604F09EFB6B783B4913F0020F14BFE6
:1009D0003A463246204604F094FB6B78374913F0D0
:1009E000040F14BF3A463246204604F08AFB2046E4
:1009F00095F90220324904F084FB0024204603B01C
:100A0000F0BD2A4F002457F8041B304623F046F966
:100A1000002840D070688DF804400DF1030123F0E8
:100A20006AF904460028E9D19DF805309DF80320B5
:100A3000B06862F300030DF103018DF8053023F077
:100A40005AF904460028D9D19DF805309DF80320B5
:100A5000F06862F341030DF103018DF8053023F0D6
:100A60004AF904460028C9D19DF805309DF80320B5
:100A7000306962F382030DF106018DF8053023F031
:100A8000D3F804460028B9D173693BB9A86801A915
:100A900006F069FDB2E70134042CB4D10724ADE7B8
:100AA00082E8040086E8040089E8040040F80400B5
:100AB000C41005009FE80400B5E80400CBE804007A
:100AC000E1E8040070B50C6886B005460E4664B9CE
:100AD00055F8080F02A906F0E0FD2846102202A9E9
:100AE00004F080FA204606B070BD4B685BB9102256
:100AF00002A9204623F0B1F80028F4D1A86802A981
:100B000006F0D0FDEFE70B49304623F0C7F870B18F
:100B1000A868746806F02AFC0190A86806F0B7FB84
:100B20000199024602AB204606F0F8F8E4E70720F8
:100B3000D9E700BFF7E80400383002F09FBF00F5A6
:100B4000EA50103003F012B870B5044680680E46C3
:100B500010F0C8FD054606F059F985420CD0084949
:100B6000304623F09BF848B104F1080005492A46B5
:100B700004F0C7FA002070BD0C20FCE70720FAE75C
:100B800048ED0400E2EA040010B5044654F8080FEA
:100B900006F060FC03490246204604F0B2FA002049
:100BA00010BD00BF95EB0400024B034A083004F06F
:100BB0006ABB00BF4B750000417500007FB50C4655
:100BC00000232349ADF80E300546204623F066F891
:100BD000064610B1606800BB0434206838B30DF1DC
:100BE0000D0122F0D9FF00BB9DF80D001F281BD876
:100BF0000124844005F10800DEB1164B164A02219B
:100C000004F0D6FA154BBDF80E20A86800952146D1
:100C100006F004FA48B9242007E00DF10E0122F095
:100C2000CCFF10B90834D8E7072004B070BD0446E3
:100C3000E0E70B4B0B4A052104F0BAFA0A4BBDF86A
:100C40000E20A8680095214606F0E3F9E2E700BF10
:100C5000FAE8040071F8040064F80400111B0000B5
:100C60006CF8040050F80400191E000010B500F1E3
:100C70000804806806F00EFC044A0549002818BFE5
:100C80001146204604F03DFA002010BD01E90400A1
:100C900006E90400303002F019BC883003F072BB62
:100CA000403004F09DB8096800684CF090BB00002B
:100CB00038B50C68054608464CB906F0A7F809494E
:100CC000024605F1080004F01CFA002038BD064970
:100CD00022F0E4FF18B105494FF4DF72F1E7232059
:100CE000F4E700BFE2EA04000CE9040056FB04004C
:100CF00038B50C4605460949204622F0CFFF58B1C9
:100D000064684CB906F09CF90549024605F10800F3
:100D100004F0F7F9204638BD0720FCE710E904008D
:100D2000841B050013B50C687CB908300849019094
:100D300004F028F90749019804F024F901980649BC
:100D400004F0DFF9204602B010BD2320FBE700BF0E
:100D500016E9040018E904000D14050037B50C4627
:100D600005461549204622F099FF98B1606800B306
:100D7000A368F3B90DF1070106F018FD044630B978
:100D80009DF807200D4905F1080004F0BAF9204646
:100D900003B030BD0A49204622F080FF38B16068B8
:100DA00038B1A3682BB906F003FD0446EFE723240E
:100DB000EDE70724EBE700BF1DE9040016FF040080
:100DC00027E904002DE9F0410B68044694B0084679
:100DD0007BBB54F8080F1C4EDFF8808002AF394609
:100DE00006F047F9BDF808201849204604F089F9B3
:100DF000BDF80A201649204604F083F9BDF80C20FE
:100E00001449204604F07DF908253368FA18204675
:100E10005168019152880092FB5A7268414604F071
:100E200070F9013D06F10806EFD1002014B0BDE8CD
:100E3000F081094922F032FF18B1A06806F01BF9D1
:100E4000F3E70720F2E700BF00F8040030E90400F0
:100E50003AE9040043E90400A70E050050E9040044
:100E600037B5054608680DF1070170B9A86805F0A7
:100E700011F8044630B99DF907200A4905F1080028
:100E800004F03FF9204603B030BD22F0CDFE044609
:100E90000028F7D19DF90710A86805F00FF804465F
:100EA000F0E700BF6DE9040037B50C68054674B97A
:100EB00055F8080F05F088FF0E494FF47A72B0FB21
:100EC000F2F2284604F01DF9204603B030BD4B680D
:100ED0006BB901A9204622F00AFF0028F5D1019B39
:100EE000A8684FF47A71594305F072FFEDE70720C7
:100EF000EBE700BF43E8040010B5044608460A4982
:100F000022F0CCFE30B10022A0681146BDE81040AE
:100F100006F0F4BA0549A068224606F0EFFA002868
:100F200008BF242010BD00BF5EE90400E91A0000DC
:100F30000B6837B505460C4683B980680DF107018B
:100F400004F0DAFF044630B99DF90720144905F191
:100F5000080004F0D6F8204603B030BD1149204601
:100F600022F09CFEC8B160680DF1070148B9A8687D
:100F700004F0C2FF04460028EDD19DF907200A497C
:100F8000E5E722F051FE04460028E4D19DF9071060
:100F9000A86804F0BBFF0446DDE70724DBE700BFD9
:100FA00064E9040074E90400841B050070B50E6850
:100FB00004460D468EB954F8080F05F037FF054674
:100FC00028B120460F4904F09CF8304670BD2046F9
:100FD0000D4904F096F82846F8E70A49284622F019
:100FE0005DFE064628B10121A068BDE8704005F00D
:100FF00011BF0549284622F051FE08B13146F3E7FA
:101000000720E3E77CE904007FE9040038B50D68B8
:101010005DB9044654F8080F05F0E3FE04490246A2
:10102000204604F06EF8284638BD0720FCE700BFD4
:1010300043E80400F0B50B6885B005460E4663B979
:1010400055F8080F05F009FF0446002C43D021464F
:10105000284603F0FFFF2469F7E72149304622F0D4
:101060001DFE50B17068694622F0EDFD18B9A86800
:10107000694605F0F6FE05B0F0BD1A49304622F08B
:101080000DFE074650B17068694622F0DCFD00286D
:10109000F1D1A868694605F0E9FEECE7124930464F
:1010A00022F0FCFD044648B155F8080F06F056F949
:1010B0000146284603F0CEFF3846DCE70B493046B0
:1010C00022F0ECFD48B155F8080F06F04BF9014647
:1010D000284603F0BFFF2046CDE72320CBE700BF23
:1010E0001CE8040042ED040084E904008AE90400DD
:1010F00038B50D685DB9044654F8080F06F0A2F93A
:1011000004490246204603F0FCFF284638BD232050
:10111000FCE700BF43E804000B6837B50546084606
:1011200083B9A86805F1080405F046FF10B1A86866
:1011300004F04AFE0146204603F0F4FF0024204656
:1011400003B030BD0DF1070104F072F80446002829
:10115000F5D19DF807201AB9A868114605F025FFBA
:101160009DF80710A86805F02DFF04460028E6D179
:101170009DF80730002BE2D00249A8682A4605F006
:1011800014FFDCE7351A00000B6837B505460C463E
:101190009BB980680DF1060105F04AFF044648B985
:1011A000BDF806209DF806300D49120A05F1080029
:1011B00003F0A7FF204603B030BD084622F067FDCC
:1011C00002280AD12368A8681A78597801EB02210D
:1011D00089B205F028FF0446ECE70724EAE700BFE0
:1011E00090E9040070B50E6804460D4666B954F8DF
:1011F000080F06F00EF906F010F9184902462046CD
:1012000003F07FFF304670BD1549284622F046FDA9
:1012100020B1A068BDE8704006F0ECB8114928463E
:1012200022F03CFD20B1A068BDE8704006F0E7B8B0
:101230000D49284622F032FD20B1A068BDE870407B
:1012400006F0D3B90949284622F028FD20B1A0684C
:10125000BDE8704006F0DAB90720D4E7E2EA0400FE
:1012600095E904009EE90400A4E90400ABE9040048
:10127000F8B50E4605461249304622F00FFD0746E6
:1012800028B10121A868BDE8F84006F0F1B80D4981
:10129000304622F003FD044608B13946F2E70A4918
:1012A000304622F0FBFC48B106F0F2F8074902464E
:1012B00005F1080003F025FF2046F8BD2320FCE7D8
:1012C00031190500B2E9040048ED040056FB0400A2
:1012D00037B5054608680DF1070170B9A86804F034
:1012E000CFFD044630B99DF907200A4905F10800F1
:1012F00003F007FF204603B030BD22F095FC044602
:101300000028F7D19DF90710A86805F0B3F8044646
:10131000F0E700BF6DE9040030B50D68044687B002
:1013200008466DB954F8080F1822694605F068FDA3
:101330000B496A46204603F0E4FE002007B030BDAA
:10134000084922F0ABFC48B154F8080F05F055FDF0
:1013500002460B46204603F061FEEEE70720EDE76C
:10136000E2EA0400CDFF040010B504460068884797
:1013700003490246204603F0C4FE002010BD00BF12
:1013800056FB04002DE9F0430D6895B004460E4667
:101390008DBB8068DFF8908006F0C4F8A946064649
:1013A000AFB2BE4236D9A068ADF80E9008AA394651
:1013B00006F047F9E8B99DF84930C3F3C0021B07AE
:1013C00017D4ADF80E20A06804AB0DF10E0239461B
:1013D00006F03CF968B904F1080341461846BDF827
:1013E0003820019303F0CEFD019804A903F032FEEA
:1013F000E9E70135D4E70A49304622F04FFC58B1FD
:1014000073685BB9074904F10800FFF7ADFF15B039
:10141000BDE8F0830020FAE72320F8E70720F6E78D
:1014200088ED040037750000B7E904007FB50C684B
:10143000002305460E468DF804308CB955F8080F88
:1014400005F042FF03A98DF8080002A803F07DFF14
:101450001E490246284603F054FE204604B070BDE3
:101460001B49304622F01AFC38BB33680146013B69
:10147000044613F8012F5AB16E2A05D0722A05D0FE
:10148000642A20D10124F4E70121F2E70120F0E7EA
:1014900028B19DF8043043F001038DF804302CB1DD
:1014A0009DF8043043F002038DF8043029B19DF813
:1014B000043043F004038DF804309DF80410A8684C
:1014C00005F011FFCAE70720C8E700BFE2EA040001
:1014D000F25905002DE9F7430D680446002D38D177
:1014E00000F10806284B294A294FDFF8AC80DFF8C5
:1014F000B0900321304603F05BFEA068E9B206F02D
:10150000FAF8F0B1A90201ABA0680DF1060201F4EE
:101510007C4106F0F6F839462A46304603F032FDA3
:10152000BDF806204FF6FE739A421BBF9DF80430AB
:101530001849194A920A04BF43464946304603F007
:10154000E0FD01353F2DD8D10025284603B0BDE888
:10155000F083284601A922F030FB05460028F4D18B
:1015600054F8080FBDF804100DF103030DF1060245
:1015700006F0C7F89DF80330BDF80620074920465D
:1015800003F0BFFDE1E700BF80F8040074F8040039
:10159000BEE90400C7E90400F2590500DFE90400D0
:1015A000D3E9040073B50C6805460E463CB10DF155
:1015B0000701204622F038FB60B102B070BD55F83B
:1015C000080F06F088F808490246284603F099FDFE
:1015D0002046F2E773682BB99DF90710A86806F05A
:1015E0007EF8EAE70720E8E7841B050037B50D68B9
:1015F0006DB90446694654F8080F05F099FC204679
:101600000822694603F0EEFC284603B030BD0720EF
:10161000FBE737B50C6805465CB955F8080F05F0CF
:1016200036FE08220146284603F0DCFC204603B0C3
:1016300030BD08226946204622F00FFB0028F6D173
:10164000A868694605F027FEF1E70000F0B50446FA
:1016500000F10805134B144A144F154E8DB00221AA
:10166000284603F0A5FDA06806F09CF80446B4B136
:1016700020463022694605F020FC6A463946284655
:1016800003F080FC04F112003022694605F015FCDD
:101690006A463146284603F034FD246BE7E72046CE
:1016A0000DB0F0BD8CF8040084F80400EEE90400ED
:1016B000F7E9040037B50C6805465CB955F8080F22
:1016C00005F01EFC08220146284603F08BFC20464C
:1016D00003B030BD08226946204622F0BEFA002839
:1016E000F6D1A868694605F00EFCF1E730B50C6844
:1016F00085B0054664B955F8080F694605F004FE43
:1017000028461022694603F06DFC204605B030BD26
:1017100010226946204622F0A0FA0028F6D1A868D7
:10172000694605F0F6FDF1E730B50B68044687B071
:10173000084683BBA06801A905F090FE054638BBAA
:1017400008341A49204603F01DFC082201A920464E
:1017500003F048FCBDF80C201549204603F0D1FCED
:101760009DF811201349204603F0CBFC9DF8122070
:101770001149204603F0C5FC9DF813200F4920466F
:1017800003F0BFFC9DF815200D49204603F0B9FC7D
:10179000284607B030BD0B4922F080FA20B1A0687E
:1017A00005F061FE0546F3E70725F1E701EA0400CD
:1017B0000CEA040015EA040029EA04003EEA0400E9
:1017C00061E8040047EA040073B50C6805460E465C
:1017D00034B101A9204622F08AFA60B102B070BD8E
:1017E00055F8080F05F0C7FB07490246284603F0E5
:1017F00088FC2046F2E7736823B90199A86805F0D0
:10180000BFFBEBE70720E9E743E8040030B50C46EF
:1018100087B005462149204622F040FAA0B1201D9C
:101820000DF1170103F004FD044638B99DF8173097
:101830003BB11B492A46A86805F056FF204607B071
:1018400030BD02460146F6E7206820B30DF11701CE
:1018500022F0A2F904460028F0D19DF817001F28B5
:1018600017D8012181400F4B01930023A8680295EE
:1018700000934FF6FF7205F012FE04460028DDD1FA
:10188000094B0A4A072105F1080003F091FC2424C2
:10189000D4E70724D2E70146E5E700BF4EEA04009B
:1018A000751D0000191E000048F904002CF9040001
:1018B000024B186800B9FEE7704700BFF00B00202C
:1018C000F0B50446A1B00D460026227DF3B29A423F
:1018D0001BD92269284652F83310DF0022F0DEF9C6
:1018E00001360028F1D06946284622F0DCF9236948
:1018F000A4693B4428465E6822F0E0F90138C1B291
:1019000001AA2046B04721B0F0BD2320FBE700002C
:1019100038B50C4600F10805284603F089FB228AF9
:101920001D49284603F02EFBA37C1C49032B96BFC0
:101930001B4A1C4A52F82320284603F023FBE27C72
:10194000194902F00102284603F01CFBA37CE3B90D
:10195000E37C5B0714D515496269284603F012FB46
:1019600004F11801284603F063FBA37C032B07D185
:10197000E37C628D0E49C3F34003284603F002FB6B
:101980002846BDE8384003F00BBB228D09492846A4
:1019900003F0F8FAE9E700BF94EB0400E1EA040081
:1019A000C0F70400C41005005AEA040067EA040006
:1019B00087EA04007BEA040010B500238EB0CDE96D
:1019C00001330446A06801AA03A905F061FE20B90D
:1019D00003A92046FFF79CFFF4E700200EB010BDDE
:1019E00030B597B00B6800938B88ADF804300E4982
:1019F0000E4B0F4D00F10804002A14BF1A460A4688
:101A0000204600230292ADF8563003F0C9FA68462A
:101A100005F01BFB28B903AA2946204603F071FBF9
:101A2000F5E717B030BD00BFA5EA0400A2EA040044
:101A3000E2EA040013460A4601461846FFF7D0BF03
:101A4000024A0349083003F09DBA00BF2AF404009B
:101A5000E2EA0400437F37B5044673B181B3084618
:101A6000019105F0BAF9019A1649034604F10800FC
:101A700003B0BDE8304003F044BB037F03B9FEE789
:101A800024291DD000F1080579B90F49284603F033
:101A900038FB002304F12000237707F04FF820469D
:101AA00003B0BDE83040FFF7CBBF0846019105F019
:101AB00094F9019A03490346284603F022FBE8E71C
:101AC00003B030BDA8EA0400B5EA040010B505492A
:101AD0000446083003F015FB20460021BDE8104005
:101AE000FFF7B8BFBAEA0400FFF7F0BF10B419B9A6
:101AF0005DF8044BFFF7AEBF91F901300A785DF84D
:101B0000044B0249083003F0FCBA00BFCDEA0400E0
:101B10000B4601461846FFF7E9BF000070B50446C2
:101B20000D4611461A4603F0D9F923460026164AF7
:101B3000A683C4E9025443F8202F2946C4E90A3495
:101B40002246C4E90C5404F1380001F071FD22462C
:101B5000294604F1400003F05DF822462946C4E915
:101B6000205404F1880002F0EFFB04F5EA5022460D
:101B70002946103001F0C8FF204626616661A66143
:101B8000FFF75EFF204670BDB31B000010B5054C8B
:101B900013460A4601462046FFF7C0FF024B1C6071
:101BA00010BD00BFF80B0020F00B00200021FFF754
:101BB00051BFC068FFF7FABF2DE9FF410B680393DF
:101BC000234B00930C2305460E464C2221490DEB76
:101BD000030005F0B0FE044678B1826863685110D6
:101BE00005EB6200D20748BF6A5806F1040148BFFE
:101BF000D358984704B0BDE8F0811749304622F029
:101C00004DF8E8B1DFF84C80144F05F1080654F8A0
:101C10000820394630460C3403F073FAB4F5647F7B
:101C2000F5D10E4F00242A7DE3B29A420DD92A69DC
:101C3000394652F83320304603F063FA0134F2E7B4
:101C400031462846FFF73CFED4E70020D2E700BF2C
:101C5000A70C000030F40400DBEA0400E2EA040010
:101C600030B50446A3B00D4601B9FEE7437F5BB132
:101C7000202201A9284621F0E1FEA0B1014620461C
:101C8000FFF7E8FE23B030BD037F002BFAD101231C
:101C900003774FF4C071284606F08CFDB0F5C07F85
:101CA000E6D30620EAE7019B23B923772046FFF716
:101CB000C7FEE7E701A92046FFF77EFF0028DDD138
:101CC000019B002BDAD1237F002BEFD0DAE7000055
:101CD000F0B501230F4E104F437789B00446152508
:101CE00056F8041B1D2268464BF08BFB00236A4606
:101CF000394604F108008DF81D3003F002FA6946F8
:101D00002046FFF7ADFF013DEAD12846657709B0CF
:101D1000F0BD00BFD8F80400E0EA0400FFF736BFCA
:101D200007B50190FFF7C4FD019903B05DF804EB1E
:101D3000FFF796BF082203F043B9000013B50C4625
:101D400008300A49019003F01DF901982146FFF778
:101D5000F1FF227A06490198C2F3001302F00F0244
:101D600002B0BDE8104003F0CCB900BFE5EA0400C2
:101D7000FFEA04000B4601461846FFF7DFBF0000EC
:101D800038B504460D4619B9BDE83840FFF762BEC4
:101D900091F839309B0604F1080412D501F10802CC
:101DA0002046164903F0EEF81549204603F0EAF8FC
:101DB00005F119012046FFF7BDFF1249204603F047
:101DC000E1F86A8E1049204603F0DCF829462046E7
:101DD000FFF7B0FF95F836200C49204603F0D2F803
:101DE00095F937200A49204603F0CCF895F83820B9
:101DF00008492046BDE8384003F083B916EB0400DB
:101E0000C4E90400445705001FEB040029EB04005B
:101E100031EB040038EB04000B4601461846FFF78F
:101E2000AFBF00002DE9F04F0C468FB08549054645
:101E3000204621F033FF064600287ED18249204605
:101E400021F02CFF00287FD120680DF1020121F044
:101E5000B4FE064600286CD1BDF80210A86802AA9C
:101E600005F0EAFB0646002863D10835BDF82220BC
:101E70007649284603F045F9BDF8202074492846E4
:101E800003F03FF92846734903F07CF808220DEB74
:101E90000201284603F0A6F89DF831209DF8003095
:101EA000C2F3000161F30003C2F3400262F3410395
:101EB00062F3820301A968468DF8003003F045FA09
:101EC00065490246284603F01CF99DF83120634914
:101ED0002846C2F3001203F014F99DF8242060494B
:101EE000284603F00EF9049A5E49284603F009F9E2
:101EF000059A5D49284603F004F99DF825205B49C1
:101F0000284603F0FEF89DF926205949284603F09B
:101F1000F8F8BDF82E205749284603F0F2F808E0FB
:101F20004946204603F02EF88AE0204603F038F8B0
:101F3000002630460FB0BDE8F08F4F4B4F4A0E21C0
:101F400005F1080003F034F9A868DFF85491DFF8D0
:101F500054A1DFF854B105F0E5FA00278046B9B284
:101F6000414505F10804E0D2A86802AA05F069FB22
:101F7000002865D19DF831301B0761D4BDF82220BF
:101F8000002ECDD05146204602F0FCFFBDF82020A7
:101F90005946204602F0F6FF049A3949204602F0DD
:101FA000F1FF059A3649204602F0ECFF9DF8252006
:101FB0003449204602F0E6FF9DF8242032492046AD
:101FC00002F0E0FF9DF83120304902F00102204686
:101FD00002F0D8FF9DF831202C49C2F34002204680
:101FE00002F0D0FF9DF831202849C2F3800220463C
:101FF00002F0C8FF9DF830202549204602F0C2FFBC
:102000009DF831202349C2F30012204602F0BAFFA6
:10201000BDF82C201B49204602F0B4FFBDF82E204D
:102020001849204602F0AEFF1B49204602F0AAFFE5
:1020300002A92046FFF77EFE1849204603F061F80A
:1020400001378CE733F0040040EB040082EB04001E
:102050008FEB040001EA04009AEB0400A3EB0400F8
:10206000B9EB0400C6EB04003EEA040015EA0400E4
:10207000D3EB0400DCEB0400C8F8040090F8040083
:1020800056EB04005FEB040066EB04006DEB04000C
:1020900072EB040077EB0400C4E90400D8EA040002
:1020A0007EEB040045EB04004CEB04002DE9F0430B
:1020B0000C4693B000239249ADF806300546204601
:1020C00021F0ECFD0646002840F00D818D492046A8
:1020D00021F0E4FD002840F00D818B49204621F0DD
:1020E000DDFD0646002840F0A9808849204621F001
:1020F000D5FD0746002800F0F4808249201D21F01C
:10210000CDFD38B9824B834A042105F1080003F064
:102110004FF83E46DFF848827F4FDFF84892A868C4
:1021200008AA0DF1060105F06FF9002840F0828041
:10213000BDF8302005F10804002E00F0C3804946A8
:10214000204602F01FFF08A92046FFF7F3FD0A987A
:1021500002A9152205F0D7F902AA20466F4902F01C
:1021600011FF0B9802A9152205F0CDF96C4902AABE
:10217000204602F0C6FFD2E7BDF83020494620468F
:1021800002F000FF2C4608AA54F8080F0DF10601D2
:1021900005F03AF900284AD1002EEDD09DF84630DE
:1021A00013F0080F14BF432252224146204602F08A
:1021B000E9FEBDF830203946204602F0E3FE0A9AD7
:1021C0005849204602F0DEFE9DF93D205649204642
:1021D00002F0D8FE9DF93E205449204602F0D2FE7E
:1021E0009DF846205249204602F0010202F0CAFE44
:1021F0009DF846204E492046C2F3400202F0C2FE3E
:102200009DF846204A49C2F38002204602F0BAFEF9
:102210002046484902F0B6FE08A92046FFF78AFD8D
:10222000BDF844204449204602F06BFFAAE720464F
:1022300002F0B6FE002013B0BDE8F08305F10804FB
:102240003E4B3F4ADFF81C813E4F3F4E0721204660
:1022500002F0AEFFA86808AA0DF1060105F0D4F857
:102260000028E7D1BDF830204146204602F08AFE22
:1022700008A92046FFF75EFD02A9BDF8400002F064
:102280005DFE39460246204602F07CFE02A9BDF8FA
:10229000420002F053FE31460246204602F072FE32
:1022A0009DF93D202949204602F06CFE9DF93E2013
:1022B0001D49204602F066FE0A9A2549204602F092
:1022C00020FFC7E74146204602F05CFE08A92046F1
:1022D000FFF730FDDDE90A233946204602F011FF01
:1022E0001DE70720A7E71B4B1B4A0A2105F1080041
:1022F00002F05EFFDFF86890DFF86C80174F41E76F
:1023000033F0040040EB0400F5EB040059EC04004A
:10231000A4F9040050F9040074EC040062EC040019
:102320006AEC040009EC040011EC040018EC040051
:102330006DEB0400C4E904001FEC0400B2F90400D2
:1023400088F9040034EC04003FEC040049EC04007C
:1023500050EC0400A8F9040060F904004CEB040000
:102360004EEB040028EC040001EC04002DE9F04FD2
:102370000C4689B06E490546204621F08FFC074681
:1023800000286ED16B49204621F088FC00286FD1CF
:1023900020680DF10A0121F010FC0646002840F0EB
:1023A000C280BDF80A10A86803AA05F06CF90646B9
:1023B000002840F0B8809DF81C205F49083502F0E5
:1023C0000102284602F09DFE9DF81C30DA0740F11C
:1023D000AA809DF816205949284602F092FEBDF8C1
:1023E00014205749284602F08CFE9DF817205549C5
:1023F0009202284602F085FE9DF81C205249C2F345
:102400004002284602F07DFE9DF81C309B0740F1FB
:102410008A8028464D4902F0B5FD03A928460822C6
:1024200002F0E0FD9DF818204949284602F069FEB7
:102430009DF819204749284602F063FE9DF81A20AE
:102440004549284602F05DFE9DF81B204349284679
:1024500002F057FE67E01A464946204602F092FD18
:1024600059E03F4B3F4A092105F1080002F0A0FE68
:10247000A868DFF81091DFF810A1DFF810B105F0BF
:1024800000F9002680462C46F3B254F8080F019359
:1024900003AA194605F0F7F800283CD1019B002F4C
:1024A000D9D09DF816205146204602F06BFDBDF8AC
:1024B00014205946204602F065FD9DF817202A4950
:1024C000204602F05FFD9DF818202849204602F0C2
:1024D00059FD9DF819202649204602F053FD9DF82C
:1024E0001A202449204602F04DFD9DF81B20224968
:1024F000204602F047FD2149204602F043FD03A992
:102500002046FFF717FC9DF81C201D49C2F340022E
:10251000204602F0F6FD0136F3B24345B3D920461A
:1025200002F03EFD0026304609B0BDE8F08F00BF46
:1025300033F0040040EB0400A0EC040074E8040055
:102540008FEB0400AAEC0400B9EC040001EA0400DB
:10255000C2EC040015EA040029EA0400CBEC0400F4
:10256000F4F70400D0F704008BEC040092EC0400B4
:102570005FEB040099EC040045EB0400C4E904009F
:10258000D2EA04007EEB04002AEB04004CEB0400CA
:10259000F7B50C6805460E461F464CB120460DF1B6
:1025A000060121F00AFB044650B1204603B0F0BDFD
:1025B0000068904707490246284602F0A2FDF4E76A
:1025C000736823B9BDF806102868B847EDE70724FB
:1025D000EBE700BF56FB0400F8B50E4605461A4966
:1025E000304621F05BFB38B1184B194A311D05F11B
:1025F0000800FFF7CDFFF8BD1649304621F04EFB2D
:10260000044610B1144B154AF0E71549304621F045
:1026100045FB08B90720EEE7776857B955F8080F6A
:1026200004F04BFB0F490246284602F06AFD38468B
:10263000E1E70D49301D21F031FB0028EAD0A86800
:1026400004F03FFB2046D6E7D3EC0400B36C000057
:10265000AB6C0000E0EC0400A36C00009B6C00007D
:10266000E9EC040056FB0400A70E0500F7B50C6862
:1026700005460E461F4644B1204601A921F037FB0E
:10268000044650B1204603B0F0BD006890470749AA
:102690000246284602F035FDF4E773681BB901993C
:1026A0002868B847EEE70724ECE700BF43E80400DA
:1026B00008B5034A034B0830FFF7D8FF08BD00BF39
:1026C0007D7200008572000008B5034A034B083094
:1026D000FFF7CCFF08BD00BF977500009F75000095
:1026E00038B50C4605460E49204621F0D7FA38B1D8
:1026F0000C4B0D4A211D05F10800FFF7B7FF38BD4F
:102700000A49204621F0CAFA38B1094B094A211D6D
:1027100005F10800FFF73CFFF1E70720EFE700BFF6
:10272000EDEC0400D9730000D1730000F5EC040057
:10273000ED730000E5730000F7B50D461E462B68EB
:10274000074611464BB128680DF1070121F024FA24
:10275000044640B1204603B0F0BDFEF705FE044636
:102760000028F7D0EFE76B6823B99DF807103868A9
:10277000B047EFE70724EDE708B5034A034B0830FD
:10278000FFF7DAFF08BD00BF717500007975000022
:1027900008B5034A034B0830FFF7CEFF08BD00BF62
:1027A000A7750000AF75000008B5034A034B083059
:1027B000FFF7C2FF08BD00BF1976000021760000B8
:1027C00008B5034A034B0830FFF7B6FF08BD00BF4A
:1027D000297600003176000008B5034A034B083023
:1027E000FFF7AAFF08BD00BFB7750000BF75000066
:1027F00070B50C4605461049204621F04FFAB0B19D
:10280000261D0E49304621F049FA40B10C4B0D4AC5
:1028100004F1080105F10800FFF78EFF70BD0A49B9
:10282000304621F03BFA20B1084B094AF0E723205B
:10283000F4E70720F2E700BFFFEC040009ED040015
:10284000936F00008B6F000007ED0400A36F000082
:102850009B6F000073B50C4606460DF1060120681B
:10286000154621F0AAF928B963682BB9BDF80610FE
:102870003068A84702B070BD0720FBE738B50C6888
:1028800000F108054CB9806804F058FB0549024680
:10289000284602F036FC204638BD034A2846FFF79A
:1028A000D9FFF9E710ED0400456F0000F7B50E46BB
:1028B00005462149304621F0F1F938B11F4A311D52
:1028C00005F10800FFF7C6FF03B0F0BD1C49304614
:1028D00021F0E4F9074668B104361A49304621F080
:1028E000DDF920B1A86804F0D4FA0020ECE7164A1C
:1028F0003146E5E71549304621F0D0F9D0B155F819
:10290000080F0DF1070104F0C9FA064670B13C4604
:102910000F4F9DF80720E3B29A4207D936F81320EB
:102920003946284602F02EFB0134F2E7284602F031
:1029300037FBDAE72320C7E71CE80400776E0000C6
:1029400017ED04001EED0400856E000022ED04006A
:102950007EEB040070B50C68164605461A4614B1A5
:10296000FFF778FF70BD0068B0470349024628466C
:1029700002F0C7FB2046F5E756FB040008B5034A02
:10298000034B0830FFF7E6FF08BD00BF25750000C8
:102990002D75000008B5034A034B0830FFF7DAFF36
:1029A00008BD00BF817500008975000073B50C4635
:1029B00006460DF107012068154621F0EDF828B90B
:1029C00063682BB99DF807103068A84702B070BD46
:1029D0000720FBE737B50C4611461A462368054623
:1029E0002BB121462846FFF7E1FF03B030BD01922D
:1029F000FEF7BAFC019A0028F7D0F2E7F8B50D46C9
:102A000006461049284621F049F906F1080748B161
:102A1000B0680EF05FFE02460B49384602F071FBCB
:102A20000020F8BD0949284621F038F918B1B068EE
:102A30000EF054FEEFE7064B064A29463846FFF7EC
:102A4000C9FFEEE726ED040030ED040036ED04008A
:102A5000CB6E0000C36E000008B5034A034B08307C
:102A6000FFF7B8FF08BD00BFC7750000CF750000B5
:102A700008B5024A0830FFF799FF08BD55750000F8
:102A800008B5024A0830FFF791FF08BDD97500006C
:102A900038B50C68054644B90068904704490246B9
:102AA000284602F02EFB204638BD0720FCE700BF79
:102AB000E2EA040038B50C4605461149204621F0EB
:102AC000EDF830B10F4A211D05F10800FFF7E0FFD6
:102AD00038BD0D49204621F0E1F808B10B4AF2E774
:102AE0000B49204621F0DAF808B10A4AEBE70A4917
:102AF000204621F0D3F808B1084AE4E70720E7E7C9
:102B0000005905002571000040ED04002D71000002
:102B100046ED04003571000050ED04003D710000E9
:102B200038B5094A044608300D46FFF7B1FF48B1F1
:102B3000296831B16B6823B9A068BDE8384004F05A
:102B40003CBC072038BD00BFB373000038B5094A4C
:102B5000044608300D46FFF79BFF48B1296831B1A4
:102B60006B6823B9A068BDE8384004F003BC0720B7
:102B700038BD00BF6D73000038B50C4605460A7AB3
:102B8000074902F0BEFA62880649284602F0B9FAFF
:102B9000626805492846BDE8384002F0B2BA00BF75
:102BA0004CFB040059FB04006BFB04001FB50B68D1
:102BB0000446E3B90F4902F0E5F9206801A904F0E1
:102BC00067F878B9204602F0EBF90B49BDF804200C
:102BD000204602F096FA01A92046FFF7CDFF00201B
:102BE00004B010BD0549204602F08BFAF7E7232018
:102BF000F6E700BF7EFB04008BFB04009CFB040097
:102C0000096800684AF0E3BB096800684AF0DFBB66
:102C1000D1E9002302F002BAD1E9042302F0FEB99F
:102C2000B1F85A20014902F06CBA00BF56FB04000B
:102C300001F13002014902F064BA00BFE2EA040087
:102C4000B1F85820014902F05CBA00BF10ED040051
:102C50000A6F014902F055BAA2FB04004A6D01490E
:102C600002F04FBA43E804000822413102F0BAB939
:102C70001022203102F0B6B9493102F01DBA0B68BA
:102C800010B514461A1D0A601868214620F028FF66
:102C900008B92081A07210BD0B6810B514461A1D2A
:102CA0000A60186804F1100120F01AFF08B92083A7
:102CB000A07610BD0B68181D0860186802F15A0153
:102CC00020F07BBF0B68181D0860186802F15801DE
:102CD00020F073BF0B68181D0860186802F17001BE
:102CE00021F005B80B68181D0860186802F154013E
:102CF00020F0FDBF0B6810461A1D0A6000F141016B
:102D00000822186820F0A9BF30B50B6885B01546B9
:102D10001A1D0A601868694620F095FF044628B914
:102D20006B4603CBC5F84900C5F84D10204605B0E9
:102D300030BD0B68186830B104330B60014602F1F6
:102D4000300003F0EDBF0720704700002DE9F0418F
:102D50000D4607461B492868144620F09FFF2B6844
:102D60001A1D2A6020B3D3F80480B8F1000F27D0D1
:102D700094F8773093B104F1300694F8783093B139
:102D800004F1410204F15C033146404603F0C6FF02
:102D900010B92B6804332B60BDE8F081386804F06B
:102DA000E5FA0646E9E7386804F071FA0246E9E711
:102DB00004F15C011868BDE8F041102220F04DBF1D
:102DC0000720E9E7F7E8040010B50C6834B90449B6
:102DD00091F8FE2002F006F9204610BD0720FCE71E
:102DE0005829002038B50D4604460C49284620F0E5
:102DF00055FF28B120680A49BDE8384003F06BBF91
:102E00000849284620F04AFF28B120680449BDE857
:102E1000384003F06ABF072038BD00BFAAFB04009A
:102E2000582900201C1B050010225C3102F0DAB882
:102E300008B5FF22002102484AF098F9002008BD99
:102E4000582900200B6810461A1D0A6000F1200165
:102E50001022186820F001BF13B50B46FE21ADF813
:102E6000061018680DF10601144620F004FF18B989
:102E7000BDF8063084F8FE3002B010BD30B50C4607
:102E8000A1B005461A49204620F008FF38B119497B
:102E9000286803F01BFF0446204621B030BD1649C8
:102EA000204620F0FBFE20B11249286803F018FFED
:102EB000F1E71249204620F0F1FE58B12868694632
:102EC00003F07CFF04460028E6D10A49684603F077
:102ED00049FFE1E70A49204620F0E0FE28B1054A13
:102EE000211D2846FFF7B8FFD5E70724D4E700BF28
:102EF000AAFB0400582900201C1B0500B1FB04009C
:102F0000B5FB040030B5C1B00C466A460431054635
:102F1000FFF7A2FF40B90B49204620F0BFFE28B1C1
:102F20002868694603F0D7FE41B030BD0649204607
:102F300020F0B4FE20B12868694603F0D6FEF3E71E
:102F40000720F1E7AAFB04001C1B050070B51368FD
:102F5000A2B006460D460192D3B91E4802A903F05D
:102F6000E6FE044688B96B6822AA134413F80C3CA9
:102F70005BB1EA68AB685110D50706EB620048BF49
:102F8000725802A948BFD3589847204622B070BD56
:102F90008022002102A84AF0E9F86A692B695110E1
:102FA00006EB6200D20748BF725801A948BFD35848
:102FB00002AA984704460028E7D16B68054922AA6F
:102FC0001344012203F80C2C02A803F0DCFE044693
:102FD000DBE700BF5829002038B50C460A88224993
:102FE000054601F0CFFFA378D80703D51F4928462F
:102FF00001F0C8FFA378990703D51D49284601F0C1
:10300000C1FFA3785A0703D51A49284601F0BAFF31
:10301000A3781B0703D51849284601F0B3FFA3780E
:10302000D80603D51549284601F0ACFFA3789906C8
:1030300003D51349284601F0A5FFA3785A0603D506
:103040001049284601F09EFFE378DB0703D50E49BF
:10305000284601F097FFE2780C492846C2F3420265
:10306000BDE8384002F04DB87EEB040064ED04008A
:1030700086F004003616050017FF04009EF00400D9
:103080002CFF0400F8E804005261050055FB040021
:103090006C31FFF7A1BF000073B5002301931368E3
:1030A0000E46186801A9154620F087FD0446002841
:1030B0007FD129684A680B1D2B60002A77D0013A1E
:1030C00012F8013F002B5BD0722B05D8622B05D87C
:1030D000432B3FD0522B4CD007246AE0633B0F2B8D
:1030E000FAD801A050F823F04B310000D93000008D
:1030F0005F310000D9300000D9300000D930000025
:10310000D9300000D9300000D9300000D93000009B
:10311000D93000003731000029310000693100004A
:10312000D9300000413100009DF8063043F0010322
:103130008DF80630C4E79DF8063043F00203F7E748
:103140009DF8063043F00403F2E79DF8063043F0A3
:103150000803EDE79DF8063043F01003E8E79DF81B
:10316000063043F02003E3E79DF8063043F04003C8
:10317000DEE79DF8073043F001038DF807309FE745
:10318000886801F108032B6088B10DF1030120F07C
:1031900003FD88B92B689DF803200433072A2B60B0
:1031A0009AD89DF8073062F343038DF807300198F1
:1031B0003060204602B070BD0446FAE713460A4666
:1031C00003F16C01FFF768BF07B5044B00930E22B3
:1031D000182304F0B0FB03B05DF804FB012C0000E1
:1031E0002DE9F047A2B00446084602A903F09FFD6E
:1031F000064658BBDFF85CA0DFF85C80DFF85C9027
:103200000C27DAF804300193414601A8FFF7DCFFF0
:10321000436822AA1344054613F80C3C93B1DAF82C
:1032200000204946204601F0ADFEEB685A1013F02D
:10323000010F18BFA25804EB6300AB6802A918BFC6
:10324000D3589847013F0AF1080ADAD1304622B034
:10325000BDE8F087B0FC04007CFD0400FC13050011
:1032600070B5C0B005460E460068694603F02EFDF5
:10327000044630B933683BB969462846FFF7B0FFCA
:103280000446204640B070BD0649304620F006FD99
:1032900030B19DF8FE206946284601F0A3FEF0E714
:1032A0000724EEE72AF0040070B5C0B005460E46CC
:1032B0000068694603F014FD044630B933683BB931
:1032C00069462846FFF78CFF0446204640B070BD93
:1032D0000649304620F0E2FC30B19DF8FE206946F8
:1032E000284601F07FFEF0E70724EEE72AF004000D
:1032F0002DE9F043E5B00E4680220021044604A8E3
:1033000049F034FFFF22002124A849F02FFF2F4F5E
:10331000DFF8C480331D0293029BD3F80090B9F10B
:10332000000F2FD0394603A8CDF80C90FFF74CFFC3
:103330000546B0B14269029B511004EB62000433B0
:10334000D20748BF625802932B6902A948BFD358DD
:1033500004AA9847002833D16B6821AA0121D154CF
:10336000DAE70298414620F099FC60B3029924AA5A
:10337000043120460291FFF76FFD08BB029B043326
:103380000293C9E71249304620F088FC054670B91F
:103390001049304620F082FCA8B1CDE900559DF8D7
:1033A0008E31206824AA04A903F0B3FC08E0CDE91B
:1033B00000999DF88E31206824AA04A903F09FFC8F
:1033C00065B0BDE8F0830720FAE700BF7CFD04008C
:1033D000AAFB04001C1B05002AF004002DE9F04F95
:1033E000CBB000240F4603AD0646FF2221460AA8B3
:1033F000C5E90044AC6049F0B9FEDFF8C890DFF8D9
:10340000C8A007F10408D8F800B0BBF1000F2ED017
:103410002949CDF808B002A8FFF7D6FE30B14268BE
:103420000121A954C3460BF10408ECE74946404684
:1034300020F034FC48B108F1040B0AAA5946304682
:10344000FFF70AFD0028EED006E05146404620F086
:1034500025FC044618B907204BB0BDE8F08FD8F81A
:10346000040006A908F1040B20F0EDFBEAE713497C
:10347000384620F013FC60B130689DF826310CB15D
:103480000DF1180BCDF800B00AAA294603F032FC62
:10349000E2E70B49384620F001FC0028DBD0306819
:1034A0009DF826310CB10DF1180BCDF800B00AAA29
:1034B000294603F029FCCFE77CFD0400AAFB0400A9
:1034C0001C1B05002AF00400A0580500F0B50B688D
:1034D00085B005460C4623B92049FFF781FE05B0AB
:1034E000F0BD1F49204620F0D9FB60B11D4F1E4E94
:1034F0000024E259314628460C3401F002FE6C2CBF
:10350000F7D10020EBE723681849039303A8FFF7DE
:103510005BFE014620B1221D2846FFF717FDDEE7BE
:1035200023680393124B00930C230DEB03000D490A
:10353000092204F000FA034668B182685B68511002
:1035400005EB6200D20748BF6A5804F1040148BF86
:10355000D3589847C3E72320C1E700BF582900206C
:10356000DBEA040010FD0400E2EA04007CFD040034
:10357000092C00000968006849F029BF38B50C68BB
:1035800005464CB9006803F099FD044902462846F7
:1035900001F0B7FD204638BD0720FCE756FB0400CC
:1035A00038B50C68054608464CB9286803F08AFD12
:1035B00008490246284601F0A4FD002038BD06490E
:1035C00020F06CFB18B1286803F080FDF5E70720B8
:1035D000F4E700BF56FB0400A70E050030B50C460B
:1035E00087B005461149204620F058FBD8B102A902
:1035F000201D01F05AFE172807D1002360688DF8BE
:1036000010300822694620F028FB30B99DF81030B0
:10361000286823B102A903F07FFD07B030BD6946D9
:1036200003F075FDF9E70720F7E700BFCCFE0400C3
:10363000C0E900127047437C5A0744BF702301F869
:10364000013B437C1B0744BF612301F8013B437CE2
:10365000DA0644BF642301F8013B437C9B0644BF68
:10366000632301F8013B437C5A0644BF722301F8EF
:10367000013B437CDB091CBF6F2301F8013B837CCA
:10368000DB0744BF732301F8013B837C9A0744BFE7
:103690006E2301F8013B837C5B0744BF442301F8A0
:1036A000013B00230B70704730B50C4687B00546D0
:1036B00001F0DAFC01A92046FFF7BDFF9DF80430B8
:1036C00023B1094901AA284601F05CFC607C40F363
:1036D000010040B201F00AFEA38A044902462846CE
:1036E00001F00FFD07B030BDE1EA0400D2FE040096
:1036F000037D1B0744BF732301F8013B037D5A0779
:1037000044BF6E2301F8013B037D9B0644BF612348
:1037100001F8013B00230B707047000030B50C46E8
:1037200087B0054601F0A0FC01A92046FFF7E0FFA5
:103730009DF8043023B1094901AA284601F022FC72
:10374000207D40F3010040B201F0D0FD638A0449BE
:103750000246284601F0D5FC07B030BDE1EA04007E
:10376000D2FE040070B50C4605464A68124901F0C5
:1037700009FC227A04F10901284601F021FC0F49D5
:10378000284601F0FFFB94F8072104F584712846D0
:1037900001F016FC94F80631DB0703D508492846EA
:1037A00001F0F0FB2378B4F8002206492846BDE872
:1037B000704001F0A6BC00BFDBFE040044570500CA
:1037C000E0FE0400E3FE040013B9006803F086BCC9
:1037D0001720704713B9006803F085BC17207047A5
:1037E00013B9006803F084BC17207047F0B5ADF53D
:1037F0001B7D00230E46624900930446154601F0E6
:1038000080FC4FF6FF77334606AA69462046FFF74D
:10381000DBFF50B9BD4203D0BDF82C30AB42F2D132
:1038200006A92046FFF740FFEDE75649204601F084
:1038300068FC002300934FF6FF7733460CAA6946D5
:103840002046FFF7C7FF50B9BD4203D0BDF8423054
:10385000AB42F2D10CA92046FFF760FFEDE74A49E1
:10386000204601F04EFC002300934FF6FF773346CD
:1038700019AA69462046FFF7B3FF50B9BD4203D0ED
:10388000BDF86432AB42F2D119A92046FFF76AFFB6
:10389000EDE7002E5DD14FF6FF739D4259D13B49B4
:1038A0003B4D204601F02DFC0096206801AA694698
:1038B00003F023FC88B90DF10601204601F0D4FB8A
:1038C0009DF805309DF80420002B14BF63232D23A1
:1038D0002946204601F015FCE7E7206812A903F00D
:1038E00011FC2C49204601F00CFC9DF860309D072E
:1038F00032D5BDF84A202849204601F043FB9DF807
:103900006030D8072DD5BDF848202449204601F065
:1039100039FB9DF86030190728D5BDF85E201E4997
:10392000204601F02FFB9DF860305A0723D59DF803
:103930004C200DF14D01204601F042FB9DF8603016
:10394000DB0603D51649204601F01CFB204601F09A
:1039500027FB0DF51B7DF0BD1249204601F012FB3F
:10396000CDE71049204601F00DFBD2E70D49204676
:1039700001F008FBD7E70C49204601F003FBDDE727
:10398000ECFE0400F6FE0400FEFE040008FF040046
:1039900012FF040019FF04007EEB040050EB04004A
:1039A0002BFF040028FF0400F259050030B5C3B016
:1039B000FF2305468DF8073081B900680DF1070334
:1039C00002AA03F076FB044628B99DF8072002A955
:1039D000284601F007FB204643B030BD0C24FAE72F
:1039E0002DE9F04F85B000244FF6FF73DFF8848097
:1039F000DFF88490ADF80E3006460D462746A24605
:103A00005FFA84FB05EB8B0355F82B20D2B11846E7
:103A10004146019320F042F9019B70B9494618468E
:103A200020F03CF960B955F82B000DF10E0120F0A3
:103A3000C4F818B105B0BDE8F08F82460134DFE765
:103A40000746FBE7BDF80E20BAF1000F00D14FB1D9
:103A50004FF6FF739A420BD127B151463046FFF71C
:103A6000A5FFE7E730465146FFF7C0FE0020E1E73B
:103A70000720DFE724E804002AF004002DE9FF41D5
:103A80000B6805460C4693B9DFF878801A4F00267C
:103A900056F80820394628460C3601F032FB302E05
:103AA000F6D123682BBB232004B0BDE8F081134975
:103AB000204620F0F3F80028E6D123680393104B4A
:103AC00000930C230DEB03000E49042203F033FF97
:103AD00003460028E7D082685B68511005EB62005E
:103AE000D20748BF6A5804F1040148BFD358984729
:103AF000DAE70020D8E700BFE2EA0400DBEA0400CE
:103B00007535000048FF0400C0E90012027A6FF327
:103B10000002027270470968002330B51360013952
:103B20004FF47A730A2411F8010FE8B1A0F13005BF
:103B3000092D11D8B3F57A7F02BF10686043106079
:103B400008781568303803FB0050B3F57A7F1060B1
:103B5000E9D0B3FBF4F3E6E72E2804D1B3F57A7F7E
:103B600001D16423DFE7072030BD000070B50E46A9
:103B700092B004464E49304620F090F828B12068B3
:103B800003F0E5FA002012B070BD4A49304620F03B
:103B900085F8054600B1043600213C2203A849F00F
:103BA000E5FA4549304620F079F868B1706803A914
:103BB00020F049F80028E6D1206803A903F03EF977
:103BC00008B90720DFE708363C49304620F066F8A0
:103BD00018B101238DF84430043620680DF1070335
:103BE00007AA314601F08EFB0028CCD19DF80730A2
:103BF0003BB13349204601F0C5F907A9204601F041
:103C000029FA706800282ED1B068002831D1F368F5
:103C1000002B35D1306900283BD173696BB102AA02
:103C200006F114012046FFF776FF0028ABD1029B76
:103C3000B3F5803FC5D2ADF84030B369002BC0D199
:103C4000204B0B93204B206803A9CDE90C3403F0E3
:103C500079FA002897D1237A002D65F300032372A7
:103C600008BF24208FE70EA91FF0A7FF0028CBD0A4
:103C700089E70DF13A011FF0A0FF0028C7D082E7C5
:103C80000FAA06F10C012046FFF745FF0028C1D01E
:103C900079E70DF142011FF07FFF00287FF473AF39
:103CA0009DF84230B3FA83F35B098DF84330B4E7F3
:103CB000B2E904005EE9040078FF04007BFF040021
:103CC0007EFF0400053D0000B13D000037B54A8A83
:103CD00008320C46054692B2084901F053F92146D4
:103CE000284601F0A5F9238A0093A28AA37D0449FE
:103CF000284601F006FA03B030BD00BFA1FF040062
:103D0000B0FF04000B4601461846FFF7DFBF000076
:103D1000024B186800B9FEE7FDF79CBEF00B0020CF
:103D200037B50C460A884B881E49054601F02AF92A
:103D300022889AB1237B8BB963889A420ED3D11A19
:103D40004FF47A734B430A2193FBF2F32846B3FBFB
:103D5000F1F201FB1233144901F014F9628892B1B7
:103D60006368608901904FF47A714B43B3FBF2F2C0
:103D7000B2FBF1F301FB132200920C4922899BB2A2
:103D8000284601F0FFF8284601F00AF9297A11F0D7
:103D9000010105D1284603B0BDE83040FFF7B8BFA8
:103DA00003B030BDD0FF0400FDFF04001600050085
:103DB0000B4601461846FFF7B3BF00002DE9F04F50
:103DC00090F8A4528BB004460F4600F52B76002DD8
:103DD00040F0FD800B68002B5BD10123A0F8A832D6
:103DE00040F6262540F6262204F53971304603F0C8
:103DF000E5F92022002102A849F0B8F9754B039398
:103E000094F8A832002B00F0D880734B0593734BC5
:103E1000069304F10807724B07932068029404F696
:103E20000A5302AA3946CDE9083503F0A2F905463E
:103E300088B96C4B039320686B4B049302AA04F57A
:103E40001E71029403F0ADF90546002800F0B88019
:103E5000384603F0A4F994F8A9329BB104F5C25096
:103E6000083028F045FF04F5BA50183028F07EFEDF
:103E700004F5D1500C303CF013FC04F5C65018305A
:103E80002DF059FC304603F0A7F9304603F0A6F9AF
:103E900099E0564938461FF001FFA8B1A4F8A8528E
:103EA000786800289CD002A91FF021FF0546002851
:103EB000D1D1029DEB1D05EBD3056A1E40F62523EB
:103EC0009A428FD90725C6E7494938461FF0E6FED2
:103ED000804618B10123A4F8A832E1E745493846E5
:103EE0001FF0DCFE0028EDD004F5C65940F20113A6
:103EF00009F1180904F5D15BA4F8A83248460BF182
:103F00000C0B04F5BA5A2DF011FC0AF1180A5846A8
:103F100004F5C25508353CF0BFFB504628F03CFB89
:103F2000284628F07BFE42463349284628F03FFBCE
:103F30004146284628F034FB3049284628F040FB0B
:103F400003221146284628F0B8FB032211462846D2
:103F500028F0AEFBE9222A49CDF8008043465846B6
:103F60003DF0A2F8024618B12649204601F0C9F8F2
:103F700040F22D32244948462EF062F8024618B12C
:103F80002249204601F0BDF840F2992220494846D6
:103F90002EF056F8024618B11E49204601F0B1F83D
:103FA0002946504628F046FD024600283FF478AFE7
:103FB0001949204601F0A5F872E7184B049326E74B
:103FC000012384F8A43228460BB0BDE8F08F1825F1
:103FD00041E700BF0D4A00006D4A0000DF4A0000C3
:103FE00065440000114500005145000040000500F7
:103FF0004700050050000500159300001C0F050048
:10400000540005003D0105005E0105008B0405001C
:10401000B20405004B070500720705003148000097
:1040200090F8A43223B10B6823B9083003F0B3B879
:104030000D207047072070470968006849F0C7B92C
:104040000B68F7B50446BBBB90F8A432B3B390F845
:10405000A9329BB100F5C250083028F049FE04F5A2
:10406000BA50183028F082FD04F5D1500C303CF0E5
:1040700017FB04F5C65018302DF05DFB04F1080065
:1040800003F08DF80027064684F8A77204F52B701C
:10409000019003F0A1F8019803F0A0F8054604F59B
:1040A0001E7003F089F884F8A4724EB9BD4208BFAF
:1040B0000546284603B0F0BD0725FAE70D25F8E7C9
:1040C0003546F6E70B6810B504465BB990F8A432A4
:1040D00053B1083003F061F818B984F8A50284F8E8
:1040E000A60210BD0720FCE70D20FAE70B6833B9E4
:1040F00090F8A4322BB100F51E7003F05BB80720D6
:1041000070470D2070472DE9FF4190F8A432054615
:104110000E46002B5DD041F23C73C358002B5ED19C
:104120000F68002F57D04C68002C54D190F8A8325B
:1041300043B390F8A9820846B8F1000F13D01FF0DE
:10414000A6FD024605F5BA50394618302AF020F986
:10415000002842DA20F0800010F5D24018BF01207C
:1041600004B0BDE8F0811FF092FD03AA034600925F
:10417000CDF804803A4605F52B7105F1080003F0EF
:104180001FF8EDE790F8A7324BBB00F53974C0F883
:10419000D832C0F8DC4208461FF079FD40F62622EE
:1041A000904203D830461FF072FD02463168C5F8D0
:1041B000E022204648F0B2FF002205F5367105F1F5
:1041C000080002F0E2FF0028CAD1012385F8A732D7
:1041D000C6E70D20C4E70720C2E72046C0E7052058
:1041E000BEE730B590F8A43287B005460C46A3B1BF
:1041F000206801A91FF027FD58B9606805A91FF0C4
:10420000DCFC30B9A36833B901A905F1080002F05C
:10421000B8FF07B030BD0720FBE70D20F9E730B548
:1042200090F8A43287B004460D46CBB1286801A9A6
:104230001FF009FD80B9686805A91FF0BEFC58B9D8
:10424000AB685BB904F51E74204602F0B3FF18B9E1
:1042500001A9204602F0ACFF07B030BD0720FBE704
:104260000D20F9E72DE9F0471F4690F8AA32ADF589
:10427000007D04460E46154663B990F8A932002B1E
:104280003CD01FB12B49204600F03BFF0DF5007DCF
:10429000BDE8F087002AF4D090F8A93283B300F586
:1042A000BA56DFF89880DFF8989018360DF10C0AAE
:1042B0004FF4FA72514630462AF056FC021E07DAD5
:1042C00012F5D24F0CD04946204600F01AFFEDE718
:1042D000CDF800A013464146204600F012FFE5E766
:1042E00015492A46204600F00CFFCAE7454500D094
:1042F000FEE72946304602F04CFFC2E7002AC0D054
:1043000003A9304602F043FFDFF838904FF0000871
:10431000039A002AEAD0D2E90123494600922046B6
:104320001A4600F0EEFE039B9A681B6803939044C4
:10433000EEE700BFFB070500C5070500A80705005D
:1043400090070500DE070500C0E900120121A0F872
:10435000A81241F23C710022C0F8A42280F8AA22DF
:10436000425000F5BA510A6041F24871425041F2A0
:10437000507200F10801815041F2547200F52B7126
:10438000815070472DE9FF410B6805460C4693B9F3
:10439000DFF878801A4F002656F80820394628465C
:1043A0000C3600F0AEFE782EF6D123682BBB23200E
:1043B00004B0BDE8F081134920461FF06FFC0028CF
:1043C000E6D123680393104B00930C230DEB0300FD
:1043D0000E490A2203F0AFFA03460028E7D08268AC
:1043E0005B68511005EB6200D20748BF6A5804F1C0
:1043F000040148BFD3589847DAE70020D8E700BF48
:10440000E2EA0400DBEA0400394000003C0F05004A
:10441000042A96BF104B114A53F82220104910B5B8
:10442000044600F06EFE94F8A93223B104F5BA50A8
:10443000183028F098FB41F23C72002384F8A53232
:10444000A4F8A632A35004F5BA5204F52B701360F9
:10445000BDE8104002F0C0BE280F0500C4100500E2
:104460001608050013B50446019102F087FE019A73
:10447000214602B0BDE81040FFF7CABF38B5154667
:1044800090F8A522044662B11D4900F07BFD294643
:10449000204600F01BFE20461A4900F032FE0120A3
:1044A00038BD00F10801196090F8A9320BB900205D
:1044B000F6E700F5C255083513460121284628F0D5
:1044C000B1FB024618B11049204600F01AFE41F631
:1044D00028230022E158284628F096F804F5D15206
:1044E00004F5C6510C321831284628F06FF8024600
:1044F0000028DCD00549204600F003FED7E700BFC6
:104500001E0805004E080500670805008F08050015
:1045100037B50D460446019202F048FE019B2A463B
:10452000214603B0BDE83040FFF7A8BF38B51D46AF
:104530000123044680F8A532044900F023FD2946F2
:104540002046BDE8384000F0D3BD00BFB5080500E7
:1045500037B50D460446019202F028FE019B2A461B
:10456000214603B0BDE83040FFF7E0BFF0B52B4F68
:1045700087B0044600F5BA5633681BB900252846B3
:1045800007B0F0BD04F52B710846039102F022FE3E
:104590000028F3D035680399B5F5826F2B4628BF04
:1045A0004FF4826398424FF0000215D99D4294BFA8
:1045B00000250125059294F8A922FAB104F5BA5014
:1045C0001A463946183029F0E3FE002806DD336824
:1045D000059098421DD9FEE71546EBE720F08000D4
:1045E00010F5D24F15D001250D49204600F089FD68
:1045F00041F23C720023A3503360C0E705AA019545
:10460000009204F108003A4602F0DAFD054600285F
:10461000EAD13368059A9B1A3360ADE7CF080500ED
:10462000E00C050041F24C7370B5C25841F248737A
:104630004FF4FA54C358590804FB02140849B4FB58
:10464000F3F4054600F05DFD4FF47A732846B4FBA1
:10465000F3F2044903FB1243BDE8704000F051BD82
:10466000F50C0500370D0500F8B50D4604463F4929
:1046700028461FF013FBD8B13D49204600F082FCCC
:1046800041F23C73E6582EB13A49204600F039FD1C
:104690000020F8BD41F24873E5583DB12046364947
:1046A00000F02FFD2046FFF7BDFFF1E73349ECE7AF
:1046B000334928461FF0F2FA50B394F8A732002B82
:1046C00052D141F23C76A119A359002B4CD1686814
:1046D000B8B94FF49033A351AB68CBB901F0EDF802
:1046E00041F2447341F23C76E05004F5BA5394F839
:1046F000A852A7591F606DB12046BDE8F840FFF7EA
:1047000035BF1FF0F4FA0028C3D1A359002BE3D121
:104710000720BEE704F5397340F6262261211846CA
:1047200048F024FD07F6252140F625229142AFD915
:1047300041F2307141F234726550A05040F62622A9
:10474000B7FBF2F302FB1373002B08BF134641F2D1
:1047500038722144A35004F108002A4602F015FDE6
:10476000002895D0A55194E7052092E7520D050049
:10477000590D0500700D0500780D0500820D05002E
:104780008B0D050038B5044601F097F841F24473EB
:1047900041F23C75E358C01A41F24873E05041F2CF
:1047A0004C736259E2502046FFF73CFF00236351EF
:1047B00038BD0000F8B590F8A8520446114605B17E
:1047C000FEE741F23C7600F53673825942B99942D0
:1047D00005D190F8A73203B9FEE780F8A722F8BD0B
:1047E000994200D1FEE700F5BA528F681368BB42C8
:1047F00000D2FEE7DB1B136040F6252293420ED960
:1048000040F626238B602A46083002F0BEFC0028C2
:10481000E5D00649204600F074FCA551DFE7002BE7
:10482000DDD1BDE8F840FFF7ADBF00BFE00C0500EB
:1048300013B50446019102F0A1FC019A214602B091
:10484000BDE81040FFF7B6BF73B500F5BA5518358F
:1048500011490446284627F0F3FE024618B10F49D5
:10486000204600F04EFC0E220D49284627F0D0FECF
:10487000024618B10B49204600F043FC002604F51F
:10488000BA51094B094A00961031284627F092FE8A
:1048900084F8AA6202B070BD8F0D0500990D050065
:1048A000BE0D0500CD0D050015720000E171000080
:1048B00038B590F8AA320546CBB900F5BA50183091
:1048C00027F086FF0124024638B90A49284600F03D
:1048D00018FC85F8AA42204638BD20F0800313F565
:1048E000D24FF8D00449284600F00BFCF3E700242F
:1048F000F1E700BFFD0D0500140E0500F0B590F8BE
:10490000A43287B004460F46002B5FD000680DF13B
:10491000030301AA00F0F6FC054608BB9DF803302E
:104920003BB12B49204600F02DFB01A9204600F0A9
:1049300091FB786805A91FF040F9054680B9BB686E
:10494000002B41D007F10805224928461FF0A6F99F
:10495000064640B9204928461FF0A0F920B907258E
:10496000284607B0F0BD0126FB68002BF7D194F86C
:10497000A9326BB1002304F5C2501A46194608301B
:1049800028F050F9024618B11449204600F0B9FB4E
:10499000324601A904F1080002F0F5FB05460028A3
:1049A000DED1012384F8A532734084F8A63294F84E
:1049B000A932002BD4D0002ED2D12046FFF744FFDD
:1049C0002046FFF775FFCBE70126D0E70D25C7E7A7
:1049D0002D0E0500560E05005B0E0500670805004C
:1049E00010B50446084900F08CFB94F8A93253B185
:1049F00094F8A6323BB92046FFF726FF2046BDE8D3
:104A00001040FFF755BF10BD600E050007B50190BF
:104A100002F0B4FB019903B05DF804EBFFF7E0BFCF
:104A200038B590F8A8320446154603B9FEE711469A
:104A300000F52B7002F0CCFB94F8A93213B120469C
:104A4000FFF736FF41F23C73E35873B104F5BA53F4
:104A50001B6823B12046BDE83840FFF787BD25B964
:104A60002046BDE83840FFF78DBE38BD37B50D464E
:104A70000446019202F082FB019B2A46214603B0C4
:104A8000BDE83040FFF7CCBF2DE9F0411F4600F1F3
:104A90000803994204460D46164600D0FEE790F8FA
:104AA000A5328BB990F8A922012380F8A53280F8AD
:104AB000A6323AB93B46324629462046BDE8F04187
:104AC000FFF7D0BBFFF7C0FE94F8A932002BF1D05E
:104AD0002046FFF7EDFE0028ECD0BDE8F081F7B5E9
:104AE0000D4616461F46044602F048FB0097334623
:104AF0002A462146FFF7C8FF03B0F0BD70B50C464B
:104B000086B00546134920461FF0C8F8B0B10434FA
:104B10000026206801A91FF096F868B9606805A909
:104B20001FF04BF840B9A36893B92868334601AA2F
:104B300005F10C0102F01BFE06B070BD06492046CF
:104B40001FF0ACF810B104340226E2E70126E0E7DA
:104B50000720F1E7B40F0500B70F050030B587B0A7
:104B600004460DF10303006801AA0D4600F0CAFBDC
:104B7000B8B99DF803303BB10C49204600F002FA69
:104B800001A9204600F066FA686805A91FF015F82B
:104B900038B9AB683BB9206801AA04F10C0102F0F6
:104BA000EBFD07B030BD0720FBE700BF2D0E050071
:104BB00000F10C01006802F0D5BD000013B500F152
:104BC0000C0104460068019102F0BDFD40B9064A9F
:104BD00001992068234602B0BDE8104002F0AEBD46
:104BE000182002B010BD00BFD94E0000096800684F
:104BF00048F0EDBB10B50C680B4634B100F108016C
:104C0000BDE81040184600F013BB017A00F08AFAA4
:104C1000204610BD10B50123C0E9001204460372FE
:104C2000342200210C3048F0A1FA204610BD73B5A3
:104C3000302305460C468DF807306126DCB1012291
:104C40000DF10701284602F00AFAA8B99DF80730CD
:104C50005A2B07D07A2B0AD0392B0AD141238DF851
:104C6000073001E08DF80760013CA4B2E6E730238D
:104C7000F5E70133F3E7204602B070BD70B590B0A0
:104C800005460191322603AA0DF10A0101A8ADF8EB
:104C90000A601EF0F9FF044608B124280AD1BDF8C5
:104CA0000A2003A9284602F0DAF908B1044601E017
:104CB000002CE8D1204610B070BD00002DE9F04175
:104CC0008CB0012300F10C07054688468DF80530AD
:104CD0003946037A00688DF8043002F034FD00286C
:104CE0006DD02622002102A848F040FAD8F80830FA
:104CF000FBB128680DF1060306AA414600F002FB4D
:104D0000044600285CD19DF806303BB13049284666
:104D100000F038F906A9284600F09CF9D8F80400FC
:104D20000DF12A011EF049FF0446002848D108F180
:104D30000808286801A902F0F3FC0646002843D0C1
:104D4000244940461EF0AAFFD0B1D8F804000DF166
:104D500006011EF032FF044670B9BDF80610304659
:104D6000FFF765FF044638B9286802AB324639467A
:104D700002F007FD044618B3304602F068F91FE060
:104D8000154940461EF08AFF30B1D8F80410E9B149
:104D90003046FFF773FFE5E7104940461EF07EFFFF
:104DA00008B108F10408D8F800407CB140461EF074
:104DB0006EFF21460246304602F051F9D2E70D243B
:104DC00020460CB0BDE8F0810324F9E70724D3E7BF
:104DD000BA0F0500E00F05002AF00400E30F0500FC
:104DE0002DE9FF410B6805460C4693B9DFF8788042
:104DF0001A4F002656F80820394628460C3600F08F
:104E000080F9482EF6D123682BBB232004B0BDE8DF
:104E1000F081134920461EF041FF0028E6D12368A7
:104E20000393104B00930C230DEB03000E49062255
:104E300002F081FD03460028E7D082685B685110CC
:104E400005EB6200D20748BF6A5804F1040148BF6D
:104E5000D3589847DAE70020D8E700BFE2EA040019
:104E6000DBEA0400ED4B000010100500F0B504462D
:104E7000ADF2E45D08460D46164602F0EAF8074634
:104E8000284602F0EAF811493A1A204600F07AF86A
:104E900006F11001204600F0CBF8728C0C49204638
:104EA00000F070F8284602F0D8F801AA014640F256
:104EB000DB53284602F0D5F801AA00231354054914
:104EC000204600F01EF90DF2E45DF0BDE60F05008E
:104ED000B4EB0400E2EA0400FFF7C8BFC0E9001227
:104EE00070472DE97043002304460D46137554EABC
:104EF000050306D1302302F11306D3743046BDE812
:104F0000708302F11406204629460A22002347F046
:104F10002BFF303206F8012D204629460A220023B5
:104F200047F022FFA946A046B9F1000F08BFB8F12B
:104F30000A0F04460D46E6D2E0E7000037B5054605
:104F4000072268460C4603F0BDFC42F2107303FBD7
:104F500005F04FF6FF73B0FBF3F064230549B0FB97
:104F6000F3F203FB1203684603F0D4FC204603B0BF
:104F700030BD00BF58100500D0E900301847406828
:104F8000FFF7FABF0EB403B503AA52F8041B01924F
:104F9000FFF7F5FF02B05DF804EB03B070470000C7
:104FA0000149FFF7EFBF00BF880405000A46024B26
:104FB0000249FFF7E7BF00BFC95305008010050095
:104FC000F8B5074E07460C468D18AC4206D014F8CB
:104FD000012B31463846FFF7D5FFF6E7F8BD00BF95
:104FE0006010050010B50446FFF7EAFF2046BDE853
:104FF0001040FFF7D5BF000010B586B01946044633
:1050000010466A46FFF76DFF034902462046FFF748
:10501000B9FF06B010BD00BFE2EA040010B50446B7
:10502000FFF7EAFF2046BDE81040FFF7B9BF0000D8
:1050300010B58AB0044628220846694601F03BFFB5
:1050400003496A462046FFF79DFF0AB010BD00BF26
:10505000E2EA040010B50446FFF7EAFF2046BDE887
:105060001040FFF79DBF000010B58CB004462D2204
:105070000846694601F023FF03496A462046FFF7C8
:1050800081FF0CB010BD00BFE2EA040013B5CC886C
:105090004B880A8864BAA4B20194898849BA89B253
:1050A0005BBA52BA00919BB2024992B2FFF76AFF13
:1050B00002B010BD6510050010B50446FFF7E6FF0D
:1050C0002046BDE81040FFF76BBF000010B58CB064
:1050D000044630220846694601F0EFFE03496A465D
:1050E0002046FFF74FFF0CB010BD00BFE2EA0400FE
:1050F00010B50446FFF7EAFF2046BDE81040FFF771
:105100004FBF0EB417B505AA044652F8041B01920E
:10511000FFF735FF2046FFF743FF03B0BDE810401F
:1051200003B07047034A044B002914BF11461946C7
:10513000FFF7E7BF76100500B9F104000CB473B5B2
:1051400006AD044655F8046BFFF730FF2A4631469A
:1051500020460195FFF713FF2046FFF721FF02B01D
:10516000BDE8704002B070472DE9F341DFF83C80A4
:105170000D4F14468E18B4420FD041460190FFF7F0
:1051800001FF14F8015B0198002DF4D03946013D70
:105190000190EDB2FFF7F6FEF5E7044902B0BDE875
:1051A000F041FFF7AEBF00BFF25905000A590500F4
:1051B0002DE9F04FDFF87090DFF870B085B004464D
:1051C0000E461F46154603F1FF3802EB810A55458E
:1051D0001CD055F8043B18F8012F0392184602938F
:1051E00048F007F9039A029B0230904206D8C2F1B8
:1051F000010259462046FFF7C5FEE8E700934946FD
:10520000134620465242FFF7BDFEE0E7204605491F
:10521000FFF777FF3A463146204605B0BDE8F04F2C
:10522000FFF7A2BFD9EA0400841005007E10050034
:1052300070B50D46094906461EF030FD044618B10A
:1052400001232B70002070BD054930461EF026FD5D
:1052500008B12C70F6E72320F5E700BF8B1005009E
:105260009210050037B5054608460DF107011446B2
:10527000FFF7DEFF28B99DF807102868A04703B0A4
:1052800030BD2320FBE770B50E68154604461A466C
:105290001EB1BDE87040FFF7E5BF0068A8470146B2
:1052A0002046FFF73FFF304670BD70B506460068E8
:1052B0000C4608B9072070BD2F2148F07BF8054641
:1052C00088B104F1080101301EF066FC0028F2D11B
:1052D000227A013A3F2AEDD8287030682146BDE88D
:1052E00070401EF0FDBB1720E5E7000001300228EA
:1052F0009ABF024B53F8200001487047B8100500D0
:10530000C95305002DE9F341804608680F4616464B
:105310001D46C0B111461EF096FC00232B700446BA
:1053200068B1386801A91EF093FC40B9324601A962
:10533000404601F0A8FE044608B901232B70204620
:1053400002B0BDE8F0810724F9E7037813F0010FFC
:105350000B461CBF722203F8012B0278920744BF50
:10536000642203F8012B0278520744BF6E2203F82F
:10537000012B8B4204BF2D2203F8012B00221A704F
:105380000846704703289ABF024B53F82000024892
:10539000704700BFCC100500C410050000F140208C
:1053A00000F50030002382B0036003680193019B85
:1053B00002B0704708B5094B020103EB0010084B1F
:1053C0004168C3F84813C168C3F808130089FFF7A0
:1053D000E5FF044B0021995408BD00BFDC10050017
:1053E00000400240682A0020224B37B519460120B0
:1053F000D3E84F2FD2B28DF807209DF8072062B175
:10540000BFF32F8F1C4B1A681C4B12B91A68D207B6
:105410002DD518680230400827E0C3E8420F002A63
:10542000E6D1174B0222C3F80823BFF35F8F03F5C1
:105430008273124A1B684BB1136801331360BFF3C8
:105440005F8F4FF48270FFF7A9FF012310680C4CA7
:10545000022501304008C4F80453BFF35F8F0024D5
:105460000C7013B113680133136003B030BD1868BA
:10547000D1E700BF582A0020044102405C2A0020E6
:10548000004002402DE9F04106460C46FFF7ACFF14
:105490000546BFF35F8FDFF82080D8F80475BFF3AF
:1054A0005F8FFFF7A1FF3060854218BFD8F8047501
:1054B0002760BDE8F08100BF004002402DE9F843BD
:1054C0004C4CDFF840E1DDE9083C04EB021889466A
:1054D0009842D8F80C10D8F80480CEF808134FEA98
:1054E0000215CEF844839E4672D9A0EB0308B8F1AA
:1054F000000F6DDA00334CF1FF3CC84618EB000892
:105500004FF000034FF0000949F1000913EB0806C2
:105510004CEB090732B94FF47A7303FB07F1A6FB92
:1055200003670F44344B4FEA563848EAC748A8FB94
:105530000389790B03FB01994FEA18704FEA197838
:1055400040EA091043F609534FEA482C4CEAD05C74
:105550004FEA402EA0FB030103FB0811B6EB000845
:1055600067EB0106254840F2314101FB08F100FBE1
:105570000616A8FB0078B0444FF0FF36BE1947F678
:10558000FF7048EB00004FEAD03818EB0E084FF0E0
:10559000000141EB0C0C28F07F4640F2FF10A8FB05
:1055A000038903FB0C9918EB000049EB0101D2B110
:1055B000400A40EAC150490A114B124A2B44C3E940
:1055C0000201635903F5A87342F82360BDE8F8832C
:1055D000704592D2AEEB000EBEF1000F8DDA0033B3
:1055E0004CF1010C89E74FF4FA22002347F0BCFB91
:1055F000E2E700BFDC100500D07B63087B2DE8BD2F
:10560000682A00200040024073B5064601A968469A
:10561000FFF738FF019843F6095140F2FF120023CB
:10562000E1FB0023540A44EAC3545D0A009A084B84
:10563000E3FB024546B9204629464FF47A7200231F
:1056400047F092FB04460D462046294602B070BD45
:105650000080841EF8B51A4D05EB001304460601C0
:1056600018890F46FFF79AFE2046FFF7CDFF024646
:105670000B463FB913493144D1E902018B4208BFBF
:1056800082421CD33544104B6A68C3F84823022C6D
:10569000EA68C3F808230AD0032C0CD0094A012376
:1056A00093550A4A1370BDE8F84000F064BFBDE8A6
:1056B000F84043F079BFBDE8F84043F085BAF8BD43
:1056C000DC100500682A002000400240572A002014
:1056D0002DE9FF410746884602A803A91646FFF7B1
:1056E000D1FE039843F6095140F2FF120023E1FB7B
:1056F0000023540A44EAC3545D0A029A294BE3FB8F
:10570000024546B9204629464FF47A72002347F0F5
:105710002BFB04460D463246CDE90045414638464E
:10572000FFF7CCFE204B039AD3F804359A4203D0FE
:1057300003A902A8FFF7A6FE039B43F60950991C94
:1057400040F2FF120023E0FB0123540A44EAC35451
:105750005D0A029A134BE3FB024546B920462946EF
:105760004FF47A72002347F0FFFA04460D460F4AC1
:1057700002EB0612D2E902239D4208BF94424FEA8F
:10578000061107D301213046FFF764FF40BF04B084
:10579000BDE8F081064B0B44DA68034BC3F80423E1
:1057A000F5E700BF0080841E00400240682A002008
:1057B000DC10050038B52A484022002147F0D6FC0D
:1057C000284B00201860284B1870284B0024002517
:1057D000C3E9004546F0A4FE46F0E0FE0028FBD0F9
:1057E000234BC02283F824231022C3F884215A605B
:1057F000204A0023C2F808354FF48270FFF7CEFD2F
:105800000223C2F844334FF4A070C2F80433FFF708
:10581000C5FD4FF48033C2F848334FF4A270C2F88C
:105820000833FFF7BBFD4FF40033C2F848334FF4A1
:10583000A470C2F80833FFF7B1FD4FF48023C2F81B
:1058400048334FF4A670C2F80833FFF7A7FD4FF4B2
:105850000023C2F84833C2F808330123136038BD6F
:10586000682A00205C2A0020582A0020602A002094
:1058700000E100E0004002402DE9F04100260B4F1E
:105880000446B0460A4D87F800802B7C1BB12046A9
:105890002E7403F01FFA2B781BB120462E7003F0F4
:1058A000E1F93B78002BEDD1BDE8F081572A0020CB
:1058B000682A00200120FFF7A7BE08B5FFF7FAFF0E
:1058C0004FF47A72002347F04FFA08BD084611469C
:1058D0000022FFF7FDBE0020FFF76CBD08B5FFF703
:1058E000E9FF08BD084611460122FFF7F1BE01207D
:1058F000FFF760BD70477047044B4FF48022C3F838
:105900000823BFF34F8FBFF36F8F704700400240F3
:10591000024B4FF48022C3F804237047004002403A
:10592000FFF7DCBF1F2070470222FFF7D1BE022025
:10593000FFF740BD2DE9FF48154F164E40F2FF140A
:10594000002502A903A8FFF79DFD029A43F609531B
:1059500020462946E3FB0201400A039B40EAC1506E
:10596000490AE7FB03018C4683460322CDE900BCCC
:105970003E215846FFF7A2FD4FF40023C6F804333A
:10598000D6F80435029A9A42DBD104B0BDE8F0881B
:105990000080841E0040024037B5044603200D46B7
:1059A000FFF732FE0322CDE9000129462046FFF72A
:1059B00085FD034B4FF40022C3F8042303B030BD30
:1059C000004002400320FFF7F5BC000008B5224B61
:1059D00001221A604FF4A070FFF7E0FC1F4A4FF459
:1059E0008033C2F848334FF4A270C2F80833FFF78F
:1059F000D5FC4FF40033C2F848334FF4A470C2F81A
:105A00000833FFF7CBFC4FF48023C2F848334FF440
:105A1000A670C2F80833FFF7C1FC4FF40023C2F8A8
:105A20004833C2F808330223C2F808334FF48270B7
:105A3000C2F84833FFF7B2FCFFF7C4FF084B10224F
:105A4000C3F88420C3F88421002283F82423BDE80E
:105A5000084046F08FBD00BF0440024000400240B5
:105A600000E100E0004870474C410240014B986B58
:105A7000704700BF682A0020114B1B6870B52BB11E
:105A8000104B0222C3F80823FFF7AEFC0E4D0D4E5B
:105A90000024D6F80423EB681A420AD02B8903F1BC
:105AA000402303F500331B681BB10021E0B2FFF770
:105AB000D1FD0134042C05F11005EAD170BD00BF01
:105AC0000441024000400240DC100500FFF7F2BE36
:105AD000012303FA00F0084A82B0C04352E8003FB5
