:100000000000042051AA000079AA00007BAA000089
:100010007DAA00007FAA000081AA00000000000065
:1000200000000000000000000000000083AA0000A3
:1000300085AA00000000000087AA000089AA00002D
:1000400041AA000091950000153700008BAA00001E
:100050008BAA00008BAA00008BAA00008BAA0000CC
:100060008BAA00008BAA00008BAA00008BAA0000BC
:100070008BAA0000C93300008BAA00008BAA0000E5
:100080008BAA00008BAA00008BAA00008BAA00009C
:100090008BAA00008BAA00008BAA00008BAA00008C
:1000A0008BAA00008BAA00008BAA00008BAA00007C
:1000B0008BAA00008BAA00000000000000000000D6
:1000C0008BAA00008BAA00008BAA00008BAA00005C
:1000D000992600008BAA00008BAA00008BAA0000C2
:1000E0008BAA00008BAA00008BAA00000000000071
:1000F000000000008BAA0000000000008BAA000096
:1001000000000000000000000000000000000000EF
:1001100000000000000000000000000000000000DF
:1001200000000000000000000000000000000000CF
:1001300000000000000000000000000000000000BF
:1001400000000000000000000000000000000000AF
:10015000000000000000000000000000000000009F
:10016000000000000000000000000000000000008F
:10017000000000000000000000000000000000007F
:10018000000000000000000000000000000000006F
:10019000000000000000000000000000000000005F
:1001A000000000000000000000000000000000004F
:1001B000000000000000000000000000000000003F
:1001C000000000000000000000000000000000002F
:1001D000000000000000000000000000000000001F
:1001E000000000000000000000000000000000000F
:1001F00000000000000000000000000000000000FF
:1002000010B5054C237833B9044B13B10448AFF350
:1002100000800123237010BDA80000200000000012
:10022000DCCF000008B5034B1BB103490348AFF313
:10023000008008BD00000000AC000020DCCF000002
:10024000A3F5803A704700BF174B002B08BF134B34
:100250009D46FFF7F5FF00218B460F461348144AD1
:10026000121A0AF067FF0E4B002B00D098470D4B77
:10027000002B00D098470020002104000D000D48FD
:10028000002802D00C48AFF300800AF0F9FE2000ED
:10029000290000F014F80AF0DFFE00BF000008009B
:1002A000000000000000000000000420A800002062
:1002B0006C4F00200000000000000000704770B587
:1002C00005460E463146284602F096FF03F00AFB2B
:1002D000044600F019F802F0B9FF18B1204603F007
:1002E00005FBEFE7204603F0C1FB204602F0B4FF18
:1002F000F1E710B50C4603F08DFA204610BD00F072
:10030000FEB800F0F3B8000010B5044603F06CF935
:1003100020460249BDE8104000F046B8F302000054
:1003200070B50446154600F095F904F68213C4F83A
:100330007859C4F87C3904F58C504FF4006304F507
:100340008C55A4F8803904F67C110C35043006F085
:1003500012FA284606F070FA04F58D520023138035
:1003600041F2A412A118881DA0504FF400728A8097
:1003700041F2AC32094EA35441F2B032A018A6505B
:100380004360074A2346284606F05DFA201D0549CA
:10039000224605F0EDFC204670BD00BFC5040000FC
:1003A000D9050000E103000010B5064C0A460146DD
:1003B0002046FFF7B5FF00F0D7F9844200D0FEE7F2
:1003C00010BD00BFC8000020D0F87C2900F68213C1
:1003D0009A4204D100F59D50103003F0BDBB704728
:1003E000FFF7F2BF2DE9F04100F58D570446051DDA
:1003F000013704F58D56284605F0BAFD337880B1F3
:10040000022B4DD0D4F87C5904F682102D1AA9B2D3
:10041000002955D0D4F878399847ADB285424FD0ED
:10042000FEE7012B22D0022B3AD0002BE3D120464D
:1004300000F0A0F908B102F0A7F9204600F0A4F9F5
:100440000028DFD104F58C50043006F098F900281C
:10045000D8D1284605F0D7FD01233370284605F092
:10046000E7FD60B9284605F0ECFD387004F58C50C6
:100470003978043006F08CF90028EFD0C2E794F800
:100480009880284605F0ADFEB8F1000F06D094F82C
:1004900098301BB941F2AC330122E254022333708D
:1004A00004F58C50043006F0A1F90028AAD141F2DD
:1004B000AC33E218E35C3070002B9CD0107098E7EE
:1004C000BDE8F08108B500F04FF9BDE80840FFF73E
:1004D00089BF00F68213C0F87C394FF40063A0F89E
:1004E000803900F59D50103003F036BB08B500F0A0
:1004F0003BF918B1BDE80840FFF7EBBF08BD13B5E5
:100500000446019100F030F948B1019A00F58C5091
:1005100021460C3002B0BDE8104006F099B902B097
:1005200010BD0000F0B50C46A1B015461E4600F007
:1005300035F92346194A1A4F802168460AF030FEE1
:1005400068460AF069FE69460246002001F09AF802
:100550000024A642A0B20ED0292C0BD0A4EB84011B
:1005600004EB44002B5D3A46803168440AF018FEE3
:100570000134EEE7204600EB4000C0F18001094A5B
:1005800068440AF00DFE68460AF046FE0DF10101CE
:10059000421E002001F076F821B0F0BD1CC600001C
:1005A00030C6000036C6000041F2A412F8B58358E8
:1005B0008718BE1D9B1B05469BB2144641B91A46BF
:1005C000314600F0B9FE4FF400732E51BB80F8BDE8
:1005D0003246FFF7A7FFF6E7FFF7E6BF00207047B8
:1005E00001B1FEE7006870471C282ED8DFE800F054
:1005F000300F11132D1517192D2D2D2D1B1D1F21FA
:100600002D2D2D272D2D2D25232D2D292B0001209E
:1006100070470E2070470B2070470C207047092050
:100620007047032070470220704704207047112054
:10063000704712207047132070471420704716200F
:100640007047172070471820704700F580407047AA
:1006500000207047F8B50646044646F8041B4FF4E0
:10066000006200F1D101304605F075FB00252665DA
:1006700004F1540304F17402C3E9005508339A42AB
:10068000FAD1C4E91E55A4F8745004F1800005F0B5
:10069000E7FD304A84F898500421C82384F8C81034
:1006A0002D49C4F89C50C4E928232C4B0968C4F890
:1006B000CC100022C4E92B354FF6FF77002304F558
:1006C0001761C4E92E23C4E93023A4F8A870C4F844
:1006D000B45084F8D050A4F8D258A4F84C5984F8F7
:1006E0004F59A4F8505984F85259C4F85859C4F8CD
:1006F0005C59C4F86059C4F8645984F86859C4F85E
:100700006C59C1E90023236803B9FEE7144B15496E
:100710001C602246304605F02EFB7822002104F6AC
:10072000D4000AF007FD7722002104F1B80084F814
:10073000535984F8555984F8547984F84E5984F8FB
:10074000D15801F099FB04F1AC0003F005FA204602
:10075000F8BD00BF00F8FF07B8CB0000210B000078
:1007600080140020870B0000014B1868704700BF01
:100770008014002090F8C830042B1ABF90F898001D
:1007800080F001000020704790F8C830012B06BFB0
:1007900090F8980080F0010000207047D0F8583998
:1007A0000133C0F8583970472DE9F843994690F85D
:1007B00050390D1E0446164608BF702513B10D2092
:1007C000BDE8F88300F1B8072946384601F0D2FBAE
:1007D0000028F4D194F8D22894F8D3389A420AD059
:1007E0000B220021384601F047FB04F1AC0003F076
:1007F000B3F90320E4E704F150082B4606228021D8
:10080000404605F034FF48B9206D1FFA89F23146A1
:1008100005F0BDFC10B9404605F00CFF0328CFD110
:10082000DEE70000013804289ABF024B185C002064
:10083000704700BF39C600002DE9F84311F00F06DC
:1008400001F00F0709D1022A04D11A463146B83007
:1008500001F012FB3046BDE8F88390F8D35890F8C9
:10086000D288A5EB08040E2C06DD0E220021B8303C
:1008700001F002FB0326EDE7C1F3011C61464418B9
:1008800094F8D148B4421CD045451AD944460E2CA0
:1008900002D90F3CE4B2FAE704F58D7400EBC4040E
:1008A00094F804E01EF0400F11D00EF00309494502
:1008B0000DD1CEF38309B14509D16FF3861E84F8BB
:1008C00004E029460E2907D90F39C9B2FAE708F121
:1008D00001085FFA88F8D7E701F58D7100EBC101D7
:1008E0004CF0400402F0030244EA870444EA022484
:1008F0008A8822F45F7222F0030214438A688C8093
:1009000063F3170201358A60002680F8D358A1E707
:1009100013460222FFF790BF38B511F0300F00F1F7
:10092000500408BFC0F89C2015460023062220462C
:1009300005F09DFE48B92946204605F0E0FD20B9A6
:100940002046BDE8384005F075BE38BD2DE9F743B7
:1009500004460D466846114691461E4600F0C6FE06
:10096000DDE900782FB918F0010F02D1E6B932465F
:100970001BE004F150064B4606222946304605F09E
:1009800076FEC8B94FEA680318F0010F18BFE358A4
:1009900004EB680018BFDF59B84768B9304603B0A8
:1009A000BDE8F04305F046BE0D222946204603B0BF
:1009B000BDE8F043FFF7B0BF03B0BDE8F08370B50A
:1009C0000446002694F8D25894F8D338AB423ED06F
:1009D00005F58D7504EBC5021379590616D404EBA1
:1009E000C5052B796FF386132B7194F8D238013338
:1009F000DBB20F2B84F8D238E4D194F8D33884F8E2
:100A0000D2680E2B20D90F3BDBB2FAE7C3F301000B
:100A1000C3F383015379926841EA001103F00303A1
:100A200061F07F01022BC9B2C2F3170205D1204643
:100A3000FFF772FF0028D2D070BDB3FA83F35B09D1
:100A40002046FFF783FFF5E784F8D338BAE70020A4
:100A5000F2E700002DE9F74FD0E92E2313430446B7
:100A60004BD0B83001F005FA2C4F804600254FF0EE
:100A7000010AEBB2434540D2D4E92E30C5F1200142
:100A8000A5F12002EB4000FA01F10B4320FA02F23B
:100A9000134313F0010FC5F12009A5F1200602D17F
:100AA0000C370135E5E73A686ABBD7F804B0BBF10B
:100AB000770F06D1206801F04DFE082898BF00F19D
:100AC000700B5A4680212046FFF726FFA8B9D4E9CB
:100AD0002E120AFA06F62AFA09F90AFA05F321EAA9
:100AE000030346EA0906009322EA06030193DDE9BF
:100AF0000023C4E92E231343D2D1012384F868399B
:100B000003B0BDE8F08F94F86839002BDFD00123E3
:100B100080212046FFF71AFFD8E700BF94C90000E4
:100B2000014B1868FFF796BF8014002090F89830AA
:100B300010B5044633B1D0F8CC308B4204BF00234B
:100B400080F898302046FFF73AFFD8B994F8D010D3
:100B500099B101230C222046FFF7F8FE90B994F8D2
:100B6000C83084F8D000042B07D0201D05F0FEF912
:100B70000123C4F8CC0084F898302046BDE810402A
:100B8000FFF768BF10BDFFF7D1BFF8B500F1500502
:100B900004462846069EBDF81C7005F068FD50B955
:100BA000206D3A46314605F0F2FA20B92846BDE8F4
:100BB000F84005F03FBDF8BD2DE9F04F042B87B09C
:100BC00004460D46174602D0052B18D0FEE7114605
:100BD00004A800F0A3FDDDE904864FF0070906F044
:100BE000010BB8F1000F13D1BBF1000F10D10D2292
:100BF00029462046FFF78CFE07B0BDE8F08F11466E
:100C000004A800F097FD4FF00809DDE90486E6E747
:100C100004F1800A504605F002FC0DF10A0203A916
:100C2000504605F0DCFB504605F000FC002384F83C
:100C3000503904EB66007310BBF1000F02D0E3588B
:100C400053F80880C047012384F85039064618B18C
:100C5000FFF7CAFC0246CBE7BDF80A300193039BBD
:100C600000934A463B4629462046FFF78EFF002860
:100C7000C2D03246BCE708B50022FFF749FE08BDE6
:100C800037B50223B0F888208DF80730B0F88630E9
:100C90009A42044622D1206802F02CFE94F8522990
:100CA00022440023FF2182F8541982F84E3982F839
:100CB000533982F8553904F15000C4F85839C4F852
:100CC0005C39C4F86039C4F8643905F000FD70225D
:100CD00080212046FFF720FE88B1FEE70DF10701D5
:100CE000803005F0D5FA054600B1FEE79DF80730E3
:100CF0002068022BCFD002F0FBFD024B1D600020CC
:100D000003B030BD8014002010B50446006802F026
:100D1000FAFD0146206DBDE8104005F025BA10B57A
:100D20000446006802F08BFE0146206DBDE81040CD
:100D300005F01ABA37B50023054601A980300193A2
:100D400005F028FB0446A0B99DF80410286802F0BD
:100D500078FE044668B9286802F0D5FD48B195F8D8
:100D600052392B4493F84E391BB1286802F0F0FD3C
:100D70000446204603B030BD10B50446006802F0BA
:100D8000CBFD002818BF0221206D08BF0021BDE85F
:100D9000104005F0E9B913B5002304460DF1070131
:100DA00080308DF8073005F073FA58B99DF8073098
:100DB00023B1013B012B07D9072003E0014620683E
:100DC00002F0B0FD02B010BD0121F8E737B50546CD
:100DD0000DF10701803005F06BFA044620B99DF84B
:100DE0000710286803F01AFF204603B030BD10B585
:100DF000044654F8500B02F027FE01462046BDE899
:100E0000104005F020BB13B504460DF106018030FB
:100E100005F06CFA20B9BDF80610206802F016FE45
:100E200002B010BD10B50446006802F012FE0822A0
:100E30000146206DBDE8104005F0A9B913B50822A0
:100E4000044601A9803005F0BCFA18B90199206860
:100E500002F001FE02B010BD10B5044654F8500B6C
:100E600002F0FCFD01462046BDE8104005F0EBBA5B
:100E700090F852390344006D93F84E1905F074B997
:100E800037B5002305460DF1070180308DF8073096
:100E900005F00EFA044688B9286802F034FD30B136
:100EA0009DF80730286863B102F052FD044695F8BA
:100EB00052099DF80730054485F84E39204603B0A5
:100EC00030BD02F03BFDF1E710B50446006803F0C9
:100ED000A1FE0146206DBDE8104005F045B910B5F2
:100EE0000446006803F098FE0146206DBDE81040FE
:100EF00005F03AB9F8B505460E460024012707FA71
:100F000004F33342E1B204D10134202CF7D10020A4
:100F100004E0286D05F028F90028F5D0F8BD00237D
:100F2000F7B505460C460B6000F180070126B5F8C1
:100F30008620B5F888309A420FD00DF10701384667
:100F400005F0A6F950B99DF807301F2B08D8226884
:100F500006FA03F313432360E9E7002003B0F0BD72
:100F60000720FBE7D0F8A010FFF7C4BF13B500239C
:100F700001A904460193FFF7D2FF10B9019BC4F801
:100F8000A03002B010BDB0F8A410503005F05BBA2C
:100F900000F1A401803005F0A9B910B5044600683D
:100FA00002F0B1FC014640B194F85239234493F960
:100FB000543901330CBF00210221206DBDE81040DF
:100FC00005F0D2B837B5002305460DF10701803092
:100FD0008DF8073005F05CF9044620BB9DF807301A
:100FE0000BB3022B22D1286802F08DFCD8B195F802
:100FF0005209284490F95439013319D1D5F8A03059
:10100000C3B15A1E1A4015D15B08D1B2144602F181
:101010000102F9D180F85449074BB5F8A42028689B
:1010200002F0A1FC0446204603B030BD0C24FAE7D0
:101030000D24F8E70724F6E74D1A000013B504461F
:1010400001A9803005F0A6F928B90199012204F11F
:10105000B80000F047FF02B010BD13B5044601A967
:10106000803005F097F928B90246019904F1B800DB
:1010700000F038FF02B010BDD0F89C10503005F0E1
:101080003EBA10B500F150040421204605F037FAAD
:1010900028B920460321BDE8104005F030BA10BD44
:1010A0000321503005F02BBA0021503005F027BA4B
:1010B00010B500F150040521204605F020FAF8B9DA
:1010C0000C21204605F01BFAD0B91821204605F066
:1010D00016FAA8B92221204605F011FA80B940F28B
:1010E0000121204605F00BFA50B94021204605F0B9
:1010F00006FA28B920464121BDE8104005F0FFB9A5
:1011000010BD10B5044602F0F7FB014604F1500093
:10111000BDE8104005F030BA006D012105F024B89B
:10112000006D002105F020B8006D042105F01CB809
:101130000C20704713B504466946006802F090FC25
:10114000206D0822694605F022F802B010BD022188
:10115000503005F0AABA90F8C810006D05F004B838
:1011600073B504460E4680300DF1070105F090F886
:1011700080BB9DF80730022B23D002D9DA1E012A4A
:1011800021D884F8C830002384F8D0300C22012301
:1011900031462046FFF7DAFB94F8C830042B0546A9
:1011A00008D090B9201D04F0E1FEC4F8CC00012362
:1011B00084F8983015B184F8D0600025284602B034
:1011C00070BD0123DDE70323DBE7074B1B68C4F891
:1011D000CC30ECE7FFF708FA314602462046FFF72D
:1011E0009BFB0546EAE700BFB8CB00000C2A10B510
:1011F0001C4603D0712A06D0002010BDFFF7B0FFB7
:1012000020700120F9E700F095FDF9E7F0B585B011
:1012100004460D4602A81146002716468DF80770B1
:1012200000F070FADDE9023000F0010273B96AB92A
:101230000DF10703324629462046FFF7D7FFF8B9DC
:101240000D2229462046FFF763FB17E0411084F882
:10125000507904EB60000AB16258D35898470122D4
:101260008DF8070084F8502918B1FFF7BDF9024640
:10127000E7E7334629462046FFF7DEFA8DF80700F8
:101280009DF8070005B0F0BD73B5002304460D4678
:10129000803001A91646019305F07CF8024640B162
:1012A000FFF7A2F9294602462046FFF731FB024626
:1012B00004E0032E15D004D8022E0CD0104602B044
:1012C00070BD331F012BF9D8019A334629462046B9
:1012D000FFF772FCEBE7019B29462046FFF7ACFACB
:1012E000E5E7019A29462046FFF790FFDFE737B58B
:1012F00004460D46803001A905F04CF880B9019AEA
:10130000012A0FD008D9931E032B10D90522294694
:101310002046FFF7FDFA03E029462046FFF7ABFC25
:1013200003B030BD29462046FFF7AAFCF8E729465E
:101330002046FFF7A9FFF3E730B5012385B080F819
:10134000503904460025803001908DF80F5004F08C
:1013500094FF0423019884F8C83084F898500DF164
:101360000F0104F095FF98B99DF90F309DF80F100B
:10137000AB420DDAD4F85C390133C4F85C39C1F3FF
:10138000011384F8523943B106222046FFF7C4FA0C
:10139000002384F8503905B030BD2368002BF3D00A
:1013A0002046FFF7A4FF38B19DF80F10FFF71CF996
:1013B00002462046FFF7ACFA94F8D32894F8D238C6
:1013C0009A4202D02046FFF7FAFA94F852299DF883
:1013D0000F30224403F00F0392F8D11831B1994233
:1013E0001EBFD4F860190131C4F860190F2B14BF67
:1013F0000133012382F8D138CAE710B504460068EA
:1014000001F036FBC1B2206DBDE8104004F0ACBE67
:1014100010B50446006801F0E5FDC1B2206DBDE8DD
:10142000104004F0A1BE000010B50446006802F0B0
:1014300006FB0146B0B10A280CD84FF4FA604143CC
:1014400001F55C2101F5346104F15000BDE8104064
:1014500005F008B8192807D8044841F2883303FB7F
:101460000101F1E70249EFE70021EDE7B0DB2300DE
:10147000CC3F0D0013B504460DF10701006801F0E3
:101480006FFB30B99DF80710206D04F06DFE02B0BF
:1014900010BDFFF7A9F8014604F1500005F005F969
:1014A000F5E713B5002304460DF1070180308DF8F0
:1014B000073004F00FFF20B99DF90710206801F0F4
:1014C00063FB02B010BD13B504460DF107010068BF
:1014D00001F03CFB30B99DF80710206D04F044FE8C
:1014E00002B010BDFFF780F8014604F1500005F08E
:1014F000DCF8F5E713B5002304460DF10701803051
:101500008DF8073004F0E6FE20B99DF90710206839
:1015100001F016FE02B010BD13B504460DF107012F
:10152000006801F04FFB30B99DF80710206D04F002
:101530001BFE02B010BDFFF757F8014604F1500042
:1015400005F0B3F8F5E713B5002304460DF10701E4
:1015500080308DF8073004F0BDFE20B99DF90710EA
:10156000206801F039FB02B010BD37B500F18005ED
:1015700004460DF10601284604F08AFE60B90DF11B
:101580000701284604F0A6FE30B99DF907209DF812
:101590000610206801F0E6FD03B030BD13B5044627
:1015A0000DF1060154F8500B01F0F4FD30B9BDF80F
:1015B0000610204604F047FF02B010BDFFF714F8F4
:1015C0000146204605F071F8F6E713B504460DF123
:1015D0000601803004F08AFE20B9BDF806102068AC
:1015E00001F0E4FD02B010BDFEE7FEE710B50446D1
:1015F00002F038FAFFF716F90146206DBDE81040F9
:1016000004F0B2BDF7B5002300220546CDE9002362
:1016100000F063FF6946044605F1800004F092FE85
:1016200070B9DDE9006723460024A74208BF9E4247
:1016300008D3F21A67EB0403C5F87029C5F87439AA
:1016400003B0F0BD0720FBE700F51763D3E90023E3
:10165000503004F022BF10B50446006803F0D2FAFF
:1016600001462046BDE81040FFF744BC10B50446D3
:10167000006803F0CBFA01462046BDE81040FFF7B2
:1016800039BC00001346074A10B4146834B10A4646
:10169000014620465DF8044BFFF786B80D205DF843
:1016A000044B704780140020F0B5013A0446002630
:1016B0000C20B2420AD995196D0800FB05F7CF59E5
:1016C0009F4201D26E1CF4E72A46F2E700FB06F2C5
:1016D00088188A5893420BBFD0E901010023C4E95E
:1016E0000001C4E900332046F0BD000010B50B46F0
:1016F000044603492A22FFF7D7FF204610BD00BF4A
:1017000040C6000010B50B46044603491722FFF7F8
:10171000CBFF204610BD00BF38C8000010B50B46F7
:10172000044603490322FFF7BFFF204610BD00BF58
:101730004CC9000010B50B46044603490322FFF7CD
:10174000B3FF204610BD00BF70C900000A21503011
:1017500004F0D5BE0421503004F0D1BEF8B50646E1
:10176000174600F150050C4649B142B98A8809680C
:10177000284604F0EFFE002875D00120F8BD0021B6
:10178000284604F060FE0028F7D1002C6BD12146DA
:10179000306DC9B204F0E8FC0028EED1306D802134
:1017A00004F0E2FC0028E8D1002C5FD0E37D13F0C8
:1017B000010F0CBF002110219B0701D541F0200132
:1017C000284604F040FE0028D7D1284604F0EEFE5B
:1017D00001460028D1D104B1A179306D04F0C4FCD8
:1017E00001460028C9D104B1A17D306D04F0BCFCD4
:1017F0000028C2D1002C3BD0D4E90223284604F0B3
:101800004CFE0028B9D1284604F0EFFE0028B4D1E0
:10181000284604F0CBFE0028AFD13946284604F014
:101820006EFE0028A9D1284604F0DFFE0028A4D1CE
:10183000284604F0BBFE014600289ED104B1217D5C
:10184000306D04F091FC002897D1A4B1216928469D
:1018500004F008FE002890D1284604F0C6FE0038A7
:1018600018BF01208AE794F9151091E72146A7E7F0
:1018700000220023C2E72146E9E70901F8B561F03B
:101880007F0100F15007044615461E4606227123CB
:1018900001F0F001384604F0EAFE50B9324629461C
:1018A0002046FFF75BFF20B93846BDE8F84004F05A
:1018B000C1BEF8BD37B50192074A15680C4601460E
:1018C0002846FEF78BFE019B01462246284603B0C0
:1018D000BDE83040FFF7D1BF801400202DE9F34769
:1018E00004469DF828A015461E4601B1FEE790F873
:1018F000531900293BD041F080017BB31B6893F85A
:101900000090C9F3001995F81C80002304F15007DA
:1019100084F853390622384608F0010804F0A7FE7F
:1019200028BB5046FEF760FE0146384604F0E7FD4E
:10193000E8B9206D494604F017FCC0B9206D414656
:1019400004F012FC98B9BAF1000F09D02B681B788B
:101950001B070FD4384604F06DFE08E09946D2E725
:10196000524631462046FFF7F9FE0028EED002B07D
:10197000BDE8F087B8F1000FECD00DF10301284667
:1019800002F02AFC0028F2D101A9284602F0FBFB54
:101990000028ECD19DF80310206D04F0E5FB002831
:1019A000E5D10199384604F05DFD0028D2D0DEE78C
:1019B000F7B51E46084B1F680C46014638461546CB
:1019C000FEF70CFE009601462B4622463846FFF7EE
:1019D00085FF03B0F0BD00BF80140020F8B50446B9
:1019E000164601B1FEE7FF2390F9547980F8543987
:1019F000FEF7F6FD04F1500501F0AAFF3923062297
:101A00008021284604F033FEF0B9206DF9B204F0CD
:101A1000ABFBC8B9206DF1B204F0A6FBA0B9284613
:101A200004F008FE80B9802130230622284604F005
:101A30001EFE014640B9206D04F096FB20B92846F1
:101A4000BDE8F84004F0F6BDF8BD000013B5074B43
:101A500001911C6801462046FEF7C0FD019A01462F
:101A6000204602B0BDE81040FFF7B8BF8014002048
:101A700010B5044654F8500B01F072FF01462046A1
:101A8000BDE8104004F03BBD90F852390344006DAE
:101A900093F8551904F068BB10B5044654F8500B80
:101AA00001F0CBFF02460B462046BDE8104004F093
:101AB000F4BC10B590F8521901F6551104460144D2
:101AC000803004F0F5FB48B994F85239206823447B
:101AD000BDE8104093F8551901F048BF10BD73B52B
:101AE0000446006801F086FF0546B8B904F1800697
:101AF000B4F88830B4F886209B1A9BB2012B0DD91C
:101B00000DF10601304604F0F1FB30B9BDF80610C6
:101B1000206801F037FF0028EAD00546284602B0C9
:101B200070BD73B50446006801F070FF0546B0B99A
:101B300004F18006B4F88830B4F886209B1A9BB272
:101B4000072B0CD9082201A9304604F03AFC28B929
:101B50000199206801F020FF0028EBD005462846B7
:101B600002B070BD13B504460DF10601803004F0DB
:101B7000BDFB20B9BDF80610206801F01FFF02B0C0
:101B800010BD13B50822044601A9803004F019FCE9
:101B900018B90199206801F01BFF02B010BD13B500
:101BA00004460DF10601803004F0A0FB20B9BDF819
:101BB0000610206801F0E6FE02B010BD13B5002348
:101BC0000446082201A98030019304F0FAFB18B9F9
:101BD0000199206801F0E0FE02B010BD13B50023AA
:101BE0000DF10701044680308DF8073004F060FBEA
:101BF000014630B99DF8073020682BB901F080FE0E
:101C00000146084602B010BD0049F7E7B5180000CC
:101C100013B504460DF10601803004F067FB20B9CE
:101C2000BDF80610206801F073FE02B010BDF0B5DB
:101C300000F1800585B00C460DF10A0203A9284683
:101C400004F0D8FB064600286FD1BDF80A207F2A91
:101C50006ED82646039956F8060BA28009F042FA80
:101C60003146284604F014FB064600285DD1A379CE
:101C7000A376237F23F0170343F004032146237741
:101C800040F60473C4E9040021F8183F284604F024
:101C9000FFFA002849D104F11901284604F0F8FAA6
:101CA000002842D10DF10601284604F001FB00286E
:101CB0003BD1237F9DF8062062F38203237702A99C
:101CC000284604F0F5FA80BB237F9DF8082062F3D4
:101CD000000323770DF10701284604F0E9FA20BB41
:101CE000237F9DF8072062F3410323770DF109015B
:101CF000284604F0DDFAC0B9237F9DF8092062F37D
:101D00000413237704F11401284604F003FB60B99F
:101D100004F11001284604F0FDFA074628B904F141
:101D20001A01284604F0B4FA3E46304605B0F0BD2C
:101D30000626FAE711F0300F38B504460D4600D0FC
:101D4000FEE7006801F0DFFDA0B1206801F003FEAE
:101D50000146D0B12046FFF76AFF034658B90C4947
:101D6000206801F0FAFD034628B905F00F0584F854
:101D7000535938BD0D231846FEF736FC2946024656
:101D80002046BDE83840FEF7C7BD0323F3E700BF98
:101D9000B119000030B500F1800487B0054602A9F2
:101DA000204604F075FA20B99DF80830082B02D0BF
:101DB000072007B030BD0DF10901204604F068FA94
:101DC0000028F6D10DF10A0203A9204604F012FB07
:101DD0000028EED1BDF80A30102BE9D10DF10A022E
:101DE00004A9204604F006FB0028E2D1BDF80A3021
:101DF000102BDDD10DF10A0205A9204604F0FAFAF4
:101E00000028D6D1BDF80A30102BD1D1059B019303
:101E1000049B00939DF80920039B9DF808102868F7
:101E200001F000FEC5E737B500F180050446002348
:101E300001A928468DF8033004F06CFAA0B9B4F873
:101E40008620B4F888309A4207D19DF80330206884
:101E500001995BB901F0E9FD06E00DF103012846A7
:101E600004F026FA0028F0D003B030BD01F0E1FD07
:101E7000FAE71D207047000030B5194C0023256893
:101E80008D4225D16568954222D1D0E90225C3F162
:101E9000200405FA04F4A3F12001DA40224325FAD4
:101EA00001F10A4312F0010FC3F12004A3F1200253
:101EB0000DD1012101FA02F221FA04F4224301FAC0
:101EC00003F3D0E900140B432243C0E9003230BDD4
:101ED0000133DBB21D2B04F10C04D0D1F7E700BFB6
:101EE00094C900002DE9F04F0023214C93461F4672
:101EF000012694F814C05D1CBCF1000F26D0E268E6
:101F00008A4223D11F3BC5F1200E26FA0EFE06FAA7
:101F100003F343EA0E0306FA05FAD0E902796FEA01
:101F20000A086FEA030EBBF1000F18D04AEA070750
:101F300043EA0903C0E90273D0E9003703EA080362
:101F400007EA0E07C0E9003731B967461C2D2B465A
:101F500004F10C04CDD14FB10020BDE8F08F08EAA8
:101F600007070EEA0903C0E90273EDE70720F4E76B
:101F700094C9000030B5104B00220132D2B21D2AA4
:101F800003F10C0301D1002015E01C7A002CF4D0E1
:101F90001C688C42F1D1D0E90235C2F12004A2F1D3
:101FA000200123FA02F005FA04F4204325FA01F196
:101FB000084300F0010030BD94C9000000F140204A
:101FC00000F50030002382B0036003680193019B99
:101FD00002B0704708B5094B020103EB0010084B33
:101FE0004168C3F84813C168C3F808130089FFF7B4
:101FF000E5FF044B0021995408BD00BFF0CA000062
:102000000040024098140020224B37B519460120A9
:10201000D3E84F2FD2B28DF807209DF8072062B188
:10202000BFF32F8F1C4B1A681C4B12B91A68D207CA
:102030002DD518680230400827E0C3E8420F002A77
:10204000E6D1174B0222C3F80823BFF35F8F03F5D5
:102050008273124A1B684BB1136801331360BFF3DC
:102060005F8F4FF48270FFF7A9FF012310680C4CBB
:10207000022501304008C4F80453BFF35F8F0024E9
:102080000C7013B113680133136003B030BD1868CE
:10209000D1E700BF851400200441024088140020CD
:1020A000004002402DE9F04106460C46FFF7ACFF28
:1020B0000546BFF35F8FDFF82080D8F80475BFF3C3
:1020C0005F8FFFF7A1FF3060854218BFD8F8047515
:1020D0002760BDE8F08100BF004002402DE9F843D1
:1020E0004C4CDFF840E1DDE9083C04EB021889467E
:1020F0009842D8F80C10D8F80480CEF808134FEAAC
:102100000215CEF844839E4672D9A0EB0308B8F1BD
:10211000000F6DDA00334CF1FF3CC84618EB0008A5
:102120004FF000034FF0000949F1000913EB0806D6
:102130004CEB090732B94FF47A7303FB07F1A6FBA6
:1021400003670F44344B4FEA563848EAC748A8FBA8
:102150000389790B03FB01994FEA18704FEA19784C
:1021600040EA091043F609534FEA482C4CEAD05C88
:102170004FEA402EA0FB030103FB0811B6EB000859
:1021800067EB0106254840F2314101FB08F100FBF5
:102190000616A8FB0078B0444FF0FF36BE1947F68C
:1021A000FF7048EB00004FEAD03818EB0E084FF0F4
:1021B000000141EB0C0C28F07F4640F2FF10A8FB19
:1021C000038903FB0C9918EB000049EB0101D2B124
:1021D000400A40EAC150490A114B124A2B44C3E954
:1021E0000201635903F5A87342F82360BDE8F88340
:1021F000704592D2AEEB000EBEF1000F8DDA0033C7
:102200004CF1010C89E74FF4FA22002308F0A8FDF5
:10221000E2E700BFF0CA0000D07B63087B2DE8BD79
:10222000981400200040024073B5064601A9684694
:10223000FFF738FF019843F6095140F2FF120023DF
:10224000E1FB0023540A44EAC3545D0A009A084B98
:10225000E3FB024546B9204629464FF47A72002333
:1022600008F07EFD04460D462046294602B070BDAA
:102270000080841EF8B51A4D05EB001304460601D4
:1022800018890F46FFF79AFE2046FFF7CDFF02465A
:102290000B463FB913493144D1E902018B4208BFD3
:1022A00082421CD33544104B6A68C3F84823022C81
:1022B000EA68C3F808230AD0032C0CD0094A01238A
:1022C00093550A4A1370BDE8F84000F0D2BFBDE84C
:1022D000F84005F0EFBABDE8F84004F0FBBDF8BDEA
:1022E000F0CA00009814002000400240841400202E
:1022F0002DE9FF410746884602A803A91646FFF7C5
:10230000D1FE039843F6095140F2FF120023E1FB8E
:102310000023540A44EAC3545D0A029A294BE3FBA2
:10232000024546B9204629464FF47A72002308F048
:1023300017FD04460D463246CDE900454146384674
:10234000FFF7CCFE204B039AD3F804359A4203D012
:1023500003A902A8FFF7A6FE039B43F60950991CA8
:1023600040F2FF120023E0FB0123540A44EAC35465
:102370005D0A029A134BE3FB024546B92046294603
:102380004FF47A72002308F0EBFC04460D460F4A26
:1023900002EB0612D2E902239D4208BF94424FEAA3
:1023A000061107D301213046FFF764FF40BF04B098
:1023B000BDE8F081064B0B44DA68034BC3F80423F5
:1023C000F5E700BF0080841E004002409814002002
:1023D000F0CA000038B52A484022002108F0AAFEC1
:1023E000284B00201860284B1870284B002400252B
:1023F000C3E9004508F092F908F0CEF90028FBD0B7
:10240000234BC02283F824231022C3F884215A606E
:10241000204A0023C2F808354FF48270FFF7CEFD42
:102420000223C2F844334FF4A070C2F80433FFF71C
:10243000C5FD4FF48033C2F848334FF4A270C2F8A0
:102440000833FFF7BBFD4FF40033C2F848334FF4B5
:10245000A470C2F80833FFF7B1FD4FF48023C2F82F
:1024600048334FF4A670C2F80833FFF7A7FD4FF4C6
:102470000023C2F84833C2F808330123136038BD83
:102480009814002088140020851400209014002047
:1024900000E100E0004002402DE9F04100260B4F32
:1024A0000446B0460A4D87F800802B7C1BB12046BD
:1024B0002E7401F03DFC2B781BB120462E7001F0EC
:1024C000FFFB3B78002BEDD1BDE8F08184140020A8
:1024D000981400200120FFF7A7BE08B5FFF7FAFF08
:1024E0004FF47A72002308F03BFC08BD0846114601
:1024F0000022FFF7FDBE0020FFF76CBD08B5FFF717
:10250000E9FF08BD084611460122FFF7F1BE012090
:10251000FFF760BD70477047044B4FF48022C3F84B
:102520000823BFF34F8FBFF36F8F70470040024007
:10253000024B4FF48022C3F804237047004002404E
:10254000FFF7DCBF1F2070470222FFF7D1BE022039
:10255000FFF740BD2DE9FF48154F164E40F2FF141E
:10256000002502A903A8FFF79DFD029A43F609532F
:1025700020462946E3FB0201400A039B40EAC15082
:10258000490AE7FB03018C4683460322CDE900BCE0
:102590003E215846FFF7A2FD4FF40023C6F804334E
:1025A000D6F80435029A9A42DBD104B0BDE8F0882F
:1025B0000080841E0040024037B5044603200D46CB
:1025C000FFF732FE0322CDE9000129462046FFF73E
:1025D00085FD034B4FF40022C3F8042303B030BD44
:1025E000004002400320FFF7F5BC000008B5224B75
:1025F00001221A604FF4A070FFF7E0FC1F4A4FF46D
:102600008033C2F848334FF4A270C2F80833FFF7A2
:10261000D5FC4FF40033C2F848334FF4A470C2F82D
:102620000833FFF7CBFC4FF48023C2F848334FF454
:10263000A670C2F80833FFF7C1FC4FF40023C2F8BC
:102640004833C2F808330223C2F808334FF48270CB
:10265000C2F84833FFF7B2FCFFF7C4FF084B102263
:10266000C3F88420C3F88421002283F82423BDE822
:10267000084008F07DB800BF04400240004002401E
:1026800000E100E0004870474C410240014B986B6C
:10269000704700BF98140020114B1B6870B52BB118
:1026A000104B0222C3F80823FFF7AEFC0E4D0D4E6F
:1026B0000024D6F80423EB681A420AD02B8903F1D0
:1026C000402303F500331B681BB10021E0B2FFF784
:1026D000D1FD0134042C05F11005EAD170BD00BF15
:1026E0000441024000400240F0CA0000FFF7F2BE81
:1026F000704770474FF08043044AD3F800141160CC
:102700004FF0FF32C3F80024704700BFD8140020F8
:102710007047000008B500F062FF0A4B187018B14E
:10272000094B04221A6008BDBFF34F8F0749084BBD
:10273000CA6802F4E0621343CB60BFF34F8F00BF5F
:10274000FDE700BFD0460020D814002000ED00E0D7
:102750000400FA050B4B1B68D9070BD49A070BD45E
:1027600059070BD41A070BD413F4F81F14BF062013
:1027700000207047012070470820704702207047F2
:1027800003207047D814002070470000012303FA8B
:1027900000F0084A82B0C04352E8003F0193019B19
:1027A00003400193019B42E800310029F4D102B0BB
:1027B000704700BF58150020074A82B052E8003F1A
:1027C0000193019B23F001030193019B42E8003137
:1027D0000029F3D102B07047581500200123094A9F
:1027E00082B003FA00F052E8003F0193019B0343DB
:1027F0000193019B42E800310029F4D102B000F0BE
:1028000038BD00BF58150020F4230B70CE234B7049
:1028100036238B704FF0805382B01A6E5B6EC1F816
:102820000330CA7102B0704707B501A8ADF80410B3
:1028300004F0DAFB03B05DF804FB000010B40748B5
:10284000CB1D1C7800F8014B8B4203F1FF33F8D10C
:102850005DF8044B084604F0C9BB00BF28150020F2
:1028600007B501A8ADF8041004F0C2FB03B05DF891
:1028700004FB0000154B012210B51A70144B7F2287
:102880001A70144B144A1A60144ADA60144A00236E
:102890001370144A2824184604FB03F10133102B4B
:1028A0008850F9D1104A00237F210133102B02F800
:1028B000011BFAD128220D48002108F03BFC0C4BEB
:1028C0000022BDE810401A6004F09FBB21150020D3
:1028D000201500200018002039180020281800209A
:1028E000701500207815002038150020E014002015
:1028F0006C15002008B504F0CDFB04F0ABFB024BD7
:1029000000221A6008BD00BF5815002008B50C4B06
:102910001B7883B904F0B2FB04280ED004D8022837
:1029200014BF0220012008BD0638C0B2022834BFFF
:1029300003200220F7E70020F5E70320F3E700BFBC
:1029400021150020024B187880F00100704700BF6D
:1029500021150020034B1A7812B10020187070471F
:102960000D2070472115002010B5084C22784AB977
:10297000FFF7CCFF012803D0054B1B68DB0703D50D
:1029800001232370002010BD0D20FCE7211500203D
:102990005815002008B504F080FB28B900F0FBFDB5
:1029A000FFF70AFF002008BDFFF706FF0020FFF732
:1029B00015FFF7E70B68F7B58A8803F8012C07467F
:1029C0000C4604F05BFB022801D100F0E3FD204639
:1029D00000F0C0FC90B1204600F0C1FC70B1237F34
:1029E0009B070BD41E4B2046197800F0D6FC1D4BDC
:1029F000196820464A1C1A6000F0D1FC6669A0796B
:102A0000D6B1256800903346681E2269012104F082
:102A10005EFB0028064612BF00250D250126FFF7A4
:102A2000CBFE2146384602F0D2F816B90220FFF755
:102A3000D5FE284603B0F0BD04F0BCFA257F20681F
:102A400015F0040505D00138354604F07FFB01265A
:102A5000E5E72946013804F02EFB0646DFE700BF14
:102A60003015002034150020004870470018002061
:102A700008B5064B4FF4206043F00103984704F07B
:102A800034FBBDE8084004F032BB00BF30CB00008F
:102A9000FB20704704F03CBB084604F03BBB0846F3
:102AA00004F03ABB07B5ADF8041001A8002104F00A
:102AB00035FB00280CBF0320002003B05DF804FBA9
:102AC00008B50846012104F029FB00280CBF0320AB
:102AD000002008BD07B5ADF8041001A8002104F0DE
:102AE00026FB00280CBF0A20002003B05DF804FB81
:102AF00008B50846012104F01AFB00280CBF0A2083
:102B0000002008BD002004F015BB012004F012BB1A
:102B10004FF47A7310B55A430A4C0B4B22600846A7
:102B20001970FFF749FE04F045FA206804F0D7FA5F
:102B300020B10520FFF72AFE002010BD0520FFF779
:102B40004DFEF9E7241500202315002010B50C4692
:102B500021B104F042FA2070002010BD0720FCE7EC
:102B600013B50C4661B101A804F0EEFA054A9DF8D0
:102B7000053012785E3B9B1A2370002002B010BD16
:102B80000720FBE73115002013B50D4B1B781944C6
:102B900048B210F15E0F10DB0024ADF805408DF84F
:102BA00007408DF8044004F029FA8DF8050001A8CB
:102BB00004F0C3FA204602B010BD0720FBE700BFB7
:102BC0003115002021B1034B1B780B70002070479A
:102BD0000720704731150020F7B50B4C054601A8BA
:102BE0000E4694F9007004F0AFFA9DF80530217894
:102BF00026705E3B591A49B22846FFF7C5FF00B15F
:102C0000277003B0F0BD00BF31150020F8B50026D5
:102C1000404D044637462B684BB1204600222946DA
:102C200001F0CEFF28682F60013804F05CFA01360D
:102C3000102E05F12805EED1374D2B689F0714D5CE
:102C4000364E0120FFF7A2FD32683549002A2046A2
:102C50004FF0000318BF324601F0C0FF306820B1CA
:102C6000013804F040FA002333602B685E0708D572
:102C70000220FFF78BFD2A490F230022204601F096
:102C8000ADFF2B68180708D50320FFF77FFD244907
:102C90000E230022204601F0A1FF2B68D90608D59B
:102CA0000420FFF773FD1F4B00211A78204601F026
:102CB00087FF2B685A0608D50620FFF767FD1A4BD9
:102CC000204693F9001001F095FF2C6814F00104E0
:102CD00008D004F0E2F90446A0B900F05CFC2046FC
:102CE000FFF754FD2B689B0611D5104B187804F0A4
:102CF00061F90F4B186804F0F2F928B9BDE8F84003
:102D000000F0B7BA0124EDE70520FFF73FFD002CE6
:102D1000F4D1F8BD7815002058150020E0140020EB
:102D20000018002070150020221500202315002017
:102D3000241500202DE9F74F354D934604468A4669
:102D4000984600272822A94602FB07F35959002973
:102D500053D1EE1828223046019308F0EBF9019B7D
:102D6000621CEA502378B38086F815A086F816B066
:102D700004F02FF9B0716278DFF8A4A012F02002FD
:102D800042D1282505FB079505F11009EB7D62F37B
:102D9000000389F80730FFF7B1FB2178074640466A
:102DA00004F02FF98046FFF795FB0246A7EB0800D9
:102DB000121A61F10003C5E9022300238AF80030EA
:102DC0006378144C13F0200F10D0304600F0B8FA9E
:102DD00060B199F80730227862F3410389F807302F
:102DE0000D4B1B682B610D4B1B782B75002323703B
:102DF00003B0BDE8F04F00F03CBA0137102FA3D16B
:102E0000002301341C60FFDE9AF80020B9E700BF00
:102E1000781500200E150020081500200C15002044
:102E20000D150020431E092B09D8DFE803F0051615
:102E3000191C1C1C1C051C1C0D4B12221A700D4A5F
:102E4000002313700C4A0828137001D005280DD1F7
:102E5000074A00201370FFF7C1BC054B1122EDE7B4
:102E6000034B1622EAE7024B0122E7E70420F2E7D0
:102E7000701500200D1500200E15002070B5437848
:102E8000274A284DC3F3001100261B078AB00446C9
:102E900011702E702FD52422314601A808F04AF96E
:102EA000631C009368462378ADF8043000F068FA9C
:102EB0000446684600F053FAE8B1E4B11A4B1B78B7
:102EC0009C421AD1194A1368591C1160184A1360A0
:102ED000184B194A029314702146012268462A7041
:102EE00000F05BFA124B6846196800F058FA134973
:102EF000684600F023FA0AB070BD5A1E944207D10A
:102F00000F4A1368591C1160094A13600D4BE0E722
:102F100001339C42EFD1064B1E600B4BD9E700BF3B
:102F20000D1500200E15002030150020341500204E
:102F300008150020101500200C1500202815002071
:102F40006C1500205C150020481500202DE9F04785
:102F5000DDF820A0144C90461F460D4629B921608B
:102F6000BDE8F0470120FFF739BCFFF7C7FAA946D3
:102F7000064619F8011B504604F043F88246FFF755
:102F8000A9FA0246A6EB0A00121A61F10003C4E98D
:102F90000223C4F800902B78A38084F81580A775CD
:102FA00004F017F8A071DBE7E014002001390629CE
:102FB0000AD8DFE801F00407070407040400022030
:102FC000FFF70CBC0320FBE77047000008B504F0D6
:102FD00011F8034B1870BDE808400620FFF7FEBB50
:102FE000221500206FF063007047000010B50A4CF6
:102FF000204600F0AFF970B1204600F0B0F950B1B2
:10300000237FDB0607D4054BA36020460449BDE8B7
:10301000104000F093B910BD0018002010150020DA
:10302000281500207047704700F01EBDFFF75EBBFB
:10303000F8B50020DDE9066517461C4607F032FBAF
:103040000C4B1F7094E80F000B4F0C4C87E80F00DF
:1030500096E80F0084E80F0095E80F00084C84E81C
:103060000F00084B1A68084B00201A60BDE8F840B2
:1030700007F01ABB301500205C1500201015002049
:1030800048150020341500206C15002010B50020D4
:103090000C4607F007FB034B00201C60BDE8104006
:1030A00007F002BB3415002010B500200C4607F0D5
:1030B000F9FA054B1A68A24238BF1C600020BDE82F
:1030C000104007F0F1BA00BF34150020A0F10B0347
:1030D0000F2B9DBF024BC01810F90B0C7F207047BF
:1030E0003815002008B5FFF7F1FF074B93F90030C2
:1030F0007F2B04D09842A8BF184640B208BD7F2855
:1031000008BF0020FAE700BF2015002010B50846D0
:103110000C4603F04FFF03F0B1FF022801D100F08D
:1031200039FA2046FFF7DEFF03F055FF03F0BDFF3D
:10313000FFF742FB00280CBF0D20002010BD00004F
:1031400010B50C4603F045FF7F2C07D0044B1C70D4
:10315000FFF7C8FF03F03FFF002010BD0720FCE78A
:1031600020150020A1F10B030F2B10B50C460DD834
:10317000074B0B4403F80B2C03F02BFFA04203D1A9
:10318000FFF7B0FF03F027FF002000E0072010BD8D
:103190003815002021B1034B1B880B80002070479D
:1031A00007207047F81700207047000008B5034B50
:1031B00008461980FFF7F8FF002008BDF817002027
:1031C00010B50C4C00F0E5F900F05EF8FFF792FB4B
:1031D000FFF79EFA22780AB9FFF78BFA207800F001
:1031E000F8F900F079F9FFF701FABDE8104000F0B6
:1031F000D5B900BFD046002010B5124C23780BB1D2
:10320000FFF7DEFF104B0122C3F8402507F06EFAEE
:1032100000F0C2F9FFF7DEF800F00AF923780BB9E5
:10322000FFF766FA207800F0CFF9FFF763FAFFF7AF
:1032300021FB00F01FF800F0ABF9FFF759FA00236B
:10324000237010BDD046002000E00140014B1878EB
:10325000704700BFD046002010B50446FFF7D6FCEB
:1032600000F0BBF900F018F82046BDE81040FFF769
:1032700013B97047034B00221A60A3F204530122D2
:103280001A60704704C50040014B01225A60704724
:1032900000C00040000000001F4B2DE9F7431F4C09
:1032A000D3F8002125688AB10022C3F80021D3F8A1
:1032B00000210192019AD3F80825D3F80835920528
:1032C00044BF6FEA83536FEA93532360FFF702F919
:1032D000134B1A680FF23809D9E90089861A5A681F
:1032E00061EB0207B94508BFB0453FBF0A4A012656
:1032F0001660C3E900012368AB4204D003B0BDE807
:10330000F04303F06FBE03B0BDE8F083AFF300807D
:1033100080C3C9010000000000C00040C0180020A8
:10332000B818002070477047034B18680028B8BFD2
:10333000033040F387007047C018002001F003B845
:1033400008B500F02EFE00F44050A0F5005358429E
:10335000584108BD03681878C0F3C000704707B52E
:103360000DF1070100F0FFFE40B99DF80700A0F144
:1033700008035842584103B05DF804FB0020FAE707
:1033800007B500230DF107018DF8073000F024FF89
:103390009DF8070003B05DF804FB00F033BF00F0B8
:1033A00002BF0000064B00221A6082B01B68019326
:1033B000019B044B0122C3F804231A6002B070473A
:1033C00000D1004000D00040144B1A6813B51AB366
:1033D000134AD2F80813C9071ED5002119601B68CB
:1033E0000193019BD2F808450E4B0F4A19681068EB
:1033F000091A7F2906D81968481C186001F07F0156
:103400000A4844541B6812689B1A7F2B81BF044AE8
:103410000123C2F80833536002B010BD00D1004050
:1034200000D000404C19002048190020C41800208A
:1034300070B58022234D244C2448002107F07AFEE9
:10344000234900232B602360C02381F80D334FF400
:103450000053C1F880310B601E49D1F8040540F0DB
:103460000100C1F80405D1F8000220F00100C1F804
:103470000002FFF797FF2B46224611681868091AC9
:103480000329FAD911681868091A032917D90F4DA9
:1034900004240020166819688E421DBF19684E1C4E
:1034A00001F07F0100211CBF695C1E600002013C2D
:1034B00040EA0100EED1BDE8704007F043BE0020B5
:1034C000F9E700BF481900204C190020C41800205B
:1034D00000E100E000D00040074A0123C2F80833B1
:1034E0005360064B4FF40052C3F88020C3F880218C
:1034F000002283F80D23704700D0004000E100E077
:103500002DE9F0471E4E01233370002836D00029E4
:1035100034D0DFF874801B4F0025C146D8F8004036
:103520003B68E41AE4B24B1B9C42C8BFDCB2F4B166
:10353000DFF858E000EB050C0022D9F800A03B684A
:103540009A451EBF3B6803F1010A03F07F0302F1B5
:1035500001021ABF1EF80330C7F800A000239442EE
:103560000CF8013BE9D8FFF71DFF2C44A5B28D42B2
:10357000D4D3002000233370BDE8F0870720F9E79B
:1035800044190020481900204C190020C4180020BC
:10359000704770477047704700F002B800F00EB8EF
:1035A00008B50121002007F04FF80028A2BF024B08
:1035B00001221A7008BD00BF50190020014B0022E3
:1035C0001A7070475019002008B900F00AB800F0CE
:1035D00009B808B900F096B8704700F045B9002066
:1035E000704770477047000030B52D4D287885B082
:1035F000002852D14FF0A0432A4C4022C3F808259E
:1036000006210322C3F81827C3F82007C4F80C15B5
:103610000821C4F814152021C3F81C07C3F80815A5
:10362000C3F814270523C4F808350723C4F8103558
:103630000123C4F86C354FF0EB73C4F824351A4BF2
:1036400018601B680393039B184B18601B68029358
:10365000029B174B18601B680193019B4FF480730A
:10366000C4F804334FF40173C4F80433114BC0227F
:1036700083F802230422C3F880211A6007F094F82B
:1036800007F0D0F80028FBD00823C4F80035012348
:10369000236000202B7005B030BD1820FBE700BF71
:1036A0005D1B00200020004020210040242100401C
:1036B0000821004000E100E038B50F4D2B78C3B180
:1036C0000E4B00240422C3F88020C3F8802183F825
:1036D00002430B4B4FF48072C3F808234FF401727E
:1036E000C3F80823C3F8004507F088F82C7020467B
:1036F00038BD1820FCE700BF5D1B002000E100E0A2
:1037000000200040024B1B780BB1FFF7D5BF70477C
:103710005D1B00201FB5254BD3F8042391051AD556
:10372000234A1168B9B10023136013680193019B08
:10373000204B1A68002A37D000221A601B680393B6
:103740001D4A039B012313701C4A136004B0BDE89B
:103750001040FFF78EBDD3F804235207E8D5184A6E
:1037600011680029E4D00021116012681549029205
:10377000029AD3F818450A88134892B284540A88EA
:103780000132C2F308020A800A881049098801320E
:10379000C2F3080289B2914204BF4FF40172C3F828
:1037A0000823FFF766FDC3E704B010BD002000400A
:1037B00024210040202100405C1B00200C20004000
:1037C00008210040521B002051190020541B0020EA
:1037D000064908B50B683BB1054B1A7822B10022A7
:1037E0000A601A70FCF78DFD08BD00BF581B002051
:1037F0005C1B002008B5054B054A196811B1137808
:10380000002BFBD0FFF7E4FF002008BD581B002071
:103810005C1B002073B5104C236805460E467BB92F
:103820000E4A25600020106012680192019A0C4A2D
:103830000121C2F84455C2F84865916002B070BDDC
:10384000084B1B780BB10520F8E7FFF7D3FF23687F
:10385000002BE5D0F7E700BF581B002020210040D7
:10386000002000405C1B002038B51A4B1A4C1D8804
:103870001A88238892B29BB29A42ADB226D023888E
:103880009BB29D420BD220882188144BC1F5007158
:1038900013FA80F089B2FCF732FD002323802388DD
:1038A0009BB29D4209D9208821880C4B691A89B2A4
:1038B00013FA80F0FCF723FD2580094BD3F804238D
:1038C00052075CBF4FF40172C3F80423BDE83840CF
:1038D000FFF77EBF521B0020541B0020511900200F
:1038E0000020004000F04ABA0120704700F063BA9F
:1038F00000F054BA00F054BA0048704736CB0000CC
:10390000143000F089BA8069003818BF0120704770
:10391000143000F0ADBA00000148FFF7BBB800BF9B
:10392000681B002008B5836923B10348FFF7B4F88A
:10393000002008BD0D20FCE7681B0020836913B13F
:103940000248FFF727B80D20704700BF681B002012
:10395000143000F097BAC06B7047143000F0A8BA6A
:10396000243000F0DFBD143000F0BCBA08B5836924
:1039700023B10348FFF793F8002008BD0D20FCE7B2
:10398000681B0020836913B10248FFF78BB80D2034
:10399000704700BF681B0020836907B553B16846B4
:1039A000012200F032FD04486946FFF789F803B0B0
:1039B0005DF804FB0D20FAE7681B0020836913B152
:1039C0000248FFF787B80D20704700BF681B002032
:1039D000836907B553B16846012200F016FD04481B
:1039E0006946FFF785F803B05DF804FB0D20FAE7A0
:1039F000681B002008B5836923B10348FFF782F8EC
:103A0000002008BD0D20FCE7681B002008B5836975
:103A100023B10348FFF779F8002008BD0D20FCE72B
:103A2000681B0020143000F079BA0022143000F036
:103A3000AEBA0122143000F0AABAFEF757BE007DDC
:103A40007047143000F003BAC08A7047143000F099
:103A5000F1B92C307047143000F000BA408D704737
:103A6000FEF7D2BE0120704700F04EB810B50446F4
:103A7000FFF73AFF20B1201DBDE8104000F076B8F6
:103A800010BD0000034A138803B9FEE7013B138011
:103A9000704700BF5E1B002031B16FF000439942B8
:103AA00008BF0121016070470121FBE737B50D4CCC
:103AB00023884FF6FF729342054600D1FEE753B9C3
:103AC00004210DEB0100FFF71BFD00B1FEE701999A
:103AD0000548FFF7E1FF238828460133238003B020
:103AE00030BD00BF5E1B0020601B0020026848F252
:103AF0004E33A2FB032313EB520244BF22F00042D9
:103B00000132026010467047034B1B8803B9FEE781
:103B10000248FFF7EBBF00BF5E1B0020601B0020C8
:103B2000814210B5044600D8FEE7FFF7EDFF091B00
:103B3000B0FBF1F303FB1100204410BD036823B96F
:103B4000016004484960FCF7B9BB5A684A60596093
:103B500001607047681B00204368014613B90248A2
:103B6000FFF7ECBF704700BF6C1B002038B5002585
:103B70000468056054B1606884421CBF4368636098
:103B80000368456008BF00249847F3E738BD4368E1
:103B9000496810B59C1A8A1AD20FB2EBD47F08BFBD
:103BA0005B1A4FEAD47008BFD80F10BD70B5056816
:103BB0000C4625B9BDE870404B68084818478B682B
:103BC00098476A68831A002B01462368B8BF121A07
:103BD000BDE870400148A8BF00221847681B0020BC
:103BE00038B50C461146A2689442034606D00568D3
:103BF000AC4204D10260FFF7D9FFA46038BD2A4669
:103C00000021002AF9D0944208D011469268F8E7C2
:103C10008B68002BF1D09B688B60EEE70029F7D111
:103C2000002DEAD0AA681A60E7E72DE9F04793680B
:103C300005460C4616469847324681462146284698
:103C4000FFF7CEFFD5F800A04FF00008574647B168
:103C50004A4639462046FFF79AFF10B9B846BF6872
:103C6000F5E7B8F1000F08D1C4F808A031462C6080
:103C70002846BDE8F047FFF799BFD8F80830A360A1
:103C8000C8F80840BDE8F08770B5066804460D46E0
:103C90007EB18B6898477368C01A002809DB2046FC
:103CA0002A463146FFF79CFF33683046BDE8704036
:103CB000184729462046BDE87040FFF777BF00004F
:103CC00010B50446FFF710FE30B104F108000349B7
:103CD000BDE81040FFF7D8BF10BD00BF98CB000073
:103CE0004160024A01460248FFF79FBF8CCB0000AB
:103CF000741B0020002A00DAFEE71144FFF7F0BF32
:103D000013B504460191FEF7F9FB019A01462046DE
:103D100002B0BDE81040FFF7EDBF00000146024AC7
:103D20000248FFF75DBF00BF8CCB0000741B002072
:103D300010B50446FFF7D8FD30B104F10C0003497B
:103D4000BDE81040FFF7A0BF10BD00BF8CCB000046
:103D500038B500250446C0E90155C5601030FFF7AD
:103D6000A5FE214604F1140000F043F884F89050B9
:103D7000FFF7CAFEC4F89400204638BD10B5064CC3
:103D800094F890302BB92046FFF7E2FF012384F826
:103D90009030014810BD00BF681B0020FEF7BABC80
:103DA00010B50446113000F0A3FE04F11400BDE884
:103DB000104000F012B890F8903010B504465BB196
:103DC000002380F89030243000F0E6FB04F110006E
:103DD000BDE81040FFF756BE10BD0023C0E9023316
:103DE00043600B2303704FF6FF734380103000F0E5
:103DF0003BBB10B50B2303704FF6FF7343800023CA
:103E0000C0E901330446C360103000F057FB204680
:103E1000FFF7E3FF204610BD38B504460D461030CD
:103E200019B100F0A3FB10B138BD00F0B5FB65601F
:103E30000020F9E738B5436804460D462BB1103031
:103E400000F074FB6580002038BD0D20FCE743685E
:103E500013B10170002070470D20704708B543680A
:103E600023B1103000F06EFB002008BD0D20FCE7F0
:103E700008B5436823B1103000F05EFB002008BD98
:103E80000D20FCE743681BB110F8101B00F098BB35
:103E90000D20704710B444682CB122B92346034862
:103EA0005DF8044B18475DF8044B7047681B002011
:103EB00038B5436804460D462BB1103000F0E9FCDC
:103EC00000B9A56038BD0D20FCE7000038B5856855
:103ED00004461DB10248A8470023A36038BD00BFB7
:103EE000681B002038B51D46436804462BB11030CE
:103EF00000F0CAFB00B9E56038BD0D20FCE700000A
:103F0000436810B504462BB1C3681BB102489847FB
:103F10000023E36010BD00BF681B00202DE9F043C3
:103F20008FB004460D4616460021102202A806AFA7
:103F300099460DF1280807F0FDF8102200213846B7
:103F400007F0F8F810220021404607F0F3F8636804
:103F5000DBB10022494602A800F06EFA1699002251
:103F6000384600F069FA17990022404600F064FADA
:103F700004F11000CDE9007802AB3246294600F08A
:103F80000DFC00200FB0BDE8F0830D20FAE708B566
:103F9000436823B1103000F07DFD002008BD0D20E6
:103FA000FCE7036858781B7843EA0020704708B59F
:103FB000FFF7F7FF00F44050A0F500535842584176
:103FC00008BD00F44053B3F5005F1ED120F44E53FA
:103FD00023F03F0348F2400293421CD00CD8B3F5C3
:103FE000446F18D005D8B3B1B3F5046018BF0120F1
:103FF0007047B3F50040F9E74CF6404293420AD0CF
:1040000000F44C40B0F54040F0E710F4406F14BFAE
:1040100001200020704700207047034610F4404004
:1040200018BF83F0400003F4405218BFC0F3801063
:10403000B2F5005F05D103F44C43B3F54C4F08BF14
:1040400000207047102804D0182814BF0020082032
:1040500070470420704700F00700013806280BD88D
:10406000DFE800F00406080A040608000420704790
:10407000082070471020704700207047430708D081
:1040800000F01803083BDBB2102B04D8034AD05CC5
:104090007047FF2070470520704700BFA4CB000089
:1040A00000F4445110B5B1F5045118BF0121044684
:1040B000FFF787FF60B9023104F44063B3F5006F86
:1040C00008D0B3F5406F19D033B1FF21084610BDB9
:1040D0000431F1E70231C9B22046FFF79EFF08B173
:1040E0000231C9B204F44044B4F5004F08D0B4F52D
:1040F000404F08D0002C18BFFF21E7E70831EAE75E
:104100000231C9B2E2E70831FBE78288032A08B529
:104110000CD9FFF746FF00F44453B3F5045F01D018
:10412000042A03D0BDE80840FFF7BABFFF2008BD4E
:104130008288022A05D903681B781B0701D5FFF77F
:10414000E4BFFF20704738B505460C46FFF7F0FF87
:10415000FF281FBF2B681B5C03F00703237014BFED
:104160000020062038BD38B505460C46FFF7E0FFB5
:10417000FF281FBF2B681B5C03F01803237014BFBC
:104180000020062038BD38B505460C46FFF7D0FFA5
:10419000FF281FBF431C2A68DBB200201ABFD35878
:1041A0002360062038BD38B505460C46FFF7C0FF32
:1041B000FF2800D1FEE72A68431CD9B252FA83F3E4
:1041C0005454220A5A70220C240E9A70DC702B7FF1
:1041D00043F001032B7738BD38B505460C46FFF791
:1041E000A7FFFF2802460BD02B68185C00F01800D0
:1041F000FFF728FF1344034400205B79237038BD88
:104200000620FCE738B505460C46FFF791FFFF286E
:10421000024600D1FEE72B68185C00F01800FFF79B
:1042200011FF134403445C7138BD10B50446FFF719
:104230007FFFFF2806D02368185CFFF70CFF0230D1
:10424000C0B210BD0220FCE710B50446FFF75DFFC9
:10425000FF28014610D023681A7812070CD5A488CD
:10426000A0420BDA185CFFF709FFFF2808D00844CA
:10427000C1B28C42B8BFFF21084610BDFF21FBE749
:104280000146F9E7F8B50546FFF7DEFF84B2FF2CDB
:104290002DD02846FFF785FE830506461DD5284606
:1042A000FFF7C3FF2F68A988A21C93B210FA82F20D
:1042B0008A4207EB040C1CDC3A5D02F07F021344D7
:1042C0009CB210FA83F3994213DBBCF80020C2F3CE
:1042D000C7127F2A01D09942E6D12846FFF767FE30
:1042E00028B906F00706032E01D10134A4B2E0B2CA
:1042F000F8BDFF24FBE710B50446FFF7C3FFFF2816
:1043000016BF23680020C01810BD10B50446FFF783
:10431000F2FF2368C01AC0B210BD38B50546FFF7DA
:10432000F4FF04462846FFF780FF0444A888001BDA
:1043300080B238BD10B50446FFF777FFA388181A7E
:104340002368184410BDF0B50446E5B000230AA860
:1043500005930D4600F013FE23681B781B074FD50D
:104360000DF113012046FFF7EEFE002848D105A904
:104370002046FFF708FF0646002841D106AF9DF80A
:10438000132005993B46284600F0EBFDA1680AA8DA
:1043900000F045FC2046FFF748FF05462046FFF7A2
:1043A000B4FF03902046FFF7B8FF023D0D230246FD
:1043B0000399CDE900730AA8EBB200F03CFC20465B
:1043C000FFF7A3FF216802460AA800F0D8FC2046A8
:1043D000FFF791FF03902046FFF79FFF039A009697
:1043E000034611460AA800F00FFD2046FFF7A2FF82
:1043F00001460AA800F098FD237F43F010032377BD
:104400000AA800F0D6FD65B0F0BD12B1012A05D0B2
:1044100070470B6803604B684360704701F1080305
:10442000013813F8012D00F8012F8B42F9D17047A4
:104430001022002106F07EBE30B50B46024601F187
:10444000100518685968144603C40833AB42224665
:10445000F7D130BD102308608B80704701460148BA
:10446000FEF754BE681B002038B54FF6FE73C380BC
:10447000038A03F0FE0343F4FE43002543F00103E7
:1044800004460382458005718560C560456180F8FA
:104490005D502830FFF7CCFF04F13800FFF7C8FF6C
:1044A00004F14800FFF7C4FFA56584F85C5004F1EF
:1044B0006000BDE83840FFF731BC000037B5174D4C
:1044C000019104462846FEF7E3FA20802846FEF7CD
:1044D000CBFA0199A06104F11C0000F0F1FA00216F
:1044E000C4E90811102204F1280006F023FE10226E
:1044F000002104F1380006F01DFE0021102204F115
:10450000480006F017FE2346054A43F8602F204670
:10451000A366FFF7A9FF204603B030BD681B00204B
:10452000454A0000008840F0E40070470148FEF76B
:104530007BB900BF681B0020C180014800F034BB7C
:10454000791B002013B500F108030C460868496880
:10455000012203C321466846FFF757FF0248694618
:1045600000F01CFB02B010BD791B0020837810B551
:10457000044663B90748FEF7EDF950B90548FEF760
:1045800009FA30B9A378012B01D00123A3700020D0
:1045900010BDFEE7681B002010B504466030FFF731
:1045A000BDFB0648FEF7F6F930B90448FEF7DCF922
:1045B00010B9A37803B1A07010BD00BF681B002024
:1045C00010B504460846FFF749FF20B9A378022B2F
:1045D0001CBF0223A37010BD38B50123044603FAA3
:1045E00001F10020FFF79CFA4FF4A07303FB00F5E4
:1045F000237CDB070AD5A3699879FFF72FFF2946AB
:1046000004F16000BDE83840FFF77ABB0148FEF7CF
:10461000C1F9F4E7681B0020837803F0FB03032B48
:1046200010B504461ED10388DB0605D4836998794A
:10463000FFF714FF00B1FEE7A378A1690A48042B35
:104640001CBF0423A37000F0B5FA0D2808D1A1699E
:104650004B6933B10023C1E90433034800F0AAFADF
:1046600000B1FEE710BD00BF791B0020034610B467
:104670001C6A08462CB15A6A012123465DF8044B96
:1046800018475DF8044B7047837810B504467BB13A
:10469000033B042B0CD903889B070BD50648FEF778
:1046A00037FAA378052B01D00523A370002000E082
:1046B0000D2010BD0C20FCE7681B00208378022B26
:1046C0001CBF022383701C3000F00ABA03889B07CA
:1046D00010B5044600D5FEE71048FEF7C9F97F285B
:1046E00006D094F911307F2B01D0834200DA607438
:1046F000FDF7F3FE6369C01A002807DA616E04F162
:1047000060008022BDE81040FFF7F4BA94F9111060
:104710002046BDE81040FFF7D1BF00BF681B002056
:10472000008880F02000C0F340107047008880F0BF
:104730000400C0F380007047008880F04000C0F3A0
:10474000801070478269516938B583780446C9B1D1
:10475000072B1CBF07238370FFF7EEFFB0B10E4895
:104760001569FEF763FCA3695B692B44A3F5A47389
:10477000C21A002A0ADA191A04F16000BDE83840AA
:10478000FFF7BEBA032B01D0032383702046BDE898
:104790003840FFF741BF00BF681B00202DE9FF47ED
:1047A0000829DDE90C8905460F4692461C4603D0D0
:1047B00011F0EF0F13D0FEE780F85C2000F128061F
:1047C0000FCB86E80F0098E80F0005F1380686E861
:1047D0000F0099E80F0005F1480686E80F0028460B
:1047E000FFF79EFF48B9CDE90190CDF8008004485D
:1047F000234652463946FEF71BFC04B0BDE8F0875D
:10480000681B002038B590F85C30934204460D4692
:1048100007D11C3000F06AF9A36D9D4224BF013519
:10482000A56538BD1FB50446806903681B781B0762
:104830002DD5037FD9062AD40DF10F01FFF793FC84
:1048400028BBA069037FDA0703D494F85C10FFF754
:10485000D9FC2046FFF764FFC8B19DF80F30082B44
:1048600015D1A06904F138038360037FDB0709D405
:10487000A16D0191FFF797FC94F85C200199204607
:10488000FFF7C0FFA06904F10801FFF75CFD04B069
:1048900010BD38B58378052B05460BD00024FFF7F3
:1048A000C1FF2846EC702C7185F85D40FFF74AFF88
:1048B000204638BD0D20FCE737B505460C46FFF70E
:1048C0002FFF20BB0B681B781A0720D50B7FDB0757
:1048D0001DD50DF102012046FFF745FC00B1FEE7B2
:1048E0009DF80230082B12D101A92046FFF74BFC9E
:1048F00000B1FEE70DF103012046FFF76DFC00B1AA
:10490000FEE79DF8032001992846FFF77BFF03B0DF
:1049100030BD2DE9F7431E46044660300D469046F3
:10492000FFF7FCF90E2E4BD004D8002E48D00B2EEA
:104930000BD0FEE70F2EFCD100212B7F5B0704D5A7
:10494000AA7904F11C0000F0C3F829462046FFF7BD
:10495000B3FF0023E3702379002E33D02046FFF706
:10496000E5FE074620B16F7E9F4294BF00270127D6
:1049700004F11C09009732462946484600F0A9F880
:1049800047B32379013323712B7F0E2E43F00203AB
:104990002B7719D1A37894F85D10062B1CBF062342
:1049A000A3702046FFF718FE94F85D300133DBB2A8
:1049B000052B28BF052384F85D3003B0BDE8F083E4
:1049C0000121BAE73746D3E7204603B0BDE8F043FC
:1049D000FFF7B8BEA378A87E022B1CBF0223A370EA
:1049E000AB79834201D0FFF739FD33464246294671
:1049F000484603B0BDE8F04300F06CB88378033B51
:104A000010B50446042B1CD8DFE803F00307171386
:104A10000300BDE81040FFF7FFBD83699879FFF7F9
:104A20001DFDA16920460E23BDE810400022FFF7BE
:104A300070BFBDE81040FFF785BEBDE81040FFF72E
:104A400045BE10BD0148FFF7D9BF00BF8C1B002039
:104A5000036A70B505460C4616462BB121B11AB94A
:104A6000426A3146204698472846FFF759FE40B92A
:104A70003CB1E37D9B0704D5227D21692846FFF7E1
:104A8000C1FE3246214605F11C00BDE8704000F031
:104A900019B8000008B512B1836D8B4200D2816550
:104AA000FFF73EFE48B905481AB1BDE80840FEF7D9
:104AB000FBBABDE80840FEF7E9BA08BD681B002054
:104AC000704700000148FFF7E5B900BF7C1B0020DC
:104AD000704770470148FFF7F9B900BF7C1B002001
:104AE0000148FFF70DBA00BF7C1B00207047000093
:104AF00070B5002190B02848FDF7D1FF2648FEF799
:104B000001F82548FEF701F82348FDF71BFF48B1DF
:104B10002148FDF73FFF00B1FEE71F48FDF724FFE6
:104B200000B1FEE70CAD1C484FF6FF710024FDF705
:104B30007BFE29461848CDE90C44FDF77FFE164858
:104B40004FF6FE71FDF78CFE102221460DEB0200A0
:104B500008AE06F0EFFA21461022304606F0EAFAD7
:104B600021461022284606F0E5FA04AB22462146EB
:104B7000CDE9015408480096FEF75AFA2146064846
:104B8000FEF784FA21460448FDF786FF024801211A
:104B900000F044F810B070BD681B00200148FDF71C
:104BA0004DBE00BF681B00200148FDF759BE00BF85
:104BB000681B00200148FDF7FDBE00BF681B0020F8
:104BC00090F8903013B1123000F04CBA704790F862
:104BD000903013B1123000F04BBA704710B490F817
:104BE000904024B15DF8044B123000F047BA5DF8F4
:104BF000044B704790F8903013B1123000F044BA73
:104C0000704700000048704700F8FF0708B5FFF73D
:104C1000F9FF08BDFF207047FF20704770471FB5A0
:104C20000446084601A9FFF715FC01A9204600F03B
:104C3000B4F904B010BD2DE9F84F13F00109DDF807
:104C400028A004460E4690461F4602D1043B0C2B7A
:104C500000D9FEE713464A46D0B201320BB11B0A17
:104C6000FAE79DF82C50022838BF02200D2D28BFEE
:104C70000D25C5F10F039842B8BFD8B2C0F10F039C
:104C80009D42C8BFDDB20138BB1E002E5FFA80FB1B
:104C90004FEA630314BF402200224BEAC3031343CD
:104CA00084F820312A46514604F2211006F01AFAFF
:104CB00004F22F1142460F239D4205D2013B01F819
:104CC0000129DBB2120AF7E704F59072114620467B
:104CD00000F069F98EB1B6F57F4F94F8202194F871
:104CE0002131C6F30720F1B229D242404B4084F86B
:104CF000202184F821314FF002092A46514684F8D8
:104D000030B104F2311006F0EDF905F23110C5F1C1
:104D10000F020021204406F00DFA0023C4E95538A3
:104D2000C4F85C31102384F86451C4F85061A4F8CD
:104D30006091A4F8623184F86571BDE8F88F83F062
:104D4000FE0384F8213194F8223183EA166384F853
:104D5000223194F82331D24383EA164384F8202188
:104D600084F8233194F8242194F8253142404B40B3
:104D700084F8242184F825314FF00609BDE72DE998
:104D8000F843D0F8543115461344D0F850219342DB
:104D9000044620D80E464F1900F590794FF00008D0
:104DA000B74219D0B4F86031102B06D14A464946B3
:104DB000204600F0F8F8A4F86081B4F860315A1C7D
:104DC0002344A4F8602116F8010B93F820215040E9
:104DD00083F82001E4E7FEE7D4F85421D4F85031F9
:104DE00015449D42C4F854510BD1B4F860312BB135
:104DF00004F590721146204600F0D5F80023A4F87F
:104E00006031BDE8F88300002DE9F74F98469DF822
:104E100030300193D0F85C311746D0F85821434424
:104E2000934204460E4600D9FEE7DFF8F8A00025BD
:104E3000AAEB000A00F5A07B454550D0B4F86231DA
:104E4000102B17D194F8641104F23F120AEB0203FD
:104E5000994206DA13780133DBB202F80139002BEC
:104E6000F4D05A4604F59871204600F09CF80023CF
:104E7000A4F86231B4F86221019B511C89B222442A
:104E80001BBB16F80590A4F8621192F8402189EA3C
:104E900002027A55B4F86021102A08D104F5907204
:104EA0001146204600F07FF80022A4F86021B4F8F3
:104EB0006021511C2244A4F8601192F8201189EA63
:104EC000010382F820310135B6E7785DA4F862115C
:104ED00092F8403180EA030906F80590DAE7D4F841
:104EE0005C311D44D4F85831C4F85C519D4215D34F
:104EF000B4F860312BB104F590721146204600F0F1
:104F000052F894F8642102F231100021C2F10F022C
:104F1000204403B0BDE8F04F06F00CB903B0BDE883
:104F2000F08F00BFD0FEFFFF38B5D0E956329A426D
:104F300004460D4600D0FEE700F5987100F5A0721A
:104F400000F031F804F59071002394F865219A423D
:104F500006DD11F8012BC87F4240EA540133F4E723
:104F600038BD10B504681C6044685C60080E187297
:104F7000080C5872080A9872D9721A7310BD00F1A1
:104F8000080310B503604FF48C738380044600F06F
:104F900018F800B1FEE7204610BD08B500F020F873
:104FA00000B1FEE708BD08B500F034F800B1FEE737
:104FB00008BD10B5044600F041F800B1FEE72046F8
:104FC00010BD08B540B18388B3F58C7F06D3006867
:104FD00000F03CFE002008BD0720FCE70120FAE7B6
:104FE00013B50446684600F038F87CB1A388B3F5E1
:104FF0008C7F0DD3BDF8042000992068D20000F00A
:1050000049F8003818BF012002B010BD0720FBE7A7
:105010000120F9E708B5134660B18288B2F58C7FAC
:105020000AD30A460068012100F050FE003818BF7C
:10503000012008BD0720FCE70120FAE708B540B1D0
:105040008388B3F58C7F06D3006800F00DFE002046
:1050500008BD0720FCE70120FAE70A6802608A8899
:10506000828070470148FFF7F3BC00BF8C1B002013
:105070000148FFF7FBBA00BF8C1B00200148FFF777
:1050800048BC00BF8C1B00200148FFF717BB00BFC6
:105090008C1B0020E0B1D9B1C02A08B507D0B2F509
:1050A000807F12D0802A0DD06FF01F0008BD0C2326
:1050B000036000F108034360D208184600F07AFB51
:1050C000002008BD0A230360F3E70E230360F0E726
:1050D0006FF02000704700BF10B504461046D4E9B9
:1050E0000032063B9B0000F037FA002010BD00BFE5
:1050F00010B504461046D4E90032063B9B0000F090
:1051000003F8002010BD00BF2DE9F14F03F11C048E
:1051100002EB840C4FEA930B8A68CB6808684968F5
:1051200000F046F93CE9F0006040694072407B4085
:105130000BF1060E4EE083EA134480EA134582EA3F
:10514000134746BA96EA3444604000F00F1684EAEA
:10515000063420F00F1684EA161054BA94EA0106B9
:10516000724002F00F1486EA043622F00F1486EA29
:1051700014124CBA6540694001F00F1485EA0435F9
:1051800021F00F1485EA14115CBA67407B4003F0EC
:105190000F1487EA043723F00F1487EA141344BA74
:1051A00044404DBA4D4056BA56405FBA5F4087EA18
:1051B000174886EA174B84EA17464FEA38488BEAC5
:1051C0001B4485EA1B4788EA1B4580EA3440694056
:1051D00072407B4000F0703400F0803500F00F30FA
:1051E00040EA440040EAD50080EA900404F0332409
:1051F00080EA8400604001F0703401F0803501F0F5
:105200000F3141EA440141EAD50181EA910404F0F9
:10521000332481EA8401614002F0703402F0803569
:1052200002F00F3242EA440242EAD50282EA9204D4
:1052300004F0332482EA8402624003F0703403F005
:10524000803503F00F3343EA440343EAD50383EA8E
:10525000930404F0332483EA84036340C943DB43AB
:1052600081EA000483EA044686EA020183EA0143F4
:1052700082EA334583EA144383EA040484EA00079C
:105280007FEA040A8AEA024A8AEA010B87EA11489D
:105290008AEA374A80EA060181EA1A418AEA030A61
:1052A00004EA0A00454088EA040707EA0B00414087
:1052B0008AEA0B0608EA060084EA34428AEA3A4699
:1052C00002EA060358404540414087EA37438BEAEB
:1052D0003B4003EA000985EA090582EA03094640E2
:1052E00009EA0606714085EA010005EA35464640AE
:1052F00006EA314181EA304181EA364606EA304623
:1053000086EA354634400F4086EA010508EA05087A
:1053100086EA3640024088EA020881EA31421340B8
:105320005C4080EA020309EA030987EA090767404B
:1053300088EA040806EA0A0601EA0B018AEA0B0475
:1053400025408AEA3A44204045408BEA3B4B02EA3A
:105350000B02564084EA0B04234059406E406940DA
:1053600087EA364080EA384080EA060380EA104443
:1053700081EA134585EA344585EA17427D4082EA91
:10538000354180EA05403CE9F000604069407240E8
:105390007B40BEF1010E3FF6CEAE00F05FF810BCD0
:1053A00020606160A260E360BDE8F08F00F002BAA7
:1053B00080EA101404F0F01480EA0410604081EADE
:1053C000111404F0F01481EA0411614082EA12140D
:1053D00004F0F01482EA0412624083EA131404F029
:1053E000F01483EA0413634080EA102404F47F4439
:1053F00080EA0420604081EA112404F47F4481EAB9
:105400000421614082EA122404F47F4482EA0422E7
:10541000624083EA132404F47F4483EA0423634054
:1054200081EA500404F0553480EA4400614083EA84
:10543000520404F0553482EA4402634082EA900444
:1054400004F0333480EA8400624083EA910404F07B
:10545000333481EA84016340704700BF82EA9004DC
:1054600004F0333480EA8400624083EA910404F05B
:10547000333481EA8401634081EA500404F05534F6
:1054800080EA4400614083EA520404F0553482EA21
:105490004402634080EA102404F47F4480EA04203C
:1054A000604081EA112404F47F4481EA04216140D0
:1054B00082EA122404F47F4482EA0422624083EAEE
:1054C000132404F47F4483EA0423634080EA101425
:1054D00004F0F01480EA0410604081EA111404F032
:1054E000F01481EA0411614082EA121404F0F0140D
:1054F00082EA0412624083EA131404F0F01483EA8F
:1055000004136340704700BF2DE9F04F4FF2F002E3
:1055100080EA1031114080EA013048404108820899
:10552000C3084FF0000EA3E000F0113001F011317C
:1055300002F0113203F0113340EA410040EA8200E8
:1055400040EAC3004FF2F00280EA1031114080EAD5
:1055500001304840BDE8F08F2DE9F14F94464FEA05
:10556000930B8A68CB6808684968FFF721FF0BF145
:10557000060E33E083EA134480EA134582EA1347B8
:1055800046BA96EA3444604000F00F1684EA0634C6
:1055900020F00F1684EA161054BA94EA01067240FD
:1055A00002F00F1486EA043622F00F1486EA141271
:1055B0004CBA6540694001F00F1485EA043521F0CA
:1055C0000F1485EA14115CBA67407B4003F00F1496
:1055D00087EA043723F00F1487EA1413BCE8F000BD
:1055E0006040694072407B4000F0E03400F01035CC
:1055F00000F00F3040EA540040EAC50080EA900411
:1056000004F0332480EA8400604001F0E03401F0CB
:10561000103501F00F3141EA540141EAC50181EA38
:10562000910404F0332481EA8401614002F0E03403
:1056300002F0103502F00F3242EA540242EAC5028B
:1056400082EA920404F0332482EA8402624003F086
:10565000E03403F0103503F00F3343EA540343EA18
:10566000C50383EA930404F0332483EA840363408C
:1056700081EA324787EA134581EA354690EA060413
:1056800084EA034B82EA1B4280EA044484EA05442C
:1056900083EA144A85EA14448BEA044B84EA3744CB
:1056A00081EA0B4181EA164104EA0A00454082EA98
:1056B00004082BEA080041408AEA0B0602EA0600C9
:1056C00084EA34438AEA3A4603EA060778404540CA
:1056D000414088EA38478BEA3B4007EA000985EAFF
:1056E000090583EA0709464006EA0906714085EA8A
:1056F000010005EA3546464006EA314181EA30417B
:1057000081EA364606EA304686EA3546344008EAFB
:10571000010886EA01052A4086EA364003405A40DD
:1057200081EA31431F407C4080EA030709EA070908
:1057300088EA0908544088EA020806EA0A0601EAEB
:105740000B018AEA0B0215408AEA3A4210404540B2
:105750008BEA3B4003405E404240174079404D4059
:105760004E40E443F64386EA18435D4085EA05402F
:1057700083EA134386EA034183EA384284EA114309
:1057800083EA04435FEA3343BEF1010E3FF6F2AE13
:105790003FF5CAAEBCE8F0006040694072407B4013
:1057A000FFF75CFE10BC20606160A260E360BDE8B2
:1057B000F08F00BF2DE9F04102F11C0506460746B7
:1057C00000EB850851F8040B46F8040B043AF9D1B4
:1057D0004FF0010CFFF798FE5FEA302080EA0C00E2
:1057E0004FEA4C0C4FEA1C2140F21B1201FB02F263
:1057F0008CEA020C1ECF41404A4053405C401EC61A
:105800002000464510D02C2DE4D03C2D06D1FFF7CA
:105810007BFE06CF41404A4006C6100006CF4140FD
:105820004A4006C61000D5E736E90F00FFF7C0FD75
:1058300086E80F00043DF7D1BDE8F08190B4ADF5E6
:10584000016D00AF0023C7F80C380123C7F80838F2
:1058500026E007F58063D7F80C28D7F8081843F836
:1058600022103B46D7F80828D7F80C1843F8221026
:10587000D7F808385A00D7F8083803F08003002B0F
:1058800001D01B2300E000235A40D7F808385340CA
:10589000DBB2C7F80838D7F80C380133C7F80C3832
:1058A000D7F80C38FF2BD4DD0023C7F80C380123C0
:1058B000C7F808381BE0D7F80828D849D7F80C38BB
:1058C00041F82320D7F808385A00D7F8083803F0F1
:1058D0008003002B01D01B2300E000235340DBB2E8
:1058E000C7F80838D7F80C380133C7F80C38D7F8A0
:1058F0000C38092BDFDDCA4B63221A70C94B00221A
:1059000083F863200123C7F80C386DE03B46D7F8D5
:105910000C2853F82230C3F1FF0207F5806353F8D7
:105920002230C7F80838D7F80838C7F80438D7F84D
:1059300004385A00D7F80438DB111343DBB2C7F838
:105940000438D7F80828D7F804385340C7F808387F
:10595000D7F804385A00D7F80438DB111343DBB208
:10596000C7F80438D7F80828D7F804385340C7F8E0
:105970000838D7F804385A00D7F80438DB11134335
:10598000DBB2C7F80438D7F80828D7F804385340F2
:10599000C7F80838D7F804385A00D7F80438DB11AC
:1059A0001343DBB2C7F80438D7F8043883F0630335
:1059B000D7F808285340C7F80838D7F80838D9B2BC
:1059C000974AD7F80C3813440A461A70D7F80C389F
:1059D000D9B2944AD7F8083813440A461A70D7F84F
:1059E0000C380133C7F80C38D7F80C38FF2B8DDD95
:1059F0000023C7F80C3806E1894AD7F80C3813445D
:105A00001B78C7F80838D7F808385A00D7F808388C
:105A100003F08003002B01D01B2300E00023534040
:105A2000DBB2C7F80438D7F80428D7F80838534051
:105A3000DBB2C7F80038D7F808381A02D7F80438AC
:105A40005A40D7F808381B045A40D7F800381B06CC
:105A50005A407549D7F80C3841F82320724AD7F8D4
:105A60000C3852F823304FEA33627049D7F80C38BB
:105A700041F823206D4AD7F80C3852F823304FEA0A
:105A800033626B49D7F80C3841F82320684AD7F8BD
:105A90000C3852F823304FEA33626649D7F80C3895
:105AA00041F823205F4AD7F80C3813441B78C7F815
:105AB0000838D7F80838002B18D03B469A6B3B467D
:105AC000D7F8081853F821301A445B4B82FB033493
:105AD0001319D911D317C91A0B461B025B1AD11A15
