:1000000080150120E1B90000DD590500CDB90000DF
:10001000CDB90000CDB90000CDB90000000000004E
:1000200000000000000000000000000011BC000003
:10003000CDB9000000000000A5BB0000CDB9000054
:1000400025BF0000316D050025BF000025BF000061
:1000500025BF000025BF000025BF000025BF000010
:10006000016D050025BF000025BF00001B6D0500C8
:1000700025BF000025BF000025BF000025BF0000F0
:1000800025BF000025BF000025BF000025BF0000E0
:1000900025BF000025BF000025BF000025BF0000D0
:1000A00025BF000025BF000025BF000025BF0000C0
:1000B00025BF000025BF000025BF000025BF0000B0
:1000C00025BF000025BF000025BF000025BF0000A0
:1000D00025BF000025BF000025BF000025BF000090
:1000E00025BF000025BF000025BF000025BF000080
:1000F00025BF000025BF000025BF000025BF000070
:100100009FED197B70B51A4A1A4D002342F2200068
:100110002021A972288185F82130136082F82830C7
:1001200082ED027BAB7385ED067B1C4685F82210C1
:1001300085F8203005F1280202F814300134202C13
:10014000FAD101260C48EE7303F036F90B4B187008
:100150000B4B1C7003F090F9286000F06FFE85F8DF
:10016000236070BDAFF30080FFFFFFFFFFFFFFFFC5
:10017000C80D0020480E0020DD180000F80D0020FA
:10018000C00D00207BB972B90029BEBF00204FF01E
:10019000004106E008BF00281CBF6FF000414FF08F
:1001A000FF3000F057B8ADF1080C6DE904CE00291E
:1001B00009DB002B1ADB03F06BFCDDF804E0DDE962
:1001C000022304B07047404261EB4101002B1BDB6E
:1001D00003F05EFCDDF804E0DDE9022304B04042F8
:1001E00061EB4101524263EB43037047524263EBC0
:1001F000430303F04DFCDDF804E0DDE9022304B025
:10020000404261EB41017047524263EB430303F00C
:100210003FFCDDF804E0DDE9022304B0524263EB69
:100220004303704753B94AB9002908BF00281CBFCF
:100230004FF0FF314FF0FF3000F00CB8ADF1080C7B
:100240006DE904CE03F024FCDDF804E0DDE90223CF
:1002500004B07047704700BF014B1B685B681847CC
:1002600000000020014B1B68DB68184700000020DD
:10027000014B1B681B69184700000020014B1B68DD
:100280005B69184700000020014B1B689B691847F9
:1002900000000020014B1B68DB69184700000020AC
:1002A000014B1B689B6A184700000020014B1B682C
:1002B0001B6B184700000020014B1B68DB6B1847C5
:1002C0000000002010B4034C2468A468A4465DF824
:1002D000044B604700000020014B1878704700BFB6
:1002E000C40F0020042810B511D883B104280CBF16
:1002F00010242824A1420AD2064C54F8200018B138
:1003000041568A42A8BF0A461A70002010BD6FF0FD
:100310001500FBE78009002030B50246114890F92E
:100320001C3093421ADD90F92430934218DAD31A24
:10033000856A0D4CE85C235693420ED00E3400299A
:100340000CBF0346431CA542D8B206D129B1013ADD
:10035000D2B2012A01D80130C0B230BD0D20FCE775
:100360000020FAE780090020D8EF050008B5054B0A
:1003700093F91C30984203DAFFF7CEFF024B1B566D
:10038000184608BD80090020D8EF050010B51C4CA8
:1003900094F82C3073B9012384F82C3004F021F840
:1003A00048B1184BA362D823236284F82430082371
:1003B000A361237710BD04F029F80028F1D104F0DF
:1003C0002EF80028EDD103F0F1FF38B10E4BA362F7
:1003D000D823236284F824300423E9E703F0EFFFF5
:1003E0000028F3D103F0F4FF0028EFD104F002F865
:1003F0000028EBD140F2BB11742002F059FF00BF7E
:100400008009002013F00500E6EF0500034610B355
:10041000007888B91A79012A1ED85A79012A1BD87E
:100420009A680E49643A8A4216D8D8680C4B9842AA
:100430002CBF00200120704701280CD11A79012A15
:1004400009D85A79012A06D8DA680449643A8A42F6
:1004500001D89868EAE70020704700BF3C86010099
:100460000040420F10B5054C236813B19847002394
:100470002360BDE8104001F02DBE00BFB009002090
:100480002DE9F8438846074680B300F037F84FF06F
:10049000000905465FFA89F6AE420AD2304600F0FE
:1004A00033F890F8264009F10109002CF2D1FF2E13
:1004B00003D16FF00B00BDE8F883304600F024F85C
:1004C0000546848480F8264080F8286001460A4862
:1004D00001F0A8FF202885F827000AD001232F6209
:1004E00085F82630204688F80060E4E76FF01500B4
:1004F000E1E76FF02200DEE7473F0000014B18798B
:10050000704700BFB4090020054B1A79824283BFAF
:100510001B6800EB400003EB00100020704700BF99
:10052000B409002010B510F003040BD1074A117173
:10053000106030B101EB41010A01214602F0E0FFF9
:10054000204610BD6FF00D00FBE700BFB40900208E
:1005500043F60952C0F3080302FB03F3400A03F514
:10056000807302FB00F000EB5320704743F6095CF8
:10057000C0F3080210B50CFB02F2C0F34E24030EC8
:1005800043EA01230CFB04F0090E02F580724FEAE6
:10059000411C00EB52205A01B2EB030E4CEAD36C23
:1005A0006CEB01044FEA841C4FEA8E12B2EB0E0290
:1005B0004CEA9E6C6CEB040C4FEACC0C4CEA527C7F
:1005C000D200D31841EB0C01DA03C903801841EAC9
:1005D000534141F1000110BD430B48F2376C0CFB55
:1005E00003F34FEA134C00B5104B43F6095E0EFBC4
:1005F0001C0000FB03F35B0D0EFB03FE03EB4C231F
:100600000EF5745C0CF1080CB0EB5C2F08D80EF5FD
:10061000807EA0EB5E20C0B20B6010705DF804FB22
:10062000013300200B6010705DF804FB6F0C0100BB
:10063000F8B5274DA94246D8264E274F450F45EA23
:10064000C105A6FB0514C0F34F31A40B01EB054116
:1006500007FB1411A6FB0151890B41EA04411F4C11
:1006600004FB110448F2376C600B0CFB00F04FEAFE
:10067000104C43F6095E1A480EFB1C4505FB00F0C2
:10068000400D0EFB00FE00EB4C200EF5745C0CF1EF
:10069000080CB5EB5C2F12D80EF5807EA5EB5E2E14
:1006A0005FFA8EFE069D85F800E00D0628184FEAD9
:1006B000112141F10001186059601460F8BD01304A
:1006C0004FF0000EEEE796219B2002F0F1FD00BFF7
:1006D000FF7F841E83DE1B43000024F40080841E01
:1006E0006F0C0100420B48F2376303FB02F2120C5D
:1006F00043F6095C074B0CFB120101FB0333013B82
:100700005B0D0CFB03FC5002B1EB5C2F88BF01308A
:10071000184470476F0C010010B5094A92F8003474
:10072000202B03D15021022002F0C2FD590102EB1F
:100730004313BDE81040525858680421104700BFC9
:10074000C009002008B501B3F0B14FF0FF331A46DD
:10075000E0FB01320E498A4203D971216D2002F07B
:10076000A7FD180D40EA0230C3F30F134FF22441E6
:10077000B0FBF1F203EB0040064B03FB1200B0FBB1
:10078000F1F040EA0240013008BD0846FCE700BF36
:100790003F420F00000024F4014B5888704700BF0F
:1007A000FC0D002010B5EFF3108472B6064A937961
:1007B0000133DBB293719379012B01D103F098FDE2
:1007C00004B962B610BD00BFFC0D002070B50C4C22
:1007D000267866B90125A0602570FFF7E3FF00F0D9
:1007E0004BFA30B94FF080432573C3F8045300200F
:1007F00070BDA368002BFAD09847A660F7E700BF4A
:10080000FC0D002038B5FFF7CDFF00F035FA094C9C
:100810004FF0804540B103F058FD01232B610423C4
:1008200063730023A37338BD032363730123C5F8E7
:100830000433F6E7FC0D002010B5EFF3108472B618
:100840000A4B9A7922B94FF496716D2002F030FD6F
:100850009A79013AD2B29A719A791AB9DB7B0BB9BB
:1008600000F0F8F904B962B610BD00BFFC0D00201D
:1008700008B5054B1A7822B100221A731A70FFF7D7
:10088000DBFF002008BD00BFFC0D002073B51B4D31
:100890002B7F63B9286A00F0030003F043FD30B1F9
:1008A000EFF3108372B66A7B1AB103B962B602B075
:1008B00070BD01226A7303B962B64FF0804308220B
:1008C000C3F808234FF42073ADF80630BDF8064096
:1008D000A4B2631E9BB2ADF80630002CF6D14FF0E7
:1008E00080460748C6F80C4103F042FD85F82540D4
:1008F000FFF788FF0823C6F80433D8E7FC0D002073
:10090000200E00202DE9F041384C94F82630002BC1
:1009100069D04FF08043D3F80071D3F8046157B128
:100920000122C3F80823237B2BB1A368002525737C
:100930000BB19847A5604EB14FF080430022C3F839
:1009400004210222C3F80823FFF7A0FF4FF08046DE
:100950002748D6F80C8194F82550EDB203F00CFD31
:1009600020B140F2C5116D2002F0A2FC47B1637BBB
:10097000032B05D10423637303F0A7FC0123336128
:10098000B8F1000F16D04FF080430022C3F80C21BD
:10099000637B042B02D040F2D711E4E703F048FD5B
:1009A000C0B14FF080430022C3F8342C022363739C
:1009B000FFF742FF4DB1002384F82530637B022B03
:1009C00001D1FFF71FFFFFF737FFBDE8F0410848EF
:1009D00003F0E1BC03F00EFD0028E2D103F01FFD9F
:1009E0000028DED1E2E7BDE8F08100BFFC0D002069
:1009F000200E002010B5044C206A00F0030003F024
:100A000091FC0028F8D010BDFC0D0020F8B505467B
:100A100050B10278042A07D8437842B9013B1F2B12
:100A200002D88378212B07D96FF0150076E0002BD0
:100A3000FAD18378002BF7D1814B0127C3F880705E
:100A4000BFF34F8FBFF36F8F4FF08046C3F88071B5
:100A50007C4C4FF0FF33C6F808330023C6F8003152
:100A6000C6F80431C6F80C31A371AB88A38003F03B
:100A700044FC08B12770A771D6F80C24D6F80C34C2
:100A8000D20303D5DF0701D500F0F0F840F2F553AB
:100A900063802B78A9782377002222622174A273C5
:100AA000042B4ED8DFE803F005033B494B0001233C
:100AB000236203F029FC00284ED003F02CFC236AAB
:100AC00003F00303984247D1AB79002B3ED1FFF7E7
:100AD00091FF237C6BB12B785BB900F0CDF8054614
:100AE00002F02CFC6FF00043002D00F0A580C4E95B
:100AF00005034FF08043D3F80C24D3F80C34D20311
:100B000003D5DB0701D500F0B1F84D4A01230020E1
:100B1000607384F82630C2F880311360F8BDFFF7A7
:100B200041FE4FF08043D3F80C14D3F80C24CE03CD
:100B3000F9D5D007F7D50223BAE7434BB8E7434BC3
:100B4000B6E740F216316D2002F0B2FB4FF0804361
:100B50000222C3F80423BCE74FF080430122DA608D
:100B60000022C3F80421226AC3F8182503F01EFCF2
:100B700010B34FF080534FF08042D3F84432C3F3A8
:100B80004233C2F83C3503F011FC10B34FF0804300
:100B90000122C3F84C254FF0804301229A600222C3
:100BA000C3F80423AA79002A93D1D3F80423910728
:100BB0001CD440F2CD21C6E703F001FC0028D8D1B7
:100BC00003F006FC0028D4D103F014FC0028D0D197
:100BD000D9E703F0F4FB0028D8D103F0F9FB002893
:100BE000D4D103F007FC0028D0D1D4E7184A166905
:100BF000116941F010011161D3F8043106F01006BB
:100C00000BB903F023FC4FF08047D7F8043183B1D0
:100C1000FFF7F0FE26B90E4A136923F010031361A3
:100C20004FF080430222C3F808230022C3F80421B6
:100C30004FE703F009FCE8E7C4E9053059E700BFD6
:100C400000E100E0FC0D00200100020001000300B3
:100C500000ED00E04FF08042012353600023C2F812
:100C60000031014A13707047230E0020014B01220E
:100C70001A707047230E00204FF08043D3F80031E4
:100C800023B9034B187800F0010070470120FAE700
:100C9000230E0020094B4FF0FF32C3F80823002237
:100CA000C3F84025C3F84021C3F84425C3F84421C4
:100CB000C3F84825C3F84821704700BF00800040B2
:100CC000084B094A1B78012B16BF4FF440314FF4F3
:100CD00000310023C2F84813C2F808130BB9C2F858
:100CE00040317047280E002000B0004070B5EFF38F
:100CF000108472B6094A0A4B0025D2F80415D2F8BE
:100D000004612EB1596801315960C2F80451F4E709
:100D10005B6804B962B6C0E9001370BD00B0004062
:100D2000280E0020094BD3F80435C01A20F07F4369
:100D300023F001033BB120F07F40B0F5000F8CBFE2
:100D40000220002070470120704700BF00B0004023
:100D5000104B4FF40062C3F88020BFF34F8FBFF3F6
:100D60006F8FC3F880210C4B01225A609A60D3F830
:100D70000425002AFBD10949C3F808134FF4403178
:100D8000C3F84813C3F84021C3F84421C3F8042131
:100D9000704700BF00E100E000B000400200030027
:100DA00008B5144BD3F8042522F00302C3F8042538
:100DB000D3F8082542F00302C3F80825102292FA5E
:100DC000A2F2B2FA82F2092A04DD0B4840F2913114
:100DD00002F064FAC3F810250122DA60074A92682B
:100DE000C3F80022064B4FF48072C3F880211A60CA
:100DF00008BD00BF008000408B800600280E002048
:100E000000E100E008B50A4B4FF48072C3F880207F
:100E1000BFF34F8FBFF36F8F0649C3F880210120C6
:100E20004860FFF737FF044B086100221A7308BDC2
:100E300000E100E000800040280E002010B5234CA7
:100E40000023FF224FF0FF314FF0FF30C4E90401CF
:100E5000237062736360FFF7D5FFFFF779FF1C4BC8
:100E60004FF400621A60A1691A4A31B90123136074
:100E7000184B0222C3F8042310BD174B1748C3F8C0
:100E8000A805C3F8AC15C3F85C294FF40022C3F8D9
:100E90000425134A0521C2F8401501211160D2F83A
:100EA00040110029FBD04FF40021C3F8081501219F
:100EB0005160D1600021C2F84011C2F84015C3F85A
:100EC000A815C3F8AC15C3F8AC15D1E7280E00205F
:100ED00000E100E000B0004000F00140408100402F
:100EE00000800040014BD3E904017047280E002028
:100EF000014BD3F80405704700B0004013B56846B5
:100F0000FFF7F4FEDDE90004FFF722FB024B0021AE
:100F1000E4FB030102B010BD0080841EB1F1FF3F6D
:100F200008BFB0F1FF3F2DE9F041424C05460E46A7
:100F30003AD1414DD5F800318BB3404E404BC6F805
:100F40000835FFF7BDFE4FF000080123A36084F8C9
:100F50000D80FFF757FFFFF723FF3A4BC5F80081DD
:100F6000394FC6F8A8354FF40023C6F8AC75C6F85B
:100F7000043503F0E8F9D5F800312BB10123C5F8A9
:100F800000817B60FB60F4E7013041F10001022346
:100F9000C4E904012370FF236370BDE8F08103F00E
:100FA000D2F9C51C41F10006D4E90473B34208BF6D
:100FB000AF42F2D0214B224AC3F80825FFF780FE4A
:100FC0001D4A4FF4803125F07F480023C2F80813F2
:100FD0004046C2F84813C2F84031FFF7A3FE20B1E3
:100FE00040F226316C2002F063F9C2F84085C2F865
:100FF00044132378012B06D127F07F473846FFF7AB
:1010000091FE0128FAD0002301276373A760FFF740
:10101000F9FEFFF7C5FE094B27704FF00042C3F8F9
:10102000042504236370044BC4E90456C3F84873D1
:10103000B3E700BF280E002000B0004000F00140E0
:101040000000088000B1004000800040032870B517
:101050002D4B06D9011FC9B201292FD940F2763193
:101060000BE0D3E90441B1F1FF3F08BFB4F1FF3F0A
:1010700006D11B7B23B940F255316C2002F018F9E0
:101080002249234D00F110040123800003FA04F4E7
:10109000C5F808430B5000F1804101F50041D1F83B
:1010A0004005101A022805DDC1F84025C5F80443A3
:1010B000012002E00020C1F8400570BD1C782CB171
:1010C0005B78834202D140F27231D6E7114B124E67
:1010D00022F07F458A0013444FF480348C40002274
:1010E000C6F808432846C6F848431A60FFF71AFEB8
:1010F00040B901F5A87146F82150C6F80443C6F876
:101100004443D5E71046D8E7280E00204080004031
:101110000080004040B1004000B0004008B520B160
:101120004FF461716C2002F0C3F8014808BD00BFA4
:1011300040810040032837B508D9041FE4B2012CD0
:1011400019D940F2CA316C2002F0B2F8234900F1FB
:10115000100201239340C1F8083300F5A873002260
:1011600041F823201E4B81005A5053F82030009341
:10117000009B03B030BD1B4D2B7893B16A7882423F
:101180000FD1194A1949C2F80815012B01D1FFF7EF
:1011900039FE00232B704FF0FF324FF0FF33C5E9CB
:1011A0000423134A4FF48033A340C2F80833C2F833
:1011B000483304F5A87352F82300FFF7B3FD012864
:1011C00018BF0C4B22B24FEA84041CBF00211951F6
:1011D000084B53F822300193019BCAE7008000407E
:1011E00040810040280E002000F0014000000880EF
:1011F00000B0004040B1004010B50A4B0446012247
:1012000010B1C3F8442310BDC3F84823FFF7FAFD1B
:10121000054B4FF0FF304FF0FF31C3E904011C7064
:10122000F1E700BF00B00040280E00201F4A08B5BB
:10123000D2F80433D90311D5D2F8403173B1002369
:10124000C2F84031D2F84005FFF76CFD30B14FF4E1
:101250008033C2F80833042001F044FC134AD2F86A
:1012600004339B0311D5D2F8443173B10023C2F883
:101270004431D2F84405FFF755FD30B14FF4003347
:10128000C2F80833052001F02DFC084BD3F80421E7
:1012900032B10022C3F80421054A53680133536078
:1012A000044B4FF40062C3F8802108BD00B0004039
:1012B000280E002000E100E038B5364C637BFF2BA0
:1012C00064D0237883B10122022B227319D1324BCF
:1012D0004FF40022C3F80825002323704FF0FF329B
:1012E0004FF0FF33C4E904232C4BD3F8042310033D
:1012F0000DD5D3F84C2152B140F20F416C2001F0D2
:10130000D7FF022360782370FFF714FFECE7D3F8D0
:10131000042351030DD5D3F8483153B10220FFF710
:1013200009FF1F4B4FF48072C3F88021022001F0A7
:10133000D9FB1A4BD3F8042392030DD5D3F84431CB
:1013400053B10120FFF7F6FE154B4FF48072C3F83E
:101350008021012001F0C6FB104DD5F80433DB03DA
:1013600016D5D5F840319BB10020FFF7E3FE0C4BBA
:101370004FF48072C3F880210020FF236373A060C4
:10138000C5F80002BDE8384001F0ACBB0620F9E723
:1013900038BD00BF280E002000F001400080004052
:1013A00000E100E02DE9F04F97B01C46CDE90312B3
:1013B000DFF808A38046FFF795FD4FF08042012338
:1013C000C2F80835DAF8002006460F46B848136020
:1013D000082101EB44121318D3E901B100EB441CBE
:1013E00015581C7BDA8906910CF1080C597BDB68D7
:1013F000009201910793BCE80F000DF1380EAEE8A2
:101400000F009CE803008EE8030025F07F40FFF703
:101410009FF8009A531C1C44A64B9842044400F2C7
:1014200037829C4200F3E380002CC0F2C080FFF7BB
:1014300023FC019B012B024608D0DAE90613B3F125
:10144000FF3F08BFB1F1FF3F00F0B6800292FFF707
:10145000A3F940F256339842029A00F0D68040F247
:10146000F553984200F0CE80B0F5C67F00F0C480FE
:1014700000230293002103200591B7F1FF3F08BF2D
:10148000B6F1FF3F1FD0AE4277EB0B03C0F0818077
:10149000B6EB050C67EB0B03BCF5000F73F1000313
:1014A00080F00082A5EB060CBCF1000F33460ADD8C
:1014B0000598002800F0AC809AF8200000280CBFA6
:1014C0000846002000E0434615F1FF39A9EB030C64
:1014D0004BF1FF3184454B4656DB002A41D009933E
:1014E000039B0891B9EB080861EB03020392FFF735
:1014F00053F940F2563C6045DDE90813039A00F0C9
:10150000D48040F2F55C604500F0BD80B0F5C67F48
:1015100014BF09201620804572F1000280F0B980C6
:10152000049A012A00F0CC80059A002A72D1B7F102
:10153000FF3F08BFB6F1FF3F6CD0B6EB090C67EB7D
:101540000102BCF1050F72F1000080F28481BCF150
:10155000010F72F1000317DA39463346059FB14691
:1015600067E0DAE90620B0F1FF3F08BFB2F1FF3FC4
:10157000B5D0AA1A6BEB000C029882427CF10002F3
:10158000ADD2019A012AAAD00026304617B0BDE894
:10159000F08FB5EB060C6BEB0703BCF5000F73F196
:1015A000000381D340F23171702001F081FE04F11B
:1015B000F45404F590243AE700287FF447AF0290F2
:1015C000FFF7EAF840F256339842029A00F04C8155
:1015D00040F2F553984200F01E81B0F5C67F00F04E
:1015E00020810123032011460292059345E704F16F
:1015F000614404F5F7041AE700210D230320029348
:1016000005913AE73223029334E71C23029331E732
:10161000084659E7484605930391FFF77FFC039975
:10162000059B0027B1F1FF3F08BFB9F1FF3F00F074
:10163000348123F07F402A1A22F07F42013AB2F52A
:10164000000FA1D2069B5B191B1A23F07F43B3F551
:10165000000F99D80391FEF77BFF174B0399A4EB7A
:10166000000898453CD3041B9C42C0F0E080114B1D
:10167000984531D89C4240F22981C4F1614404F577
:10168000F704A0462DE03B20804572F10002FFF4F4
:1016900047AF0593019B03915F1E484618BF012782
:1016A000FFF73CFC059B0399BCE7252033E700BF0F
:1016B000C0090020FF7F841E0040420F480E00201A
:1016C000B7F1FF3F08BFB6F1FF3F00F0F5803946A4
:1016D0003346B1460027ACE708F1F45808F59028E6
:1016E00044467D4B93F8283023B9009B1E33A34218
:1016F00080F2A580049B012B04D001200391FFF709
:1017000019FD0399009B4BB1A8EB030201200023B4
:101710000391FFF79BFC0399002854D00023424615
:1017200018460391FFF792FC0399064600284AD019
:10173000019BDAF81820012BDAF81C3000F08480C5
:10174000002F44D1B3F1FF3F08BFB2F1FF3F00F0DB
:1017500098800120FFF750FD9AF82030002B40F0D0
:101760008980009A1932A24280F2A1800024A8EB5D
:10177000020223460220FFF769FC30B1DAF800309C
:101780001C604FF08043C3F80845069B1093079BED
:10179000119300238DF850300A934FF0FF324FF031
:1017A000FF33CDE90E5BCDE90C230AAD0FCD4A4CDA
:1017B0000FC40FCD0FC495E80F0084E80F0030462A
:1017C00017B0BDE8F08F0120FFF7B4FCDCE6B3F101
:1017D000FF3F08BFB2F1FF3F0BD00191FFF72CF89C
:1017E0004FF0FF324FF0FF33CAE906230199002F73
:1017F000B2D0029BB9EB030261F100030520FFF7B1
:1018000025FC00285DD09AF82030002BA9D10123B7
:101810008AF82030A5E73221012335200291059373
:101820002BE60D21012310200291059325E62A4B7A
:1018300093F828306442A046002B7FF45BAF4FF44E
:10184000F261702001F034FDB3F1FF3F08BFB2F147
:10185000FF3FCCD0C1E7484608930391059FFFF7AF
:101860005DFB0399089BDDE61C2101231F200291EB
:10187000059302E60520FFF75DFC00238AF820307F
:101880006FE7FEF78FFF02F05EFDCAE9060160E731
:1018900040F22141702001F00BFD40F27C7170207C
:1018A00001F006FD40F23571702001F001FD40F2BB
:1018B000BA71702001F0FCFC40F2A361702001F0CD
:1018C000F7FC40F22621702001F0F2FC40F65801AE
:1018D000702001F0EDFC00BFC80D00202DE9F04F95
:1018E0008F4F97F8214004EB44033B4483B05E7A6A
:1018F000202E48D08B4BE5B26400002B00F089808D
:10190000894BDFF82C92002B5FD006EB451207EBDA
:10191000420A4FEA45189AF82830013BDBB2052B02
:1019200034D8824A12F803B0BBF1090F2ED0AFF3BE
:101930000080EFF3108372B62C443C449AF82920BF
:101940006272A27AB24204BF2022A27213B9AFF32C
:10195000008062B6B044730107EB480809EB4616F5
:10196000012259F80330706888F8282059469847B2
:1019700097F8214004EB44033B44E5B25E7A202E05
:101980004FEA4404C1D103B0BDE8F08F40F26E616C
:10199000702001F08DFC62B6B044730107EB48087B
:1019A00009EB4616012259F80330706888F82820A0
:1019B0005946984797F8214004EB44033B44E5B26D
:1019C0005E7A202E4FEA4404DDD006EB451207EB89
:1019D000420A4FEA45189AF82830013BDBB2052B42
:1019E000D4D8524A12F803B0BBF1090FCED0AFF3EE
:1019F0000080EFF3108372B62C443C449AF82920FF
:101A00006272A27A964204BF2022A272002BC3D136
:101A1000C1E7454BDFF814B1DFF814A14FF02009FE
:101A2000002B51D006EB451207EB42024FEA451856
:101A300092F82830013BDBB2052BA7D81BF8031026
:101A40000929A3D0EFF3108372B62C443C4492F8DA
:101A500029206272A27A964208BF84F80A90002B6D
:101A600054D0B04407EB480873010AEB4616012234
:101A70005AF80330706888F82820984797F8214072
:101A800004EB44033B44E5B25E7A202E4FEA440463
:101A9000C8D178E762B6B044730107EB48080AEB97
:101AA000461601225AF80330706888F828209847B3
:101AB00097F8214004EB44033B44E5B25E7A202EC4
:101AC0004FEA44043FF45FAF06EB451207EB4202D6
:101AD0004FEA451892F82830013BDBB2052B3FF660
:101AE00055AF1BF8031009293FF450AFEFF31083F3
:101AF00072B62C443C4492F829206272A27A964233
:101B000008BF84F80A90002BC5D1C3E70191AFF359
:101B1000008062B6B044019907EB4808A4E700BF13
:101B2000480E0020000000000000000044F0050006
:101B3000C00900202DE9F04F85B00D4614461F4620
:101B40009DF838B0FEF7CEFD2E686968031947F19D
:101B50000002B342019372EB01030292C0F0CA800B
:101B6000DFF8A891DFF8A8810BEB4B034B440393FC
:101B7000DA46039B1C7A202C3BD040F2F5578C466A
:101B80000FE06B7B012B02D0537D012B56D004EB71
:101B90004A1409EB440494F82940202C29D0D5E9B3
:101BA000006C08EB44124FEA441B91681369D0683B
:101BB0005B1840F100009E427CEB0003E1D240F252
:101BC000563740F2F55608EB0B0C2968AB68DCF889
:101BD00008006A685B1842F100029842DCF80C3099
:101BE00093411AD39CF81530012B02D06B7B012B4B
:101BF00003D0012005B0BDE8F08F411A0091FEF737
:101C0000CBFDB84200993FD0B04228D0B0F5C67F96
:101C100014BF01230E239942EBDA08EB0B032A7C55
:101C2000197E91421FD904EB4A1409EB440494F83D
:101C30002940202CDDD04FEA441BC4E7761AFEF77A
:101C4000ABFD40F25633984220D0B84209D0B0F5EF
:101C5000C67F14BF01230E239E42B0DB97E73323D8
:101C6000D9E73323F8E7D3E902611C695B7DA61944
:101C700041F10001012B0BD0019BB342029B8B4130
:101C800038D3C5E9006174E71D23C4E71D23E3E7EA
:101C90006B7B012BF0D00091FEF77EFD40F25633B6
:101CA000984200992CD040F2F553984226D0B0F5D6
:101CB000C67F14BF01230E239C42DDDAFEF76CFDC4
:101CC00040F2563398421FD040F2F553984219D053
:101CD000B0F5C67F14BF01260E26C344DBF80830DA
:101CE000DBF80C10F618019B41F10001B342029B96
:101CF0008B41C6D2002005B0BDE8F08F3323DBE76F
:101D00001D23D9E73326E8E71D26E6E7480E002025
:101D1000C00900202DE9F047154692F8008092F89E
:101D20000BC0AF7A12891C4686B00023E3602361A2
:101D3000C4E9003327749DF8389084F80DC0064636
:101D4000A3606361E28184F811800F46B8F1000F4F
:101D500042D1FEF70BFCD5E904C24C4BC31841F14C
:101D6000000E9C4572EB0E030AD3013E47F1FF378C
:101D7000C4E900674FF47A73A36006B0BDE8F0874A
:101D8000263041F10001844572EB0103EDD328892F
:101D900001300021844572EB01036AD3BCEB0000E3
:101DA00062EB010104F10C03009303AA04ABFEF7FC
:101DB0003FFC039B6A682889473313441844FEF7A5
:101DC00091FCDDE90432C01A20F07F40C4E9003202
:101DD000A06006B0BDE8F0872D4804A9801A04F180
:101DE0000C02FEF7F9FB2B4B1B78202B24D02A4941
:101DF0000B69D1E90521053342F1000A13EB010813
:101E00004AF1000A6B68227BE0894733104418448A
:101E1000C4E9008AFEF766FC3246A0603B462869AA
:101E2000CDF800902146FFF785FE0028A5D1C4E932
:101E3000006706B0BDE8F087637B16F1090847F13B
:101E4000000A012BDED0FEF717FF0028DAD1FEF7DB
:101E5000A3FC40F2563398420ED040F2F55398421C
:101E60000FD0B0F5C67FCDD116F1160847F1000AA4
:101E7000C8E74046414695E716F1250847F1000AB4
:101E8000C0E716F13B0847F1000ABBE70040420FEC
:101E9000FF7F841EC00D0020C80D00202DE9F047F3
:101EA000374DDFF8E08000EB40032B4406461C7AF8
:101EB0004700FFF71DF84FF0200C4FEA461E08EBD5
:101EC00044110EEB0403D1F808A00A69AAEB00093B
:101ED00029F07F49B9F5000F05EB43030DD812EB4C
:101EE0000A02121A22F07F42B2F5000F05D8BCF1A7
:101EF000200F0BD12046BDE8F08793F82930202B26
:101F0000A4461C46DBD1BCF1200FF3D0BB192B44F7
:101F10000CEB461205EB420293F8088092F8292058
:101F20001A72710144464FF0040E0B1905EB43037E
:101F300022469445204683F828E093F82940F4D1BE
:101F4000BB192B440A4493F80AE0BEF1200F5FFA54
:101F50008EFC18BF8C443E4418BF05EB4C0C05EBBF
:101F60004202354408BF83F809804FF0200318BFB0
:101F70008CF82980A87282F829302046BDE8F087C5
:101F8000480E0020C00900202DE9F0414E4D01EB24
:101F900041032B440C461E7A202E80464FEA41070F
:101FA00041D14A4B0BB1AFF3008002F0CCF995F868
:101FB0002230202B0AD0464BD3E904E210F1020C68
:101FC00041F10003E64572EB030331D3202E0AD022
:101FD00042463346FFF7E6F900283FD085F82260F5
:101FE0000220BDE8F081D5E90623B3F1FF3F08BF29
:101FF000B2F1FF3F1FD195F8203043BB0420FFF71B
:1020000099F802F0AEF90020FFF7F6F829684FF0D2
:102010008042202085F8220000230B600120C2F8B6
:102020000835BDE8F0810846FFF738FF8642B8D092
:102030000020BDE8F081FEF7FFFB4FF0FF334FF0CB
:10204000FF32C5E9062395F82030002BD6D00520B5
:10205000FFF770F8002385F82030CFE73B192B44B9
:1020600006EB441205EB420293F808E092F82920AF
:102070001A72610173460420CA189C4605EB42029D
:10208000664592F8293082F82800F5D13B192B4497
:102090003C44987A2028C2B218BF5218614418BF35
:1020A00005EB420205EB4101254408BF83F809E036
:1020B0004FF0200318BF82F829E085F80AC081F8A4
:1020C00029300020BDE8F081480E0020000000000B
:1020D000C80D00202DE9F04F85B002F034F9C14E53
:1020E0000746884602F03DF9D6E90223B3F1FF3FE7
:1020F00008BFB2F1FF3F05D04FF0FF324FF0FF3382
:10210000C6E9022396F82830ABB94FF40C71B069D8
:10211000FEF718FB33697269B169023342F10002BC
:102120005B1842F10002181842F10002874278EB76
:10213000020380F06381AC4C4FF0FF304FF0FF3171
:10214000FEF7ECFEE37B002B40F04681A74991F8B7
:1021500000B00122BBF1200FE27300F03881202291
:102160000A7084F82220A373336094F8213003EBC3
:10217000430AA2445FFA83F99AF808505B0095423B
:10218000009307D09A4B03EB45102A46407E012866
:1021900000F0C580009BDFF860A203EB0908202D4A
:1021A000A0444FEA491708D04846FFF777FE85421A
:1021B00003D098F80850202DF6D1BAF1000F01D0C5
:1021C000AFF3008002F0BFF894F82230202B09D042
:1021D000D6E9042310F1020E41F1000C724573EBB5
:1021E0000C03E6D3202D38D02B460122FFF7DAF876
:1021F000002859D084F8225007EB0B0304EB43036B
:1022000093F82820022A1DD1009A4A44224406212C
:1022100083F82810917ACBB220291CBFDB1904EB7C
:1022200043035F4418BF83F829B0009B08BF82F8BE
:1022300009B04B44234404EB470783F80AB020233A
:1022400087F82930FF232374009B4B441C44637A96
:10225000202B5DD105B0BDE8F08FD4E90623B3F1A2
:10226000FF3F08BFB2F1FF3F07D0FEF7E5FA4FF09E
:10227000FF324FF0FF33C4E9062394F82030002BDF
:102280003FD10420FEF756FF02F06BF80020FEF766
:10229000B3FF21684FF080420023202084F8220001
:1022A0000B60C2F80835A7E77B1904EB430398F8E5
:1022B000080093F8293088F80830024604211346B4
:1022C000BA1804EB42029D4282F8281092F82920A5
:1022D000F5D198F80A1088F80A30CAB220291CBF34
:1022E000D21904EB42023B4404EB430318BF82F8CB
:1022F00029004FF0200208BF88F8090083F8292040
:1023000057E70520FEF716FF002384F82030B8E7D2
:10231000384B187805B0BDE8F04F01F069B809787E
:10232000202914D0316970694F1DB16940F1000056
:10233000791840F10000019003EB4213D3E9020247
:1023400088420198824128BFC3E9021022E701FBBD
:10235000053191F815C017F1090148F10000BCF1F1
:10236000010F0190E8D0CDE90251FEF785FCDDE9CF
:1023700002211F4B10B19AF80850DDE7CDE9022188
:10238000FEF70AFA40F25635A842029A184B0CD0D2
:1023900040F2F555A84214D0B0F5C67F03990AD093
:1023A000009848442044057AC6E717F1250148F112
:1023B00000000190F4E717F1160148F100000190C8
:1023C000EEE717F13B0148F100000190E8E74FF418
:1023D0003171702000F06CFF40F2C121702000F0DC
:1023E00067FF00BFC80D0020480E0020C00D002070
:1023F000C0090020F80D002000000000074B084A2B
:102400001B78580102EB4313082112585868904773
:1024100040F2B621702000F04BFF00BFC00D00203D
:10242000C009002070B5134C0D460646FEF7E2FACF
:1024300094F8213004F1280CD9B20CEB831C002352
:1024400002E00133202B12D01CF81320D8B2002A4E
:10245000F7D103EB4111084A04EB4104590102EBA7
:1024600043135650012284F828205D6070BD184641
:1024700070BD00BF480E0020C00900201F280AD8E8
:102480000C4991F8213000EB431301EB430393F81F
:102490002820012A01D00020704791F8213000EB5C
:1024A000431301EB43034FF0000C104683F828C0A0
:1024B000704700BF480E002010B5094C04EB4014D3
:1024C000D4E90201FEF752F8227DE38A9B1803F15A
:1024D00001034FF000025241181842EB010110BDF8
:1024E000C00900202DE9F04FB04A536891B0C3F302
:1024F000080303900791002B40F03B8208230693CA
:10250000079B1B78012B00F2DB82DFF8BCB2BBF12A
:10251000000F04D0002140F24350AFF300800023AD
:10252000DFF8A8A2DFF8A88204930124BBF1000F12
:1025300004D000214FF4AA60AFF3008024B99C4B73
:102540000BB1AFF3008062B69AF82130DBB205938D
:102550004FF000028AF81020069A002A40F0AD8061
:102560009946BBF1000F04D0002140F26450AFF354
:10257000008001F0E8FE059B0093079A0AAB044631
:10258000FFF7C8FBBBF1000F04D0002140F26C50F4
:10259000AFF30080039B03EB49130AEB43034FEABD
:1025A000491693F82830013B012B00F28480DDE9C5
:1025B0000A3224F07F441D1B25F07F4121F00101E8
:1025C000002940F0D580039A09EB49035344B2181F
:1025D000997A0AEB4202042082F8280020294FEA67
:1025E00049020992CAB200F001823244039B0AEB0D
:1025F000420282F829301A46099B4B445344164440
:102600000AEB46069A72202386F8293000230493A9
:102610000125BBF1000F04D0002140F27150AFF34F
:102620000080644B0BB1AFF30080EFF310863446AB
:1026300072B69AF81030002B7FF478AF039B0AAF84
:1026400008EB43140FCF08340FC497E8030084E865
:102650000300A5B1069B002B00F0B281049B23B1BF
:10266000554B1B78202B00F0F1819AF82130DB4389
:1026700003F001038AF82130FF238AF8103026B9CD
:102680004B4B0BB1AFF3008062B6BBF1000F04D02F
:1026900000214FF4B560AFF30080002D53D1BBF1A2
:1026A000000F04D0002140F2B450AFF30080284660
:1026B00011B0BDE8F08F0025ABE7059A3F4B551CE4
:1026C00005F0010503EB821E03EB851C17B2BEE883
:1026D0000F00ACE80F00BEE80F00ACE80F00BEE84A
:1026E0000F00ACE80F009EE80F00A9468CE80F0031
:1026F0002EB2BBF1000F04D0002140F2DE30AFF368
:1027000000802F4B07EB470706EB4606DA19D95B2B
:102710009278995333449A70BBF1000F0CD000218A
:1027200040F2E230AFF30080BBF1000F04D0002193
:1027300040F25A50AFF300809AF81030002B7FF42B
:10274000F5AE05950DE79AF8213003EB43035344AA
:102750005B7A202BA3D0BBF1000F04D0002140F204
:10276000AF50AFF30080174B187800F041FE96E7AA
:1027700025F07F45B5F5000F3FF625AF0C99C91838
:102780000C1B24F07F44B4F5000F3FF61CAF09EB9F
:10279000490151440C7A4FEA4901202C099100F07B
:1027A0003A812021944604911A4627E000ED00E08A
:1027B0000000000000000000C00D0020700E00208E
:1027C000500E0020F80D002000000000480E0020F0
:1027D000C00900209DF83510012903D0417D012951
:1027E00000F0B18033190AEB430393F82930202B12
:1027F00000F02081DDE90A2C04941C4608EB44100B
:10280000650187680169C368C91943F1000E8A42EE
:102810007CEB0E03DED213466246049F0C9908EB54
:102820000500C918D0F808C042F100028C45C16803
:1028300071EB020275D3427D012A03D09DF8352049
:10284000012A59D0049B9F4200F0DF80202F00F026
:102850003C81049B202B06EB07030AEB430393F810
:10286000292000F02481049BF3180AEB430393F81A
:10287000294083F8292022460520B3180AEB430398
:1028800011468F4293F8292083F82800F5D1099B3F
:102890004B445344987A202808BF5C72099B4B44F0
:1028A000C1B253441CBF89190AEB41019F72039BBB
:1028B00018BF81F82940F318F1190AEB43030AEB1A
:1028C0004101202081F8290083F82920049B8342BC
:1028D00000F0A7801C4634440AEB4404039B84F8B0
:1028E000293000230493039B1E440AEB460603236E
:1028F00086F8283001258CE6ACEB03030893FDF73E
:102900004BFF40F256339842089B55D040F2F552A7
:1029100090424DD0B0F5C67F14BF01220E229A42DC
:1029200090DD45449DF838302A7E9A424FD93319BC
:102930000AEB4303274693F82940202C61D0DDE9B8
:102940000A3265016AE7D71BFDF726FF40F25633CE
:10295000984233D040F2F55398422BD0B0F5C67F61
:1029600014BF01220E22BA427FF73CAFDDE90A32E2
:1029700053E7103B59B200293BDB01F1604101F5FF
:10298000614191F800335B090693002B7FF4B8ADE9
:10299000534B1B78202B00F09D80079B1B780693E0
:1029A000002B3FF4B2AD40F23C51702000F080FCAF
:1029B0003322B4E73322D6E71D22B0E71D22D2E747
:1029C000FF238AF81030002E7FF45FAE58E6099B93
:1029D000039A4B445344B218997A0AEB42020420FA
:1029E000202982F82800CAB27FF4FFAD039A5A72F8
:1029F00002E603F00F03043B13441B7E5B090693BE
:102A0000C3E7049B9F427FF424AF202B11D1099B85
:102A10004B4453441C7A039BF3180AEB430383F89B
:102A20002940099B039A4B4453441A72012304938F
:102A300059E71C4633190AEB430393F82920039BFB
:102A4000F3180AEB430383F8292044E70599022091
:102A5000FFF79AFA00287FF408AE9AF82130039F16
:102A600003EB4301514407EB43128C7A0AEB420219
:102A70000420202C82F82800DDB24FEA4312E0B295
:102A80004FEA430319D011180AEB410181F829706C
:102A900039462B4453440A440AEB420299722023DC
:102AA000049D82F82930002E7FF4EFADE8E5099B04
:102AB0004B4453441C7A1A72DDE64F723946E8E7FC
:102AC0004FF4A861702000F0F3FB4FF4E871702020
:102AD00000F0EEFB40F23951702000F0E9FB00BF3E
:102AE000C00D002070B506280DD8DFE800F01C529C
:102AF000040C0C740D00B14A4FF0804112680123A0
:102B0000C1F80835136070BDAD4D2B78202B00F057
:102B10009180AC4C5A0104EB4313A2585868BDE8AD
:102B2000704005211047A54CD4E90623B3F1FF3FBF
:102B300008BFB2F1FF3F00F0D080A34E0120FEF7A6
:102B40005BFB737F012B04D0FEF796F8002800F0A2
:102B500030819B4D2B78202B00F09B80FF23A373AB
:102B6000D6E90223B3F1FF3F08BFB2F1FF3F05D022
:102B70000520FEF76BFA002800F016812B78914AA9
:102B8000590102EB4313BDE87040525858680121C7
:102B900010478B4D2B78202B00F0A6808A4E737F38
:102BA000012B04D0FEF768F8002800F0F380834C76
:102BB000D4E90623B3F1FF3F08BFB2F1FF3F61D074
:102BC0002B78804A590102EB4313BDE870405258FC
:102BD000586800211047794C94F820307BB1D4E933
:102BE0000623B3F1FF3F08BFB2F1FF3F00F0A28020
:102BF0000120FEF701FB002384F8203070BD704DEA
:102C00002A78202A00F09D806F4E4FF0FF324FF05F
:102C1000FF33C6E90223A37B002B00F0B6802B789C
:102C2000684A590102EB4313BDE870405258586896
:102C300006211047614890F8213003EB430101441D
:102C4000DAB20B7A202B00F0AA8003EB421200EBE1
:102C5000420292F829400C72FF210174022182F88D
:102C60002810584C58492B700022C27381F8282034
:102C700004EB4312127E002A7FF44CAF00F002FFF7
:102C80002B7847E7FDF78EFD01F05DFBC4E90601F7
:102C900096E794F82130DAB203EB43032344197A20
:102CA00020297CD001EB421204EB420292F8290069
:102CB0001872FF232374434B297003EB4111002347
:102CC000097EE37386F82830022382F82830002931
:102CD0007FF444AF00F0D6FE40E7FDF763FD01F05E
:102CE00032FBC4E9060128E7344A92F8213003EBAD
:102CF00043001044DBB2017A202950D001EB43138A
:102D000002EB430393F829400472FF201074022061
:102D100083F828002B4B297003EB41112A4E097EC2
:102D20000023D37386F8283000297FF438AF00F0F1
:102D3000A9FE34E7FDF736FD01F005FBC4E9060105
:102D400056E794F82120D1B202EB42022244107AD5
:102D5000202824D000EB411104EB410191F82960B7
:102D60001672FF222274174A287002EB4010164E8A
:102D7000027EE37386F82830022381F82830002A87
:102D80007FF443AF00F07EFE3FE740F243617020E6
:102D900000F08EFA40F25161702000F089FA40F2A2
:102DA0004721702000F084FA40F22F61702000F07B
:102DB0007FFA40F22961702000F07AFA480E002074
:102DC000C00D0020C0090020C80D002070B5284BA0
:102DD0001A78202A86B045D0264CD4E90213B3F1E4
:102DE000FF3F08BFB1F1FF3F37D1234D05EB42153F
:102DF0000646D5E90201FDF7B9FB2B7DEA8AD21818
:102E000002F101024FF0000C4CEB0C0C93194CF149
:102E1000000C18180DF10B034CEB0101009303AAF1
:102E200004ABFDF705FC9DF80B20DDE904310F2A0A
:102E300094BF002201229B1841F10001C4E9023134
:102E40000E4B9B7B13B9012006B070BDD4E9022361
:102E50000520FEF7FBF806B070BD40F62F0170208C
:102E600000F026FA40F62E01702000F021FA00BF93
:102E7000C00D0020C80D0020C0090020480E002011
:102E800038B5234B93F800E0BEF1200F3AD0214D26
:102E900095F8213095F821C003EB43032B445FFAEA
:102EA0008CFC1B7A202B1FD01B4C4FEA4C1C06E0DD
:102EB000634405EB430393F82930202B14D004EB33
:102EC0004312117E8142F3D804EB4E14D4E902136D
:102ED00020694018D2E9021243F10003814272EBEB
:102EE000030304D2002038BD4FF0FF3038BD0B4B38
:102EF000081A1C68FDF72CFB04F132038342F1D859
:102F0000001B38BD40F66801702000F0D1F900BF09
:102F1000C00D0020480E0020C0090020C80D002070
:102F20002DE9F04F8D4B1E7887B0202E019000F0D8
:102F300010818B4F8B4D97F82130286803EB4303AA
:102F40003B440DF113021C7A019B18442B69039337
:102F50008946AB69029305A9FDF73EFB019A824BB6
:102F6000323A9A4261D8DFF80882059B696908EB1A
:102F70004616B2689B1832699B182A699B1A23F07F
:102F80007F40B0F5000F50D897F821A0AB61202CFE
:102F900085F820905FFA8AFA18BF4FF0200B00F0F6
:102FA000CB8008EB441C9B18DCF8080041F10001C1
:102FB0009842DCF80C308B414FEA44164ED39CF813
:102FC0001530012B02D06B7F012B32D00520FEF78C
:102FD000B1F897F821104FF0FF324FF0FF33BBF1FB
:102FE000200FC5E90223C9B240F0A48001EB4101E2
:102FF000394420240B7A594A97F82110127802EBB1
:10300000411207EB420282F829302B68019A1344DF
:103010002B60FF233B74202C40D0544B187800F0D9
:10302000E7F9002007B0BDE8F08F012007B0BDE848
:10303000F08FA0EB0209FDF7AFFB40F25633984248
:1030400020D040F2F55398421AD0B0F5C67F14BF95
:1030500001230E234B45B9DD95F820904644337E7D
:103060004B4511D904EB4A1307EB430393F829307E
:10307000202B17D0A346D5E904211C46AB6990E765
:103080003323E7E71D23E5E7DDE902312A695B1811
:103090009B1A0220AB6107B0BDE8F08F002007B09B
:1030A000BDE8F08F0520FEF745F84FF0FF324FF0F6
:1030B000FF3397F82110C5E90223C9B201EB4103A0
:1030C0003B4404EB411207EB420293F808A092F84C
:1030D00029201A724FEA410C480153464FF0050867
:1030E00000EB030E07EB4E0E1A4694421E468EF876
:1030F00028809EF82930F3D10CEB010EBE446144C8
:103100009EF80A90B9F1200F5FFA89F818BF804441
:103110003944024418BF07EB480807EB42028E729D
:103120004FF0200114BF88F829A08EF809A082F87A
:10313000291060E75C46C1E70520FDF7FBFF97F823
:1031400021104FF0FF324FF0FF33C5E90223C9B21F
:103150004CE74FF40961702000F0AAF8C00D002080
:10316000480E0020C80D0020CE3F420FF80D002071
:10317000C0090020BFF34F8F0549064BCA6802F40F
:10318000E0621343CB60BFF34F8F00BFFDE700BF8A
:1031900000ED00E00400FA05094B01225A604FF0EF
:1031A000FF32C3F80823074B4FF48042C3F8802056
:1031B000BFF34F8FBFF36F8FC3F88021704700BFFD
:1031C00000E0004000E100E0094B01225A604FF0AE
:1031D000FF32C3F80823074B4FF48052C3F8802016
:1031E000BFF34F8FBFF36F8FC3F88021704700BFCD
:1031F00000C0004000E100E0084B0022C3F8FC2FB3
:103200000122C3F8FC2F064B0222C3F88020BFF333
:103210004F8FBFF36F8FC3F88021704700100040BD
:1032200000E100E0F8B51B4E337805460C46174622
:103230006BBBFDF7ABF8184B7760002D08BF1D4640
:1032400028463472FFF7D8FFFFF7BEFFFFF7A4FF51
:10325000FDF7DCFB0546C0B9FCF752FFFDF7CAFBE2
:10326000FDF714FB00F077FF002C0CDB04F01F02CD
:103270006409A40004F1604404F56144012393400F
:10328000C4F880312360012333702846F8BD4FF025
:10329000FF35FAE7F00E00204AF0050008B572B6D7
:1032A000024B5B6803B19847FFF764FFF00E002004
:1032B0001FB572B6134B5D688DB9FFF75BFFB2FBAC
:1032C000F6F2DCB20133002AF9D104F110036B44A9
:1032D00003F80C2C0A2234B901A8A847EDE70246EE
:1032E00000230A26EDE7631E04AEDCB256FA83F330
:1032F000B0FBF2F602FB1600303003F80C0C30463F
:10330000E9E700BFF00E0020074B93F90830002BCF
:1033100009DB5A09012103F01F0301FA03F34032CC
:10332000024941F822307047F00E002000E100E031
:10333000014B1878704700BFF00E00201B4B4FF474
:10334000805270B5C3F88020BFF34F8FBFF36F8FEB
:10335000174D184C0021C5F80011C3F880212669CB
:10336000236943F0100323610123C5F8043306F0F9
:1033700010062B60D5F80031A3B11EB9236923F0E4
:10338000100323610A4B0122D3F808055A60C3F8E1
:1033900008230022C3F80021044B4FF48052C3F8E5
:1033A000802170BD01F050F8E4E700BF00E100E0CB
:1033B00000C0004000ED00E038B50C490246052091
:1033C000431ED8B2FF2803D148216920FFF770FFC0
:1033D00001EBC0031D7905F0FF04002DF0D141F889
:1033E000302001225C719C711A7138BD000F0020E1
:1033F000042808B503D958216920FFF759FF094B64
:1034000003EBC0000379012B01D05921F4E7437984
:1034100082790133DBB29A4218BF4371BDE808409C
:10342000FFF772BF000F002070B5124C0625002672
:10343000013D15F0FF0500D170BD94F8281004EB94
:10344000C1031A79012A09D158799A79904205D095
:103450005A79D2B29A7154F83130984794F828309A
:103460000133DBB2042B94BF84F8283084F8286041
:10347000DEE700BF000F002008B500F097FF70B92D
:1034800000F09DFF58B900F0A3FF40B900F0B2FF73
:10349000044A054B002808BF1346184608BD024BD6
:1034A000FBE700BF00E701400C05004008B500F055
:1034B000A1FF08B3EFF3108072B6104A13691169C7
:1034C00041F010011161A2F5406203F01003D2F83F
:1034D0000011D2F804210A4300D040BF20BF00BF32
:1034E00000BF00BF00BF23B9044A136923F01003D3
:1034F000136100B962B608BD20BFFCE700ED00E033
:103500002DE9F04184075FFA81FE5FD0002A59D08F
:10351000034601E0002A55D003F801EB990702F1B8
:10352000FF32F7D14EEA0E24032A44EA04443ED97E
:10353000151FAE08172D06F10106C3F3800147D908
:103540009846002940D048F8044B771A03EB810CC9
:1035500079080CEBC101CCE900440CF1080C614581
:10356000F9D127F0010C08EB8C016745CCEB8C7886
:1035700005EB880517D02F1F032F0C6013D9A5F179
:103580000807032F4C600ED9A5F10C07032F8C60A0
:1035900009D9A5F11007032FCC6004D9143D032DE0
:1035A0000C6188BF4C6102F0030203EB86034AB151
:1035B000013A83F800E005D0012A83F801E018BF42
:1035C00083F802E0BDE8F0811546BEE70346A9E7AF
:1035D00019461546CFE700BF014B1B681B6818470B
:1035E00044000020014B1B685B6818474400002022
:1035F000014B1B689B68184744000020014B1B6867
:103600001B6918474400002038B504201E4CFFF702
:1036100037FC2568854228BF054604212846FFF768
:103620007FFC20B1012820D040F2451108E023683A
:10363000E068AB420DD1FFF7C9FB20B940F225117C
:103640006B20FFF735FEE268236822611344E360D4
:1036500038BD05446089E5600123281A2375FFF70A
:10366000B5FB60B940F22F11EAE763892075E06885
:10367000C01AFFF7ABFB10B94FF49E71E0E7628907
:10368000E3689B1A2361E3E7300F002008B50C4B79
:103690001A7802F0FF0312B15A1E1A4203D0E02139
:1036A0006B20FFF705FE19B1034207D1E521F7E7CB
:1036B00023EA00039B0601D1E921F1E708BD00BF21
:1036C0004800002008B50D4B01221A764FF0827297
:1036D0001A621A68DA615A689A62094A93F83000E5
:1036E0000221117003F11801FEF7FCFE20B94FF41E
:1036F00083716B20FFF7DCFD08BD00BF300F002099
:103700004800002070B5EFF3108572B6264C94F88F
:1037100031600023012E84F8313006D0022E1DD0F6
:10372000002E3BD185F3108870BD85F3108894F886
:10373000323003F0FF0123B14FF4A9716B20FFF782
:10374000B7FD1420FFF7A2FF184B84F832601B78F6
:10375000012BE9D1BDE87040FFF7B4BF94F83220E7
:1037600012B940F26311E9E7104984F832300B785E
:10377000023BDBB21E2B0ED8012202FA03F30C4AE5
:103780001342CFD144F20402134204D020230B7021
:10379000FEF7A0FCC6E740F27F11CFE785F3108863
:1037A00040F2A511CAE700BF300F002048000020FA
:1037B0004100004070B5144C94F8335025B14FF4DB
:1037C00022716B20FFF774FD104B84F832500126F4
:1037D0001E700F4B0F484FF4C852C4E900230E4B24
:1037E000A360FFF7E9FD294684F834000B48FEF793
:1037F00019FE202884F8300002D140F29721E0E73A
:1038000084F8336070BD00BF300F002048000020F6
:10381000FF3F420F053700000500B7009139000057
:1038200008B5104B93F8332022B940F2F7216B20F2
:10383000FFF73EFDEFF3108172B693F8312022B10D
:10384000012A0DD040F20731F1E7022283F831203E
:1038500001B962B693F83400BDE80840FFF7C8BD6F
:103860000022F3E7300F00200B4B93F8333010B5F4
:1038700023B940F216316B20FFF71AFDEFF31084E5
:1038800072B6064B1A78102A03D108221A70FEF776
:1038900021FC04B962B610BD300F002048000020A2
:1038A00070B5174B1B78042B27D1164D2B7D1BB9F8
:1038B0006B892868C01A70BD00F0FCFC10F11E0472
:1038C00095F8300041F10006FEF7F6FD2B691B1854
:1038D00041F100019C4276EB01004FF000020CD256
:1038E000181B4FF0FF3361EB0601834272EB0103BB
:1038F000E1D2A7216B20FFF7DBFC0020DBE700BF54
:1039000048000020300F002038B5144C94F83330B4
:1039100023B94FF433716B20FFF7CAFCEFF3108526
:1039200072B694F8313023B1022B0DD040F2DF2172
:10393000F1E7012384F8313005B962B694F8340018
:10394000BDE83840FFF754BD054B1B780022042B1F
:1039500084F83120F0D124F00DF9EDE7300F00208C
:103960004800002008B5094B19781029CAB207D0C1
:10397000202A05D0042A04D110221A7024F00AF952
:1039800008BD4FF4E2716B20FFF792FC4800002065
:1039900070B50C46FDF7ACFA611E06294AD8DFE87F
:1039A00001F00453532823665F0001210220FFF732
:1039B0006DFE314B314A93F8321079B10421117008
:1039C0001A68DA6000221A7593F83130022B01D0A0
:1039D00024F0D0F8BDE87040FFF716BE2023137026
:1039E000BDE87040FEF776BB4FF404716B20FFF723
:1039F0005FFC214C94F83230E3B1204B1B78042B50
:103A000019D100F057FC064694F830000D46FEF739
:103A100053FD227D012A0BD12269121841F10003C6
:103A2000964275EB030303D3BDE87040FFF79ABFDE
:103A300016F0D6FF70BD124B0222C3F88020BFF3F0
:103A40004F8FBFF36F8FF5E701210220FFF71EFEB6
:103A5000094B93F8323033B1BDE87040FFF732BE06
:103A600001212820F2E7054B01221A70E2E7024B00
:103A70001B7D012BAED1D7E7300F0020480000207E
:103A800000E100E0014B01229A777047680F0020A7
:103A90002DE9F04786468C460846089E1546744632
:103AA0001946002B40F0C2808542B2FA82F245D915
:103AB0004AB1C2F1200300FA02FC2EFA03F395404A
:103AC00043EA0C0C94404FEA154EA8B2BCFBFEF83A
:103AD000230C0EFB18CC08FB00F943EA0C43994574
:103AE00028D9EB1808F1FF3704D2994502D9A8F17B
:103AF00002072B44A3EB0903A4B2B3FBFEFC0EFBAD
:103B00001C330CFB00F044EA0344A04214D92C19E6
:103B10000CF1FF3304D2A04202D9ACF102032C44D1
:103B2000241A43EA07401EB1D44000233460736076
:103B3000BDE8F0874746DDE76346F1E792BB431BEC
:103B400001214FEA154EAFB2B3FBFEFC200C0EFB79
:103B50001C330CFB07F840EA0343984562D9EB1885
:103B60000CF1FF3004D2984502D9ACF102002B448D
:103B7000A3EB0803A4B2B3FBFEFC0EFB1C330CFB4F
:103B800007F744EA0344A7424ED92C190CF1FF333E
:103B900004D2A74202D9ACF102032C44E41B43EA4D
:103BA0000040C0E7C2F1200320FA03F195409040A5
:103BB0002EFA03F303434FEA154EAFB2B1FBFEFCFE
:103BC0000EFB1C10190C0CFB07F841EA004188455C
:103BD00004FA02F422D969180CF1FF3004D28845A6
:103BE00002D9ACF102002944A1EB08019BB2B1FB60
:103BF000FEFC0EFB1C110CFB07F743EA01439F423E
:103C00000ED9EB180CF1FF3104D29F4202D9ACF16E
:103C100002012B44DB1B41EA004192E76046E3E7E7
:103C20006146F7E76046A3E76346B7E7834206D9F4
:103C300016B9002108467BE7C6E900E0F9E7B3FAC8
:103C400083F78FB9834201D3724508D8BEEB0204D3
:103C500060EB030301209C461EB9002168E738464B
:103C6000FAE7C6E9004CF8E7C7F1200CBB4022FA9E
:103C70000CF41C432EFA0CF120FA0CF3B84001436B
:103C80004FEA14490EFA07F5B3FBF9F81FFA84FE60
:103C900009FB18300B0C08FB0EFA43EA00439A4567
:103CA00002FA07F240D9E31808F1FF3004D29A452E
:103CB00002D9A8F102002344A3EB0A0389B2B3FBA3
:103CC000F9F809FB183308FB0EFE41EA03418E4563
:103CD0002CD9611808F1FF3304D28E4502D9A8F11E
:103CE0000203214443EA0040A0FB0298A1EB0E012D
:103CF0004145CE46434602D306D14D4504D2B9EBE9
:103D0000020E68EB04030138002EA6D0B5EB0E02BC
:103D100061EB030101FA0CFC22FA07F34CEA0303FE
:103D2000F940C6E9003198E74046C5E74346D9E780
:103D3000FCF72CBB70B5841A04F307040E4660B27E
:103D400059B21546FCF712FB0023307028447370FB
:103D500040B270BD37B5A0F10B04E0B20F28154694
:103D600003D94F216420FFF7A3FA0DF103030A469C
:103D700001460420FCF7B6FA034608B15821F1E7E2
:103D800004EB840404F665149DF90300A2B201A9B2
:103D9000FCF798FA9DF804302B709DF805306B7095
:103DA00003B030BD002303607047002070474FF020
:103DB000FF3070474FF0FF3070477047704700206A
:103DC00070474FF0FF307047002070470020704769
:103DD0000023037070470022FFF7ACBF002070473C
:103DE0004FF0FF3070474FF0FF3070474FF0FF301B
:103DF0007047C0B2704738B5054691F827000C46A9
:103E0000FEF73CFB18B9D3216A20FFF751FA0023D3
:103E1000A38484F826300921236A2846984718B1DC
:103E200003780BB1D721EFE738BD426808B50346E8
:103E300011441A785960012AA1F1500006D1FEF709
:103E4000C5FF40B9B7216A20FFF732FAFEF7BEFF7F
:103E500008B9BC21F7E708BDF8B504460E4619B904
:103E6000012384F829303CE00D78032DF8D8DFE8F1
:103E700005F03A0212154868C72802D800252846DE
:103E8000F8BD0421FFF74CF80028F7D171682046EF
:103E9000FFF7CBFFF3E7FCF7E5FAF0E790F82470C3
:103EA000FFB94D682846FCF7B1FA0028D8D0297828
:103EB000D9B9012222702B792181003B18BF01233F
:103EC000E3726B79002B0CBF02230423A372AB684F
:103ED00060336360EB682361032384F8263084F841
:103EE0002520FCF7BFFA0225C9E794F82630052BF8
:103EF00004D040F277116A20FFF7DAF927702B79A6
:103F000094F827002781003B18BF0123E3726B79E7
:103F1000002B0CBF02230423A372EB68A968603353
:103F20006360D4E906325B1842EBE172C4E9043203
:103F3000042384F826302146FEF7D4FA0028D0D195
:103F400040F27911D7E770B50D46044620B940F22A
:103F500091116A20FFF7ACF990F82860082900F267
:103F6000F080DFE811F0EB000900410041007C0027
:103F700086009000A900970090F82630033B012BA3
:103F800002D94FF4CE71E4E7052390F8241080F8AD
:103F90002630002380F8293011BBFFF746FF237835
:103FA000012B18D194F82700FEF786FAC4E9060120
:103FB000236A00213046984701462046FFF74CFF10
:103FC000022820D0002800F0BF80012840F0BF80E8
:103FD000236A0421EEE7D4E90423C4E90623E7E7D2
:103FE000BDE87040FCF73EBA90F82630DA1E012A90
:103FF00002D94FF4DD71ACE790F8242072B101468C
:104000003046FFF7F8FE002D40F0A48000F054F990
:10401000002800F09F8040F22E219AE7042B0CBF6D
:1040200002230123022980F82630036A0CD10521DE
:1040300030469847002800F08D800378002B00F070
:10404000898040F2CF1184E7062130469847002846
:10405000D9D00378002BD6D04FF4EA7179E790F8E5
:104060002630052B02D040F2DB1172E7036A0221F1
:10407000A0E790F82630052B02D040F2E11168E766
:10408000036A012196E790F82630052BA8D040F26C
:10409000E7115EE790F82630052B02D04FF4F67159
:1040A00057E7036A0A213046984701462046FFF742
:1040B000D3FE40F2EF114CE790F82630052B07D0E5
:1040C00090F825200AB1032B02D040F2F31140E70B
:1040D00094F824202AB121463046BDE87040FFF70D
:1040E0008ABE94F8293073B1022384F8263084F80C
:1040F0002920236A08213046984758B303784BB3E8
:1041000040F2FF1125E794F8252052B194F82700DA
:1041100084F825302146FEF7E5F9D8B94FF401714E
:1041200017E7022384F826300721236A3046984790
:1041300080B1037873B140F20B210AE74FF40471A8
:1041400007E74FF4057104E7236A032132E740F2E1
:104150002521FEE670BD70B5FCF7D0F900240546B8
:104160002646E0B2854200D870BDFCF7CDF9013497
:10417000868480F82660F4E7F8B504460D46FCF71F
:10418000BDF900270646F8B2864204D8082D0CD99E
:104190006FF0150008E0FCF7B7F990F8263001370A
:1041A000002BF0D04FF0FF30F8BD2CB1294620464F
:1041B000BDE8F840FCF7B6B921462046F8E738B527
:1041C0000546FCF7A1F9014688B190F824408CB966
:1041D00090F8263073B1013B012B04D82846FFF735
:1041E0000AFE204638BD012380F82430F9E76FF03D
:1041F0000100F7E76FF02200F4E770B50D46FCF719
:1042000083F9044600284AD090F82660731E012BDB
:104210004BD8002D46D02846FCF7F8F8002841D0AE
:104220002A7802BB012323702B792281003B18BF1F
:104230000123E3726B79002B0CBF02230423A372CA
:10424000AB6860336360EB682361032394F8270055
:1042500084F826302146FEF745F948BB4FF42B7110
:104260006A20FFF725F8022E1FD1002222702B7939
:1042700022819B1A18BF0123E3726B79934218BF06
:104280000426A672EB68A96860336360D4E906323D
:104290005B1842EBE172C4E904320423D6E76FF005
:1042A000010070BD6FF01500FBE76FF02200F8E72A
:1042B0000020F6E7FCF722BE08B50020FCF72EFF31
:1042C0000068003818BF012008BD08B500F0B0F83C
:1042D00028B14FF080430222C3F8342C08BD00F00F
:1042E00089F80028F5D100F09AF80028F1D1F5E717
:1042F0004FF0804301221A6070474FF08043D3F89B
:10430000080400F0010070474FF08043D3F8140414
:1043100000F0010070474FF08043D3F81C0400F018
:10432000030070474FF08042D2F81834D2F81824B6
:1043300013F4803305D002F003031B1A584258418E
:1043400070471846704707B56846FCF7CFFCDDE9B3
:1043500000024FF080730021E2FB030103B05DF81F
:1043600004FB08B5FCF7ACFCBDE80840FCF792BCC8
:104370000023037018467047EFF3108272B603787B
:104380000121DBB2017002B962B6012B0CBF6FF0E4
:10439000220000207047EFF3108372B600220270F3
:1043A00003B962B600207047FFF73EB84FF0805364
:1043B000D3F83001A0F10F035842584170474FF035
:1043C0008053D3F83001A0F10A0358425841704796
:1043D0004FF08053D3F83001A0F10E0358425841FA
:1043E00070474FF08053D3F83001A0F110035842CA
:1043F000584170474FF08053D3F83001062803D05E
:10440000431C584258417047012070474FF0805379
:10441000D3F83001A0F10D035842584170474FF0D6
:104420008053D3F83001A0F1080358425841704737
:1044300008B5FFF7C4FF30B14FF08053D3F8340113
:10444000B0FA80F0400908BDFFF730B8FFF72EB88A
:1044500000280CBF6FF01500002070470020704747
:10446000072303700020704700207047002070472A
:1044700010B50446FFF714FAA04294BF00200120B3
:1044800010BD0000000000002DE9F04F9FB08246F3
:10449000039116461C460025307810B9284600F0D6
:1044A00089BD731C2528069306D00399D0470028A0
:1044B000C0F2808501352CE21822002110A851F0AD
:1044C0006EFC7378252B7ED00023701C98469E4688
:1044D0009C461F46014610F8012B2B2A00F0A680AF
:1044E00000F29D80202A00F0A480232A00F0A480FE
:1044F0002BB19DF8483043F040038DF84830B8F1B7
:10450000000F05D09DF8483043F020038DF8483067
:10451000BEF1000F05D09DF8483043F010038DF830
:104520004830BCF1000F05D09DF8483043F0080337
:104530008DF848302FB19DF8483043F004038DF8D2
:1045400048309DF8483003F04400442803D16FF30D
:1045500086138DF848309DF848302A2A43F08003AE
:104560008DF8483040F084809DF8492042F00102E7
:104570004B1C8DF849201A782E2A9DF849200CBF33
:104580000121002161F341028DF849207CD15A7844
:104590002A2A72D0013300224FF00A0C194611F872
:1045A000010BA0F13007092F40F2B3809DF84810AD
:1045B0001492C1F3400040EAD2700A4660F341020F
:1045C0008DF8482060E0B21C06928DF84B309DF8C3
:1045D00049209DF84A30D70703F0070040F1548185
:1045E00054F8041B0491002908DA9DF8481041F0A2
:1045F00004018DF84810049949420491510740F193
:104600004B8154F8047B002F80F24A819DF84920A9
:104610006FF341028DF849204FF0FF3740E12D2A1A
:104620000DD0302A7FF464AF012353E74FF0010C23
:1046300050E74FF0010E4DE74FF001084AE7012720
:1046400048E70EFB0272303A0346184610F8017B29
:10465000A7F1300CBCF1090FF3D999428BD09DF82A
:1046600048101392D20F62F341018DF8481082E78F
:104670000B4600224FF00A0EE7E79DF8492042F072
:1046800004028DF8492002331A786C2A61D045D88B
:10469000682A4BD06A2A65D04C2A6BD013F8012BBC
:1046A0000693782A8DF84B2000F2AD806D2A6ED8E3
:1046B000692A00F2A880572A00F28880412A04D093
:1046C000A2F14503022B00F29E809DF84A3002F0D1
:1046D000DF020421A2F1410861F30203D8F10002D4
:1046E0009DF849108DF84A3042EB080262F3C71179
:1046F0000A068DF84910CBB200F1C48003F07802AD
:10470000182A40F0AE806FF3C6038DF849300023BD
:104710009DE00CFB0202303A0B463FE7742A25D09D
:104720007A2ABBD19DF8492006210CE05A78682AE4
:104730009DF8492006D1012161F3C6028DF8492078
:104740000233ABE7022161F3C6028DF84920013341
:10475000A4E75A786C2A9DF8492001D10421EBE79F
:104760000321F0E79DF849200521ECE79DF8492059
:104770000721E8E7BDF8482022F4F04222F00202C7
:1047800042F4804242F00202ADF84820DFE76E3A80
:10479000D3B201229A4040F282431A429DF8493036
:1047A00038D112F0240F60D1D1072CD59DF84A20C2
:1047B00003F07803A3F1400C032161F30202DCF162
:1047C00000038DF84A2043EB0C0340E0A2F15801AE
:1047D000C9B2012000FA01F111F4624F7FF475AF04
:1047E00040F6010319429DF8493019D111F4043FF4
:1047F00009D09DF84A2060F3020203F07803402BB1
:104800008DF84A2083D19DF8483043F001038DF89C
:1048100048307CE79DF84A20022161F30202ECE770
:104820009DF84A10022003F0780360F30201402B48
:104830008DF84A1002BF9DF8481041F001018DF833
:104840004810632A7FF463AF003B18BF01239DF833
:104850004820C2F340010B4363F341028DF8482026
:10486000B5E613F0380FCED151E79DF84A20032169
:1048700013F0780F61F302028DF84A2014BF012370
:104880000023E4E70123E2E79DF948100029B4BFC3
:1048900013994FF0FF31B0E697077FF5BDAE149F37
:1048A00000220428CDE913229DF8492007D1900762
:1048B00005D49DF949100029ACBF06270D2703F048
:1048C0000703012BC2F3C30233D1D31E042B04D838
:1048D000DFE803F02146462121002368012A4FEA40
:1048E000E371CDE910311CD19DF94030D917CDE9E4
:1048F000103104349DF848300793990750D0069B37
:104900000399324650464FF061FB0028C0F25283B3
:104910000544069EC0E554F8043BD917CDE9103193
:10492000E8E7022AE5D119B243F3C033CDE9101309
:10493000DFE7022B24D1D31E042B04D8DFE803F0D9
:10494000181010181800012A54F8043B4FF0000109
:1049500014D0022ACDE91031CCD19BB21093C9E713
:10496000073424F00704F4E80201CDE91001C1E79F
:1049700054F8043B109300231193BBE7DBB2CDE75F
:10498000042B08D1073424F00704D4E900010834CB
:10499000CDE91001AEE7032BACD154F8043BDDE7C1
:1049A0009DF84BB0BBF1780FB3D8BBF1570F49D886
:1049B000BBF1250F00F09080BBF1240FA9D9BBF10A
:1049C000410F03D0ABF14502022AA2D8DDE9101253
:1049D000002AC0F23581079B1E0700F13481C3F322
:1049E00000194FEA4919C2F30A50C2F31302002812
:1049F00040F02C8151EA020614BF01260026D202A3
:104A000042EA5152C902BBF1460F40EA010E42EAA6
:104A1000E07C08BF4FF0660B5EEA0C0CCDE90C128F
:104A200000F09681002E40F043810D9A42F0004242
:104A3000A0F2FE380D920020DDE90C1206464FF080
:104A4000050C4FE1ABF1580120293FF662AF01A000
:104A500050F821F0DF4B000013490000134900001B
:104A600013490000134900001349000013490000D6
:104A70001349000013490000CD490000134900000C
:104A8000634B0000774B0000CD490000CD4900008A
:104A9000CD49000013490000774B00001349000086
:104AA000134900001349000013490000194C00008D
:104AB000DF4B0000E54B00001349000013490000E4
:104AC000DF4A000013490000DF4B000013490000DB
:104AD00013490000DF4B000003995846E6E4002F1D
:104AE000109E3ADB3946304651F072F93718002EE5
:104AF0003FF40FAF4FF000099DF84A3013F0100259
:104B0000059200F04C82023013F04003DDF84C8037
:104B1000089318BF149BCDF81C80404418BFC018E0
:104B2000049B002B40F356829DF848201B1A0493E7
:104B30005307C2F3800B00F14D82500640F13D82D5
:104B4000B9F1000F07D003994846D0470028C0F2BA
:104B500031820135D946302230E2304651F0C6F874
:104B6000C4E7109B8DF85C304FF000090DF15D0734
:104B700017AE0120C0E7079B1A0758BFC3F30019FF
:104B8000DDE9102354BF4FEA49194FF02B09002BE0
:104B900006DA524263EB4303CDE910234FF02D09AF
:104BA0000DF175030093DDE9100117AB12AA4FF068
:104BB000C7F90646002F0CDB9DF848200DF1750360
:104BC0009B1B6FF386129F428DF8482001D9FB1A78
:104BD0001393002E3FF49DAE0DF1750756E04FF094
:104BE0000009DDE71098002800F0D4810DF175036D
:104BF000009312AA17AB00214FF0A2F9BDF84A307A
:104C000003F0EF0343F4F04343F010030646ADF81E
:104C10004A304FF00009CDE7109B072A3FF679AEE6
:104C2000DFE802F00C04060C08080C0C1D7070E69E
:104C30001D806EE6EA17C3E900526AE61D6068E669
:104C40004FF02D09CFE64FF02B09CCE640F2FF766E
:104C5000B0422AD10A43ABF141031ED11A2B35BF12
:104C6000492369234E216E2134BF462266228DF8E6
:104C70005C309DF848308DF85D106FF386138DF829
:104C80005E208DF848300DF15F0717AEB81BB9F103
:104C9000000F3FF431AF01302EE7192B8BBF6E238D
:104CA0004E23612141211A46E1E70026A7E601389B
:104CB00049185241002AFADACDE90C12B5E6490842
:104CC00041EAC2715208B2F1333F404608F101088F
:104CD000F5D20CFB02FEA1FB0C1200F1020872449B
:104CE000013E012018F1020FE9DB08B1CDE90C12F9
:104CF000B8F1000FDDE90C212DDCC8F10400A0F1B2
:104D0000200C08F11C08C24001FA08F821FA0CFC3A
:104D1000C1400BF0DF0042EA0802472842EA0C02D9
:104D20003AD1F01C01DBB7422BDAABF10203002FC2
:104D30005FFA83FB7DDD9DF84800830607F1FF37AE
:104D400077D43B1E18BF0123059307F101082DE01E
:104D50004FF000086FE6023241F100010CA8CDE9E6
:104D60000C214FF0BEF8DDE90C2108F1FF380136C7
:104D700092184941002908F1FF38F9DACDE90C21F0
:104D8000B6E79DF848309806A7EB06074FD43B1EC0
:104D900018BF0123059304E00023BBF1660F0593C0
:104DA000D3D117EB06084FF0660B44D4B8F1100FBF
:104DB000A8BF4FF010089FEDB27B8DED0E7B102049
:104DC0000B90DDE90E03B8F1000F37D1121841EB5B
:104DD0000301B1F1805F41D2CDE90C21079BBBF10A
:104DE000660F03F0200240F0B480002E41DC302139
:104DF0008DF85C10002A65D1002F40F3B2812E227D
:104E00008DF85D2086B17242BA42A8BF3A469DF83D
:104E10004A101392002AA7EB0207D4BF00220122F6
:104E200062F345118DF84A100DF15E0839E0002358
:104E3000B0E7002388E74FF00008BCE7400840EAED
:104E4000C3705B08CDE90E030EA8CDE9082108F177
:104E5000FF384FF046F8DDE90821B2E7520842EA90
:104E6000C1720CA84908CDE90C2101364FF039F880
:104E7000B4E70DF15C080B99002909DD0BA90CA81A
:104E800007924FF046F8013E08F8010B079AF2D15D
:104E900013969AB9002F40F362812E2108F8011B66
:104EA0000026002F17DD0B9A002A14DD0BA90CA891
:104EB0004FF02FF8013F08F8010BF2E72E2208F817
:104EC000012BEDE72E228DF85D20002EACD0002FB7
:104ED00099DC0DF15E08059B002B4ED114974746D7
:104EE0000BF0DF02452A23D1002EBABF76422D23D4
:104EF0002B23632EC8BF64217B70D1BFBA1CB6FBC5
:104F0000F1F3FA1C03F13000C8BF01FB13664FF048
:104F10000A01C8BFB87087F800B0B6FBF1F31746B6
:104F200003F1300001FB1363303307F8020B5370B9
:104F3000139B002B2CDC149B002BD4BF00230123DC
:104F40009DF84A2063F3861200238DF84A203B70B7
:104F50009BE60BA90CA807924EF0DBFF079A8DF891
:104F60005C00302818BF06F1FF3612B9002F40F35D
:104F7000F8802E228DF85D2056E7474608F1FF386D
:104F800017F8012C302AF8D02E2A08BF4746A7E789
:104F90000123D5E73C4F81467E1F0520ACE51A076B
:104FA00048BF0130B0E5104609920399D047002868
:104FB000099A05DA1FB0BDE8F08F2022DDF810B0A5
:104FC000594600290BF1FF3BEDDC049BCDF810B0F6
:104FD0002B445D1AB9F1000F05D003994846D0471C
:104FE0000028E7DB0135089B002B7DD09DF9493077
:104FF000002B28DBB3469BF80000A0F13003092BFF
:10500000D9460BF1010B46D99DF84A30AE1B9906E3
:105010004E4407D44246002A08F1FF3840DC079B83
:1050200033449E1A99F800002E280AD10399D047DC
:105030000028BFDBB8F1000F06F1010636DC09F1EC
:1050400001094D463DE0B14699F800007028C84678
:1050500009F101091AD1AE1B149D46443544AB1B1E
:10506000002B39DC03993B46424650464EF0AEFFDA
:1050700000289FDB3044049E054606446AE000BFDA
:1050800000000000000000081E0906000399D04738
:105090000028D9DA8EE70399D0470028ABDA89E7F0
:1050A00003993020D0470028B4DA83E703993020F1
:1050B000D04708F1FF38BBE70399D0470028FFF637
:1050C00079AF2878A0F13003092BA84605F1010536
:1050D000F2D9A6EB0906BFE703993020D047002894
:1050E000FFF668AF0136BAE79DF84A30DA0601D418
:1050F0001B0706D503993020D0470028FFF65AAF8A
:105100000135059B3BB103999DF84B00D047002822
:10511000FFF650AF0135A84406E003993020D04790
:105120000028FFF647AF0135A8EB0503002BF4DCA0
:1051300003993B46324650464EF048FF0028FFF6A2
:1051400039AF284497E703992020D0470028FFF67D
:1051500031AF0135731B002BF5DCFFF7DABB1646C8
:10516000B9E60DF15D08B6E62DE9F04706468AB0CE
:105170008846174655F0DBFE4FF47A73A0FB0345D3
:1051800003FB0155E40BB8F1010F44EA45444FEA33
:10519000D53508D1CDE90045294A082130464FF0E0
:1051A00054FC002011E07968264850F0A6FD78B143
:1051B0007968254850F0A1FD50B130467B68234AFC
:1051C00001214FF042FC6FF004000AB0BDE8F08707
:1051D0002046294618A3D3E90023FAF7D3FF054652
:1051E0000C46104619461A4A0023FAF7CBFF8046B0
:1051F0000F46104619464EF660220023FAF7C2FF0A
:1052000082468946104619464FF47A720023FAF70F
:10521000B9FFCDE904A9CDE90601CDE90823CDE91F
:105220000287CDE900540B4A082130464FF00DFCAF
:10523000B7E700BFAFF30080005C26050000000068
:1052400003100600141006001710060020100600B8
:1052500080EE3600371006002DE9FF471F461B7C05
:1052600004697D2B0E468046F96815460DD9C24863
:105270000268520703D0C14A01214FF0ABF96FF029
:105280007905284604B0BDE8F0879A1C84F8D0263A
:1052900004F2D1601A4650F077FD04F5D76948460C
:1052A0001FF0CAFB022E36D00AD9F31E012B4DD9AE
:1052B000B14803685C0740F09D806FF08505E0E72A
:1052C0000023ADF80D3095F84A30C3F34002C3F324
:1052D00080038DF8093001238DF80B30A84B8DF831
:1052E000082093F87C378DF80C3006F0010602A9EF
:1052F00004F5DA608DF80A6012F0F6FF00287FD11D
:105300009D480368590703D09E4A012151F0E5FAF0
:105310006FF00405B5E70023ADF80C3095F84A307E
:10532000C3F34002C3F380038DF8093001238DF8E5
:105330000A30934B8DF8082093F87C378DF80B30AA
:1053400002A904F5DA6013F001F8D7E755B98E49E0
:105350008E4840F25B224EF059FE8B4840F25B21B2
:105360004EF04BFE0023A6F1040CCDF80B3095F85F
:105370004A30DCF10006C3F3400246EB0C06C3F3EF
:1053800080038DF808208DF809308DF80A6051F0FF
:10539000C9FF01238DF80C30794B8DF80B00D5E94E
:1053A000086293F87C378DF80D30794BB3424FF09B
:1053B0000203934104F5DA6A17D3764BA6FB036127
:1053C00003FB0211AB6AF01841F100014FF47A724D
:1053D0000023FAF7D7FE55F0AAFE0B4602A90246B3
:1053E0000091504651F0C2FF88E74FF0FF306FF058
:1053F0000041EBE7684A334601214FF0EBF85CE7E8
:105400005F4BD3F874371BB13A46002140469847AA
:105410004FF0FF324FF0FF3348461FF0ADFA94F8DB
:105420007A2795F84A3062F3410385F84A3094F8B8
:105430007B27DBB262F3820385F84A3094F8503759
:10544000052B3FF665AF01A252F823F06B54000024
:10545000C9550000C35500006554000011530000F9
:10546000C35500006FF068050BE7D4F85C57002DBA
:105470003FF407AFD4F86037D4F86427134304F53A
:10548000EC6712D13C48036813F0060F03D0434A7F
:10549000022151F022FA6FF02205D4F85C0751F096
:1054A00091FF0023C4F85C37EBE62D7820680022DA
:1054B0000023CDE9002300231A46294607F0CEFC3D
:1054C000064650B92C4803685A0703D0344A0121D4
:1054D00051F003FA6FF00B05DFE7D4F85C172A46AA
:1054E000013151F02BF800280ADA234803685B07E2
:1054F00003D02C4A012151F0F0F96FF00B0530E098
:1055000094F8683786F8483094F96937AE339BB21F
:10551000FE2B28BFFE2386F84930D4F860077A684E
:105520004FF47A73A0FB030103FB0211002907DA91
:105530001D491648E9224EF069FD1B48E9210FE795
:105540000BA3D3E90023FAF71DFEC6E90801B262F6
:10555000304650F070FF2068314611F069FE28BBDC
:105560000025304650F02EFF97E700BFAFF30080D4
:1055700000CA9A3B00000000C4060020F42D06007B
:10558000001000205B2E06000A2E06001F080600F1
:10559000037DC12500CA9A3B422E06006D2E0600EF
:1055A000842E06009E2E0600BB2E060008480368C7
:1055B00003F00703022BD3D9064A032151F08DF9DA
:1055C000CEE76FF022055CE66FF00F0559E600BFED
:1055D000C4060020EC2E06002DE9F0472DED028BCD
:1055E00049A7D7E900679FED428BDFF824A182B07D
:1055F00080464FF0FF334FF0FF3208F59F601FF0F9
:1056000029F94368044643B93B493C48A9224EF076
:10561000FDFCA92138484EF0F0FC93F80090B9F158
:10562000800F06D934493548B6224EF0EFFCB6213A
:10563000F0E700231A4649468DED008BD8F80000AC
:1056400007F00CFC61684A460131054650F076FFD0
:10565000814600283BD1237C85F8483094F91130ED
:10566000AE339BB2FE2B28BFFE2385F84930A27CC7
:1056700095F84A3062F3000385F84A30A3684FF486
:105680007A72A3FB0201E36802FB0311002907DA27
:105690001B491A48E9224EF0B9FC1948E921BAE73A
:1056A00032463B46FAF76EFDC5E90801AA62D8F812
:1056B0000000294607F058F8002811DADAF800301F
:1056C0005B0704D00F4A0121504651F006F9002330
:1056D0006068636051F076FE284650F073FE88E7FC
:1056E0006068C4F8049051F06DFE82E7AFF300806B
:1056F000FFFFFFFFFFFFFFFF0A2E06001F08060047
:10570000BB2E0600102F060000CA9A3B00000000C6
:10571000C4060020000000002DE9F04F364ED6F8F8
:1057200004339A0787B00BD5D6F8043143B1334A16
:105730000023C6F80431D6F804311368013313602E
:105740002F4DDFF8C4A00024A9464FF48038D6F8C6
:10575000042308FA04F7174228D0BFF35B8F012215
:10576000A240284BD24353E8001F01EA020043E85D
:10577000000CBCF1000FF6D1BFF35B8F21FA04F2ED
:10578000D30702D45AF8242082B1204651F09EFA61
:1057900009F026FFEFF3108B72B609EB041CDCE96D
:1057A00002239042994109D28BF310880134042CD2
:1057B00005F11005CBD107B0BDE8F08FCDE904238A
:1057C0009FED0B7BD5E900130020286003938CED3F
:1057D000027B2046C6F8487351F078FA8BF31088A4
:1057E0000029E3D0039B0093DDE904238847DDE72C
:1057F000FFFFFFFFFFFFFFFF00100140704E002082
:10580000E82D0020644E00204011014000000000FF
:105810002DE9F041137886B00E46023B511C9BB235
:105820004FF0000803910591044600210020CDE9C6
:105830000088CDF80880ADF81030ADF8123007F0D0
:10584000A9FA0546002840D03F4F022CC7F8008037
:105850002ED0032C54D0012C35D1DFF8F8803B4BEF
:105860003B4E03225A70D8F8003030685B68984786
:10587000D8F8003010F0100FD3F8188030686B465D
:105880002A460CBF21460221C0470446284650F054
:1058900099FD2E4B022214F1230F5A703CD0002C9C
:1058A00047D1386834F052FD012011F06BF93EE029
:1058B000DFF8A080264CD8F8003020685B68984755
:1058C000C30506D4284650F07DFD002006B0BDE893
:1058D000F0814FF47A70A6FB000119A3D3E90023ED
:1058E000FAF7A0FC194BAA62C5E908010321597017
:1058F000D8F8003020689E692A466B46B047C4E756
:10590000124B5C70134B02461B6811489C6900687F
:105910006B464146A047B8E7042034F043FD002021
:1059200011F030F940F2F220002120F047FC012074
:10593000CCE7012034F036FD0020B6E7AFF300805D
:1059400000CA9A3B0000000010600020CB0300203A
:10595000E85F0020E45F002010B50A4A13680133B5
:1059600003F00101002B0446B8BF49420320136035
:105970000AF0B6FB21460448BDE81040072210F0AB
:10598000E1BF00BF18440020595900000B0705D59E
:1059900010F0080102D1024810F0A0BF704700BF0C
:1059A000AD5A000010B5044628B10146BDE81040CC
:1059B000064810F093BFFF21044811F013F8214668
:1059C0000320BDE810400AF08BBB00BF595900000E
:1059D000F0B52D4B2D4C83B05B8800AF002B45D12B
:1059E000402018F0CDFC236858B903F00703022BC0
:1059F00004D9274A032120464EF0E3FD0C37BD466B
:105A0000F0BD10F1230F05D113F0060FF6D0214A97
:105A10000221F0E75B0726D04442204618F0C2FB83
:105A20006D468CB06B461C49D861C3E905141B490F
:105A300079601B4919629821596203F11002381DDF
:105A400003F1270103F12B0410F8016B01F8016F3A
:105A5000A142F9D1134919610C4800234FF4615157
:105A600002F080F9AD4611F079F8C7E7236803F03A
:105A70000703022B04D90C4A032120464EF0A1FD56
:105A800018F092FCBAE700BF448B00209806002073
:105A90007206060086060600B5060600010302042B
:105AA000CC06060006000002E806060008B53AF03B
:105AB0000BF918B1BDE80840FFF78ABF0548036835
:105AC00013F0060F05D0044ABDE8084002214EF04D
:105AD00078BD08BD98060020FD060600F0B583B02D
