:10000000C0930020D177000067C60100BD770000D3
:10001000BD770000BD770000BD7700000000000044
:10002000000000000000000000000000B1790000A6
:10003000BD770000000000007D790000BD77000062
:10004000617B0000FFEB0100617B0000617B000031
:10005000617B0000617B0000617B0000617B000030
:10006000B5EB0100617B0000617B0000E9EB010062
:10007000617B0000617B0000617B0000617B000010
:10008000617B0000617B0000617B0000617B000000
:10009000617B0000617B0000617B0000617B0000F0
:1000A000617B0000617B0000617B0000617B0000E0
:1000B000617B0000617B0000617B0000617B0000D0
:1000C000617B0000617B0000617B0000617B0000C0
:1000D000617B0000617B0000617B0000617B0000B0
:1000E000617B0000617B0000617B0000617B0000A0
:1000F000617B0000617B0000617B0000617B000090
:1001000001F0FF01102A2BDB10F0070F08D010F8C8
:10011000013B013A8B422DD010F0070F42B3F6D1CC
:10012000F0B441EA012141EA014122F007047FF0E5
:1001300000070023F0E80256083C85EA010586EA3C
:10014000010685FA47F5A3FA87F586FA47F6A5FA78
:1001500087F68EB9EED1F0BC01F0FF0102F0070284
:1001600032B110F8013B013A83EA010313B1F8D12F
:100170000020704701387047002D06BF3546033810
:10018000073815F0010F07D1013015F4807F02BF49
:10019000013015F4C03F0130F0BC0138704700BF9A
:1001A0007BB972B90029BEBF00204FF0004106E0C4
:1001B00008BF00281CBF6FF000414FF0FF3000F077
:1001C00057B8ADF1080C6DE904CE002909DB002B0E
:1001D0001ADB04F0E7F8DDF804E0DDE9022304B0FF
:1001E0007047404261EB4101002B1BDB04F0DAF861
:1001F000DDF804E0DDE9022304B0404261EB410197
:10020000524263EB43037047524263EB430304F0F3
:10021000C9F8DDF804E0DDE9022304B0404261EBF7
:1002200041017047524263EB430304F0BBF8DDF831
:1002300004E0DDE9022304B0524263EB430370475C
:1002400053B94AB9002908BF00281CBF4FF0FF313D
:100250004FF0FF3000F00CB8ADF1080C6DE904CEA2
:1002600004F0A0F8DDF804E0DDE9022304B07047F3
:10027000704700BF2DE9F14F03F11C0402EB840C21
:100280004FEA930B8A68CB680868496800F046F922
:100290003CE9F0006040694072407B400BF1060E83
:1002A0004EE083EA134480EA134582EA134746BAD4
:1002B00096EA3444604000F00F1684EA063420F0D9
:1002C0000F1684EA161054BA94EA0106724002F03E
:1002D0000F1486EA043622F00F1486EA14124CBA80
:1002E0006540694001F00F1485EA043521F00F14D0
:1002F00085EA14115CBA67407B4003F00F1487EA6B
:10030000043723F00F1487EA141344BA44404DBA5B
:100310004D4056BA56405FBA5F4087EA174886EAB2
:10032000174B84EA17464FEA38488BEA1B4485EAA4
:100330001B4788EA1B4580EA3440694072407B4095
:1003400000F0703400F0803500F00F3040EA4400D7
:1003500040EAD50080EA900404F0332480EA840067
:10036000604001F0703401F0803501F00F3141EA56
:10037000440141EAD50181EA910404F0332481EA81
:100380008401614002F0703402F0803502F00F32D7
:1003900042EA440242EAD50282EA920404F033249B
:1003A00082EA8402624003F0703403F0803503F087
:1003B0000F3343EA440343EAD50383EA930404F08A
:1003C000332483EA84036340C943DB4381EA0004A6
:1003D00083EA044686EA020183EA014382EA33455E
:1003E00083EA14435C4084EA00077FEA040A8AEA4D
:1003F000024A8AEA010B87EA11488AEA374A80EA08
:10040000060181EA1A418AEA030A04EA0A00454021
:1004100088EA040707EA0B0041408AEA0B0608EA6B
:10042000060084EA34428AEA3A4602EA0603584061
:100430004540414087EA37438BEA3B4003EA0009E5
:1004400085EA090582EA0309464006EA0906714081
:1004500085EA010005EA3546464006EA314181EA6F
:10046000304181EA364606EA304686EA354634406F
:100470000F4086EA010508EA050886EA3640024090
:1004800088EA020881EA314213405C4080EA0203B4
:1004900009EA030987EA0907674088EA040806EAC7
:1004A0000A0601EA0B018AEA0B0425408AEA3A446B
:1004B000204045408BEA3B4B02EA0B02564084EA5F
:1004C0000B04234059406E40694087EA364080EA79
:1004D000384080EA060380EA104481EA134585EA41
:1004E000344585EA17427D4082EA354180EA05407D
:1004F0003CE9F0006040694072407B40BEF1010E73
:100500003FF6CFAE20BC00F05FF828606960AA60BB
:10051000EB60BDE8F08F00BF00F000BA80EA101475
:1005200004F0F01480EA0410604081EA111404F031
:10053000F01481EA0411614082EA121404F0F0140C
:1005400082EA0412624083EA131404F0F01483EA8E
:100550000413634080EA102404F47F4480EA0420FA
:10056000604081EA112404F47F4481EA042161405F
:1005700082EA122404F47F4482EA0422624083EA7D
:10058000132404F47F4483EA0423634081EA500483
:1005900004F0553480EA4400614083EA520404F0D8
:1005A000553482EA4402634082EA900404F0333412
:1005B00080EA8400624083EA910404F0333481EAE3
:1005C00084016340704700BF82EA900404F0333432
:1005D00080EA8400624083EA910404F0333481EAC3
:1005E0008401634081EA500404F0553480EA4400F9
:1005F000614083EA520404F0553482EA44026340C5
:1006000080EA102404F47F4480EA0420604081EAF8
:10061000112404F47F4481EA0421614082EA122417
:1006200004F47F4482EA0422624083EA132404F43F
:100630007F4483EA0423634080EA101404F0F0143A
:1006400080EA0410604081EA111404F0F01481EA99
:100650000411614082EA121404F0F01482EA0412D8
:10066000624083EA131404F0F01483EA0413634035
:10067000704700BF2DE9F14F94464FEA930B8A680B
:10068000CB6808684968FFF749FF0BF1060E33E0B5
:1006900083EA134480EA134582EA134746BA96EA8E
:1006A0003444604000F00F1684EA063420F00F1640
:1006B00084EA161054BA94EA0106724002F00F144C
:1006C00086EA043622F00F1486EA14124CBA65400A
:1006D000694001F00F1485EA043521F00F1485EA12
:1006E00014115CBA67407B4003F00F1487EA0437AB
:1006F00023F00F1487EA1413BCE8F000604069404F
:1007000072407B4000F0E03400F0103500F00F3014
:1007100040EA540040EAC50080EA900404F0332423
:1007200080EA8400604001F0E03401F0103501F00F
:100730000F3141EA540141EAC50181EA910404F014
:10074000332481EA8401614002F0E03402F0103584
:1007500002F00F3242EA540242EAC50282EA9204EF
:1007600004F0332482EA8402624003F0E03403F0B0
:10077000103503F00F3343EA540343EAC50383EA19
:10078000930404F0332483EA8403634081EA32470C
:1007900087EA134581EA354690EA060484EA034B6A
:1007A00082EA1B4280EA044484EA054483EA144A4C
:1007B00085EA14448BEA044B84EA374481EA0B410E
:1007C00081EA164104EA0A00454082EA04082BEA5D
:1007D000080041408AEA0B0602EA060084EA344334
:1007E0008AEA3A4603EA060778404540414088EAEB
:1007F00038478BEA3B4007EA000985EA090583EAA6
:100800000709464006EA0906714085EA010005EA43
:100810003546464006EA314181EA304181EA3646B2
:1008200006EA304686EA3546344008EA010886EA98
:1008300001052A4086EA364003405A4081EA3143A6
:100840001F407C4080EA030709EA070988EA090893
:10085000544088EA020806EA0A0601EA0B018AEA1D
:100860000B0215408AEA3A42104045408BEA3B4071
:1008700003405E404240174079404D404E40E443C3
:10088000F64386EA18435D4085EA054083EA134350
:1008900086EA034183EA384284EA114383EA044347
:1008A0005FEA3343BEF1010E3FF6F2AE1ED4BCE860
:1008B000F0006040694072407B4020BCFFF784FE3E
:1008C00028606960AA60EB60BDE8F08F2DE9E04127
:1008D0004FF2F00280EA1031114080EA01304840C6
:1008E00041088208C3084FF0000E4FE700F01130B6
:1008F00001F0113102F0113203F0113340EA4100EE
:1009000040EA820040EAC3004FF2F00280EA103170
:10091000114080EA01304840BDE8E0812DE9F04F08
:1009200002F11C050646074600EB850851F8040B4A
:10093000043A46F8040BF9D14FF0010CFFF7C6FF5B
:100940005FEA302080EA0C001ECF41404A4053400D
:100950005C401EC62000464517D04FEA4C0C1CF4E4
:10096000807F18BFACF1E50C2C2DE7D03C2D06D1D3
:10097000FFF7ACFF06CF41404A4006C6100006CF45
:1009800041404A4006C61000D8E736E90F00FFF79D
:10099000C5FD043D86E80F00F7D1BDE8F08F00BF2C
:1009A00030B44FF0000310F8014B11F8015B013A2D
:1009B00084EA050443EA0403F5D1A3F101034FEAF5
:1009C000D37030BC704700BF4FF0000310F8012B0C
:1009D000013943EA0203F9D1A3F101034FEAD370CD
:1009E000704700BF30B411F8014B12F8015B6C4046
:1009F00000F8014B013BF6D130BC7047014B1B683E
:100A00005B68184700000020014B1B68DB68184733
:100A100000000020014B1B681B69184700000020E4
:100A2000014B1B685B69184700000020014B1B68E5
:100A30009B69184700000020014B1B68DB691847C1
:100A400000000020014B1B689B6A18470000002033
:100A5000014B1B681B6B184700000020014B1B68F3
:100A6000DB6B18470000002010B4034C2468A46816
:100A7000A44610BC604700BF00000020014B18785E
:100A8000704700BFC40D0020042810B511D883B1F1
:100A900004280CBF10242824A1420AD2064C54F882
:100AA000200018B141568A42A8BF0A461A70002099
:100AB00010BD6FF01500FBE78007002030B503463E
:100AC000114890F91C209A4219DD90F924209A428D
:100AD00017DA9A1A846AA05C0C4A15569D420DD00A
:100AE0000E32002918BF01309442C0B206D129B19C
:100AF000013BDBB2012B01D80130C0B230BD0D206B
:100B0000FCE70020FAE700BF80070020384402001D
:100B100008B5054B93F91C30984203DAFFF7CEFF76
:100B2000024B1B56184608BD8007002038440200BF
:100B300010B51C4C94F82C3073B9012384F82C3078
:100B400004F0EAF848B1184BA362D823236284F872
:100B500024300823A361237710BD04F0F2F80028A5
:100B6000F1D104F0F7F80028EDD104F0BAF838B16B
:100B70000E4BA362D823236284F824300423E9E7D0
:100B800004F0B8F80028F3D104F0BDF80028EFD144
:100B900004F0CBF80028EBD140F2BB11742002F036
:100BA000A1FF00BF800700207344020046440200FA
:100BB000034610B3007888B91A79012A1ED85A79E9
:100BC000012A1BD89A680E49643A8A4216D8D86816
:100BD0000C4B98422CBF00200120704701280CD1FB
:100BE0001A79012A09D85A79012A06D8DA680449FB
:100BF000643A8A4201D89868EAE70020704700BF4B
:100C00003C8601000040420F10B5054C236813B12B
:100C1000984700232360BDE8104001F06DBE00BF7F
:100C2000B00700202DE9F8438846074680B300F05E
:100C300037F84FF0000905465FFA89F6AE420AD24E
:100C4000304600F033F890F8264009F10109002CF5
:100C5000F2D1FF2E03D16FF00B00BDE8F8833046D0
:100C600000F024F80546848480F8264080F8286047
:100C700001460A4801F0E6FF202885F827000AD03F
:100C800001232F6285F82630204688F80060E4E7CB
:100C90006FF01500E1E76FF02200DEE77F4800000B
:100CA000014B1879704700BFB4070020054B1A7933
:100CB000824283BF1B6800EB400003EB0010002062
:100CC000704700BFB407002010B510F003040A46B7
:100CD0000BD107490A71086030B102EB42021201E0
:100CE000214603F097F8204610BD6FF00D00FBE79A
:100CF000B407002043F60952C0F3080302FB03F3D4
:100D0000400A03F5807302FB00F000EB53207047AC
:100D100043F6095CC0F3080210B50CFB02F2C0F305
:100D20004E24030E43EA01230CFB04F0090E02F5E6
:100D300080724FEA411C00EB52205A01B2EB030EC5
:100D40004CEAD36C6CEB01044FEA841C4FEA8E1220
:100D5000B2EB0E024CEA9E6C6CEB040C4FEACC0C2E
:100D60004CEA527CD200D31841EB0C01DA03C903E0
:100D7000801841EA534141F1000110BD430B48F294
:100D8000376C0CFB03F34FEA134C00B5104B43F6E2
:100D9000095E0EFB1C0000FB03F35B0D0EFB03FE64
:100DA00003EB4C230EF5745C0CF1080CB0EB5C2FDC
:100DB00008D80EF5807EA0EB5E20C0B20B601070EC
:100DC0005DF804FB013300200B6010705DF804FB3C
:100DD0006F0C0100F8B5274DA94246D8264E274F83
:100DE000450F45EAC105A6FB0514C0F34F31A40B1E
:100DF00001EB054107FB1411A6FB0151890B41EAE8
:100E000004411F4C04FB110448F2376C600B0CFBCF
:100E100000F04FEA104C43F6095E1A480EFB1C45E1
:100E200005FB00F0400D0EFB00FE00EB4C200EF524
:100E3000745C0CF1080CB5EB5C2F12D80EF5807EBB
:100E4000A5EB5E2E5FFA8EFE069D85F800E00D068E
:100E500028184FEA112141F100011860596014600F
:100E6000F8BD01304FF0000EEEE796219B2002F016
:100E700039FE00BFFF7F841E83DE1B43000024F485
:100E80000080841E6F0C0100420B48F2376303FBA5
:100E900002F2120C43F6095C074B0CFB120101FB3A
:100EA0000333013B5B0D0CFB03FC5002B1EB5C2FE9
:100EB00088BF0130184470476F0C010010B5094A13
:100EC00092F80034202B03D15021022002F00AFEB8
:100ED000590102EB4313BDE81040525858680421F1
:100EE000104700BFC007002008B501B3F0B14FF0B4
:100EF000FF331A46E0FB01320E498A4203D97121C1
:100F00006D2002F0EFFD180D40EA0230C3F30F131D
:100F10004FF22441B0FBF1F203EB0040064B03FB20
:100F20001200B0FBF1F040EA0240013008BD084673
:100F3000FCE700BF3F420F00000024F4014B58883B
:100F4000704700BFFC0B002010B5EFF3108472B6A1
:100F5000064A93790133DBB293719379012B01D166
:100F600003F062FE04B962B610BD00BFFC0B0020A6
:100F700070B50C4C267866B90125A0602570FFF786
:100F8000E3FF00F04BFA30B94FF080432573C3F80C
:100F90000453002070BDA368002BFAD09847A660C8
:100FA000F7E700BFFC0B002038B5FFF7CDFF00F0DE
:100FB00035FA094C4FF0804540B103F022FE012381
:100FC0002B61042363730023A37338BD032363736E
:100FD0000123C5F80433F6E7FC0B002010B5EFF34E
:100FE000108472B60A4B9A7922B94FF496716D202B
:100FF00002F078FD9A79013AD2B29A719A791AB9C7
:10100000DB7B0BB900F0F8F904B962B610BD00BF84
:10101000FC0B002008B5054B1A7822B100221A7388
:101020001A70FFF7DBFF002008BD00BFFC0B00209B
:1010300073B51B4D2B7F63B9286A00F0030003F0E2
:101040000DFE30B1EFF3108372B66A7B1AB103B9AB
:1010500062B602B070BD01226A7303B962B64FF086
:1010600080430822C3F808234FF42073ADF80630FC
:10107000BDF80640A4B2631E9BB2ADF80630002C4A
:10108000F6D14FF080460748C6F80C4103F00BFE3E
:1010900085F82540FFF788FF0823C6F80433D8E712
:1010A000FC0B0020200C00202DE9F041384C94F876
:1010B0002630002B69D04FF08043D3F80071D3F86D
:1010C000046157B10122C3F80823237B2BB1A36825
:1010D000002525730BB19847A5604EB14FF08043B2
:1010E0000022C3F804210222C3F80823FFF7A0FF5F
:1010F0004FF080462748D6F80C8194F82550EDB281
:1011000003F0D5FD20B140F2C5116D2002F0EAFCDC
:1011100047B1637B032B05D10423637303F071FD97
:1011200001233361B8F1000F16D04FF08043002245
:10113000C3F80C21637B042B02D040F2D711E4E703
:1011400003F011FEC0B14FF080430022C3F8342CED
:1011500002236373FFF742FF4DB1002384F825306B
:10116000637B022B01D1FFF71FFFFFF737FFBDE8BD
:10117000F041084803F0AABD03F0D7FD0028E2D1F2
:1011800003F0E8FD0028DED1E2E7BDE8F08100BF12
:10119000FC0B0020200C002010B5044C206A00F04D
:1011A000030003F05BFD0028F8D010BDFC0B00200D
:1011B000F8B5054650B10278042A07D8437842B9F9
:1011C000013B1F2B02D88378212B07D96FF0150024
:1011D00076E0002BFAD18378002BF7D1814B0127E1
:1011E000C3F88070BFF34F8FBFF36F8F4FF080460F
:1011F000C3F880717C4C4FF0FF33C6F808330023EE
:10120000C6F80031C6F80431C6F80C31A371AB88BA
:10121000A38003F00EFD08B12770A771D6F80C2447
:10122000D6F80C34D20303D5DF0701D500F0F0F86F
:1012300040F2F55363802B78A9782377002222624D
:101240002174A273042B4ED8DFE803F005033B4959
:101250004B000123236203F0F3FC00284ED003F07F
:10126000F6FC236A03F00303984247D1AB79002BC5
:101270003ED1FFF791FF237C6BB12B785BB900F077
:10128000CDF8054602F0E4FC6FF00043002D00F0BD
:10129000A580C4E905034FF08043D3F80C24D3F8AC
:1012A0000C34D20303D5DB0701D500F0B1F84D4A69
:1012B00001230020607384F82630C2F88031136067
:1012C000F8BDFFF741FE4FF08043D3F80C14D3F87C
:1012D0000C24CE03F9D5D007F7D50223BAE7434B48
:1012E000B8E7434BB6E740F216316D2002F0FAFB47
:1012F0004FF080430222C3F80423BCE74FF0804341
:101300000122DA600022C3F80421226AC3F81825FA
:1013100003F0E7FC10B34FF080534FF08042D3F856
:101320004432C3F34233C2F83C3503F0DAFC10B365
:101330004FF080430122C3F84C254FF08043012237
:101340009A600222C3F80423AA79002A93D1D3F821
:10135000042391071CD440F2CD21C6E703F0CAFC58
:101360000028D8D103F0CFFC0028D4D103F0DDFC55
:101370000028D0D1D9E703F0BDFC0028D8D103F074
:10138000C2FC0028D4D103F0D0FC0028D0D1D4E78F
:10139000184A1669116941F010011161D3F804313E
:1013A00006F010060BB903F0ECFC4FF08047D7F8BD
:1013B000043183B1FFF7F0FE26B90E4A136923F01A
:1013C000100313614FF080430222C3F80823002268
:1013D000C3F804214FE703F0D2FCE8E7C4E9053085
:1013E00059E700BF00E100E0FC0B00200100020013
:1013F0000100030000ED00E04FF080420123536044
:101400000023C2F80031014A13707047230C0020FA
:10141000014B01221A707047230C00204FF08043CB
:10142000D3F8003123B9034B187800F0010070475E
:101430000120FAE7230C0020094B4FF0FF32C3F8DC
:1014400008230022C3F84025C3F84021C3F84425EF
:10145000C3F84421C3F84825C3F84821704700BFAA
:1014600000800040084B094A1B78012B16BF4FF43F
:1014700040314FF400310023C2F84813C2F808137A
:101480000BB9C2F840317047280C002000B0004072
:1014900070B5EFF3108472B6094A0A4B0025D2F8F2
:1014A0000415D2F804612EB1596801315960C2F8AF
:1014B0000451F4E75B6804B962B6C0E9001370BD7B
:1014C00000B00040280C0020094BD3F80435C01AA6
:1014D00020F07F4323F001033BB120F07F40B0F5C3
:1014E000000F8CBF0220002070470120704700BF12
:1014F00000B00040104B4FF40062C3F88020BFF3EF
:101500004F8FBFF36F8FC3F880210C4B01225A60BD
:101510009A60D3F80425002AFBD10949C3F80813BF
:101520004FF44031C3F84813C3F84021C3F84421B5
:10153000C3F80421704700BF00E100E000B00040A4
:101540000200030008B5144BD3F8042522F003026F
:10155000C3F80425D3F8082542F00302C3F8082590
:10156000102292FAA2F2B2FA82F2092A04DD0B48A2
:1015700040F2913102F0ACFAC3F810250122DA6092
:10158000074A9268C3F80022064B4FF48072C3F8F2
:1015900080211A6008BD00BF0080004099650200EC
:1015A000280C002000E100E008B50A4B4FF48072DF
:1015B000C3F88020BFF34F8FBFF36F8F0649C3F886
:1015C000802101204860FFF737FF044B08610022AB
:1015D0001A7308BD00E100E000800040280C0020E4
:1015E00010B5234C0023FF224FF0FF314FF0FF30A6
:1015F000C4E90401237062736360FFF7D5FFFFF74E
:1016000079FF1C4B4FF400621A60A1691A4A31B984
:1016100001231360184B0222C3F8042310BD174B9B
:101620001748C3F8A805C3F8AC15C3F85C294FF4F4
:101630000022C3F80425134A0521C2F840150121F0
:101640001160D2F840110029FBD04FF40021C3F8FB
:10165000081501215160D1600021C2F84011C2F883
:101660004015C3F8A815C3F8AC15C3F8AC15D1E7FD
:10167000280C002000E100E000B0004000F0014034
:101680004081004000800040014BD3E904017047D5
:10169000280C0020014BD3F80405704700B000402F
:1016A00013B56846FFF7F4FEDDE90004FFF722FBFF
:1016B000024B0021E4FB030102B010BD0080841E38
:1016C000B1F1FF3F08BFB0F1FF3F2DE9F041424CBF
:1016D00005460E463AD1414DD5F800318BB3404E08
:1016E000404BC6F80835FFF7BDFE4FF00008012358
:1016F000A36084F80D80FFF757FFFFF723FF3A4BF5
:10170000C5F80081394FC6F8A8354FF40023C6F854
:10171000AC75C6F8043503F0B1FAD5F800312BB139
:101720000123C5F800817B60FB60F4E7013041F1E3
:1017300000010223C4E904012370FF236370BDE8A4
:10174000F08103F09BFAC51C41F10006D4E9047353
:10175000B34208BFAF42F2D0214B224AC3F808255A
:10176000FFF780FE1D4A4FF4803125F07F480023AB
:10177000C2F808134046C2F84813C2F84031FFF7D8
:10178000A3FE20B140F226316C2002F0ABF9C2F882
:101790004085C2F844132378012B06D127F07F47F8
:1017A0003846FFF791FE0128FAD000230127637322
:1017B000A760FFF7F9FEFFF7C5FE094B27704FF052
:1017C0000042C3F8042504236370044BC4E90456A3
:1017D000C3F84873B3E700BF280C002000B00040F6
:1017E00000F001400000088000B10040008000408F
:1017F000032870B52D4B06D9011FC9B201292FD975
:1018000040F276310BE0D3E90441B1F1FF3F08BF6C
:10181000B4F1FF3F06D11B7B23B940F255316C2058
:1018200002F060F92249234D00F1100401238000E9
:1018300003FA04F4C5F808430B5000F1804101F5A8
:101840000041D1F84005101A022805DDC1F84025F5
:10185000C5F80443012002E00020C1F8400570BD36
:101860001C782CB15B78834202D140F27231D6E70A
:10187000114B124E22F07F458A0013444FF48034FE
:101880008C400022C6F808432846C6F848431A6030
:10189000FFF71AFE40B901F5A87146F82150C6F8C5
:1018A0000443C6F84443D5E71046D8E7280C002087
:1018B000408000400080004040B1004000B0004047
:1018C00008B520B14FF461716C2002F00BF90148AA
:1018D00008BD00BF40810040032837B508D9041F68
:1018E000E4B2012C19D940F2CA316C2002F0FAF8A6
:1018F000234900F1100201239340C1F8083300F599
:10190000A873002241F823201E4B81005A5053F83F
:1019100020300093009B03B030BD1B4D2B7893B15A
:101920006A7882420FD1194A1949C2F80815012B69
:1019300001D1FFF739FE00232B704FF0FF324FF03B
:10194000FF33C5E90423134A4FF48033A340C2F8A0
:101950000833C2F8483304F5A87352F82300FFF7A0
:10196000B3FD012818BF0C4B22B24FEA84041CBF00
:1019700000211951084B53F822300193019BCAE70B
:101980000080004040810040280C002000F0014011
:101990000000088000B0004040B1004010B50A4B84
:1019A0000446012210B1C3F8442310BDC3F84823F4
:1019B000FFF7FAFD054B4FF0FF304FF0FF31C3E961
:1019C00004011C70F1E700BF00B00040280C0020AB
:1019D0001F4A08B5D2F80433D90311D5D2F84031E3
:1019E00073B10023C2F84031D2F84005FFF76CFD17
:1019F00030B14FF48033C2F80833042001F08EFC7C
:101A0000134AD2F804339B0311D5D2F8443173B191
:101A10000023C2F84431D2F84405FFF755FD30B138
:101A20004FF40033C2F80833052001F077FC084B6F
:101A3000D3F8042132B10022C3F80421054A5368C7
:101A400001335360044B4FF40062C3F8802108BD9A
:101A500000B00040280C002000E100E038B5364C12
:101A6000637BFF2B64D0237883B10122022B227386
:101A700019D1324B4FF40022C3F8082500232370FC
:101A80004FF0FF324FF0FF33C4E904232C4BD3F85F
:101A9000042310030DD5D3F84C2152B140F20F416D
:101AA0006C2002F01FF8022360782370FFF714FF08
:101AB000ECE7D3F8042351030DD5D3F8483153B1E3
:101AC0000220FFF709FF1F4B4FF48072C3F88021FB
:101AD000022001F023FC1A4BD3F8042392030DD506
:101AE000D3F8443153B10120FFF7F6FE154B4FF404
:101AF0008072C3F88021012001F010FC104DD5F850
:101B00000433DB0316D5D5F840319BB10020FFF735
:101B1000E3FE0C4B4FF48072C3F880210020FF23BA
:101B20006373A060C5F80002BDE8384001F0F6BB61
:101B30000620F9E738BD00BF280C002000F0014066
:101B40000080004000E100E02DE9F04F97B01C4616
:101B5000CDE90212DFF8FCA28046FFF795FD4FF0B9
:101B600080420123C2F80835DAF800200F461360DE
:101B7000B949082202EB441253185558B3F80E9095
:101B8000CDF81090D3E901B201EB441C06921C7B06
:101B90005A7BDB6800920CF1080C07930646BCE800
:101BA0000F000DF1380EAEE80F009CE803008EE840
:101BB000030025F07F40FFF79DF84B4601331C449E
:101BC000A64B9842044400F237829C4200F3E48022
:101BD000002CC0F2C180FFF721FC009B012B0246C4
:101BE00008D0DAE90613B3F1FF3F08BFB1F1FF3FB8
:101BF00000F0B7800192FFF7A1F940F25633984206
:101C0000019A00F0D78040F2F553984200F0CF805F
:101C1000B0F5C67F00F0C5800023019300210320AA
:101C20000591B7F1FF3F08BFB6F1FF3F1FD0AE42AD
:101C300077EB0B03C0F08280B6EB050C67EB0B0370
:101C4000BCF5000F73F1000380F00082A5EB060CD9
:101C5000BCF1000F33460ADD0598002800F0AD8086
:101C60009AF8200000280CBF0846002000E04346F8
:101C700015F1FF39A9EB030C4BF1FF3184454B46BD
:101C800057DB002A41D00993029B0891B9EB080861
:101C900061EB03020292FFF751F940F2563C6045B6
:101CA000DDE90813029A00F0DD8040F2F55C604542
:101CB00000F0BE80B0F5C67F14BF09201620804515
:101CC00072F1000280F0BA80039A012A00F0CC8001
:101CD000059A002A73D1B7F1FF3F08BFB6F1FF3F65
:101CE0006DD0B6EB090C67EB0102BCF1050F72F188
:101CF000000080F28481BCF1010F72F1000318DA58
:101D000039463346059FB14668E0DAE90620B0F16E
:101D1000FF3F08BFB2F1FF3FB5D0DDF804C0AA1AFB
:101D20006BEB0000624570F10002ACD2009A012A10
:101D3000A9D00026304617B0BDE8F08FB5EB060CF1
:101D40006BEB0703BCF5000F73F1000380D340F287
:101D50003171702001F0C6FE04F1F45404F59024B2
:101D600039E700287FF446AF0190FFF7E7F840F22B
:101D700056339842019A00F04B8140F2F553984255
:101D800000F01D81B0F5C67F00F01F810123032004
:101D900011460192059344E704F1614404F5F70408
:101DA00019E700210D2303200193059139E7322320
:101DB000019333E71C23019330E7084658E7484670
:101DC00005930291FFF77CFC0299059B0027B1F176
:101DD000FF3F08BFB9F1FF3F00F0338123F07F40A0
:101DE0002A1A22F07F42013AB2F5000FA1D2069BD7
:101DF0005B191B1A23F07F43B3F5000F99D80291AA
:101E0000FEF778FF164B0299A4EB000898453BD3E8
:101E1000041B9C42C0F0DF80104B984530D89C4298
:101E200040F22881C4F1614404F5F704A0462CE097
:101E30003B20804572F10002FFF446AF0593009B02
:101E400002915F1E484618BF0127FFF739FC059B2A
:101E50000299BCE7480C0020C0070020FF7F841EC9
:101E60000040420F25202AE7B7F1FF3F08BFB6F137
:101E7000FF3F00F0F58039463346B1460027ADE715
:101E800008F1F45808F5902844467D4B93F8283023
:101E900023B9049B1E33A34280F2A580039B012B30
:101EA00004D001200291FFF717FD0299049B4BB16A
:101EB000A8EB0302012000230291FFF799FC02998D
:101EC000002854D00023424618460291FFF790FCA8
:101ED0000299064600284AD0009BDAF81820012B08
:101EE000DAF81C3000F08480002F44D1B3F1FF3FBA
:101EF00008BFB2F1FF3F00F098800120FFF74EFDD0
:101F00009AF82030002B40F08980049A1932A242BE
:101F100080F2A1800024A8EB020223460220FFF7F2
:101F200067FC30B1DAF800301C604FF08043C3F832
:101F30000845069B1093079B119300238DF85030A2
:101F40000A934FF0FF324FF0FF33CDE90E5BCDE93E
:101F50000C230AAD0FCD4A4C0FC40FCD0FC495E82A
:101F60000F0084E80F00304617B0BDE8F08F012065
:101F7000FFF7B2FCDDE6B3F1FF3F08BFB2F1FF3F70
:101F80000BD00091FFF72AF84FF0FF324FF0FF33EC
:101F9000CAE906230099002FB2D0019BB9EB0302D6
:101FA00061F100030520FFF723FC00285DD09AF8BB
:101FB0002030002BA9D101238AF82030A5E7322157
:101FC00001233520019105932BE60D2101231020DB
:101FD0000191059325E62A4B93F828306442A046E8
:101FE000002B7FF45BAF4FF4F261702001F07AFDBB
:101FF000B3F1FF3F08BFB2F1FF3FCCD0C1E7484685
:1020000008930291059FFFF75BFB0299089BDEE6B0
:102010001C2101231F200191059302E60520FFF7F3
:102020005BFC00238AF820306FE7FEF78DFF02F09B
:1020300025FECAE9060160E740F22141702001F067
:1020400051FD40F27C71702001F04CFD40F2357181
:10205000702001F047FD40F2BA71702001F042FD9E
:1020600040F2A361702001F03DFD40F22621702076
:1020700001F038FD40F65801702001F033FD00BF3B
:10208000C80B00202DE9F04F8F4F97F8214004EB4B
:1020900044033B4483B05E7A202E48D08B4BE5B29C
:1020A0006400002B00F08980894BDFF82892002B18
:1020B0005FD006EB451207EB420A4FEA45189AF843
:1020C0002830013BDBB2052B34D8834A12F803B029
:1020D000BBF1090F2ED0AFF30080EFF3108372B67F
:1020E0002C443C449AF829206272A27AB24204BF7E
:1020F0002022A27213B9AFF3008062B6B04473011C
:1021000007EB480809EB4616012259F803307068BE
:1021100088F828205946984797F8214004EB440353
:102120003B44E5B25E7A202E4FEA4404C1D103B0AD
:10213000BDE8F08F40F26E61702001F0D3FC62B612
:10214000B044730107EB480809EB4616012259F821
:102150000330706888F828205946984797F821403E
:1021600004EB44033B44E5B25E7A202E4FEA44047C
:10217000DDD006EB451207EB420A4FEA45189AF804
:102180002830013BDBB2052BD4D8534A12F803B0F8
:10219000BBF1090FCED0AFF30080EFF3108372B61E
:1021A0002C443C449AF829206272A27A964204BFD9
:1021B0002022A272002BC3D1C1E7454BDFF818B132
:1021C000DFF810A14FF02009002B51D006EB45128B
:1021D00007EB42024FEA451892F82830013BDBB288
:1021E000052BA7D81BF803100929A3D0EFF3108300
:1021F00072B62C443C4492F829206272A27A96422C
:1022000008BF84F80A90002B54D0B04407EB48086C
:1022100073010AEB461601225AF80330706888F8F9
:102220002820984797F8214004EB44033B44E5B24B
:102230005E7A202E4FEA4404C8D178E762B6B044F3
:10224000730107EB48080AEB461601225AF80330DF
:10225000706888F82820984797F8214004EB4403D9
:102260003B44E5B25E7A202E4FEA44043FF45FAF70
:1022700006EB451207EB42024FEA451892F8283068
:10228000013BDBB2052B3FF655AF1BF803100929C4
:102290003FF450AFEFF3108372B62C443C4492F8F5
:1022A00029206272A27A964208BF84F80A90002B15
:1022B000C5D1C3E70191AFF3008062B6B044019984
:1022C00007EB4808A4E700BF480C0020000000000E
:1022D00000000000C0070020A44402002DE9F04FD8
:1022E00085B00D4614461F469DF838B0FEF7CCFD6C
:1022F0002E686968031947F10002B342019372EB3B
:1023000001030292C0F0CA80DFF8A891DFF8A8812B
:102310000BEB4B034B440393DA46039B1C7A202CB4
:102320003BD040F2F5578C460FE06B7B012B02D07F
:10233000537D012B56D004EB4A1409EB440494F866
:102340002940202C29D0D5E9006C08EB44124FEA33
:10235000441B91681369D0685B1840F100009E42ED
:102360007CEB0003E1D240F2563740F2F55608EB21
:102370000B0C2968AB68DCF808006A685B1842F14E
:1023800000029842DCF80C3093411AD39CF81530C7
:10239000012B02D06B7B012B03D0012005B0BDE8DF
:1023A000F08F411A0091FEF7C9FDB84200993FD065
:1023B000B04228D0B0F5C67F14BF01230E23994246
:1023C000EBDA08EB0B032A7C197E91421FD904EB50
:1023D0004A1409EB440494F82940202CDDD04FEA3C
:1023E000441BC4E7761AFEF7A9FD40F25633984223
:1023F00020D0B84209D0B0F5C67F14BF01230E2308
:102400009E42B0DB97E73323D9E73323F8E7D3E9DC
:1024100002611C695B7DA61941F10001012B0BD003
:10242000019BB342029B8B4138D3C5E9006174E73D
:102430001D23C4E71D23E3E76B7B012BF0D0009144
:10244000FEF77CFD40F25633984200992CD040F2C2
:10245000F553984226D0B0F5C67F14BF01230E2352
:102460009C42DDDAFEF76AFD40F2563398421FD0F7
:1024700040F2F553984219D0B0F5C67F14BF01263B
:102480000E26C344DBF80830DBF80C10F618019B6D
:1024900041F10001B342029B8B41C6D2002005B03E
:1024A000BDE8F08F3323DBE71D23D9E73326E8E7C8
:1024B0001D26E6E7480C0020C00700202DE9F04764
:1024C000154692F8008092F80BC0AF7A12891C462C
:1024D00086B00023E3602361C4E9003327749DF8CC
:1024E000389084F80DC00646A3606361E28184F8E9
:1024F00011800F46B8F1000F42D1FEF709FCD5E973
:1025000004C24C4BC31841F1000E9C4572EB0E0304
:102510000AD3013E47F1FF37C4E900674FF47A73ED
:10252000A36006B0BDE8F087263041F10001844584
:1025300072EB0103EDD3288901300021844572EB51
:1025400001036AD3BCEB000062EB010104F10C0350
:10255000009303AA04ABFEF73DFC039B6A6828893D
:10256000473313441844FEF78FFCDDE90432C01AE8
:1025700020F07F40C4E90032A06006B0BDE8F087DB
:102580002D4804A9801A04F10C02FEF7F7FB2B4B2F
:102590001B78202B24D02A490B69D1E9052105336A
:1025A00042F1000A13EB01084AF1000A6B68227B32
:1025B000E089473310441844C4E9008AFEF764FCFC
:1025C0003246A0603B462869CDF800902146FFF7CF
:1025D00085FE0028A5D1C4E9006706B0BDE8F087F4
:1025E000637B16F1090847F1000A012BDED0FEF7E4
:1025F00015FF0028DAD1FEF7A1FC40F256339842CD
:102600000ED040F2F55398420FD0B0F5C67FCDD131
:1026100016F1160847F1000AC8E74046414695E71B
:1026200016F1250847F1000AC0E716F13B0847F10B
:10263000000ABBE70040420FFF7F841EC00B002052
:10264000C80B00202DE9F047374DDFF8E08000EBA4
:1026500040032B4406461C7A4700FFF71BF84FF057
:10266000200C4FEA461E08EB44110EEB0403D1F890
:1026700008A00A69AAEB000929F07F49B9F5000F03
:1026800005EB43030DD812EB0A02121A22F07F4227
:10269000B2F5000F05D8BCF1200F0BD12046BDE8E4
:1026A000F08793F82930202BA4461C46DBD1BCF1DF
:1026B000200FF3D0BB192B440CEB461205EB420262
:1026C00093F8088092F829201A72710144464FF05D
:1026D000040E0B1905EB430322469445204683F86C
:1026E00028E093F82940F4D1BB192B440A4493F80D
:1026F0000AE0BEF1200F5FFA8EFC18BF8C443E4406
:1027000018BF05EB4C0C05EB4202354408BF83F8BB
:1027100009804FF0200318BF8CF82980A87282F836
:1027200029302046BDE8F087480C0020C007002073
:102730002DE9F0414E4D01EB41032B440C461E7A2E
:10274000202E80464FEA410741D14A4B0BB1AFF3EF
:10275000008002F093FA95F82230202B0AD0464BE5
:10276000D3E904E210F1020C41F10003E64572EBFB
:10277000030331D3202E0AD042463346FFF7E4F953
:1027800000283FD085F822600220BDE8F081D5E91D
:102790000623B3F1FF3F08BFB2F1FF3F1FD195F809
:1027A000203043BB0420FFF797F802F075FA0020B1
:1027B000FFF7F4F829684FF08042202085F82200C6
:1027C00000230B600120C2F80835BDE8F0810846FF
:1027D000FFF738FF8642B8D00020BDE8F081FEF751
:1027E000FDFB4FF0FF334FF0FF32C5E9062395F8AC
:1027F0002030002BD6D00520FFF76EF8002385F897
:102800002030CFE73B192B4406EB441205EB420284
:1028100093F808E092F829201A72610173460420A7
:10282000CA189C4605EB4202664592F8293082F8A8
:102830002800F5D13B192B443C44987A2028C2B299
:1028400018BF5218614418BF05EB420205EB410165
:10285000254408BF83F809E04FF0200318BF82F831
:1028600029E085F80AC081F829300020BDE8F08110
:10287000480C002000000000C80B0020F8B5194AE1
:10288000194D002342F2200020214FF0FF364FF077
:10289000FF37A972288185F82130136082F828302B
:1028A000C2E90267AB73C5E906671C4685F82210CA
:1028B00085F8203005F1280202F814300134202C6C
:1028C000FAD101260948EE7301F000FA084B18709E
:1028D000084B1C7001F05AFA2860FEF781FE85F85B
:1028E0002360F8BDC80B0020480C002085200000A4
:1028F000F80B0020C00B00202DE9F04F85B002F04E
:10290000BDF9C04E0746884602F0C6F9D6E9022353
:10291000B3F1FF3F08BFB2F1FF3F05D04FF0FF32E8
:102920004FF0FF33C6E9022396F82830ABB94FF4D5
:102930000C71B069FEF7D8FA33697269B169023374
:1029400042F100025B1842F100021B1842F1000242
:102950009F4278EB020380F06181AB4C4FF0FF3077
:102960004FF0FF31FEF7ACFEE37B002B40F04581DA
:10297000A64991F800B00122BBF1200FE27300F0EC
:10298000378120220A7084F82220A373336094F8E0
:10299000213003EB430AA2445FFA83F99AF8085006
:1029A0005B009542009307D0994B03EB45102A46F4
:1029B000407E012800F0C580009BDFF858A203EBA1
:1029C0000908202DA0444FEA491708D04846FFF7D0
:1029D00039FE854203D098F80850202DF6D1BAF17F
:1029E000000F01D0AFF3008002F048F994F82230D4
:1029F000202B09D0D6E9042310F1020E41F1000C7E
:102A0000724573EB0C03E6D3202D38D02B46012200
:102A1000FFF79AF8002859D084F8225007EB0B03EF
:102A200004EB430393F82820022A1DD1009A4A445C
:102A30002244062183F82810917ACBB220291CBFAA
:102A4000DB1904EB43035F4418BF83F829B0009BF4
:102A500008BF82F809B04B44234404EB470783F8CE
:102A60000AB0202387F82930FF232374009B4B44AE
:102A70001C44637A202B5DD105B0BDE8F08FD4E90A
:102A80000623B3F1FF3F08BFB2F1FF3F07D0FEF7C7
:102A9000A5FA4FF0FF324FF0FF33C4E9062394F854
:102AA0002030002B3FD10420FEF716FF02F0F4F88F
:102AB0000020FEF773FF21684FF0804200232020A2
:102AC00084F822000B60C2F80835A7E77B1904EBF5
:102AD000430398F8080093F8293088F80830024634
:102AE00004211346BA1804EB42029D4282F82810D2
:102AF00092F82920F5D198F80A1088F80A30CAB25D
:102B000020291CBFD21904EB42023B4404EB4303CF
:102B100018BF82F829004FF0200208BF88F809008A
:102B200083F8292057E70520FEF7D6FE002384F816
:102B30002030B8E7384B187805B0BDE8F04F01F009
:102B4000E1B80978202914D0316970694F1DB16945
:102B500040F10000791840F10000019003EB4213AE
:102B6000D3E9020288420198824128BFC3E90210DA
:102B700022E701FB0531487D17F1090148F1000CFE
:102B80000128CDF804C0E9D0CDE90251FEF746FC9A
:102B9000DDE902211E4B10B19AF80850DEE7CDE9BD
:102BA0000221FEF7CBF940F25635A842029A184BA3
:102BB0000CD040F2F555A84214D0B0F5C67F039969
:102BC0000AD0009848442044057AC7E717F1250148
:102BD00048F100000190F4E717F1160148F10000F8
:102BE0000190EEE717F13B0148F100000190E8E7A2
:102BF0004FF43171702000F075FF40F2C121702058
:102C000000F070FFC80B0020480C0020C00B002013
:102C1000C007002000000000F80B0020074B084A06
:102C20001B78580102EB431308211258586890474B
:102C300040F2B621702000F055FF00BFC00B00200D
:102C4000C007002070B5134C0D460646FEF7A4FAE7
:102C500094F8213004F1280CD9B20CEB831C00232A
:102C600002E00133202B12D01CF81320D8B2002A26
:102C7000F7D103EB4111084A04EB4104590102EB7F
:102C800043135650012284F828205D6070BD184619
:102C900070BD00BF480C0020C00700201F280AD8C4
:102CA0000C4991F8213000EB431301EB430393F8F7
:102CB0002820012A01D00020704791F8213000EB34
:102CC000431301EB43034FF0000C104683F828C078
:102CD000704700BF480C002010B5094C04EB4014AD
:102CE000D4E90201FEF714F8227DE38A9B1803F170
:102CF00001034FF000025241181842EB010110BDD0
:102D0000C00700202DE9F04FB14A536891B0C3F3DA
:102D1000080303900791002B40F03D82082306939F
:102D2000079B1B78012B00F2E882DFF8A8B2BBF109
:102D3000000F04D0002140F24350AFF30080002385
:102D4000DFF894A2DFF8948204930124BBF1000F12
:102D500004D000214FF4AA60AFF3008024B9A04B47
:102D60000BB1AFF3008062B69AF821305FFA83F9B5
:102D7000CDF814904FF000038AF81030069B002B1A
:102D800040F0AB80BBF1000F04D0002140F2645052
:102D9000AFF3008001F072FF059B0093079A0AAB26
:102DA0000446FFF78BFBBBF1000F04D0002140F27B
:102DB0006C50AFF30080039B03EB49130AEB430312
:102DC0004FEA491693F82830013B012B00F2CB80E3
:102DD000DDE90A3224F07F441D1B25F07F4121F0FC
:102DE0000101002940F0D680039A09EB49035344BE
:102DF000B218997A0AEB4202042082F828002029AE
:102E00004FEA49020992CAB200F015823244039B8C
:102E10000AEB420282F829301A464FEA49034B4432
:102E2000534416440AEB46069A72202386F829304A
:102E3000002304930125BBF1000F04D0002140F2D0
:102E40007150AFF30080674B0BB1AFF30080EFF32D
:102E50001086344672B69AF81030002B7FF476AFA5
:102E6000039B0AAF08EB43140FCF08340FC497E855
:102E7000030084E80300A5B1069B002B00F0B2819B
:102E8000049B23B1584B1B78202B00F0FC819AF84F
:102E90002130DB4303F001038AF82130FF238AF855
:102EA000103026B94E4B0BB1AFF3008062B6BBF1C8
:102EB000000F04D000214FF4B560AFF30080002D67
:102EC00053D1BBF1000F04D0002140F2B450AFF356
:102ED0000080284611B0BDE8F08F059A434B551C81
:102EE00005F0010503EB821E03EB851C17B2BEE85B
:102EF0000F00ACE80F00BEE80F00ACE80F00BEE822
:102F00000F00ACE80F009EE80F00A9468CE80F0008
:102F10002EB2BBF1000F04D0002140F2DE30AFF33F
:102F20000080334B07EB470706EB4606DA19D95BFF
:102F30009278995333449A70BBF1000F0CD0002162
:102F400040F2E230AFF30080BBF1000F04D000216B
:102F500040F25A50AFF300809AF81030002B7FF403
:102F6000F5AE05950EE7002565E79AF8213003EBED
:102F7000430353445B7A202BA3D0BBF1000F04D052
:102F8000002140F2AF50AFF300801A4B187800F0E8
:102F9000B9FE96E725F07F45B5F5000F3FF624AF63
:102FA0000C99C9180C1B24F07F44B4F5000F3FF6B0
:102FB0001BAF09EB490151440C7A4FEA4901202C1F
:102FC000099100F045812021944604911A4627E09A
:102FD00000ED00E000000000480C0020C0070020C9
:102FE0000000000000000000C00B0020700C00205A
:102FF000500C0020F80B00209DF83510012903D05B
:10300000417D012900F0B18033190AEB430393F8A5
:103010002930202B00F02B81DDE90A2C04941C467A
:1030200008EB4410650187680169C368C91943F159
:10303000000E8A427CEB0E03DED213466246049FEA
:103040000C9908EB0500C918D0F808C042F100023D
:103050008C45C16871EB020275D3427D012A03D011
:103060009DF83520012A59D0049B9F4200F0EA8048
:10307000202F00F04781049B202B06EB07030AEB6F
:10308000430393F8292000F02F81049BF3180AEBE7
:10309000430393F8294083F8292022460520B318DA
:1030A0000AEB430311468F4293F8292083F8280046
:1030B000F5D1099B4B445344987A202808BF5C7291
:1030C000099B4B44C1B253441CBF89190AEB41010F
:1030D0009F72039B18BF81F82940F318F1190AEB7E
:1030E00043030AEB4101202081F8290083F82920BD
:1030F000049B834200F0B2801C4634440AEB440433
:10310000039B84F8293000230493039B1E440AEB9D
:103110004606032386F8283001258CE6ACEB030332
:103120000893FDF70BFF40F256339842089B55D0A9
:1031300040F2F55290424DD0B0F5C67F14BF012247
:103140000E229A4290DD45449DF838302A7E9A42FC
:103150004FD933190AEB4303274693F82940202C13
:103160006CD0DDE90A3265016AE7D71BFDF7E6FEA0
:1031700040F25633984233D040F2F55398422BD068
:10318000B0F5C67F14BF01220E22BA427FF73CAFD2
:10319000DDE90A3253E7103B59B2002943DB01F164
:1031A000604101F5614191F800335B090693002B02
:1031B0007FF4B6AD584B1B78202B00F0A880079BFE
:1031C0001B780693002B3FF4B0AD40F23C517020C9
:1031D00000F088FC3322B4E73322D6E71D22B0E7A3
:1031E0001D22D2E7FF238AF81030002E7FF45FAE55
:1031F00058E6099B039A4B445344B218997A0AEB58
:1032000042020420202982F82800CAB208D03244A1
:10321000039B0AEB420282F829301A46099BFEE51D
:10322000039A5A72FAE703F00F03043B13441B7E20
:103230005B090693BBE7039A5A72EEE5049B9F4233
:103240007FF419AF202B11D1099B4B4453441C7AB6
:10325000039BF3180AEB430383F82940099B039A65
:103260004B4453441A72012304934EE71C4633190E
:103270000AEB430393F82920039BF3180AEB43035B
:1032800083F8292039E705990220FFF751FA002831
:103290007FF4FDAD9AF82130039F03EB43015144C5
:1032A00007EB43128C7A0AEB42020420202C82F8AE
:1032B0002800DDB24FEA4312E0B24FEA430319D0CF
:1032C00011180AEB410181F8297039462B44534407
:1032D0000A440AEB420299722023049D82F82930A5
:1032E000002E7FF4E4ADDDE5099B4B4453441C7A8A
:1032F0001A72D2E64F723946E8E74FF4A86170209F
:1033000000F0F0FB4FF4E871702000F0EBFB40F2AE
:103310003951702000F0E6FBC00B002070B5062884
:103320000DD8DFE800F01C52040C0C740D00B14AFB
:103330004FF0804112680123C1F80835136070BD59
:10334000AD4D2B78202B00F09180AC4C5A0104EB52
:103350004313A2585868BDE8704005211047A54C9A
:10336000D4E90623B3F1FF3F08BFB2F1FF3F00F0FD
:10337000D080A34E0120FEF711FB737F012B04D0F8
:10338000FEF74CF8002800F030819B4D2B78202B65
:1033900000F09B80FF23A373D6E90223B3F1FF3F24
:1033A00008BFB2F1FF3F05D00520FEF721FA002843
:1033B00000F016812B78914A590102EB4313BDE8C6
:1033C000704052585868012110478B4D2B78202BA4
:1033D00000F0A6808A4E737F012B04D0FEF71EF802
:1033E000002800F0F380834CD4E90623B3F1FF3FBB
:1033F00008BFB2F1FF3F61D02B78804A590102EB40
:103400004313BDE870405258586800211047794C6A
:1034100094F820307BB1D4E90623B3F1FF3F08BF15
:10342000B2F1FF3F00F0A2800120FEF7B7FA0023BF
:1034300084F8203070BD704D2A78202A00F09D80DD
:103440006F4E4FF0FF324FF0FF33C6E90223A37BEC
:10345000002B00F0B6802B78684A590102EB431329
:10346000BDE870405258586806211047614890F8EE
:10347000213003EB43010144DAB20B7A202B00F038
:10348000AA8003EB421200EB420292F829400C7230
:10349000FF210174022182F82810584C58492B70E2
:1034A0000022C27381F8282004EB4312127E002A06
:1034B0007FF44CAF00F070FF2B7847E7FDF744FD39
:1034C00001F0DCFBC4E9060196E794F82130DAB29A
:1034D00003EB43032344197A20297CD001EB4212E9
:1034E00004EB420292F829001872FF232374434B25
:1034F000297003EB41110023097EE37386F828301D
:10350000022382F8283000297FF444AF00F044FF02
:1035100040E7FDF719FD01F0B1FBC4E9060128E71A
:10352000344A92F8213003EB43001044DBB2017AB5
:10353000202950D001EB431302EB430393F82940B9
:103540000472FF201074022083F828002B4B29708E
:1035500003EB41112A4E097E0023D37386F82830ED
:1035600000297FF438AF00F017FF34E7FDF7ECFCDB
:1035700001F084FBC4E9060156E794F82120D1B29A
:1035800002EB42022244107A202824D000EB4111A1
:1035900004EB410191F829601672FF222274174A48
:1035A000287002EB4010164E027EE37386F8283036
:1035B000022381F82830002A7FF443AF00F0ECFEAC
:1035C0003FE740F24361702000F08CFA40F2516115
:1035D000702000F087FA40F24721702000F082FA54
:1035E00040F22F61702000F07DFA40F229617020D6
:1035F00000F078FA480C0020C00B0020C007002023
:10360000C80B002070B5274B1A78202A86B044D00A
:10361000254CD4E90213B3F1FF3F08BFB1F1FF3FDE
:1036200036D1224D05EB42150646D5E90201FDF7DC
:103630006FFBEA8A2B7DD31803F101034FF00002E0
:1036400052419B1942F1000218180DF10B0342EB95
:103650000101009303AA04ABFDF7BCFB9DF80B200E
:10366000DDE904310F2A94BF002201229B1841F1A9
:103670000001C4E902310E4B9B7B13B9012006B057
:1036800070BDD4E902230520FEF7B2F806B070BD84
:1036900040F62F01702000F025FA40F62E01702030
:1036A00000F020FAC00B0020C80B0020C00700204B
:1036B000480C002038B5234B93F800E0BEF1200FF2
:1036C0003AD0214D95F8213095F821C003EB430302
:1036D0002B445FFA8CFC1B7A202B1FD01B4C4FEA2B
:1036E0004C1C06E0634405EB430393F82930202B80
:1036F00014D004EB4312117E8142F3D804EB4E1434
:10370000D4E9021320694018D2E9021243F1000300
:10371000814272EB030304D2002038BD4FF0FF302A
:1037200038BD0B4B081A1C68FDF7E4FA04F13203AC
:103730008342F1D8001B38BD40F66801702000F0CC
:10374000D1F900BFC00B0020480C0020C0070020AA
:10375000C80B00202DE9F04F8D4B1E7887B0202E2E
:10376000019000F010818B4F8B4D97F8213003EBC7
:1037700043033B44804628681C7A2B6903930DF170
:103780001302AB6902938946404405A9FDF7F6FA96
:10379000824BA8F132029A4261D8DFF80482059B7D
:1037A000696908EB4616B2689B1832699B182A694A
:1037B0009B1A23F07F40B0F5000F50D897F821A056
:1037C000AB61202C85F820905FFA8AFA18BF4FF081
:1037D000200B00F0CB8008EB441C9B18DCF80800A1
:1037E00041F100019842DCF80C308B414FEA44165D
:1037F0004ED39CF81530012B02D06B7F012B32D0B9
:103800000520FEF769F897F821104FF0FF324FF0CE
:10381000FF33BBF1200FC5E90223C9B240F0A480F9
:1038200001EB4101394420240B7A594A97F82110C1
:10383000127802EB411207EB420282F829302B6822
:10384000019A13442B60FF233B74202C40D0554B2E
:10385000187800F057FA002007B0BDE8F08F01207B
:1038600007B0BDE8F08FA0EB0209FDF767FB40F25F
:103870005633984220D040F2F55398421AD0B0F512
:10388000C67F14BF01230E234B45B9DD95F8209068
:103890004644337E4B4511D904EB4A1307EB4303EF
:1038A00093F82930202B17D0A346D5E904211C46D4
:1038B000AB6990E73323E7E71D23E5E7DDE9023154
:1038C0002A695B189B1A0220AB6107B0BDE8F08F34
:1038D000002007B0BDE8F08F0520FDF7FDFF4FF099
:1038E000FF324FF0FF3397F82110C5E90223C9B228
:1038F00001EB41033B4404EB411207EB420293F816
:1039000008A092F829201A724FEA410C4801534648
:103910004FF0050800EB030E07EB4E0E1A469442DB
:103920001E468EF828809EF82930F3D10CEB010E4C
:10393000BE4461449EF80A90B9F1200F5FFA89F8FD
:1039400018BF80443944024418BF07EB480807EB0E
:1039500042028E724FF0200114BF88F829A08EF821
:1039600009A082F8291060E75C46C1E70520FDF751
:10397000B3FF97F821104FF0FF324FF0FF33C5E946
:103980000223C9B24CE74FF40961702000F0AAF895
:10399000C00B0020480C0020C80B0020CE3F420F77
:1039A000C0070020F80B0020BFF34F8F0549064BDE
:1039B000CA6802F4E0621343CB60BFF34F8F00BFCD
:1039C000FDE700BF00ED00E00400FA05094B01220D
:1039D0005A604FF0FF32C3F80823074B4FF4804280
:1039E000C3F88020BFF34F8FBFF36F8FC3F88021E0
:1039F000704700BF00E0004000E100E0094B0122F9
:103A00005A604FF0FF32C3F80823074B4FF480523F
:103A1000C3F88020BFF34F8FBFF36F8FC3F88021AF
:103A2000704700BF00C0004000E100E0084B0022EA
:103A3000C3F8FC2F0122C3F8FC2F064B0222C3F867
:103A40008020BFF34F8FBFF36F8FC3F88021704783
:103A50000010004000E100E0F8B51B4E3378054649
:103A60000C4617466BBBFDF763F8184B7760002DCB
:103A700008BF1D4628463472FFF7D8FFFFF7BEFF88
:103A8000FFF7A4FFFDF794FB0546C0B9FEF7F6FE6D
:103A9000FDF782FBFDF7CCFA00F0F9FF002C0CDB00
:103AA00004F01F026409A40004F1604404F56144B9
:103AB00001239340C4F880312360012333702846EA
:103AC000F8BD4FF0FF35FAE7F00C0020AA440200E1
:103AD00008B572B6024B5B6803B19847FFF764FF05
:103AE000F00C00201FB572B6134B5D688DB9FFF75F
:103AF0005BFFB2FBF6F2DCB20133002AF9D104F12C
:103B000010036B4403F80C2C0A2234B901A8A8470F
:103B1000EDE7024600230A26EDE7631E04AEDCB2A1
:103B200056FA83F3B0FBF2F602FB1600303003F8CE
:103B30000C0C3046E9E700BFF00C0020074B93F96E
:103B40000830002B09DB5A09012103F01F0301FA99
:103B500003F34032024941F822307047F00C002054
:103B600000E100E0014B1878704700BFF00C002026
:103B70002DE9F84FDFF8C4A0314C324DDFF8C89082
:103B8000074601269AF800805FFA88F8FF238AF832
:103B90000030B8F1000F01D08AF80130EFF3108245
:103BA00072B600236660C4F80031C4F80431C4F86A
:103BB000047526603AB962B605E0D4F8043133B929
:103BC0002B69DB0620D4D4F80031002BF5D0D4F8D3
:103BD0000431002BE2D1B8F1000F13D19AF8013073
:103BE000DBB28AF8018003214FF48042C4F8081345
:103BF000C4F80481C4F80081C9F880218AF80080E3
:103C0000002BBFD1BDE8F88F4FF48043C9F8803155
:103C1000EFF3108B72B60323C4F80433D4F80031E9
:103C200013B9D4F804311BB1BBF1000FCBD1C2E7FB
:103C300001F0A5F8BBF1000FC5D1BCE7FC0C0020DA
:103C400000E0004000ED00E000E100E0FFF790BF81
:103C50001B4B4FF4805270B5C3F88020BFF34F8FD9
:103C6000BFF36F8F174D184C0021C5F80011C3F832
:103C700080212669236943F0100323610123C5F8DD
:103C8000043306F010062B60D5F80031A3B11EB93D
:103C9000236923F0100323610A4B0122D3F808059E
:103CA0005A60C3F808230022C3F80021044B4FF4E4
:103CB0008052C3F8802170BD01F061F8E4E700BFD5
:103CC00000E100E000C0004000ED00E038B50C4924
:103CD000024605200138C0B2FF2803D148216920DF
:103CE000FFF700FF01EBC0031D7905F0FF04002D75
:103CF000F0D141F8302001225C719C711A7138BDFD
:103D0000000D0020042808B503D958216920FFF7C9
:103D1000E9FE094B03EBC0000379012B01D05921C7
:103D2000F4E7437982790133DBB29A4218BF4371D9
:103D3000BDE80840FFF702BF000D002070B5124C2F
:103D400006250026013D15F0FF0500D170BD94F851
:103D5000281004EBC1031A79012A09D158799A79FC
:103D6000904205D05A79D2B29A7154F831309847BE
:103D700094F828300133DBB2042B94BF84F8283048
:103D800084F82860DEE700BF000D002008B500F0D1
:103D9000A8FF70B900F0AEFF58B900F0B4FF40B909
:103DA00000F0C3FF044A054B002808BF134618461D
:103DB00008BD024BFBE700BF00E701400C050040D7
:103DC00008B500F0B2FF08B3EFF3108072B6104AE6
:103DD0001369116941F010011161A2F5406203F00D
:103DE0001003D2F80011D2F804210A4300D040BFDA
:103DF00020BF00BF00BF00BF00BF23B9044A136942
:103E000023F01003136100B962B608BD20BFFCE7C0
:103E100000ED00E02DE9F04184075FFA81FE5FD0FC
:103E2000002A59D0034601E0002A55D003F801EBDF
:103E3000990702F1FF32F7D14EEA0E24032A44EA31
:103E400004443ED9151FAE08172D06F10106C3F331
:103E5000800147D99846002940D048F8044B771A8A
:103E600003EB810C79080CEBC101CCE900440CF1A7
:103E7000080C6145F9D127F0010C08EB8C0167456E
:103E8000CCEB8C7805EB880517D02F1F032F0C6027
:103E900013D9A5F10807032F4C600ED9A5F10C0723
:103EA000032F8C6009D9A5F11007032FCC6004D92A
:103EB000143D032D0C6188BF4C6102F0030203EB3B
:103EC00086034AB1013A83F800E005D0012A83F85D
:103ED00001E018BF83F802E0BDE8F0811546BEE7B7
:103EE0000346A9E719461546CFE700BF014B1B68FB
:103EF0001B68184744000020014B1B685B6818478B
:103F000044000020014B1B689B68184744000020B8
:103F1000014B1B681B6918474400002038B504207A
:103F20001E4CFFF7C7FB2568854228BF05460421C4
:103F30002846FFF70FFC20B1012820D040F24511A0
:103F400008E02368E068AB420DD1FFF75BFB20B9C6
:103F500040F225116B20FFF7C5FDE268236822615E
:103F60001344E36038BD05446089E5600123281AE5
:103F70002375FFF747FB60B940F22F11EAE7638929
:103F80002075E068C01AFFF73DFB10B94FF49E7131
:103F9000E0E76289E3689B1A2361E3E7300D0020C4
:103FA00008B50C4B1A7802F0FF0312B15A1E1A42E0
:103FB00003D0E0216B20FFF795FD19B1034207D133
:103FC000E521F7E723EA00039B0601D1E921F1E7A8
:103FD00008BD00BF4800002008B50D4B01221A762D
:103FE0004FF082721A621A68DA615A689A62094A54
:103FF00093F830000221117003F11801FEF782FEE0
:1040000020B94FF483716B20FFF76CFD08BD00BF32
:10401000300D00204800002070B5EFF3108572B617
:10402000264C94F831600023012E84F8313006D0FC
:10403000022E1DD0002E3BD185F3108870BD85F374
:10404000108894F8323003F0FF0123B14FF4A971C6
:104050006B20FFF747FD1420FFF7A2FF184B84F8F1
:1040600032601B78012BE9D1BDE87040FFF7B4BF87
:1040700094F8322012B940F26311E9E7104984F84C
:1040800032300B78023BDBB21E2B0ED8012202FA33
:1040900003F30C4A1342CFD144F20402134204D07A
:1040A00020230B70FEF728FCC6E740F27F11CFE714
:1040B00085F3108840F2A511CAE700BF300D00203B
:1040C000480000204100004070B5144C94F8335073
:1040D00025B14FF422716B20FFF704FD104B84F8DB
:1040E000325001261E700F4B0F484FF4C852C4E9DE
:1040F00000230E4BA360FFF7E9FD294684F8340046
:104100000B48FEF79FFD202884F8300002D140F2D2
:104110009721E0E784F8336070BD00BF300D0020C8
:1041200048000020FF3F420F194000000500B70083
:10413000A542000008B5104B93F8332022B940F295
:10414000F7216B20FFF7CEFCEFF3108172B693F8E6
:10415000312022B1012A0DD040F20731F1E70222CD
:1041600083F8312001B962B693F83400BDE8084005
:10417000FFF7C8BD0022F3E7300D00200B4B93F88A
:10418000333010B523B940F216316B20FFF7AAFC8B
:10419000EFF3108472B6064B1A78102A03D1082266
:1041A0001A70FEF7A9FB04B962B610BD300D0020ED
:1041B0004800002070B5174B1B78042B27D1164DF3
:1041C0002B7D1BB96B892868C01A70BD00F00EFDED
:1041D00010F11E0495F8300041F10006FEF77CFD59
:1041E0002B691B1841F100019C4276EB01004FF056
:1041F00000020CD2181B4FF0FF3361EB0601834223
:1042000072EB0103E1D2A7216B20FFF76BFC0020CA
:10421000DBE700BF48000020300D002038B5144C0B
:1042200094F8333023B94FF433716B20FFF75AFC05
:10423000EFF3108572B694F8313023B1022B0DD014
:1042400040F2DF21F1E7012384F8313005B962B68D
:1042500094F83400BDE83840FFF754BD054B1B7897
:104260000022042B84F83120F0D111F06FF9EDE732
:10427000300D00204800002008B5094B197810299E
:10428000CAB207D0202A05D0042A04D110221A70FD
:1042900011F06CF908BD4FF4E2716B20FFF722FCBE
:1042A0004800002070B50C46FDF7F4F9611E0629A0
:1042B0004AD8DFE801F00453532823665F00012148
:1042C0000220FFF76DFE314B314A93F8321079B17D
:1042D000042111701A68DA6000221A7593F83130DF
:1042E000022B01D011F032F9BDE87040FFF716BE85
:1042F00020231370BDE87040FEF7FEBA4FF404713E
:104300006B20FFF7EFFB214C94F83230E3B1204BE8
:104310001B78042B19D100F069FC064694F8300094
:104320000D46FEF7D9FC237D012B0BD12269121813
:1043300041F10003964275EB030303D3BDE87040DF
:10434000FFF79ABF0BF050FC70BD124B0222C3F86E
:104350008020BFF34F8FBFF36F8FF5E7012102205D
:10436000FFF71EFE094B93F8323033B1BDE87040C1
:10437000FFF732BE01212820F2E7054B01221A7017
:10438000E2E7024B1B7D012BAED1D7E7300D0020B9
:104390004800002000E100E0014B01229A777047BD
:1043A000680D00202DE9F04786468C460846089E99
:1043B000154674461946002B40F0C2808542B2FA79
:1043C00082F245D94AB1C2F1200300FA02FC2EFA6A
:1043D00003F3954043EA0C0C94404FEA154EA8B203
:1043E000BCFBFEF8230C0EFB18CC08FB00F943EADB
:1043F0000C43994528D9EB1808F1FF3704D29945A9
:1044000002D9A8F102072B44A3EB0903A4B2B3FB22
:10441000FEFC0EFB1C330CFB00F044EA0344A042FC
:1044200014D92C190CF1FF3304D2A04202D9ACF1FB
:1044300002032C44241A43EA07401EB1D44000234F
:1044400034607360BDE8F0874746DDE76346F1E717
:1044500092BB431B01214FEA154EAFB2B3FBFEFCEA
:10446000200C0EFB1C330CFB07F840EA0343984575
:1044700062D9EB180CF1FF3004D2984502D9ACF1A7
:1044800002002B44A3EB0803A4B2B3FBFEFC0EFB1B
:104490001C330CFB07F744EA0344A7424ED92C19FE
:1044A0000CF1FF3304D2A74202D9ACF102032C4431
:1044B000E41B43EA0040C0E7C2F1200320FA03F105
:1044C000954090402EFA03F303434FEA154EAFB2E6
:1044D000B1FBFEFC0EFB1C10190C0CFB07F841EAAB
:1044E0000041884504FA02F422D969180CF1FF3022
:1044F00004D2884502D9ACF102002944A1EB08019D
:104500009BB2B1FBFEFC0EFB1C110CFB07F743EA50
:1045100001439F420ED9EB180CF1FF3104D29F42A8
:1045200002D9ACF102012B44DB1B41EA004192E7C6
:104530006046E3E76146F7E76046A3E76346B7E70F
:10454000834206D916B9002108467BE7C6E900E098
:10455000F9E7B3FA83F78FB9834201D3724508D8DC
:10456000BEEB020460EB030301209C461EB9002150
:1045700068E73846FAE7C6E9004CF8E7C7F1200CCF
:10458000BB4022FA0CF41C432EFA0CF120FA0CF377
:10459000B84001434FEA14490EFA07F5B3FBF9F8A6
:1045A0001FFA84FE09FB18300B0C08FB0EFA43EAD5
:1045B00000439A4502FA07F240D9E31808F1FF30A8
:1045C00004D29A4502D9A8F102002344A3EB0A03BE
:1045D00089B2B3FBF9F809FB183308FB0EFE41EA78
:1045E00003418E452CD9611808F1FF3304D28E4562
:1045F00002D9A8F10203214443EA0040A0FB02983B
:10460000A1EB0E014145CE46434602D306D14D45AE
:1046100004D2B9EB020E68EB04030138002EA6D0D9
:10462000B5EB0E0261EB030101FA0CFC22FA07F371
:104630004CEA0303F940C6E9003198E74046C5E774
:104640004346D9E710F8012B11F8013B012A28BF96
:104650009A42F7D0D01A7047034613F8012B002A6C
:10466000FBD1181A01387047FCF762BA801A00F3C0
:10467000070038B540B20D4659B21446FCF748FA67
:104680000023287020446B7040B238BD73B5A0F190
:104690000B040E46E1B20F29154603D94F216420C1
:1046A000FFF720FA0DF1030332460420FCF7ECF982
:1046B000034608B15821F2E704EB840404F66514BC
:1046C0009DF90300A2B201A9FCF7CEF99DF80430D0
:1046D0002B709DF805306B7002B070BD0023036035
:1046E0007047002070474FF0FF3070474FF0FF30A9
:1046F000704770477047002070474FF0FF30704799
:10470000002070470020704700230370704700228C
:10471000FFF7ACBF002070474FF0FF3070474FF0FD
:10472000FF3070474FF0FF307047C0B2704738B568
:10473000054691F827000C46FEF7B0FA18B9D321C8
:104740006A20FFF7CFF90023A38484F826300921DB
:10475000236A2846984718B103780BB1D721EFE7B1
:1047600038BD426808B5034611441A785960012AD9
:10477000A1F1500006D1FEF745FF40B9B7216A20EC
:10478000FFF7B0F9FEF73EFF08B9BC21F7E708BD17
:10479000F8B504460E4619B9012384F829303CE0E7
:1047A0000D78032DF8D8DFE805F03A0212154868B5
:1047B000C72802D800252846F8BD0421FEF7CAFF05
:1047C0000028F7D171682046FFF7CBFFF3E7FCF72D
:1047D0001BFAF0E790F82470FFB94D682846FCF703
:1047E000E7F90028D8D02978D9B9012222702B798D
:1047F0002181003B18BF0123E3726B79002B0CBFB2
:1048000002230423A372AB6860336360EB68236107
:10481000032384F8263084F82520FCF7F5F90225D7
:10482000C9E794F82630052B04D040F277116A20AE
:10483000FFF758F927702B7994F827002781003B60
:1048400018BF0123E3726B79002B0CBF02230423F2
:10485000A372EB68A96860336360D4E906325B1821
:1048600042EBE172C4E90432042384F82630214685
:10487000FEF748FA0028D0D140F27911D7E770B599
:104880000D46044620B940F291116A20FFF72AF93B
:1048900090F82860082900F2F080DFE811F0EB00C2
:1048A0000900410041007C0086009000A9009700AB
:1048B00090F82630033B012B02D94FF4CE71E4E788
:1048C000052390F8241080F82630002380F8293042
:1048D00011BBFFF746FF2378012B18D194F827006E
:1048E000FEF7FAF9C4E90601236A00213046984729
:1048F00001462046FFF74CFF022820D0002800F098
:10490000BF80012840F0BF80236A0421EEE7D4E98C
:104910000423C4E90623E7E7BDE87040FCF774B957
:1049200090F82630DA1E012A02D94FF4DD71ACE787
:1049300090F8242072B101463046FFF7F8FE002DB2
:1049400040F0A48000F054F9002800F09F8040F26D
:104950002E219AE7042B0CBF02230123022980F8A1
:104960002630036A0CD1052130469847002800F014
:104970008D800378002B00F0898040F2CF1184E70E
:104980000621304698470028D9D00378002BD6D08E
:104990004FF4EA7179E790F82630052B02D040F207
:1049A000DB1172E7036A0221A0E790F82630052B9D
:1049B00002D040F2E11168E7036A012196E790F81E
:1049C0002630052BA8D040F2E7115EE790F826309C
:1049D000052B02D04FF4F67157E7036A0A213046DF
:1049E000984701462046FFF7D3FE40F2EF114CE70F
:1049F00090F82630052B07D090F825200AB1032B1C
:104A000002D040F2F31140E794F824202AB1214665
:104A10003046BDE87040FFF78ABE94F8293073B184
:104A2000022384F8263084F82920236A082130469E
:104A3000984758B303784BB340F2FF1125E794F839
:104A4000252052B194F8270084F825302146FEF73E
:104A500059F9D8B94FF4017117E7022384F82630C9
:104A60000721236A3046984780B1037873B140F23A
:104A70000B210AE74FF4047107E74FF4057104E7CF
:104A8000236A032132E740F22521FEE670BD70B5AE
:104A9000FCF706F9002405462646E0B2854200D818
:104AA00070BDFCF703F90134868480F82660F4E7D2
:104AB000F8B504460D46FCF7F3F800270646F8B2B1
:104AC000864204D8082D0CD96FF0150008E0FCF7D9
:104AD000EDF890F826300137002BF0D04FF0FF3082
:104AE000F8BD2CB129462046BDE8F840FCF7ECB8EB
:104AF00021462046F8E738B50546FCF7D7F80146C9
:104B000088B190F824408CB990F8263073B1013BFD
:104B1000012B04D82846FFF70AFE204638BD0123A2
:104B200080F82430F9E76FF00100F7E76FF022001A
:104B3000F4E770B50D46FCF7B9F8044600284AD0F2
:104B400090F82660731E012B4BD8002D46D02846C6
:104B5000FCF72EF8002841D02A7802BB01232370ED
:104B60002B792281003B18BF0123E3726B79002B64
:104B70000CBF02230423A372AB6860336360EB684D
:104B80002361032394F8270084F826302146FEF79A
:104B9000B9F848BB4FF42B716A20FEF7A3FF022E31
:104BA0001FD1002222702B7922819B1A18BF01236A
:104BB000E3726B79934218BF0426A672EB68A9686A
:104BC00060336360D4E906325B1842EBE172C4E9FA
:104BD00004320423D6E76FF0010070BD6FF01500BA
:104BE000FBE76FF02200F8E70020F6E7FCF758BD7E
:104BF00008B50020FCF764FE0068003818BF0120EB
:104C000008BD08B500F0AFF828B14FF0804302228C
:104C1000C3F8342C08BD00F088F80028F5D100F066
:104C200099F80028F1D1F5E74FF0804301221A608E
:104C300070474FF08043D3F8080400F0010070473C
:104C40004FF08043D3F8140400F0010070474FF098
:104C50008043D3F81C0400F0030070474FF08041FC
:104C60000246D1F81804D1F8181410F4803004D09A
:104C700001F00300831A58425841704707B568464F
:104C8000FCF706FCDDE900024FF080730021E2FB37
:104C9000030103B05DF804FB08B5FCF7E3FBBDE8D6
:104CA0000840FCF7C9BB0346002018707047EFF3BB
:104CB000108272B603780121DBB2017002B962B6CC
:104CC000012B0CBF6FF0220000207047EFF3108320
:104CD00072B60022027003B962B600207047FFF777
:104CE0002DB84FF08053D3F83001A0F10F03584294
:104CF000584170474FF08053D3F83001A0F10A03B8
:104D00005842584170474FF08053D3F83001A0F11A
:104D10000E035842584170474FF08053D3F830018A
:104D2000A0F110035842584170474FF08053D3F818
:104D30003001062803D0431C5842584170470120D7
:104D400070474FF08053D3F83001A0F10D03584263
:104D5000584170474FF08053D3F83001A0F1080359
:104D600058425841704708B5FFF7C4FF30B14FF0C3
:104D70008053D3F83401B0FA80F0400908BDFFF742
:104D80001FB8FFF71DB800280CBF6FF015000020FA
:104D900070470020704707230370002070470020F1
:104DA00070470020704710B50446FFF703FAA04291
:104DB00094BF0020012010BD2DE9F04F1F7C046935
:104DC00087B098467D2FDB68039381460E461546D3
:104DD0000BD9AD4AAD483B46012117F0A5FB6FF05A
:104DE0007905284607B0BDE8F08FBB1C04F2196AAC
:104DF000039984F818363A4650461BF04CFE04F5E9
:104E0000C06B58460EF07AFF022E34D00BD9F31E39
:104E1000012B4BD99E4A9D483346012117F084FB54
:104E20006FF08505DDE70023ADF8153095F85B30B0
:104E3000C3F34002C3F380038DF8113001238DF8D2
:104E40001330944B8DF8102093F8C4368DF814303D
:104E500006F0010604A904F5C3608DF8126008F09D
:104E600061F9002866D18C4A8848012117F053FB6C
:104E70006FF00405B5E70023ADF8143095F85B300A
:104E8000C3F34002C3F380038DF8113001238DF882
:104E90001230804B8DF8102093F8C4368DF8133003
:104EA00004A904F5C36008F06FF9DAE70023CDF830
:104EB000133095F85B30C3F34002C3F380038DF8E1
:104EC0001130331F5E425E418DF810208DF8126064
:104ED00019F0B4FF01238DF814306E4B8DF81300D8
:104EE00093F8C4368DF81530D5E908026B4B834230
:104EF0004FF00203934118D3694BA0FB030103FB5E
:104F00000211AB6AC01841F100014FF47A7200231C
:104F1000FBF746F91BF0B2FB0B4604A902460091D1
:104F200004F5C36019F0AEFF9BE74FF0FF306FF060
:104F30000041EAE7574BD3F8BC361BB1424600218B
:104F4000484698474FF0FF334FF0FF3258460EF077
:104F5000AFFE3A46039851461BF09DFD94F8C226D9
:104F600095F85B3062F3410385F85B3094F8C32613
:104F7000DBB262F3820385F85B3094F89836052B38
:104F80003FF676AF01A252F823F000BFAB4F00000E
:104F90007B50000075500000A54F0000714E0000CE
:104FA000755000006FF068051BE7D4F8A456002D7B
:104FB0003FF417AF04F5D66757E90232134356D0D2
:104FC0002D78206800220023CDE9002300231A4613
:104FD000294603F051FF064670B9324A2B48012199
:104FE00017F099FA6FF00B05D4F8A40619F076FFC4
:104FF0000023C4F8A436F4E6D4F8A4162A460131F6
:1050000018F06EFE00280ADA274A2048012117F01E
:1050100082FA6FF00B05304618F0D8FBE4E794F8FD
:10502000B03686F8593094F9B136AE339BB2FE2BC8
:1050300028BFFE2386F85A3057F8080C57F804CCDE
:105040004FF47A75A0FB050105FB0C110CA3D3E905
:105050000023FBF7A5F8C6E90801B262304618F054
:1050600008FC2068314606F047FE0025D3E76FF0C4
:105070002205B9E76FF02205B3E66FF00F05B0E641
:1050800000CA9A3B00000000875B020060430200F8
:105090009D5B0200000E0020B65B0200037DC1256F
:1050A00000CA9A3BC85B0200E25B020000000000FD
:1050B0002DE9F74F0FF2D80BDBE900AB06464FF0B6
:1050C000FF384FF0FF394FF0FF324FF0FF3306F556
:1050D00088600EF097FD43681F78044600231A4647
:1050E0003946CDE90089306803F0C6FE61683A466A
:1050F0000131054618F0F4FD0746002834D1237C21
:1051000085F8593094F91130AE339BB2FE2B28BF8D
:10511000FE2385F85A30A27C95F85B3062F30003D9
:1051200085F85B30A068D4F80CE04FF47A71A0FBEE
:10513000010C01FB0EC152465B46FBF731F8C5E995
:105140000801AA62E27C95F85B3062F3C30385F83C
:105150005B303068294617F0B3FC00280DDA0A4AA4
:105160000A48012117F0D7F900236068636019F03D
:10517000B5FE284618F02AFBA5E76068676019F0BD
:10518000ADFEA0E7AFF30080FF5B020060430200CA
:1051900000CA9A3B000000002DE9F041464F474EFF
:1051A000BB883268464C474DB97947482980023B55
:1051B00013822368DB68984723682878D3F8148023
:1051C000424D06F009FD01463F48C047FB7E296875
:1051D0003D48C3F30002C3F300135B0043EA8203BC
:1051E00091F85B2022F00602134381F85B302368BC
:1051F0005B689847C00531D5786978B33F69D5F8C1
:105200000080074407F014FA3B1A002B21DB874289
:1052100000D201314FF47A7CA7FB0C0724A3D3E919
:1052200000230CFB0171FAF7BBFFC8E908012368F2
:10523000C8F828209C692A68336804212248A047BE
:10524000431D21D008B310F1230F0CBF0E200F20F7
:105250001BE0874228BF01F1FF31DBE7F97E2368BD
:1052600011F004011ED05B6817489847C1062368F7
:1052700004D59C692A6833680221DFE79B681248DD
:10528000984748B1421DDED10B20114B1870BDE884
:10529000F041042006F0EABC23682A689C69336860
:1052A0000146CBE79C692A683368C7E7AFF3008003
:1052B00000CA9A3B000000008029002020530020F3
:1052C0001C53002084630020044302002453002068
:1052D0002864002038B5044C044DAC4200D338BDDE
:1052E00054F8043B9847F8E738430200384302007B
:1052F00038B5054C256804EB850405B938BD54F86C
:105300000439013D9847F8E72C4302002DE9F04F9E
:1053100091B08407009302F004030293C2F3C20326
:1053200003F10103DDF86890039205460E460593EC
:1053300040F0BA81041D30B1072909D86FF01B0075
:1053400011B0BDE8F08F01F00706341DC6F1080664
:10535000009B4FF00008591E4FF0040A4FF0FF3336
:105360000193CDF810804746C34653460DB1009ACD
:1053700022600598002800F3E8809848009A82424D
:1053800003D397488242C0F0E080039AA4EB050E55
:1053900092074FEA9E0000F103810F2F00F2B180C7
:1053A000002D00F0058107F140020DEB020C019A7F
:1053B0000CF8200C0CF8102C049801300490E7E055
:1053C0007A285DD84B280ED8472859D829282DD8B7
:1053D000252852D054D820287AD02338D0F1000B79
:1053E0004BEB000B74E04C382E2849D8DFE800F076
:1053F0007048484848484848484848484B48484802
:10540000484848484859484B4B595959704B6D4882
:105410007048184B184848827F4B48484B487F00DB
:1054200000204FF0000B4FF0040A38E02A38C0B2D9
:10543000012202FA00F010EA0E0F49D110F0625C6E
:105440002FD110EA020B43D06046013C5444B4FB18
:10545000FAF40AFB04F4002D61D0A3EB050CA4447C
:10546000B4453FF66BAF002868D1042B47D159F8FB
:10547000043B2360043404232AE0019A013A019298
:105480004FF0000B24E011F8010C6C2834D111F816
:10549000023C00206C2B8346C5D14FF0080A5346CE
:1054A000D3E709F1070929F007090734F9E802AB46
:1054B00024F0070435B106982044B0423FF63EAFD1
:1054C000C4E900AB08344FF0000B4FF0080A534614
:1054D00011F8010F002878D0BBF1000F7FF470AFF6
:1054E0002528F5D1019B013301934FF0010B4FF0BB
:1054F000040AECE7584694E700208346A5E7082B0A
:1055000002D06FF015001BE709F1070929F0070920
:10551000F9E80223C4E9002308340823D8E768B96E
:10552000042B02D109F10409A4E7082BE9D109F100
:10553000070929F0070909F10809EDE7059A013A79
:10554000059259F8042B009210E7039A900720D592
:10555000A4EB050E4FEA9E004FF0010CBEF5007F54
:10556000CFD20F2FCDD8F5B107F140020DEB020ECF
:10557000C0B2019A0EF8200C0EF8102CBCF1000FEE
:105580003FF41AAF60F07F000EF8200C08F101081C
:105590000137C5F10802043406924FF6DA7E97E728
:1055A0004FF0000CDAE7BCF1000F01D00136EFE755
:1055B000029802360028EBD10098CDE90631FFF7BA
:1055C0004BF8DDE906310644E2E7631BB3F5806F73
:1055D00097D23DB9A6F10804E018B1E67041020087
:1055E000E0650200029A28609B082B709DF810303D
:1055F000C2B1EB7085F80280B8F1000F05D008A8A1
:105600000022C5F1010C97420ED1C5F101030DF145
:1056100020094FF0000A01930DF1300B574512D1CC
:10562000601B8DE66B70E5E710F8013B190608D5A5
:1056300004EB0C0EB64503F07F033FF67FAE04F893
:10564000013B0132DFE7B8F1000F03D099F90020E8
:10565000002A17DB029BD3B11AF80B2004F8012BA8
:105660000022019B98182044B0423FF667AE99F89B
:10567000000004F8010B0099039220461BF00BFA7E
:10568000039A14440AF1010A09F10109C6E799F8DD
:10569000002055F822300093029B45F822300098F4
:1056A000FEF7DAFF421CDCE76FF00D0048E600BFB2
:1056B0002DE9F04F95B090F802A0DDF878B0029394
:1056C000CBF3C003044616460593894641B9457895
:1056D00000780AEB800020444D4516D8A0EB040961
:1056E000E3780493BAF1000F02D01BF0010F15D13B
:1056F000049B002B39D11EB1029A49462046B0477F
:105700004D46284615B0BDE8F08F471C3846FEF7D9
:10571000A3FF0130384409F10109DDE7227863680D
:1057200000920393009B9200069204EB8301002EEB
:1057300040F0D6804D460F4601EB0A080026B845DA
:1057400022D017F8013B009154F82300FEF784FFA4
:105750001F9B0099013033B1209BB34282BF1F9B36
:1057600023F8160001360544E9E71BF0020FC2D00A
:10577000237800931F469B0006936368039304EB12
:105780008701002E44D14D46049B01EB0A071BF014
:10579000050F07EB43090BF002030CBF4FF0020AA1
:1057A0004FF0010A00934F45ABD017F8021B17F8D2
:1057B000013C54F823808D4B984502D38C4B98457F
:1057C00007D3059B93B1039816F09AF970B1023D87
:1057D000E9E7059B23B1039816F092F90028F6D16A
:1057E0001BF0010F05D1A5EB0A05DCE7009B002BA0
:1057F000D9D04046FEF730FF1F9B3BB1209BB34200
:1058000081BF1F9A431C22F8163001360544CAE7AF
:10581000BAF1000F69D01BF0040769D0D046002709
:1058200010A8524601911BF036F90199049A01EB38
:105830000A030193049B5B000893019B03EB420363
:1058400007930BF002030993079B019A934251D1EE
:1058500063781BF0020F07EB03020CBF4FEA5801FD
:1058600000211BF0010FD2B240F090801BF0040F1A
:1058700014BF404600206270A070E170029A069941
:1058800003932046B047051EFFF63BAF009B2370F5
:10589000039B6370049B029A84F802A04146E37064
:1058A00010A8B047B0F10008C0F29B80069B029A96
:1058B0000198A9EB0A01C91A089BC91AB047002828
:1058C000C0F29180A84400EB08054FF000090DF1EB
:1058D000300BB9455CD30021029A0846B04710E767
:1058E00057460CA84FF000089BE75746D0469DE767
:1058F000B8469BE7019B13F8021B019313F8015C68
:105900003A4B54F825209A4202D3394B9A421AD383
:10591000059B23B1039816F0F3F8002894D1099B56
:10592000E3B908F1500308F101020DEB030014ABD9
:1059300053FA82F208F1020800F8101C5FFA88F8A6
:1059400002F8105C80E7059B2BB1039816F0D8F89D
:1059500000287FF479AF1BF0010F08D007F1500346
:105960007A1C0DEB030707F8205CD7B26CE71BF03D
:10597000040F3FF469AF08F1500308F101020DEB89
:10598000030808F8105C5FFA82F85DE7002072E710
:1059900019F80B308DF82F3054F823A01F9BEBB172
:1059A00033F81980029A01210DF12F00B047002829
:1059B00019DB0544B8F1000F06D15046FEF74CFE46
:1059C00000F101081FFA88F8029A41465046B04794
:1059D000002808DB054409F101097AE7DDF87C803D
:1059E000E0E745468DE605468BE600BF70410200C4
:1059F000E0650200014B1860704700BF4C000020BA
:105A000030B587B00025CDE903010446009503A910
:105A10000548059500F06CF8DDE904309842B8BF00
:105A2000255407B030BD00BF4FBB0100F0B5094E93
:105A3000016802460A2700200B4601311C78355DBB
:105A40006D0701D41360F0BD07FB0043A3F13000E4
:105A5000F2E700BF3B6002002DE9F84F15469A4679
:105A6000D378224A12F803B06F2B80460F460BF012
:105A7000030B29D024D8582B0CBF10260A26DDF89A
:105A800028903246002340463946FAF7D9FB092AC6
:105A9000D4B21ED83034B045E4B277F1000709F82B
:105AA000014D01D3D14511D82B789B0605D5082E81
:105AB00015D1AB7843F00803AB704846BDE8F88FCA
:105AC00003F0F703702BD7E70826D8E780460F4688
:105AD000D7E7BBF1010F0CBF37345734DBE7102E8B
