:100000000098012061A40000A5CD03004DA40000CC
:100010004DA400004DA400004DA40000000000000D
:1000200000000000000000000000000041A60000E9
:100030004DA40000000000000DA600004DA400002B
:10004000F1A70000C1F40300F1A70000F1A7000030
:10005000F1A70000F1A70000F1A70000F1A7000040
:1000600077F40300F1A70000F1A70000ABF4030050
:10007000F1A70000F1A70000F1A70000F1A7000020
:10008000F1A70000F1A70000F1A70000F1A7000010
:10009000F1A70000F1A70000F1A70000F1A7000000
:1000A000F1A70000F1A70000F1A70000F1A70000F0
:1000B000F1A70000F1A70000F1A70000F1A70000E0
:1000C000F1A70000F1A70000F1A70000F1A70000D0
:1000D000F1A70000F1A70000F1A70000F1A70000C0
:1000E000F1A70000F1A70000F1A70000F1A70000B0
:1000F000F1A70000F1A70000F1A70000F1A70000A0
:1001000001F0FF01102A2BDB10F0070F08D010F8C8
:10011000013B013A8B422DD010F0070F42B3F6D1CC
:10012000F0B441EA012141EA014122F007047FF0E5
:1001300000070023F0E80256083C85EA010586EA3C
:10014000010685FA47F5A3FA87F586FA47F6A5FA78
:1001500087F68EB9EED1F0BC01F0FF0102F0070284
:1001600032B110F8013B013A83EA010313B1F8D12F
:100170000020704701387047002D06BF3546033810
:10018000073815F0010F07D1013015F4807F02BF49
:10019000013015F4C03F0130F0BC0138704700BF9A
:1001A0007BB972B90029BEBF00204FF0004106E0C4
:1001B00008BF00281CBF6FF000414FF0FF3000F077
:1001C00057B8ADF1080C6DE904CE002909DB002B0E
:1001D0001ADB04F01DFFDDF804E0DDE9022304B0C2
:1001E0007047404261EB4101002B1BDB04F010FF24
:1001F000DDF804E0DDE9022304B0404261EB410197
:10020000524263EB43037047524263EB430304F0F3
:10021000FFFEDDF804E0DDE9022304B0404261EBBB
:1002200041017047524263EB430304F0F1FEDDF8F5
:1002300004E0DDE9022304B0524263EB430370475C
:1002400053B94AB9002908BF00281CBF4FF0FF313D
:100250004FF0FF3000F00CB8ADF1080C6DE904CEA2
:1002600004F0D6FEDDF804E0DDE9022304B07047B7
:10027000704700BF2DE9F14F03F11C0402EB840C21
:100280004FEA930B8A68CB680868496800F046F922
:100290003CE9F0006040694072407B400BF1060E83
:1002A0004EE083EA134480EA134582EA134746BAD4
:1002B00096EA3444604000F00F1684EA063420F0D9
:1002C0000F1684EA161054BA94EA0106724002F03E
:1002D0000F1486EA043622F00F1486EA14124CBA80
:1002E0006540694001F00F1485EA043521F00F14D0
:1002F00085EA14115CBA67407B4003F00F1487EA6B
:10030000043723F00F1487EA141344BA44404DBA5B
:100310004D4056BA56405FBA5F4087EA174886EAB2
:10032000174B84EA17464FEA38488BEA1B4485EAA4
:100330001B4788EA1B4580EA3440694072407B4095
:1003400000F0703400F0803500F00F3040EA4400D7
:1003500040EAD50080EA900404F0332480EA840067
:10036000604001F0703401F0803501F00F3141EA56
:10037000440141EAD50181EA910404F0332481EA81
:100380008401614002F0703402F0803502F00F32D7
:1003900042EA440242EAD50282EA920404F033249B
:1003A00082EA8402624003F0703403F0803503F087
:1003B0000F3343EA440343EAD50383EA930404F08A
:1003C000332483EA84036340C943DB4381EA0004A6
:1003D00083EA044686EA020183EA014382EA33455E
:1003E00083EA14435C4084EA00077FEA040A8AEA4D
:1003F000024A8AEA010B87EA11488AEA374A80EA08
:10040000060181EA1A418AEA030A04EA0A00454021
:1004100088EA040707EA0B0041408AEA0B0608EA6B
:10042000060084EA34428AEA3A4602EA0603584061
:100430004540414087EA37438BEA3B4003EA0009E5
:1004400085EA090582EA0309464006EA0906714081
:1004500085EA010005EA3546464006EA314181EA6F
:10046000304181EA364606EA304686EA354634406F
:100470000F4086EA010508EA050886EA3640024090
:1004800088EA020881EA314213405C4080EA0203B4
:1004900009EA030987EA0907674088EA040806EAC7
:1004A0000A0601EA0B018AEA0B0425408AEA3A446B
:1004B000204045408BEA3B4B02EA0B02564084EA5F
:1004C0000B04234059406E40694087EA364080EA79
:1004D000384080EA060380EA104481EA134585EA41
:1004E000344585EA17427D4082EA354180EA05407D
:1004F0003CE9F0006040694072407B40BEF1010E73
:100500003FF6CFAE20BC00F05FF828606960AA60BB
:10051000EB60BDE8F08F00BF00F000BA80EA101475
:1005200004F0F01480EA0410604081EA111404F031
:10053000F01481EA0411614082EA121404F0F0140C
:1005400082EA0412624083EA131404F0F01483EA8E
:100550000413634080EA102404F47F4480EA0420FA
:10056000604081EA112404F47F4481EA042161405F
:1005700082EA122404F47F4482EA0422624083EA7D
:10058000132404F47F4483EA0423634081EA500483
:1005900004F0553480EA4400614083EA520404F0D8
:1005A000553482EA4402634082EA900404F0333412
:1005B00080EA8400624083EA910404F0333481EAE3
:1005C00084016340704700BF82EA900404F0333432
:1005D00080EA8400624083EA910404F0333481EAC3
:1005E0008401634081EA500404F0553480EA4400F9
:1005F000614083EA520404F0553482EA44026340C5
:1006000080EA102404F47F4480EA0420604081EAF8
:10061000112404F47F4481EA0421614082EA122417
:1006200004F47F4482EA0422624083EA132404F43F
:100630007F4483EA0423634080EA101404F0F0143A
:1006400080EA0410604081EA111404F0F01481EA99
:100650000411614082EA121404F0F01482EA0412D8
:10066000624083EA131404F0F01483EA0413634035
:10067000704700BF2DE9F14F94464FEA930B8A680B
:10068000CB6808684968FFF749FF0BF1060E33E0B5
:1006900083EA134480EA134582EA134746BA96EA8E
:1006A0003444604000F00F1684EA063420F00F1640
:1006B00084EA161054BA94EA0106724002F00F144C
:1006C00086EA043622F00F1486EA14124CBA65400A
:1006D000694001F00F1485EA043521F00F1485EA12
:1006E00014115CBA67407B4003F00F1487EA0437AB
:1006F00023F00F1487EA1413BCE8F000604069404F
:1007000072407B4000F0E03400F0103500F00F3014
:1007100040EA540040EAC50080EA900404F0332423
:1007200080EA8400604001F0E03401F0103501F00F
:100730000F3141EA540141EAC50181EA910404F014
:10074000332481EA8401614002F0E03402F0103584
:1007500002F00F3242EA540242EAC50282EA9204EF
:1007600004F0332482EA8402624003F0E03403F0B0
:10077000103503F00F3343EA540343EAC50383EA19
:10078000930404F0332483EA8403634081EA32470C
:1007900087EA134581EA354690EA060484EA034B6A
:1007A00082EA1B4280EA044484EA054483EA144A4C
:1007B00085EA14448BEA044B84EA374481EA0B410E
:1007C00081EA164104EA0A00454082EA04082BEA5D
:1007D000080041408AEA0B0602EA060084EA344334
:1007E0008AEA3A4603EA060778404540414088EAEB
:1007F00038478BEA3B4007EA000985EA090583EAA6
:100800000709464006EA0906714085EA010005EA43
:100810003546464006EA314181EA304181EA3646B2
:1008200006EA304686EA3546344008EA010886EA98
:1008300001052A4086EA364003405A4081EA3143A6
:100840001F407C4080EA030709EA070988EA090893
:10085000544088EA020806EA0A0601EA0B018AEA1D
:100860000B0215408AEA3A42104045408BEA3B4071
:1008700003405E404240174079404D404E40E443C3
:10088000F64386EA18435D4085EA054083EA134350
:1008900086EA034183EA384284EA114383EA044347
:1008A0005FEA3343BEF1010E3FF6F2AE1ED4BCE860
:1008B000F0006040694072407B4020BCFFF784FE3E
:1008C00028606960AA60EB60BDE8F08F2DE9E04127
:1008D0004FF2F00280EA1031114080EA01304840C6
:1008E00041088208C3084FF0000E4FE700F01130B6
:1008F00001F0113102F0113203F0113340EA4100EE
:1009000040EA820040EAC3004FF2F00280EA103170
:10091000114080EA01304840BDE8E0812DE9F04F08
:1009200002F11C050646074600EB850851F8040B4A
:10093000043A46F8040BF9D14FF0010CFFF7C6FF5B
:100940005FEA302080EA0C001ECF41404A4053400D
:100950005C401EC62000464517D04FEA4C0C1CF4E4
:10096000807F18BFACF1E50C2C2DE7D03C2D06D1D3
:10097000FFF7ACFF06CF41404A4006C6100006CF45
:1009800041404A4006C61000D8E736E90F00FFF79D
:10099000C5FD043D86E80F00F7D1BDE8F08F00BF2C
:1009A00070B491E87800B2E802105B1854EB0C04C4
:1009B000B2E802104D4156EB0C0680E87800804109
:1009C000013070BC704700BF70B491E87800B2E8A5
:1009D00002105B1A74EB0C04B2E802108D4176EB46
:1009E0000C0680E878008041404270BC704700BF30
:1009F0002DE9F00791E80017C0CAA8FB063440F8BB
:100A0000043BA9FB0615E8FB6741EAFB665140F889
:100A1000044BA9FB0743ECFB661344CAE8FB625492
:100A2000EAFB6714ECFB673440F8045BA9FB027532
:100A3000EAFB6235ECFB6245E8FB6617E9FB6637CB
:100A4000EAFB6647ECFB6657BAC0BDE8F0077047A3
:100A50002DE9F00791E8F807B2E802105B1854EBB3
:100A60000C04B2E802104D4156EB0C06B2E802103D
:100A70004F4158EB0C08B2E8021059EB01095AEB50
:100A80000C0A80E8F80780410130BDE8F0077047A4
:100A90002DE9F00791E8F807B2E802105B1A74EB51
:100AA0000C04B2E802108D4176EB0C06B2E802109D
:100AB0008F4178EB0C08B2E8021079EB01097AEB70
:100AC0000C0A80E8F80780414042BDE8F007704713
:100AD0002DE9F007524290E87800B1E8800717400E
:100AE000DB1918EA020854EB080419EA020955EB6D
:100AF00009051AEA020A56EB0A0678C090E878005F
:100B0000B1E8800717407B4118EA020854EB08045B
:100B100019EA020955EB09051AEA020A56EB0A0618
:100B200078C080410130BDE8F00770472DE9F0073B
:100B3000524290E87800B1E880071740DB1B18EAC2
:100B4000020874EB080419EA020975EB09051AEAB0
:100B5000020A76EB0A0678C090E87800B1E88007D0
:100B60001740BB4118EA020874EB080419EA0209AD
:100B700075EB09051AEA020A76EB0A0678C080418D
:100B80004042BDE8F00770472DE9F00152424FF0B6
:100B9000040890E8300091E8C000A31B1340E41A59
:100BA000F618EB1B1340ED1AFF1830C0C0C1B8F1A6
:100BB0000108EED1BDE8F001704700BF00B592E832
:100BC000DC072DE9DC07B1E8805702B4A7FB02512E
:100BD0000A95A8FB020BE7FB6310E9FB62B00B91DF
:100BE000A8FB0351EAFB6201E7FB64B5E7FB66057E
:100BF000E8FB6615CDF830B0A9FB03B6EAFB631637
:100C0000ECFB6356E8FB640BE9FB641BEAFB645BEB
:100C1000ECFB646B0D90ACFB0230059CEEFB62506C
:100C2000E9FB6460EAFB64B0E7FB6431E8FB645114
:100C3000069CE8FB6461E9FB64B1EAFB64010E9386
:100C4000A7FB0432079CE7FB6462E8FB64B2E9FBA4
:100C50006402EAFB6412049CE9FB6453EAFB6463EC
:100C6000089CE7FB64B3E8FB6403E9FB6413EAFB5D
:100C700064230F955DF8049B99E80006DDF8008079
:100C8000A9FB0854EAFB68B4DDF81080ECFB6804AB
:100C9000EEFB6814E9FB6824EAFB6834DDF80480A5
:100CA000EEFB6865E9FB68B5EAFB6805DDF81480D2
:100CB000ECFB6815EEFB6825E9FB6835EAFB684547
:100CC0000F96DDF80880AEFB0876E9FB6806EAFBC4
:100CD0006816DDF81880ECFB6826EEFB6836E9FB49
:100CE0006846EAFB6856DDF80C80ECFB68B7EEFB63
:100CF0006807E9FB6817EAFB6827DDF81C80ECFB56
:100D00006837EEFB6847E9FB6857EAFB686708B09D
:100D100000BD00BF2DE9F14F87B0FFF74FFFDDF8B1
:100D20001C8008F1200888E8FF00FFBC87E87F08E6
:100D3000BDE8F08F00B591E89857A3FB03520195E9
:100D4000A3FB0401E3FB6420E3FB67100292A3FB17
:100D50000752E3FB6802E4FB6415E3FB6805E3FB71
:100D600069250391A4FB07B6E3FB6926E3FB6A56FA
:100D7000E4FB670BE4FB682BE3FB6A5BE3FB6C6B58
:100D80000490A4FB0810E4FB6950E3FB6C60E3FBF8
:100D90006EB0E7FB6721E4FB6951E4FB6A61E3FBAA
:100DA0006EB1E4FB6E010592A7FB0832E4FB6A62B8
:100DB000E4FB6CB2E4FB6E02E7FB6E12E7FB6853E8
:100DC000E7FB6963E4FB6CB3E7FB6C03E7FB6E13C3
:100DD000E8FB6E230695A7FB0954E7FB6AB4E7FB23
:100DE0006C04E8FB6C14E8FB6E24E9FB6E34E8FB52
:100DF0006865E7FB6AB5E8FB6A05E8FB6C15E9FB8B
:100E00006C25E9FB6E35EAFB6E450796A8FB097673
:100E1000E8FB6A06E9FB6A16E9FB6C26EAFB6C361E
:100E2000EAFB6E46ECFB6E56E8FB69B7E9FB690727
:100E3000E9FB6A17EAFB6A27EAFB6C37ECFB6C47B5
:100E4000ECFB6E57EEFB6E6700BD00BF2DE9F14F66
:100E500087B0FFF76FFFDDF81C8008F1200888E8F5
:100E6000FF00FFBC87E87F08BDE8F08F30B44FF08B
:100E7000000310F8014B11F8015B013A84EA050404
:100E800043EA0403F5D1A3F101034FEAD37030BC68
:100E9000704700BF4FF0000310F8012B013943EAFF
:100EA0000203F9D1A3F101034FEAD370704700BFE9
:100EB00030B411F8014B12F8015B6C4000F8014BA3
:100EC000013BF6D130BC70472DE9F00791E8F807F7
:100ED000B2E802105B1854EB0C04B2E802104D416A
:100EE00056EB0C06B2E802104F4158EB0C08B2E882
:100EF000021059EB01095AEB0C0A8941B3F1FF3397
:100F000074F1FF3475F1FF3576F1000677F10007D3
:100F100078F1000879F101097AF1FF3A51F1000105
:100F20005B184C414D4156F1000657F1000758F14E
:100F3000000859EBD1795AEB010A80E8F807BDE8BF
:100F4000F00770472DE9F00791E8F807B2E80210C2
:100F50005B1A74EB0C04B2E802108D4176EB0C06C0
:100F6000B2E802108F4178EB0C08B2E8021079EB7E
:100F700001097AEB0C0A89415B184C414D4156F14D
:100F8000000657F1000758F1000859EBD1795AEBE8
:100F9000010A80E8F807BDE8F007704718EB04087D
:100FA00059EB05095AEB060A5BEB070B5FF0000CE7
:100FB0004CF1000C18EB050859EB06095AEB070A2F
:100FC0005BEB070B50EB0C005FF0000C51EB0C01DE
:100FD00052EB0C0263414CF1000CB8EB070879F1BD
:100FE00000097AF1000A7BEB040BA841B141A24150
:100FF000B3416CF1000CBBEB050BB041B941AA4108
:10100000BB416CF1000C4CF001068CF0020718EBB0
:10101000060859EB6C095AEB6C0A7BEB6C0B70EB16
:101020006C0471EB6C0572EB670653EB6C076CEBB1
:101030006C0C18EB0C0059EB0C015AEB0C025BF139
:10104000000354F1000455F1000556EBDC7657EB34
:101050000C0770472DE9F14F87B0FFF7AFFDDDF8C2
:101060001080DDF81490DDF818A0FFF797FFBDE8B9
:10107000000FFFF793FF03B05DF8048B88E8FF00D3
:10108000BDE8F08F2DE9F14F87B0FFF753FEDDF893
:101090001080DDF81490DDF818A0FFF77FFFBDE8A1
:1010A000000FFFF77BFF03B05DF8048B88E8FF00BB
:1010B000BDE8F08F2DE9F14FF8C892E8005E19EB1A
:1010C00003095AEB040A5BEB050B5CEB060C4EEBD9
:1010D000070E91E8E001A9FB0502AAFB0543E9FB25
:1010E0006624EAFB6634A9FB0765E9FB6845B1E8BD
:1010F0000003EBFB6836ECFB6846EEFB6856ABFB87
:101100000987ECFB6957EEFB696791E80202EAFB8D
:101110006148EBFB6158ECFB6168EEFB61784FF0D6
:101120000001EAFB0951EBFB6961ECFB6971EEFB25
:1011300069814FF4A03C4FEA154949EA06495FF03E
:10114000000AE9FB0C0A4FEA164646EA0746E6FBA8
:101150006C2A4FEA174747EA0847E7FB6C3A4FEA21
:10116000184848EA0148E8FB6C4AADB25544AF085C
:1011700005F0030507EB8707C01952F1000153F191
:10118000000254F1000345F1000420BC1FC5BDE876
:10119000F08F00BF30B490E83C10511D53F10001B6
:1011A00054F1000155F100014CF100014FEA9101A9
:1011B000494201F00501521853F1000354F10004B3
:1011C00055F100054CF1000C0CF0030C80E83C10CC
:1011D00030BC70472DE9F04F90E8F00F00F140006F
:1011E0004FF0040E59E0F0B4826BC36B0468052520
:1011F000242687593C444FEA724787EAF24787EA38
:1012000092273C4442684FEAF21787EAB24787EADE
:10121000D2073C4440F8044B032D08BF6FF01B0677
:1012200087593A444FEA734787EAF34787EA932797
:101230003A4443684FEAF31787EAB34787EAD3078C
:101240003A4440F8042B87593B444FEA744787EAF5
:10125000F44787EA94273B4444684FEAF41787EA47
:10126000B44787EAD4073B4440F8043B013DC0D172
:10127000A0F13C00076A3C444FEA724787EAF24714
:1012800087EA92273C4402684FEAF21787EAB2479E
:1012900087EAD2073C44C463F0BC4FF0020288EAFC
:1012A000781C8CEAF84C0BEBBC1C8AEA090303EAB5
:1012B000080383EA0A039C4450F8043B9C4451F819
:1012C000043B9C44674444EA050B0BEA060B04EA22
:1012D00005034BEA030BE34484EAF42383EA345323
:1012E0000BEBB30B87EA771C8CEAF74C0AEBBC1CC0
:1012F00089EA080303EA070383EA09039C4450F8D8
:10130000043B9C4451F8043B9C4466444BEA040A69
:101310000AEA050A0BEA04034AEA030AE2448BEAF2
:10132000FB2383EA3B530AEBB30A86EA761C8CEA7A
:10133000F64C09EBBC1C88EA070303EA060383EAC0
:1013400008039C4450F8043B9C4451F8043B9C44E3
:1013500065444AEA0B0909EA04090AEA0B0349EA67
:101360000309E1448AEAFA2383EA3A5309EBB30911
:1013700085EA751C8CEAF54C08EBBC1C87EA060371
:1013800003EA050383EA07039C4450F8043B9C44AA
:1013900051F8043B9C44644449EA0A0808EA0B08F3
:1013A00009EA0A0348EA0308E04489EAF92383EAE0
:1013B000395308EBB30884EA741C8CEAF44C07EB4D
:1013C000BC1C86EA050303EA040383EA06039C4483
:1013D00050F8043B9C4451F8043B9C44E34448EAE5
:1013E000090707EA0A0708EA090347EA0307674407
:1013F00088EAF82383EA385307EBB3078BEA7B1CB0
:101400008CEAFB4C06EBBC1C85EA040303EA0B03E5
:1014100083EA05039C4450F8043B9C4451F8043B88
:101420009C44E24447EA080606EA090607EA08037C
:1014300046EA0306664487EAF72383EA375306EB56
:10144000B3068AEA7A1C8CEAFA4C05EBBC1C84EAE7
:101450000B0303EA0A0383EA04039C4450F8043BA9
:101460009C4451F8043B9C44E14446EA070505EAE4
:10147000080506EA070345EA0305654486EAF623FC
:1014800083EA365305EBB30589EA791C8CEAF94CFB
:1014900004EBBC1C8BEA0A0303EA090383EA0B038F
:1014A0009C4450F8043B9C4451F8043B9C44E04469
:1014B00045EA060404EA070405EA060344EA0304CD
:1014C000644485EAF52383EA355304EBB304013A17
:1014D0007FF4E5AEA0F14000BEF1010E7FF483AED3
:1014E000A0F1400C9CE80F00001949199219DB1972
:1014F000ACE80F009CE80F004044494452445B4470
:10150000ACE80F00BDE8F08F2DE9F04FB0E8FE0722
:1015100083B02DE9010790E8005F4FF00A000690C4
:101520000198DB199CEA030C18EB3C4897EA080782
:1015300013EB375393EA3C4C18EB3C6898EA375767
:1015400024189EEA040E19EB3E4990EA090014EBB8
:10155000305494EA3E4E19EB3E6999EA3050CDE999
:101560000489DDE9028949199AEA010A18EB3A4827
:1015700095EA080511EB355191EA3A4A18EB3A68B9
:1015800098EA355592199BEA020B19EB3B4996EA0A
:10159000090612EB365292EA3B4B19EB3B6999EA8A
:1015A000365613EB706393EA3B6B18EB3B4898EAB3
:1015B000706013EB305393EA3B4B5FEA3B6B18EBE5
:1015C0000B0898EA30505FEA706014EB756494EA97
:1015D0003C6C19EB3C4999EA756514EB355494EA77
:1015E0003C4C5FEA3C6C19EB0C0999EA35555FEA13
:1015F0007565CDE90289DDE9048911EB766191EA2F
:101600003E6E18EB3E4898EA766611EB365191EA49
:101610003E4E5FEA3E6E18EB0E0898EA36565FEAD9
:10162000766612EB776292EA3A6A19EB3A4999EADE
:10163000776712EB375292EA3A4A5FEA3A6A19EB55
:101640000A0999EA37575FEA7767019006980138E7
:101650007FF465AF01BC80E8005FBDE8000700E9EA
:10166000FE0703B0BDE8F08F014B1B685B681847AD
:1016700000000020014B1B68DB68184700000020B9
:10168000014B1B681B69184700000020014B1B68B9
:101690005B69184700000020014B1B689B691847D5
:1016A00000000020014B1B68DB6918470000002088
:1016B000014B1B689B6A184700000020014B1B6808
:1016C0001B6B184700000020014B1B68DB6B1847A1
:1016D0000000002010B4034C2468A468A44610BC89
:1016E000604700BF00000020014B1878704700BF22
:1016F00044100020042810B511D883B104280CBF71
:1017000010242824A1420AD2064C54F8200018B113
:1017100041568A42A8BF0A461A70002010BD6FF0D9
:101720001500FBE7000A002030B50346114890F988
:101730001C209A4219DD90F924209A4217DA9A1A4D
:10174000846AA05C0C4A15569D420DD00E320029C9
:1017500018BF01309442C0B206D129B1013BDBB2BF
:10176000012B01D80130C0B230BD0D20FCE70020B4
:10177000FAE700BF000A00203883050008B5054BD2
:1017800093F91C30984203DAFFF7CEFF024B1B5649
:10179000184608BD000A00203883050010B51C4C0F
:1017A00094F82C3073B9012384F82C3004F0EAF853
:1017B00048B1184BA362D823236284F8243008234D
:1017C000A361237710BD04F0F2F80028F1D104F0F2
:1017D000F7F80028EDD104F0BAF838B10E4BA36247
:1017E000D823236284F824300423E9E704F0B8F80E
:1017F0000028F3D104F0BDF80028EFD104F0CBF8B5
:101800000028EBD140F2BB11742002F0A1FF00BF11
:10181000000A00207383050046830500034610B3C9
:10182000007888B91A79012A1ED85A79012A1BD85A
:101830009A680E49643A8A4216D8D8680C4B984286
:101840002CBF00200120704701280CD11A79012AF1
:1018500009D85A79012A06D8DA680449643A8A42D2
:1018600001D89868EAE70020704700BF3C86010075
:101870000040420F10B5054C236813B19847002370
:101880002360BDE8104001F06DBE00BF300A0020AB
:101890002DE9F8438846074680B300F037F84FF04B
:1018A000000905465FFA89F6AE420AD2304600F0DA
:1018B00033F890F8264009F10109002CF2D1FF2EEF
:1018C00003D16FF00B00BDE8F883304600F024F838
:1018D0000546848480F8264080F8286001460A483E
:1018E00001F0E6FF202885F827000AD001232F62A7
:1018F00085F82630204688F80060E4E76FF0150090
:10190000E1E76FF02200DEE7EB540000014B1879AD
:10191000704700BF340A0020054B1A79824283BF0A
:101920001B6800EB400003EB00100020704700BF75
:10193000340A002010B510F003040A460BD1074901
:101940000A71086030B102EB42021201214603F035
:1019500097F8204610BD6FF00D00FBE7340A002019
:1019600043F60952C0F3080302FB03F3400A03F5F0
:10197000807302FB00F000EB5320704743F6095CD4
:10198000C0F3080210B50CFB02F2C0F34E24030EA4
:1019900043EA01230CFB04F0090E02F580724FEAC2
:1019A000411C00EB52205A01B2EB030E4CEAD36CFF
:1019B0006CEB01044FEA841C4FEA8E12B2EB0E026C
:1019C0004CEA9E6C6CEB040C4FEACC0C4CEA527C5B
:1019D000D200D31841EB0C01DA03C903801841EAA5
:1019E000534141F1000110BD430B48F2376C0CFB31
:1019F00003F34FEA134C00B5104B43F6095E0EFBA0
:101A00001C0000FB03F35B0D0EFB03FE03EB4C23FA
:101A10000EF5745C0CF1080CB0EB5C2F08D80EF5D9
:101A2000807EA0EB5E20C0B20B6010705DF804FBFE
:101A3000013300200B6010705DF804FB6F0C010097
:101A4000F8B5274DA94246D8264E274F450F45EAFF
:101A5000C105A6FB0514C0F34F31A40B01EB0541F2
:101A600007FB1411A6FB0151890B41EA04411F4CED
:101A700004FB110448F2376C600B0CFB00F04FEADA
:101A8000104C43F6095E1A480EFB1C4505FB00F09E
:101A9000400D0EFB00FE00EB4C200EF5745C0CF1CB
:101AA000080CB5EB5C2F12D80EF5807EA5EB5E2EF0
:101AB0005FFA8EFE069D85F800E00D0628184FEAB5
:101AC000112141F10001186059601460F8BD013026
:101AD0004FF0000EEEE796219B2002F039FE00BF8A
:101AE000FF7F841E83DE1B43000024F40080841EDD
:101AF0006F0C0100420B48F2376303FB02F2120C39
:101B000043F6095C074B0CFB120101FB0333013B5D
:101B10005B0D0CFB03FC5002B1EB5C2F88BF013066
:101B2000184470476F0C010010B5094A92F8003450
:101B3000202B03D15021022002F00AFE590102EBB2
:101B40004313BDE81040525858680421104700BFA5
:101B5000400A002008B501B3F0B14FF0FF331A4638
:101B6000E0FB01320E498A4203D971216D2002F057
:101B7000EFFD180D40EA0230C3F30F134FF224417A
:101B8000B0FBF1F203EB0040064B03FB1200B0FB8D
:101B9000F1F040EA0240013008BD0846FCE700BF12
:101BA0003F420F00000024F4014B5888704700BFEB
:101BB0007C0E002010B5EFF3108472B6064A9379BC
:101BC0000133DBB293719379012B01D103F062FEF3
:101BD00004B962B610BD00BF7C0E002070B50C4C7D
:101BE000267866B90125A0602570FFF7E3FF00F0B5
:101BF0004BFA30B94FF080432573C3F804530020EB
:101C000070BDA368002BFAD09847A660F7E700BF25
:101C10007C0E002038B5FFF7CDFF00F035FA094CF7
:101C20004FF0804540B103F022FE01232B610423D5
:101C300063730023A37338BD032363730123C5F8C3
:101C40000433F6E77C0E002010B5EFF3108472B673
:101C50000A4B9A7922B94FF496716D2002F078FD03
:101C60009A79013AD2B29A719A791AB9DB7B0BB997
:101C700000F0F8F904B962B610BD00BF7C0E002078
:101C800008B5054B1A7822B100221A731A70FFF7B3
:101C9000DBFF002008BD00BF7C0E002073B51B4D8C
:101CA0002B7F63B9286A00F0030003F00DFE30B10A
:101CB000EFF3108372B66A7B1AB103B962B602B051
:101CC00070BD01226A7303B962B64FF080430822E7
:101CD000C3F808234FF42073ADF80630BDF8064072
:101CE000A4B2631E9BB2ADF80630002CF6D14FF0C3
:101CF00080460748C6F80C4103F00BFE85F82540E6
:101D0000FFF788FF0823C6F80433D8E77C0E0020CD
:101D1000A00E00202DE9F041384C94F82630002B1D
:101D200069D04FF08043D3F80071D3F8046157B104
:101D30000122C3F80823237B2BB1A3680025257358
:101D40000BB19847A5604EB14FF080430022C3F815
:101D500004210222C3F80823FFF7A0FF4FF08046BA
:101D60002748D6F80C8194F82550EDB203F0D5FD44
:101D700020B140F2C5116D2002F0EAFC47B1637B4F
:101D8000032B05D10423637303F071FD0123336139
:101D9000B8F1000F16D04FF080430022C3F80C2199
:101DA000637B042B02D040F2D711E4E703F011FE6D
:101DB000C0B14FF080430022C3F8342C0223637378
:101DC000FFF742FF4DB1002384F82530637B022BDF
:101DD00001D1FFF71FFFFFF737FFBDE8F0410848CB
:101DE00003F0AABD03F0D7FD0028E2D103F0E8FD1F
:101DF0000028DED1E2E7BDE8F08100BF7C0E0020C4
:101E0000A00E002010B5044C206A00F0030003F07F
:101E10005BFD0028F8D010BD7C0E0020F8B505460B
:101E200050B10278042A07D8437842B9013B1F2BEE
:101E300002D88378212B07D96FF0150076E0002BAC
:101E4000FAD18378002BF7D1814B0127C3F880703A
:101E5000BFF34F8FBFF36F8F4FF08046C3F8807191
:101E60007C4C4FF0FF33C6F808330023C6F800312E
:101E7000C6F80431C6F80C31A371AB88A38003F017
:101E80000EFD08B12770A771D6F80C24D6F80C34D3
:101E9000D20303D5DF0701D500F0F0F840F2F55387
:101EA00063802B78A9782377002222622174A273A1
:101EB000042B4ED8DFE803F005033B494B00012318
:101EC000236203F0F3FC00284ED003F0F6FC236AF3
:101ED00003F00303984247D1AB79002B3ED1FFF7C3
:101EE00091FF237C6BB12B785BB900F0CDF80546F0
:101EF00002F0E4FC6FF00043002D00F0A580C4E97F
:101F000005034FF08043D3F80C24D3F80C34D203EC
:101F100003D5DB0701D500F0B1F84D4A01230020BD
:101F2000607384F82630C2F880311360F8BDFFF783
:101F300041FE4FF08043D3F80C14D3F80C24CE03A9
:101F4000F9D5D007F7D50223BAE7434BB8E7434B9F
:101F5000B6E740F216316D2002F0FAFB4FF08043F5
:101F60000222C3F80423BCE74FF080430122DA6069
:101F70000022C3F80421226AC3F8182503F0E7FC05
:101F800010B34FF080534FF08042D3F84432C3F384
:101F90004233C2F83C3503F0DAFC10B34FF0804313
:101FA0000122C3F84C254FF0804301229A6002229F
:101FB000C3F80423AA79002A93D1D3F80423910704
:101FC0001CD440F2CD21C6E703F0CAFC0028D8D1CA
:101FD00003F0CFFC0028D4D103F0DDFC0028D0D1E1
:101FE000D9E703F0BDFC0028D8D103F0C2FC0028DB
:101FF000D4D103F0D0FC0028D0D1D4E7184A166918
:10200000116941F010011161D3F8043106F0100696
:102010000BB903F0ECFC4FF08047D7F8043183B1E3
:10202000FFF7F0FE26B90E4A136923F0100313617F
:102030004FF080430222C3F808230022C3F8042192
:102040004FE703F0D2FCE8E7C4E9053059E700BFE9
:1020500000E100E07C0E002001000200010003000E
:1020600000ED00E04FF08042012353600023C2F8EE
:102070000031014A13707047A30E0020014B01226A
:102080001A707047A30E00204FF08043D3F8003140
:1020900023B9034B187800F0010070470120FAE7DC
:1020A000A30E0020094B4FF0FF32C3F80823002293
:1020B000C3F84025C3F84021C3F84425C3F84421A0
:1020C000C3F84825C3F84821704700BF008000408E
:1020D000084B094A1B78012B16BF4FF440314FF4CF
:1020E00000310023C2F84813C2F808130BB9C2F834
:1020F00040317047A80E002000B0004070B5EFF3EB
:10210000108472B6094A0A4B0025D2F80415D2F899
:1021100004612EB1596801315960C2F80451F4E7E5
:102120005B6804B962B6C0E9001370BD00B000403E
:10213000A80E0020094BD3F80435C01A20F07F43C5
:1021400023F001033BB120F07F40B0F5000F8CBFBE
:102150000220002070470120704700BF00B00040FF
:10216000104B4FF40062C3F88020BFF34F8FBFF3D2
:102170006F8FC3F880210C4B01225A609A60D3F80C
:102180000425002AFBD10949C3F808134FF4403154
:10219000C3F84813C3F84021C3F84421C3F804210D
:1021A000704700BF00E100E000B000400200030003
:1021B00008B5144BD3F8042522F00302C3F8042514
:1021C000D3F8082542F00302C3F80825102292FA3A
:1021D000A2F2B2FA82F2092A04DD0B4840F29131F0
:1021E00002F0ACFAC3F810250122DA60074A9268BF
:1021F000C3F80022064B4FF48072C3F880211A60A6
:1022000008BD00BF0080004044C10500A80E0020AA
:1022100000E100E008B50A4B4FF48072C3F880205B
:10222000BFF34F8FBFF36F8F0649C3F880210120A2
:102230004860FFF737FF044B086100221A7308BD9E
:1022400000E100E000800040A80E002010B5234C03
:102250000023FF224FF0FF314FF0FF30C4E90401AB
:10226000237062736360FFF7D5FFFFF779FF1C4BA4
:102270004FF400621A60A1691A4A31B90123136050
:10228000184B0222C3F8042310BD174B1748C3F89C
:10229000A805C3F8AC15C3F85C294FF40022C3F8B5
:1022A0000425134A0521C2F8401501211160D2F816
:1022B00040110029FBD04FF40021C3F8081501217B
:1022C0005160D1600021C2F84011C2F84015C3F836
:1022D000A815C3F8AC15C3F8AC15D1E7A80E0020BB
:1022E00000E100E000B0004000F00140408100400B
:1022F00000800040014BD3E904017047A80E002084
:10230000014BD3F80405704700B0004013B5684690
:10231000FFF7F4FEDDE90004FFF722FB024B00218A
:10232000E4FB030102B010BD0080841EB1F1FF3F49
:1023300008BFB0F1FF3F2DE9F041424C05460E4683
:102340003AD1414DD5F800318BB3404E404BC6F8E1
:102350000835FFF7BDFE4FF000080123A36084F8A5
:102360000D80FFF757FFFFF723FF3A4BC5F80081B9
:10237000394FC6F8A8354FF40023C6F8AC75C6F837
:10238000043503F0B1FAD5F800312BB10123C5F8BB
:1023900000817B60FB60F4E7013041F10001022322
:1023A000C4E904012370FF236370BDE8F08103F0EA
:1023B0009BFAC51C41F10006D4E90473B34208BF7F
:1023C000AF42F2D0214B224AC3F80825FFF780FE26
:1023D0001D4A4FF4803125F07F480023C2F80813CE
:1023E0004046C2F84813C2F84031FFF7A3FE20B1BF
:1023F00040F226316C2002F0ABF9C2F84085C2F8F9
:1024000044132378012B06D127F07F473846FFF786
:1024100091FE0128FAD0002301276373A760FFF71C
:10242000F9FEFFF7C5FE094B27704FF00042C3F8D5
:10243000042504236370044BC4E90456C3F84873AD
:10244000B3E700BFA80E002000B0004000F001403C
:102450000000088000B1004000800040032870B5F3
:102460002D4B06D9011FC9B201292FD940F276316F
:102470000BE0D3E90441B1F1FF3F08BFB4F1FF3FE6
:1024800006D11B7B23B940F255316C2002F060F974
:102490002249234D00F110040123800003FA04F4C3
:1024A000C5F808430B5000F1804101F50041D1F817
:1024B0004005101A022805DDC1F84025C5F804437F
:1024C000012002E00020C1F8400570BD1C782CB14D
:1024D0005B78834202D140F27231D6E7114B124E43
:1024E00022F07F458A0013444FF480348C40002250
:1024F000C6F808432846C6F848431A60FFF71AFE94
:1025000040B901F5A87146F82150C6F80443C6F851
:102510004443D5E71046D8E7A80E0020408000408D
:102520000080004040B1004000B0004008B520B13C
:102530004FF461716C2002F00BF9014808BD00BF37
:1025400040810040032837B508D9041FE4B2012CAC
:1025500019D940F2CA316C2002F0FAF8234900F18F
:10256000100201239340C1F8083300F5A87300223C
:1025700041F823201E4B81005A5053F8203000931D
:10258000009B03B030BD1B4D2B7893B16A7882421B
:102590000FD1194A1949C2F80815012B01D1FFF7CB
:1025A00039FE00232B704FF0FF324FF0FF33C5E9A7
:1025B0000423134A4FF48033A340C2F80833C2F80F
:1025C000483304F5A87352F82300FFF7B3FD012840
:1025D00018BF0C4B22B24FEA84041CBF00211951D2
:1025E000084B53F822300193019BCAE7008000405A
:1025F00040810040A80E002000F00140000008804B
:1026000000B0004040B1004010B50A4B0446012222
:1026100010B1C3F8442310BDC3F84823FFF7FAFDF7
:10262000054B4FF0FF304FF0FF31C3E904011C7040
:10263000F1E700BF00B00040A80E00201F4A08B517
:10264000D2F80433D90311D5D2F8403173B1002345
:10265000C2F84031D2F84005FFF76CFD30B14FF4BD
:102660008033C2F80833042001F08EFC134AD2F8FC
:1026700004339B0311D5D2F8443173B10023C2F85F
:102680004431D2F84405FFF755FD30B14FF4003323
:10269000C2F80833052001F077FC084BD3F8042179
:1026A00032B10022C3F80421054A53680133536054
:1026B000044B4FF40062C3F8802108BD00B0004015
:1026C000A80E002000E100E038B5364C637BFF2BFC
:1026D00064D0237883B10122022B227319D1324BAB
:1026E0004FF40022C3F80825002323704FF0FF3277
:1026F0004FF0FF33C4E904232C4BD3F80423100319
:102700000DD5D3F84C2152B140F20F416C2002F0AC
:102710001FF8022360782370FFF714FFECE7D3F86B
:10272000042351030DD5D3F8483153B10220FFF7EC
:1027300009FF1F4B4FF48072C3F88021022001F083
:1027400023FC1A4BD3F8042392030DD5D3F844315C
:1027500053B10120FFF7F6FE154B4FF48072C3F81A
:102760008021012001F010FC104DD5F80433DB036B
:1027700016D5D5F840319BB10020FFF7E3FE0C4B96
:102780004FF48072C3F880210020FF236373A060A0
:10279000C5F80002BDE8384001F0F6BB0620F9E7B5
:1027A00038BD00BFA80E002000F0014000800040AE
:1027B00000E100E02DE9F04F97B01C46CDE9021290
:1027C000DFF8FCA28046FFF795FD4FF08042012321
:1027D000C2F80835DAF800200F461360B94908221C
:1027E00002EB441253185558B3F80E90CDF81090E0
:1027F000D3E901B201EB441C06921C7B5A7BDB68D7
:1028000000920CF1080C07930646BCE80F000DF18E
:10281000380EAEE80F009CE803008EE8030025F0B8
:102820007F40FFF79DF84B4601331C44A64B98426E
:10283000044400F237829C4200F3E480002CC0F292
:10284000C180FFF721FC009B012B024608D0DAE98A
:102850000613B3F1FF3F08BFB1F1FF3F00F0B780AF
:102860000192FFF7A1F940F256339842019A00F025
:10287000D78040F2F553984200F0CF80B0F5C67F84
:1028800000F0C58000230193002103200591B7F1DA
:10289000FF3F08BFB6F1FF3F1FD0AE4277EB0B03FF
:1028A000C0F08280B6EB050C67EB0B03BCF5000FA4
:1028B00073F1000380F00082A5EB060CBCF1000F61
:1028C00033460ADD0598002800F0AD809AF8200014
:1028D00000280CBF0846002000E0434615F1FF39F0
:1028E000A9EB030C4BF1FF3184454B4657DB002A23
:1028F00041D00993029B0891B9EB080861EB0302F0
:102900000292FFF751F940F2563C6045DDE90813A9
:10291000029A00F0DD8040F2F55C604500F0BE8078
:10292000B0F5C67F14BF09201620804572F1000261
:1029300080F0BA80039A012A00F0CC80059A002A20
:1029400073D1B7F1FF3F08BFB6F1FF3F6DD0B6EBD3
:10295000090C67EB0102BCF1050F72F1000080F277
:102960008481BCF1010F72F1000318DA3946334655
:10297000059FB14668E0DAE90620B0F1FF3F08BFE5
:10298000B2F1FF3FB5D0DDF804C0AA1A6BEB00002E
:10299000624570F10002ACD2009A012AA9D000264B
:1029A000304617B0BDE8F08FB5EB060C6BEB0703B4
:1029B000BCF5000F73F1000380D340F23171702039
:1029C00001F0C6FE04F1F45404F5902439E7002820
:1029D0007FF446AF0190FFF7E7F840F25633984294
:1029E000019A00F04B8140F2F553984200F01D81AE
:1029F000B0F5C67F00F01F8101230320114601922C
:102A0000059344E704F1614404F5F70419E7002154
:102A10000D2303200193059139E73223019333E716
:102A20001C23019330E7084658E748460593029176
:102A3000FFF77CFC0299059B0027B1F1FF3F08BF1F
:102A4000B9F1FF3F00F0338123F07F402A1A22F0D2
:102A50007F42013AB2F5000FA1D2069B5B191B1A07
:102A600023F07F43B3F5000F99D80291FEF778FF6A
:102A7000164B0299A4EB000898453BD3041B9C42DB
:102A8000C0F0DF80104B984530D89C4240F228813E
:102A9000C4F1614404F5F704A0462CE03B208045D6
:102AA00072F10002FFF446AF0593009B02915F1E96
:102AB000484618BF0127FFF739FC059B0299BCE780
:102AC000C80E0020400A0020FF7F841E0040420FF5
:102AD00025202AE7B7F1FF3F08BFB6F1FF3F00F01E
:102AE000F58039463346B1460027ADE708F1F45882
:102AF00008F5902844467D4B93F8283023B9049B71
:102B00001E33A34280F2A580039B012B04D0012039
:102B10000291FFF717FD0299049B4BB1A8EB03024A
:102B2000012000230291FFF799FC0299002854D05C
:102B30000023424618460291FFF790FC0299064690
:102B400000284AD0009BDAF81820012BDAF81C3054
:102B500000F08480002F44D1B3F1FF3F08BFB2F1F1
:102B6000FF3F00F098800120FFF74EFD9AF82030DB
:102B7000002B40F08980049A1932A24280F2A18091
:102B80000024A8EB020223460220FFF767FC30B1C5
:102B9000DAF800301C604FF08043C3F80845069B0C
:102BA0001093079B119300238DF850300A934FF038
:102BB000FF324FF0FF33CDE90E5BCDE90C230AADB8
:102BC0000FCD4A4C0FC40FCD0FC495E80F0084E819
:102BD0000F00304617B0BDE8F08F0120FFF7B2FCC0
:102BE000DDE6B3F1FF3F08BFB2F1FF3F0BD000912C
:102BF000FFF72AF84FF0FF324FF0FF33CAE9062300
:102C00000099002FB2D0019BB9EB030261F10003E0
:102C10000520FFF723FC00285DD09AF82030002B18
:102C2000A9D101238AF82030A5E7322101233520DC
:102C3000019105932BE60D210123102001910593AD
:102C400025E62A4B93F828306442A046002B7FF4F7
:102C50005BAF4FF4F261702001F07AFDB3F1FF3FFA
:102C600008BFB2F1FF3FCCD0C1E7484608930291BC
:102C7000059FFFF75BFB0299089BDEE61C21012301
:102C80001F200191059302E60520FFF75BFC00235E
:102C90008AF820306FE7FEF78DFF02F025FECAE9C3
:102CA000060160E740F22141702001F051FD40F241
:102CB0007C71702001F04CFD40F23571702001F004
:102CC00047FD40F2BA71702001F042FD40F2A3616D
:102CD000702001F03DFD40F22621702001F038FD0A
:102CE00040F65801702001F033FD00BF480E00206F
:102CF0002DE9F04F8F4F97F8214004EB44033B44FC
:102D000083B05E7A202E48D08B4BE5B26400002B56
:102D100000F08980894BDFF82892002B5FD006EB0A
:102D2000451207EB420A4FEA45189AF82830013B52
:102D3000DBB2052B34D8834A12F803B0BBF1090F7C
:102D40002ED0AFF30080EFF3108372B62C443C44D6
:102D50009AF829206272A27AB24204BF2022A2729B
:102D600013B9AFF3008062B6B044730107EB4808B3
:102D700009EB4616012259F80330706888F82820BC
:102D80005946984797F8214004EB44033B44E5B289
:102D90005E7A202E4FEA4404C1D103B0BDE8F08F23
:102DA00040F26E61702001F0D3FC62B6B044730152
:102DB00007EB480809EB4616012259F80330706802
:102DC00088F828205946984797F8214004EB440397
:102DD0003B44E5B25E7A202E4FEA4404DDD006EB98
:102DE000451207EB420A4FEA45189AF82830013B92
:102DF000DBB2052BD4D8534A12F803B0BBF1090F4C
:102E0000CED0AFF30080EFF3108372B62C443C4475
:102E10009AF829206272A27A964204BF2022A272F6
:102E2000002BC3D1C1E7454BDFF818B1DFF810A183
:102E30004FF02009002B51D006EB451207EB420260
:102E40004FEA451892F82830013BDBB2052BA7D892
:102E50001BF803100929A3D0EFF3108372B62C449A
:102E60003C4492F829206272A27A964208BF84F804
:102E70000A90002B54D0B04407EB480873010AEBCA
:102E8000461601225AF80330706888F828209847BF
:102E900097F8214004EB44033B44E5B25E7A202ED0
:102EA0004FEA4404C8D178E762B6B044730107EB37
:102EB00048080AEB461601225AF80330706888F871
:102EC0002820984797F8214004EB44033B44E5B29F
:102ED0005E7A202E4FEA44043FF45FAF06EB4512C2
:102EE00007EB42024FEA451892F82830013BDBB26B
:102EF000052B3FF655AF1BF8031009293FF450AFDF
:102F0000EFF3108372B62C443C4492F8292062728D
:102F1000A27A964208BF84F80A90002BC5D1C3E775
:102F20000191AFF3008062B6B044019907EB480805
:102F3000A4E700BFC80E0020000000000000000051
:102F4000400A0020A48305002DE9F04F85B00D460E
:102F500014461F469DF838B0FEF7CCFD2E68696810
:102F6000031947F10002B342019372EB010302928D
:102F7000C0F0CA80DFF8A891DFF8A8810BEB4B0303
:102F80004B440393DA46039B1C7A202C3BD040F23F
:102F9000F5578C460FE06B7B012B02D0537D012B44
:102FA00056D004EB4A1409EB440494F82940202C31
:102FB00029D0D5E9006C08EB44124FEA441B916814
:102FC0001369D0685B1840F100009E427CEB00035F
:102FD000E1D240F2563740F2F55608EB0B0C296867
:102FE000AB68DCF808006A685B1842F1000298429E
:102FF000DCF80C3093411AD39CF81530012B02D029
:103000006B7B012B03D0012005B0BDE8F08F411A86
:103010000091FEF7C9FDB84200993FD0B04228D0D8
:10302000B0F5C67F14BF01230E239942EBDA08EBFB
:103030000B032A7C197E91421FD904EB4A1409EB39
:10304000440494F82940202CDDD04FEA441BC4E707
:10305000761AFEF7A9FD40F25633984220D0B842C6
:1030600009D0B0F5C67F14BF01230E239E42B0DB0A
:1030700097E73323D9E73323F8E7D3E902611C69E3
:103080005B7DA61941F10001012B0BD0019BB342DE
:10309000029B8B4138D3C5E9006174E71D23C4E767
:1030A0001D23E3E76B7B012BF0D00091FEF77CFD45
:1030B00040F25633984200992CD040F2F553984292
:1030C00026D0B0F5C67F14BF01230E239C42DDDA63
:1030D000FEF76AFD40F2563398421FD040F2F55396
:1030E000984219D0B0F5C67F14BF01260E26C344FE
:1030F000DBF80830DBF80C10F618019B41F10001F9
:10310000B342029B8B41C6D2002005B0BDE8F08FD0
:103110003323DBE71D23D9E73326E8E71D26E6E75F
:10312000C80E0020400A00202DE9F047154692F80D
:10313000008092F80BC0AF7A12891C4686B000233B
:10314000E3602361C4E9003327749DF8389084F864
:103150000DC00646A3606361E28184F811800F46CA
:10316000B8F1000F42D1FEF709FCD5E904C24C4B7F
:10317000C31841F1000E9C4572EB0E030AD3013EC9
:1031800047F1FF37C4E900674FF47A73A36006B0D4
:10319000BDE8F087263041F10001844572EB010360
:1031A000EDD3288901300021844572EB01036AD3F5
:1031B000BCEB000062EB010104F10C03009303AAD5
:1031C00004ABFEF73DFC039B6A6828894733134430
:1031D0001844FEF78FFCDDE90432C01A20F07F406E
:1031E000C4E90032A06006B0BDE8F0872D4804A90C
:1031F000801A04F10C02FEF7F7FB2B4B1B78202BF7
:1032000024D02A490B69D1E90521053342F1000A8E
:1032100013EB01084AF1000A6B68227BE08947330F
:1032200010441844C4E9008AFEF764FC3246A060EA
:103230003B462869CDF800902146FFF785FE00281F
:10324000A5D1C4E9006706B0BDE8F087637B16F13D
:10325000090847F1000A012BDED0FEF715FF002810
:10326000DAD1FEF7A1FC40F2563398420ED040F27C
:10327000F55398420FD0B0F5C67FCDD116F11608A0
:1032800047F1000AC8E74046414695E716F1250890
:1032900047F1000AC0E716F13B0847F1000ABBE717
:1032A0000040420FFF7F841E400E0020480E002089
:1032B0002DE9F047374DDFF8E08000EB40032B4469
:1032C00006461C7A4700FFF71BF84FF0200C4FEA28
:1032D000461E08EB44110EEB0403D1F808A00A695E
:1032E000AAEB000929F07F49B9F5000F05EB43036C
:1032F0000DD812EB0A02121A22F07F42B2F5000F2B
:1033000005D8BCF1200F0BD12046BDE8F08793F81B
:103310002930202BA4461C46DBD1BCF1200FF3D072
:10332000BB192B440CEB461205EB420293F80880C4
:1033300092F829201A72710144464FF0040E0B19BD
:1033400005EB430322469445204683F828E093F892
:103350002940F4D1BB192B440A4493F80AE0BEF18A
:10336000200F5FFA8EFC18BF8C443E4418BF05EB5B
:103370004C0C05EB4202354408BF83F809804FF03E
:10338000200318BF8CF82980A87282F829302046C3
:10339000BDE8F087C80E0020400A00202DE9F0416A
:1033A0004E4D01EB41032B440C461E7A202E8046E5
:1033B0004FEA410741D14A4B0BB1AFF3008002F015
:1033C00093FA95F82230202B0AD0464BD3E904E239
:1033D00010F1020C41F10003E64572EB030331D317
:1033E000202E0AD042463346FFF7E4F900283FD0AA
:1033F00085F822600220BDE8F081D5E90623B3F10B
:10340000FF3F08BFB2F1FF3F1FD195F8203043BB0B
:103410000420FFF797F802F075FA0020FFF7F4F8A0
:1034200029684FF08042202085F8220000230B609D
:103430000120C2F80835BDE8F0810846FFF738FFE3
:103440008642B8D00020BDE8F081FEF7FDFB4FF0CA
:10345000FF334FF0FF32C5E9062395F82030002BEB
:10346000D6D00520FFF76EF8002385F82030CFE78F
:103470003B192B4406EB441205EB420293F808E09B
:1034800092F829201A72610173460420CA189C46DA
:1034900005EB4202664592F8293082F82800F5D102
:1034A0003B192B443C44987A2028C2B218BF5218CA
:1034B000614418BF05EB420205EB4101254408BFFA
:1034C00083F809E04FF0200318BF82F829E085F85F
:1034D0000AC081F829300020BDE8F081C80E002024
:1034E00000000000480E0020F8B5194A194D0023CD
:1034F00042F2200020214FF0FF364FF0FF37A97233
:10350000288185F82130136082F82830C2E90267EB
:10351000AB73C5E906671C4685F8221085F8203094
:1035200005F1280202F814300134202CFAD10126CA
:103530000948EE7301F000FA084B1870084B1C7034
:1035400001F05AFA2860FEF781FE85F82360F8BD85
:10355000480E0020C80E0020F12C0000780E00203C
:10356000400E00202DE9F04F85B002F0BDF9C04EAD
:103570000746884602F0C6F9D6E90223B3F1FF3FB9
:1035800008BFB2F1FF3F05D04FF0FF324FF0FF33DD
:10359000C6E9022396F82830ABB94FF40C71B06934
:1035A000FEF7D8FA33697269B169023342F1000259
:1035B0005B1842F100021B1842F100029F4278EBB7
:1035C000020380F06181AB4C4FF0FF304FF0FF31D0
:1035D000FEF7ACFEE37B002B40F04581A64991F855
:1035E00000B00122BBF1200FE27300F037812022EE
:1035F0000A7084F82220A373336094F8213003EB1F
:10360000430AA2445FFA83F99AF808505B00954296
:10361000009307D0994B03EB45102A46407E0128C2
:1036200000F0C580009BDFF858A203EB0908202DAD
:10363000A0444FEA491708D04846FFF739FE8542B3
:1036400003D098F80850202DF6D1BAF1000F01D020
:10365000AFF3008002F048F994F82230202B09D013
:10366000D6E9042310F1020E41F1000C724573EB10
:103670000C03E6D3202D38D02B460122FFF79AF811
:10368000002859D084F8225007EB0B0304EB4303C6
:1036900093F82820022A1DD1009A4A442244062188
:1036A00083F82810917ACBB220291CBFDB1904EBD8
:1036B00043035F4418BF83F829B0009B08BF82F81A
:1036C00009B04B44234404EB470783F80AB0202396
:1036D00087F82930FF232374009B4B441C44637AF2
:1036E000202B5DD105B0BDE8F08FD4E90623B3F1FE
:1036F000FF3F08BFB2F1FF3F07D0FEF7A5FA4FF03A
:10370000FF324FF0FF33C4E9062394F82030002B3A
:103710003FD10420FEF716FF02F0F4F80020FEF778
:1037200073FF21684FF080420023202084F822009C
:103730000B60C2F80835A7E77B1904EB430398F840
:10374000080093F8293088F808300246042113460F
:10375000BA1804EB42029D4282F8281092F8292000
:10376000F5D198F80A1088F80A30CAB220291CBF8F
:10377000D21904EB42023B4404EB430318BF82F826
:1037800029004FF0200208BF88F8090083F829209B
:1037900057E70520FEF7D6FE002384F82030B8E76F
:1037A000384B187805B0BDE8F04F01F0E1B8097862
:1037B000202914D0316970694F1DB16940F10000B2
:1037C000791840F10000019003EB4213D3E90202A3
:1037D00088420198824128BFC3E9021022E701FB19
:1037E0000531487D17F1090148F1000C0128CDF899
:1037F00004C0E9D0CDE90251FEF746FCDDE9022123
:103800001E4B10B19AF80850DEE7CDE90221FEF711
:10381000CBF940F25635A842029A184B0CD040F230
:10382000F555A84214D0B0F5C67F03990AD0009888
:1038300048442044057AC7E717F1250148F1000004
:103840000190F4E717F1160148F100000190EEE74E
:1038500017F13B0148F100000190E8E74FF43171A6
:10386000702000F075FF40F2C121702000F070FF61
:10387000480E0020C80E0020400E0020400A002004
:1038800000000000780E0020074B084A1B78580102
:1038900002EB4313082112585868904740F2B621B2
:1038A000702000F055FF00BF400E0020400A0020AD
:1038B00070B5134C0D460646FEF7A4FA94F8213075
:1038C00004F1280CD9B20CEB831C002302E0013375
:1038D000202B12D01CF81320D8B2002AF7D103EB0A
:1038E0004111084A04EB4104590102EB43135650BD
:1038F000012284F828205D6070BD184670BD00BFAD
:10390000C80E0020400A00201F280AD80C4991F850
:10391000213000EB431301EB430393F82820012AE5
:1039200001D00020704791F8213000EB431301EBE8
:1039300043034FF0000C104683F828C0704700BFC7
:10394000C80E002010B5094C04EB4014D4E9020164
:10395000FEF714F8227DE38A9B1803F101034FF070
:1039600000025241181842EB010110BD400A00202C
:103970002DE9F04FB14A536891B0C3F308030390A7
:103980000791002B40F03D8208230693079B1B788C
:10399000012B00F2E882DFF8A8B2BBF1000F04D0DF
:1039A000002140F24350AFF300800023DFF894A2DF
:1039B000DFF8948204930124BBF1000F04D00021AE
:1039C0004FF4AA60AFF3008024B9A04B0BB1AFF362
:1039D000008062B69AF821305FFA83F9CDF814902E
:1039E0004FF000038AF81030069B002B40F0AB80AC
:1039F000BBF1000F04D0002140F26450AFF300800F
:103A000001F072FF059B0093079A0AAB0446FFF78B
:103A10008BFBBBF1000F04D0002140F26C50AFF3E0
:103A20000080039B03EB49130AEB43034FEA49165B
:103A300093F82830013B012B00F2CB80DDE90A32FC
:103A400024F07F441D1B25F07F4121F00101002956
:103A500040F0D680039A09EB49035344B218997A8F
:103A60000AEB4202042082F8280020294FEA49028A
:103A70000992CAB200F015823244039B0AEB42025B
:103A800082F829301A464FEA49034B4453441644FE
:103A90000AEB46069A72202386F829300023049305
:103AA0000125BBF1000F04D0002140F27150AFF3AB
:103AB0000080674B0BB1AFF30080EFF31086344604
:103AC00072B69AF81030002B7FF476AF039B0AAFE2
:103AD00008EB43140FCF08340FC497E8030084E8C1
:103AE0000300A5B1069B002B00F0B281049B23B11B
:103AF000584B1B78202B00F0FC819AF82130DB43D7
:103B000003F001038AF82130FF238AF8103026B928
:103B10004E4B0BB1AFF3008062B6BBF1000F04D087
:103B200000214FF4B560AFF30080002D53D1BBF1FD
:103B3000000F04D0002140F2B450AFF300802846BB
:103B400011B0BDE8F08F059A434B551C05F00105F7
:103B500003EB821E03EB851C17B2BEE80F00ACE836
:103B60000F00BEE80F00ACE80F00BEE80F00ACE8A5
:103B70000F009EE80F00A9468CE80F002EB2BBF1A3
:103B8000000F04D0002140F2DE30AFF30080334B51
:103B900007EB470706EB4606DA19D95B927899538B
:103BA00033449A70BBF1000F0CD0002140F2E23098
:103BB000AFF30080BBF1000F04D0002140F25A5057
:103BC000AFF300809AF81030002B7FF4F5AE059526
:103BD0000EE7002565E79AF8213003EB43035344D1
:103BE0005B7A202BA3D0BBF1000F04D0002140F260
:103BF000AF50AFF300801A4B187800F0B9FE96E78B
:103C000025F07F45B5F5000F3FF624AF0C99C91894
:103C10000C1B24F07F44B4F5000F3FF61BAF09EBFB
:103C2000490151440C7A4FEA4901202C099100F0D6
:103C300045812021944604911A4627E000ED00E0DA
:103C400000000000C80E0020400A00200000000014
:103C500000000000400E0020F00E0020D00E0020DA
:103C6000780E00209DF83510012903D0417D0129EF
:103C700000F0B18033190AEB430393F82930202B6D
:103C800000F02B81DDE90A2C04941C4608EB44105B
:103C9000650187680169C368C91943F1000E8A424A
:103CA0007CEB0E03DED213466246049F0C9908EBB0
:103CB0000500C918D0F808C042F100028C45C1685F
:103CC00071EB020275D3427D012A03D09DF83520A5
:103CD000012A59D0049B9F4200F0EA80202F00F077
:103CE0004781049B202B06EB07030AEB430393F861
:103CF000292000F02F81049BF3180AEB430393F86B
:103D0000294083F8292022460520B3180AEB4303F3
:103D100011468F4293F8292083F82800F5D1099B9A
:103D20004B445344987A202808BF5C72099B4B444B
:103D3000C1B253441CBF89190AEB41019F72039B16
:103D400018BF81F82940F318F1190AEB43030AEB75
:103D50004101202081F8290083F82920049B834217
:103D600000F0B2801C4634440AEB4404039B84F800
:103D7000293000230493039B1E440AEB46060323C9
:103D800086F8283001258CE6ACEB03030893FDF799
:103D90000BFF40F256339842089B55D040F2F55243
:103DA00090424DD0B0F5C67F14BF01220E229A4238
:103DB00090DD45449DF838302A7E9A424FD9331918
:103DC0000AEB4303274693F82940202C6CD0DDE909
:103DD0000A3265016AE7D71BFDF7E6FE40F256336B
:103DE000984233D040F2F55398422BD0B0F5C67FBD
:103DF00014BF01220E22BA427FF73CAFDDE90A323E
:103E000053E7103B59B2002943DB01F1604101F552
:103E1000614191F800335B090693002B7FF4B6AD46
:103E2000584B1B78202B00F0A880079B1B7806932B
:103E3000002B3FF4B0AD40F23C51702000F088FC04
:103E40003322B4E73322D6E71D22B0E71D22D2E7A2
:103E5000FF238AF81030002E7FF45FAE58E6099BEE
:103E6000039A4B445344B218997A0AEB4202042055
:103E7000202982F82800CAB208D03244039B0AEBFA
:103E8000420282F829301A46099BFEE5039A5A72CB
:103E9000FAE703F00F03043B13441B7E5B09069310
:103EA000BBE7039A5A72EEE5049B9F427FF419AF79
:103EB000202B11D1099B4B4453441C7A039BF318CC
:103EC0000AEB430383F82940099B039A4B4453446C
:103ED0001A72012304934EE71C4633190AEB43037D
:103EE00093F82920039BF3180AEB430383F8292056
:103EF00039E705990220FFF751FA00287FF4FDAD5C
:103F00009AF82130039F03EB4301514407EB43121E
:103F10008C7A0AEB42020420202C82F82800DDB2C1
:103F20004FEA4312E0B24FEA430319D011180AEBEB
:103F3000410181F8297039462B4453440A440AEB65
:103F4000420299722023049D82F82930002E7FF4CA
:103F5000E4ADDDE5099B4B4453441C7A1A72D2E66A
:103F60004F723946E8E74FF4A861702000F0F0FB8B
:103F70004FF4E871702000F0EBFB40F239517020F3
:103F800000F0E6FB400E002070B506280DD8DFE8F3
:103F900000F01C52040C0C740D00B14A4FF080412B
:103FA00012680123C1F80835136070BDAD4D2B7840
:103FB000202B00F09180AC4C5A0104EB4313A25823
:103FC0005868BDE8704005211047A54CD4E9062388
:103FD000B3F1FF3F08BFB2F1FF3F00F0D080A34E26
:103FE0000120FEF711FB737F012B04D0FEF74CF884
:103FF000002800F030819B4D2B78202B00F09B8017
:10400000FF23A373D6E90223B3F1FF3F08BFB2F148
:10401000FF3F05D00520FEF721FA002800F01681A9
:104020002B78914A590102EB4313BDE87040525876
:104030005868012110478B4D2B78202B00F0A6806B
:104040008A4E737F012B04D0FEF71EF8002800F083
:10405000F380834CD4E90623B3F1FF3F08BFB2F1EC
:10406000FF3F61D02B78804A590102EB4313BDE832
:1040700070405258586800211047794C94F820300D
:104080007BB1D4E90623B3F1FF3F08BFB2F1FF3F94
:1040900000F0A2800120FEF7B7FA002384F8203058
:1040A00070BD704D2A78202A00F09D806F4E4FF031
:1040B000FF324FF0FF33C6E90223A37B002B00F051
:1040C000B6802B78684A590102EB4313BDE8704073
:1040D0005258586806211047614890F8213003EB88
:1040E00043010144DAB20B7A202B00F0AA8003EBE3
:1040F000421200EB420292F829400C72FF21017437
:10410000022182F82810584C58492B700022C273A3
:1041100081F8282004EB4312127E002A7FF44CAF72
:1041200000F070FF2B7847E7FDF744FD01F0DCFB62
:10413000C4E9060196E794F82130DAB203EB4303B1
:104140002344197A20297CD001EB421204EB42026D
:1041500092F829001872FF232374434B297003EB54
:1041600041110023097EE37386F82830022382F888
:10417000283000297FF444AF00F044FF40E7FDF70A
:1041800019FD01F0B1FBC4E9060128E7344A92F8B1
:10419000213003EB43001044DBB2017A202950D0D8
:1041A00001EB431302EB430393F829400472FF2011
:1041B0001074022083F828002B4B297003EB411167
:1041C0002A4E097E0023D37386F8283000297FF415
:1041D00038AF00F017FF34E7FDF7ECFC01F084FB8B
:1041E000C4E9060156E794F82120D1B202EB42025D
:1041F0002244107A202824D000EB411104EB410125
:1042000091F829601672FF222274174A287002EB77
:104210004010164E027EE37386F82830022381F8A0
:104220002830002A7FF443AF00F0ECFE3FE740F275
:104230004361702000F08CFA40F25161702000F070
:1042400087FA40F24721702000F082FA40F22F6195
:10425000702000F07DFA40F22961702000F078FAB9
:10426000C80E0020400E0020400A0020480E00200A
:1042700070B5274B1A78202A86B044D0254CD4E953
:104280000213B3F1FF3F08BFB1F1FF3F36D1224D1A
:1042900005EB42150646D5E90201FDF76FFBEA8AF8
:1042A0002B7DD31803F101034FF0000252419B19FB
:1042B00042F1000218180DF10B0342EB01010093CB
:1042C00003AA04ABFDF7BCFB9DF80B20DDE904312C
:1042D0000F2A94BF002201229B1841F10001C4E97A
:1042E00002310E4B9B7B13B9012006B070BDD4E99F
:1042F00002230520FEF7B2F806B070BD40F62F018C
:10430000702000F025FA40F62E01702000F020FA0F
:10431000400E0020480E0020400A0020C80E002059
:1043200038B5234B93F800E0BEF1200F3AD0214D71
:1043300095F8213095F821C003EB43032B445FFA35
:104340008CFC1B7A202B1FD01B4C4FEA4C1C06E028
:10435000634405EB430393F82930202B14D004EB7E
:104360004312117E8142F3D804EB4E14D4E90213B8
:1043700020694018D2E9021243F10003814272EB36
:10438000030304D2002038BD4FF0FF3038BD0B4B83
:10439000081A1C68FDF7E4FA04F132038342F1D8ED
:1043A000001B38BD40F66801702000F0D1F900BF55
:1043B000400E0020C80E0020400A0020480E0020B9
:1043C0002DE9F04F8D4B1E7887B0202E019000F024
:1043D00010818B4F8B4D97F8213003EB43033B4407
:1043E000804628681C7A2B6903930DF11302AB6990
:1043F00002938946404405A9FDF7F6FA824BA8F1DD
:1044000032029A4261D8DFF80482059B696908EBA1
:104410004616B2689B1832699B182A699B1A23F0CA
:104420007F40B0F5000F50D897F821A0AB61202C49
:1044300085F820905FFA8AFA18BF4FF0200B00F041
:10444000CB8008EB441C9B18DCF8080041F100010C
:104450009842DCF80C308B414FEA44164ED39CF85E
:104460001530012B02D06B7F012B32D00520FEF7D7
:1044700069F897F821104FF0FF324FF0FF33BBF18E
:10448000200FC5E90223C9B240F0A48001EB41012D
:10449000394420240B7A594A97F82110127802EBFC
:1044A000411207EB420282F829302B68019A13442B
:1044B0002B60FF233B74202C40D0554B187800F024
:1044C00057FA002007B0BDE8F08F012007B0BDE823
:1044D000F08FA0EB0209FDF767FB40F256339842DC
:1044E00020D040F2F55398421AD0B0F5C67F14BFE1
:1044F00001230E234B45B9DD95F820904644337EC9
:104500004B4511D904EB4A1307EB430393F82930C9
:10451000202B17D0A346D5E904211C46AB6990E7B0
:104520003323E7E71D23E5E7DDE902312A695B185C
:104530009B1A0220AB6107B0BDE8F08F002007B0E6
:10454000BDE8F08F0520FDF7FDFF4FF0FF324FF083
:10455000FF3397F82110C5E90223C9B201EB4103EB
:104560003B4404EB411207EB420293F808A092F897
:1045700029201A724FEA410C480153464FF00508B2
:1045800000EB030E07EB4E0E1A4694421E468EF8C1
:1045900028809EF82930F3D10CEB010EBE44614413
:1045A0009EF80A90B9F1200F5FFA89F818BF80448D
:1045B0003944024418BF07EB480807EB42028E72E9
:1045C0004FF0200114BF88F829A08EF809A082F8C6
:1045D000291060E75C46C1E70520FDF7B3FF97F8B7
:1045E00021104FF0FF324FF0FF33C5E90223C9B26B
:1045F0004CE74FF40961702000F0AAF8400E00204B
:10460000C80E0020480E0020CE3F420F400A002076
:10461000780E0020BFF34F8F0549064BCA6802F49D
:10462000E0621343CB60BFF34F8F00BFFDE700BFD5
:1046300000ED00E00400FA05094B01225A604FF03A
:10464000FF32C3F80823074B4FF48042C3F88020A1
:10465000BFF34F8FBFF36F8FC3F88021704700BF48
:1046600000E0004000E100E0094B01225A604FF0F9
:10467000FF32C3F80823074B4FF48052C3F8802061
:10468000BFF34F8FBFF36F8FC3F88021704700BF18
:1046900000C0004000E100E0084B0022C3F8FC2FFE
:1046A0000122C3F8FC2F064B0222C3F88020BFF37F
:1046B0004F8FBFF36F8FC3F8802170470010004009
:1046C00000E100E0F8B51B4E337805460C4617466E
:1046D0006BBBFDF763F8184B7760002D08BF1D46D4
:1046E00028463472FFF7D8FFFFF7BEFFFFF7A4FF9D
:1046F000FDF794FB0546C0B9FEF7F6FEFDF782FB19
:10470000FDF7CCFA00F0F9FF002C0CDB04F01F02DF
:104710006409A40004F1604404F56144012393405A
:10472000C4F880312360012333702846F8BD4FF070
:10473000FF35FAE7700F0020AA83050008B572B6AE
:10474000024B5B6803B19847FFF764FF700F0020CE
:104750001FB572B6134B5D688DB9FFF75BFFB2FBF7
:10476000F6F2DCB20133002AF9D104F110036B44F4
:1047700003F80C2C0A2234B901A8A847EDE7024639
:1047800000230A26EDE7631E04AEDCB256FA83F37B
:10479000B0FBF2F602FB1600303003F80C0C30468A
:1047A000E9E700BF700F0020074B93F90830002B9A
:1047B00009DB5A09012103F01F0301FA03F3403218
:1047C000024941F822307047700F002000E100E0FC
:1047D000014B1878704700BF700F00202DE9F84F8B
:1047E000DFF8C4A0314C324DDFF8C89007460126EF
:1047F0009AF800805FFA88F8FF238AF80030B8F151
:10480000000F01D08AF80130EFF3108272B6002356
:104810006660C4F80031C4F80431C4F80475266039
:104820003AB962B605E0D4F8043133B92B69DB0636
:1048300020D4D4F80031002BF5D0D4F80431002B6B
:10484000E2D1B8F1000F13D19AF80130DBB28AF847
:10485000018003214FF48042C4F80813C4F8048196
:10486000C4F80081C9F880218AF80080002BBFD1EC
:10487000BDE8F88F4FF48043C9F88031EFF3108B17
:1048800072B60323C4F80433D4F8003113B9D4F852
:1048900004311BB1BBF1000FCBD1C2E701F0A5F889
:1048A000BBF1000FC5D1BCE77C0F002000E0004049
:1048B00000ED00E000E100E0FFF790BF1B4B4FF47C
:1048C000805270B5C3F88020BFF34F8FBFF36F8F56
:1048D000174D184C0021C5F80011C3F88021266936
:1048E000236943F0100323610123C5F8043306F064
:1048F00010062B60D5F80031A3B11EB9236923F04F
:10490000100323610A4B0122D3F808055A60C3F84B
:1049100008230022C3F80021044B4FF48052C3F84F
:10492000802170BD01F061F8E4E700BF00E100E024
:1049300000C0004000ED00E038B50C4902460520FB
:104940000138C0B2FF2803D148216920FFF700FFDA
:1049500001EBC0031D7905F0FF04002DF0D141F8F3
:10496000302001225C719C711A7138BD800F0020CB
:10497000042808B503D958216920FFF7E9FE094B3F
:1049800003EBC0000379012B01D05921F4E74379EF
:1049900082790133DBB29A4218BF4371BDE8084007
:1049A000FFF702BF800F002070B5124C06250026CD
:1049B000013D15F0FF0500D170BD94F8281004EBFF
:1049C000C1031A79012A09D158799A79904205D000
:1049D0005A79D2B29A7154F83130984794F8283005
:1049E0000133DBB2042B94BF84F8283084F82860AC
:1049F000DEE700BF800F002008B500F0A8FF70B907
:104A000000F0AEFF58B900F0B4FF40B900F0C3FFAA
:104A1000044A054B002808BF1346184608BD024B40
:104A2000FBE700BF00E701400C05004008B500F0BF
:104A3000B2FF08B3EFF3108072B6104A1369116920
:104A400041F010011161A2F5406203F01003D2F8A9
:104A50000011D2F804210A4300D040BF20BF00BF9C
:104A600000BF00BF00BF23B9044A136923F010033D
:104A7000136100B962B608BD20BFFCE700ED00E09D
:104A80002DE9F04184075FFA81FE5FD0002A59D0FA
:104A9000034601E0002A55D003F801EB990702F123
:104AA000FF32F7D14EEA0E24032A44EA04443ED9E9
:104AB000151FAE08172D06F10106C3F3800147D973
:104AC0009846002940D048F8044B771A03EB810C34
:104AD00079080CEBC101CCE900440CF1080C6145EC
:104AE000F9D127F0010C08EB8C016745CCEB8C78F1
:104AF00005EB880517D02F1F032F0C6013D9A5F1E4
:104B00000807032F4C600ED9A5F10C07032F8C600A
:104B100009D9A5F11007032FCC6004D9143D032D4A
:104B20000C6188BF4C6102F0030203EB86034AB1BB
:104B3000013A83F800E005D0012A83F801E018BFAC
:104B400083F802E0BDE8F0811546BEE70346A9E719
:104B500019461546CFE700BF014B1B681B68184775
:104B600044000020014B1B685B681847440000208C
:104B7000014B1B689B68184744000020014B1B68D1
:104B80001B6918474400002038B504201E4CFFF76D
:104B9000C7FB2568854228BF054604212846FFF744
:104BA0000FFC20B1012820D040F2451108E0236815
:104BB000E068AB420DD1FFF75BFB20B940F2251155
:104BC0006B20FFF7C5FDE268236822611344E360B0
:104BD00038BD05446089E5600123281A2375FFF775
:104BE00047FB60B940F22F11EAE763892075E0685E
:104BF000C01AFFF73DFB10B94FF49E71E0E76289E0
:104C0000E3689B1A2361E3E7B00F002008B50C4B63
:104C10001A7802F0FF0312B15A1E1A4203D0E021A3
:104C20006B20FFF795FD19B1034207D1E521F7E7A6
:104C300023EA00039B0601D1E921F1E708BD00BF8B
:104C40004800002008B50D4B01221A764FF0827201
:104C50001A621A68DA615A689A62094A93F830004F
:104C60000221117003F11801FEF782FE20B94FF402
:104C700083716B20FFF76CFD08BD00BFB00F0020F3
:104C80004800002070B5EFF3108572B6264C94F8FA
:104C900031600023012E84F8313006D0022E1DD061
:104CA000002E3BD185F3108870BD85F3108894F8F1
:104CB000323003F0FF0123B14FF4A9716B20FFF7ED
:104CC00047FD1420FFF7A2FF184B84F832601B78D1
:104CD000012BE9D1BDE87040FFF7B4BF94F8322052
:104CE00012B940F26311E9E7104984F832300B78C9
:104CF000023BDBB21E2B0ED8012202FA03F30C4A50
:104D00001342CFD144F20402134204D020230B708B
:104D1000FEF728FCC6E740F27F11CFE785F3108845
:104D200040F2A511CAE700BFB00F002048000020E4
:104D30004100004070B5144C94F8335025B14FF445
:104D400022716B20FFF704FD104B84F832500126CE
:104D50001E700F4B0F484FF4C852C4E900230E4B8E
:104D6000A360FFF7E9FD294684F834000B48FEF7FD
:104D70009FFD202884F8300002D140F29721E0E71F
:104D800084F8336070BD00BFB00F002048000020E1
:104D9000FF3F420F854C00000500B700114F000097
:104DA00008B5104B93F8332022B940F2F7216B205D
:104DB000FFF7CEFCEFF3108172B693F8312022B1E9
:104DC000012A0DD040F20731F1E7022283F83120A9
:104DD00001B962B693F83400BDE80840FFF7C8BDDA
:104DE0000022F3E7B00F00200B4B93F8333010B5DF
:104DF00023B940F216316B20FFF7AAFCEFF31084C1
:104E000072B6064B1A78102A03D108221A70FEF7E0
:104E1000A9FB04B962B610BDB00F00204800002005
:104E200070B5174B1B78042B27D1164D2B7D1BB962
:104E30006B892868C01A70BD00F00EFD10F11E04C9
:104E400095F8300041F10006FEF77CFD2B691B1838
:104E500041F100019C4276EB01004FF000020CD2C0
:104E6000181B4FF0FF3361EB0601834272EB010325
:104E7000E1D2A7216B20FFF76BFC0020DBE700BF2E
:104E800048000020B00F002038B5144C94F833309F
:104E900023B94FF433716B20FFF75AFCEFF3108501
:104EA00072B694F8313023B1022B0DD040F2DF21DD
:104EB000F1E7012384F8313005B962B694F8340083
:104EC000BDE83840FFF754BD054B1B780022042B8A
:104ED00084F83120F0D115F0D5F8EDE7B00F0020BF
:104EE0004800002008B5094B19781029CAB207D02C
:104EF000202A05D0042A04D110221A7015F0D2F805
:104F000008BD4FF4E2716B20FFF722FC480000203F
:104F100070B50C46FDF7F4F9611E06294AD8DFE8A2
:104F200001F00453532823665F0001210220FFF79C
:104F30006DFE314B314A93F8321079B10421117072
:104F40001A68DA6000221A7593F83130022B01D00A
:104F500015F098F8BDE87040FFF716BE20231370D7
:104F6000BDE87040FEF7FEBA4FF404716B20FFF706
:104F7000EFFB214C94F83230E3B1204B1B78042B2B
:104F800019D100F069FC064694F830000D46FEF792
:104F9000D9FC237D012B0BD12269121841F10003AA
:104FA000964275EB030303D3BDE87040FFF79ABF49
:104FB0000FF0F6FA70BD124B0222C3F88020BFF347
:104FC0004F8FBFF36F8FF5E701210220FFF71EFE21
:104FD000094B93F8323033B1BDE87040FFF732BE71
:104FE00001212820F2E7054B01221A70E2E7024B6B
:104FF0001B7D012BAED1D7E7B00F00204800002069
:1050000000E100E0014B01229A777047E80F002091
:105010002DE9F04786468C460846089E154674469C
:105020001946002B40F0C2808542B2FA82F245D97F
:105030004AB1C2F1200300FA02FC2EFA03F39540B4
:1050400043EA0C0C94404FEA154EA8B2BCFBFEF8A4
:10505000230C0EFB18CC08FB00F943EA0C439945DE
:1050600028D9EB1808F1FF3704D2994502D9A8F1E5
:1050700002072B44A3EB0903A4B2B3FBFEFC0EFB17
:105080001C330CFB00F044EA0344A04214D92C1951
:105090000CF1FF3304D2A04202D9ACF102032C443C
:1050A000241A43EA07401EB1D440002334607360E1
:1050B000BDE8F0874746DDE76346F1E792BB431B57
:1050C00001214FEA154EAFB2B3FBFEFC200C0EFBE4
:1050D0001C330CFB07F840EA0343984562D9EB18F0
:1050E0000CF1FF3004D2984502D9ACF102002B44F8
:1050F000A3EB0803A4B2B3FBFEFC0EFB1C330CFBBA
:1051000007F744EA0344A7424ED92C190CF1FF33A8
:1051100004D2A74202D9ACF102032C44E41B43EAB7
:105120000040C0E7C2F1200320FA03F1954090400F
:105130002EFA03F303434FEA154EAFB2B1FBFEFC68
:105140000EFB1C10190C0CFB07F841EA00418845C6
:1051500004FA02F422D969180CF1FF3004D2884510
:1051600002D9ACF102002944A1EB08019BB2B1FBCA
:10517000FEFC0EFB1C110CFB07F743EA01439F42A8
:105180000ED9EB180CF1FF3104D29F4202D9ACF1D9
:1051900002012B44DB1B41EA004192E76046E3E752
:1051A0006146F7E76046A3E76346B7E7834206D95F
:1051B00016B9002108467BE7C6E900E0F9E7B3FA33
:1051C00083F78FB9834201D3724508D8BEEB02043E
:1051D00060EB030301209C461EB9002168E73846B6
:1051E000FAE7C6E9004CF8E7C7F1200CBB4022FA09
:1051F0000CF41C432EFA0CF120FA0CF3B8400143D6
:105200004FEA14490EFA07F5B3FBF9F81FFA84FECA
:1052100009FB18300B0C08FB0EFA43EA00439A45D1
:1052200002FA07F240D9E31808F1FF3004D29A4598
:1052300002D9A8F102002344A3EB0A0389B2B3FB0D
:10524000F9F809FB183308FB0EFE41EA03418E45CD
:105250002CD9611808F1FF3304D28E4502D9A8F188
:105260000203214443EA0040A0FB0298A1EB0E0197
:105270004145CE46434602D306D14D4504D2B9EB53
:10528000020E68EB04030138002EA6D0B5EB0E0227
:1052900061EB030101FA0CFC22FA07F34CEA030369
:1052A000F940C6E9003198E74046C5E74346D9E7EB
:1052B00010F8012B11F8013B012A28BF9A42F7D0C0
:1052C000D01A7047034613F8012B002AFBD1181A95
:1052D00001387047FCF762BA801A00F3070038B54E
:1052E00040B20D4659B21446FCF748FA0023287024
:1052F00020446B7040B238BD73B5A0F10B040E466C
:10530000E1B20F29154603D94F216420FFF720FA97
:105310000DF1030332460420FCF7ECF9034608B113
:105320005821F2E704EB840404F665149DF90300A8
:10533000A2B201A9FCF7CEF99DF804302B709DF8BC
:1053400005306B7002B070BD002303607047002011
:1053500070474FF0FF3070474FF0FF307047704795
:105360007047002070474FF0FF30704700207047B3
:10537000002070470023037070470022FFF7ACBF86
:10538000002070474FF0FF3070474FF0FF307047FC
:105390004FF0FF307047C0B2704738B5054691F8FE
:1053A00027000C46FEF7B0FA18B9D3216A20FFF7A0
:1053B000CFF90023A38484F826300921236A2846E4
:1053C000984718B103780BB1D721EFE738BD426891
:1053D00008B5034611441A785960012AA1F150001A
:1053E00006D1FEF745FF40B9B7216A20FFF7B0F9B3
:1053F000FEF73EFF08B9BC21F7E708BDF8B5044643
:105400000E4619B9012384F829303CE00D78032DAC
:10541000F8D8DFE805F03A0212154868C72802D824
:1054200000252846F8BD0421FEF7CAFF0028F7D161
:1054300071682046FFF7CBFFF3E7FCF71BFAF0E7B4
:1054400090F82470FFB94D682846FCF7E7F900286A
:10545000D8D02978D9B9012222702B792181003B3B
:1054600018BF0123E3726B79002B0CBF02230423C6
:10547000A372AB6860336360EB682361032384F835
:10548000263084F82520FCF7F5F90225C9E794F8C1
:105490002630052B04D040F277116A20FFF758F927
:1054A00027702B7994F827002781003B18BF012330
:1054B000E3726B79002B0CBF02230423A372EB6809
:1054C000A96860336360D4E906325B1842EBE1728D
:1054D000C4E90432042384F826302146FEF748FA52
:1054E0000028D0D140F27911D7E770B50D460446B7
:1054F00020B940F291116A20FFF72AF990F828604C
:10550000082900F2F080DFE811F0EB00090041000B
:1055100041007C0086009000A900970090F826309A
:10552000033B012B02D94FF4CE71E4E7052390F839
:10553000241080F82630002380F8293011BBFFF7B3
:1055400046FF2378012B18D194F82700FEF7FAF9CB
:10555000C4E90601236A00213046984701462046E7
:10556000FFF74CFF022820D0002800F0BF80012860
:1055700040F0BF80236A0421EEE7D4E90423C4E9A4
:105580000623E7E7BDE87040FCF774B990F82630D1
:10559000DA1E012A02D94FF4DD71ACE790F824201D
:1055A00072B101463046FFF7F8FE002D40F0A480AE
:1055B00000F054F9002800F09F8040F22E219AE775
:1055C000042B0CBF02230123022980F82630036A32
:1055D0000CD1052130469847002800F08D800378D3
:1055E000002B00F0898040F2CF1184E7062130467D
:1055F00098470028D9D00378002BD6D04FF4EA7111
:1056000079E790F82630052B02D040F2DB1172E7E3
:10561000036A0221A0E790F82630052B02D040F261
:10562000E11168E7036A012196E790F82630052B1F
:10563000A8D040F2E7115EE790F82630052B02D0A3
:105640004FF4F67157E7036A0A213046984701463E
:105650002046FFF7D3FE40F2EF114CE790F82630DA
:10566000052B07D090F825200AB1032B02D040F279
:10567000F31140E794F824202AB121463046BDE8D2
:105680007040FFF78ABE94F8293073B1022384F882
:10569000263084F82920236A08213046984758B3D9
:1056A00003784BB340F2FF1125E794F8252052B15F
:1056B00094F8270084F825302146FEF759F9D8B927
:1056C0004FF4017117E7022384F826300721236A7B
:1056D0003046984780B1037873B140F20B210AE756
:1056E0004FF4047107E74FF4057104E7236A0321BF
:1056F00032E740F22521FEE670BD70B5FCF706F9F1
:10570000002405462646E0B2854200D870BDFCF76D
:1057100003F90134868480F82660F4E7F8B504467E
:105720000D46FCF7F3F800270646F8B2864204D887
:10573000082D0CD96FF0150008E0FCF7EDF890F893
:1057400026300137002BF0D04FF0FF30F8BD2CB1E0
:1057500029462046BDE8F840FCF7ECB82146204633
:10576000F8E738B50546FCF7D7F8014688B190F858
:1057700024408CB990F8263073B1013B012B04D83A
:105780002846FFF70AFE204638BD012380F8243062
:10579000F9E76FF00100F7E76FF02200F4E770B56A
:1057A0000D46FCF7B9F8044600284AD090F8266068
:1057B000731E012B4BD8002D46D02846FCF72EF83F
:1057C000002841D02A7802BB012323702B79228143
:1057D000003B18BF0123E3726B79002B0CBF02233F
:1057E0000423A372AB6860336360EB682361032317
:1057F00094F8270084F826302146FEF7B9F848BB14
:105800004FF42B716A20FEF7A3FF022E1FD1002256
:1058100022702B7922819B1A18BF0123E3726B79C6
:10582000934218BF0426A672EB68A96860336360D0
:10583000D4E906325B1842EBE172C4E90432042376
:10584000D6E76FF0010070BD6FF01500FBE76FF059
:105850002200F8E70020F6E7FCF758BD08B5002065
:10586000FCF764FE0068003818BF012008BD08B5C9
:1058700000F0AFF828B14FF080430222C3F8342C77
:1058800008BD00F088F80028F5D100F099F800284C
:10589000F1D1F5E74FF0804301221A6070474FF0D5
:1058A0008043D3F8080400F0010070474FF08043B4
:1058B000D3F8140400F0010070474FF08043D3F890
:1058C0001C0400F0030070474FF080410246D1F8FD
:1058D0001804D1F8181410F4803004D001F003003B
:1058E000831A58425841704707B56846FCF706FCD2
:1058F000DDE900024FF080730021E2FB030103B0F9
:105900005DF804FB08B5FCF7E3FBBDE80840FCF7D5
:10591000C9BB0346002018707047EFF3108272B6BF
:1059200003780121DBB2017002B962B6012B0CBF12
:105930006FF0220000207047EFF3108372B6002250
:10594000027003B962B600207047FFF72DB84FF020
:105950008053D3F83001A0F10F03584258417047EB
:105960004FF08053D3F83001A0F10A035842584158
:1059700070474FF08053D3F83001A0F10E03584226
:10598000584170474FF08053D3F83001A0F1100315
:105990005842584170474FF08053D3F830010628E1
:1059A00003D0431C584258417047012070474FF0C4
:1059B0008053D3F83001A0F10D035842584170478D
:1059C0004FF08053D3F83001A0F1080358425841FA
:1059D000704708B5FFF7C4FF30B14FF08053D3F8DC
:1059E0003401B0FA80F0400908BDFFF71FB8FFF797
:1059F0001DB800280CBF6FF0150000207047002074
:105A00007047072303700020704700207047002074
:105A1000704710B50446FFF703FAA04294BF002078
:105A2000012010BD000000002DE9F04F1F7C04692B
:105A300087B098467D2FDB68039381460E46154656
:105A40000BD9AD4AAD483B46012136F040FD6FF021
:105A50007905284607B0BDE8F08FBB1C04F2196A2F
:105A6000039984F818363A4650463BF0A2FD04F5F7
:105A7000C06B584612F0C0FE022E34D00BD9F31E74
:105A8000012B4BD99E4A9D483346012136F01FFD1C
:105A90006FF08505DDE70023ADF8153095F85B3034
:105AA000C3F34002C3F380038DF8113001238DF856
:105AB0001330944B8DF8102093F8C4368DF81430C1
:105AC00006F0010604A904F5C3608DF812600CF01D
:105AD00005F8002866D18C4A8848012136F0EEFC92
