:020000040000FA
:10000000805B002025270000979700001127000043
:100010001127000011270000112700000000000038
:10002000000000000000000000000000192900008E
:100030001127000000000000AD280000112700007B
:10004000ED2B0000ED2B0000ED2B0000ED2B000050
:10005000ED2B0000ED2B0000ED2B0000ED2B000040
:10006000ED2B0000ED2B0000ED2B0000ED2B000030
:10007000ED2B0000ED2B0000ED2B0000ED2B000020
:10008000ED2B0000ED2B0000ED2B0000ED2B000010
:10009000ED2B0000ED2B0000ED2B0000ED2B000000
:1000A000ED2B0000ED2B0000ED2B0000ED2B0000F0
:1000B000ED2B0000ED2B0000ED2B0000ED2B0000E0
:1000C000ED2B0000ED2B0000ED2B0000ED2B0000D0
:1000D000ED2B0000ED2B0000ED2B0000ED2B0000C0
:1000E000ED2B0000ED2B0000ED2B0000ED2B0000B0
:1000F000ED2B0000ED2B0000ED2B0000ED2B0000A0
:1001000053B94AB9002908BF00281CBF4FF0FF317E
:100110004FF0FF3000F00CB8ADF1080C6DE904CEE3
:1001200000F008F8DDF804E0DDE9022304B07047D0
:10013000704700BF2DE9F04786468C460846089E6A
:10014000154674461946002B40F0C2808542B2FA2B
:1001500082F245D94AB1C2F1200300FA02FC2EFA1C
:1001600003F3954043EA0C0C94404FEA154EA8B2B5
:10017000BCFBFEF8230C0EFB18CC08FB00F943EA8D
:100180000C43994528D9EB1808F1FF3704D299455B
:1001900002D9A8F102072B44A3EB0903A4B2B3FBD5
:1001A000FEFC0EFB1C330CFB00F044EA0344A042AF
:1001B00014D92C190CF1FF3304D2A04202D9ACF1AE
:1001C00002032C44241A43EA07401EB1D440002302
:1001D00034607360BDE8F0874746DDE76346F1E7CA
:1001E00092BB431B01214FEA154EAFB2B3FBFEFC9D
:1001F000200C0EFB1C330CFB07F840EA0343984528
:1002000062D9EB180CF1FF3004D2984502D9ACF159
:1002100002002B44A3EB0803A4B2B3FBFEFC0EFBCD
:100220001C330CFB07F744EA0344A7424ED92C19B0
:100230000CF1FF3304D2A74202D9ACF102032C44E3
:10024000E41B43EA0040C0E7C2F1200320FA03F1B7
:10025000954090402EFA03F303434FEA154EAFB298
:10026000B1FBFEFC0EFB1C10190C0CFB07F841EA5D
:100270000041884504FA02F422D969180CF1FF30D4
:1002800004D2884502D9ACF102002944A1EB08014F
:100290009BB2B1FBFEFC0EFB1C110CFB07F743EA03
:1002A00001439F420ED9EB180CF1FF3104D29F425B
:1002B00002D9ACF102012B44DB1B41EA004192E779
:1002C0006046E3E76146F7E76046A3E76346B7E7C2
:1002D000834206D916B9002108467BE7C6E900E04B
:1002E000F9E7B3FA83F78FB9834201D3724508D88F
:1002F000BEEB020460EB030301209C461EB9002103
:1003000068E73846FAE7C6E9004CF8E7C7F1200C81
:10031000BB4022FA0CF41C432EFA0CF120FA0CF329
:10032000B84001434FEA14490EFA07F5B3FBF9F858
:100330001FFA84FE09FB18300B0C08FB0EFA43EA87
:1003400000439A4502FA07F240D9E31808F1FF305A
:1003500004D29A4502D9A8F102002344A3EB0A0370
:1003600089B2B3FBF9F809FB183308FB0EFE41EA2A
:1003700003418E452CD9611808F1FF3304D28E4514
:1003800002D9A8F10203214443EA0040A0FB0298ED
:10039000A1EB0E014145CE46434602D306D14D4561
:1003A00004D2B9EB020E68EB04030138002EA6D08C
:1003B000B5EB0E0261EB030101FA0CFC22FA07F324
:1003C0004CEA0303F940C6E9003198E74046C5E727
:1003D0004346D9E7F0B5394B394AC3F800263948C6
:1003E000C3F8042685B0C3F808264921C3F80C26B3
:1003F000C3F81026C3F81426C3F81826C3F81C2621
:1004000009F06AF808F0A9FA002001F0B9FA78B109
:100410002D48452109F060F801A800F02FFA2B4B78
:100420001B68834210D02A48452109F055F8FEE7A1
:100430002848492109F050F84FF4C020002101F06C
:10044000D5FE25484921E5E7039A2448492109F0CA
:1004500043F82348492109F03FF84FF48031002048
:1004600009F057FC044620B11E48452109F034F834
:10047000FEE769469DF8080000F038F8009B039DF0
:100480001D44019B1E8905F0B1F8AF1901F094F9E4
:1004900000F08CFA00F060FA02F06EF9AB5983F3C9
:1004A000088884F31488BFF36F8FBFF36F8F7B6866
:1004B00098470D48452109F00FF8FEE7000001407C
:1004C0003546526E4CAD000065AD00009809002025
:1004D000B4AD00007CAD000095AD0000D7AD0000CC
:1004E00006AE00002BAE00005EAE000008B502466E
:1004F00038B105480023452108F0EEFF6FF01500E4
:1005000008BD0860FCE700BF81AE00002DE9F04F98
:10051000DFF828B2DDB0DDE9688916461C466A9F1F
:10052000DBF8005000F0E2F9804B0122C3F800250F
:100530003CA807F04FF9B8F1000F07D0B9F1000F50
:1005400004DD4A4641463CA808F0A9FB338972897C
:10055000D6F80CA013449A444FF00008C2455DD869
:100560000FA93CA807F0A8F9704B0022C3F800259A
:10057000C3F8002527B120220FA9384609F060F9F9
:100580000023009331464FF6FF73224609A808F076
:10059000E5F90646002852D120460E9F08F0BFFA22
:1005A00087424CD8DFF898A1DFF880814FF0FF3701
:1005B0000DF11E0307AA08A909A808F01DFA0028D2
:1005C0003DDB40F0AC80089909A808F061FA50B909
:1005D000BDF81E00564A4FF6FF7132F8023B8B42BF
:1005E0002DD09842F9D1BDF81E90B9F1100F30D13D
:1005F000BDF81C60202E22D1089933463CAA204623
:1006000008F078FFD8B932463CA90FA808F07AFA6A
:10061000484B1B68834212D10126C9E7679B669A43
:10062000AAEB0809994528BF99464B464146204602
:1006300008F060FF30B13D4B0022C3F80025DBF825
:1006400000506EE066994A463CA808F028FBC84472
:1006500084E7B9F1010F41D1BDF81C30202BEED851
:1006600008993CAA204608F045FF07460028E6D135
:100670009DF81C300393202B09D8DAF800202E4B6C
:100680000492049A974205DB0023C8F800354FF026
:10069000FF378DE7059300F029F9C8F800951FA8EA
:1006A00007F098F8059B5A6853F8081B12680593E1
:1006B0001FA808F0F4FA17A91FA807F0FDF80022F8
:1006C000C8F80025039A3CA917A809F0A9F8059BCA
:1006D00010B9C8F800056BE70137D2E7B9F1220F6E
:1006E0007FF466AF7B1C3FF463AFDAF80030BB42A7
:1006F000CDDDBDF81C30802BA1D808993CAA20463E
:1007000008F0F8FE00289AD1FFB2BDF81C3000971F
:100710003CAA20210FA800F015F80546B7E7002EE7
:100720008DD028465DB0BDE8F08F00BF00A002501C
:1007300030AD0000980900202CAA00000000002025
:1007400028AA00002DE9F04796B016461D469DF8F0
:100750007820374BDFF8E88053F83210019103EB33
:10076000C20307465B68D8F80090186802AA0144E3
:10077000302301A808F021FA002851D1DDE9014316
:100780001C4403AA06AB214601A808F03EFA002843
:1007900046D1049A072A43D12649059809F040F822
:1007A00000283DD1079A082A3AD12349089809F030
:1007B00037F8A8BB02AA214601A808F012FA78BBB4
:1007C000DDE901A30AEB0302944229D1412B27D191
:1007D0003544302303AA294602A8029608F0EDF911
:1007E000E0B9DDE9023213449D4217D32A4602A93B
:1007F00006A808F05BF988B92A4602A90EA808F0F5
:1008000055F958B99AF80030042B07D1202306AACD
:100810000AF10101384600F081F828B1D8F80090BB
:10082000484616B0BDE8F087044BD3F80090F7E7D0
:100830002CAA0000B0AE0000A7AE0000980900206E
:10084000000000207FB50A46096911F00C0F18BF9F
:1008500021F00C01034618BF11614FF48070002194
:10086000019005480090CDE9031102910846FFF779
:100870004DFE07B05DF804FB641F0020F8B5124C74
:10088000124B134F1D6821460646022000F030FC33
:100890002068394604F0E0FE80B920683946FFF749
:1008A000D1FF05460B4B1B68834207D1206808F037
:1008B00052F8236830715B68B3603760206808F0D5
:1008C00018FE2846F8BD00BF9C090020000000204B
:1008D00064200020980900200A4619B1024B00212B
:1008E0001B681847704700BF0400002070B5094D11
:1008F0002B780BB1002070BD074C0126C4F80065B1
:1009000007F00AF818B92E70C4F80005F2E74FF0A6
:10091000FF30F0E78420002000A002502DE9F041D4
:10092000DFF83080ACB01F4606460C461546FFF790
:10093000DDFF0123C8F800352A46334600972146DB
:1009400003A809F011FF0023C8F800352CB0BDE85A
:10095000F08100BF00A00250BFF36F8F72B6124B40
:100960004FF0FF32C3F88020C3F88420C3F88820FA
:10097000C3F88C20C3F89020C3F89420C3F89820C3
:10098000C3F89C20C3F88021C3F88421C3F88821D0
:10099000C3F88C21C3F89021C3F89421C3F898219F
:1009A000C3F89C21704700BF00E100E0F8B5254B7B
:1009B000254D4FF0FF3401275F60C3F84843C3F86B
:1009C000084303F5C04300265F60C3F84843C3F8FB
:1009D000084303F5983302205F60C3F84843C3F827
:1009E0000843C5F8084301F0B5FF6F60C5F84C61D6
:1009F000D5F84C31C5F81061D5F81031C5F844610F
:100A0000D5F84431C5F8006505F518352820C5F836
:100A1000084301F09FFF6F60C5F84C61D5F84C3179
:100A2000C5F81061D5F81031C5F84461D5F84431E6
:100A3000064BC5F80065C3F808454FF08043C3F87E
:100A40000843F8BD00B000400020004000F0014025
:100A5000014B1B68184700BF0800002007B50B4674
:100A6000002102460091034800F00CF803B05DF845
:100A700004FB00BF510A0000014B1860704700BF23
:100A8000080000202DE9F04F8DB01D46531E824610
:100A9000019103934FF00009039B5878252803F137
:100AA000010419D11E4600204FF0FF3802360346DC
:100AB0000290444631780396392954D81F2914D816
:100AC000002900F0EE8101992520D0470199307866
:100AD000D04709F10209DFE7002800F0E28101991F
:100AE000D04709F101090394D6E7A1F12002192AA0
:100AF000E9D801A757F822F0610B0000C70A0000EF
:100B0000C70A0000610B0000C70A0000E10B0000EB
:100B1000C70A0000C70A0000C70A0000C70A000091
:100B20002D0C0000610B0000C70A0000410C000002
:100B3000ED0B0000C70A0000FB0B00001B0C0000BF
:100B40001B0C00001B0C00001B0C00001B0C000009
:100B50001B0C00001B0C00001B0C00001B0C0000F9
:100B600008460136A6E7582900F0EB80A1F16302A0
:100B7000D7B2172FA7D8172AA5D801A757F822F060
:100B8000E90D0000670C0000C70A0000C70A00005A
:100B9000C70A0000470C0000670C0000C70A0000ED
:100BA000C70A0000470C0000C70A0000C70A00007F
:100BB000C70A00001D0D0000C70A0000C70A000098
:100BC000BD0D0000C70A0000670C0000C70A000046
:100BD000C70A00001D0D0000C70A0000470C0000F6
:100BE00001992520D04709F1010955E7029A02F041
:100BF000FE0202924FF00008B3E7002C0DDAB8F1C4
:100C0000000F0DDA029A002A00F0438124EAE4740E
:100C10000A2202FB0414303CA3E7B8F1000FF5DB15
:100C20000A2202FB0812A2F130089AE7B8F1000F7D
:100C300055F8042B80F22F81002A80F22E81544235
:100C4000022202928DE7682903D1682B06D148233E
:100C500087E76C2902D16C2B00F02181002B7FF4F7
:100C600032AF0B467DE77A2B06D1752955F8046B18
:100C700014D14FF0000B0CE06C2BF6D04C2BF4D1C0
:100C8000073525F007037529D3E9006B03F1080543
:100C900006D120283BD1854F013C09E04FEAE67B95
:100CA000BBF1000FF5DA7642814F6BEB4B0B013C49
:100CB0000DF12D03059300230493304659460A2273
:100CC0000023FFF71DFA059B303203F8012DB446CF
:100CD0000593049B5A46BCF10A0F8B4672F1000241
:100CE00003F1FF3106460491E7D2C3F1010B303323
:100CF0000DEB0306B8F1000FA6F104066DDA029BB6
:100D0000D9077DD4A8EB0B03A4EB0B0413E02B282D
:100D10000ABF684F684F04F1FF34C9E770290FD14B
:100D200055F8042B0023FAB9634F644E053C6FF06D
:100D300004034FF0050B029A920770D4A04666E0B8
:100D400078216C2B03D155F8042B002308E04C2BA1
:100D5000F9D1073525F007031D465B6855F8082BC8
:100D6000232825D1880621D5554F023C01F060018A
:100D7000A1F1390B0DF12D0E002602F00F0109290A
:100D800088BF594430310EF8011D102A4FEA121164
:100D900041EA03714FEA131C73F1000306F1FF30BF
:100DA00008D2C6F1010B06F13003A1E7454FDCE79D
:100DB000414FDBE706460A466346DEE755F8046B1B
:100DC000304608F026FDB8F1000F834602DB4045AF
:100DD000A8BFC346384F4FF00008A8EB0B03002B09
:100DE00092DDA4EB0804A6E755F8043B8DF8183013
:100DF000314F013C4FF0FF334FF0010B06AE9AE745
:100E0000A046EAE7029301992020D047029BB8F15F
:100E10000108F7D524EAE472013C9144A41AB846CB
:100E200006E0049302920199D047029A049B9046EF
:100E3000424612F8010B0028F3D11A46013A15D5A3
:100E4000002BACBFC7EB03077F425B46013B15D5C8
:100E5000BBF1000FA8BF5F444F442646013E14D5A6
:100E6000002CA8BF3F1907EB080915E6049302926E
:100E700001993020D047049B029ADFE70293019941
:100E800016F8010BD047029BE0E701992020D047DC
:100E9000E4E70122D5E6904663E6144661E64C237A
:100EA0005FE648460DB0BDE8F08F00BF15AF00000B
:100EB00013AF000017AF000066AF00001FAF0000C7
:100EC00019AF00001CAF00002DE9F047058B044668
:100ED0002807904611D4022905F0070540F0CC8080
:100EE000204608F0D2F978B10138218B042811D8B6
:100EF000DFE800F0C2106D85950001290CBF45F0B8
:100F0000100545F02005258388F31188BFF36F8F06
:100F1000BDE8F08701F0070AAA4500F0A580002788
:100F2000B9463E46A368002B00F0BC8041F00801A2
:100F3000218388F31188BFF36F8FA168002900F027
:100F4000BA800D68002900F0B680D1F804803346DD
:100F500052462046C047002D76D02B6829461D46B4
:100F6000F0E701F007035A1F012A1BD8002221F0E5
:100F70000701062B276889B2C4E9002209D13B4644
:100F800003E0628B013262831B68002BF9D141F0D0
:100F900002012183204608F078F900287AD041F038
:100FA000200176E0042B0AD121F0070189B22183C8
:100FB000204608F06AF910B141F020012183218B0D
:100FC00001F0070AAA454FD00027B946AAE72369CE
:100FD00021F0070141F00601062DD3F8009021838E
:100FE0002DD1B9F1000F3FD041F00801218388F3E2
:100FF0001188BFF36F8F3A492046C84729E021F096
:101000000701236941F0040189B2042DD3F804904B
:101010002183E6D000273E464FF0040A82E721F004
:101020000701236941F0050189B2052DD3F8089025
:101030002183D6D000273E464FF0050A72E70027ED
:101040003E464FF0060A6DE72B4687E7B9F1000FE1
:10105000D1D1EFF31188202383F31288BFF36F8F70
:10106000238B23F008032383258BEA062ED525F056
:101070001003238305F007056669218B002EBFF658
:1010800070AF00232768C4E9003321F0070141F065
:1010900001012183218B01F0070AAA454FF00009C5
:1010A0007FF440AF002F9CD041F00801218388F3EA
:1010B0001188BFF36F8F002FC8D03D683946334683
:1010C0005246204608F00DF92F46F4E7AB067FF5AF
:1010D0001BAF25F02003238305F0070500E700BFC1
:1010E0000F930000014B03600020704738AA0000F6
:1010F00070B5114B1C680D46DCB1104B196800230C
:101100008B4202DB6FF0010070BD224612F8106BBB
:10111000864202D001331446F2E7E06810B96FF05E
:101120001200F1E708F04DFE0028F8D02C600020F6
:10113000EAE76FF00C00E7E74C02002038AA000055
:101140002DE9F7430D46DDE90A8691461F46044620
:1011500020B96FF00D0003B0BDE8F0830029F8D08E
:10116000002AF6D0009308460023019308F0E0F926
:10117000B7FBF0F303FB10700028EAD113496A466D
:10118000284608F0C6FC019B002BE2D008EB0602C3
:101190009342DED3284608F0CBF9B8FBF0F303FB0B
:1011A00010800028D5D1C4E90097E5602061A060D7
:1011B000C4F8148016B9019EA6EB08060C9BE361E7
:1011C0004FF0FF33A66123620020C4E73D95000085
:1011D000F0B40C4B0C4E5F6A0C4BB34203D36FF070
:1011E0008500F0BC70475D68BD4209D31C693CB105
:1011F00095F802C00579AC4502D12346F0BC1847EA
:101200002433EAE7A0090020FC040020B4040020F5
:101210002DE9F047134CDFF85080DFF85090054679
:101220000E461746444503D36FF08500BDE8F087AE
:101230006268D9F824309A4212D3A36983B19078B6
:101240002979884205D13A4631462846BDE8F0471B
:1012500018475279012A03D13A4631462846984721
:101260002434DFE7B4040020FC040020A00900209F
:101270002DE9F0410B4CDFF8308005460E4617464D
:10128000444502D36FF0850009E063690BB924344B
:10129000F6E73A463146284698470028F7D1BDE898
:1012A000F08100BFB4040020FC04002010B5044607
:1012B00008F00DFB10F1780F00D050B9054A204618
:1012C00008F0F3F9D2F8C43023EA0003C2F8C430BE
:1012D000002010BDA009002002480822002108F0CB
:1012E000BABA00BF5B0A002070B50B4B0B4CA3428F
:1012F00001D3002070BD196A1E7F00220439D5B2C7
:10130000AE4201D82433F2E7013211F8325085425F
:10131000F5D10120EEE700BFB4040020FC0400205A
:1013200008B509480378C3F341130A3350F8233052
:101330003BB100F1080200F110019847C043C00F13
:1013400008BD1846FCE700BFA009002004282DE9CD
:10135000F14FDFF8A09004460F4616D001282DD19A
:10136000DFF88C8098F8B93043B300F097FD1F4D3B
:101370004D4520D2D5F820B04FF0000A2B7F5FFA00
:101380008AF6B34204D82435F2E7FFF7A5FFE7E772
:101390000BEBC6060AF1010A307908F098FA02460A
:1013A000307908F082F9D8F8C430002A23EA000323
:1013B000C8F8C430E2DA002388F8B9300B4D4D4547
:1013C00008D30B4B1B6A6BB13946204601B0BDE810
:1013D000F04F1847EB681BB13A462146284698471C
:1013E0002435ECE701B0BDE8F08F00BFB404002065
:1013F000A0090020FC04002073B5C4B263060D46AA
:101400008DF8074007D02046FFF76EFF78B10D4BEF
:1014100093F8BA0058B10B4E204655B102F07EF950
:10142000F3691BB10DF1070108209847012002B0B4
:1014300070BD02F09BF9F369002BF7D00DF10701A5
:101440000920F2E7A009002073B586788DF80060C6
:10145000037942791C4C43EA0223ADF80230C37889
:10146000304603F003038DF8043008F01EF9D4F879
:10147000C430184205460BD0304600F0F1FC30462F
:10148000FFF714FF08F035FE10B9962005F0ACFB0D
:10149000684602F01FF910F1780F03D010B1002058
:1014A00002B070BD9DF8000002F09CF910F1780FB9
:1014B00001D00028F3D1D4F8C43001202B4384F8A4
:1014C000B900C4F8C430EBE7A00900202DE9F047CB
:1014D000A34EB36904460F461546FBB9237803F0C3
:1014E0001F03012B00F09D80022B00F0048133BB11
:1014F00094F900002A686178002834DA062912D0AD
:1015000008292BD0D9B901231370517096F8C33034
:101510005B0043F00103137002232AE1984700287F
:10152000DCD100200DE06288100A011F01298446E9
:1015300005D9072803D8716AD2B20C781CB96FF0AC
:101540001500BDE8F0874E78664503D19A4200F059
:101550000B8101332144F0E70B780AE196F8BA30A9
:101560001370012305E101390829E8D801A353F8D4
:1015700021F000BF0D1600003F1500001B160000F3
:101580003F150000991500003F1500003F150000B1
:101590003F150000A5150000A07802F089F800288A
:1015A000BFD0CCE76388756A63BBFFF795FE63889D
:1015B00086F8BA30F369002BB3D06A490320984704
:1015C000AFE76B78042B10D0052B11D0022B04D180
:1015D0006F796388BB4208BF01202B781D442B78AC
:1015E000002BEED10028AAD0DFE795F80380F4E7BE
:1015F0006388BB42F1D1B8F1000FEED12846FFF766
:1016000023FFEAE7FF270020B846E8E76388012BBD
:1016100095D1002386F8C33083E76388012B8ED1F0
:10162000F8E796F8BA30D5F800C0002B87D0756A75
:10163000A38894F804E02A46107800283FF47FAF8E
:101640005178022904D192F80480F04500F2938089
:101650000244F1E78CF800208CF80120396060E743
:10166000154494E00B2A7FF46AAF00274FF0FF087F
:10167000C146BA4606E06B78042B0FD0052B21D06B
:101680002B781D442B78002BF5D1F36913B151460B
:1016900007209847002F7FF444AF50E795F8028069
:1016A000A38895F803909845EAD163889945E7D1D6
:1016B000B8F1070F1CD806EB0803AA4683F8BB90C5
:1016C0000127DDE7A3884345DAD1A3784B450AD04B
:1016D000AF78384600F0C4FB3846FFF7E7FDB0FAB4
:1016E00080F77F09CCE72846FFF7AEFE0746C7E73D
:1016F000AA460027C4E794F900206378002A18DA84
:10170000002B7FF41CAF24792D6863060AD0204695
:10171000FFF7EAFD00283FF412AF96F8BA30002B2D
:101720003FF40DAF2946204602F040F800236B70CD
:10173000F2E6012B08D0032B7FF401AF6388002B66
:101740007FF4FDAE012103E0618800297FF4F7AE4C
:10175000A088FFF751FE00287FF4E3AEEFE600BF5C
:10176000A00900205A0A0020022829607FF4F4AE64
:101770004B883B60D5E694F9000062780028BFF6FC
:1017800071AF002A3FF466AF0A2A7FF4D8AE2A78F8
:10179000002A3FF4D4AE697804297FF461AFA978B8
:1017A0008B427FF45DAF072B96BF9B19002393F804
:1017B000BB308CF80030D4E670B5164D95F8B830D3
:1017C000FBB101F055FF002822DB00F067FB00248D
:1017D000D5F8C430E340DA07E6B214D4D5F8C43003
:1017E00004F11002D340DB0705D546F08000FFF777
:1017F0005DFD00280CDB0134102CE9D1002385F8B5
:10180000B830002004E03046FFF750FD0028E5DA4C
:1018100070BD00BFA009002013B5164C237DF3B99D
:10182000E268A168019201AB802007F04CFF019AA9
:10183000A3681344A360E3689B1AE3606BB962B1C9
:101840002369E2889A4208DD94F8C82093FBF2F1FC
:1018500002FB11330BB90123237502B010BD002325
:101860001A4619468020237502B0BDE8104001F0E9
:10187000E3BF00BFA009002030B585B000230246B9
:101880000D460193002858D1002935D108220B4676
:101890000DEB020108F034F8002804DA802001F092
:1018A0003DFF05B030BD2A4C029A2260039A626067
:1018B00004F13802A2609DF90820BDF80E302575AC
:1018C000002AC4E903550ADB802B04D9802001F0EB
:1018D00025FF0020E3E713B1C4E90333E1E7FFF795
:1018E0001FFD0028DAD0E28823699A42D4BFE26063
:1018F000E360FFF791FFD4E7154CD4E90215002D02
:1019000001AB04DC07F0FCFF0028CADAC6E72A4670
:1019100007F0F6FF0028D9DB019AA3681344A360FF
:10192000E3689B1AE360002BBBD104F13803A3608A
:10193000FFF7F6FC0028DCD1B0E78028B1D1044BDA
:10194000DA68002AD5D11B7D002BD2D1A9E700BFD0
:10195000A0090020054B064A9A62064ADA62064A46
:101960001A63064A58629A6100207047A009002055
:10197000CD140000D11100007112000011120000FE
:101980002DE9F3410446474D47484FF0FF334FF0F0
:10199000FF3204F069FB95F8B830002B7BD16B6AFD
:1019A00083B142482C62E8616E6A02F05FF801F090
:1019B0002DFE041E10DA3C4804F0CEFB204602B097
:1019C000BDE8F08100F0BEF8FFF7C4FF6B6A002BA2
:1019D000E7D14FF0FF34EEE700F082FA041EEADBB5
:1019E0007378012B5AD1F379002B57D00026684623
:1019F00085F8C830ADF802308DF804608DF80060CD
:101A000001F068FE041ED6DB802768468DF8007062
:101A100001F060FE041ECEDB2549304602F012F8CC
:101A2000041EC8DB2249384602F00CF8041EC2DB53
:101A3000204CDFF8848044451AD3002001F0D2FE08
:101A4000041EB8DBD5F8C430802043F00103C5F88C
:101A5000C43001F0C7FE041EADDBD5F8C43043F43A
:101A60008033C5F8C430012385F8B8300024A2E7DC
:101A7000276A0026227FF3B29A4201D82434DAE79B
:101A800007EBC30257F83310107901F0DBFF013682
:101A90000028EFD09DE76FF077048CE76FF0150416
:101AA00089E700BFA0090020780300204D13000043
:101AB00079180000B4040020FC04002030B51F4B4E
:101AC0008BB005AA03F1100518685968144603C4C1
:101AD0000833AB422246F7D11B7823701022002135
:101AE00001A807F0B8FE12220021154807F0B3FE46
:101AF000102101A808F039F800281BDD0828B8BF1C
:101B00000820093801AB0E491A18002012F8013FCD
:101B10000AAC04EB131403F00F0328336B440130B9
:101B200014F8144C13F8143C0C7008284B7001F195
:101B30000201EBD102480BB030BD00BF25AF000061
:101B4000862000202DE9F04F744B93F800B087B049
:101B5000BBF1000F03D0724807B0BDE8F08F704CA6
:101B600000264FF0011AB0463546B14623783BB9FE
:101B70006C4B02349C42F3D1684A01231370EAE7AC
:101B80006378052B1BD8DFE803F08E03C68E1D3962
:101B9000402304A88DF810B0ADF812308DF814B0C1
:101BA00007F080FE40B1082304A8ADF8123007F01A
:101BB00079FE08B1ADF812B0BDF81230E3712378A8
:101BC0001C44D3E7E378002BF9D1A37863B108F183
:101BD00001085FFA88F8F2E76A68944207D0243572
:101BE0009D42F9D30020B7E74F4D504BF8E7AB6863
:101BF000002BECD0414620469847E8E7002DF1D075
:101C000000222B7F9A42EDD2296AA07801EBC20113
:101C10000B79984201D00132F3E70127E07800F018
:101C200003008DF81400207994F805C040EA0C20D8
:101C3000ADF8120094F902000028FBB228DA07F18F
:101C400010004FF0010C0CFA00F010EA0A0F26D138
:101C500043F080008DF8100004A8CDE90213019232
:101C600007F020FEDDE90121039BC0B99DF810209B
:101C7000A27012F0800F18BF10330A7118BFDBB2C8
:101C80004FF0010214BF9A40BA404AEA020A96E7AE
:101C90000120B84010EA0A0F01D11846DAE70137EF
:101CA000102FBBD1B7E7032E1DD1FFF707FF074663
:101CB00068B107F0AEFD019048B11D4807F0A9FDDD
:101CC000019A824203D13946A01C07F0B9FD23785E
:101CD0006FF00201E218091B04EB5303D14213D544
:101CE0000136F6B26BE7002EF1D1B9F1000F3FF4E7
:101CF00079AFA4EB090389F80230C3F3072389F80D
:101D0000033089F80480EBE702F801BC13F80109FD
:101D100002F8020DE2E7A14651E700BF852000204E
:101D2000BC030020B2040020B4040020FC04002006
:101D300025AF000010B5094B00211A461C788442DB
:101D400005D15C681CB1482303FB012010BD0131A3
:101D5000042903F14803F1D10020F7E76C0A0020C1
:101D60002DE9F34150F8303C10F8346C1033044640
:101D70000AD1036950F8282C980736D5D2B95907EB
:101D800015D5002344F8303C54F8303C10330BD0C8
:101D900054E9097554F81C8C08F0ABF900284FD0B1
:101DA0002E48214608F089F902B0BDE8F08143F0E1
:101DB0000403236154F82C1C01AB304607F083FC6C
:101DC00010B16FF01503DDE7019A54F82C3C134471
:101DD00044F82C3C54F8283C9B1A44F8283C54F80E
:101DE000243C134444F8243CCEE754F82C1C01ABAB
:101DF000304601F09DFD0028E3D1019D54F82C3CB4
:101E00002B4444F82C3C54F8283C5B1B44F8283CF9
:101E100054F8243C2B4444F8243C002DB1D03046E7
:101E200001F02AFEB5FBF0F303FB1055002DA8D1FD
:101E300054F8283C002BA4D0304601F0C1FDA3E7A4
:101E400044F8200CA4F1180004F0F4F9002DABD0F4
:101E5000424639463046A847A6E700BFC8070020DB
:101E600010B5EFF31184202383F31288BFF36F8F33
:101E7000FFF760FF50B14368103307D16FF08B0359
:101E8000436000F13401044808F017F984F3118825
:101E9000BFF36F8F10BD00BFC8070020F8B50E4C10
:101EA00004252027EFF3118687F31288BFF36F8F85
:101EB0006368103307D16FF08B030848636004F147
:101EC000340108F0FAF886F31188BFF36F8F013DF3
:101ED00004F14804E6D1F8BD6C0A0020C8070020D0
:101EE00070B50A4C0A4E00253146204608F0C9F864
:101EF0000122A4F118001146013508F073F8042DF1
:101F000004F14804F0D1002070BD00BFA00A0020F9
:101F1000611D0000014B9970704700BFD70300207E
:101F200037B590F900200378002A04461DDB03F042
:101F30001F03012B19D143780B2B0FD14388A3B971
:101F40000B4D022001A92870FFF7D2F850B9019873
:101F500083686B6007F0CDFA6388EB606FF0150063
:101F600003B030BD6FF00400FAE76FF08500F7E7CB
:101F70000C00002010B5074C002304F11000A360F2
:101F8000A4F83A3207F0F9FB18B140F60A63A4F856
:101F9000383210BD0C00002010B50A4C94F83832CD
:101FA000012B0DD101F064FB022384F83832064B7B
:101FB00006481860FFF7CEFCBDE8104001F026BBD4
:101FC00010BD00BF0C000020B40400202F0400202E
:101FD00037B50E490E4808F054F80E480E4D08F07B
:101FE0004EFB0E490E4808F078F8287801A9FFF753
:101FF0007FF8044638B9019883686B6007F079FA76
:10200000204603B030BD6FF00404F9E7252000003E
:102010008C0B00209C0B00200C000020991F00005E
:102020000005002038B5184B93F88020022A01D013
:10203000052A0FD1B3F8825013491448144CB5FA4D
:1020400085F35B092A4607F057FB20B140F20A33BB
:10205000A4F8383238BD95B9062384F83832FFF732
:1020600089FF284607F003FC18B140F20A33A4F8B0
:1020700038320848BDE83840002105F023B8052370
:1020800084F83832E6E700BFE01E00201C00002084
:102090000C0000209C0B002070B5144690F9002025
:1020A0004378002A064633DA032B0BD0052B28D0C1
:1020B000022B44D1474B40F60A72A3F838226FF046
:1020C00085001DE0434B93F8382293F83902062A25
:1020D00004BF022283F8382222681070B3F83C2231
:1020E00020684270120A827020680022C270206844
:1020F00093F83832037123685A7106230B6000206D
:1021000070BD344A236892F838221A700123F5E72B
:10211000062B14D8DFE803F04D1F13131613040029
:102120002C4C94F83832012B05D9FFF723FF0223FA
:10213000A4F83832E3E7274B002283F838226FF007
:102140001500DDE7234B93F83822012AF3D9022248
:10215000A3F83822D3E71F4D95F83832012BEAD97E
:10216000022B08D0052B13D040F60A63A5F83832AD
:10217000FFF700FFE3E7FFF7FDFE174808F084FADA
:102180002B78022B04D040F20A33A5F83832B6E798
:102190001248042285F8382280F88030F288A0F8AE
:1021A0008220216807F04CFB0D490E4807F085FF9F
:1021B000A5E7084B93F83822002ABCD1012283F806
:1021C00038220949074840F6CD42002304F0CAF9F5
:1021D00095E700BF0C0000209C0B0020E01E0020B3
:1021E0008C0B0020C80700200005002073B50246B4
:1021F0000B46684608F0B8F8DDE90045134E224664
:102200002B46684608F0D4F8DDE90023134301D1DA
:1022100002B070BD96F83832043B012B05D900217D
:1022200040F2676004F0C2FCE9E7094B094800226C
:10223000012108F0FBF907484FF0FF324FF0FF3360
:10224000012102B0BDE8704004F0E4BE0C000020A3
:102250009C0B0020AC0B002008B5054806F0E3FFFE
:10226000044806F0E0FFBDE80840034806F0DBBF85
:1022700036AF000067AF00009EAF0000014804F0D9
:10228000C5BF00BFACAA000038B5044618B90F4B53
:102290000F485B6898476168B1F5683F10D0B1F5A9
:1022A000680F0DD00B4DA9420AD011F46861206867
:1022B00007D00146084807F0DAFD00232360656077
:1022C00038BD142207F0C7FAF9E700BFA4020020C6
:1022D000CCAF00002C5F5CA9C010002008B520B373
:1022E0004368B3F5683F10D101220368BFF35B8FE9
:1022F00053E8001F002903D143E800200028F7D14C
:10230000BFF35B8F0DD1002008BD094A93420AD06C
:1023100000684FF0FF324FF0FF3303F0A5FE0028B6
:10232000F1D00448F0E70448EEE76FF4E040EBE753
:102330002C5F5CA9E98FFFFFEA8FFFFF08B5D8B1DA
:102340004368B3F5683F10D100220368BFF35B8F89
:1023500053E8001F012903D143E800200028F7D1EA
:10236000BFF35B8F0BD1002008BD074A934208D012
:10237000006803F0F1FEF6E76FF4E040F4E703488D
:10238000F2E70348F0E700BF2C5F5CA9E98FFFFF8D
:10239000EA8FFFFF10B5044618B91D4B1D485B6856
:1023A00098476368B3F5683F2FD0B3F5680F2CD01A
:1023B000194A934219D1236803BB18484FF0FF32E2
:1023C0004FF0FF33214603F021FE08B923681BB903
:1023D0000F4B13485B68984720681422002107F0D0
:1023E0003AFA4FF46863636008E0B3F5683F0DD8CC
:1023F0003A2B03D040F6BA629342DED1206807F050
:102400006EFD636843F03A03636010BD054AF3E76D
:10241000A4020020CCAF00002C5F5CA9C0100020FB
:10242000F2AF00003A00003A08B5064906484023DA
:10243000142207F00EFDBDE808400449044804F0EA
:1024400057BF00BFC00B0020C0100020B4AA00007E
:10245000C8AA000030BFFFF7FDBF00BF074A93685E
:1024600093F90E10002907DB926993421FBF044ABB
:10247000536843F080535360704700BFC81C00206E
:1024800000ED00E070B5264B15469A6A12F0100F69
:102490009A6A14BF1124102412F0080F9A6A18BF08
:1024A0001224920706460AD5586B9A6A140634D548
:1024B00019B19A6A22F080029A62132401E06FF047
:1024C0001500174B9A6A12F0010F9A6A18BF14246C
:1024D00012F0200F9A6A18BF1524D20602D49B6A04
:1024E0009B070AD50E4B5B68190506D5314600F0EF
:1024F00001FB10B180F309880224094B9A6A920605
:1025000042BF5A6A22F400525A629A6A42F0FF02AB
:102510009A6200232B70204670BD6FF01500CCE747
:1025200000ED00E0134B9A6A12F0007F9A6A14BF24
:102530001E201D2012F0807F9A6A18BF1F2012F4FF
:10254000002F9A6A18BF212012F4802F9A6A18BFB0
:10255000222012F4003F9A6A18BF232012F4803F11
:102560009A6A6FEA02426FEA12429A6218BF242006
:10257000704700BF00ED00E010B5194B0246986AA5
:102580009C6A10F4805F14BF1720162014F4006FAB
:102590009C6A18BF1820A40509D5986B986A000496
:1025A00004D51AB19A6A22F400429A6219200C4B9F
:1025B0009A6A12F4806F9A6A18BF1A20D2050CD456
:1025C0009B6A13F4005F18BF1C20054A936A43F40A
:1025D0007F43936200230B7010BD1B20F5E700BF03
:1025E00000ED00E070B5454B5B689CB00546C3F359
:1025F0000803002686F31188BFF36F8F02F07F4037
:10260000B0F17F4F11D102F00C0008280DD0100757
:102610004CBF0D4601260022033B8DF80720032BFB
:1026200005D8DFE803F01E5D615A3546F3E7002464
:102630009DF807309BB96822294602A807F000F9E7
:10264000099B002E54D0C3F3080222B96FEA53232A
:102650006FEA4323099302A9204607F092F81CB0C1
:1026600070BD264BDA6A9107E1D4DA6A002ADEDB14
:10267000DA6A5200DBD55A69A96942F480725A615C
:10268000BFF34F8FBFF36F8F5A6931F8021C22F4EA
:1026900080725A61BFF34F8FBFF36F8F4DF6027296
:1026A00091420AD09A6AD2B24AB10DF107020121D1
:1026B0002846FFF7E7FE0446BAE72C68B8E79A6AAF
:1026C00012F47F4F05D00DF107010120FFF754FFF1
:1026D000F1E79B6AB3F5803FA9D3FFF723FFEAE751
:1026E0000DF107020021E3E70DF107010020EDE7FE
:1026F00023F4FF7323F00103ACE700BF00ED00E01B
:10270000024A536943F010035361704700ED00E043
:10271000EFF30880EFF3098101B57246FFF762FF1E
:1027200001BD00BF002080F31488BFF36F8F02F05B
:10273000DFFF00200D490860BFF34F8F0C4880F386
:10274000088800F02BF8202080F3118809484FF406
:102750000461401880F30988EFF3148002210843D4
:1027600080F31488BFF36F8F00F02EF994ED00E032
:10277000805B0020802900200749D1F890200023A9
:10278000C2F307221846934200DB7047C1F8983025
:10279000C1F8A0000133F6E700ED00E008B572B61D
:1027A000002383F31388FFF7E7FF144B4FF0FF324A
:1027B000C3F88020C3F88420C3F88820C3F88C2095
:1027C000C3F89020C3F89420C3F89820C3F89C2045
:1027D000C3F88021C3F88421C3F88821C3F88C2171
:1027E000C3F89021C3F89421C3F89821C3F89C2121
:1027F00062B6BFF34F8FBFF36F8F08BD00E100E0FB
:10280000084B9B6883420BD1EFF3058343B1064B22
:102810005A6842F080525A605A6A22F400425A6260
:1028200007F045BDC81C002000ED00E0094A936890
:102830006FF00A01D967084998674B6843F08053E5
:102840004B60002383F31188BFF36F8F9368D86FB9
:10285000704700BFC81C002000ED00E010B5114A11
:102860009168034681F8C100EFF31181202181F3C3
:102870001288BFF36F8F906990600B4A4FF0006130
:10288000516090F8C14023F0FF0300221C43836F86
:10289000826783F31188BFF36F8F00F0C5F920467C
:1028A00010BD00BFC81C002000ED00E019498A6877
:1028B00082F8C1E04FF030001044EFF3098C80E85B
:1028C000F01F1EF0100F03D102F1800080EC108A7F
:1028D00074467046FFF7C2FFA6460E498A688646D0
:1028E0001EF0100F03D00023E1EE103A03E002F1D6
:1028F000800090EC108AEFF3148323F0040383F339
:102900001488BFF36F8F02F1300090E8F01F8CF352
:1029100009887047C81C00201EF0040F0CBFEFF39D
:102920000880EFF30980816911F8021C0229FFD0A9
:1029300001B506F02CFF01BD40B2002807DB044AB8
:102940004109012300F01F00834042F82130704705
:1029500000E100E040B200280CDB4309064900F02A
:102960001F0020330122824041F82320BFF34F8F04
:10297000BFF36F8F704700BF00E100E0054B4209D5
:1029800000F01F0053F82220012303FA00F010404A
:10299000704700BF00E100E040B20028A8BF00F18E
:1029A000604001F10101B8BF064B4FEA4111ACBFD5
:1029B00000F5614000F00F00C9B2B4BF195480F8AF
:1029C0000013704714ED00E0144A08B5144B22F0D0
:1029D0007F029A60BFF34F8FBFF36F8FD3F88820C9
:1029E00022F47002C3F88820D3F8882042F4A002B1
:1029F000C3F888204FF04042C3F83422BFF34F8F12
:102A0000BFF36F8F0023E1EE103A03F03BFA04F0BE
:102A1000A7F900F0DFF803F079FA00BF000000002A
:102A200000ED00E0017B890705D5816E40318166AC
:102A3000C16E4039C16642F8203C009B42F81C3C04
:102A40000F49019B42F8183C029B42F8143C21F0CC
:102A500001014FF0807342F8043C42F8081C002347
:102A60008367037B13F0020FA2F120024FF6085395
:102A700008BF4FF47D430265C0F8C030704700BF07
:102A800041920000037B13F0020F194B03D190F821
:102A9000C120D20617D45A6B42F080425A63D0F854
:102AA000C030190709D443F00803C0F8C030836E62
:102AB00040338366C36E403BC366037B43F002032F
:102AC0000373802070475A6B22F080425A63D0F81B
:102AD000C0301A0701D44020704723F00803C0F823
:102AE000C030836E403B8366C36E4033C366F2E7FB
:102AF00000EF00E00C4A03469068A0B1D0F8C02077
:102B0000806E12F0080F0CBF4022802213F1160FC6
:102B100004D0821A9A4205D8834203D2814228BF48
:102B20000020704700207047C81C0020104B9B6895
:102B300083421AD1EFF30580B8B9EFF31181202257
:102B400082F31288BFF36F8F1A7B22F002021A738E
:102B5000EFF3148323F0040383F31488BFF36F8F20
:102B600081F31188BFF36F8F70476FF015007047C6
:102B7000C81C002008B515460E460022E1EE102ABA
:102B8000EFF3148222F0040282F31488BFF36F8FF4
:102B9000BFF36F8F094A906000F046F82C4686F329
:102BA00009884FF00000064B984720464FF000017F
:102BB0004FF000024FF00003024C2047C81C0020D9
:102BC000AD97000041920000014B10221A6170473E
:102BD00000ED00E0044800232021C2180133302B0F
:102BE00082F80013F9D1704700E100E008B5EFF377
:102BF0000583064A103B02EBC30152F833004968D3
:102C00008847BDE80840FFF729BC00BF74A8000052
:102C1000024B034A0348012100F07CB80000042065
:102C200000000020D8AA000010B50446FFF72AFFD4
:102C3000A26E03460548D21AC0E90023044B836004
:102C4000BDE81040012100F06FB800BFDC1000208B
:102C500000000B15084AC2F898000B6823F01F0308
:102C6000034343F01003C2F89C308B6843F0010328
:102C7000C2F8A030704700BF00ED00E02DE9F0433E
:102C8000DFF8608085B00E461F4604464FF000090D
:102C9000B14523DA6068D8B13FB1411E08421BD16B
:102CA0001F2819D92368194216D12368019306F009
:102CB000A0FDA36803430393D8F89050C5F30725FC
:102CC000D0B2013DA84207D801A9FFF7C3FF421CBB
:102CD00009F101090C34DBE76FF01502104605B06D
:102CE000BDE8F08300ED00E0044B0522C3F894201A
:102CF000BFF34F8FBFF36F8F704700BF00ED00E051
:102D0000BFF35F8F024B0022C3F89420704700BFCF
:102D100000ED00E010B5034C01232278FFF7AEFF71
:102D2000207010BD9820002008B50B4A00231278AF
:102D3000FFF7A4FF10F1160F07D0084A0021D2F8C0
:102D40009030C3F30723984200DB08BDC2F8980017
:102D5000C2F8A0100130F2E79820002000ED00E05A
:102D60002DE9F043534B544CD3F890302568C3F30E
:102D700007239D4285B000F29A80FFF7C1FF002033
:102D80000C2685421AD14D4C4D4F25706846FEF7F2
:102D9000A9F9DFF82081DFF82C9106460025AE4224
:102DA00013D1237843490020D1F89020C2F30722A1
:102DB000934276DBFFF798FF002042E0616806FB54
:102DC0000011FFF747FF0130DBE7009800EB05112A
:102DD0004FEA051CCB683B40B3F5000F48D00AD83A
:102DE000B3F5001F30D0B3F5800F36D0B3F5801F98
:102DF00010D00135D3E7B3F1807F42D0B3F1007F2B
:102E0000F7D150F80C3088684A6806F0F2FC40F4BC
:102E1000802009E050F80C3088684A6806F0E9FC28
:102E200040F0885040F43020CDE901230390D8F8D9
:102E300090302078C3F30723013B98422AD96FF0E2
:102E4000150005B0BDE8F08350F80C3088684A687A
:102E500006F0CFFC40EA0900E6E750F80C3088683D
:102E60004A6806F0C6FC40F0007040F40030DBE732
:102E700050F80C3088684A6806F0BBFC40F082705D
:102E8000D2E750F80C3088684A6806F0B2FC40F08F
:102E90008870C9E701A9FFF7DDFE237801332370AD
:102EA000A7E7C1F89830C1F8A00001337CE74FF0E4
:102EB000FF30C6E700ED00E0E4AA00009820002003
:102EC0000000F0FF00000811014B1860704700BFC0
:102ED000700200200E4A0123C2F840354FF08042B4
:102EE0004FF08051C2F87835D1F83001082808D168
:102EF000D1F83411052904D80648415C09B1C2F85B
:102F000038364FF080430122C3F8802500207047F7
:102F100000E001402EB0000020B1034B800143F0DF
:102F200001031847704700BF20AA0000020600F006
:102F30007F0312D5082B05D1010700F00F0306D53A
:102F40000E48704710F0780F12D100F00F034C209C
:102F500000EB43100A4B18447047082B05D10207B9
:102F600000F00F0306D50748704710F0780FF6D031
:102F700000207047044800EB4310704734120020D3
:102F8000E810002054130020541200200149024888
:102F900007F093B8101100203005002001460148C9
:102FA00007F015B8A403002002480022002303F014
:102FB0000FB900BFA403002013B5124800F0D8FEDB
:102FC000114B98421AD1114802F0F4FD0024104828
:102FD00002F036FE0F49104800944FF0FF334FF4D3
:102FE000886203F081FA0D490B4807F088F80C4815
:102FF0000C4907F046F8204602B010BD6FF00400FF
:10300000FAE700BF0D3200000000AD0B42B0000037
:1030100004AB0000002500203005002034B0000083
:10302000101100202933000010B50E49BFF35B8F4B
:10303000002351E8002F012A03D141E80030002885
:10304000F7D1BFF35B8F0CD151F8044C14392046F3
:1030500006F0F9F9783004D12046BDE8104006F0BA
:10306000CEB910BD0811002038B5002464F07F00EF
:10307000C0B2FFF75BFF013406F0FDFB082CF5D171
:103080000E4D0024E0B2FFF751FF036903B905615B
:10309000013406F0F0FB082C05F14005F2D1084898
:1030A00006F0E9FB074BD3F87C2212B9064AC3F8B5
:1030B0007C22064806F0DFFB002038BD7817002090
:1030C00034120020E8100020781300205413002050
:1030D00010B5054CFFF768FF20B14168204606F0A7
:1030E000C6FEF7E710BD00BF0C03002007B50023A4
:1030F0000E48002201A902F089FF90B1FFF7E8FF16
:103100000A480022002301A902F080FF38B9019883
:10311000042340600374FFF741FFFFF737FF0020EF
:1031200001E00198406003B05DF804FB0C0300204F
:10313000022810B511D8094B1C5CFFF7D7FF60B10E
:10314000002202740472FFF729FF054B93F8243024
:103150001BB1BDE81040FFF719BF10BD3FB0000024
:10316000E8100020F8B5877806463846FFF7DEFEFF
:103170003B06F578044612D5002D43D1FFF7B6FF84
:10318000034600283ED00122A57702740322027371
:103190009C60FFF703FFBDE8F840FFF7F7BE4DB1B5
:1031A000012D2FD1FFF7A2FF034658B365770574B1
:1031B0000573EDE7FFF79AFF20B3B278124B12F0D8
:1031C000800F02F0080111D041B1D3F8A836E360B6
:1031D00001230374022303738460DAE702F00F0211
:1031E000142101FB0233D3F80836F0E711B1D3F80C
:1031F000A837ECE702F00F02142101FB0233D3F8E9
:103200000837E4E7F8BD00BF00700240F0B506469D
:1032100089B01422002103A806F01DFB3378013B7E
:10322000052B21D8DFE803F07A0314146A16032370
:103230008DF814300024FFF759FF0346A0B1047441
:1032400000F10802DDE9050182E8030018461DE0EF
:103250000423EDE7B7783846FFF768FE837A044623
:1032600023B1013B022B43D909B0F0BD3B06F578F1
:1032700013D5002DF8D1FFF739FF03460028F3D00E
:103280000122A5770274032202739C60FFF786FE79
:1032900009B0BDE8F040FFF779BE55B1012DE3D18B
:1032A000FFF724FF03460028DED065770574057319
:1032B000EBE7FFF71BFF07460028D5D00123037477
:1032C00002230373846004F10C01B07806F034FB30
:1032D000134AE168B2F88C328B4206D95B1AA2F825
:1032E0008C3201F099F83846D0E7A2F88C52FAE710
:1032F000304609B0BDE8F040FFF734BF01A801F047
:1033000065F89DF80530052B04D19DF8043013F0C5
:10331000600FA9D0034B059301248CE702248AE7B0
:10332000E8100020541200202DE9F043A74CDFF8EC
:10333000A09285B08046FFF737FE064610B905B06B
:10334000BDE8F08394F82530327C3BB9002A00F0C8
:10335000888071689E4806F08AFDECE7042A44D80C
:10336000DFE812F07F000500020118014201337B03
:10337000B568032B39D8DFE803F0023F5C616F6961
:1033800008220021384606F066FA924B9248D3F89C
:1033900080243A70D3F884247A70D3F88824D3F840
:1033A0008C1442EA01227A80D3F89024D3F8941442
:1033B00042EA0122BA80D3F89824D3F89C3442EA36
:1033C00003230822FB803946EA6006F039FA2B68AD
:1033D000687A0021984797F90030002B08DBFB88BA
:1033E00033B1A4F88C3201F017F871684846B2E79F
:1033F0000023A4F88C32F8E76B7F002BF5D02B7FED
:10340000002BF2D000276F774FF0FF3273482F77F1
:103410004FF0FF3306F042FA6B6901936B68CDE918
:10342000023701A9687A00F0F9FC6C4806F038FA16
:10343000DBE72B680121687A9847D6E7AB7A6BB94E
:10344000EB7F5BB965484FF0FF324FF0FF3306F07A
:1034500025FA00F0E7FF614806F022FA2B68022106
:10346000E9E7327A042AC0D8DFE802F0590323677B
:10347000730000F04BFC05460028B6D100F086FB37
:10348000BFF35B8F5649012351E8002F002A03D177
:1034900041E800300028F7D1BFF35B8FA5D141F898
:1034A000085C41F8105CE0696361143905F050FF75
:1034B0009BE7002565F07F00C0B2FFF737FD037A78
:1034C00013B1407A01F012F90135082DF2D194F8C8
:1034D00054311BB194F8550101F008F90025E8B208
:1034E000FFF724FD037A13B1407A01F0FFF80135AC
:1034F000082DF4D194F874321BB194F8750201F0E0
:10350000F5F8002000F0E6FB012384F8253023685D
:10351000002B3FF46AAF00210220984765E70025A1
:1035200084F8255001F048F8FFF77EFD2368002B52
:103530003FF45BAF29460420EFE7002B3FF455AF83
:1035400000F0EEFB2368002B3FF44FAF0021052075
:10355000E3E72268002A3FF448AF002B3FF445AF71
:1035600000210620904740E708F110054FF0FF3397
:103570004FF0FF32284606F091F9FFF775FD284617
:1035800006F08EF958F8283C002B3FF42EAF0021AE
:103590000120C2E794F874327BB1012584F8895286
:1035A00084F88852FFF7A2FD38B10E4A05740573FE
:1035B0008260FFF7F3FCFFF7E9FC58F8283C002B8A
:1035C0003FF413AF00210A20A7E700BFE810002056
:1035D0000C03002000700240EC100020201100209D
:1035E000081100205413002006F0D1FB00F0E4FF86
:1035F00000F0C2FAFFF76CFDFFF736FD06F0C0FBE6
:10360000014800F0B5FBF0E60D32000038B5164D6C
:1036100095F824402CBB05F1380006F060FC2046EC
:1036200001F0BCF922460121E8612720FFF7B4F937
:1036300006F0A6FBFFF718FD044610B9012385F834
:1036400024300A4B1B680BB1FFF7A0FC4FF08043FE
:10365000D3F83834DB0702D50020FFF769FD204698
:1036600038BD0024FBE700BFE8100020A4030020C1
:1036700010B50D484FF0FF324FF0FF3306F00EF952
:10368000FFF726FD00F042FB08B100F095FFFFF7C1
:10369000CBFC06F07CFB0548002480F82440383041
:1036A00006F0FEF8204610BD20110020E810002092
:1036B000074B93F824203AB193F82530002B14BF20
:1036C00000206FF0120070476FF01200704700BFCB
:1036D000E810002038B5104B93F824300446C3B1ED
:1036E00005782846FFF722FC10B96FF0150038BDA9
:1036F000457223798372638843602078618810F073
:10370000080F02D14B1E0B42EFD106F010F900203A
:10371000EDE76FF01200EAE7E810002038B5124B31
:1037200093F824200546CAB193F82530B3B1FFF7CA
:10373000FDFB0446A8B1837A012B12D007D9023BC6
:10374000012B07D96369A3610020E06038BD00F058
:103750006FFEF7E7284600F00DFEF3E76FF012006A
:10376000F4E76FF01500F1E7E810002038B50E4BD4
:1037700093F82420054682B193F825306BB1FFF70A
:10378000D5FB68B115F008040AD1284600F014FEF4
:10379000284600F0E3FF204638BD6FF01200FBE73B
:1037A0006FF01500F8E700BFE810002038B50C4BAB
:1037B00093F8242005460C4662B193F825304BB1AE
:1037C000FFF7B4FB48B144B1284600F0DBFD2070A0
:1037D000002038BD6FF01200FBE76FF01500F8E72E
:1037E000E810002070B5134E96F824300446C3B19B
:1037F000FFF79CFB0546B8B1230705D4204600F02F
:10380000DBFD204600F0AAFF2B7A83B901232B723F
:1038100096F825300BB9002070BD204600F066FFF9
:10382000F9E76FF01200F7E76FF01500F4E76FF0BB
:103830007700F1E7E81000202DE9F043DFF8EC8095
:103840001E4698F8243085B0074689461546002B59
:1038500061D098F82530002B5DD003065ED5FFF7C8
:1038600065FB0446002859D0037A002B56D04FF050
:10387000FF334FF0FF3208F1380006F00FF8A37F56
:103880004BB108F1380006F00BF86FF00A0420463F
:1038900005B0BDE8F083A37AC5B13BB30123A3779C
:1038A0004FF0000801A93846CDE90195CDF80C800C
:1038B00000F0B4FA1B4B984229D084F81E801EBB3E
:1038C0006FF00404184805F0EBFFE0E7E27F02B177
:1038D000E577002BE2D100F0B1FDB842DED000F078
:1038E000A1FD114805F0DCFF0024D0E7B8F80A304C
:1038F000AB42F0D96268B5FBF2F302FB1353002B25
:10390000E9D10123E377E6E7C6F80080D8E706B1FE
:1039100035600024D6E76FF01204B8E76FF01504A5
:10392000B5E700BF0000AD0B20110020E81000201B
:103930002DE9F0411D46204B174693F824200E46F2
:10394000002A33D093F8253083B3030631D401B96C
:103950007FBBFFF7EBFA044658B3037A4BB34FF043
:10396000FF3316484FF0FF3205F098FFE3689F429F
:10397000B84628BF984646B93FB905B12B600F48F5
:1039800005F08EFF0020BDE8F081A1694246304677
:1039900005F056FFA3694344A361E368A3EB080362
:1039A000E360002DEBD0C5F80080E8E76FF012006F
:1039B000E9E76FF01500E6E7E8100020201100208D
:1039C00070B51E4D95F82420034682B395F8252046
:1039D0006AB31B062ED4FFF7A9FA044650B3037A44
:1039E00043B34FF0FF334FF0FF3205F1380005F0DD
:1039F00055FFE368B3B9012663692677A361637F46
:103A000083B1FFF773FB30B905F1380005F048FFCB
:103A10006FF00B0070BD067484600673FFF7BEFA8A
:103A2000FFF7B4FA064805F03BFF0020F2E76FF01D
:103A30001200EFE76FF01500ECE700BFE810002080
:103A40002011002010B5084B93F824300C462BB100
:103A5000FFF76CFA28B10460002010BD6FF012006F
:103A6000FBE76FF01500F8E7E8100020014B186045
:103A7000704700BFE810002008B5074B93F82430CA
:103A800023B1FFF753FA20B1406808BD6FF0120070
:103A9000FBE76FF01500F8E7E81000204FF08053C7
:103AA000D3F83021082A06D1D3F83431052B04D8B5
:103AB000034AD05C7047002070470120704700BF68
:103AC00043B00000064B10F0800FA3F1D80208BFEE
:103AD000134600F00F00182202FB0030704700BFB1
:103AE000901A0020EFF31180202383F31288BFF394
:103AF0006F8F0A4BD3F8001C032261B949F275316C
:103B0000C3F8001CC3F8142DC3F8001C80F31188FF
:103B1000BFF36F8F7047C3F8142DF7E700E006403E
:103B2000EFF31180202383F31288BFF36F8F0A4BCA
:103B3000D3F8001C61B949F27532C3F8002CC3F800
:103B4000141DC3F8002C80F31188BFF36F8F7047EA
:103B50000022C3F8142DF6E700E006404FF0805332
:103B6000D3F83031082B02BF024B0022C3F81C2CC3
:103B7000704700BF00700240024A00231360024AEF
:103B800013707047701B00209D20002008B54A4B21
:103B90004FF40062C3F80024FFF780FF08B1FFF77D
:103BA000A1FF4FF08053D3F83031082B18D1EFF339
:103BB0001180202383F31288BFF36F8F3F4BD3F81C
:103BC000001CC02200296ED149F27531C3F8001CD7
:103BD000C3F8142CC3F8001C80F31188BFF36F8F57
:103BE000354B0122C3F80025D3F800241205FBD57C
:103BF0004FF40062C3F800244FF08053D3F8303103
:103C0000082B17D1EFF31180202383F31288BFF321
:103C10006F8F2A4BD3F8001C002947D149F2753227
:103C2000C3F8002CC3F8141CC3F8002C80F31188CF
:103C3000BFF36F8FFFF732FF30B1FFF771FFFFF770
:103C40002DFF08B1FFF74EFF4FF08053D3F830310E
:103C5000082B194B0AD140F2E372C3F80028402226
:103C6000C3F80428BFF36F8FBFF34F8F8022C3F8D0
:103C70001C250122C3F83025114B40F2FF121A60B7
:103C8000104B00211960104B1970FFF767FF0F4BA5
:103C900019700F4B02221A70FFF700FF50B1BDE8F8
:103CA0000840FFF73DBFC3F8142C95E70022C3F886
:103CB000142CBBE708BD00BF0070024000E00640C6
:103CC0006C1B0020681B0020992000209B200020F6
:103CD0009D200020094B002210B51A70084A094B9C
:103CE000094C002808BF1346C4F800332720FEF70C
:103CF00023FE0123C4F8043510BD00BF9C20002022
:103D0000FDFFDF01FDFFFF0100700240034B18784B
:103D1000012894BF00200120704700BF9D20002093
:103D200010B5EFF31181202383F31288BFF36F8F57
:103D30000D4B1B7803F0FF0083B10C4BD3F800242C
:103D400012F400720AD10124C3F82C45D3F82C4593
:103D5000D3F80044A40502D5C3F82C25002081F334
:103D60001188BFF36F8F10BD9C20002000700240AF
:103D7000F8B51C4B1C7894BB1B4A106001221A70CA
:103D800040F2FF17264664F07F0514F0080FEDB2ED
:103D900014BF39464021284605F0C9FD2846FFF7E3
:103DA00091FE0134092C867506730661EBD100245F
:103DB00040F2FF17254614F0080FE6B214BF39464B
:103DC0004021304605F0B3FD3046FFF77BFE01345D
:103DD000092C857505730561EDD10448F8BD0448CB
:103DE000FCE700BF9D200020701B00200000AD0BF1
:103DF0000500AD0B084B10F0800F00F00F0114BF51
:103E0000D3F81025D3F8142501238B40134214BF97
:103E100001200020704700BF007002402DE9F843E8
:103E20000246EFF31187202383F31288BFF36F8FCD
:103E3000030703D1184B1B78834229D1174B184E27
:103E40001C683568104605F06AFDE443A4B24FF0E3
:103E500001092C4309FA00F814EA08041AD11046A3
:103E6000FFF730FE80F80C90034607C91C6183E819
:103E700007009C750B4B0C4845EA0805802235600D
:103E8000C3F8042187F31188BFF36F8FBDE8F8836F
:103E90000648F7E70648F5E79B2000206C1B00204A
:103EA000681B002000E100E00000AD0B0A00AD0B34
:103EB0000B00AD0B10F0080F074B06D0D3F8C00471
:103EC00010F4803F18BF0020704700F00F0000F58D
:103ED000947053F820007047007002402DE9F74FAE
:103EE000A84BD3F8604134B10022C3F86021D3F865
:103EF0006C44C3F86C44D3F828214AB10022C3F8BB
:103F00002821A14B187805F00AFD012383401C43AA
:103F10009E4F9F4E3D7897F9008015F0080143D1E0
:103F2000B8F1000F05F00F032EDA9A4A52F8230079
:103F300020B342F823101422534303F1804303F5C6
:103F40001C33D3F80836944A117803F001034B4030
:103F50001370FFF703FE914802F06CF92846FFF753
:103F6000B1FD837D032B37D1284605F0D8FC012312
:103F700003FA00F0336823EA00033360DFF82C9281
:103F8000DFF8208201255FE0854A52F823000028EF
:103F9000F4D042F823101422534303F1804303F575
:103FA0001C33D3F80837CEE7B8F1000F754B09DBA7
:103FB000D3F85021002AE1D00022C3F85021D3F8D1
:103FC000A837C0E7D3F82C21002AD7D00022C3F8A5
:103FD0002C21D3F8A836B6E7037BDBB9284605F0D9
:103FE0009EFC012303FA00F03368B8F1000F23EAC6
:103FF0000003336001DA882DC0D106238DF8043028
:1040000000238DF80730674B8DF806501B6801A818
:104010009847B3E7002DB1D15A4B0122DA64ADE7DE
:1040200094FAA4F0D9F80020B0FA80F005FA00F371
:104030001A430F28C9F8002024EA0304326840F329
:10404000B780134200F0C580002CE9D14D4BD3F866
:1040500000215AB1C3F80041534B1C704A4B1C70ED
:10406000012301934F4B01A81B689847454BD3F898
:104070005421EAB10022C3F85421D3F80413890271
:1040800016D58DF80420D3F82025ADF80620D3F8F6
:10409000C034002BD9F8003014BF4FF001224FF488
:1040A00080721343C9F800303E4B01A81B68984743
:1040B000344BD3F85821002A2ED00022C3F85821BF
:1040C000D3F80044C3F80044E30508D5364B012279
:1040D0001A7002230193334B01A81B689847A5056A
:1040E00008D5314B00221A70032301932D4B01A8F0
:1040F0001B68984760050FD52B4B1A7862B10022D8
:104100001A70204B0122C3F808259A6504230193F5
:10411000244B01A81B6898471A4BD3F85C310BB3AA
:104120001E4B9B6813B93B7859061BD0154B0022D8
:10413000C3F85C21D3F88034134A23F07F03137053
:10414000336823F001133360D9F8003023F480334F
:1041500043F00103C9F8003005230193114B01A876
:104160001B6898473268D9F800301A4207D00B48CC
:104170000022002302F082F8002800F09F8003B0A4
:10418000BDE8F08F007002409B2000209A200020A4
:10419000681B002008710240992000208C03002039
:1041A00030710240701B00209C2000206C1B0020FE
:1041B00013407FF449AF062260F07F018DF80420A0
:1041C0008DF806108DF80730D8F8003001A8984710
:1041D0003AE70623A0F110018DF804308DF806109F
:1041E0008DF80750F0E718F0012314BF93FAA3F8F5
:1041F00098FAA8F8B8FA88F8B8F10F0F18D9A8F10A
:104200001005EDB22846FFF75DFC04462846FFF78F
:1042100051FE6368B4F814C02268984230D81B1A63
:1042200000EB020E11466360C4F800E082462AE00B
:1042300048F080052846FFF745FC4368B0F814A015
:1042400001689A4528BF9A4601F06043B3F1005FC8
:10425000044604D04348524605F0F2FA4149226828
:10426000636852442260A268A3EB0A03D20768B2D3
:10427000636033D5BAF1000F32D1002323732FE0EE
:1042800011464FF0000A604525D1003B18BF0123BD
:104290001AB3504521D9012303FA08F32BEA03038B
:1042A000336006238DF804302F4B8DF80650022220
:1042B0001B68A2758DF8072001A89847D6F800B0B2
:1042C000D9F800301BEA03088DD1284803B0BDE8B7
:1042D000F04F01F0AFBF0023DAE768B2002BCCD07B
:1042E0004FF08053D3F83031082B02BF204B82228D
:1042F000C3F81C2CD9F800303D70012202FA08F8EE
:1043000023EA0803C9F80030236915F0080F534465
:104310002361174B17D1002805F00F054FF014004B
:1043200000FB0530B5BF03EB85030A35C0F8001666
:10433000C0F80017B5BFC0F804A6C0F804A75A60BB
:1043400043F825201BE70028B5BFC3F8A016C3F823
:10435000A017C3F8A4A6C3F8A4A7B4BF5A629A646E
:104360000DE700BF78190020701B00208C0300208F
:1043700000700240024B40F48070C3F8180570478B
:1043800000700240030713D400F00F0310F0800FF9
:10439000084A0BBF03F5887303F5847302EB8302AD
:1043A00052F8230008BF5068003818BF012070473A
:1043B0000020704700700240034BC3F80C0540F426
:1043C0008070C3F80C0570470070024010B50822D9
:1043D0000021044605F03FFA0E4BD3F880242270EA
:1043E000D3F884246270D3F88824D3F88C1442EA7A
:1043F00001226280D3F89024D3F8941442EA012277
:10440000A280D3F89824D3F89C3442EA0323E380B3
:1044100010BD00BF00700240014B0122DA647047FA
:1044200000700240014B01221A6570470070024083
:10443000014B01225A65704700700240014B187809
:10444000704700BF9B20002010B50246EFF3118497
:10445000202383F31288BFF36F8F05F060FA0B49B6
:10446000012303FA00F00B6823EA00030B6012F04B
:10447000080101BF02F00F02054B02F5947243F8E8
:10448000221084F31188BFF36F8F10BD6C1B0020C6
:1044900000700240F7B50146EFF31185202383F346
:1044A0001288BFF36F8FFFF70DFB0646084605F035
:1044B00036FA012211F0800F02FA00F22D4818D1CD
:1044C000036832EA03040AD00846FFF7BDFF03235E
:1044D000B37585F31188BFF36F8F03B0F0BD264924
:1044E000347323EA020303600B6823EA02030B60C0
:1044F000EDE70B0715D48029204B2FD001F00F04D6
:1045000004F2DA346400C3F80048D3F80448D3F85E
:104510000478E4B244F002043C43C3F80448D3F8FE
:104520000438154F04683B6864EA030C1CEA020F68
:10453000CFD013433B60002333730323B3758DF84F
:1045400007300F4B8DF8061024EA0204062204609F
:104550001B688DF8042001A89847BAE740F2B474AC
:10456000C3F80048D3F80448D3F80478E4B244F020
:104570000404D1E7681B00206C1B0020007002407F
:10458000701B002038B50446094D4FF0FF324FF044
:10459000FF33284601F072FE2046FFF77BFF2846D6
:1045A00001F048FE034B8022C3F8042138BD00BF50
:1045B0008C03002000E100E0F8B54FF0FF324FF02F
:1045C000FF332B4801F05AFE2A4B8022C3F8842186
:1045D0002720FEF7D3F998B1274E284B34681B6883
:1045E000240C24041C43012764BB254D40F2FF1317
:1045F00033602720C5F80445FEF7ACF9C5F8004341
:10460000204A13788BB11E4B0021C3F808110121F9
:10461000C3F80026C3F804165960D3F8081100291E
:10462000FBD00021C3F808111170154B0022C3F80C
:104630000025FFF793FA0E4801F0FCFD124B012212
:104640001A70F8BD94FAA4F5B5FA85F50F2D284631
:10465000C6BFA5F11000C0B240F08000030701D42E
:10466000FFF718FF07FA05F524EA0504BCE700BFC9
:104670008C03002000E100E06C1B0020681B002080
:1046800000700240992000209D20002010B50446B3
:104690004FF0FF324FF0FF33114801F0EFFD20469D
:1046A000FFF7F8FE04F00F02012393400D4A14F0C7
:1046B000800F14BFD2F81015D2F814156FEA030357
:1046C00015BF0B400B40C2F81035C2F81435044832
:1046D00001F0B0FD044B8022C3F8042110BD00BFDF
:1046E0008C0300200070024000E100E070B5044639
:1046F000FFF780FB68B904F00F02012514F0800F6A
:10470000144B05FA02F205D0D3F810150A43C3F88A
:10471000102570BDD3F814150A43C3F81425631E81
:10472000062BF6D8EFF31186202383F31288BFF30C
:104730006F8F2046FFF788FE204605F0F0F8064A06
:104740001368854023EA0503136086F31188BFF3DD
:104750006F8FDEE700700240681B0020030610B573
:10476000044605D4FFF70EFE10B12046FFF76CFE9D
:10477000014BC3F8184510BD00700240084B70B5DE
:10478000C31A0D4607499B10044659430648402268
:1047900005F0F1F82B4601462046BDE87040184769
:1047A000881B0020B76DDBB638A8000073B50C4C31
:1047B0000C4A4023041B00930D460B460A49A410E3
:1047C00061430646094805F001F9011E05DA304645
:1047D0002B4602B0BDE87040184702B070BD00BF64
:1047E000881B0020359A0000B76DDBB638A80000A2
:1047F00010B5EFF31184202383F31288BFF36F8F7A
:10480000074A136823F00201DB07116002D401207C
:1048100005F09AFA84F31188BFF36F8F10BD00BFC3
:10482000D81B0020002270B5012104461046FEF777
:10483000B3F80F4801F0D4F80E4B984215D101F0AF
:10484000DFF826690C49304604F06FFD00280BDBC9
:10485000012535642469084904F11C0004F065FD54
:10486000002801DBE564002070BD6FF00400FBE769
:10487000814900000000AD0B08AB00007FB50022AD
:104880000123CDE9022304ABCDE90433094ACDF875
:1048900000D06B46CDF804D005F0C5F8002805DB44
:1048A0004FF480420023684601F0E8FC07B05DF851
:1048B00004FB00BF559A000030B4104B0C2202FBE1
:1048C000003301460020D3E90E529863EFF31180C4
:1048D000202484F31288BFF36F8F1C6C04F0C00493
:1048E00044F002041C6480F31188BFF36F8F1DB184
:1048F0002B46034830BC184730BC7047881B00204B
:1049000038A8000010B4EFF31182202383F312883B
:10491000BFF36F8F1848016841F002040460C807B4
:1049200008D482F31188BFF36F8F01205DF8044B28
:1049300001F07EB84FF08041D1F80C04D1F80C148E
:10494000C907EED5EFF3118083F31288BFF36F8FA1
:104950000A490B6C03F0C00343F002030B6480F3BD
:104960001188BFF36F8F82F31188BFF36F8F002020
:104970005DF8044BFFF7A0BFD81B0020881B002068
:1049800010B1012804D07047034B1B6C5B0701D1A9
:10499000FFF792BF704700BF881B0020024AC3B2D6
:1049A0001C2003FB00207047881B00202DE9F041EC
:1049B0003849BFF35B8F0746012251E8003F41E8C9
:1049C00000200028F9D1BFF35B8F33B93249334857
:1049D0004B60CB608A6004F0BBFC7B1E012B2BD8A4
:1049E000012F07D14FF08043D3F81C3403F00303A9
:1049F000012B21D005F07DFB0546F8B9284B1B782B
:104A0000E3B14FF080430222C3F808230646DFF8E3
:104A100094804FF08044D4F81824D4F81834D2038A
:104A200015D503F00303012B01D0012F0FD155B38E
:104A300086F31188BFF36F8FBDE8F081EFF3118625
:104A4000202383F31288BFF36F8F0125DFE7ADB119
:104A5000304604F0BFFED4F81835002BDBD1D4F873
:104A60000421002AD7D0C4F80431D4F8043101233A
:104A7000C4F81835C8F88031A360CCE700212120A4
:104A800002F094F8E7E74FF080430222C3F80423D2
:104A9000D2E700BF841B0020741B0020A41B002051
:104AA000B324002000E100E008B5074805F089F9CB
:104AB00038B10648FEF708FA0448FBF7DDFF00208E
:104AC00008BD6FF01200FBE74CA80000D14A0000BF
:104AD0000A2838B5074D044604D1AB680D215B6840
:104AE00028469847AB6803485B68E1B29847204680
:104AF00038BD00BF4CA80000024B0B6001231360BF
:104B0000704700BFDC1B0020004870475CAB000012
:104B100010B5012211460648064C05F063FA05F06F
:104B20001FF9206005F018F96060002010BD00BF7B
:104B3000E41B0020DC1B00204FF08042D2F810154F
:104B4000D2F8103501F01E0123F01F030B4343F090
:104B50000103C2F81035024B00221A70704700BFE3
:104B60009E2000204FF08053D3F83031082B20D105
:104B70004FF08042D2F81015CB071AD5D2F8103575
:104B800001F01E0123F01F030B43C2F81035D2F8C9
:104B900008315BB1D2F8103523F01F030B4343F00B
:104BA0000103C2F810356FF08B007047024B0122F1
:104BB0001A700020704700BF9E2000202DE9F041B0
:104BC0000D46164605F0C8F831460746284604F05B
:104BD00044FF78B3B5FBF7F307FB135353BBB6FBA6
:104BE000F7F407FB14642CBBB7421DD84FF0FF321B
:104BF0004FF0FF331148DFF8488001F03FFB05F02C
:104C0000ABF80746FFF7AEFF044680B9284600F030
:104C1000A3FF98F800300BB1FFF78EFFF61B3D4461
:104C2000F0D1064801F006FB2046BDE8F0816FF0A8
:104C30008B04F6E76FF01504F6E700BFE41B0020D5
:104C40009E2000202DE9F8430E46304619461746AF
:104C50001C4604F002FF88B344EA060515F003057C
:104C60002CD1BCB11748DFF864904FF0FF324FF001
:104C7000FF3301F003FB24F00304AC4206EB05080C
:104C80000BD1114AD2F80034DB07FBD500240D48C4
:104C900001F0D0FA2046BDE8F883FFF763FF50B972
:104CA0007959404600F078FF99F800300BB1FFF7D2
:104CB00043FF0435E1E76FF08B04E8E76FF015047C
:104CC000E8E700BFE41B002000E001409E20002038
:104CD000036803F01F025B09026004D0012B034844
:104CE00018BF002070474FF0A040704700030050ED
:104CF0002DE9F04FDFF89491DFF894A185B01546C7
:104D0000834600EB810140F2FF18594503D1002092
:104D100005B0BDE8F08FDBF800305E04C3F3C322BA
:104D2000C3F3080400F1AC805B0C19F80270444531
:104D300008BF4FF0FF34222B00F2A580DFE803F01C
:104D400012191F22252B22A3A3A3A33B68A3A3A36D
:104D5000A3A3A3A3A3A36B818487A3A3A38A9194F2
:104D6000979A9D00C5F80C45601C5ED10BF1040BB1
:104D7000CBE7C5F81445621CF8D000265FE0C5F803
:104D80000845F1E7C5F81045F5E7631CC5F8084587
:104D9000ECD0002604E0661CC5F80C45E6D00126E0
:104DA00003A80394FFF794FF039B012202FA03F385
:104DB000C0F80C3508E0C5F80845002FDBD1631CAE
:104DC000D4D0002632460627DBF80030019303F4E6
:104DD0000040002818BF002203A8009218BF012637
:104DE0000394FFF775FF039C019B009A00EB84007E
:104DF000C3F3412CD0F800473B0243EA8C03134332
:104E000004EA0A04234343EA4603C0F80037ADE747
:104E1000C5F80C45D1E7C5F86045601CDBF80030EB
:104E2000A4D0C3F30043002BB9D003A80394FFF729
:104E30004FFF039B012606FA03F3C0F808353246FC
:104E4000C2E7C5F86445E8E7C5F86845E5E7C5F891
:104E50006C45E2E7C5F82445621C87D00022012694
:104E6000B2E7C5F828457FE7C5F83045F4E7C5F84F
:104E70003445F1E7C5F83845EEE7C5F83C4573E73A
:104E80006FF0150044E76FF0850041E77EB0000049
:104E9000F0F8FCFF2DE9F74306460022012102202D
:104EA000FDF77AFD0220FDF747FD776835693C681C
:104EB0004FF00008C4F800852E60D7F80C9001AAC6
:104EC0004146484604F065FE002839DB019BD9F8CD
:104ED000002019791868FFF70BFF002830DB6B7A88
:104EE000D6F810C0012B03D0032B27D14FF01008A8
:104EF000AB7A032B22D1E97A09B101291ED12A7A92
:104F000012B1022A1AD10E226B687068B3F5164FDF
:104F1000006800F0B28034D8B3F5165F00F0B080BE
:104F20001AD8B3F5966F00F0AD800CD8B3F5967F24
:104F300000F0AB80B3F5167F00F0AA806FF085001B
:104F400003B0BDE8F083B3F5166F00F0A480B3F5AD
:104F5000965FF3D15C4B43E0B3F5E14F00F09E80E8
:104F600008D8B3F5615F00F09B80B3F5964FE5D1AB
:104F7000564B35E047F6122E7345DFD14FF4000350
:104F80002EE0B3F5613F00F08D8015D8B3F5963F64
:104F900000F08B800AD84DF6C02E734500F0878054
:104FA000B3F5614FCAD14FF46B0319E0B3F5E13F9C
:104FB000C4D14FF0EB7313E0B3F5612F7AD009D869
:104FC000DFF820E1734578D0B3F5E12FB6D14FF08B
:104FD000E86305E0DFF810E17345AFD14FF080538F
:104FE000C0F82435736841EA08011B680A43C3F816
:104FF0006C25D5E901010CF1040383E803007B680B
:10500000990712D505F1180000F074FE304B984254
:1050100056D1287E04F10C0204F5907104F08AFE4A
:105020002B7E0120984000F073FC0823C4F8003563
:105030003B7A53B9C4F81031D4F810316B69C4F815
:1050400034350123C4F8383523607B689A075CBF88
:105050004FF48073C4F804337B68DB0644BF4FF41D
:105060008003C4F804332B69C4F8443500200123BD
:10507000C4F84805A360E36062E74FF41D03AFE79F
:10508000144BADE74FF49E23AAE74FF4A033A7E7F4
:105090004FF41C33A4E74FF41D23A1E70E4B9FE709
:1050A0000E4B9DE74FF06C739AE70D4B98E74FF46A
:1050B000650395E74FF0706392E74FF080638FE7E9
:1050C0006FF004003CE700BF00B0130000A04E00EA
:1050D0000000AD0B0050270000C0750000F03A0042
:1050E00000903A0190D0030040420F002DE9F041BA
:1050F000044607690D4604F0FCFF4FF02008B0B9E4
:105100002C4B1B789BB16426606804F070FDF0B9ED
:10511000012004F00DFE013EF6D10021212001F016
:1051200045FDF0E786F31188BFF36F8FF5E7EFF3E6
:105130001186314688F31288BFF36F8F606804F0E0
:1051400056FD80B986F31188BFF36F8FEFE7EFF359
:105150001186314688F31288BFF36F8F606804F0C0
:1051600046FD0028DED03B691D706268386913680F
:10517000C3F844050120C3F848050020C3F8200106
:10518000D3F82051C3F858015268D3F85801D20619
:1051900008D5626812680820C2F800054FF4800242
:1051A000C3F8042301229A6081F31188BFF36F8F43
:1051B000BDE8F081B324002070B5012383400E4A7E
:1051C000BFF35B8FDC4352E8001F01EA040542E8AD
:1051D0000056002EF7D1BFF35B8F4FF48032824030
:1051E0000648C0F80823BFF35F8FBFF36F8F0B42F1
:1051F00014BF0120002070BD001C002000100140E1
:1052000070B40E49D1E90034D01AC31844F1000437
:1052100022F07F46C1E90034A6F50013B3F5400F34
:1052200009D2074B1B681A0A1B069C19054B42F151
:105230000005C3E9004570BC01F06CBE28060020E3
:10524000041C00203006002011B3BFF35B8F012344
:10525000104A834052E800CF4CEA030C42E800C1F8
:105260000029F7D1BFF35B8F0B4A4FF480338340A3
:10527000C2F80433094BBFF35B8F1B68BFF35B8F2E
:10528000C340DB0742BF064B4FF40032C3F8002196
:10529000704700BF001C002000100140FC1B0020D4
:1052A00000E100E00D4B1868010A0006BFF35F8FB4
:1052B0000B4BD3F80435181841F10001B3F5801FEA
:1052C0000AD2084BD3E90023904271EB030303D2C7
:1052D00010F1807041F10001704700BF041C0020F4
:1052E00000100140300600202DE9F04F85B0164631
:1052F0001F469DF840A00446FFF75EFF0190FFF7B0
:10530000D1FFB04271EB070354D23E4B301A67EB2A
:105310000101984271F100014FD23B4B03EB0413A2
:10532000D3E902239F4208BF96425ED037494FF42B
:10533000803804F1500508FA04F8AD00C1F848833C
:105340002046ADB204F09AFC26F07F4B05F1804573
:1053500004F5A87305F58835DC464FF00309029380
:10536000029A2CF07F4341F82230C1F84483D1F8EF
:105370000435274A6FF00200C01A604420F07F40D5
:10538000904232D9286868B1D1F804350393A3EB71
:105390000B0020F07F40B0F5000F26D9204604F026
:1053A0006DFC039BBAF1000F07D109EB030C09F167
:1053B0000109D5E7BAF1000F09D06FF015052046B5
:1053C0000199FFF741FF284605B0BDE8F08F0123A2
:1053D000104ABFF35B8FA34052E8000F184342E826
:1053E00000010029F8D1BFF35B8F07490E98230114
:1053F00001EB0412C8500F9B5360C2E902670025FD
:10540000DDE700BF01008000180600200010014009
:10541000FDFF7F00FC1B00207FB51C4C1C4BC4F81B
:105420000833C4F848331B4B00254FF0FF304FF0D2
:10543000FF31C4F80855C3E902014FF48033C4F8C2
:105440000433154B02264FF400320121C4F80463E3
:105450001120C3F880212A46FDF79EFA1120FDF79E
:105460006BFA0E4A0123A360236013600C4B0D4AB4
:105470000093CDE9015500232846FFF735FF30465C
:10548000FFF794FA284604B070BD00BF0010014039
:1054900003000F001806002000E100E0001C0020BF
:1054A00001520000FFFF7F002DE9F7432F4CD4F895
:1054B000043399070BD5D4F8043143B12C4A0023A7
:1054C000C4F80431D4F80431136801331360D4F8FC
:1054D0000433DA0329D5BFF35B8F264B53E8002F43
:1054E00022F0010143E800100028F7D1BFF35B8FE1
:1054F000D30702D4D4F84031BBB10025C4F84051E1
:10550000D4F84031FFF7CEFEEFF31182202383F36E
:105510001288BFF36F8F184BD3E90267B042B941CD
:1055200006D282F31188BFF36F8F03B0BDE8F0831A
:105530004FF0FF384FF0FF39C3E90289D3E900107B
:105540001D604FF48033C4F84833C4F84051D4F898
:10555000403182F31188BFF36F8F0029E5D00090AE
:1055600032463B4628468847DFE700BF001001402F
:10557000041C0020FC1B00201806002030B5431C32
:10558000124C85B005D08442A8BF0446012CB8BF98
:105590000124FFF787FE0E4B0C4DD3E90013401A90
:1055A000B0F5000F10D22218AA4228BF2A4652187E
:1055B0004FF0000007490091CDE9010043F10003DD
:1055C000FFF792FE05B030BD2A46F0E7FFFF7F00EF
:1055D000280600200152000008B5FFF763FE024BC9
:1055E0001B68C01A08BD00BF2806002010B5084C73
:1055F000012363601120FDF7ADF9064BC4F80833B1
:10560000C4F84833044B4FF40032C3F8802110BD76
:105610000010014003000F0000E100E030B50C492C
:105620000C4D0B680246002405EB0310D0F8080867
:10563000C0B218B904B10B60002007E00133072B9A
:105640004FF00104F0D90B606FF01B00136030BD08
:10565000081C002000E0014038B50A460C46202313
:105660000021054603F046FF28B11048452103F00C
:1056700033FF012038BD22680D4B9A4205D00D48FA
:10568000452103F029FF0320F4E72369DB0604D555
:105690000948452103F020FFF5E7E26823899B18BC
:1056A000F1D2AA689342E5D3EDE700BF94B00000C1
:1056B0003DB8F396B5B00000D0B000004FF0805375
:1056C000D3F83021082A06D1D3F83431052B02D87B
:1056D000024AD05C70470020704700BFEEB0000067
:1056E000024AD2F80034002BFBD0704700E00140A2
:1056F00010B54FF08053D3F83021082A4ED14FF027
:1057000080420021C2F80C11C2F81011C2F83815FD
:1057100002F54042D3F80414C2F82015D3F8081457
:10572000C2F82415D3F80C14C2F82815D3F81014B5
:10573000C2F82C15D3F81414C2F83015D3F8181485
:10574000C2F83415D3F81C14C2F84015D3F820144D
:10575000C2F84415D3F82414C2F84815D3F8281415
:10576000C2F84C15D3F82C14C2F85015D3F83014E5
:10577000C2F85415D3F83414C2F86015D3F83814AD
:10578000C2F86415D3F83C14C2F86815D3F8401475
:10579000C2F86C15D3F84434C2F87035FFF78EFFA9
:1057A00018B1414B414AC3F88C26FFF787FF18B167
:1057B0003F4BFB22C3F81825FFF780FF70B14FF075
:1057C00080414FF08053D1F8E42ED3F8583222F0C4
:1057D0000F0203F00F031343C1F8E43EFFF76EFF1F
:1057E00020B1344B4FF40072C3F840264FF0805381
:1057F000D3F83031082B09D14FF08043D3F800247F
:10580000D20744BF6FF00102C3F800242A4AD2F83D
:10581000883043F47003C2F88830BFF34F8FBFF372
:105820006F8F4FF08053D3F83021082A0ED1D3F870
:105830003431052B02D8214AD35C3BB14FF0102301
:10584000D3F808224FF08043C3F858254FF01023B7
:10585000D3F80022002A03DBD3F80432002B22DA2B
:10586000174901234FF01020C1F804351224FFF727
:1058700037FFC0F80042FFF733FFC0F80442FFF7DC
:105880002FFF0023C1F80435FFF72AFFBFF34F8F26
:1058900009490C4BCA6802F4E0621343CB60BFF3C2
:1058A0004F8F00BFFDE710BD00500040488103004E
:1058B00000F000400090024000ED00E0E8B0000081
:1058C00000E001400400FA0530B50468CCB1BFF334
:1058D0005B8FB4FA84F3C3F11F03DBB201229A4059
:1058E00024EA020250E8005FA54204D140E8002CFF
:1058F000BCF1000FF6D1BFF35B8FE6D102480B700D
:1059000030BD0248FCE700BF0000AD0B0200AD0B4C
:10591000014BC3F80405704700F00140F7B5044699
:1059200018B1012823D003B0F0BD4FF0804302220C
:10593000C3F808230122DA60C3F80401D3F8043164
:10594000064601238DF8073042F210754FF080476C
:10595000D4B1012CE7D1D7F80C3403F48033AEBBBB
:1059600083B3012004F0E4F9013DF4D12AE04FF0C3
:1059700080430022C3F808035860C3F80021D3F81D
:1059800000310DF10706DCE7D7F8183403F4803353
:105990003EB9002BC7D0012004F0CAF9013DF3D174
:1059A000C1E7D7F8182402F003023260002BBAD006
:1059B0009DF80700012803D104F0BAF9013DC7D1D1
:1059C000012CB0D1054B00225A71ACE7D7F80C245A
:1059D00002F001023270002BEAD1F3E70C1C002028
:1059E000044B1A7922B9012218609A800248704744
:1059F000024870470C1C00200000AD0B0C00AD0BE2
:105A000008B5094B1B682BB10020FCF7B7FF08B99C
:105A1000FCF792FF4FF080430022C3F81825034B98
:105A200001221A7008BD00BF0C1C0020A12000201C
:105A300010B510B1012843D010BD4FF08043D3F80A
:105A40001814D3F81824C80321D502F00303012B3E
:105A500004D013B10020FFF761FF00234FF0804214
:105A60000220C2F8183508224FF4827303F18043F4
:105A70000021196002F180421C6801241460154A5B
:105A800012680AB34FF08043C3F80403D4E7D3F895
:105A90001424D107E1D5D3F81C249207DAD40D4A97
:105AA00012681AB10222C3F80423C5E7D3F804210F
:105AB000002AFBD00022C3F80421D3F80431BBE74D
:105AC00000224FF48073D1E71A68002AFCD01960D5
:105AD0001B68B1E70C1C002010B54FF08043D3F8D1
