:020000040000FA
:10000000006D0020C92700000B980000B5270000F4
:10001000B5270000B5270000B5270000B527000070
:10002000000000000000000000000000692900003E
:10003000B52700000000000029290000B5270000B6
:10004000E52A0000E52A0000E52A0000E52A000074
:10005000E52A0000E52A0000E52A0000E52A000064
:10006000E52A0000E52A0000E52A0000E52A000054
:10007000E52A0000E52A0000E52A0000E52A000044
:10008000E52A0000E52A0000E52A0000E52A000034
:10009000E52A0000E52A0000E52A0000E52A000024
:1000A000E52A0000E52A0000E52A0000E52A000014
:1000B000E52A0000E52A0000E52A0000E52A000004
:1000C000E52A0000E52A0000E52A0000E52A0000F4
:1000D000E52A0000E52A0000E52A0000E52A0000E4
:1000E000E52A0000E52A0000E52A0000E52A0000D4
:1000F000E52A0000E52A0000E52A0000E52A0000C4
:10010000E52A0000E52A0000E52A0000E52A0000B3
:10011000E52A0000E52A0000E52A0000E52A0000A3
:10012000E52A0000E52A0000E52A0000E52A000093
:10013000E52A0000E52A0000E52A0000E52A000083
:10014000E52A0000E52A0000E52A0000E52A000073
:10015000E52A000053B94AB9002908BF00281CBF8E
:100160004FF0FF314FF0FF3000F00CB8ADF1080C4C
:100170006DE904CE00F008F8DDF804E0DDE90223C3
:1001800004B07047704700BF2DE9F04786468C46A3
:100190000846089E154674461946002B40F0C1805B
:1001A0008542B2FA82F245D94AB1C2F1200300FA7F
:1001B00002FC954094402EFA03F343EA0C0C4FEAFC
:1001C000154EA8B2230CBCFBFEF80EFB18CC08FBA6
:1001D00000F943EA0C43994528D9EB1808F1FF3799
:1001E00004D2994502D9A8F102072B44A3EB0903D5
:1001F000A4B2B3FBFEFC0EFB1C330CFB00F044EA84
:100200000344A04214D92C190CF1FF3304D2A042AC
:1002100002D9ACF102032C44241A43EA07401EB170
:10022000D440002334607360BDE8F0874746DDE7C3
:100230006346F1E792BB431B01214FEA154EAFB273
:10024000200CB3FBFEFC0EFB1C330CFB07F840EA52
:100250000343984561D9EB180CF1FF3004D298455F
:1002600002D9ACF102002B44A3EB0803A4B2B3FB08
:10027000FEFC0EFB1C330CFB07F744EA0344A742C9
:100280004DD92C190CF1FF3304D2A74202D9ACF19D
:1002900002032C44E41B43EA0040C0E7C2F1200300
:1002A0009540944020FA03F12EFA03F34FEA154EDD
:1002B0009040AFB20343B1FBFEFC0EFB1C10190CC7
:1002C0000CFB07F841EA0041884522D969180CF176
:1002D000FF3004D2884502D9ACF102002944A1EBD9
:1002E00008019BB2B1FBFEFC0EFB1C110CFB07F7D7
:1002F00043EA01439F420ED9EB180CF1FF3104D2BF
:100300009F4202D9ACF102012B44DB1B41EA0041C0
:1003100093E76046E3E76146F7E76046A4E7634694
:10032000B8E7834206D916B9002108467CE7C6E93A
:1003300000E0F9E7B3FA83F78FB9834201D372453E
:1003400008D8BEEB020460EB030301209C461EB9F3
:10035000002169E73846FAE7C6E9004CF8E7C7F13B
:10036000200CBB400EFA07F522FA0CF42EFA0CF121
:10037000BA401C4320FA0CF3B8404FEA1449014339
:100380001FFA84FEB3FBF9F809FB18300B0C08FBCD
:100390000EFA43EA00439A4540D9E31808F1FF30CA
:1003A00004D29A4502D9A8F102002344A3EB0A0320
:1003B00089B2B3FBF9F809FB183308FB0EFE41EADA
:1003C00003418E452CD9611808F1FF3304D28E45C4
:1003D00002D9A8F10203214443EA0040A1EB0E0137
:1003E000A0FB02984145CE46434602D306D14D4577
:1003F00004D20138B9EB020E68EB0403002EA7D03B
:10040000B5EB0E0261EB030101FA0CFC22FA07F3D3
:10041000F9404CEA0303C6E9003199E74046C5E7D5
:100420004346D9E7F0B5444B444A4548C2F8003644
:10043000C2F80436C2F80836C2F80C36C2F81036D4
:10044000C2F81436C2F81836C2F81C3602F58052CB
:10045000C2F8003685B0C2F804364921C2F8083621
:10046000C2F80C36C2F81036C2F81436C2F8183684
:10047000C2F81C3609F069F800F086F8002001F097
:10048000CFFA78B145212F4809F05FF801A800F0B4
:1004900097FA2D4B1B68834210D045212B4809F059
:1004A00054F8FEE749212A4809F04FF84FF4C020DC
:1004B000002101F0E9FE49212648E5E7039A492198
:1004C000254809F042F84921244809F03EF84FF444
:1004D0008031002005F0EEFA044620B14521204885
:1004E00009F033F8FEE769469DF8080000F03CF893
:1004F000009B039D1D44019B1E8905F0C3FAAF19A3
:1005000001F0AAF900F0A6FA00F088FA02F08CF9DE
:1005100084F30B8884F30A88AB5983F3088884F347
:100520001488BFF36F8FBFF36F8F7B6898474521A7
:100530000C4809F00AF8FEE73546526E008001507B
:10054000FAC3000013C400008808002062C4000041
:100550002AC4000043C4000085C40000B4C40000E5
:10056000D9C400000CC50000024608B538B10548E2
:100570000023452108F0E9FF6FF0150008BD086071
:10058000FCE700BF2FC500004FF4C051014805F043
:100590009FBE00BF7C1E00202DE9F04FDFF8ECA1CC
:1005A000F9B038A8DDE9848916461C46869FDAF83A
:1005B00000500AF0CBFC002138A805F0BFFFB8F1CD
:1005C000000F07D0B9F1000F04DD4A46414638A8B4
:1005D0000AF0C5FC4FF0000833897289D6F80CB0D8
:1005E00013449B44C3453AD80DA938A80AF0F6FC39
:1005F00027B1202238460DA909F0A2F9002322468E
:10060000009331464FF6FF7307A808F0E6FA8046DC
:1006100010BB20460C9E08F095FB86421CD84FF07C
:10062000FF37DFF86C910DF1160305AA06A907A89C
:1006300008F021FB00280FDB40F09F80069907A8F7
:1006400008F065FB10BB4FF6FF71BDF81600514A6C
:1006500032F8023B8B4217D1DAF8005091E0839BCD
:10066000ABEB0809994528BF994641464B462046C1
:10067000829A08F078FF0028EED14A46829938A87D
:100680000AF06DFCC844ADE79842E1D1BDF81660B0
:10069000102E17D1BDF81460202EDDD13346204630
:1006A000069938AA08F05FFF0028D5D1324638A94C
:1006B0000DA808F03AFB384B1B688342CCD14FF0B1
:1006C0000108B0E7012E36D1BDF81430202BC3D875
:1006D0002046069938AA08F046FF07460028BBD1F5
:1006E0009DF814B0BBF1200F02D94FF0FF379AE705
:1006F000D9F80030294E0393039B9F42F5DA1DA8D9
:100700000AF024FC00211DA805F018FF72681DA83E
:10071000126856F8081B0AF022FC15A91DA80AF059
:100720005DFC5A4638A915A809F0E3F800283FF403
:100730007AAF0137E0E7202E7FF475AF7B1C3FF4E2
:1007400072AFD9F80030BB42CFDDBDF81430B3F53D
:10075000807F81D12046069938AA08F004FF00283E
:100760007FF47AAFFFB23146BDF81430009738AA53
:100770000DA800F015F80546B7E7B8F1000F3FF4F3
:100780006BAF284679B0BDE8F08F00BF00000020B5
:10079000D8BF0000C8C3000088080020DCBF0000EC
:1007A0002DE9F04FDFF8D4A1ADF5417D07462AA829
:1007B0001E469DF828B389469046DAF800500AF0A4
:1007C0007EFB092201212AA805F034FE6C4B80AA89
:1007D00053F83B4003EBCB035B6805941B6805A80B
:1007E0001C442146302309F0C7FB002840F0BE809E
:1007F000059B809A13449C4240F0B88021462CAA65
:1008000005A809F0CDFB002840F0B0800DF1B80B31
:100810005A46214605A809F0C3FB0390002840F082
:10082000A5802CA809F0DAFE059A2B90944240F09E
:100830009D80039BCDF804B01A4600932CA92AA8EA
:100840000AF0FAFA002840F091802AA805F008FE84
:10085000002840F08B802CA809F0C0FE2B902AA81D
:100860000AF037FB864240F08180B6F5807FDAF8E7
:1008700000507BD1B9F1200F78D1414680AA2AA837
:1008800005F014FE0446002870D19DF8FF32BC2B01
:100890006CD1DF2606900DF590790FA80AF056FB73
:1008A00000210FA805F04AFE20220DF2DF210FA83B
:1008B0000AF055FB042206A90FA80AF050FB07A96D
:1008C0000FA80AF08BFB202EB046A8BF4FF02008DF
:1008D0009DF81B3048460133424607A9A6EB08069F
:1008E0008DF81B3009F02CF8002EC144D5DC48AB44
:1008F000184600219C4680AA067812F801EB0131C7
:1009000086EA0E06DF2900F8016BF5D11A7802F0AD
:100910007F021A7013F8016B46BB0134BE2CF9D16B
:100920009CF8BE30012B21D10FA80AF00FFB3146F5
:100930000FA805F003FE082212490FA80AF00FFBCA
:10094000394620220FA80AF00AFB20220DF2DF11FF
:100950000FA80AF004FB07A90FA80AF03FFB20220A
:100960000DF2DF2107A808F0E0F905462AA80AF0F1
:10097000B2FA28460DF5417DBDE8F08F0000002059
:10098000DCBF000055C500007FB50A460969034673
:1009900011F00C0F1CBF21F00C0111614FF480709D
:1009A000002101900548CDE903110090029108460D
:1009B000FFF7F2FD07B05DF804FB00BF7C360020B6
:1009C000F8B5124C124B134F2146064602201D6803
:1009D00000F0DEFB3946206805F08AF880B9394618
:1009E0002068FFF7D1FF05460B4B1B68834207D1F8
:1009F000206808F0F0F8236830715B683760B360F6
:100A0000206808F0AFFD2846F8BD00BF8C08002024
:100A1000000000207C37002088080020BFF36F8F83
:100A200072B600234FF0FF30094A03F12001013371
:100A3000102B42F82100F8D100234FF0FF30044A78
:100A400003F160010133102B42F82100F8D1704707
:100A500000E100E02DE9F8434FF0FF3501274FF0AA
:100A60000008204BDFF880905F60C3F84853C3F85C
:100A7000085303F580535F60C3F84853C3F8085325
:100A800059F8044B002644F30730C4F8085301F02A
:100A900089FF80226760C4F84C61D4F84C31C4F8F7
:100AA0001061D4F81031C4F844613146D4F84431AF
:100AB000A018C4F8006508F04EFF8022314604F506
:100AC000C07008F048FFB8F1000F08D0074BC3F81A
:100AD00008554FF05023C3F80853BDE8F8834FF092
:100AE0000108CDE700400150E8BF00000070015050
:100AF000014B1B68184700BF0400002007B50B46D8
:100B0000002102460091034800F00CF803B05DF8A4
:100B100004FB00BFF10A0000014B1860704700BFE2
:100B2000040000202DE9F04F82464FF000098DB0FF
:100B30001D46531E01910393039B58785C1C252886
:100B400019D100204FF0FF381E46444603460236B6
:100B5000029031780396392955D81F2914D80029D5
:100B600000F0EF8101992520D04701993078D047D6
:100B700009F10209E0E7002800F0E3810199D0477C
:100B800009F101090394D7E7A1F12002192AE9D854
:100B900001A757F822F000BF010C0000650B000010
:100BA000650B0000010C0000650B0000810C0000CB
:100BB000650B0000650B0000650B0000650B000075
:100BC000CD0C0000010C0000650B0000E10C0000E2
:100BD0008D0C0000650B00009B0C0000BB0C00009E
:100BE000BB0C0000BB0C0000BB0C0000BB0C0000E9
:100BF000BB0C0000BB0C0000BB0C0000BB0C0000D9
:100C000008460136A5E7582900F0EB80A1F1630200
:100C1000D7B2172FA6D8172AA4D801A757F822F0C1
:100C2000890E0000070D0000650B0000650B000039
:100C3000650B0000E70C0000070D0000650B0000CD
:100C4000650B0000E70C0000650B0000650B000061
:100C5000650B0000BD0D0000650B0000650B00007A
:100C60005D0E0000650B0000070D0000650B000025
:100C7000650B0000BD0D0000650B0000E70C0000D7
:100C800025200199D04709F1010955E7029A4FF053
:100C9000000802F0FE020292B3E7002C0DDAB8F170
:100CA000000F0DDA029A002A00F043810A2224EA9A
:100CB000E47402FB0414303CA3E7B8F1000FF5DB49
:100CC0000A2202FB0812A2F130089AE7B8F1000FDD
:100CD00055F8042B80F22F81002A80F22E81544295
:100CE000022202928DE7682903D1682B06D148239E
:100CF00087E76C2902D16C2B00F02181002B7FF457
:100D000031AF0B467DE77A2B06D1752955F8046B78
:100D100014D14FF0000B0CE06C2BF6D04C2BF4D11F
:100D2000073525F00703752903F10805D3E9006BA2
:100D300006D120283BD1854F013C09E04FEAE67BF4
:100D4000BBF1000FF5DA7642814F6BEB4B0B013CA8
:100D50000DF12D03059300230493304659460A22D2
:100D60000023FFF7F7F9059BB446303203F8012D55
:100D70005A460593049BBCF10A0F8B4672F10002A0
:100D800003F1FF3106460491E7D2C3F1010B303382
:100D90000DEB0306B8F1000FA6F104066DDA029B15
:100DA000D9077DD4A8EB0B03A4EB0B0413E02B288D
:100DB0000ABF684F684F04F1FF34C9E770290FD1AB
:100DC00055F8042B0023FAB96FF004034FF0050B1C
:100DD000614F624E053C029A920770D4A04666E0CD
:100DE00078216C2B03D1002355F8042B08E04C2B01
:100DF000F9D1073525F007031D465B6855F8082B28
:100E0000232825D1880621D5554F023C002601F024
:100E10006001A1F1390B0DF12D0E02F00F0109292E
:100E200088BF594430310EF8011D102A4FEA1211C3
:100E300041EA03714FEA131C73F1000306F1FF301E
:100E400008D2C6F1010B06F13003A1E7454FDCE7FC
:100E5000414FDBE706460A466346DEE755F8046B7A
:100E6000304608F03FFDB8F1000F834602DB4045F5
:100E7000A8BFC3464FF00008374FA8EB0B03002B69
:100E800092DDA4EB0804A6E755F8043B4FF0010BF4
:100E90008DF81830304F4FF0FF33013C06AE9AE723
:100EA000A046EAE7029320200199D047029BB8F1BF
:100EB0000108F7D524EAE472013C9144A41AB8462B
:100EC00006E0049302920199D047029A049B90464F
:100ED000424612F8010B0028F3D11A46013A15D503
:100EE000002BACBFC7EB03077F425B46013B15D528
:100EF000BBF1000FA8BF5F4426464F44013E14D506
:100F0000002CA8BF3F1907EB080915E604930292CD
:100F100030200199D047049B029ADFE702930199A0
:100F200016F8010BD047029BE0E701992020D0473B
:100F3000E4E70122D5E6904663E6144661E64C23D9
:100F40005FE648460DB0BDE8F08F00BF6DC60000FB
:100F50006BC600006FC60000BEC6000077C600006A
:100F600071C6000074C600002DE9F047058B0446E9
:100F70002807904611D4022905F0070540F0CC80DF
:100F8000204608F0BCF978B10138218B042811D82B
:100F9000DFE800F0C2106D85950001290CBF45F017
:100FA000100545F02005258388F31188BFF36F8F66
:100FB000BDE8F08701F0070AAA4500F0A5800027E8
:100FC000B9463E46A368002B00F0BC8041F0080102
:100FD000218388F31188BFF36F8FA168002900F087
:100FE000BA800D68002900F0B6803346524620468C
:100FF000D1F80480C047002D76D02B6829461D46C5
:10100000F0E701F007035A1F012A1BD8002221F044
:101010000701062B276889B2C4E9002209D13B46A3
:1010200003E0628B013262831B68002BF9D141F02F
:1010300002012046218308F062F900287AD041F0AD
:10104000200176E0042B0AD121F0070189B2204665
:10105000218308F054F910B141F020012183218B44
:1010600001F0070AAA454FD00027B946AAE723692D
:1010700021F0070141F00601062DD3F800902183ED
:101080002DD1B9F1000F3FD041F00801218388F341
:101090001188BFF36F8F20463949C84729E021F0F6
:1010A0000701236941F0040189B2042DD3F80490AB
:1010B0002183E6D000274FF0040A3E4682E721F064
:1010C0000701236941F0050189B2052DD3F8089085
:1010D0002183D6D000274FF0050A3E4672E700274D
:1010E0004FF0060A3E466DE72B4687E7B9F1000F41
:1010F000D1D1EFF31188202383F31288BFF36F8FD0
:10110000238B23F008032383258BEA062ED525F0B5
:101110001003238305F007056669218B002EBFF6B7
:1011200070AF00232768C4E9003321F0070141F0C4
:1011300001012183218B4FF0000901F0070AAA4524
:101140007FF440AF002F9CD041F00801218388F349
:101150001188BFF36F8F002FC8D03D6839463346E2
:101160005246204608F0F7F82F46F4E7AB067FF525
:101170001BAF25F02003238305F0070500E700BF20
:1011800083930000014B036000207047F0BF000014
:1011900070B5114B0D461C68DCB1104B196800236B
:1011A0008B4202DB6FF0010070BD224612F8106B1B
:1011B000864202D014460133F2E7E06810B96FF0BE
:1011C0001200F1E70AF085F80028F8D000202C6022
:1011D000EAE76FF00C00E7E748020020F0BF0000EC
:1011E0002DE9F7430D46DDE90A8691461F46044680
:1011F00020B96FF00D0003B0BDE8F0830029F8D0EE
:10120000002AF6D0009300230846019308F0C9F99C
:10121000B7FBF0F303FB10700028EAD16A462846BA
:10122000124908F0A3FD019B002BE2D008EB060257
:101230009342DED3284608F0B4F9B8FBF0F303FB81
:1012400010800028D5D1C4E90097E5602061A06036
:10125000C4F8148016B9019EA6EB08060C9B00206A
:10126000E3614FF0FF33A6612362C4E7AF9500004E
:10127000F0B40C4B0C4E5F6A0C4BB34203D36FF0CF
:101280008500F0BC70475D68BD4209D31C693CB164
:1012900095F802C00579AC4502D12346F0BC184749
:1012A0002433EAE7900800205805002010050020AC
:1012B0002DE9F04705460E461746124CDFF84880E8
:1012C000DFF84890444503D36FF08500BDE8F08710
:1012D0006268D9F824309A4212D3A36983B1907816
:1012E0002979884205D13A4631462846BDE8F0477B
:1012F00018475279012A03D13A4631462846984781
:101300002434DFE710050020580500209008002055
:101310002DE9F04105460E4617460A4CDFF82880B5
:10132000444502D36FF0850009E063690BB92434AA
:10133000F6E73A463146284698470028F7D1BDE8F7
:10134000F08100BF100500205805002010B50446AC
:1013500008F045FB10F1780F00D050B9204608F096
:10136000DDF9044AD2F8C43023EA00030020C2F8B1
:10137000C43010BD9008002008220021014808F068
:10138000EABA00BF4B09002070B50B4B0B4CA342CF
:1013900001D3002070BD0022196A1E7F0439D5B226
:1013A000AE4201D82433F2E7013211F832508542BF
:1013B000F5D10120EEE700BF100500205805002000
:1013C00008B509480378C3F341130A3350F82330B2
:1013D0003BB100F1080200F110019847C043C00F73
:1013E00008BD1846FCE700BF9008002004282DE93E
:1013F000F14F04460F46DFF8949016D001282DD106
:10140000DFF88C8098F8B93043B300F095FD214D9A
:101410004D4520D24FF0000AD5F820B02B7F5FFA5F
:101420008AF6B34204D82435F2E7FFF7A5FFE7E7D1
:101430000BEBC606307908F0D2FA0246307908F094
:101440006DF9D8F8C430002A23EA0003C8F8C43084
:101450000AF1010AE2DA002388F8B9300D4D4D4552
:1014600008D30B4B1B6A6BB13946204601B0BDE86F
:10147000F04F1847EB681BB13A462146284698477B
:101480002435ECE701B0BDE8F08F00BF580500201F
:10149000900800201005002073B5C4B263060D4605
:1014A0008DF8074007D02046FFF76EFF78B10D4B4F
:1014B00093F8BA0058B120460A4E55B102F0F4F93B
:1014C000F3691BB108200DF107019847012002B014
:1014D00070BD02F011FAF369002BF7D009200DF16D
:1014E0000701F2E79008002073B586781E4C8DF84E
:1014F00000600379427943EA0223ADF80230C378F1
:10150000304603F003038DF8043008F007F9D4F8EF
:10151000C430054618420BD0304600F0EFFC304690
:10152000FFF714FF0AF06DF810B9962006F0F8FEE8
:10153000684602F095F910F1780F03D010B1002041
:1015400002B070BD9DF8000002F012FA10F1780FA1
:1015500001D00028F3D10120D4F8C43084F8B900B8
:101560002B43C4F8C430EBE7900800202DE9F04786
:10157000A34E0446B3690F461546FBB9237803F022
:101580001F03012B00F09D80022B00F0048133BB70
:1015900094F900002A680028617834DA062912D00C
:1015A00008292BD0D9B901235170137096F8C33094
:1015B0005B0043F00103137002232AE198470028DF
:1015C000DCD100200DE06288100A011F0129844649
:1015D00005D9072803D8716AD2B20C781CB96FF00C
:1015E0001500BDE8F0874E78664503D19A4200F0B9
:1015F0000B8101332144F0E70B780AE196F8BA3009
:101600001370012305E101390829E8D801A353F833
:1016100021F000BFAD160000DF150000BB16000072
:10162000DF15000039160000DF150000DF1500008F
:10163000DF15000045160000A07802F0FFF8002832
:10164000BFD0CCE76388756A63BBFFF795FE6388FC
:1016500086F8BA30F369002BB3D003206949984764
:10166000AFE76B78042B10D0052B11D0022B04D1DF
:101670006F796388BB4208BF01202B781D442B780B
:10168000002BEED10028AAD0DFE795F80380F4E71D
:101690006388BB42F1D1B8F1000FEED12846FFF7C5
:1016A00023FFEAE7FF270020B846E8E76388012B1D
:1016B00095D1002386F8C33083E76388012B8ED150
:1016C000F8E796F8BA30D5F800C0002B87D0756AD5
:1016D000A3882A4694F804E0107800283FF47FAFEE
:1016E0005178022904D192F80480F04500F29380E9
:1016F0000244F1E78CF800208CF80120396060E7A3
:10170000154494E00B2A7FF46AAF00274FF0FF08DE
:10171000BA46C14606E06B78042B0FD0052B21D0CA
:101720002B781D442B78002BF5D1F36913B151466A
:1017300007209847002F7FF444AF50E795F80280C8
:10174000A38895F803909845EAD163889945E7D135
:10175000B8F1070F1CD806EB0803AA46012783F847
:10176000BB90DDE7A3884345DAD1A3784B450AD087
:10177000AF78384600F0C2FB3846FFF7E7FDB0FA15
:1017800080F77F09CCE72846FFF7AEFE0746C7E79C
:10179000AA460027C4E794F900206378002A18DAE3
:1017A000002B7FF41CAF24792D6863060AD02046F5
:1017B000FFF7EAFD00283FF412AF96F8BA30002B8D
:1017C0003FF40DAF2946204602F0B6F800236B70B7
:1017D000F2E6012B08D0032B7FF401AF6388002BC6
:1017E0007FF4FDAE012103E0618800297FF4F7AEAC
:1017F000A088FFF751FE00287FF4E3AEEFE600BFBC
:10180000900800204A090020022829607FF4F4AEE5
:101810004B883B60D5E694F9000062780028BFF65B
:1018200071AF002A3FF466AF0A2A7FF4D8AE2A7857
:10183000002A3FF4D4AE697804297FF461AFA97817
:101840008B427FF45DAF072B8EBF00239B1993F86B
:10185000BB308CF80030D4E670B5164D95F8B83032
:10186000FBB101F0CBFF002822DB00F065FB002478
:10187000D5F8C430E6B2E340DA0714D4D5F8C43062
:1018800004F11002D340DB0705D546F08000FFF7D6
:101890005DFD00280CDB0134102CE9D1002385F814
:1018A000B830002004E03046FFF750FD0028E5DAAC
:1018B00070BD00BF9008002013B5164C237DF3B90E
:1018C000E26801AB8020A168019207F036FF019A1F
:1018D000A3681344A360E3689B1AE3606BB962B129
:1018E0002369E2889A4208DD94F8C82093FBF2F15C
:1018F00002FB11330BB90123237502B010BD002385
:1019000080201A461946237502B0BDE8104002F047
:1019100059B800BF90080020002330B585B00246BA
:101920000D460193002858D1002935D108220B46D5
:101930000DEB020108F06CF8002804DA802001F0B9
:10194000B3FF05B030BD2A4C029AC4E903552260AA
:10195000039ABDF80E30626004F13802A2609DF96E
:1019600008202575002A0ADB802B04D9802001F08D
:101970009BFF0020E3E713B1C4E90333E1E7FFF77E
:101980001FFD0028DAD0E28823699A42D4BFE260C2
:10199000E360FFF791FFD4E7154C01ABD4E90215E2
:1019A000002D04DC08F034F80028CADAC6E72A461D
:1019B00008F02EF80028D9DB019AA3681344A3602D
:1019C000E3689B1AE360002BBBD104F13803A360EA
:1019D000FFF7F6FC0028DCD1B0E78028B1D1044B3A
:1019E000DA68002AD5D11B7D002BD2D1A9E700BF30
:1019F00090080020054B064A58629A62054A00206A
:101A0000DA62054A1A63054A9A6170479008002015
:101A10006D1500007112000011130000B1120000DA
:101A20002DE9F3410446474D4FF0FF334FF0FF32AD
:101A3000454805F0C7FE95F8B830002B7BD16B6A9E
:101A400083B142482C62E8616E6A02F0D5F801F079
:101A5000A3FE041E10DA3C4805F02CFF204602B01D
:101A6000BDE8F08100F0BEF8FFF7C4FF6B6A002B01
:101A7000E7D14FF0FF34EEE700F080FA041EEADB16
:101A80007378012B5AD1F379002B57D00026684682
:101A900085F8C830ADF802308DF804608DF800602C
:101AA00001F0DEFE041ED6DB802768468DF800704C
:101AB00001F0D6FE041ECEDB3046254902F088F840
:101AC000041EC8DB3846224902F082F8041EC2DB3D
:101AD000204CDFF8848044451AD3002001F048FFF1
:101AE000041EB8DBD5F8C430802043F00103C5F8EC
:101AF000C43001F03DFF041EADDBD5F8C430002436
:101B000043F48033C5F8C430012385F8B830A2E728
:101B10000026276A227FF3B29A4201D82434DAE7FA
:101B200007EBC30257F83310107902F051F8013671
:101B30000028EFD09DE76FF077048CE76FF0150475
:101B400089E700BF90080020D4030020ED130000B7
:101B500019190000100500205805002030B51F4B52
:101B60008BB005AA03F110051446186859680833AC
:101B700003C4AB422246F7D11B7810222370002108
:101B800001A807F0E8FE12220021154807F0E3FE45
:101B9000102101A808F016F900281BDD0828B8BF9D
:101BA000082001AB09381A1800200D4912F8013F2E
:101BB0000AAC04EB131403F00F0328336B4414F83E
:101BC000144C13F8143C013008280C704B7001F1D0
:101BD0000201EBD102480BB030BD00BF7DC6000052
:101BE0009D3700202DE9F04F734B87B093F800B07C
:101BF000BBF1000F03D0714807B0BDE8F08F6F4C08
:101C000000264FF0011AB0463546B14623783BB95D
:101C10006B4B02349C42F3D10123674A1370EAE70D
:101C20006378052B1BD8DFE803F08C03C48C1D39C7
:101C3000402304A88DF810B0ADF812308DF814B020
:101C400007F0B8FE40B1082304A8ADF8123007F041
:101C5000B1FE08B1ADF812B0BDF81230E3712378CF
:101C60001C44D3E7E378002BF9D1A37863B108F1E2
:101C700001085FFA88F8F2E76A68944207D02435D1
:101C80009D42F9D30020B7E74E4D4F4BF8E7AB68C4
:101C9000002BECD0414620469847E8E7002DF1D0D4
:101CA00000222B7F9A42EDD2296AA07801EBC20173
:101CB0000B79984201D00132F3E70127E078FBB2BB
:101CC00000F003008DF81400207994F805C040EA74
:101CD0000C20ADF8120094F90200002826DA4FF02B
:101CE000010C07F110000CFA00F010EA0A0F24D1E1
:101CF00043F080008DF8100004A8CDE90213019292
:101D000007F058FEDDE90121039BB0B99DF81020D2
:101D100012F0800FA2700A714FF001021DBF103344
:101D2000DBB29A40BA404AEA020A98E70120B8407A
:101D300010EA0A0F01D11846DCE70137102FBDD198
:101D4000B9E7032E1DD1FFF709FF074668B107F079
:101D5000C9FD019048B11D4807F0C4FD019A8242B7
:101D600003D13946A01C07F0EBFD6FF00201237888
:101D7000091BE21804EB5303D14213D50136F6B226
:101D80006DE7002EF1D1B9F1000F3FF47BAFA4EB6A
:101D9000090389F80230C3F3072389F8033089F86F
:101DA0000480EBE702F801BC13F8010902F8020D08
:101DB000E2E7A14653E700BF9C370020180400204B
:101DC0000E05002010050020580500207DC60000EB
:101DD000094B00211A4610B51C78844205D15C6875
:101DE0001CB1482303FB012010BD0131042903F17C
:101DF0004803F1D10020F7E75C0900202DE9F34109
:101E000050F8303C0446103310F8346C0AD10369A2
:101E100050F8282C980736D5D2B9590715D5002384
:101E200044F8303C54F8303C10330BD054E9097579
:101E300054F81C8C09F0E5FB00284FD021462E48B1
:101E400009F0C3FB02B0BDE8F08143F00403236155
:101E5000304654F82C1C01AB07F06FFC10B16FF04A
:101E60001503DDE7019A54F82C3C134444F82C3C4C
:101E700054F8283C9B1A44F8283C54F8243C13445A
:101E800044F8243CCEE7304654F82C1C01AB01F05A
:101E900015FE0028E3D1019D54F82C3C2B4444F856
:101EA0002C3C54F8283C5B1B44F8283C54F8243C58
:101EB0002B4444F8243C002DB1D0304601F0A2FE62
:101EC000B5FBF0F303FB1055002DA8D154F8283CC6
:101ED000002BA4D0304601F039FEA3E744F8200CD3
:101EE000A4F1180005F054FD002DABD04246394650
:101EF0003046A847A6E700BF4807002010B5EFF31B
:101F00001184202383F31288BFF36F8FFFF760FFE4
:101F100050B14368103307D16FF08B0300F13401E7
:101F20004360044809F051FB84F31188BFF36F8FBD
:101F300010BD00BF48070020F8B5042520270D4C30
:101F4000EFF3118687F31288BFF36F8F6368103346
:101F500007D16FF08B030848636004F1340109F086
:101F600034FB86F31188BFF36F8F013D04F1480401
:101F7000E6D1F8BD5C0900204807002070B50025B7
:101F8000094C0A4E3146204609F003FB0122A4F118
:101F900018001146013509F0ADFA042D04F148048A
:101FA000F0D1002070BD00BF90090020FD1D000091
:101FB000014B9970704700BF3304002037B590F98A
:101FC00000200446002A03781DDB03F01F03012BC9
:101FD00019D143780B2B0FD14388A3B902200B4DA5
:101FE00001A92870FFF7D4F850B9019883686B6095
:101FF00007F0B8FA6388EB606FF0150003B030BDEE
:102000006FF00400FAE76FF08500F7E708000020A2
:10201000002310B5064C04F11000A360A4F83A3276
:1020200007F0E5FB18B140F60A63A4F8383210BD9A
:102030000800002010B50A4C94F83832012B0DD15D
:1020400001F0DCFB0223074884F83832064B1860A5
:10205000FFF7D0FCBDE8104001F09EBB10BD00BFF3
:10206000080000208B0400201005002037B50E4921
:102070000E4809F08EFA0E480E4D09F088FD0E4903
:102080000E4809F0B2FA287801A9FFF781F8044652
:1020900038B9019883686B6007F064FA204603B092
:1020A00030BD6FF00404F9E7C12000007C0A002075
:1020B0008C0A002008000020352000005805002070
:1020C00038B5184B93F88020022A01D0052A0FD189
:1020D000B3F882501349B5FA85F32A4612485B09D2
:1020E00007F044FB114C20B140F20A33A4F8383217
:1020F00038BD95B9062384F83832FFF789FF2846A2
:1021000007F03DFC18B140F20A33A4F83832002140
:10211000BDE83840064806F071BB052384F8383224
:10212000E6E700BFF81D002018000020080000208E
:102130008C0A002070B5144690F900200646002A4B
:10214000437833DA032B0BD0052B28D0022B44D154
:1021500040F60A72464B6FF08500A3F838221DE066
:10216000434B93F8382293F83902062A04BF02221F
:1021700083F8382222681070B3F83C22206842703D
:10218000120A827000222068C270206893F83832E8
:10219000037123685A7106230B60002070BD344A16
:1021A000236892F838221A700123F5E7062B14D819
:1021B000DFE803F04D1F1313161304002C4C94F8A2
:1021C0003832012B05D9FFF723FF0223A4F8383258
:1021D000E3E70022264B83F838226FF01500DDE795
:1021E000234B93F83822012AF3D90222A3F838228C
:1021F000D3E71F4D95F83832012BEAD9022B08D0CE
:10220000052B13D040F60A63A5F83832FFF700FF1C
:10221000E3E7FFF7FDFE174809F0BEFC2B78022B21
:1022200004D040F20A33A5F83832B6E70422124847
:1022300085F8382280F88030F288A0F88220216862
:1022400007F07EFB0D490E4809F0BFF9A5E7084BE2
:1022500093F83822002ABCD101220A4983F8382297
:10226000074840F6CD42002305F030FD95E700BF5A
:10227000080000208C0A0020F81D00207C0A0020A5
:10228000480700205805002073B5174E02460B463C
:10229000684609F0F1FADDE9004522462B4668461A
:1022A00009F00EFBDDE90023134301D102B070BD3C
:1022B00096F83832043B012B05D9002140F26760C3
:1022C00006F010F8E9E700220121084B084809F060
:1022D00035FC4FF0FF324FF0FF330121044802B0CC
:1022E000BDE8704006F032BA080000208C0A0020D9
:1022F0009C0A002008B5054806F0CFFF044806F008
:10230000CCFFBDE80840034806F0C7BF8EC60000FA
:10231000BFC60000F6C60000014806F019BB00BFAA
:1023200074C0000038B5044618B90F4B0F485B68FD
:1023300098476168B1F5683F10D0B1F5680F0DD0CE
:102340000B4DA9420AD011F46861206807D00146FC
:10235000084809F014F800232360656038BD142292
:1023600007F0F9FAF9E700BF0003002024C70000D6
:102370002C5F5CA9B00F002008B560B34368B3F5CB
:10238000683F0ED0B3F5680F18D0144A934220D09E
:1023900000684FF0FF324FF0FF3305F013FA58B1E9
:1023A00015E001220368D3E8EF1F002903D1C3E839
:1023B000E02F0028F7D10AD1002008BD0368084AA1
:1023C0001B7803F5807352F82330002BF4D00548B6
:1023D000F3E70548F1E76FF4E040EEE72C5F5CA916
:1023E00000000350E98FFFFFEA8FFFFF08B520B31D
:1023F0004368B3F5683F09D0B3F5680F13D0114AAD
:1024000093421DD0006805F055FA14E000220368DD
:10241000D3E8EF1F012903D1C3E8E02F0028F7D14B
:1024200009D0094808BD00210368084A1B7803F554
:10243000807342F823100020F4E76FF4E040F1E7E6
:102440000348EFE72C5F5CA9E98FFFFF0000035012
:10245000EA8FFFFF10B5044618B91D4B1D485B6895
:1024600098476368B3F5683F2FD0B3F5680F2CD059
:10247000194A934219D1236803BB4FF0FF324FF042
:10248000FF332146154805F06FF908B923681BB9D9
:102490000F4B13485B68984714220021206807F00F
:1024A0005AFA4FF46863636008E0B3F5683F0DD8EB
:1024B0003A2B03D040F6BA629342DED1206808F08E
:1024C00096FF636843F03A03636010BD054AF3E783
:1024D0000003002024C700002C5F5CA9B00F00207F
:1024E0004AC700003A00003A08B5064940231422C2
:1024F000054808F036FFBDE808400449044806F0E6
:1025000099BA00BFB00A0020B00F00207CC00000C4
:1025100090C0000030BFFFF7FDBF00BF074A9368BF
:1025200093F90E10002907DB526993421FBF044A3A
:10253000536843F080535360704700BFE81B00208E
:1025400000ED00E0154B9A6A12F0007F9A6A14BF02
:102550001E201D2012F0807F9A6A18BF1F2012F4DF
:10256000801F9A6A18BF022012F4002F9A6A18BFBF
:10257000212012F4802F9A6A18BF222012F4003F03
:102580009A6A18BF232012F4803F9A6A18BF242049
:102590006FEA02426FEA12429A62704700ED00E071
:1025A00010B5194B0246986A9C6A10F4805F14BFFC
:1025B0001720162014F4006F9C6A18BF1820A40579
:1025C00009D5986B986A000404D51AB19A6A22F466
:1025D00000429A6219200C4B9A6A12F4806F9A6A30
:1025E00018BF1A20D2050CD49B6A13F4005F18BFE1
:1025F0001C20054A936A43F47F43936200230B70C7
:1026000010BD1B20F5E700BF00ED00E010B51C4B2E
:102610000246986A9C6A10F0100F14BF1120102017
:1026200014F0080F9C6A18BF1220A40709D5586B34
:10263000986A000604D51AB19A6A22F080029A625A
:1026400013200F4B9A6A12F0010F9A6A18BF1420D8
:1026500012F0200F9A6A18BF1520D40658BF9B6A43
:10266000074B9A6A920642BF5A6A22F400525A6293
:102670009A6A42F0FF029A6200230B7010BD00BFFD
:1026800000ED00E070B5444B06465B6800258AB05B
:10269000C3F3080385F31188BFF36F8F02F07F4007
:1026A000B0F17F4F11D102F00C0008280DD01007B7
:1026B0004CBF0E4601250022033B8DF80720032B5B
:1026C00005D8DFE803F01E5C60592E46F3E70024CE
:1026D0009DF807309BB92022314602A807F030F957
:1026E000099B002D53D0C3F3080222B96FEA53238C
:1026F0006FEA43230993204602A907F07CF80AB049
:1027000070BD254BDA6A9107E1D4DA6A002ADEDB74
:10271000DA6A5200DBD55A69B16942F480725A61B3
:10272000BFF34F8FBFF36F8F5A6931F8021C22F449
:1027300080725A61BFF34F8FBFF36F8F4DF60272F5
:10274000914209D09A6AD2B242B101200DF107013B
:10275000FFF75CFF0446BBE73468B9E79A6A12F4F6
:102760007F4F05D001200DF10701FFF719FFF1E7B9
:102770009B6AB3F5803FAAD3FFF7E4FEEAE70020A7
:102780000DF10701E4E700200DF10701EDE723F467
:10279000FF7323F00103ADE700ED00E0044B5A693D
:1027A00042F010025A615A6942F480625A617047DD
:1027B00000ED00E0EFF30880EFF3098101B5724608
:1027C000FFF760FF01BD00BF002080F31488BFF356
:1027D0006F8F002080F30A8880F30B8803F0BEFF20
:1027E00000200E490860BFF34F8F0D4880F3088822
:1027F00000F02CF8202080F311880A484FF4006183
:10280000401880F30988EFF314800221084380F315
:102810001488BFF36F8F00F0FDF8000094ED00E026
:10282000006D0020C03B0020002318460649D1F867
:102830009020C2F30722934200DB7047C1F8983022
:10284000C1F8A0000133F6E700ED00E010B572B664
:10285000002484F31388FFF7E7FF23464FF0FF308F
:102860000C4A03F120010133102B42F82100F8D16A
:1028700000234FF0FF30074A03F160010133102BB2
:1028800042F82100F8D162B6BFF34F8FBFF36F8FCC
:1028900010BD00BF00E100E0084B9B6883420BD1F4
:1028A000EFF3058343B1064B5A6842F080525A60F9
:1028B0005A6A22F400425A6208F081BFE81B0020E5
:1028C00000ED00E06FF00A01084A9368D9670849F3
:1028D00098674B6843F080534B60002383F3118863
:1028E000BFF36F8F9368D86F704700BFE81B00205D
:1028F00000ED00E0EFF31183202383F31288BFF390
:102900006F8F4FF00061064A53699360054A51602A
:1029100000219A6F996782F31188BFF36F8F704718
:10292000E81B002000ED00E00E498A684FF03000FF
:102930001044EFF3098C80E8F01F74467046FFF7EF
:10294000D9FFA64607498A6802F1300090E8F01FD7
:102950008CF3098802F1000004B506F061FFBDE8C0
:1029600004407047E81B00201EF0040F0CBFEFF37B
:102970000880EFF30980816911F8021C0229FFD059
:1029800001B506F03EFF01BD40B2002807DB012380
:102990004109034A00F01F00834042F8213070478C
:1029A00000E100E040B200280CDB012206494309A7
:1029B00000F01F008240203341F82320BFF34F8FE7
:1029C000BFF36F8F704700BF00E100E0054B420985
:1029D00053F82220012300F01F0003FA00F01040FA
:1029E000704700BF00E100E040B2002801F10101A2
:1029F000ACBF00F16040064B4FEA4111C9B2ABBF1A
:102A000000F5614000F00F0080F800131954704782
:102A100014ED00E00B4A08B50B4B22F07F029A60E0
:102A2000BFF34F8FBFF36F8FD3F8882022F470026B
:102A3000C3F8882004F0D8FD05F02EFD00F046F81C
:102A400004F012FE0000000000ED00E042F8203C1F
:102A5000009B0B4942F81C3C019B21F0010142F80C
:102A6000183C029B42F8081C42F8143C4FF080735B
:102A700042F8043C0023203A02658367704700BF98
:102A8000B59200000B4B0E4698601546836E83F39B
:102A90000B882C4686F309884FF00000064B9847B8
:102AA00020464FF000014FF000024FF00003034CAE
:102AB000204700BFE81B002029980000B5920000C5
:102AC0001022014B1A61704700ED00E00023202125
:102AD0000348C2180133452B82F80013F9D170471F
:102AE00000E100E008B5EFF30583064A103B02EB76
:102AF000C30152F8330049688847BDE80840FFF732
:102B00000DBD00BF58BD00001FB5094C094A234642
:102B10000121094800F0FAF800230393074B012133
:102B2000E41A01A80193029400F0FAF804B010BD71
:102B30000000072000000020A0C000005805002071
:102B400010B50C7A0B6804F01F0223F01F031A4320
:102B5000CB68640923F01F03054943EA440343F0AB
:102B60000103C1F89800C1F89C20C1F8A03010BD45
:102B700000ED00E010B5074BD3F89030C3F3072306
:102B8000013B984202D8FFF7DBFF10BD6FF0150044
:102B9000FBE700BF00ED00E02DE9F04F0F461446C3
:102BA00006464FF000084D4D85B0B84580F2928042
:102BB000D6F80490B9F1000F36D0B9F11F0F40F2EA
:102BC000878019F01F0F40F08380D6F800A01AF01C
:102BD0001F0F7DD1504606F063FE834609EB0A00C5
:102BE000013806F05DFE834572D11BF1160F6FD0E0
:102BF0005C456DDDC5F898B0D5F89C10C5F898B067
:102C0000D5F8A03021F01F0143F01F0AD6E90032A9
:102C10001A44994202F1FF391ED1CA4508D1314602
:102C20005FFA8BF006F045FE08F101080C36BCE7B0
:102C30003146C5F898B0D5F89C3022F01F0203F059
:102C40001F031343C5F89C30E0B206F032FE10F1CA
:102C5000160F3DD0441CE7E7C5F898B0D5F8A02082
:102C6000013B23F01F0302F01F021343CA45314604
:102C7000E0B2C5F8A030E8D006F01BFE10F1160F48
:102C800026D0C5F898B0D5F89C209DF808300AF1F8
:102C9000FF3A62F304038DF80830D5F8A0309DF8B0
:102CA00008205B0863F347128DF80820D6E900324C
:102CB0001344009323F01F035344A3EB0903013093
:102CC00023F01F036946C0B20393FFF753FFBEE72B
:102CD0006FF01504204605B0BDE8F08F00ED00E070
:102CE0000522044BC3F89420BFF34F8FBFF36F8FBF
:102CF000704700BF00ED00E0BFF35F8F0022024B82
:102D0000C3F89420704700BF00ED00E010B5034CFD
:102D10002278FFF741FF207010BD00BFAF370020C1
:102D20002DE9F74F294D8A4606464FF00008AB467D
:102D3000274FD0451BDAD6F80490B9F1000F3FD0E9
:102D400031680846019106F0ABFD0199044609EB94
:102D50000100013806F0A4FD84424FF014021D4B1F
:102D600008D002FB08F36FF015024BF8032003B004
:102D7000BDE8F08F14F1160F2C60F8D01978A1423D
:102D8000F5DD02FB08B0C7F89840C7F89840D7F8BF
:102D90009C4000F10801007B64F304000871D7F83F
:102DA000A0000C79400860F347140C71D7F89C1010
:102DB00021F01F016960D7F8A01021F01F012961DF
:102DC00008F1010814350C36B3E700BFCC0F002022
:102DD00000ED00E0AF370020F0B54149414CD1F89B
:102DE00090302568C3F307239D4287B075D8002033
:102DF000FFF782FF3C4BC1F8C030854216D13B4CF7
:102E000001A82570FEF7BEF900250646384FAE42F0
:102E100013D1002023783249D1F89020C2F3072241
:102E2000934254DBFFF75CFF00202FE0616801EB69
:102E30000011FFF785FE0130DFE70199280101EB62
:102E40000513DA683A40B2F5001F21D0B2F5800FC1
:102E50002BD0B2F5801F38D15A689B680958013BC6
:102E600022F01F0003440120844623F01F0340EAA0
:102E70004C10CDE902218DF8100002A920780593AD
:102E8000FFF778FE00281DDA6FF0150007B0F0BDDF
:102E90005A689B680958013B22F01F0003444FF019
:102EA000020C012023F01F03E1E75A689B680958D0
:102EB000013B22F01F0003444FF0000C022023F0DE
:102EC0001F03D4E723780133237001359FE7C1F84E
:102ED0009830C1F8A00001339EE74FF0FF30D5E7EE
:102EE00000ED00E0ACC00000AAFF4400AF370020B6
:102EF0000000F0FF014B1860704700BF6C0200201B
:102F000007B50DF1070008F000F9114B98421CD1EC
:102F10004FF480620F4B1049C3F8B8254FF400629C
:102F2000C3F83C259DF8070008F0E3F80B499DF82D
:102F3000070008F0D9F801209DF80730984003F009
:102F40000FFD002003B05DF804FB6FF00B00F9E704
:102F50000000AD0B00A002502CA0025028A102508E
:102F6000054B03EB8000D0F8003223F0E04343F040
:102F70004053C0F80032704700258450012208B544
:102F80000A4B0B49C3F8002502230020C1F8D036B4
:102F9000FFF7E6FF1046FFF7E3FFC1F80427C1F88B
:102FA0000429C1F8002B002008BD00BF001000500C
:102FB00000400050052370B5144D154E2C78013497
:102FC000B4FBF3F303EB8303E41A06F092FF114A18
:102FD000137823B156F82430C01A072814D94FF0BB
:102FE0005023D3F8141141B10021C3F81411D3F8C0
:102FF00014312C700CB9012313702C7806F079FF72
:1030000046F82400012070BD0020FCE7B137002005
:10301000E00F0020B037002048B1054B054A1B687F
:10302000B3FBF2F35843044B43F0010318477047D6
:10303000E802002040420F00D0BF000001490248D2
:1030400006F0ACB9D4C00000F40F00204FF47F03A9
:103050002DE9F041D3F830210646072A0D46D3F872
:10306000343120D1023B032B02D8124AD35CD3B1B6
:103070004FF050244FF0010800270520C4F81886AF
:10308000C4F8147608F02EF84046C4F8148608F008
:1030900029F8C4F81476C4F8187630462B46BDE8F3
:1030A000F041002118474FF050230022C3F81426A6
:1030B000F3E700BF86C70000020600F07F0312D5C9
:1030C000082B05D1010700F00F0306D50E48704705
:1030D00010F0780F12D100F00F034C2000EB4310DA
:1030E0000A4B18447047082B05D1020700F00F0364
:1030F00006D50748704710F0780FF6D000207047CB
:10310000044800EB431070475C11002010100020B1
:103110007C1200207C1100200149024808F055BAB9
:1031200038100020880500200146014808F0D7B972
:103130000004002000220023014804F0F7BB00BF78
:103140000004002013B5002201213720FFF74CFCBA
:103150003720FFF719FC124800F000FE114B98428F
:103160001AD10024104803F037FD104804F06EF91E
:103170004FF0FF334FF480620D490E48009404F085
:1031800067FD0D490B4808F042FA0C480C4908F05D
:1031900000FA204602B010BD6FF00400FAE700BF4D
:1031A000A13300000000AD0B98C70000E0C0000094
:1031B000C0370020880500208AC700003810002092
:1031C000BD340000002310B50B49D1E8EF2F012AD0
:1031D00003D1C1E8E03F0028F7D10CD151F8044CED
:1031E0001439204606F068F9783004D12046BDE84D
:1031F000104006F03DB910BD3010002038B5002455
:1032000064F07F00C0B2FFF757FF013406F0BBFB4C
:10321000082CF5D100240E4DE0B2FFF74DFF0369F5
:1032200003B90561013406F0AEFB082C05F1400539
:10323000F2D1084806F0A7FB074BD3F87C2212B95D
:10324000064AC3F87C22064806F09DFB002038BDE4
:10325000A01600205C11002010100020A0120020F9
:103260007C12002010B5054CFFF764FF20B14168C7
:10327000204608F084F8F7E710BD00BF680300207F
:1032800007B5002300220E4801A904F06DFA90B1A1
:10329000FFF7E8FF00220023094801A904F064FABF
:1032A00038B90423019840600374FFF73DFFFFF72E
:1032B00033FF002001E00198406003B05DF804FB9B
:1032C00068030020022810B511D8094B1C5CFFF7D9
:1032D000D7FF60B1002204720274FFF725FF054B8F
:1032E00093F824301BB1BDE81040FFF715BF10BDA7
:1032F00095C7000010100020F8B5877806463846BC
:10330000FFF7DAFE3B060446F57812D5002D43D1CF
:10331000FFF7B6FF034600283ED00122A5770274CE
:10332000032202739C60FFF7FFFEBDE8F840FFF741
:10333000F3BE4DB1012D2FD1FFF7A2FF034658B3C5
:10334000657705740573EDE7FFF79AFF20B3B27850
:10335000124B12F0800F02F0080111D041B1D3F8E6
:10336000A836E36001230374022384600373DAE761
:10337000142102F00F0201FB0233D3F80836F0E704
:1033800011B1D3F8A837ECE7142102F00F0201FBCA
:103390000233D3F80837E4E7F8BD00BF00600350FC
:1033A000F0B5064689B01422002103A806F0D3FA2E
:1033B0003378013B052B21D8DFE803F07A0314149E
:1033C0006A16032300248DF81430FFF759FF0346D3
:1033D000A0B100F108020474DDE9050182E80300F0
:1033E00018461DE00423EDE7B7783846FFF764FE82
:1033F000837A044623B1013B022B43D909B0F0BDC7
:103400003B06F57813D5002DF8D1FFF739FF0346B9
:103410000028F3D00122A5770274032202739C6076
:10342000FFF782FE09B0BDE8F040FFF775BE55B169
:10343000012DE3D1FFF724FF03460028DED0657796
:1034400005740573EBE7FFF71BFF07460028D5D08F
:103450000123037402238460037304F10C01B07828
:1034600006F0F2FA134AE168B2F88C328B4206D9C0
:103470005B1AA2F88C3200F0BBFF3846D0E7A2F806
:103480008C52FAE7304609B0BDE8F040FFF734BF90
:1034900001A800F087FF9DF80530052B04D19DF8A9
:1034A000043013F0600FA9D0034B012405938CE77F
:1034B00002248AE7101000207C1100202DE9F0433F
:1034C0008046A54CDFF8949285B0FFF733FE0646A0
:1034D00010B905B0BDE8F08394F82530327C3BB9D3
:1034E000002A00F0888071689C4807F048FFECE7EC
:1034F000042A44D8DFE812F07F000500FE00140122
:103500003E01337BB568032B39D8DFE803F0023F77
:103510005C616F6908220021384606F01CFA904B66
:103520009048D3F880243A70D3F884247A70D3F882
:103530008824D3F88C1442EA01227A80D3F89024AC
:10354000D3F8941442EA0122BA80D3F89824D3F82D
:103550009C34394642EA03230822FB80EA6006F0E5
:10356000EFF92B680021687A984797F90030002B13
:1035700008DBFB8833B1A4F88C3200F039FF4846F1
:103580007168B2E70023A4F88C32F8E76B7F002B58
:10359000F5D02B7F002BF2D000274FF0FF326F7752
:1035A0004FF0FF3370482F7706F000FA6B6901A9DE
:1035B00001936B68CDE90237687A00F025FC6A4810
:1035C00006F0F6F9DBE701212B68687A9847D6E721
:1035D000AB7A6BB9EB7F5BB963484FF0FF324FF0CA
:1035E000FF3306F0E3F900F009FF5F4806F0E0F969
:1035F00002212B68E9E7327A042AC0D8DFE802F01A
:1036000055031F636F0000F077FB05460028B6D115
:1036100000F024FB01235549D1E8EF2F002A03D104
:10362000C1E8E03F0028F7D1A9D141F8085C41F892
:10363000105CE0691439636105F0C3FE9FE7002563
:1036400065F07F00C0B2FFF737FD037A13B1407A0F
:1036500001F036F80135082DF2D194F854311BB140
:1036600094F8550101F02CF80025E8B2FFF724FD8D
:10367000037A13B1407A01F023F80135082DF4D113
:1036800094F874321BB194F8750201F019F8002017
:1036900000F016FB012384F825302368002B3FF44B
:1036A0006EAF00210220984769E7002584F8255075
:1036B00000F06EFFFFF786FD2368002B3FF45FAF3D
:1036C00029460420EFE7002B3FF459AF00F01EFB22
:1036D0002368002B3FF453AF00210520E3E7226865
:1036E000002A3FF44CAF002B3FF449AF00210620E5
:1036F000904744E708F110054FF0FF334FF0FF32D9
:10370000284606F053F9FFF779FD284606F050F9F0
:1037100058F8283C002B3FF432AF00210120C2E7CB
:1037200094F874327BB1012584F8895284F8885268
:10373000FFF7A6FD38B10E4A057405738260FFF7E6
:10374000F3FCFFF7E9FC58F8283C002B3FF417AFD7
:1037500000210A20A7E700BF101000206803002006
:10376000006003501410002048100020301000208A
:103770007C12002003F052FE00F00AFF00F064FA11
:10378000FFF770FDFFF73AFD03F040FE014800F03F
:10379000E5FAF4E6A133000038B5154D95F824405C
:1037A00024BB05F1380007F022FE022001F0EEF8FC
:1037B00022460121E8613620FFF716F903F026FEC4
:1037C000FFF71CFD044610B9012385F82430094B8E
:1037D0001B680BB1FFF7A0FC074BD3F80034DB07E5
:1037E00002D50020FFF76EFD204638BD0024FBE720
:1037F00010100020000400200070035010B54FF09E
:10380000FF324FF0FF330B4806F0D0F8FFF72AFDE8
:1038100000F072FA08B100F0BBFE0024FFF7D2FC02
:1038200003F0FCFD044880F82440383006F0C0F86E
:10383000204610BD4810002010100020074B93F8C0
:1038400024203AB193F82530002B14BF00206FF0EC
:10385000120070476FF01200704700BF1010002078
:1038600038B5104B044693F82430C3B10578284688
:10387000FFF722FC10B96FF0150038BD45722379AF
:103880008372638843602078618810F0080F02D14A
:103890004B1E0B42EFD106F0D2F80020EDE76FF09F
:1038A0001200EAE71010002038B5124B054693F8D5
:1038B0002420CAB193F82530B3B1FFF7FDFB0446CD
:1038C000A8B1837A012B12D007D9023B012B07D96B
:1038D00000206369E060A36138BD00F095FDF7E763
:1038E000284600F033FDF3E76FF01200F4E76FF0C5
:1038F0001500F1E71010002038B50E4B054693F87F
:10390000242082B193F825306BB1FFF7D5FB68B165
:1039100015F008040AD1284600F03AFD284600F0C8
:1039200007FF204638BD6FF01200FBE76FF015006F
:10393000F8E700BF1010002038B50C4B054693F88F
:1039400024200C4662B193F825304BB1FFF7B4FB4D
:1039500048B144B1284600F001FD2070002038BD78
:103960006FF01200FBE76FF01500F8E71010002071
:1039700070B5134E044696F82430C3B1FFF79CFB94
:103980000546B8B1230705D4204600F001FD2046C6
:1039900000F0CEFE2B7A83B901232B7296F82530E6
:1039A0000BB9002070BD204600F08AFEF9E76FF0E9
:1039B0001200F7E76FF01500F4E76FF07700F1E71A
:1039C000101000202DE9F043DFF8E4801E4698F83F
:1039D000243007468946154685B0002B61D098F8FB
:1039E0002530002B5DD003065ED5FFF765FB04464E
:1039F000002859D0037A002B56D04FF0FF334FF0F8
:103A0000FF3208F1380005F0D1FFA37F4BB108F178
:103A1000380005F0CDFF6FF00A04204605B0BDE880
:103A2000F083A37AC5B13BB301234FF00008A3771D
:103A3000384601A9CDE90195CDF80C8000F0E4F9F4
:103A40001C4B984229D084F81E801EBB6FF00404E2
:103A5000194805F0ADFFE0E7E27F02B1E577002B02
:103A6000E2D100F0D7FCB842DED000F0C7FC12482B
:103A700005F09EFF0024D0E7B8F80A30AB42F0D939
:103A80006268B5FBF2F302FB1353002BE9D101236B
:103A9000E377E6E7C6F80080D8E706B13560002492
:103AA000D6E76FF01204B8E76FF01504B5E700BF72
:103AB000101000200000AD0B481000202DE9F0414F
:103AC0001D46204B174693F824200E46002A33D07B
:103AD00093F8253083B3030631D401B97FBBFFF7D8
:103AE000EBFA044658B3037A4BB34FF0FF334FF071
:103AF000FF32154805F05AFFE368B8469F4228BFD9
:103B0000984646B93FB905B12B600F4805F050FF04
:103B10000020BDE8F08142463046A16905F010FF63
:103B2000A3694344A361E368A3EB0803E360002DAA
:103B3000EBD0C5F80080E8E76FF01200E9E76FF01E
:103B40001500E6E7101000204810002070B51E4D4B
:103B5000034695F8242082B395F825206AB31B0606
:103B60002ED4FFF7A9FA044650B3037A43B34FF0BB
:103B7000FF334FF0FF3205F1380005F017FFE3681F
:103B8000B3B9012663692677A361637F83B1FFF729
:103B900077FB30B905F1380005F00AFF6FF00B0034
:103BA00070BD067484600673FFF7BEFAFFF7B4FABF
:103BB000064805F0FDFE0020F2E76FF01200EFE787
:103BC0006FF01500ECE700BF101000204810002037
:103BD00010B5084B0C4693F824302BB1FFF76CFA64
:103BE00028B10460002010BD6FF01200FBE76FF0F9
:103BF0001500F8E710100020014B1860704700BF57
:103C00001010002008B5074B93F8243023B1FFF7BC
:103C100053FA20B1406808BD6FF01200FBE76FF067
:103C20001500F8E710100020064B10F0800FA3F1EC
:103C3000D80208BF1346182200F00F0002FB003024
:103C4000704700BFB81900200023024A1360024ADF
:103C500013707047981A0020B63700204FF40062A6
:103C6000114BC3F800240122C3F80025D3F8002427
:103C70001205FBD54FF40062C3F800248022C3F87C
:103C80001C250122C3F8302540F2FF12074B1A60B1
:103C90000023074A1360074A1370074A1370022271
:103CA000064B1A70704700BF00600350941A002042
:103CB000901A0020B2370020B4370020B637002019
:103CC0000022094B10B51A70084A094B094C00280C
:103CD00008BF13463620C4F80033FEF755FE012313
:103CE000C4F8043510BD00BFB5370020FDFFDF016B
:103CF000FDFFFF0100600350034B1878012894BFBB
:103D000000200120704700BFB637002010B5EFF348
:103D10001181202383F31288BFF36F8F0D4B1B7823
:103D200003F0FF0083B10C4BD3F8002412F40072AF
:103D30000AD10124C3F82C45D3F82C45D3F800440C
:103D4000A40502D5C3F82C25002081F31188BFF308
:103D50006F8F10BDB537002000600350F8B51C4BC5
:103D60001C7894BB1B4A40F2FF17106001222646C4
:103D70001A7064F07F0514F0080FEDB214BF3946D5
:103D80004021284605F05BFE2846FFF74DFF013431
:103D9000092C867506730661EBD1002440F2FF17EB
:103DA000254614F0080FE6B214BF394640213046CC
:103DB00005F045FE3046FFF737FF0134092C8575C5
:103DC00005730561EDD10448F8BD0448FCE700BF68
:103DD000B6370020981A00200000AD0B0500AD0B8F
:103DE000084B10F0800F14BFD3F81025D3F814251A
:103DF000012300F00F018B40134214BF012000206B
:103E0000704700BF0060035002462DE9F843EFF30E
:103E10001187202383F31288BFF36F8F030703D129
:103E2000194B1B7883422AD1184B10461C684FF05F
:103E30000109E44305F0FBFD154EA4B2356809FA0B
:103E400000F82C4314EA08041BD11046FFF7ECFEDF
:103E5000034680F80C9007C983E807004FF48002FE
:103E60001C619C750B4B45EA08050B483560C3F88F
:103E7000042187F31188BFF36F8FBDE8F8830748EB
:103E8000F7E70748F5E700BFB4370020941A002091
:103E9000901A002000E100E00000AD0B0A00AD0B1D
:103EA0000B00AD0B10F0080F074B06D0D3F8C00481
:103EB00010F4803F18BF0020704700F00F0000F59D
:103EC000947053F820007047006003502DE9F74FBD
:103ED000A74BD3F8604134B10022C3F86021D3F876
:103EE0006C44C3F86C44D3F828214AB10022C3F8CB
:103EF0002821A04B187805F09AFD012383401C432C
:103F00009D4F9E4E3D7897F9008015F0080141D1F4
:103F1000B8F1000F05F00F032CDA994A52F823008C
:103F200010B342F823101422534303F1A04303F5C6
:103F30005833D3F80836934A03F0010311784B4005
:103F40001370914803F024FD2846FFF76DFE837D32
:103F5000032B37D1284605F06AFD012303FA00F050
:103F6000336823EA000333600125DFF82092DFF88D
:103F700020825FE0874A52F823000028F4D042F8FC
:103F800023101422534303F1A04303F55833D3F80D
:103F90000837D0E7B8F1000F754B09DBD3F8502193
:103FA000002AE1D00022C3F85021D3F8A837C2E795
:103FB000D3F82C21002AD7D00022C3F82C21D3F823
:103FC000A836B8E7037BDBB9284605F030FD0123AE
:103FD00003FA00F03368B8F1000F23EA00033360FE
:103FE00001DA882DC0D106238DF8043000238DF826
:103FF0000730674B8DF806501B6801A89847B3E758
:10400000002DB1D101225A4BDA64ADE794FAA4F045
:10401000B0FA80F0D9F8002005FA00F31A430F280F
:10402000C9F8002024EA0304326840F3B780134241
:1040300000F0C580002CE9D14D4BD3F800215AB1D6
:10404000C3F80041544B01A81C704A4B1C7001235B
:1040500001934F4B1B689847454BD3F85421EAB165
:104060000022C3F85421D3F80413890216D58DF821
:104070000420D3F8202501A8ADF80620D3F8C034D9
:10408000002B14BF4FF001224FF48072D9F800309A
:104090001343C9F800303E4B1B689847344BD3F8A4
:1040A0005821002A2ED00022C3F85821D3F800440A
:1040B000C3F80044E30508D50122374B01A81A7064
:1040C00002230193324B1B689847A50508D50022AF
:1040D000314B01A81A70032301932D4B1B6898479D
:1040E00060050FD52C4B1A7862B100221A7001229C
:1040F0001F4B01A8C3F808259A6504230193244B9C
:104100001B6898471A4BD3F85C310BB31E4B9B6866
:1041100013B93B7859061BD00022154B01A8C3F8F0
:104120005C21D3F88034134A23F07F031370336883
:1041300023F001133360D9F8003023F4803343F0C7
:104140000103C9F8003005230193114B1B68984700
:104150003268D9F800301A4207D0002200230A48FA
:1041600003F03AFC002800F09F8003B0BDE8F08F18
:1041700000600350B4370020B3370020901A0020AD
:1041800008610350B2370020E8030020941A002091
:10419000981A002030610350B537002013407FF497
:1041A00049AF062260F07F018DF804208DF80610DB
:1041B0008DF80730D8F8003001A898473AE7062371
:1041C000A0F110018DF804308DF806108DF807501D
:1041D000F0E718F0012314BF93FAA3F898FAA8F8AF
:1041E000B8FA88F8B8F10F0F18D9A8F11005EDB298
:1041F0002846FFF719FD04462846FFF753FE63687B
:10420000B4F814C09842226830D81B1A00EB020E92
:10421000114682466360C4F800E02AE048F0800559
:104220002846FFF701FD4368B0F814A001689A45DD
:1042300028BF9A4601F06043B3F1005F044604D002
:1042400052463E4805F07CFB3C4922686368524474
:104250002260A268A3EB0A03D20768B2636033D579
:10426000BAF1000F32D1002323732FE011464FF033
:10427000000A604525D1003B18BF01231AB3504501
:1042800021D9012303FA08F32BEA03033360062341
:1042900002228DF804302A4BA2751B688DF8065057
:1042A0008DF8072001A89847D6F800B0D9F800305B
:1042B0001BEA03088DD1234803B0BDE8F04F03F09B
:1042C00067BB0023DAE768B2002BCCD00122D9F813
:1042D000003002FA08F823EA0803C9F8003023691D
:1042E00015F0080F534423613D70174B17D1002878
:1042F0004FF0140005F00F0500FB0530B5BF03EBD0
:1043000085030A35C0F80016C0F80017B5BFC0F81D
:1043100004A6C0F804A75A6043F8252025E7002822
:10432000B5BFC3F8A016C3F8A017C3F8A4A6C3F876
:10433000A4A7B4BF5A629A6417E700BFA018002070
:10434000981A0020E803002000600350024B40F45C
:104350008070C3F81805704700600350030713D43A
:1043600000F00F0310F0800F084A0BBF03F58873AD
:1043700003F5847302EB830252F8230008BF5068F0
:10438000003818BF012070470020704700600350BC
:10439000034BC3F80C0540F48070C3F80C0570475C
:1043A0000060035010B504460822002105F0D3FA3E
:1043B0000E4BD3F880242270D3F884246270D3F893
:1043C0008824D3F88C1442EA01226280D3F8902426
:1043D000D3F8941442EA0122A280D3F89824D3F8A7
:1043E0009C3442EA0323E38010BD00BF0060035009
:1043F0000122014BDA647047006003500122014B37
:104400001A657047006003500122014B5A657047DE
:1044100000600350014B1878704700BFB43700208C
:10442000024610B5EFF31184202383F31288BFF303
:104430006F8F05F0FCFA01230A4903FA00F00B68BC
:1044400023EA00030B6012F0080101BF02F00F0223
:10445000054B02F5947243F8221084F31188BFF3E0
:104460006F8F10BD941A002000600350F7B501460D
:10447000EFF31185202383F31288BFF36F8FFFF7CB
:10448000D3FB0646084605F0D2FA012211F0800F50
:1044900002FA00F22D4818D1036832EA03040AD068
:1044A0000846FFF7BDFF0323B37585F31188BFF3FB
:1044B0006F8F03B0F0BD264923EA020303600B6847
:1044C000347323EA02030B60EDE70B0715D4802950
:1044D000204B2FD001F00F0404F2DA346400C3F84B
:1044E0000048D3F80448D3F80478E4B244F0020456
:1044F0003C43C3F80448D3F80438154F04683B68BC
:1045000064EA030C1CEA020FCFD013433B60002384
:104510003373032324EA02040622B3758DF80730AF
:104520000D4B04601B688DF804208DF8061001A85F
:104530009847BAE740F2B474C3F80048D3F8044887
:10454000D3F80478E4B244F00404D1E7901A0020D0
:10455000941A002000600350981A002038B50446D1
:10456000094D4FF0FF324FF0FF33284603F034FA85
:104570002046FFF77BFF284603F00AFA4FF480023B
:10458000024BC3F8042138BDE803002000E100E03D
:10459000F8B54FF0FF324FF0FF332A4803F01CFA12
:1045A0004FF48002284B3620C3F88421FEF70EFA20
:1045B00098B10127254E264B34681B68240C24042F
:1045C0001C4354BB40F2FF13224D33603620C5F824
:1045D0000445FEF7E7F9C5F800431F4A13788BB18D
:1045E00000211C4BC3F808110121C3F80026C3F8B1
:1045F00004165960D3F808110029FBD00021C3F834
:10460000081111700022134BC3F800250D4803F068
:10461000BFF90122114B1A70F8BD94FAA4F5B5FA4E
:1046200085F528460F2DC6BFA5F11000C0B240F099
:104630008000030701D4FFF719FF07FA05F524EA04
:104640000504BEE7E803002000E100E0941A002022
:10465000901A002000600350B2370020B6370020C7
:1046600010B504464FF0FF324FF0FF33114803F00E
:10467000B3F92046FFF7FAFE012304F00F0293403E
:10468000DB430D4A14F0800F15BFD2F81015D2F895
:1046900014150B400B4014BFC2F81035C2F8143586
:1046A000044803F075F94FF48002044BC3F8042169
:1046B00010BD00BFE80300200060035000E100E0EF
:1046C00070B50446FFF78CFB68B9012504F00F02B2
:1046D00014F0800F144B05FA02F205D0D3F8101530
:1046E0000A43C3F8102570BDD3F814150A43C3F864
:1046F0001425631E062BF6D8EFF31186202383F3CF
:104700001288BFF36F8F2046FFF78AFE204605F020
:104710008EF9064A8540136823EA0503136086F381
:104720001188BFF36F8FDEE700600350901A0020FE
:10473000030610B5044605D4FFF710FE10B120465D
:10474000FFF76EFE014BC3F8184510BD0060035023
:10475000084B70B5C31A0D4607499B1004465943D0
:104760004022064805F08FF92B4601462046BDE859
:1047700070401847B01A0020B76DDBB608BD0000C6
:10478000402373B50B4C0093041B0B460D460A499E
:10479000A41061430646094A094805F09FF9011E25
:1047A00005DA30462B4602B0BDE87040184702B02B
:1047B00070BD00BFB01A0020B76DDBB6459B00008E
:1047C00008BD000010B5EFF31184202383F3128895
:1047D000BFF36F8F074A136823F00201DB071160F4
:1047E00002D4012006F044FD84F31188BFF36F8FDB
:1047F00010BD00BF501B00202DE9F843002201210D
:1048000006460520FEF7F0F8114802F0AFF8114B0C
:10481000984219D102F0BAF800244FF01C090C2775
:10482000DFF834803569414609FB045004F0B6FDD9
:10483000002807DB012307FB04551C44042CAB674D
:10484000F0D10020BDE8F8836FF00400FAE700BF64
:104850005D4900000000AD0BE8C000007FB50022FC
:104860000123CDE9022304ABCDE90433094A6B46A9
:10487000CDF800D0CDF804D005F05DF9002805DBB7
:104880004FF480420023684603F0A6F807B05DF8B5
:1048900004FB00BF7B9B00000C22104B014602FB77
:1048A0000033002030B4D3E91C521867EFF31180B5
:1048B000202484F31288BFF36F8F9C6F04F0C00430
:1048C00044F002049C6780F31188BFF36F8F1DB121
:1048D0002B4630BC0248184730BC7047B01A002045
:1048E00008BD000010B4EFF31182202383F3128877
:1048F000BFF36F8F1748016841F002040460C807D6
:1049000007D482F31188BFF36F8F012010BC02F02F
:1049100059B84FF05021D1F80C04D1F80C14C90744
:10492000EFD5EFF3118083F31288BFF36F8F0A493D
:104930008B6F03F0C00343F002038B6780F3118891
:10494000BFF36F8F82F31188BFF36F8F002010BC0D
:10495000FFF7A2BF501B0020B01A0020062812D873
:10496000DFE800F0040F1111110D0B00064B986FDA
:1049700010F0070007D1FFF78FBF0220FBE70320ED
:10498000F9E70120F7E77047B01A0020C3B21C20F6
:10499000014A03FB00207047B01A00202DE9F041C6
:1049A000012207463649D1E8EF3FC1E8E02F002851
:1049B000F9D133B9334934484B60CB608A6004F095
:1049C00000FD7B1E012B2BD8012F07D14FF0502368
:1049D000D3F81C3403F00303022B21D006F011FEA0
:1049E0000546F8B9294B1B78E3B14FF0502302225A
:1049F0000646C3F808234FF05024DFF89480D4F81B
:104A00001824D4F81834D20315D503F00303022B6D
:104A100001D0012F0FD16DB386F31188BFF36F8FD3
:104A2000BDE8F081EFF31186202383F31288BFF3F2
:104A30006F8F0125DFE7C5B1304604F015FFD4F8CC
:104A40001835DBB2012BDAD1D4F80421002AD6D0F4
:104A50000022C4F80421D4F804210222C4F8182545
:104A60002022C8F88021A360C9E70021212003F09B
:104A700039FCE4E74FF050230222C3F80423CFE7C8
:104A8000AC1A00209C1A0020CC1A0020BB37002052
:104A900000E100E008B5074806F01BFC38B1064805
:104AA000FEF728FA0448FCF737F8002008BD6FF03D
:104AB0001200FBE71CBD0000BD4A00000A2838B503
:104AC0000446074D04D1AB680D2128465B68984722
:104AD000AB6803485B68E1B29847204638BD00BF29
:104AE0001CBD000000F1744000F5A6000A289ABF22
:104AF000024B33F910006FF00F007047E4C3000061
:104B0000024B0B6001231360704700BFC0C100005F
:104B10000048704740C100000268154BFF2A08BFDB
:104B20004FF0FF32C3F824254268FF2A08BF4FF038
:104B3000FF32C3F828258268FF2A08BF4FF0FF32F2
:104B4000C3F83025C268FF2A08BF4FF0FF32C3F810
:104B500034250269FF2A08BF4FF0FF32C3F8382519
:104B60004269FF2A08BF4FF0FF32C3F83C25704767
:104B700000B002502DE9F047436890B05D6B0746E6
:104B8000002128460AAA05F033F9041E7BDB0A9BA4
:104B90002A681979186800F0FFFA041E73DB0022F6
:104BA00001212B20FDF720FF00264FF05023C3F8F2
:104BB000B865072006F088FBD7F804803A694046BC
:104BC000564902F0DDFAFFF78DFF041E51DB544D0C
:104BD0000AAC0FCD0FC495E80300AB230DF1040917
:104BE00084E803000196C9E901668DF804304D4B55
:104BF0000AA8D3F8242504ADD2B20492D3F828250C
:104C0000D2B20592D3F83025D2B20692D3F8342529
:104C1000D2B20792D3F83825D2B20892D3F83C35F5
:104C2000DBB20993FFF778FF012002F027FB014672
:104C30002846FFF771FF3C4B994228D13146484640
:104C400004F0A4FF041E14DB232006F03DFB4FF00C
:104C5000030A9F2331460AA8CDE90A66CDF81090D1
:104C6000CDF814A08DF828300C9504F08FFF041EA9
:104C700010DA4FF050230222C3F8B82502F01CFBD3
:104C800008B102F007FB204610B0BDE8F0876FF0D6
:104C90000404EEE75246494608F1300004F029FECC
:104CA0000446002834D17A68537F023B012B2DD96A
:104CB000167F023E022E8CBF0026012604F097FFCD
:104CC000002828DBC2B2C0F380108642D1D0002376
:104CD000012182F040020AA8ADF800300A938DF855
:104CE0000020CDF810D005910C938DF828100B956D
:104CF00004F04CFF04460028BBD104F078FF041EEA
:104D000001DBE307F9D404EAE474B2E70126D5E74E
:104D10006FF01204ADE70446ABE700BF819B0000D3
:104D200090BF000000B002500000AD0B054B99424F
:104D300006D14FF0FF324FF0FF33303002F04CBE5F
:104D4000704700BF0000AD0B2DE9F84F07460E4637
:104D500092464568C1F30B03002A59D0C2F30B02F7
:104D600052EA030454D1002952DBEA6A01EB0A0338
:104D700093424DD804F085FF2046D7F8048004F014
:104D800051FF0446C8B9DFF89090D8F82C3053454D
:104D900019D106F095FAD346054629463869FFF73A
:104DA000C5FF4D4524D1BAEB0B0A5E44EDD101207D
:104DB00004F038FF002C08BF0446384604F047FFD3
:104DC0002046BDE8F88FBAF5803F09D3B3B2A3B946
:104DD0003146012002F07AFA4FF4803B0546DCE7C9
:104DE000BAF5805F09D20D493869FFF79FFF0B4D77
:104DF0002846FFF777FE0446D9E7C6F30B000028E4
:104E0000F1D1314602F062FA4FF4805B0546C4E707
:104E10006FF01504D4E700BF0000AD0B0400AD0B2C
:104E20002DE9F3470F4605461E4690464168002A85
:104E300079D0002B77D0042B01D9B30773D117F0A9
:104E4000030470D1002F6EDBCA6ABB1993426AD883
:104E5000284604F016FF204604F0E4FE044648B15C
:104E6000012004F0DFFE284604F0F1FE204602B0E7
:104E7000BDE8F087032E1ED804213A460DEB010051
:104E800006F01BFA044601462869FFF74FFF274B3F
:104E90009C4235D13246414601A804F051FD04211F
:104EA0003A460DEB010006F005FA04460146286972
:104EB000FFF73CFF24E008F06043B3F1005F02D14C
:104EC00018F0030F2BD0DFF864A0042EB14628BFE2
:104ED0004FF0040941464A4601A804F031FD3A4624
:104EE000494601A806F0E6F9044601462869FFF79D
:104EF0001DFF544504D1B6EB0906C8444F44E4D124
:104F00002046FFF7EFFD0446012004F08BFE064625
:104F1000284604F09CFE002C08BF3446A6E73A461B
:104F200031464046BFE76FF015049FE70000AD0B28
:104F30002DE9F04F824688461C46174685B0002A68
:104F400000F08F80002B00F088800029C0F289805B
:104F50004268CB18D26A934200F28380C8F1000500
:104F600005F0030504F08DFEA54228BF25467B42CF
:104F700003F0030307F0030658BF5E42764206F0D3
:104F80000306A64228BF2646631BA41B24F0030485
:104F900023F00309A145C8BFA14603F0030BC8BF16
:104FA000A3EB040BB9F1000F18D0BB1908EB0502F5
:104FB00049461846019306F080F904460146DAF89E
:104FC0001000FFF7B3FE284A94423DD1B54205D008
:104FD000019B4A461946781904F09BFCC5B1C5F1FE
:104FE00004060421A8EB060202A806F066F90446AE
:104FF0000146DAF81000FFF799FE1B4B9C4223D1C3
:1050000006F108032A4638460DEB030104F098FC2C
:10501000BBF1000F17D0082108EB05024A440DEB45
:10502000010006F04AF904460146DAF81000FFF7DD
:105030007DFE0D4B9C4207D109EB05005A4602A9A3
:10504000384404F07DFC084C504604F000FE204635
:1050500005B0BDE8F04FFFF745BD184605B0BDE807
:10506000F08F6FF01500F9E70000AD0B024B0B60FD
:1050700001231360704700BF541B00200048704795
:10508000DCC1000010B501220648114606F032FAD4
:1050900006F0F6F8044C206006F0EFF8606000209F
:1050A00010BD00BF5C1B0020541B002070B50C46D7
:1050B000154606F0E2F829460646204604F0FCFDB7
:1050C00008B3B4FBF6F306FB1343E3B9B5FBF6F301
:1050D00006FB1353BBB9AE4201D9002070BD4FF09F
:1050E000FF324FF0FF33094802F076FC06F0C5F8B6
:1050F0000646204601F042FDAD1B3444F9D1034879
:1051000002F046FCE9E76FF01500E7E75C1B0020C2
:10511000F8B50E461946304617461C4604F0CCFD3D
:1051200008B344EA060515F003051CD1A4B14FF0FD
:10513000FF324FF0FF330D4802F04EFC24F0030421
:10514000A54206EB050009D1094AD2F80034DB0775
:10515000FBD5064802F01CFC0020F8BD795901F08F
:105160002BFD0435ECE76FF01500F6E75C1B002023
:1051700000900350036803F01F025B09026004D033
:10518000012B034818BF002070470248704700BF3A
:1051900000288450002584502DE9F04F15468346A1
:1051A00040F2FF18DFF88891DFF888A185B000EBA6
:1051B0008101594503D1002005B0BDE8F08FDBF82F
:1051C0000030C3F3C322082AC3F3080400F2AA8004
:1051D0005B0C444508BF4FF0FF3419F80270222BD6
:1051E00000F2A380DFE803F012191F22252B22A171
:1051F000A1A1A13A67A1A1A1A1A1A1A1A1A16A7F99
:105200008285A1A1A1888F9295989B00C5F80C4535
:10521000601C5DD10BF1040BCBE7C5F81445621C93
:10522000F8D000265DE0C5F80845F1E7C5F810455F
:10523000F5E7631CC5F80845ECD0002604E0661CC1
:10524000C5F80C45E6D0012603A80394FFF792FFAA
:105250000122039B02FA03F3C36008E0C5F8084586
:10526000002FDCD1631CD5D0002606273246DBF8A0
:105270000030039403F40040002818BF002203A864
:1052800018BF012601930092FFF774FF039C019B56
:1052900000EB8400D0F80042C3F3412C009A3B029B
:1052A00043EA8C03134304EA0A04234343EA460314
:1052B000C0F80032AEE7C5F80C45D1E7C5F8604547
:1052C000601CDBF80030A5D0C3F30043002BBAD03C
:1052D000012603A80394FFF74DFF039B06FA03F38F
:1052E00083603246C3E7C5F86445E9E7C5F8684519
:1052F000E6E7C5F86C45E3E7C5F82445621C89D0AC
:1053000001260022B3E7C5F8284581E7C5F83045F6
:10531000F4E7C5F83445F1E7C5F83845EEE7C5F8D8
:105320003C4575E76FF0150046E76FF0850043E7F1
:10533000E9C70000F0F0FCFF2DE9F74306464FF007
:105340000008002201210820FDF74EFB0820FDF790
:105350001BFB776835693C684146C4F800852E60C0
:10536000D7F80C9001AA484604F042FD00283FDB24
:10537000019BD9F8002019791868FFF70DFF002864
:1053800036DB6B7AD6F810C0012B03D0032B2DD15E
:105390004FF01008AB7A032B28D195F80BE0BEF143
:1053A000000F02D0BEF1010F20D12A7A012A22D0AB
:1053B000022A24D0D2B910466B687168B3F5164F33
:1053C000096800F0BA803AD8B3F5165F00F0B880EB
:1053D00020D8B3F5966F00F0B58012D8B3F5967F5C
:1053E00000F0B380B3F5167F00F0B2806FF0850057
:1053F00003B0BDE8F0834FF480700E22DCE700209C
:10540000FBE7B3F5166F00F0A680B3F5965FEDD11C
:105410005D4B43E0B3F5E14F00F0A08008D8B3F551
:10542000615F00F09D80B3F5964FDFD1574B35E0BB
:1054300047F612294B45D9D14FF400032EE0B3F5BE
:10544000613F00F08F8015D8B3F5963F00F08D8056
:105450000AD84DF6C0294B4500F08980B3F5614F5D
:10546000C4D14FF46B0319E0B3F5E13FBED14FF067
:10547000EB7313E0B3F5612F7CD009D8DFF81091FE
:105480004B457AD0B3F5E12FB0D14FF0E86305E09A
:10549000DFF800914B45A9D14FF08053C1F8243576
:1054A000736840EA0E001B6842EA08021043C3F822
:1054B0006C050CF10403D5E9010183E803007B6866
:1054C000990712D505F1180001F03CFB324B9842C8
:1054D00056D1287E04F10C0204F5907105F00EFE01
:1054E00001202B7E984001F03BFA0823C4F80035D8
:1054F0003B7A53B9C4F81031D4F810316B69C4F851
:1055000034350123C4F8383523607B6800209A07BE
:105510005CBF4FF48073C4F804337B68DB0644BF80
:105520004FF48003C4F804332B69C4F844350123D5
:10553000C4F84805A360E3605AE74FF41D03ADE7E4
:10554000164BABE74FF49E23A8E74FF4A033A5E733
:105550004FF41C33A2E74FF41D239FE7104B9DE748
:10556000104B9BE74FF06C7398E70F4B96E74FF4A7
:10557000650393E74FF0706390E74FF080638DE72A
:105580006FF0040034E700BF00B0130000A04E002D
:1055900090D0030040420F000000AD0B00502700E8
:1055A00000C0750000F03A0000903A012DE9F0418A
:1055B00004460D46076906F024F84FF02008B0B9FC
:1055C0002C4B1B789BB16426606804F03FFCF0B95B
:1055D000012005F087FD013EF6D10021212002F0D7
:1055E00081FEF0E786F31188BFF36F8FF5E7EFF3E5
:1055F0001186314688F31288BFF36F8F606804F01C
:1056000025FC80B986F31188BFF36F8FEFE7EFF3C6
:105610001186314688F31288BFF36F8F606804F0FB
:1056200015FC0028DED03B691D706268386913687C
:10563000C3F844050120C3F848050020C3F8200141
:10564000D3F82051C3F858015268D3F85801D20654
:1056500008D5082062681268C2F800054FF480027D
:10566000C3F8042301229A6081F31188BFF36F8F7E
:10567000BDE8F081BB3700200123834070B5DC43D7
:105680000B4AD2E8EF1F01EA0405C2E8E65F002EEC
:10569000F7D14FF4803282400648C0F80823BFF3A8
:1056A0005F8FBFF36F8F0B4214BF0120002070BDCE
:1056B000781B00200050015070B40E4922F07F4644
:1056C000D1E90034D01AC31844F10004C1E9003410
:1056D000A6F50013B3F5400F09D2074B1B681A0A51
:1056E0001B069C19054B42F10005C3E9004570BC3F
:1056F00002F0ACBF380600207C1B002040060020D2
:10570000D9B101230D4A8340D2E8EFCF4CEA030C14
:10571000C2E8E1CF0029F7D14FF48033084A834033
:10572000C2F80433074BD3E8AF3FC340DB0742BFA7
:105730004FF40012044BC3F800217047781B00207F
:1057400000500150741B002000E100E00D4B186870
:10575000010A0006BFF35F8F0B4BD3F8043518180E
:1057600041F10001B3F5801F0AD2084BD3E90023B1
:10577000904271EB030303D210F1807041F10001FC
:10578000704700BF7C1B00200050015040060020E5
:105790002DE9F04F85B016461F4604469DF840A0FF
:1057A000FFF76AFF0190FFF7D1FFB04271EB0703EB
:1057B00052D23B4B301A67EB0101984271F1000164
:1057C0004DD2384B03EB0413D3E902239F4208BFA9
:1057D000964258D04FF48038334908FA04F82046EE
:1057E00026F07F4BC1F8488304F077FB4FF00309A4
:1057F000584604F15005AD00ADB205F1502504F551
:10580000A87305F580350293029A20F07F4341F892
:105810002230C1F84483D1F80435244AC01A033831
:1058200020F07F4090422ED9286868B1D1F8043525
:10583000A3EB0B0020F07F40B0F5000F039322D9BB
:10584000204604F04AFB039BBAF1000F07D109EB95
:10585000030009F10109D7E7BAF1000F09D06FF091
:10586000150520460199FFF74BFF284605B0BDE816
:10587000F08F01230E4AA340D2E8EF0F1843C2E88D
:10588000E10F0029F8D107490E982301C8500F9B5A
:1058900001EB04120025C2E902675360E1E700BF93
:1058A000010080002806002000500150FDFF7F000D
:1058B000741B00207FB500254FF0FF304FF0FF3103
:1058C000194C1A4B0226C4F80833C4F84833184B55
:1058D000C4F80855C3E902014FF480334FF40012B5
:1058E000C4F80433134B0121C4F804631520C3F832
:1058F00080212A46FDF778F81520FDF745F80123A9
:105900000D4AA360236013600C4B0D4A0093284698
:105910000023CDE90155FFF73BFF3046FFF73EF886
:10592000284604B070BD00BF0050015003000F00B6
:105930002806002000E100E0781B0020B956000096
:10594000FFFF7F002DE9F7432E4BD3F80423900788
:105950000BD5D3F8042142B10022C3F804212A4A0E
:10596000D3F80431136801331360264AD2F80433A4
:10597000D90326D5254BD3E8EF1F21F00100C3E85A
:10598000E40F002CF7D1CB0702D4D2F84031C3B1D9
:1059900000251C4CC4F84051D4F84031FFF7D6FE26
:1059A000EFF31182202383F31288BFF36F8F184B1C
:1059B000D3E90267B042B94106D282F31188BFF33E
:1059C0006F8F03B0BDE8F0834FF0FF38D3E90010CC
:1059D0004FF0FF391D60C3E902894FF48033C4F8EA
:1059E0004833C4F84051D4F8403182F31188BFF3F2
:1059F0006F8F0029E5D0009032463B462846884705
:105A0000DFE700BF005001507C1B0020741B00200A
:105A10002806002030B5431C124C85B005D08442C6
:105A2000A8BF0446012CB8BF0124FFF78FFE0E4B20
:105A30000C4DD3E90013401AB0F5000F0FD2221815
:105A4000AA4228BF2A46002052180849CDE9010081
:105A5000009143F10003FFF79BFE05B030BD2A46DD
:105A6000F1E700BFFFFF7F0038060020B9560000B5
:105A700008B5FFF76BFE024B1B68C01A08BD00BFDC
:105A800038060020012310B5074C15206360FCF791
:105A900089FF4FF40012054BC4F80833C4F84833AB
:105AA000034BC3F8802110BD0050015003000F00CC
:105AB00000E100E040EA0103C3F30D0330B58BB908
:105AC00040F21515094C890BC0F38730994201D17A
:105AD000002030BDC218D2B202F5C07244F8225084
