:020000040000FA
:10000000D8260120ED34000035410400D934000029
:10001000D9340000D9340000D9340000D9340000AC
:10002000000000000000000000000000FD3600009D
:10003000D93400000000000081360000D9340000EF
:100040002539000025390000253900002539000038
:100050002539000025390000253900002539000028
:100060002539000025390000253900002539000018
:100070002539000025390000253900002539000008
:1000800025390000253900002539000025390000F8
:1000900025390000253900002539000025390000E8
:1000A00025390000253900002539000025390000D8
:1000B00025390000253900002539000025390000C8
:1000C00025390000253900002539000025390000B8
:1000D00025390000253900002539000025390000A8
:1000E0002539000025390000253900002539000098
:1000F0002539000025390000253900002539000088
:100100002539000025390000253900002539000077
:100110002539000025390000253900002539000067
:100120002539000025390000253900002539000057
:100130002539000025390000253900002539000047
:100140002539000025390000253900002539000037
:1001500025390000FFFFFFFF7BB972B90029BEBF40
:1001600000204FF0004106E008BF00281CBF6FF0E0
:1001700000414FF0FF3000F057B8ADF1080C6DE9C9
:1001800004CE002909DB002B1ADB00F091FADDF820
:1001900004E0DDE9022304B07047404261EB410115
:1001A000002B1BDB00F084FADDF804E0DDE902231C
:1001B00004B0404261EB4101524263EB430370479C
:1001C000524263EB430300F073FADDF804E0DDE92B
:1001D000022304B0404261EB41017047524263EB9D
:1001E000430300F065FADDF804E0DDE9022304B022
:1001F000524263EB4303704753B94AB9002908BF21
:1002000000281CBF4FF0FF314FF0FF3000F00CB85A
:10021000ADF1080C6DE904CE00F04AFADDF804E017
:10022000DDE9022304B07047704700BF80EA101474
:1002300004F0F01480EA0410604081EA111404F024
:10024000F01481EA0411614082EA121404F0F014FF
:1002500082EA0412624083EA131404F0F01483EA81
:100260000413634080EA102404F47F4480EA0420ED
:10027000604081EA112404F47F4481EA0421614052
:1002800082EA122404F47F4482EA0422624083EA70
:10029000132404F47F4483EA0423634081EA500476
:1002A00004F0553480EA4400614083EA520404F0CB
:1002B000553482EA4402634082EA900404F0333405
:1002C00080EA8400624083EA910404F0333481EAD6
:1002D00084016340704700BF82EA900404F0333425
:1002E00080EA8400624083EA910404F0333481EAB6
:1002F0008401634081EA500404F0553480EA4400EC
:10030000614083EA520404F0553482EA44026340B7
:1003100080EA102404F47F4480EA0420604081EAEB
:10032000112404F47F4481EA0421614082EA12240A
:1003300004F47F4482EA0422624083EA132404F432
:100340007F4483EA0423634080EA101404F0F0142D
:1003500080EA0410604081EA111404F0F01481EA8C
:100360000411614082EA121404F0F01482EA0412CB
:10037000624083EA131404F0F01483EA0413634028
:10038000704700BF2DE9F14F94464FEA930B8A68FE
:10039000CB6808684968FFF749FF0BF1060E33E0A8
:1003A00083EA134480EA134582EA134746BA96EA81
:1003B0003444604000F00F1684EA063420F00F1633
:1003C00084EA161054BA94EA0106724002F00F143F
:1003D00086EA043622F00F1486EA14124CBA6540FD
:1003E000694001F00F1485EA043521F00F1485EA05
:1003F00014115CBA67407B4003F00F1487EA04379E
:1004000023F00F1487EA1413BCE8F0006040694041
:1004100072407B4000F0E03400F0103500F00F3007
:1004200040EA540040EAC50080EA900404F0332416
:1004300080EA8400604001F0E03401F0103501F002
:100440000F3141EA540141EAC50181EA910404F007
:10045000332481EA8401614002F0E03402F0103577
:1004600002F00F3242EA540242EAC50282EA9204E2
:1004700004F0332482EA8402624003F0E03403F0A3
:10048000103503F00F3343EA540343EAC50383EA0C
:10049000930404F0332483EA8403634081EA3247FF
:1004A00087EA134581EA354690EA060484EA034B5D
:1004B00082EA1B4280EA044484EA054483EA144A3F
:1004C00085EA14448BEA044B84EA374481EA0B4101
:1004D00081EA164104EA0A00454082EA04082BEA50
:1004E000080041408AEA0B0602EA060084EA344327
:1004F0008AEA3A4603EA060778404540414088EADE
:1005000038478BEA3B4007EA000985EA090583EA98
:100510000709464006EA0906714085EA010005EA36
:100520003546464006EA314181EA304181EA3646A5
:1005300006EA304686EA3546344008EA010886EA8B
:1005400001052A4086EA364003405A4081EA314399
:100550001F407C4080EA030709EA070988EA090886
:10056000544088EA020806EA0A0601EA0B018AEA10
:100570000B0215408AEA3A42104045408BEA3B4064
:1005800003405E404240174079404D404E40E443B6
:10059000F64386EA18435D4085EA054083EA134343
:1005A00086EA034183EA384284EA114383EA04433A
:1005B0005FEA3343BEF1010E3FF6F2AE1ED4BCE853
:1005C000F0006040694072407B4020BCFFF784FE31
:1005D00028606960AA60EB60BDE8F08F2DE9E0411A
:1005E0004FF2F00280EA1031114080EA01304840B9
:1005F00041088208C3084FF0000E4FE700F01130A9
:1006000001F0113102F0113203F0113340EA4100E0
:1006100040EA820040EAC3004FF2F00280EA103163
:10062000114080EA01304840BDE8E0812DE9F04FFB
:1006300002F11C050646074600EB850851F8040B3D
:10064000043A46F8040BF9D14FF0010CFFF7C6FF4E
:100650005FEA302080EA0C001ECF41404A40534000
:100660005C401EC62000464517D04FEA4C0C1CF4D7
:10067000807F18BFACF1E50C2C2DE7D03C2D06D1C6
:10068000FFF7ACFF06CF41404A4006C6100006CF38
:1006900041404A4006C61000D8E736E90F00FFF790
:1006A000C5FD043D86E80F00F7D1BDE8F08F00BF1F
:1006B0002DE9F04786468C460846089E1546744646
:1006C0001946002B40F0C1808542B2FA82F245D92A
:1006D0004AB1C2F1200300FA02FC954094402EFA80
:1006E00003F343EA0C0C4FEA154EA8B2230CBCFBF3
:1006F000FEF80EFB18CC08FB00F943EA0C439945C1
:1007000028D9EB1808F1FF3704D2994502D9A8F18E
:1007100002072B44A3EB0903A4B2B3FBFEFC0EFBC0
:100720001C330CFB00F044EA0344A04214D92C19FA
:100730000CF1FF3304D2A04202D9ACF102032C44E5
:10074000241A43EA07401EB1D4400023346073608A
:10075000BDE8F0874746DDE76346F1E792BB431B00
:1007600001214FEA154EAFB2200CB3FBFEFC0EFB8D
:100770001C330CFB07F840EA0343984561D9EB189A
:100780000CF1FF3004D2984502D9ACF102002B44A1
:10079000A3EB0803A4B2B3FBFEFC0EFB1C330CFB63
:1007A00007F744EA0344A7424DD92C190CF1FF3353
:1007B00004D2A74202D9ACF102032C44E41B43EA61
:1007C0000040C0E7C2F120039540944020FA03F1B5
:1007D0002EFA03F34FEA154E9040AFB20343B1FB3C
:1007E000FEFC0EFB1C10190C0CFB07F841EA004143
:1007F000884522D969180CF1FF3004D2884502D906
:10080000ACF102002944A1EB08019BB2B1FBFEFC54
:100810000EFB1C110CFB07F743EA01439F420ED964
:10082000EB180CF1FF3104D29F4202D9ACF1020166
:100830002B44DB1B41EA004193E76046E3E7614656
:10084000F7E76046A4E76346B8E7834206D916B9DE
:10085000002108467CE7C6E900E0F9E7B3FA83F730
:100860008FB9834201D3724508D8BEEB020460EB16
:10087000030301209C461EB9002169E73846FAE7C8
:10088000C6E9004CF8E7C7F1200CBB400EFA07F5AB
:1008900022FA0CF42EFA0CF1BA401C4320FA0CF3A5
:1008A000B8404FEA144901431FFA84FEB3FBF9F83C
:1008B00009FB18300B0C08FB0EFA43EA00439A457B
:1008C00040D9E31808F1FF3004D29A4502D9A8F1C3
:1008D00002002344A3EB0A0389B2B3FBF9F809FB36
:1008E000183308FB0EFE41EA03418E452CD96118EE
:1008F00008F1FF3304D28E4502D9A8F10203214446
:1009000043EA0040A1EB0E01A0FB02984145CE4610
:10091000434602D306D14D4504D20138B9EB020E4D
:1009200068EB0403002EA7D0B5EB0E0261EB0301C8
:1009300001FA0CFC22FA07F3F9404CEA0303C6E97A
:10094000003199E74046C5E74346D9E7000000007B
:100950002DE9F04F824616461C4600259FB00391B4
:10096000307810B9284600F087BD731C25280693FF
:1009700006D00399D0470028C0F27E8501352CE2CD
:100980001822002110A843F0AEFC7378252B7ED0EE
:10099000002398469E469C461F46701C014610F850
:1009A000012B2B2A00F0A68000F29D80202A00F067
:1009B000A480232A00F0A4802BB19DF8483043F096
:1009C00040038DF84830B8F1000F05D09DF848304D
:1009D00043F020038DF84830BEF1000F05D09DF89C
:1009E000483043F010038DF84830BCF1000F05D0BB
:1009F0009DF8483043F008038DF848302FB19DF83A
:100A0000483043F004038DF848309DF8483003F037
:100A10004400442803D16FF386138DF848309DF8C5
:100A200048302A2A43F080038DF8483040F0848013
:100A30009DF849204B1C42F001028DF849201A789C
:100A40002E2A0CBF012100219DF8492061F34102AB
:100A50008DF849207CD15A782A2A72D000224FF092
:100A60000A0C0133194611F8010BA0F13007092FC8
:100A700040F2B3809DF848101492C1F3400040EA60
:100A8000D2700A4660F341028DF8482060E0B21C43
:100A900006928DF84B309DF849209DF84A30D707D3
:100AA00003F0070040F1548154F8041B002904911D
:100AB00008DA9DF8481041F004018DF848100499B7
:100AC00049420491510740F14B8154F8047B002FB7
:100AD00080F24A819DF849206FF341028DF8492048
:100AE0004FF0FF3740E12D2A0DD0302A7FF464AF5C
:100AF000012353E74FF0010C50E74FF0010E4DE793
:100B00004FF001084AE7012748E703460EFB02724F
:100B1000303A184610F8017BA7F1300CBCF1090FF0
:100B2000F3D999428BD09DF848101392D20F62F3FB
:100B300041018DF8481082E70B4600224FF00A0E63
:100B4000E7E79DF84920023342F004028DF849207E
:100B50001A786C2A61D045D8682A4BD06A2A65D0A9
:100B60004C2A6BD013F8012B782A06938DF84B2072
:100B700000F2AD806D2A6ED8692A00F2A880572A4B
:100B800000F28880412A04D0A2F14503022B00F232
:100B90009E8004219DF84A3002F0DF02A2F1410854
:100BA00061F30203D8F100029DF8491042EB0802FC
:100BB00062F3C7110A068DF84A308DF84910CBB29E
:100BC00000F1C48003F07802182A40F0AE806FF381
:100BD000C6038DF8493000239DE00CFB02020B4652
:100BE000303A3FE7742A25D07A2ABBD106219DF8F6
:100BF00049200CE05A78682A9DF8492006D1012145
:100C000061F3C6028DF849200233ABE7022161F39C
:100C1000C6028DF849200133A4E75A786C2A9DF862
:100C2000492001D10421EBE70321F0E705219DF8DC
:100C30004920ECE707219DF84920E8E7BDF8482066
:100C400022F4F04222F0020242F4804242F0020218
:100C5000ADF84820DFE76E3AD3B201229A4040F265
:100C600082431A429DF8493038D112F0240F60D1E6
:100C7000D1072CD503219DF84A2003F07803A3F176
:100C8000400C61F30202DCF100038DF84A2043EBD3
:100C90000C0340E00120A2F15801C9B200FA01F1B1
:100CA00011F4624F7FF475AF40F6010319429DF8CD
:100CB000493019D111F4043F09D09DF84A2060F35E
:100CC000020203F07803402B8DF84A2083D19DF86F
:100CD000483043F001038DF848307CE702219DF84D
:100CE0004A2061F30202ECE702209DF84A1003F06B
:100CF000780360F30201402B8DF84A1002BF9DF883
:100D0000481041F001018DF84810632A7FF463AF69
:100D1000003B18BF01239DF84820C2F340010B435C
:100D200063F341028DF84820B5E613F0380FCED1B9
:100D300051E703219DF84A2013F0780F61F3020276
:100D400014BF012300238DF84A20E4E70123E2E7E2
:100D50009DF948100029ACBF4FF0FF311399B0E660
:100D600097077FF5BDAE149F00220428CDE913221A
:100D70009DF8492007D1900705D49DF94910002915
:100D8000ACBF06270D2703F00703012BC2F3C302F4
:100D900033D1D31E042B04D8DFE803F021464621CB
:100DA00021002368012A4FEAE371CDE910311CD1FB
:100DB0009DF94030D917CDE9103104349DF8483001
:100DC0009907079350D032465046069B039942F04C
:100DD00073FE0028C0F250830544069EC0E554F817
:100DE000043BD917CDE91031E8E7022AE5D119B261
:100DF00043F3C033CDE91013DFE7022B24D1D31E18
:100E0000042B04D8DFE803F0181010181800012A8A
:100E10004FF0000154F8043B14D0022ACDE9103100
:100E2000CCD19BB21093C9E7073424F00704F4E84F
:100E30000201CDE91001C1E754F8043B10930023EF
:100E40001193BBE7DBB2CDE7042B08D1073424F0C4
:100E50000704D4E900010834CDE91001AEE7032B03
:100E6000ACD154F8043BDDE79DF84BB0BBF1780FF3
:100E7000B3D8BBF1570F49D8BBF1250F00F09080D4
:100E8000BBF1240FA9D9BBF1410F03D0ABF145024F
:100E9000022AA2D8DDE91012002AC0F23581079B90
:100EA0001E0700F13481C3F300194FEA4919C2F358
:100EB0000A50C2F31302002840F02C8151EA0206C6
:100EC00014BF01260026D20242EA5152C902BBF1E8
:100ED000460F40EA010E42EAE07C08BF4FF0660B85
:100EE0005EEA0C0CCDE90C1200F09581002E40F06A
:100EF00043810D9AA0F2FE3842F000420D9200208C
:100F0000DDE90C1206464FF0050C4FE1ABF158013C
:100F100020293FF662AF01A050F821F0A710000091
:100F2000DB0D0000DB0D0000DB0D0000DB0D000021
:100F3000DB0D0000DB0D0000DB0D0000DB0D000011
:100F4000950E0000DB0D00002B1000003F1000008C
:100F5000950E0000950E0000950E0000DB0D0000C0
:100F60003F100000DB0D0000DB0D0000DB0D00007A
:100F7000DB0D0000E1100000A7100000AD10000024
:100F8000DB0D0000DB0D0000A70F0000DB0D0000F3
:100F9000A7100000DB0D0000DB0D0000A710000013
:100FA00058460399E6E4002F109E3ADB3946304656
:100FB00043F0A5F93718002E3FF40FAF4FF00009AA
:100FC0009DF84A3013F01002059200F04A82023078
:100FD00013F04003DDF84C80089318BF149B404485
:100FE00018BFC018049BCDF81C80002B40F354821E
:100FF0009DF848201B1A04935307C2F3800B00F19D
:101000004B82500640F13B82B9F1000F07D04846B1
:101010000399D0470028C0F22F82D94601353022EB
:101020002EE2304643F007F9C4E7109B4FF0000969
:1010300001208DF85C300DF15D0717AEC0E7079B0E
:101040001A0754BFC3F300194FF02B09DDE9102331
:1010500058BF4FEA4919002B06DA4FF02D095242CA
:1010600063EB4303CDE91023DDE910010DF17503B6
:10107000009312AA17AB42F0D9FC0646002F0CDBF6
:101080009DF848200DF175039B1B6FF386129F425C
:101090008DF8482001D9FB1A1393002E3FF49DAE22
:1010A0000DF1750756E04FF00009DDE710980028B4
:1010B00000F0D2810DF175030093002117AB12AA45
:1010C00042F0B4FCBDF84A30064603F0EF0343F4A7
:1010D000F04343F010034FF00009ADF84A30CDE77C
:1010E000109B072A3FF679AEDFE802F00C04060CED
:1010F00008080C0C1D7070E61D806EE6EA17C3E947
:1011000000526AE61D6068E64FF02D09CFE64FF009
:101110002B09CCE640F2FF76B0422AD10A43ABF16C
:1011200041031ED11A2B35BF492369234E216E215D
:1011300034BF462266228DF85C309DF848308DF829
:101140005D106FF386138DF85E208DF848300DF139
:101150005F0717AEB81BB9F1000F3FF431AF013094
:101160002EE7192B8BBF6E234E23612141211A4696
:10117000E1E70026A7E6013849185241002AFADAC9
:10118000CDE90C12B5E6490841EAC2715208B2F144
:10119000333F404608F10108F5D200F10208012072
:1011A0000CFB02FEA1FB0C12013E724418F1020F6F
:1011B000E9DB08B1CDE90C12DDE90C21B8F1000F33
:1011C0002CDCC8F10400A0F1200C08F11C08C2407E
:1011D00001FA08F821FA0CFCC1400BF0DF0042EAEA
:1011E0000802472842EA0C0238D1F01C01DBB74262
:1011F0002ADAABF10203002F5FFA83FB7BDD9DF857
:101200004800013F830676D43B1E18BF0123059397
:1012100007F101082CE04FF0000870E6023241F1BE
:1012200000010CA808F1FF380136CDE90C2142F08D
:10123000CEFBDDE90C2192184941002908F1FF3865
:10124000F9DACDE90C21B7E79DF84830BF1B9806C5
:101250004FD43B1E18BF0123059304E00023BBF1CC
:10126000660F0593D4D117EB06084FF0660B44D4F4
:10127000B8F1100FA8BF4FF010089FEDB37B1020FE
:101280008DED0E7B0B90DDE90E03B8F1000F37D129
:10129000121841EB0301B1F1805F41D2CDE90C217D
:1012A000079BBBF1660F03F0200240F0B480002ED4
:1012B00041DC30218DF85C10002A65D1002F40F30D
:1012C000B4812E228DF85D2086B17242BA42A8BF49
:1012D0003A46002A1392A7EB0207D4BF002201224C
:1012E0009DF84A1062F345118DF84A100DF15E0821
:1012F00039E00023B0E7002389E74FF00008BCE79E
:10130000400840EAC3705B08CDE90E030EA8CDE9A2
:10131000082108F1FF3842F05AFBDDE90821B2E765
:10132000520842EAC1720CA84908CDE90C210136E5
:1013300042F04DFBB4E70DF15C080B99002909DD83
:101340000BA90CA8079242F05AFB013E079A08F835
:10135000010BF2D113969AB9002F40F364812E212C
:1013600008F8011B0026002F17DD0B9A002A14DD58
:101370000BA90CA842F043FB013F08F8010BF2E770
:101380002E2208F8012BEDE72E228DF85D20002E8D
:10139000ACD0002F99DC0DF15E08059B002B4ED1DF
:1013A000149747460BF0DF02452A23D1002EBABF1F
:1013B00076422D232B23632EC8BF64217B70C4BFCC
:1013C000B6FBF1F301FB13664FF00A01C8BF03F14E
:1013D0003000B6FBF1F3D2BFBA1CFA1CB87087F824
:1013E00000B0174603F1300001FB1363303307F8F8
:1013F000020B5370139B002B2CDC149B002BD4BFCF
:10140000002301239DF84A2063F3861200238DF800
:101410004A203B709DE60BA90CA8079242F0EFFA18
:10142000079A30288DF85C0018BF06F1FF3612B914
:10143000002F40F3FA802E228DF85D2056E74746B4
:1014400017F8012C08F1FF38302AF8D02E2A08BFEF
:101450004746A7E70123D5E73D4F81467E1F05207C
:10146000AEE51A0748BF0130B2E51046099203996C
:10147000D0470028099A05DA1FB0BDE8F08F202276
:10148000DDF810B0594600290BF1FF3BEDDC049B61
:10149000CDF810B02B445D1AB9F1000F05D04846C5
:1014A0000399D0470028E7DB0135089B002B7FD04C
:1014B0009DF94930002B28DBB3469BF80000D94644
:1014C000A0F13003092B0BF1010B48D99DF84A30EC
:1014D000AE1B99064E4407D44246002A08F1FF3855
:1014E00042DC079B33449E1A99F800002E280AD14B
:1014F0000399D0470028BFDBB8F1000F06F10106C1
:1015000038DC09F101094D463FE0B14699F8000089
:10151000C846702809F101091CD1AE1B149D464430
:101520003544AB1B002B3BDC3B46424650460399FF
:1015300042F0C2FA00289FDB3044049E0546064470
:101540006CE000BFAFF30080000000000000000866
:1015500020C304000399D0470028D7DA8CE7039909
:10156000D0470028A9DA87E730200399D047002820
:10157000B2DA81E730200399D04708F1FF38B9E7A4
:101580000399D0470028FFF677AF2878A846A0F146
:101590003003092B05F10105F2D9A6EB0906BDE7D9
:1015A00030200399D0470028FFF666AF0136B8E730
:1015B0009DF84A30DA0601D41B0706D5302003997E
:1015C000D0470028FFF658AF0135059B3BB1039982
:1015D0009DF84B00D0470028FFF64EAF0135A844D8
:1015E00006E030200399D0470028FFF645AF0135CB
:1015F000A8EB0503002BF4DC3B463246504603992A
:1016000042F05AFA0028FFF637AF284495E7202029
:101610000399D0470028FFF62FAF0135731B002B2D
:10162000F5DCFFF7DABB1646B7E60DF15D08B4E668
:101630002DE9FF4715461A7C0E467D2A80461F4637
:101640000469D96809D94521B54842F01EFD6FF0FB
:101650007905284604B0BDE8F087931C84F8D0359E
:1016600004F2D15042F034FE04F5B769484634F034
:101670003BFB022E32D00AD9F31E012B49D9324648
:101680004521A84842F001FD6FF08505E1E7002300
:10169000ADF80D3095F84A3006F00106C3F340026C
:1016A000C3F380038DF8093001238DF80B309E4B76
:1016B00002A993F87C3604F5BA608DF808208DF8FD
:1016C0000A608DF80C3007F0CFFD002872D145215B
:1016D000964842F0DAFC6FF00405BAE70023ADF853
:1016E0000C3095F84A3002A9C3F34002C3F38003DB
:1016F0008DF8093001238DF80A308B4B04F5BA6060
:1017000093F87C368DF808208DF80B3007F05EFDDD
:10171000DBE755B98649874840F25B2242F0ECF995
:1017200040F25B21824842F0DEF90023CDF80B3015
:1017300095F84A3004F5BA6AC3F34002C3F3800354
:101740008DF80930331F5E425E418DF808208DF818
:101750000A6007F0D1FCD5E9086201238DF80C304E
:10176000714B8DF80B0093F87C368DF80D30724B71
:10177000B3424FF00203934117D3704BA6FB0361B2
:1017800003FB0211AB6AF01841F100014FF47A72C9
:101790000023FEF7E1FC47F08AFE0B4602A9024651
:1017A0000091504607F0B0FD8FE74FF0FF306FF02B
:1017B0000041EBE75C4BD3F874361BB13A4600218D
:1017C000404698474FF0FF324FF0FF33484634F021
:1017D0002BFA94F87A2695F84A3062F3410385F89B
:1017E0004A3094F87B26DBB262F3820385F84A30F4
:1017F00094F85036052B3FF66EAF01A252F823F055
:101800001F180000191800000D190000131900001E
:10181000D71600000D1900006FF00F0519E7D4F876
:101820005C56002D3FF415AFD4F86036D4F864262A
:1018300004F5CC6713430DD15721414842F025FCF4
:101840006FF02205D4F85C0607F0B2FD0023C4F85F
:101850005C36FEE6002200232D782068CDE90023C7
:10186000002329461A4603F073F9064630B945218C
:10187000344842F00AFC6FF00B05E3E7D4F85C163D
:101880002A46013142F0C3FF002809DA45212E48DB
:1018900042F0FBFB6FF00B05304642F003FFD1E74F
:1018A00094F8683686F8483094F96936AE339BB2BE
:1018B000FE2B28BFFE2386F849304FF47A73D4F804
:1018C00060067A68A0FB030103FB0211002907DA16
:1018D0001E491848E92242F00FF9E9211B4822E786
:1018E0000DA3D3E90023FEF737FCC6E90801B26275
:1018F000304642F009FF3146206806F00BF818B177
:101900004921134842F0C1FB0025C5E76FF02205CD
:101910009FE66FF068059CE600CA9A3B0000000055
:10192000FCD104004FD20400000B00206DD2040053
:1019300017D20400F2C20400037DC12500CA9A3BFD
:1019400084D20400A0D20400BFD20400E1D204007B
:1019500012D30400000000002DE9F04747A7D7E9A3
:1019600000672DED028B80469FED3F8BDFF814A1C1
:1019700082B04FF0FF334FF0FF3208F57E7034F045
:10198000BFF84368044643B93949A922394842F0AF
:10199000B3F8A921364842F0A6F893F80090B9F1BF
:1019A000800F06D93249B622324842F0A5F8B62156
:1019B000F0E7002349461A468DED008BD8F8000069
:1019C00003F0C6F861684A460131054642F01FFF40
:1019D0008146002836D1237C85F8483094F91130AF
:1019E000AE339BB2FE2B28BFFE2385F84930A27C84
:1019F00095F84A3062F300034FF47A7285F84A3062
:101A0000A368A3FB0201E36802FB0311002907DAC4
:101A100019491848E92242F06FF8E9211648BAE757
:101A200032463B46FEF798FBC5E90801AA62294603
:101A3000D8F8000002F01EFD00280CDA45215046BF
:101A400042F023FB00236068636007F0B1FC284686
:101A500042F028FE8DE76068C4F8049007F0A8FC07
:101A600087E700BFAFF30080FFFFFFFFFFFFFFFF2F
:101A700017D20400F2C20400E1D2040000CA9A3B6B
:101A80000000000066D304002DE9F0414FF000088B
:101A9000137886B00E46023B511C9BB20391059110
:101AA000044600210020CDE90088CDF80880ADF87B
:101AB0001030ADF8123002F0E7FF0546002840D0A4
:101AC0003F4F022CC7F800802ED0032C54D0012C9D
:101AD00035D10322DFF8F4803A4B3B4E5A70D8F8E8
:101AE000003030685B689847D8F8003010F0100F6D
:101AF000D3F818802A466B460CBF21460221306875
:101B0000C0470446284642F0CDFD02222D4B14F179
:101B1000230F5A703CD0002C47D1386821F01EFCAE
:101B2000012005F0B9FB3EE0DFF8A080264CD8F894
:101B3000003020685B689847C30506D4284642F009
:101B4000B1FD002006B0BDE8F0814FF47A701AA311
:101B5000D3E90023A6FB0001FEF74EFBC5E908010F
:101B60000321184BAA625970D8F800302A469E69A2
:101B700020686B46B047C4E7124B02465C70134BBB
:101B800011481B6841469C6900686B46A047B8E74E
:101B9000042021F00FFC002005F07EFB40F2F22033
:101BA000002135F07FFB0120CCE7012021F002FC71
:101BB0000020B6E7AFF3008000CA9A3B00000000A7
:101BC000CC2200209D020020A4220020A022002080
:101BD00001460022014805F005BB00BF9F35040007
:101BE0002DE9F0470121054645F027FB90F80090CC
:101BF000284645F0DFFA01218246002045F063FACD
:101C0000064638B92548452142F03FFA4FF6EA70BA
:101C1000BDE8F087012120F06DFC052180463046AB
:101C200045F00BFB0446284645F0CEFA01281C4F30
:101C300030D19AF80050012D13D0022D19D04DBB90
:101C400043F065F925706570A570E5703D703B78CF
:101C500084F80490304688F8003046F075FDFF2087
:101C6000D6E743F040F9002323706370A370E3705C
:101C7000ECE73B7883F00102012B3A7007D043F088
:101C800032F9002323706370A370E370DFE743F041
:101C90003EF9F6E74FF0FF33F4E700BF58C2040007
:101CA0003AB5002008B549210B4842F0EEF925F07D
:101CB00087F905F0A7FE094832F084FEC62201210B
:101CC000074805F03DFA05F015FB4921054842F0AB
:101CD000DCF9002008BD00BF6EC20400E11B00005B
:101CE000D11B00009FC2040070B589B306680122B1
:101CF000304641F09AFC01460446304641F05DFC16
:101D0000C30708D41349AF22134841F0F5FEAF21B1
:101D1000104841F0E8FE2146304641F064FC2518A9
:101D200029460022304641F048FC2D1AAC4206D02C
:101D30000849B722084841F0DFFEB721E8E721460D
:101D4000304641F056FC2146BDE8704041F092BD5E
:101D500070BD00BFCFC20400F2C204002DE9F843F9
:101D60000F4606681446B2684B1EB2F5004F34BFEA
:101D7000042108213B4010D0C7F1000909EA0709F6
:101D8000494503F1FF3028BF494618420CD11F4690
:101D9000BCB900252846BDE8F8838F420FD82146FC
:101DA000BDE8F84341F0A8BD2C492D484FF4A2727C
:101DB00041F0A2FE4FF4A271284841F094FE9946EA
:101DC000E6E7B2EBD40FE4D9E319591A104641F013
:101DD00036FC0146304641F08CFC80460028D8D0C5
:101DE000B36809EBC005B3F5004F34BF04230823E3
:101DF0001D4435447B1E1D44B5FBF7F57D43A5EB23
:101E000009052946304641F010FC2C44073424F0E3
:101E10000704A41B804507464FEAE40408D20246A3
:101E20004146304641F09FFC4146304641F0E0FCDF
:101E30003946304641F0D7FB3844844208D239460F
:101E40003046224641F08FFC2146304641F0D0FC1E
:101E500001223946304641F0CCFB9BE7CFC204005B
:101E6000F2C20400B2F5802FF8B50CD2042A20D8B3
:101E70003B494FF4F9723B4841F03EFE4FF4F97193
:101E8000374841F030FE0823D21ACC1D114424F00B
:101E9000070421F00701091B17294FEAD1060AD8C8
:101EA0002F4940F2FB122F4841F026FE40F2FB1171
:101EB000E6E70423E8E70027046031463046A660E1
:101EC000E76041F0C5FB012185000246304641F044
:101ED000B6FB1B35ED082844B04234D83B463846A3
:101EE00004F10C019A4237DA2A462046002141F0DB
:101EF00098FB002320461A46194641F069FB771BE0
:101F000019462046012241F074FB3A46294641F029
:101F100088FB2B4600222946204641F059FB3146DA
:101F2000204641F07EFB3B4631462046002241F0F0
:101F30004FFB31462046012241F05BFB2946BDE8BC
:101F4000F84041F055BC06494FF40372054841F092
:101F5000D3FD4FF4037193E741F8040F0133C1E758
:101F6000CFC20400F2C20400014B1B68184700BF37
:101F70000000002007B50B460021024600910348EF
:101F8000FEF7E6FC03B05DF804FB00BF691F00002C
:101F9000014B1860704700BF0000002030B50025DD
:101FA00087B0CDE903010446009503A905480595CE
:101FB000FEF7CEFCDDE904309842B8BF255407B0E7
:101FC00030BD00BF61390400044608B5EFF311834A
:101FD000202383F31288BFF36F8F04F04FFE204657
:101FE00001F0B4FA024841F0CEFC42F0B9F8FCE747
:101FF00021C304002DE9F84F0446A38B08461907B6
:10200000164612D4022803F0070162D1204641F09F
:1020100080FD88B10138042800F22581DFE810F046
:10202000590023017E00C800F50001280CBF43F0D1
:10203000100143F02001A18304F1140035F006FBE8
:10204000002800F0AB8086F31188BFF36F8FBDE8E6
:10205000F88F03F00702501F01281ED80020062A1F
:102060002768C4E9000014D13A4603E0E08B013050
:10207000E0831268002AF9D123F0070343F002023B
:102080002046A28341F045FD90B342F02002A28396
:102090002EE023F007039AB2F2E7042A33D123F0AB
:1020A00007039AB22046A28341F033FD10B142F0FB
:1020B0002002A283A38B03F00709894540F0DC804E
:1020C000A18BCA0640F1218121F01003A38301F006
:1020D0000701D4F81880A38BB8F1000FB9DA0022F9
:1020E000276823F00703C4E9002243F00103A38318
:1020F000A38B03F00709894540F0BF80002FDFD094
:102100000025AA4640E0854940F21B12844841F070
:10211000F3FC40F21B11814841F0E5FC41B17F49DD
:102120004FF4AB727E4841F0E7FC4FF4AB71F2E73D
:10213000236843B9794940F25712794841F0DCFCF1
:1021400040F25711E7E723691D6845B973494FF419
:10215000AD72734841F0D0FC4FF4AD71DBE70F4630
:1021600088464FF00609A38B23F0070343F00603CC
:102170009BB2A383A268002A40F08180002F40F028
:102180008180002D9CD0BA4643F0080304F1140B63
:102190005846A38335F05AFA002875D1614940F2B8
:1021A00031125F4841F0A8FC40F231115D48B3E7BD
:1021B000022908D0594940F25D12594841F09CFC6F
:1021C00040F25D11A7E7E78B47B154494FF4AF7276
:1021D000534841F091FC4FF4AF719CE723695D686F
:1021E00045B94E4940F261124D4841F085FC40F23C
:1021F000611190E7A38BB84623F0070343F0040373
:102200009BB24FF00409A383B4E7012908D04349E6
:102210004FF4B272424841F06FFC4FF4B2717AE76A
:10222000236843B93D4940F265123D4841F064FCE2
:1022300040F265116FE723699D6845B937494FF44E
:10224000B472374841F058FC4FF4B47163E700278B
:10225000A38BB84623F0070343F005039BB24FF06E
:102260000509A38386E72D4940F26B122C4841F003
:1022700043FC40F26B114EE7002700257AE74FF050
:10228000010A81E792467FE786F31188BFF36F8FDB
:10229000BAF1000F16D147BB15B120462249A84715
:1022A000EFF31186202383F31288BFF36F8F584614
:1022B00035F0BEF908BB1B498822194841F01CFCC7
:1022C000882173E7A1680029E5D00E680029E2D0D3
:1022D00043464A462046D1F804A0D0471EB1336891
:1022E00031461E46F2E73346FAE7394643464A4648
:1022F00020463F6841F039FCCDE7584635F0BCF93F
:10230000A38B23F00803A383DAE68B067FF594AE54
:1023100021F02003A38301F0070177E64AC30400FC
:10232000F2C204006FC304002D230000F8B5044678
:102330000D4600F11406EFF31187202383F3128872
:10234000BFF36F8F304635F073F940B909490A4839
:10235000882241F0D1FB8821064841F0C4FB304679
:1023600035F08AF9A5613A462046BDE8F8400121DA
:10237000FFF740BE6FC30400F2C204002DE9F0472E
:1023800004460F4641F0E1FB051E5DDB04F1140934
:10239000EFF3118A202383F31288BFF36F8F48462F
:1023A00035F046F9804638B933498822334841F040
:1023B000A3FB882130483CE0484635F05DF94FF6F4
:1023C000FF72E38BA68B934206F007063FD0022EE6
:1023D00010D135460133E383484635F037F90028FC
:1023E0003BD1254940F23112244841F085FB40F2AF
:1023F0003111DFE7062E13D8DFE806F0092C1212A0
:10240000090409006FF085054FF00008E4E7002398
:102410003B6063687BB9C4E900777EB13546F3E77A
:10242000174916484FF4E47241F066FB4FF4E4712B
:10243000134841F058FB1F606760EEE752460221E7
:102440002046FFF7D7FD35462846BDE8F0876FF0F8
:102450000A05D9E76FF00405D6E78AF31188BFF3C0
:102460006F8FB8F1000FEFD0002332463946204677
:1024700041F07BFBE8E700BF6FC30400F2C2040039
:102480004AC30400F8B5054600F11406EFF31187BE
:10249000202383F31288BFF36F8F304635F0C8F8DE
:1024A00038B920498822204841F026FB88211D4860
:1024B00025E0304635F0E0F8AC8B04F00704022C40
:1024C00012D0012C0CBF6FF004046FF0850430466D
:1024D00035F0BCF808BB134940F23112124841F004
:1024E0000BFB40F23111E2E7EB8B53B90F490E4879
:1024F00040F2EF1241F000FB40F2EF110B4841F0C7
:10250000F2FA013B9BB2EB83002BE0D13A46214625
:102510002846FFF76FFD2046F8BD87F31188BFF30B
:102520006F8FF8E76FC30400F2C204004AC30400CF
:1025300008B54268034602F00302022A81600AD00D
:10254000032A4FF0000103D0012A0AD1596006E0A6
:102550001868596008BD186800225A6050B90020F8
:10256000F8E706490648452241F0C6FA45210348E6
:1025700041F0B9FA35F0ECFBF1E700BF9CC3040071
:10258000F2C204002DE9F34180460E4615460027AD
:102590002A4601A9404641F025FB04460246314641
:1025A000019841F095FE2D1B2744264401D0002CB4
:1025B000EED13946404641F032FB40B1064907486A
:1025C000492241F099FA4921034841F08CFA3846F2
:1025D00002B0BDE8F08100BFC2C30400F2C2040033
:1025E0002DE9F34180460D46164600273246404607
:1025F00001A941F029FB04462DB102460199284664
:1026000041F066FE2544361B274401D0002CEDD155
:102610003946404641F034FB40B1064906488E2217
:1026200041F06AFA8E21034841F05DFA384602B063
:10263000BDE8F081C2C30400F2C2040010B530B995
:102640000B48452141F021FD6FF0150010BD836856
:1026500033B90848452141F018FD6FF00400F5E753
:102660001B6813B1BDE8104018471846EEE700BFDD
:10267000EDC3040003C4040070B508B101B132B960
:102680000B48452141F001FD6FF0150070BD8468D5
:102690000CB1E56835B90748452141F0F6FC6FF00B
:1026A0000400F3E741F8040BE368BDE87040184705
:1026B00026C4040003C4040070B51346044630B9B0
:1026C0001048452141F0E1FC6FF0150070BD006835
:1026D00030B90D48452141F0D8FC6FF00100F5E715
:1026E00082680AB1956835B90848452141F0CDFCAA
:1026F0006FF00400EAE70A46AC466168BDE8704046
:10270000604700BF57C404006DC4040003C4040044
:1027100008B5044B196819B90422586841F0E3FD63
:10272000002008BD0400002030B50C460E4985B0DD
:102730000291D0F8AC110546CDE9003100F1E0017D
:102740004FF0FF33204609F053F850B9012384F8C5
:102750006430D5F8A83123B1204605B0BDE830403B
:10276000184705B030BD00BF9D3D040038B50C468C
:102770001146054641F014FB034638B92846044982
:1027800041F00EFB03460020236038BD0120FBE72B
:102790008AC404002DE9F04F01238146056946688B
:1027A00087B005F56B77D7E8EF2F002A03D1C7E88C
:1027B000E13F0029F7D10CBF1A46002240F0B48057
:1027C000B368B16A05F5E4781C1F104641F06CFB54
:1027D000844272D8013A00F0A180B2FA82F24FF03E
:1027E0000044D44072682046073222F00302C5F844
:1027F0006022B16A41F058FBC5F86402B36A4046F2
:102800006343033323F0030302EB4302230103EB8F
:102810004403093323F0030303EBC403C5F8582230
:102820001A440832C5F854227368C5F85C42C5F8EA
:1028300050323F4BC5E9A963D9F80030C5F8FC31E7
:10284000316800F0DFF90446002834D1D9F810B01F
:10285000D9F804A0D9F800300BF53079059004932D
:102860004846DAE90734012B08BF103C33F010FD6D
:10287000DAF824002F4904AB01EB80214FF4806289
:1028800048460093234633F019FD2B490BF52C7075
:1028900033F0C0FBDAE9050183685C684CB15B4644
:1028A000264AA047044630B9DAE9050183681B6966
:1028B0002BB96FF05704002129E0013285E701228E
:1028C000984704460028F6D11D4B2846C5F8A83184
:1028D0001C4BC5F8AC311C4B0393D5F81032029356
:1028E000D5F80832CDE90083D5F86832B26AD5F858
:1028F000A81300F04FF904460028DCD105F1E000F0
:1029000009F010F90028C5F8B0030ADB02213846A7
:1029100041F07AFA204607B0BDE8F08F6FF00B0463
:10292000C9E76FF01504C6E76FF07704F2E700BF60
:10293000F33D0400B8FF0020D93D0400CD3D040064
:102940004D2900007F3F0400393E040013B50446C2
:1029500040B100230122CDE90032074BD0E9091232
:1029600008F0FAFEA36E1B6823B1E06E02B0BDE86A
:102970001040184702B010BD8AC4040013B50446C5
:102980000846216901F56B71D1E8AF1F022910D10A
:1029900093B1A0B10121CDE900311346D0E909126C
:1029A00008F0DAFE074B984208BF6FF00B0002B048
:1029B00010BD6FF00F00FAE76FF04C00F7E76FF013
:1029C0000100F4E72EF8FFFF2DE9F743884615468E
:1029D000066906F56B73D3E8AF3F022B5FD113682E
:1029E00023B96FF0150003B0BDE8F0831B78002B0E
:1029F000F7D0D6F8A893B9F1000F33D106F5D87700
:102A00004FF0FF324FF0FF33384632F0C7FE30460A
:102A10002A6801A9FFF7AAFE019C1CB9384641F0BB
:102A2000F1F9DEE705F10803A3666B6984F86490A9
:102A3000E366E46360B1384641F0E4F9214630468C
:102A4000236E2A68FFF770FE0020C8F80040CAE72E
:102A50002022296804F1400041F0D9FB384641F0BA
:102A6000D1F9F1E730460F4941F09AF904460028C0
:102A7000B7D005F1080383666B69C063C3660023A2
:102A800080F8643020222968403041F0C0FB2246A3
:102A90000121304600F060F80028D5D0A1E76FF0A2
:102AA0000F00A0E78AC4040010B50C46006900F5C9
:102AB0006B73D3E8AF3F022B0FD189B10A4900F500
:102AC0002C7033F075FB204643F03CF97022002156
:102AD000204641F008FC002010BD6FF00F00FBE71E
:102AE0006FF00100F8E700BF401B00202DE9F04F18
:102AF00005460E4690460027D0F8B0A085B0AAF54E
:102B0000AE742146304641F09DFBE0B9114BA4F173
:102B1000400B0293DAF810303246CDE900832946A3
:102B20004FF0FF335846AAF5CE7908F061FE60B940
:102B30007023012203FB079383F86420DAF80C303A
:102B40000BB158469847703417B105B0BDE8F08F07
:102B50000127D6E7AD3F04001FB5144690B18AB1F6
:102B6000012912D10A4B00F1E0010293D0F8AC31F7
:102B7000403201934FF0FF332046009308F038FEB7
:102B800004B010BD6FF01500FAE70020F8E700BFB1
:102B9000AD3F04002DE9F04387B00E46DDE90E811C
:102BA0001446DDE910251F4630B329B3DFF850C0C5
:102BB00000F1E009002D08BF65469EB9CDE9034448
:102BC00000F5CE742046059643F036FA03ABCDE906
:102BD00000432A463B464146484608F0C9FF07B035
:102BE000BDE8F083002241460E9248462A4607B0CF
:102BF000BDE8F04309F0E8B86FF01500EFE700BF5B
:102C0000ED2A0000F0B50E46044689B0002872D0C7
:102C1000436B0BB9394B436301232246E363002323
:102C2000D4F8981004F1400042F8301FCDE9013388
:102C30004FF0FF330093D4F89C3042F064FD304AEB
:102C400006AB92E8030083E80300184608F08AFC0C
:102C50000546D8B904F1340008F064FC0546A8B96B
:102C6000616B284805AA42F026FD054670B9059B10
:102C70009A6872B10C33D4F89400C4F8A03041F0D3
:102C8000C6F9C4F8D40030B96FF00B05284609B076
:102C9000F0BD0346EFE7D4F8940041F0B8F9C4F86A
:102CA000D8000028F0D0D4F88C30D4F8A010C4F8A4
:102CB000A8300423C4F8AC30C4F8C4300223A362A3
:102CC000114BB4F89420D4F8D470C4F8B810C4F8F8
:102CD000D010D4F89010236204F1A403A4F8B0201B
:102CE000C4F8A470C4F8C010A4F8C820C4F8BC008C
:102CF000A661E362CAE76FF01505C7E79CC404004C
:102D000010BC0400A6C4040094BC0400014B036082
:102D100000207047C0BC040070B5114B0D461C6804
:102D2000DCB1104B196800238B4202DB6FF001000D
:102D300070BD224612F8106B864202D01446013351
:102D4000F2E7E06810B96FF01200F1E746F0DBF946
:102D50000028F8D000202C60EAE76FF00C00E7E7CD
:102D600030000020C0BC040008B5044840F00BFE51
:102D7000BDE80840024840F006BE00BFAEC40400F3
:102D8000E7C4040001483DF0FFBE00BF04BD0400DD
:102D900038B5044618B90F4B0F485B68984761680F
:102DA000B1F5683F10D0B1F5680F0DD00B4DA942B9
:102DB0000AD011F46861206807D00146084832F053
:102DC000E9FA00232360656038BD142241F08BFAD4
:102DD000F9E700BF2C02002015C504002C5F5CA998
:102DE0006820002008B560B34368B3F5683F0ED093
:102DF000B3F5680F18D0144A934220D000684FF002
:102E0000FF324FF0FF3332F0C9FC58B115E0012218
:102E10000368D3E8EF1F002903D1C3E8E02F00289F
:102E2000F7D10AD1002008BD0368084A1B7803F5D2
:102E3000807352F82330002BF4D00548F3E705489F
:102E4000F1E76FF4E040EEE72C5F5CA9000003506F
:102E5000E98FFFFFEA8FFFFF08B520B34368B3F5A2
:102E6000683F09D0B3F5680F13D0114A93421DD0C3
:102E7000006832F049FD14E000220368D3E8EF1F38
:102E8000012903D1C3E8E02F0028F7D109D0094870
:102E900008BD00210368084A1B7803F5807342F8D7
:102EA00023100020F4E76FF4E040F1E70348EFE778
:102EB0002C5F5CA9E98FFFFF00000350EA8FFFFF42
:102EC00010B5044618B91D4B1D485B6898476368E8
:102ED000B3F5683F2FD0B3F5680F2CD0194A934251
:102EE00019D1236803BB4FF0FF324FF0FF33214667
:102EF000154832F0F7F908B923681BB90F4B13488E
:102F00005B68984714220021206841F0ECF94FF4E7
:102F10006863636008E0B3F5683F0DD83A2B03D0CF
:102F200040F6BA629342DED1206846F049F9636800
:102F300043F03A03636010BD054AF3E72C0200201A
:102F400015C504002C5F5CA9682000203BC5040067
:102F50003A00003A08B5064940231422054846F0D5
:102F600018F9BDE80840044904483DF0D1BE00BF4F
:102F7000681B0020682000200CBD040020BD040058
:102F80002DE9F04107460C4686B0002939D08B6800
:102F900024480093D1E90023452141F076F8636984
:102FA00045210093D4E903231F4841F06EF84521E1
:102FB000E2691E4841F069F826460025DFF87C806A
:102FC000F36A2A460593EB1C0493B36A45210393E5
:102FD000AB1C0293736A404601936B1C0093336AE7
:102FE000043541F052F8102D06F11006E8D14521C4
:102FF000226E0F4841F049F84521A2690D4841F081
:1030000044F8012F06D1EFF3058245210A48103A12
:1030100041F03BF82146384606B0BDE8F04131F0BA
:10302000C3BE00BF68C504009CC50400D0C5040031
:103030002CC6040040C6040073C60400E4C50400A6
:1030400030BFFFF7FDBF00BF074A936893F90E102A
:10305000002907DB926993421FBF044A536843F07B
:1030600080535360704700BF6CA5002000ED00E066
:1030700010B5244C4521244841F007F8A36A990172
:103080003ED52248452141F000F81E20A36ADA010E
:1030900004D51F48452140F0F8FF1F20194CA36AB2
:1030A000DB0204D51B48452140F0EFFF0220A36A54
:1030B0001C0304D51848452140F0E7FF2120114C9E
:1030C000A36A590304D51548452140F0DEFF2220AC
:1030D000A36A9A0304D51248452140F0D6FF232065
:1030E000084CA36ADB0304D50E48452140F0CDFF10
:1030F0002420A36A6FEA03436FEA1343A36210BD5F
:103100001D20C3E700ED00E08BC60400A8C6040044
:10311000C0C60400DFC604000EC7040031C70400A7
:103120005BC704007AC7040070B5284C06460D46FC
:103130002748452140F0A9FFA36AD9043BD525487B
:10314000452140F0A2FF1720A36A1A0504D52248A2
:10315000452140F09AFF18201C4CA36A9B0511D50D
:103160001E48452140F091FFA26BA36A180408D5C0
:1031700045211B4840F089FF1EB1A36A23F4004398
:10318000A3621920114CA36A590504D5154845219D
:1031900040F07BFF1A20A36ADA050ED512484521BC
:1031A00040F073FF1B20094A936A43F47F43936204
:1031B00000232B7070BD1620C6E7A36A9B04F2D5CE
:1031C0000A48452140F061FF1C20ECE700ED00E0DB
:1031D000AAC70400C5C70400DBC70400F3C7040086
:1031E00011C804002BC804004BC8040068C80400C0
:1031F00070B5324C06460D463148452140F045FF3A
:10320000A36AD90648D52F48452140F03EFF11203A
:10321000A36A1A0704D52C48452140F036FF122036
:10322000264CA36A9B0711D54521284840F02DFF65
:10323000626BA36A190608D54521254840F025FF91
:103240001EB1A36A23F08003A36213201B4CA36A60
:10325000DA0704D51F48452140F017FF1420A36A60
:103260009B0604D51C48452140F00FFF1520134B49
:103270009A6AD60602D49A6A94070FD59B6AD90631
:103280000CD51649164840F2631240F035FC40F266
:103290006311124840F027FC1020B9E7074B9A6AE7
:1032A000920642BF5A6A22F400525A629A6A42F067
:1032B000FF029A6200232B7070BD00BF00ED00E09A
:1032C0009CC80400B7C80400DBC70400EFC80400B2
:1032D0000CC9040027C9040068C804004BC90400D5
:1032E000F2C2040070B5694B0546586800269CB0D0
:1032F000C0F3080386F31188BFF36F8F02F07F4499
:10330000B4F17F4F07D102F00C04082C0ED14521F7
:103310005F4840F0BAFE5F494FF48B625E4840F070
:10332000EBFB4FF48B615B4840F0DDFB14074CBFB7
:103330000D460126002DEED00024DA1E8DF8074040
:10334000092A00F29280DFE802F0058589709090EA
:103350009090908D4521514840F097FE8DF80740A0
:103360004A4CE36A9A0705D545214D4840F08DFE49
:10337000002429E0E36A002B02DA45214948F5E7F9
:10338000E36A5B005DD54521474840F07EFE6369F6
:10339000AA6943F480736361BFF34F8FBFF36F8FEC
:1033A000636932F8022C23F480736361BFF34F8F9B
:1033B000BFF36F8F4DF602739A421ED145212A68E2
:1033C0003A4840F062FE2C689DF807309BB96822AD
:1033D000294602A840F07CFF099B002E51D0C3F380
:1033E000080222B96FEA53236FEA43230993204668
:1033F00002A9FFF7C5FD1CB070BDA36ADBB233B1F3
:1034000001200DF10701FFF7F3FE0446DCE7A36A94
:1034100013F47F4F05D001200DF10701FFF784FE63
:10342000F3E7A36AB3F5803F02D3FFF721FEECE791
:10343000184940F22A32184840F05EFB40F22A3127
:1034400071E7144940F22E32134840F055FB40F228
:103450002E3168E700200DF10701D4E700200DF1BF
:103460000701DBE74521124880E7124910F4F87F95
:10347000114A124808BF0A46103B452140F005FE9C
:1034800076E723F4FF7323F00103AFE700ED00E0DC
:10349000ABC904004BC90400F2C20400DBC904003C
:1034A000F7C904001DCA040030CA040054CA04004D
:1034B00075CA04007DC9040092C904009ECA0400B4
:1034C000044B5A6942F010025A615A6942F4806210
:1034D0005A61704700ED00E0EFF30880EFF30981D7
:1034E00001B57246FFF7FEFE01BD00BF002080F36C
:1034F0001488BFF36F8F002080F30A8880F30B8855
:1035000006F0FAF900200E490860BFF34F8F0D480E
:1035100080F3088800F03EF8202080F311880A48E4
:103520004FF40061401880F30988EFF31480022102
:10353000084380F31488BFF36F8F00F045F9000053
:1035400094ED00E0D826012098150120BFF34F8F9D
:103550000549064BCA6802F4E0621343CB60BFF32F
:103560004F8F00BFFDE700BF00ED00E00400FA054B
:10357000002318460649D1F89020C2F3072293424F
:1035800000DB7047C1F89830C1F8A0000133F6E7BE
:1035900000ED00E010B572B6002484F31388FFF745
:1035A000E7FF23464FF0FF300C4A03F120010133BF
:1035B000102B42F82100F8D100234FF0FF30074ACA
:1035C00003F160010133102B42F82100F8D162B6FB
:1035D000BFF34F8FBFF36F8F10BD00BF00E100E05E
:1035E000084B9B6883420BD1EFF3058343B1064B35
:1035F0005A6842F080525A605A6A22F400425A6273
:1036000033F0A2BE6CA5002000ED00E06FF00A01CF
:10361000084A9368D967084998674B6843F0805314
:103620004B60002383F31188BFF36F8F9368D86FCB
:10363000704700BF6CA5002000ED00E00E4A9368C3
:1036400083F8C100EFF31183202383F31288BFF3C3
:103650006F8F4FF00061936920F0FF009360074A7D
:103660005160002193F8C12010439A6F996782F34B
:103670001188BFF36F8F70476CA5002000ED00E04C
:103680001D498A6882F8C1E04FF030001044EFF322
:10369000098C80E8F01F1EF0100F03D102F18000AA
:1036A00080EC108A74467046FFF7C8FFA6461249A0
:1036B0008A6886461EF0100F03D00023E1EE103A10
:1036C00003E002F1800090EC108AEFF3148323F002
:1036D000040383F31488BFF36F8F02F1300090E886
:1036E000F01F8CF3098802F1000004B540F02DFDB5
:1036F000BDE80440704700006CA500201EF0040FD8
:103700000CBFEFF30880EFF30980816911F8021C08
:103710000229FFD001B540F009FD01BD40B20028EB
:1037200007DB01234109034A00F01F00834042F8F0
:103730002130704700E100E040B200280CDB01229C
:103740000649430900F01F008240203341F823203E
:10375000BFF34F8FBFF36F8F704700BF00E100E0F2
:10376000054B420953F82220012300F01F0003FA01
:1037700000F01040704700BF00E100E00131072970
:1037800008B508D90D490E48582240F0B5F958211E
:103790000A4840F0A8F940B20028ACBF00F16040F0
:1037A000084B4FEA4111C9B2ABBF00F5614000F0D0
:1037B0000F0080F80013195408BD00BFB6CA0400FA
:1037C000F2C2040014ED00E0144A08B5144B22F0D4
:1037D0007F029A60BFF34F8FBFF36F8FD3F88820BB
:1037E00022F47002C3F88820D3F8882042F4A002A3
:1037F000C3F888204FF04042C3F83422BFF34F8F04
:10380000BFF36F8F0023E1EE103A31F0B7FB33F0D6
:103810003BFF00F07BF831F0F1FB00BF000000003F
:1038200000ED00E042F8203C009B0D4942F81C3CB2
:10383000019B21F0010142F8183C029B42F8081C50
:1038400042F8143C4FF0807342F8043C0023836735
:103850004FF47D43203A0265C0F8C030704700BF86
:10386000BB390400104B9B6883421AD1EFF30580EB
:10387000B8B9EFF31181202282F31288BFF36F8F62
:103880001A7B22F002021A73EFF3148323F004036D
:1038900083F31488BFF36F8F81F31188BFF36F8FA9
:1038A00070476FF0150070476CA500200E46154656
:1038B0000023E1EE103AEFF3148323F0040383F3C3
:1038C0001488BFF36F8FBFF36F8F0A4B9860836EBE
:1038D00083F30B882C4686F309884FF00000064BD3
:1038E000984720464FF000014FF000024FF00003D0
:1038F000024C20476CA5002053410400BB39040052
:103900001022014B1A61704700ED00E000232021D6
:103910000348C2180133452B82F80013F9D17047D0
:1039200000E100E008B5EFF30583064A103B02EB27
:10393000C30152F8330049688847BDE80840FFF7E3
:1039400083BB00BF08B904001FB5094C094A2346D0
:103950000121094800F00EF900230393074B0121D0
:10396000E41A01A80193029400F01EF904B010BDFE
:10397000000007200000002030BD04005806002091
:1039800010B50C7A0B6804F01F0223F01F031A43D2
:10399000CB68640923F01F03054943EA440343F05D
:1039A0000103C1F89800C1F89C20C1F8A03010BDF7
:1039B00000ED00E010B50A4B0446D3F89030C3F395
:1039C0000723013B984208D902464521054840F0AB
:1039D0005CFB6FF01504204610BDFFF7D1FFFAE73E
:1039E00000ED00E0F1CA04002DE9F04F89461446CD
:1039F00006464FF00008514D85B0C84527DAD6F885
:103A000004A0BAF1000F44D0BAF11F0F18D91AF070
:103A10001F0F15D1D6F800B01BF01F0F10D158465C
:103A200040F0D3FB07460AEB0B00013840F0CDFB1A
:103A3000874210D06FF015073A464521404802E012
:103A4000424645213F4840F020FB6FF015042046D8
:103A500005B0BDE8F08F17F1160FEDD0BC42EBDDDD
:103A6000C5F89870D5F89C10C5F89870D5F8A030B6
:103A700021F01F0143F01F0BD6E900321A4499428E
:103A800002F1FF3A1DD1D34507D13146F8B240F0DB
:103A9000A5FB08F101080C36AFE73146C5F8987070
:103AA000D5F89C3022F01F0203F01F031343C5F822
:103AB0009C30E0B240F092FB10F1160FC5D0441CD0
:103AC000E7E7C5F89870D5F8A020013B23F01F0365
:103AD00002F01F021343D3453146E0B2C5F8A030CF
:103AE000E8D040F07BFB10F1160FAED0C5F898700F
:103AF000D5F89C209DF808300BF1FF3B62F30403DE
:103B00008DF80830D5F8A0309DF808205B0863F3E5
:103B100047128DF80820D6E900321344009323F0B1
:103B20001F035B44A3EB0A03013023F01F03694624
:103B3000C0B20393FFF73EFFBEE700BF00ED00E019
:103B400044CB04001CCB04000522044BC3F8942092
:103B5000BFF34F8FBFF36F8F704700BF00ED00E0E2
:103B6000BFF35F8F0022024BC3F89420704700BF61
:103B700000ED00E010B5094C2278FFF735FF20700A
:103B800016300AD10649074840F267123FF0B4FFE9
:103B900040F2671102483FF0A6FF10BD3BB5002080
:103BA0006CCB0400F2C204002DE9F74F2E4D8A467B
:103BB00006464FF00008AB462C4FD04502DB03B061
:103BC000BDE8F08FD6F80490B9F1000F47D0316806
:103BD0000846019140F0F9FA0199044609EB010009
:103BE000013840F0F2FA84424FF01402204B10D01A
:103BF00002FB08F36FF015024BF803201D491E4825
:103C000040F277123FF078FF40F2771119483FF009
:103C10006AFF14F1160F2C60F0D01978A142EDDD87
:103C200002FB08B0C7F89840C7F89840D7F89C4006
:103C300000F10801007B64F304000871D7F8A000CC
:103C40000C79400860F347140C71D7F89C1021F0F0
:103C50001F016960D7F8A01021F01F01296108F148
:103C6000010814350C36A8E78820002000ED00E09C
:103C70003BB500206CCB0400F2C204002DE9F041FA
:103C80004E494F4CD1F890302568C3F307239D422D
:103C900086B00AD94B494FF4CF724B483FF02CFF06
:103CA0004FF4CF7147483FF01EFF0020FFF758FF49
:103CB000464BC1F8C03085421AD1454C01A8257049
:103CC000FFF724F8002506464FF04108414FAE4269
:103CD00015D1002023783949D1F89020C2F307226A
:103CE000934265DB0020FFF72FFF06B0BDE8F081AF
:103CF000616801EB0011FFF743FE0130DBE7019A39
:103D0000290102EB0513D3F80CC00CEA0700B0F54B
:103D1000001F23D0B0F5800F38D0B0F5801F45D1FB
:103D2000586852589B68CDE902022122013B20F0DD
:103D30001F010B4423F01F038DF8102005932078FA
:103D400002A9FFF737FE00282DDA1E494FF4E4726E
:103D50001D483FF0D1FE4FF4E471A3E758689B681B
:103D60005258013B20F01F010B4423F01F031CF0AD
:103D7000010FCDE902028DF810800593DFD01149C3
:103D80006C2211483FF0B8FE6C218BE758689B68A5
:103D90005258013B20F01F010B44CDE9020223F0F1
:103DA0001F030222C8E723780133237001358EE711
:103DB000C1F89830C1F8A00001338DE700ED00E0B4
:103DC0003CBD04006CCB0400F2C20400AAFF440016
:103DD0003BB500200000F0FF014B1860704700BFAA
:103DE0005400002008B543090CD0012B1BD0124908
:103DF000124840F269323FF07FFE40F269310E48CE
:103E00003FF071FE4FF0FF33C340DA07EFD50C4BA4
:103E100003EB8003D3F8002222F0E04242EA017172
:103E2000C3F8001208BD4FF6FF7300F01F00C34037
:103E3000DB07DCD5034BEBE7AACB0400F2C204009E
:103E4000002584500028845038B50124134B144DAC
:103E5000C3F8004502230321C5F8D0360020FFF740
:103E6000C1FF20460321FFF7BDFFC5F804472146E7
:103E7000C5F804492120C5F8004BFFF7B3FF2146E0
:103E80002020FFF7AFFF21460B20FFF7ABFF2146B5
:103E90000A20FFF7A7FF002038BD00BF0010005028
:103EA0000040005007B50DF1070041F042FB114BF7
:103EB00098421CD14FF480620F4B1049C3F8B825CB
:103EC0004FF40062C3F83C259DF8070005F056FE4C
:103ED0000B499DF8070005F03DFE01209DF80730D5
:103EE000984005F031FE002003B05DF804FB6FF050
:103EF0000B00F9E70000AD0B00A002502CA002500F
:103F000028A10250052370B5144D154E2C780134AC
:103F1000B4FBF3F303EB8303E41A40F0CAFF114A46
:103F2000137823B156F82430C01A072814D94FF05B
:103F30005023D3F8141141B10021C3F81411D3F860
:103F400014312C700CB9012313702C7840F0B1FFA0
:103F500046F82400012070BD0020FCE73DB500209C
:103F60009C2000203CB5002048B1054B054A1B6849
:103F7000B3FBF2F35843044B43F001031847704777
:103F80004001002040420F0060BC0400014902488B
:103F90003FF001BE64BD0400B02000204FF47F0359
:103FA0002DE9F041D3F830210646072A0D46D3F813
:103FB000343120D1023B032B02D8124AD35CD3B157
:103FC0004FF050244FF0010800270520C4F8188650
:103FD000C4F8147641F0A0FA4046C4F8148641F0C3
:103FE0009BFAC4F81476C4F8187630462B46BDE820
:103FF000F041002118474FF050230022C3F8142647
:10400000F3E700BF19CC04001FB508B300230193E8
:1040100003930123694611480293FEF7AFF9002884
:1040200008DA0F493B220F483FF066FD3B210C4860
:104030003FF059FD029B9B0706D0094943220948DE
:104040003FF05AFD4321F2E7039B05B05DF804FB06
:104050000248FEF717FA0028F7DAEEE7B020002052
:10406000E1CB0400F2C204001022174B70B5C3F874
:1040700040244FF47F03D3F83021D3F83431072A9A
:104080001BD1023B032B02D8104AD35CABB14FF0DB
:104090005024012600250520C4F81866C4F81456DB
:1040A00041F03AFA3046C4F8146641F035FAC4F8E3
:1040B0001456C4F81856002070BD4FF0502300224B
:1040C000C3F81426F7E700BF003000501DCC0400F1
:1040D000F7B506460D461446194F384645F013F815
:1040E00040B91849184814223FF006FD142115481C
:1040F0003FF0F9FCAAB2BB681B683BB913491248F0
:104100005B223FF0F9FC5B211048F1E7314638466D
:104110009847002802DB002003B0F0BD002CFBD143
:10412000AC42F8D22F1B042F28BF042740F0C1FE59
:104130003A46019001A9301940F0CAF83C44EFE733
:1041400068B804003ACC0400F2C2040073CC040046
:1041500070B541690446867A0A4D59B1437ADB0746
:1041600006D4342303FB0653DB6A1B689B6898471D
:10417000002363613420214606FB0050BDE87040F7
:1041800045F049B8840500203421827A064B01FBB2
:1041900002331A6B93F82430801A1B3323F0030385
:1041A000B0FBF3F0704700BF8405002038B534241D
:1041B000827A064B04FB0233DB6AD3E901240C60EC
:1041C0001568FFF7E1FF04FB005038BD84050020AF
:1041D0002DE9FF470546684614469846039145F089
:1041E000AEF8DDE900673DB95949EE2259483FF084
:1041F00083FCEE21564813E005F11C09EFF3118A08
:10420000202383F31288BFF36F8F484633F010FAF0
:1042100040B9514988224F483FF06EFC88214E48F2
:104220003FF061FC484633F027FA6B8C002B56D0E8
:104230002A8C9A4233D900220023284631F060FCB0
:10424000044660B3484633F001FA40B9424940F2AF
:10425000311240483FF050FC40F23111DFE78AF361
:104260001188BFF36F8F039D002D65D032463B460A
:10427000684645F088F83421A27A384B204601FB85
:104280000233DB6A03A91B681E68DDE90023B0471F
:104290006061002844D12046FFF75AFF35E06C8C5E
:1042A0004846631E6B8433F0D1F90028CED08AF3E0
:1042B0001188BFF36F8F95F824302A8C1B33121BA3
:1042C0002C6B23F0030302FB0344244B244AEB1A18
:1042D0009B105343A37295F82430E372C3E748461A
:1042E00033F0B4F90028B1D08AF31188BFF36F8F8F
:1042F00054EA08030ED10024A0462246434628462D
:1043000031F0FEFB04460028ADD10024204604B065
:10431000BDE8F08733F012F8124B8342EDD1EAE7A3
:10432000039B9D4209D90A4940F24B1209483FF0CC
:10433000E3FB40F24B115DE76561002301226360FE
:1043400022812382039A63696282E360DEE700BF11
:10435000A7CC0400F2C204006FC30400840500204F
:10436000C54EECC47019002070B5044698B13426CF
:10437000104D2046037A6468013BDBB203724BB9EF
:10438000C3604360837A06FB03539B6A73B198470B
:10439000002CEED170BD0849084840F2CB123FF026
:1043A000ABFB40F2CB1104483FF09DFBFFF7D0FE82
:1043B000EEE700BF84050020A7CC0400F2C2040091
:1043C00008B5034650B9084908484FF410723FF049
:1043D00093FB4FF4107104483FF085FB18465B686F
:1043E000002BFBD108BD00BFA7CC0400F2C2040023
:1043F00070B50D46044650B90E4940F24B220E48A6
:104400003FF07AFB40F24B210A483FF06CFB41B988
:1044100008494FF4137208483FF06EFB4FF41371D4
:10442000F2E746681EB10846FFF7CAFF46606560BE
:1044300070BD00BFA7CC0400F2C20400F8B58588A7
:1044400003680E4604465F193FF078FFB04208D279
:10445000064907483E223FF04FFB3E2103483FF00C
:1044600042FB3544A5803846F8BD00BFD3CC0400DC
:10447000F2C2040038B505460C46002940D0002899
:104480003ED08B68002B3ED0DA68002A3BD01B8AD6
:10449000002B38D0036853B91E4940F243321E48FE
:1044A0003FF02AFB40F243311A483FF01CFB0C332B
:1044B000D3E8AF3FDB0729D591F84630084643F0F3
:1044C000010381F8463040F01FF9A5612B6843B91C
:1044D000104940F2334210483FF00EFB40F23341A6
:1044E000E2E75B7D94F84B0084F8393084F8413082
:1044F00000F04AFB2146C0B200F03CFB002038BD72
:104500006FF01500FBE76FF03C00F8E76FF072000A
:10451000F5E700BF0DCD0400F2C2040008B550B9A4
:104520000B4940F232420B483FF0E6FA40F232418A
:1045300007483FF0D8FA006840B9054940F23342D5
:1045400004483FF0D9FA40F23341F1E7103008BD9A
:104550000DCD0400F2C2040008B550B90B494FF468
:104560006B720B483FF0C8FA4FF46B7107483FF08D
:10457000BAFA036843B9054940F2AD3204483FF046
:10458000BBFA40F2AD31F1E7186808BD0DCD04006B
:10459000F2C2040008B550B90E4940F242320E484A
:1045A0003FF0AAFA40F242310A483FF09CFA036811
:1045B00043B9084940F2433207483FF09DFA40F2C0
:1045C0004331F1E70C33D3E8AF0F084100F00100AD
:1045D00008BD00BF0DCD0400F2C2040008B550B9FB
:1045E00010494FF4407210483FF086FA4FF4407182
:1045F0000C483FF078FA036843B90A4940F20132A7
:1046000009483FF079FA40F20131F1E701220C3319
:1046100002FA01F1D3E8EF0F0843C3E8E20F002AE2
:10462000F8D108BD0DCD0400F2C2040008B550B9A0
:1046300011494FF4487211483FF05EFA4FF4487147
:104640000D483FF050FA036843B90B4940F221325C
:104650000A483FF051FA40F22131F1E7012202FA13
:1046600001F1C9430C33D3E8EF0F0840C3E8E20F70
:10467000002AF8D108BD00BF0DCD0400F2C204002D
:1046800010B550B909490A484FF434723FF034FA72
:104690004FF4347105483FF026FA4FF0FF32BDE881
:1046A00010404FF0FF3310303FF08EBE0DCD0400B0
:1046B000F2C2040008B550B90749084840F2D722B1
:1046C0003FF01AFA40F2D72103483FF00CFA1030BD
:1046D000BDE808403FF086BE0DCD0400F2C20400E4
:1046E00038B50368002104469D7EFFF753FF68B983
:1046F0000220236803BB254925484FF456723FF03A
:10470000FBF94FF4567121483FF0EDF92046FFF7D1
:1047100023FF44F0F8FC68B109212046FFF73AFF77
:104720000028E5D00A212046FFF734FFC0F106003B
:10473000C0B2DEE70320DCE7987623689B7E9842D0
:1047400022D1062819D1062D1ED02046FFF7E6FEFD
:1047500003684BB90F490E4841F2BE323FF0CCF925
:1047600041F2BE310B48CFE708212046FFF736FF64
:104770002046BDE838403FF029BE062D04D108216F
:104780002046FFF753FFF3E738BD00BF0DCD04000F
:10479000F2C204003CCD040038B50546FFF770FFB7
:1047A00000212846FFF7F6FE68BB28463FF007FECB
:1047B0000446E0B18468D4B12846FFF7CDFE50B975
:1047C0001449154841F267423FF096F941F26741BA
:1047D00010483FF088F944F096FCB8B128463FF005
:1047E000EEFD0121836828469847041E06DB284613
:1047F0000021FFF7F3FE2846FFF772FF2846FFF778
:1048000059FF204638BD6FF07704F7E76FF00504D5
:10481000F4E700BF3CCD0400F2C204002DE9F843E8
:104820000C46054678B371B308463FF004FD0828EE
:1048300006462BD8174FDFF8688000F1010947457D
:1048400018D91549154841F2E8523FF055F941F29F
:10485000E85111483FF047F9AF4201D13C37EEE74C
:104860004A462146381D3FF00CFD0028F6D16FF076
:10487000770006E0F0D32146721C281D3FF028FD8A
:104880000020BDE8F8836FF01500FAE76FF05A00DA
:10489000F7E700BFEC0500203CCD0400F2C20400A5
:1048A000280600202DE9FF47354C4FF0FF324FF02E
:1048B000FF3334483FF088FD00263FF0D2FFA0468A
:1048C000314D324FDFF8D090AC4241D9304941F2FE
:1048D000656230483FF010F941F265612C483FF0C5
:1048E00002F909220021201D3FF0FDFC2046FFF7C0
:1048F00033FED0F808A0BAF1000F14D0DAF8003077
:104900008BB104F1100044F05BFC04F1240044F08E
:1049100057FCDAF800302046984794F8383023F0F6
:10492000030384F8383023797BB9CDE901338DF85E
:104930000C303B6808215A1C3A6001A84A463FF0F7
:104940002FF8204601A9FFF769FF01363C34BBE789
:10495000C7D37EB13C23A5EB0805B5FBF3F5AE420A
:1049600008D00B4941F285620A483FF0C5F841F290
:104970008561B3E7034804B0BDE8F0473FF032BDBE
:10498000EC0500207404002028060020D020002020
:104990003CCD0400F2C2040066CD040038B50D4CD5
:1049A0000D4DAC4214D90D490D4841F29D623FF0C6
:1049B000A3F841F29D6109483FF095F80321204694
:1049C000FFF7E8FD10B92046FFF7E6FE3C34E8E7C4
:1049D000F4D338BDEC050020280600203CCD0400AF
:1049E000F2C204004FF0FF320121014844F01DBC27
:1049F000D420002008B5816189B10B6853B90849FA
:104A0000084840F233423FF077F840F2334104481F
:104A10003FF069F85B7D80F8393080F8413008BD9F
:104A20000DCD0400F2C2040073B5044616461D46BF
:104A300044F02EFC08B1002635462B46324620466F
:104A400001A930F04FFC0546B8B950220146019843
:104A50003FF049FC01230A4A0198944203634460F1
:104A600005D180F84B303FF04FFE02B070BD054BD2
:104A70009C4208BF80F84B50F5E70020F5E700BFE7
:104A8000280400200804002002460B460148FFF7D6
:104A9000CBBF00BF280400202DE9F041DDE9066707
:104AA00005461446884629B922B990F8463013F0D5
:104AB000700F3DD044F0ECFB08B1002600272846DB
:104AC0003FF010FEE0B995F8463013F0700F17D0A4
:104AD000012C17D0A4F13A035A425A419200AB6913
:104AE00008EB020183B11B6873B91449144840F202
:104AF000D5423FF001F840F2D54110483EF0F3FFB7
:104B00000022ECE70422EAE7081A814228BF0146A6
:104B100032463B466C680B4F0B480C4EBC4208BFFC
:104B200030463FF0E7FC014628B128463FF0F2FD51
:104B30000020BDE8F0816FF00B00FAE70DCD040016
:104B4000F2C204002804002084050020B8050020DB
:104B500030B585B00093DDE908451346CDE902453F
:104B60000A46014602483FF0E6FD05B030BD00BFF1
:104B700008040020034BC0EB001003EB001044F0CE
:104B80003FBB00BF100A0020082828BF0020014BAF
:104B9000185C70476CCD040010B588B00F4C2046EF
:104BA00044F021FB4FF0FF324FF0FF33CDE90623F5
:104BB00000230B49CDE90323CDE901334FF4BC6257
:104BC000084B009404F1200031F09CFC20B108B0A7
:104BD000BDE8104044F067BB08B010BD100A0020CB
:104BE000B80301204748040037B540230C460A4962
:104BF0000093411A491105462346084A08483FF0E8
:104C000031FE011E05DA2846234603B0BDE83040D8
:104C1000184703B030BD00BF00210020D148040078
:104C20002CB80400C9B2032908B508D908490948B5
:104C30007A223EF061FF7A2105483EF054FF0C22B3
:104C4000036901FB0233D3F8880000F0070008BDB8
:104C50007DCD0400F2C2040070B5C9B20329036916
:104C60000AD91949194840F25D123EF045FF40F259
:104C70005D1115483EF037FFEFF31185202484F3D2
:104C80001288BFF36F8F0C2606FB0134D4F88840DE
:104C900014F0C00408D0A24206D085F31188BFF3F7
:104CA0006F8F4FF0FF3070BD012271430B44C3F88A
:104CB000882085F31188BFF36F8F43680B445B68CE
:104CC00098470020EFE700BF7DCD0400F2C204004A
:104CD00070B50D4606490446411A4911402205485F
:104CE000FFF7BAFF2B4601462046BDE87040184743
:104CF000002100202CB804002DE9F84300220121F6
:104D000006460520FEF73AFD114805F00FF8114B55
:104D1000984219D105F01AF800244FF00C08012729
:104D2000DFF834903569494605EB44103EF033FF17
:104D3000002807DB08FB04550134042CC5F88870F3
:104D4000F0D10020BDE8F8836FF00400FAE700BF5F
:104D5000214E00000000AD0B9CBD04007FB5002279
:104D60000123CDE9022304ABCDE90433094A6B46A4
:104D7000CDF800D0CDF804D03FF0A3FD002805DB2E
:104D80004FF480420023684630F04EFF07B05DF8D4
:104D900004FB00BF0149040010B5EFF31184202388
:104DA00083F31288BFF36F8F074A136823F0020161
:104DB000DB07116002D4012005F072F884F311883A
:104DC000BFF36F8F10BD00BFB02100200C22124B2B
:104DD000014602FB0033002030B4D3E92052C3F86F
:104DE0008000EFF31180202484F31288BFF36F8FCB
:104DF000D3F8884004F0C00444F00204C3F88840AB
:104E000080F31188BFF36F8F1DB12B4630BC034870
:104E1000184730BC704700BF002100202CB80400A8
:104E200008B5062820D8DFE800F004121F1F141070
:104E30000E00124BD3F8880010F007001DD1BDE81A
:104E40000840FFF7C3BF0220F9E70320F7E701207E
:104E5000F5E70B4940F26E220A483EF04DFE40F263
:104E60006E2107483EF03FFE054940F27222054898
:104E70003EF042FE40F27221F3E708BD002100201F
:104E80007DCD0400F2C2040010B4EFF311822023A0
:104E900083F31288BFF36F8F1948016841F0020451
:104EA0000460C80708D482F31188BFF36F8F012014
:104EB0005DF8044B04F072BF4FF05021D1F80C04A0
:104EC000D1F80C14C907EED5EFF3118083F31288E3
:104ED000BFF36F8F0B49D1F8883003F0C00343F064
:104EE0000203C1F8883080F31188BFF36F8F82F31B
:104EF0001188BFF36F8F00205DF8044BFFF766BF8A
:104F0000B0210020002100202DE9F04101220646B9
:104F10004249D1E8EF3FC1E8E02F0028F9D19BB921
:104F20003F4940484B60CB608A60FDF727FA002874
:104F30000ADA3D494FF40C723C483EF0DDFD4FF477
:104F40000C7139483EF0CFFD76B3731E012B5BD850
:104F5000012E07D14FF05023D3F81C3403F0030384
:104F6000022B21D044F094F90546F8B9304B1B7858
:104F7000E3B14FF0502302220746C3F808234FF055
:104F80005024DFF8B080D4F81824D4F81834D203B1
:104F900015D503F00303022B01D0012E0FD16DB301
:104FA00087F31188BFF36F8FBDE8F081EFF31187AE
:104FB000202383F31288BFF36F8F0125DFE7C5B18C
:104FC00038463FF0E6F8D4F81835DBB2012BDAD1D9
:104FD000D4F80421002AD6D00022C4F80421D4F841
:104FE00004210222C4F818252022C8F88021A360D9
:104FF000C9E70021212032F055F9E4E74FF05023B2
:105000000222C3F80423CFE7074940F242220748AF
:105010003EF072FD40F2422193E700BFFC200020E9
:10502000EC200020202100207DCD0400F2C20400ED
:10503000CDFE002000E100E008B5074844F063F829
:1050400038B10648FEF7C8FE0448FCF7A1FF00206F
:1050500008BD6FF01200FBE790B80400615000003B
:105060000A2838B50446074D04D1AB680D212846FF
:105070005B689847AB6803485B68E1B29847204695
:1050800038BD00BF90B80400F7B50F46164640B9CA
:105090001749182217483EF02FFD182114483EF0FA
:1050A00022FDE1B91249192212483EF025FD1921CD
:1050B000F4E7331BB3F5806F38BF1D4600202A4646
:1050C00001AB39193BF098FD68B9019B9D420AD1AB
:1050D0002C44A642EDD809D0162003B0F0BD4FF401
:1050E00080650024F5E76FF01500F6E70020F4E78F
:1050F000F4CD0400F2C20400024B0B6001231360E4
:10510000704700BF7CBE040000487047FCBD04002F
:1051100000F1744000F5A60008B50A2814D8DFE8AD
:1051200000F00613131316101313081316000020B3
:1051300008BD452107483EF0A8FF452106483EF03E
:10514000A4FF6FF08B00F3E76FF00F00F0E76FF054
:105150001500EDE734CE040061CE040037B50D46EE
:10516000416869B1D1E900138468ACB1D4E9002485
:105170009CB193B19C4205D06FF0150003B030BDD7
:105180000B46F1E70133092B007809D90246572174
:105190000D483EF07AFFEFE7224601332344F2E761
:1051A0008DF8013040F20113ADF8023000238DF884
:1051B000000068468DF804308DF8055005F078FF42
:1051C000FFF7A6FFDAE700BFA1CE04000268154B87
:1051D000FF2A08BF4FF0FF32C3F824254268FF2A98
:1051E00008BF4FF0FF32C3F828258268FF2A08BFA6
:1051F0004FF0FF32C3F83025C268FF2A08BF4FF0D6
:10520000FF32C3F834250269FF2A08BF4FF0FF328E
:10521000C3F838254269FF2A08BF4FF0FF32C3F8B0
:105220003C25704700B002502DE9F047436894B028
:105230005D6B0746002128460EAA3FF09CFC041E29
:105240007BDB0E9B2A681979186801F015F9041E9A
:1052500073DB002201212B20FEF790FA00254FF08E
:105260005023C3F8B855072043F049FFD7F804800E
:105270003A696849404605F0EFFEFFF749FF041E12
:1052800051DB654E0EAC0FCE0FC496E80300AB2386
:105290000DF1140984E803000595C9E901558DF85D
:1052A00014305E4B0EA8D3F8242508AED2B2089273
:1052B000D3F82825D2B20992D3F83025D2B20A9277
:1052C000D3F83425D2B20B92D3F83825D2B20C924F
:1052D000D3F83C35DBB20D93FFF778FF012005F0E2
:1052E00061FF01463046FFF771FF4D4B994228D1CF
:1052F00029464846FFF732FF041E14DB232043F003
:10530000FEFE4FF0030A9F2329460EA8CDE90E5555
:10531000CDF82090CDF824A08DF838301096FFF706
:105320001DFF041E10DA4FF050230222C3F8B825E7
:1053300005F07CFF08B105F057FF204614B0BDE82A
:10534000F0876FF00404EEE75246494608F130005A
:105350003EF097FF0446B0B198F8323045210393F0
:1053600098F831309DF81420029398F830302D4889
:1053700001939DF816306FF0120400939DF81530DC
:105380003EF083FECFE77A68537F023B012B10D9B2
:10539000177F023F022F8CBF002701273FF0C7FA7B
:1053A000051E08DA2A4645211F483EF06EFE2C46AF
:1053B000B9E70127F2E7EAB2C5F38015AF42B2D0F0
:1053C0000023012182F04002ADF810300EA88DF8C4
:1053D000102004AA0E930892099110938DF83810AA
:1053E0000F96FFF7BBFE041E07D13FF0A0FA041E84
:1053F00004DB14F00104F8D195E794DA0B490C4A68
:105400002346002F08BF0A460A4845213EF03DFECC
:1054100089E700BF2349040018BC040000B0025013
:105420000000AD0BD3CE04000ACF0400CDCE0400A3
:10543000C9CE04001FCF0400054B994206D14FF09E
:10544000FF324FF0FF33303030F0EEBB704700BF1B
:105450000000AD0B2DE9F84F80460F461446466814
:10546000C1F30B0322B96FF015063046BDE8F88F83
:10547000C2F30B0252EA0305F5D1002903DBF26AFD
:105480000B19934206D90A46234645212E483EF081
:10549000FCFDE8E73FF095FA2846D8F804903FF085
:1054A00061FA0646D0B9DFF8B0A0D9F82C30A34293
:1054B00018D105F029FFA34605462946D8F8100063
:1054C000FFF7BAFF554533D1B4EB0B045F44ECD181
:1054D00001203FF047FA002E08BF064640463FF045
:1054E00056FAC2E7B4F5803F09D3BBB253B9394687
:1054F000012005F0A5FE4FF4803B0546DDE7B4F53D
:10550000805F09D3C7F30B0030B9394605F098FE28
:105510004FF4805B0546D0E723463A4645210B48C9
:105520003EF0B3FD0A49D8F81000FFF785FF084D9B
:1055300023463A46452107483EF0A7FD2846FFF797
:10554000E7FD0646C4E700BF35CF040084CF040062
:105550000400AD0BA7CF04000000AD0B2DE9F3470D
:105560000E4607461D46904641689AB193B1042BFA
:1055700001D9AB070ED116F003040BD1002E03DBCB
:10558000CA6A731993420BD92B46324645213848D3
:105590003EF07BFD6FF01504204602B0BDE8F087B9
:1055A00038463FF00EFA20463FF0DCF9044630B1B1
:1055B00001203FF0D7F938463FF0E9F9ECE7032D39
:1055C0001ED8042132460DEB010040F071F804466C
:1055D00001463869FFF730FF264B9C4235D12A46F9
:1055E000414601A83EF074FE042132460DEB010055
:1055F00040F05BF8044601463869FFF71DFF24E0E0
:1056000008F06043B3F1005F02D118F0030F2BD014
:10561000DFF860A0042DA94628BF4FF004094146D9
:105620004A4601A83EF054FE3246494601A840F0E1
:105630003CF8044601463869FFF7FEFE544504D1A4
:10564000B5EB0905C8444E44E4D12046FFF760FDA0
:10565000044601203FF086F9054638463FF097F9A9
:10566000002C08BF2C4697E7324629464046BFE744
:10567000CACF04000000AD0B2DE9F04F82460E4664
:105680001C46904685B07AB1002B00F0908000292E
:10569000426803DBD26ACB1893420AD923463246CA
:1056A000452144483EF0F1FC6FF0150005B0BDE81F
:1056B000F08F754205F003053FF083F9A54228BF3E
:1056C0002546D8F1000303F0030308F0030758BF91
:1056D0005F427F4207F00307A74228BF2746631BAC
:1056E000E41B24F0030423F00309A145C8BFA1462D
:1056F00003F0030BC8BFA3EB040BB9F1000F19D0E3
:1057000008EB070372194946184601933FF0D0FF92
:1057100004460146DAF81000FFF78EFE264A94424E
:105720003CD1BD4206D0019B4A46194608EB050014
:105730003EF0B7FDBDB1C5F104070421F21B02A87C
:105740003FF0B6FF04460146DAF81000FFF774FE9A
:10575000194B9C4222D107F108032A4640460DEB23
:1057600003013EF0B5FDBBF1000F16D00821721900
:105770004A440DEB01003FF09BFF04460146DAF876
:105780001000FFF759FE0C4B9C4207D109EB0500B6
:105790005A4602A940443EF09BFD074C50463FF05C
:1057A000F6F8204605B0BDE8F04FFFF7B1BC18464B
:1057B0007CE700BF19D004000000AD0B024B0B606A
:1057C00001231360704700BFB421002000487047D8
:1057D00098BE040070B50D461946284616461C466C
:1057E0003FF00AF940B9084823462A4645213EF0D1
:1057F0004CFC6FF0150070BD24B12246294630469E
:105800003EF066FD0020F6E77DD0040010B50122D1
:105810000648114643F009FD3FF034FF044C206078
:105820003FF02DFF6060002010BD00BFBC210020B4
:10583000B4210020F8B50E4614463FF020FF214663
:10584000054630463FF0D8F8374650B3B6FBF5F37F
:1058500005FB136323B9B4FBF5F305FB134343B115
:1058600023463246452111483EF00FFC6FF01500EB
:1058700002E0A54201D90020F8BD4FF0FF324FF001
:10588000FF330B4830F0D0F93FF0F9FE05463846BB
:1058900005F0EAF8641B2F44F9D1054830F08AF985
:1058A000E9E72346324645210248DDE79FD0040060
:1058B000BC2100207DD00400F8B50E4619463046C4
:1058C00017461C463FF098F840B92346324645211A
:1058D00016483EF0DAFB6FF01500F8BD46EA040505
:1058E00015F0030504D02346324645211048F0E761
:1058F000A4B14FF0FF324FF0FF330E4830F094F96F
:1059000024F00304AC4206EB050009D10A4AD2F8A0
:105910000034DB07FBD5074830F04CF90020DCE70A
:10592000795905F0D1F80435ECE700BF7DD00400CB
:10593000C3D00400BC2100200090035010B50369BF
:1059400041B91C493A221C483EF0D6F83A21194880
:105950003EF0C9F8486830B916493B2216483EF077
:10596000CBF83B21F3E75868F8B1884219D19C681D
:105970000868A142586000D19860002008602AB1F0
:105980005A680A609A68596002B99960002010E06C
:10599000814206D10868206098688142EDD19C6000
:1059A000EBE7044600680028F2D1002AE8D16FF046
:1059B000150010BD07D10400F2C2040038B54568D7
:1059C0002B69B3B11035284604F004FE044680B9B3
:1059D0000146284604F0B2FD084B98420BD12246FE
:1059E0002846074904F07AFD224605210D20FDF7DF
:1059F000C5FE002038BD6FF00400FBE70000AD0BD2
:105A0000D55C000008B503680246590913D0012986
:105A100006D14FF6FF7103F01F03D940C80711D418
:105A20000A490B4840F269323EF066F840F26931AB
:105A300006483EF058F84FF0FF31D940C907EFD57E
:105A4000044800E00448136008BD00BFAACB04006E
:105A5000F2C204000025845000288450F0B540684C
:105A600001F01F04057B87B044EA45140569002D49
:105A70005BD0B2F5001F00F1100506D12146284683
:105A80003FF0F8FD002007B0F0BD0027B2F5800F11
:105A900001AE0197776033D1B3F1007F14BF0523C6
:105AA00004238DF804300023CDE904630393836855
:105AB000CB40D90716D4B2F1A07F13D16846009429
:105AC000FFF7A0FF009B803350F82330DB0709D499
:105AD0006A462146284604F007FD174B98421AD023
