:020000040000FA
:10000000C069002095250000E382000081250000E2
:1000100081250000812500008125000000000000EE
:100020000000000000000000000000004127000068
:1000300081250000000000000D2700008125000040
:10004000ED280000ED280000ED280000ED2800005C
:10005000ED280000ED280000ED280000ED2800004C
:10006000ED280000ED280000ED280000ED2800003C
:10007000ED280000ED280000ED280000ED2800002C
:10008000ED280000ED280000ED280000ED2800001C
:10009000ED280000ED280000ED280000ED2800000C
:1000A000ED280000ED280000ED280000ED280000FC
:1000B000ED280000ED280000ED280000ED280000EC
:1000C000ED280000ED280000ED280000ED280000DC
:1000D000ED280000ED280000ED280000ED280000CC
:1000E000ED280000ED280000ED280000ED280000BC
:1000F000ED280000ED280000ED280000ED280000AC
:1001000053B94AB9002908BF00281CBF4FF0FF317E
:100110004FF0FF3000F00CB8ADF1080C6DE904CEE3
:1001200000F008F8DDF804E0DDE9022304B07047D0
:10013000704700BF2DE9F04786468C460846089E6A
:10014000154674461946002B40F0C2808542B2FA2B
:1001500082F245D94AB1C2F1200300FA02FC2EFA1C
:1001600003F3954043EA0C0C94404FEA154EA8B2B5
:10017000BCFBFEF8230C0EFB18CC08FB00F943EA8D
:100180000C43994528D9EB1808F1FF3704D299455B
:1001900002D9A8F102072B44A3EB0903A4B2B3FBD5
:1001A000FEFC0EFB1C330CFB00F044EA0344A042AF
:1001B00014D92C190CF1FF3304D2A04202D9ACF1AE
:1001C00002032C44241A43EA07401EB1D440002302
:1001D00034607360BDE8F0874746DDE76346F1E7CA
:1001E00092BB431B01214FEA154EAFB2B3FBFEFC9D
:1001F000200C0EFB1C330CFB07F840EA0343984528
:1002000062D9EB180CF1FF3004D2984502D9ACF159
:1002100002002B44A3EB0803A4B2B3FBFEFC0EFBCD
:100220001C330CFB07F744EA0344A7424ED92C19B0
:100230000CF1FF3304D2A74202D9ACF102032C44E3
:10024000E41B43EA0040C0E7C2F1200320FA03F1B7
:10025000954090402EFA03F303434FEA154EAFB298
:10026000B1FBFEFC0EFB1C10190C0CFB07F841EA5D
:100270000041884504FA02F422D969180CF1FF30D4
:1002800004D2884502D9ACF102002944A1EB08014F
:100290009BB2B1FBFEFC0EFB1C110CFB07F743EA03
:1002A00001439F420ED9EB180CF1FF3104D29F425B
:1002B00002D9ACF102012B44DB1B41EA004192E779
:1002C0006046E3E76146F7E76046A3E76346B7E7C2
:1002D000834206D916B9002108467BE7C6E900E04B
:1002E000F9E7B3FA83F78FB9834201D3724508D88F
:1002F000BEEB020460EB030301209C461EB9002103
:1003000068E73846FAE7C6E9004CF8E7C7F1200C81
:10031000BB4022FA0CF41C432EFA0CF120FA0CF329
:10032000B84001434FEA14490EFA07F5B3FBF9F858
:100330001FFA84FE09FB18300B0C08FB0EFA43EA87
:1003400000439A4502FA07F240D9E31808F1FF305A
:1003500004D29A4502D9A8F102002344A3EB0A0370
:1003600089B2B3FBF9F809FB183308FB0EFE41EA2A
:1003700003418E452CD9611808F1FF3304D28E4514
:1003800002D9A8F10203214443EA0040A0FB0298ED
:10039000A1EB0E014145CE46434602D306D14D4561
:1003A00004D2B9EB020E68EB04030138002EA6D08C
:1003B000B5EB0E0261EB030101FA0CFC22FA07F324
:1003C0004CEA0303F940C6E9003198E74046C5E727
:1003D0004346D9E7F0B5394B394AC3F800263948C6
:1003E000C3F8042685B0C3F808264921C3F80C26B3
:1003F000C3F81026C3F81426C3F81826C3F81C2621
:1004000007F011FE00F082F8002001F0DDFA78B16B
:100410002D48452107F007FE01A800F093FA2B4B69
:100420001B68834210D02A48452107F0FCFDFEE7F7
:100430002848492107F0F7FD4FF4C020002101F0C2
:10044000F9FE25484921E5E7039A2448492107F0A8
:10045000EAFD2348492107F0E6FD4FF480310020F2
:1004600008F0FAF9044620B11E48452107F0DBFDEB
:10047000FEE769469DF8080000F038F8009B039DF0
:100480001D44019B1E8904F039FEAF1901F0B8F933
:1004900000F0B0FA00F084FA02F0A6F8AB5983F34A
:1004A000088884F31488BFF36F8FBFF36F8F7B6866
:1004B00098470D48452107F0B6FDFEE700000140D2
:1004C0003546526EDCA90000F5A90000680700203F
:1004D00044AA00000CAA000025AA000067AA000098
:1004E00096AA0000BBAA0000EEAA000008B50246CA
:1004F00038B105480023452107F095FD6FF0150040
:1005000008BD0860FCE700BF11AB000002484FF4D3
:10051000C05105F019BA00BF501600202DE9F04F68
:10052000F9B0DDE98489DFF8E8A1869FDAF80050A8
:1005300038A816461C4609F0B1F9002138A805F084
:1005400039FBB8F1000F07D0B9F1000F04DD4A46BE
:10055000414638A809F0ABF933897289D6F80CB056
:1005600013449B444FF00008C3453AD80DA938A85E
:1005700009F0DCF927B120220DA9384607F006FF63
:100580000023009322464FF6FF73314607A807F079
:1005900092F8804610BB20460C9E07F041F9864237
:1005A0001CD8DFF870914FF0FF370DF1160305AA44
:1005B00006A907A807F0CDF800280FDB40F09F80C0
:1005C000069907A807F011F910BBBDF81600524AAA
:1005D0004FF6FF7132F8023B8B4217D1DAF8005028
:1005E00091E0839B829AABEB0809994528BF994615
:1005F0004B464146204607F024FD0028EED1829963
:100600004A4638A809F053F9C844ADE79842E1D109
:10061000BDF81660102E17D1BDF81460202EDDD164
:100620000699334638AA204607F00BFD0028D5D19D
:10063000324638A90DA807F0E6F8384B1B6883420C
:10064000CCD14FF00108B0E7012E36D1BDF81430FF
:10065000202BC3D8069938AA204607F0F2FC07469B
:100660000028BBD19DF814B0BBF1200F02D94FF088
:10067000FF379AE7D9F80030294E0393039B9F4236
:10068000F5DA1DA809F00AF900211DA805F092FA73
:10069000726856F8081B12681DA809F008F915A918
:1006A0001DA809F043F95A4638A915A807F05EFEBF
:1006B00000283FF47AAF0137E0E7202E7FF475AFD2
:1006C0007B1C3FF472AFD9F80030BB42CFDDBDF8E0
:1006D0001430B3F5807F81D1069938AA204607F0FF
:1006E000B0FC00287FF47AAFFFB2BDF81430009759
:1006F00038AA31460DA800F015F80546B7E7B8F15D
:10070000000F3FF46BAF284679B0BDE8F08F00BF13
:100710000000002058A70000C0A9000068070020C2
:100720005CA700002DE9F04FDFF8D4A1ADF5417DC5
:1007300007462AA89DF828B3DAF800501E468946D5
:10074000904609F064F8092201212AA805F0AEF9C3
:100750006C4B53F83B40059403EBCB0380AA5B68DA
:100760001B681C442146302305A808F0ACF800287B
:1007700040F0BE80059B809A13449C4240F0B880B4
:100780002CAA214605A808F0B2F8002840F0B08055
:100790000DF1B80B5A46214605A808F0A8F80390B9
:1007A000002840F0A5802CA808F0BFFB059A2B90EC
:1007B000944240F09D80039BCDF804B000931A460C
:1007C0002CA92AA808F0E0FF002840F091802AA870
:1007D00005F082F9002840F08B802CA808F0A5FBDA
:1007E0002B902AA809F01DF8864240F08180B6F5CA
:1007F000807FDAF800507BD1B9F1200F78D180AA40
:1008000041462AA805F08EF90446002870D19DF8CB
:10081000FF32BC2B6CD106900DF59079DF260FA826
:1008200009F03CF800210FA805F0C4F920220DF2D0
:10083000DF210FA809F03BF8042206A90FA809F050
:1008400036F807A90FA809F071F8202E9DF81B3083
:10085000B046A8BF4FF0200801334846424607A9DA
:10086000A6EB08068DF81B3007F090FD002EC14462
:10087000D5DC48AB80AA184600219C46067812F8C1
:1008800001EB013186EA0E06DF2900F8016BF5D194
:100890001A7802F07F021A7013F8016B46BB01341C
:1008A000BE2CF9D19CF8BE30012B21D10FA808F045
:1008B000F5FF31460FA805F07DF9134908220FA86E
:1008C00008F0F5FF394620220FA808F0F0FF20229B
:1008D0000DF2DF110FA808F0EAFF07A90FA809F031
:1008E00025F820220DF2DF2107A806F08CFF05462F
:1008F0002AA808F098FF28460DF5417DBDE8F08F45
:10090000000000205CA7000037AB00007FB50A465E
:10091000096911F00C0F18BF21F00C01034618BF34
:1009200011614FF480700021019005480090CDE9DD
:10093000031102910846FFF7F1FD07B05DF804FBD3
:10094000502E0020F8B5124C124B134F1D68214653
:100950000646022000F0F0FB2068394604F004FC53
:1009600080B920683946FFF7D1FF05460B4B1B685D
:10097000834207D1206806F09CFE236830715B68D3
:10098000B3603760206807F05BFB2846F8BD00BF06
:100990006C07002000000020502F00206807002076
:1009A000BFF36F8F72B6124B4FF0FF32C3F8802047
:1009B000C3F88420C3F88820C3F88C20C3F89020A3
:1009C000C3F89420C3F89820C3F89C20C3F8802172
:1009D000C3F88421C3F88821C3F88C21C3F890217F
:1009E000C3F89421C3F89821C3F89C21704700BF35
:1009F00000E100E0F8B5254B254D4FF0FF3401270D
:100A00005F60C3F84843C3F8084303F5C0430026BA
:100A10005F60C3F84843C3F8084303F598330220E6
:100A20005F60C3F84843C3F80843C5F8084301F0C2
:100A3000A5FE6F60C5F84C61D5F84C31C5F8106162
:100A4000D5F81031C5F84461D5F84431C5F80065D2
:100A500005F518352820C5F8084301F08FFE6F60B2
:100A6000C5F84C61D5F84C31C5F81061D5F8103196
:100A7000C5F84461D5F84431064BC5F80065C3F8A4
:100A800008454FF08043C3F80843F8BD00B000406C
:100A90000020004000F00140014B1B68184700BFD8
:100AA0000400002007B50B460021024600910348D0
:100AB00000F00CF803B05DF804FB00BF990A0000D9
:100AC000014B1860704700BF040000202DE9F04F73
:100AD0008DB01D46531E8246019103934FF00009CD
:100AE000039B5878252803F1010419D11E460020E4
:100AF0004FF0FF38023603460290444631780396A1
:100B0000392954D81F2914D8002900F0EE81019901
:100B10002520D04701993078D04709F10209DFE755
:100B2000002800F0E2810199D04709F101090394FE
:100B3000D6E7A1F12002192AE9D801A757F822F037
:100B4000A90B00000F0B00000F0B0000A90B000009
:100B50000F0B0000290C00000F0B00000F0B000012
:100B60000F0B00000F0B0000750C0000A90B00001C
:100B70000F0B0000890C0000350C00000F0B00006B
:100B8000430C0000630C0000630C0000630C0000C9
:100B9000630C0000630C0000630C0000630C000099
:100BA000630C0000630C000008460136A6E75829D4
:100BB00000F0EB80A1F16302D7B2172FA7D8172A54
:100BC000A5D801A757F822F0310E0000AF0C0000A5
:100BD0000F0B00000F0B00000F0B00008F0C00002C
:100BE000AF0C00000F0B00000F0B00008F0C00007B
:100BF0000F0B00000F0B00000F0B0000650D000035
:100C00000F0B00000F0B0000050E00000F0B000083
:100C1000AF0C00000F0B00000F0B0000650D000073
:100C20000F0B00008F0C000001992520D04709F11F
:100C3000010955E7029A02F0FE0202924FF0000805
:100C4000B3E7002C0DDAB8F1000F0DDA029A002A92
:100C500000F0438124EAE4740A2202FB0414303CCD
:100C6000A3E7B8F1000FF5DB0A2202FB0812A2F19C
:100C700030089AE7B8F1000F55F8042B80F22F8165
:100C8000002A80F22E815442022202928DE76829C6
:100C900003D1682B06D1482387E76C2902D16C2B3E
:100CA00000F02181002B7FF432AF0B467DE77A2BD9
:100CB00006D1752955F8046B14D14FF0000B0CE0E8
:100CC0006C2BF6D04C2BF4D1073525F00703752992
:100CD000D3E9006B03F1080506D120283BD1854FED
:100CE000013C09E04FEAE67BBBF1000FF5DA764202
:100CF000814F6BEB4B0B013C0DF12D030593002352
:100D00000493304659460A220023FFF7F9F9059B60
:100D1000303203F8012DB4460593049B5A46BCF1CA
:100D20000A0F8B4672F1000203F1FF31064604916F
:100D3000E7D2C3F1010B30330DEB0306B8F1000F1E
:100D4000A6F104066DDA029BD9077DD4A8EB0B034C
:100D5000A4EB0B0413E02B280ABF684F684F04F183
:100D6000FF34C9E770290FD155F8042B0023FAB9D5
:100D7000634F644E053C6FF004034FF0050B029A7D
:100D8000920770D4A04666E078216C2B03D155F809
:100D9000042B002308E04C2BF9D1073525F007037D
:100DA0001D465B6855F8082B232825D1880621D5D8
:100DB000554F023C01F06001A1F1390B0DF12D0EF0
:100DC000002602F00F01092988BF594430310EF87E
:100DD000011D102A4FEA121141EA03714FEA131C58
:100DE00073F1000306F1FF3008D2C6F1010B06F1E2
:100DF0003003A1E7454FDCE7414FDBE706460A46F3
:100E00006346DEE755F8046B304607F0A8FAB8F100
:100E1000000F834602DB4045A8BFC346384F4FF062
:100E20000008A8EB0B03002B92DDA4EB0804A6E757
:100E300055F8043B8DF81830314F013C4FF0FF332B
:100E40004FF0010B06AE9AE7A046EAE7029301993C
:100E50002020D047029BB8F10108F7D524EAE472BC
:100E6000013C9144A41AB84606E004930292019909
:100E7000D047029A049B9046424612F8010B002884
:100E8000F3D11A46013A15D5002BACBFC7EB0307C7
:100E90007F425B46013B15D5BBF1000FA8BF5F4405
:100EA0004F442646013E14D5002CA8BF3F1907EB3E
:100EB000080915E60493029201993020D047049B5B
:100EC000029ADFE70293019916F8010BD047029BC3
:100ED000E0E701992020D047E4E70122D5E69046DB
:100EE00063E6144661E64C235FE648460DB0BDE874
:100EF000F08F00BF4FAC00004DAC000051AC0000C3
:100F0000A0AC000059AC000053AC000056AC00008F
:100F10002DE9F047058B04462807904611D4022995
:100F200005F0070540F0CC80204606F056FF78B16A
:100F30000138218B042811D8DFE800F0C2106D853C
:100F4000950001290CBF45F0100545F020052583CB
:100F500088F31188BFF36F8FBDE8F08701F0070AAF
:100F6000AA4500F0A5800027B9463E46A368002B9D
:100F700000F0BC8041F00801218388F31188BFF3A1
:100F80006F8FA168002900F0BA800D68002900F079
:100F9000B680D1F80480334652462046C047002D23
:100FA00076D02B6829461D46F0E701F007035A1F4B
:100FB000012A1BD8002221F00701062B276889B2DD
:100FC000C4E9002209D13B4603E0628B013262830F
:100FD0001B68002BF9D141F002012183204606F065
:100FE000FCFE00287AD041F0200176E0042B0AD1E3
:100FF00021F0070189B22183204606F0EEFE10B1F0
:1010000041F020012183218B01F0070AAA454FD02E
:101010000027B946AAE7236921F0070141F006013C
:10102000062DD3F8009021832DD1B9F1000F3FD0C8
:1010300041F00801218388F31188BFF36F8F3A498B
:101040002046C84729E021F00701236941F0040147
:1010500089B2042DD3F804902183E6D000273E46C0
:101060004FF0040A82E721F00701236941F00501EE
:1010700089B2052DD3F808902183D6D000273E46AB
:101080004FF0050A72E700273E464FF0060A6DE76B
:101090002B4687E7B9F1000FD1D1EFF31188202358
:1010A00083F31288BFF36F8F238B23F0080323830E
:1010B000258BEA062ED525F01003238305F00705BE
:1010C0006669218B002EBFF670AF00232768C4E944
:1010D000003321F0070141F001012183218B01F050
:1010E000070AAA454FF000097FF440AF002F9CD0BB
:1010F00041F00801218388F31188BFF36F8F002F1F
:10110000C8D03D68394633465246204606F091FE27
:101110002F46F4E7AB067FF51BAF25F020032383B2
:1011200005F0070500E700BF5F7E0000014B03608C
:101130000020704768A7000070B5114B1C680D4671
:10114000DCB1104B196800238B4202DB6FF0010009
:1011500070BD224612F8106B864202D0013314464D
:10116000F2E7E06810B96FF01200F1E708F006FD51
:101170000028F8D02C600020EAE76FF00C00E7E7C9
:101180004802002068A700002DE9F7430D46DDE97D
:101190000A8691461F46044620B96FF00D0003B041
:1011A000BDE8F0830029F8D0002AF6D00093084665
:1011B0000023019306F063FFB7FBF0F303FB10700D
:1011C0000028EAD113496A46284607F045FA019BF0
:1011D000002BE2D008EB06029342DED3284606F04D
:1011E0004EFFB8FBF0F303FB10800028D5D1C4E913
:1011F0000097E5602061A060C4F8148016B9019ED4
:10120000A6EB08060C9BE3614FF0FF33A661236257
:101210000020C4E78B800000F0B40C4B0C4E5F6ADA
:101220000C4BB34203D36FF08500F0BC70475D6890
:10123000BD4209D31C693CB195F802C00579AC45A3
:1012400002D12346F0BC18472433EAE77007002098
:1012500038040020F00300202DE9F047134CDFF89C
:101260005080DFF8509005460E461746444503D39C
:101270006FF08500BDE8F0876268D9F824309A42A3
:1012800012D3A36983B190782979884205D13A466F
:1012900031462846BDE8F04718475279012A03D164
:1012A0003A463146284698472434DFE7F0030020C9
:1012B00038040020700700202DE9F0410B4CDFF8C6
:1012C000308005460E461746444502D36FF0850030
:1012D00009E063690BB92434F6E73A4631462846FB
:1012E00098470028F7D1BDE8F08100BFF003002047
:1012F0003804002010B5044607F08FF810F1780F7D
:1013000000D050B9054A204606F076FFD2F8C43026
:1013100023EA0003C2F8C430002010BD700700208B
:1013200002480822002107F03CB800BF2B0800202B
:1013300070B50B4B0B4CA34201D3002070BD196A52
:101340001E7F00220439D5B2AE4201D82433F2E721
:10135000013211F832508542F5D10120EEE700BF8D
:10136000F00300203804002008B509480378C3F3CF
:1013700041130A3350F823303BB100F1080200F169
:1013800010019847C043C00F08BD1846FCE700BFD6
:101390007007002004282DE9F14FDFF898900446EB
:1013A0000F4616D001282DD1DFF88C8098F8B9307F
:1013B00043B300F097FD214D4D4520D2D5F820B024
:1013C0004FF0000A2B7F5FFA8AF6B34204D8243527
:1013D000F2E7FFF7A5FFE7E70BEBC6060AF1010A04
:1013E000307907F01AF80246307906F005FFD8F890
:1013F000C430002A23EA0003C8F8C430E2DA00232C
:1014000088F8B9300D4D4D4508D30B4B1B6A6BB1B5
:101410003946204601B0BDE8F04F1847EB681BB1D4
:101420003A462146284698472435ECE701B0BDE806
:10143000F08F00BF3804002070070020F003002068
:1014400073B5C4B263060D468DF8074007D0204639
:10145000FFF76EFF78B10D4B93F8BA0058B10B4E01
:10146000204655B101F0BEFFF3691BB10DF1070134
:1014700008209847012002B070BD01F0DBFFF3693E
:10148000002BF7D00DF107010920F2E770070020CB
:1014900073B586788DF80060037942791C4C43EA75
:1014A0000223ADF80230C378304603F003038DF811
:1014B000043006F0A1FED4F8C430184205460BD023
:1014C000304600F0F1FC3046FFF714FF08F0E0FC76
:1014D00010B9962005F024FE684601F05FFF10F178
:1014E000780F03D010B1002002B070BD9DF800004D
:1014F00001F0DCFF10F1780F01D00028F3D1D4F80F
:10150000C43001202B4384F8B900C4F8C430EBE7A1
:10151000700700202DE9F047A34EB36904460F463B
:101520001546FBB9237803F01F03012B00F09D80C3
:10153000022B00F0048133BB94F900002A68617823
:10154000002834DA062912D008292BD0D9B9012372
:101550001370517096F8C3305B0043F001031370B1
:1015600002232AE198470028DCD100200DE06288A0
:10157000100A011F0129844605D9072803D8716A7A
:10158000D2B20C781CB96FF01500BDE8F0874E7828
:10159000664503D19A4200F00B8101332144F0E704
:1015A0000B780AE196F8BA301370012305E101398E
:1015B0000829E8D801A353F821F000BF5516000010
:1015C000871500006316000087150000E115000074
:1015D000871500008715000087150000ED15000035
:1015E000A07801F0C9FE0028BFD0CCE76388756AF7
:1015F00063BBFFF795FE638886F8BA30F369002B6A
:10160000B3D06A4903209847AFE76B78042B10D01A
:10161000052B11D0022B04D16F796388BB4208BF20
:1016200001202B781D442B78002BEED10028AAD066
:10163000DFE795F80380F4E76388BB42F1D1B8F1A6
:10164000000FEED12846FFF723FFEAE7FF2700202F
:10165000B846E8E76388012B95D1002386F8C330AC
:1016600083E76388012B8ED1F8E796F8BA30D5F876
:1016700000C0002B87D0756AA38894F804E02A463E
:10168000107800283FF47FAF5178022904D192F8F6
:101690000480F04500F293800244F1E78CF80020CA
:1016A0008CF80120396060E7154494E00B2A7FF440
:1016B0006AAF00274FF0FF08C146BA4606E06B78D4
:1016C000042B0FD0052B21D02B781D442B78002B19
:1016D000F5D1F36913B1514607209847002F7FF4E5
:1016E00044AF50E795F80280A38895F80390984599
:1016F000EAD163889945E7D1B8F1070F1CD806EB0A
:101700000803AA4683F8BB900127DDE7A388434579
:10171000DAD1A3784B450AD0AF78384600F0C4FB45
:101720003846FFF7E7FDB0FA80F77F09CCE7284697
:10173000FFF7AEFE0746C7E7AA460027C4E794F9BD
:1017400000206378002A18DA002B7FF41CAF24797C
:101750002D6863060AD02046FFF7EAFD00283FF413
:1017600012AF96F8BA30002B3FF40DAF2946204651
:1017700001F080FE00236B70F2E6012B08D0032BF2
:101780007FF401AF6388002B7FF4FDAE012103E0FD
:10179000618800297FF4F7AEA088FFF751FE00288A
:1017A0007FF4E3AEEFE600BF700700202A080020B8
:1017B000022829607FF4F4AE4B883B60D5E694F9AB
:1017C000000062780028BFF671AF002A3FF466AFD0
:1017D0000A2A7FF4D8AE2A78002A3FF4D4AE69787A
:1017E00004297FF461AFA9788B427FF45DAF072BAA
:1017F00096BF9B19002393F8BB308CF80030D4E6D9
:1018000070B5164D95F8B830FBB101F095FD002884
:1018100022DB00F067FB0024D5F8C430E340DA0790
:10182000E6B214D4D5F8C43004F11002D340DB077B
:1018300005D546F08000FFF75DFD00280CDB013484
:10184000102CE9D1002385F8B830002004E03046A0
:10185000FFF750FD0028E5DA70BD00BF70070020DB
:1018600013B5164C237DF3B9E268A168019201AB70
:10187000802006F0CFFC019AA3681344A360E368BC
:101880009B1AE3606BB962B12369E2889A4208DD72
:1018900094F8C82093FBF2F102FB11330BB901233A
:1018A000237502B010BD00231A4619468020237507
:1018B00002B0BDE8104001F023BE00BF7007002059
:1018C00030B585B0002302460D460193002858D15B
:1018D000002935D108220B460DEB020106F0B6FDBA
:1018E000002804DA802001F07DFD05B030BD2A4CCF
:1018F000029A2260039A626004F13802A2609DF9A4
:101900000820BDF80E302575002AC4E903550ADB0E
:10191000802B04D9802001F065FD0020E3E713B19E
:10192000C4E90333E1E7FFF71FFD0028DAD0E288BE
:1019300023699A42D4BFE260E360FFF791FFD4E7E6
:10194000154CD4E90215002D01AB04DC06F07EFD38
:101950000028CADAC6E72A4606F078FD0028D9DB57
:10196000019AA3681344A360E3689B1AE360002B09
:10197000BBD104F13803A360FFF7F6FC0028DCD1EB
:10198000B0E78028B1D1044BDA68002AD5D11B7D9D
:10199000002BD2D1A9E700BF70070020054B064AF3
:1019A0009A62064ADA62064A1A63064A58629A61DD
:1019B0000020704770070020151500001912000064
:1019C000B9120000591200002DE9F3410446474DB9
:1019D00047484FF0FF334FF0FF3204F0E5FD95F834
:1019E000B830002B7BD16B6A83B142482C62E8612E
:1019F0006E6A01F09FFE01F06DFC041E10DA3C4897
:101A000004F04AFE204602B0BDE8F08100F0BEF8C6
:101A1000FFF7C4FF6B6A002BE7D14FF0FF34EEE70E
:101A200000F082FA041EEADB7378012B5AD1F379B5
:101A3000002B57D00026684685F8C830ADF8023034
:101A40008DF804608DF8006001F0A8FC041ED6DB60
:101A5000802768468DF8007001F0A0FC041ECEDBE4
:101A60002549304601F052FE041EC8DB22493846A3
:101A700001F04CFE041EC2DB204CDFF8848044459C
:101A80001AD3002001F012FD041EB8DBD5F8C430D3
:101A9000802043F00103C5F8C43001F007FD041EA7
:101AA000ADDBD5F8C43043F48033C5F8C43001232E
:101AB00085F8B8300024A2E7276A0026227FF3B217
:101AC0009A4201D82434DAE707EBC30257F83310FF
:101AD000107901F01BFE01360028EFD09DE76FF072
:101AE00077048CE76FF0150489E700BF70070020CA
:101AF000B402002095130000C1180000F00300207C
:101B00003804002030B51F4B8BB005AA03F1100537
:101B100018685968144603C40833AB422246F7D10B
:101B20001B7823701022002101A806F03AFC122233
:101B30000021154806F035FC102101A806F0B8FD7B
:101B400000281BDD0828B8BF0820093801AB0E4962
:101B50001A18002012F8013F0AAC04EB131403F02A
:101B60000F0328336B44013014F8144C13F8143C61
:101B70000C7008284B7001F10201EBD102480BB048
:101B800030BD00BF5FAC0000712F00202DE9F04F89
:101B9000744B93F800B087B0BBF1000F03D07248CC
:101BA00007B0BDE8F08F704C00264FF0011AB04628
:101BB0003546B14623783BB96C4B02349C42F3D195
:101BC000684A01231370EAE76378052B1BD8DFE826
:101BD00003F08E03C68E1D39402304A88DF810B083
:101BE000ADF812308DF814B006F002FC40B10823B5
:101BF00004A8ADF8123006F0FBFB08B1ADF812B046
:101C0000BDF81230E37123781C44D3E7E378002B4E
:101C1000F9D1A37863B108F101085FFA88F8F2E717
:101C20006A68944207D024359D42F9D30020B7E773
:101C30004F4D504BF8E7AB68002BECD041462046A7
:101C40009847E8E7002DF1D000222B7F9A42EDD291
:101C5000296AA07801EBC2010B79984201D00132C8
:101C6000F3E70127E07800F003008DF814002079F5
:101C700094F805C040EA0C20ADF8120094F9020077
:101C80000028FBB228DA07F110004FF0010C0CFA23
:101C900000F010EA0A0F26D143F080008DF8100002
:101CA00004A8CDE90213019206F0A2FBDDE90121AF
:101CB000039BC0B99DF81020A27012F0800F18BFCE
:101CC00010330A7118BFDBB24FF0010214BF9A4003
:101CD000BA404AEA020A96E70120B84010EA0A0F21
:101CE00001D11846DAE70137102FBBD1B7E7032E31
:101CF0001DD1FFF707FF074668B106F030FB0190E2
:101D000048B11D4806F02BFB019A824203D13946A7
:101D1000A01C06F03BFB23786FF00201E218091BC0
:101D200004EB5303D14213D50136F6B26BE7002E14
:101D3000F1D1B9F1000F3FF479AFA4EB090389F8B1
:101D40000230C3F3072389F8033089F80480EBE7F6
:101D500002F801BC13F8010902F8020DE2E7A146FE
:101D600051E700BF702F0020F8020020EE03002092
:101D7000F0030020380400205FAC000010B5094BD0
:101D800000211A461C78844205D15C681CB14823A6
:101D900003FB012010BD0131042903F14803F1D1F7
:101DA0000020F7E73C0800202DE9F34150F8303CD3
:101DB00010F8346C103304460AD1036950F8282C0B
:101DC000980736D5D2B9590715D5002344F8303CC9
:101DD00054F8303C10330BD054E9097554F81C8C7E
:101DE00008F056F800284FD02E48214608F034F865
:101DF00002B0BDE8F08143F00403236154F82C1CC9
:101E000001AB304606F006FA10B16FF01503DDE7BE
:101E1000019A54F82C3C134444F82C3C54F8283CC8
:101E20009B1A44F8283C54F8243C134444F8243CBE
:101E3000CEE754F82C1C01AB304601F0DDFB002846
:101E4000E3D1019D54F82C3C2B4444F82C3C54F82D
:101E5000283C5B1B44F8283C54F8243C2B4444F8B1
:101E6000243C002DB1D0304601F06AFCB5FBF0F304
:101E700003FB1055002DA8D154F8283C002BA4D00A
:101E8000304601F001FCA3E744F8200CA4F118004F
:101E900004F070FC002DABD0424639463046A847CE
:101EA000A6E700BF2806002010B5EFF31184202319
:101EB00083F31288BFF36F8FFFF760FF50B1436861
:101EC000103307D16FF08B03436000F134010448F5
:101ED00007F0C2FF84F31188BFF36F8F10BD00BFFE
:101EE00028060020F8B50E4C04252027EFF31186B4
:101EF00087F31288BFF36F8F6368103307D16FF0D9
:101F00008B030848636004F1340107F0A5FF86F3F2
:101F10001188BFF36F8F013D04F14804E6D1F8BD8D
:101F20003C0800202806002070B50A4C0A4E002507
:101F30003146204607F074FF0122A4F11800114633
:101F4000013507F01EFF042D04F14804F0D10020F4
:101F500070BD00BF70080020A91D0000014B9970E2
:101F6000704700BF1303002037B590F900200378B5
:101F7000002A04461DDB03F01F03012B19D143780F
:101F80000B2B0FD14388A3B90B4D022001A9287058
:101F9000FFF7D2F850B9019883686B6006F050F8EB
:101FA0006388EB606FF0150003B030BD6FF0040084
:101FB000FAE76FF08500F7E70800002010B5074C3E
:101FC000002304F11000A360A4F83A3206F07CF973
:101FD00018B140F60A63A4F8383210BD080000209A
:101FE00010B50A4C94F83832012B0DD101F0A4F948
:101FF000022384F83832064B06481860FFF7CEFCFF
:10200000BDE8104001F066B910BD00BF0800002017
:10201000F00300206B03002037B50E490E4807F08F
:10202000FFFE0E480E4D08F0F9F90E490E4807F074
:1020300023FF287801A9FFF77FF8044638B90198F3
:1020400083686B6005F0FCFF204603B030BD6FF085
:102050000404F9E76D2000005C0900206C090020F1
:1020600008000020E11F00003804002038B5184B9C
:1020700093F88020022A01D0052A0FD1B3F88250AC
:1020800013491448144CB5FA85F35B092A4606F047
:10209000DAF820B140F20A33A4F8383238BD95B9E5
:1020A000062384F83832FFF789FF284606F085F9C1
:1020B00018B140F20A33A4F838320848BDE8384075
:1020C000002105F09BBA052384F83832E6E700BF0B
:1020D000CC15002018000020080000206C0900200A
:1020E00070B5144690F900204378002A064633DA8A
:1020F000032B0BD0052B28D0022B44D1474B40F6A5
:102100000A72A3F838226FF085001DE0434B93F864
:10211000382293F83902062A04BF022283F83822B3
:1021200022681070B3F83C2220684270120A827054
:1021300020680022C270206893F838320371236847
:102140005A7106230B60002070BD344A236892F850
:1021500038221A700123F5E7062B14D8DFE803F0C4
:102160004D1F1313161304002C4C94F83832012B16
:1021700005D9FFF723FF0223A4F83832E3E7274B02
:10218000002283F838226FF01500DDE7234B93F827
:102190003822012AF3D90222A3F83822D3E71F4DAF
:1021A00095F83832012BEAD9022B08D0052B13D031
:1021B00040F60A63A5F83832FFF700FFE3E7FFF7C0
:1021C000FDFE174808F02FF92B78022B04D040F2BF
:1021D0000A33A5F83832B6E71248042285F83822C7
:1021E00080F88030F288A0F88220216806F0CEF8CE
:1021F0000D490E4807F030FEA5E7084B93F838224A
:10220000002ABCD1012283F838220949074840F648
:10221000CD42002304F04CFC95E700BF08000020ED
:102220006C090020CC1500205C0900202806002045
:102230003804002073B502460B46684607F063FF7A
:10224000DDE90045134E22462B46684607F07FFF26
:10225000DDE90023134301D102B070BD96F8383296
:10226000043B012B05D9002140F2676004F03AFFDE
:10227000E9E7094B09480022012108F0A6F80748C0
:102280004FF0FF324FF0FF33012102B0BDE8704044
:1022900005F05CB9080000206C0900207C090020D2
:1022A00008B5054805F067FD044805F064FDBDE884
:1022B0000840034805F05FBD70AC0000A1AC000011
:1022C000D8AC000030BFFFF7FDBF00BF074A9368DE
:1022D00093F90E10002907DB526993421FBF044A8D
:1022E000536843F080535360704700BF941500203B
:1022F00000ED00E070B5264B15469A6A12F0100FFB
:102300009A6A14BF1124102412F0080F9A6A18BF99
:102310001224920706460AD5586B9A6A140634D5D9
:1023200019B19A6A22F080029A62132401E06FF0D8
:102330001500174B9A6A12F0010F9A6A18BF1424FD
:1023400012F0200F9A6A18BF1524D20602D49B6A95
:102350009B070AD50E4B5B68190506D5314600F080
:102360007FFA10B180F309880224094B9A6A920619
:1023700042BF5A6A22F400525A629A6A42F0FF023D
:102380009A6200232B70204670BD6FF01500CCE7D9
:1023900000ED00E0134B9A6A12F0007F9A6A14BFB6
:1023A0001E201D2012F0807F9A6A18BF1F2012F491
:1023B000002F9A6A18BF212012F4802F9A6A18BF42
:1023C000222012F4003F9A6A18BF232012F4803FA3
:1023D0009A6A6FEA02426FEA12429A6218BF242098
:1023E000704700BF00ED00E010B5194B0246986A37
:1023F0009C6A10F4805F14BF1720162014F4006F3D
:102400009C6A18BF1820A40509D5986B986A000427
:1024100004D51AB19A6A22F400429A6219200C4B30
:102420009A6A12F4806F9A6A18BF1A20D2050CD4E7
:102430009B6A13F4005F18BF1C20054A936A43F49B
:102440007F43936200230B7010BD1B20F5E700BF94
:1024500000ED00E070B5454B5B688AB00546C3F3FC
:102460000803002686F31188BFF36F8F02F07F40C8
:10247000B0F17F4F11D102F00C0008280DD01007E9
:102480004CBF0D4601260022033B8DF80720032B8D
:1024900005D8DFE803F01E5D615A3546F3E70024F6
:1024A0009DF807309BB92022294602A805F06EFF4F
:1024B000099B002E54D0C3F3080222B96FEA5323BC
:1024C0006FEA4323099302A9204605F000FF0AB0F2
:1024D00070BD264BDA6A9107E1D4DA6A002ADEDBA6
:1024E000DA6A5200DBD55A69A96942F480725A61EE
:1024F000BFF34F8FBFF36F8F5A6931F8021C22F47C
:1025000080725A61BFF34F8FBFF36F8F4DF6027227
:1025100091420AD09A6AD2B24AB10DF10702012162
:102520002846FFF7E7FE0446BAE72C68B8E79A6A40
:1025300012F47F4F05D00DF107010120FFF754FF82
:10254000F1E79B6AB3F5803FA9D3FFF723FFEAE7E2
:102550000DF107020021E3E70DF107010020EDE78F
:1025600023F4FF7323F00103ACE700BF00ED00E0AC
:10257000024A536943F010035361704700ED00E0D5
:10258000EFF30880EFF3098101B57246FFF762FFB0
:1025900001BD00BF002080F31488BFF36F8F03F0EC
:1025A0000DFC00200D490860BFF34F8F0C4880F3ED
:1025B000088800F02BF8202080F3118809484FF498
:1025C0000461401880F30988EFF314800221084366
:1025D00080F31488BFF36F8F00F00AF994ED00E0E8
:1025E000C0690020003800200749D1F8902000235E
:1025F000C2F307221846934200DB7047C1F89830B7
:10260000C1F8A0000133F6E700ED00E008B572B6AE
:10261000002383F31388FFF7E7FF144B4FF0FF32DB
:10262000C3F88020C3F88420C3F88820C3F88C2026
:10263000C3F89020C3F89420C3F89820C3F89C20D6
:10264000C3F88021C3F88421C3F88821C3F88C2102
:10265000C3F89021C3F89421C3F89821C3F89C21B2
:1026600062B6BFF34F8FBFF36F8F08BD00E100E08C
:10267000084B9B6883420BD1EFF3058343B1064BB4
:102680005A6842F080525A605A6A22F400425A62F2
:1026900007F0DCBC9415002000ED00E0094A9368C7
:1026A0006FF00A01D967084998674B6843F0805377
:1026B0004B60002383F31188BFF36F8F9368D86F4B
:1026C000704700BF9415002000ED00E010B50446EF
:1026D000EFF31183202383F31288BFF36F8F094B2D
:1026E00058699860084B4FF000625A600022836F6F
:1026F000826783F31188BFF36F8F00F015F92046CE
:1027000010BD00BF9415002000ED00E00B498A6861
:102710004FF030001044EFF3098C80E8F01F74464E
:102720007046FFF7D3FFA64604498A6802F13000DD
:1027300090E8F01F8CF30988704700009415002082
:102740001EF0040F0CBFEFF30880EFF309808169DE
:1027500011F8021C0229FFD001B505F0BEFD01BD34
:1027600040B2002807DB044A4109012300F01F00A2
:10277000834042F82130704700E100E040B2002879
:102780000CDB4309064900F01F0020330122824080
:1027900041F82320BFF34F8FBFF36F8F704700BF07
:1027A00000E100E0054B420900F01F0053F8222031
:1027B000012303FA00F01040704700BF00E100E081
:1027C00040B20028A8BF00F1604001F10101B8BF8C
:1027D000064B4FEA4111ACBF00F5614000F00F001D
:1027E000C9B2B4BF195480F80013704714ED00E06B
:1027F0000B4A08B50B4B22F07F029A60BFF34F8F54
:10280000BFF36F8FD3F8882022F47002C3F88820BA
:1028100003F0D8FD04F040FD00F05CF803F016FE74
:102820000000000000ED00E042F8203C009B42F870
:102830001C3C0A49019B42F8183C029B42F8143C9C
:1028400021F001014FF0807342F8043C42F8081C6B
:102850000023203A02658367704700BF917D000026
:10286000094A0346906870B113F1160F806E05D0C7
:10287000A0F140029A4205D8834203D2814228BF88
:1028800000207047002070479415002008B50B4BBE
:102890000E461546986000F047F82C4686F30988E6
:1028A0004FF00000064B984720464FF000014FF0D4
:1028B00000024FF00003034C204700BF9415002096
:1028C000F9820000917D0000014B10221A617047CF
:1028D00000ED00E0044800232021C2180133302B12
:1028E00082F80013F9D1704700E100E008B5EFF37A
:1028F0000583064A103B02EBC30152F833004968D6
:102900008847BDE80840FFF7E1BC00BFB0A5000064
:10291000024B034A0348012100F076B80000022070
:1029200000000020DCA70000826E054B403A1A60D0
:10293000044A4021C3E901121846012100F06EB893
:102940009009002000000B15084AC2F898000B6897
:1029500023F01F03034343F01003C2F89C308B683D
:1029600043F00103C2F8A030704700BF00ED00E063
:102970002DE9F043DFF8608085B00E461F4604461F
:102980004FF00009B14523DA6068D8B13FB1411E6C
:1029900008421BD11F2819D92368194216D1236870
:1029A000019305F0CCFCA36803430393D8F890503F
:1029B000C5F30725D0B2013DA84207D801A9FFF70A
:1029C000C3FF421C09F101090C34DBE76FF015026B
:1029D000104605B0BDE8F08300ED00E0044B052291
:1029E000C3F89420BFF34F8FBFF36F8F704700BFC2
:1029F00000ED00E0BFF35F8F024B0022C3F894208C
:102A0000704700BF00ED00E010B5034C01232278B1
:102A1000FFF7AEFF207010BD832F002008B50B4AD2
:102A200000231278FFF7A4FF10F1160F07D0084A11
:102A30000021D2F89030C3F30723984200DB08BD91
:102A4000C2F89800C2F8A0100130F2E7832F0020EE
:102A500000ED00E02DE9F043534B544CD3F8903097
:102A60002568C3F307239D4285B000F29A80FFF7E3
:102A7000C1FF00200C2685421AD14D4C4D4F2570C8
:102A80006846FEF753FBDFF82081DFF82C910646FD
:102A90000025AE4213D1237843490020D1F890207D
:102AA000C2F30722934276DBFFF798FF002042E053
:102AB000616806FB0011FFF747FF0130DBE7009874
:102AC00000EB05114FEA051CCB683B40B3F5000F46
:102AD00048D00AD8B3F5001F30D0B3F5800F36D0F8
:102AE000B3F5801F10D00135D3E7B3F1807F42D01A
:102AF000B3F1007FF7D150F80C3088684A6805F0D0
:102B00001EFC40F4802009E050F80C3088684A68C8
:102B100005F015FC40F0885040F43020CDE9012349
:102B20000390D8F890302078C3F30723013B9842F4
:102B30002AD96FF0150005B0BDE8F08350F80C30CD
:102B400088684A6805F0FBFB40EA0900E6E750F8B0
:102B50000C3088684A6805F0F2FB40F0007040F4E1
:102B60000030DBE750F80C3088684A6805F0E7FB76
:102B700040F08270D2E750F80C3088684A6805F05F
:102B8000DEFB40F08870C9E701A9FFF7DDFE23787E
:102B900001332370A7E7C1F89830C1F8A0000133D2
:102BA0007CE74FF0FF30C6E700ED00E0E8A700004B
:102BB000832F00200000F0FF00000811014B186077
:102BC000704700BF4C020020044A0123C2F8403580
:102BD0004FF080420020C2F87835704700E0014095
:102BE00020B1034B800143F001031847704700BF39
:102BF00050A70000020600F07F0312D5082B05D174
:102C0000010700F00F0306D50E48704710F0780F4B
:102C100012D100F00F034C2000EB43100A4B184474
:102C20007047082B05D1020700F00F0306D50748AF
:102C3000704710F0780FF6D000207047044800EB82
:102C400043107047E80A00209C090020080C00206F
:102C5000080B00200149024807F0FEB8C409002013
:102C6000680400200146014807F080B8E002002017
:102C700002480022002303F04BBD00BFE002002009
:102C800013B5124800F080FE114B98421AD111483A
:102C900003F04CFA0024104803F072FA0F49104870
:102CA00000944FF0FF334FF4806203F0C3FE0D49F0
:102CB0000B4807F0F3F80C480C4907F0B1F8204630
:102CC00002B010BD6FF00400FAE700BFD52E00007F
:102CD0000000AD0B23AD000008A80000C0330020A9
:102CE0006804002015AD0000C4090020F12F000089
:102CF00010B50E49BFF35B8F002351E8002F012A66
:102D000003D141E800300028F7D1BFF35B8F0CD12D
:102D100051F8044C1439204605F03CF9783004D1C0
:102D20002046BDE8104005F011B910BDBC090020D7
:102D300038B5002464F07F00C0B2FFF75BFF0134B8
:102D400005F03FFB082CF5D10E4D0024E0B2FFF753
:102D500051FF036903B90561013405F032FB082C0A
:102D600005F14005F2D1084805F02BFB074BD3F8DD
:102D70007C2212B9064AC3F87C22064805F021FBE2
:102D8000002038BD2C100020E80A00209C090020FB
:102D90002C0C0020080C002010B5054CFFF768FF34
:102DA00020B14168204606F031FFF7E710BD00BFB3
:102DB0009802002007B500230E48002201A903F065
:102DC000C5FB90B1FFF7E8FF0A480022002301A9E4
:102DD00003F0BCFB38B90198042340600374FFF78B
:102DE00041FFFFF737FF002001E00198406003B08A
:102DF0005DF804FB98020020022810B511D8094B99
:102E00001C5CFFF7D7FF60B1002202740472FFF769
:102E100029FF054B93F824301BB1BDE81040FFF7A4
:102E200019BF10BD20AD00009C090020F8B58778BF
:102E300006463846FFF7DEFE3B06F578044612D517
:102E4000002D43D1FFF7B6FF034600283ED00122F4
:102E5000A5770274032202739C60FFF703FFBDE8AD
:102E6000F840FFF7F7BE4DB1012D2FD1FFF7A2FFBC
:102E7000034658B3657705740573EDE7FFF79AFFCE
:102E800020B3B278124B12F0800F02F0080111D07B
:102E900041B1D3F8A836E36001230374022303731E
:102EA0008460DAE702F00F02142101FB0233D3F849
:102EB0000836F0E711B1D3F8A837ECE702F00F02BB
:102EC000142101FB0233D3F80837E4E7F8BD00BF53
:102ED00000700240F0B5064689B01422002103A814
:102EE00005F05FFA3378013B052B21D8DFE803F0CA
:102EF0007A0314146A1603238DF814300024FFF7A4
:102F000059FF0346A0B1047400F10802DDE9050190
:102F100082E8030018461DE00423EDE7B778384641
:102F2000FFF768FE837A044623B1013B022B43D9A5
:102F300009B0F0BD3B06F57813D5002DF8D1FFF7A9
:102F400039FF03460028F3D00122A577027403223B
:102F500002739C60FFF786FE09B0BDE8F040FFF702
:102F600079BE55B1012DE3D1FFF724FF03460028B8
:102F7000DED0657705740573EBE7FFF71BFF0746A7
:102F80000028D5D00123037402230373846004F165
:102F90000C01B07805F076FA134AE168B2F88C3289
:102FA0008B4206D95B1AA2F88C3201F035F838460C
:102FB000D0E7A2F88C52FAE7304609B0BDE8F040FD
:102FC000FFF734BF01A801F001F89DF80530052B8B
:102FD00004D19DF8043013F0600FA9D0034B059382
:102FE00001248CE702248AE79C090020080B0020BA
:102FF0002DE9F043A74CDFF8A09285B08046FFF79B
:1030000037FE064610B905B0BDE8F08394F82530C8
:10301000327C3BB9002A00F0888071689E4806F037
:10302000F5FDECE7042A44D8DFE812F07F00050044
:10303000020118014201337BB568032B39D8DFE860
:1030400003F0023F5C616F6908220021384605F0F9
:10305000A8F9924B9248D3F880243A70D3F884248C
:103060007A70D3F88824D3F88C1442EA01227A804B
:10307000D3F89024D3F8941442EA0122BA80D3F80A
:103080009824D3F89C3442EA03230822FB80394673
:10309000EA6005F07BF92B68687A0021984797F978
:1030A0000030002B08DBFB8833B1A4F88C3200F031
:1030B000B3FF71684846B2E70023A4F88C32F8E702
:1030C0006B7F002BF5D02B7F002BF2D000276F7782
:1030D0004FF0FF3273482F774FF0FF3305F084F93C
:1030E0006B6901936B68CDE9023701A9687A00F03A
:1030F000A1FC6C4805F07AF9DBE72B680121687ABE
:103100009847D6E7AB7A6BB9EB7F5BB965484FF070
:10311000FF324FF0FF3305F067F900F083FF61489D
:1031200005F064F92B680221E9E7327A042AC0D855
:10313000DFE802F059032367730000F0F3FB054654
:103140000028B6D100F086FBBFF35B8F5649012300
:1031500051E8002F002A03D141E800300028F7D1C0
:10316000BFF35B8FA5D141F8085C41F8105CE069C2
:103170006361143904F093FE9BE7002565F07F003E
:10318000C0B2FFF737FD037A13B1407A01F0ACF813
:103190000135082DF2D194F854311BB194F8550142
:1031A00001F0A2F80025E8B2FFF724FD037A13B17D
:1031B000407A01F099F80135082DF4D194F8743271
:1031C0001BB194F8750201F08FF8002000F08EFB1F
:1031D000012384F825302368002B3FF46AAF0021D7
:1031E0000220984765E7002584F8255000F0E4FFA9
:1031F000FFF77EFD2368002B3FF45BAF29460420D8
:10320000EFE7002B3FF455AF00F096FB2368002B4F
:103210003FF44FAF00210520E3E72268002A3FF486
:1032200048AF002B3FF445AF00210620904740E710
:1032300008F110054FF0FF334FF0FF32284605F03C
:10324000D3F8FFF775FD284605F0D0F858F8283C6C
:10325000002B3FF42EAF00210120C2E794F8743216
:103260007BB1012584F8895284F88852FFF7A2FDCA
:1032700038B10E4A057405738260FFF7F3FCFFF75F
:10328000E9FC58F8283C002B3FF413AF00210A203A
:10329000A7E700BF9C0900209802002000700240B0
:1032A000A0090020D4090020BC090020080C00203F
:1032B00006F04AFC00F080FF00F0C2FAFFF76CFD58
:1032C000FFF736FD06F039FC014800F05DFBF0E643
:1032D000D52E000038B5164D95F824402CBB05F1CD
:1032E000380006F0CBFC204601F054F922460121BB
:1032F000E8612720FFF764FA06F01FFCFFF718FDCE
:10330000044610B9012385F824300A4B1B680BB121
:10331000FFF7A0FC4FF08043D3F83834DB0702D529
:103320000020FFF769FD204638BD0024FBE700BF01
:103330009C090020E002002010B50D484FF0FF323C
:103340004FF0FF3305F050F8FFF726FD00F0EAFAE2
:1033500008B100F031FFFFF7CBFC06F0F5FB0548A4
:10336000002480F82440383005F040F8204610BD95
:10337000D40900209C090020074B93F824203AB17F
:1033800093F82530002B14BF00206FF01200704717
:103390006FF01200704700BF9C09002038B5104B39
:1033A00093F824300446C3B105782846FFF722FC81
:1033B00010B96FF0150038BD4572237983726388A8
:1033C00043602078618810F0080F02D14B1E0B4239
:1033D000EFD105F052F80020EDE76FF01200EAE7B8
:1033E0009C09002038B5124B93F824200546CAB139
:1033F00093F82530B3B1FFF7FDFB0446A8B1837AFB
:10340000012B12D007D9023B012B07D96369A361B5
:103410000020E06038BD00F00BFEF7E7284600F022
:10342000A9FDF3E76FF01200F4E76FF01500F1E784
:103430009C09002038B50E4B93F82420054682B134
:1034400093F825306BB1FFF7D5FB68B115F0080490
:103450000AD1284600F0B0FD284600F07DFF204646
:1034600038BD6FF01200FBE76FF01500F8E700BF02
:103470009C09002038B50C4B93F8242005460C46D7
:1034800062B193F825304BB1FFF7B4FB48B144B1BA
:10349000284600F077FD2070002038BD6FF0120044
:1034A000FBE76FF01500F8E79C09002070B5134E9C
:1034B00096F824300446C3B1FFF79CFB0546B8B12B
:1034C000230705D4204600F077FD204600F044FF96
:1034D0002B7A83B901232B7296F825300BB9002083
:1034E00070BD204600F000FFF9E76FF01200F7E72B
:1034F0006FF01500F4E76FF07700F1E79C0900200A
:103500002DE9F043DFF8E4801E4698F8243085B0BA
:10351000074689461546002B61D098F82530002BC8
:103520005DD003065ED5FFF765FB0446002859D041
:10353000037A002B56D04FF0FF334FF0FF3208F1E3
:10354000380004F051FFA37F4BB108F1380004F0BC
:103550004DFF6FF00A04204605B0BDE8F083A37A62
:10356000C5B13BB30123A3774FF0000801A938464A
:10357000CDE90195CDF80C8000F05CFA1C4B984227
:1035800029D084F81E801EBB6FF00404194804F093
:103590002DFFE0E7E27F02B1E577002BE2D100F0FA
:1035A0004DFDB842DED000F03DFD124804F01EFF94
:1035B0000024D0E7B8F80A30AB42F0D96268B5FB16
:1035C000F2F302FB1353002BE9D10123E377E6E783
:1035D000C6F80080D8E706B135600024D6E76FF062
:1035E0001204B8E76FF01504B5E700BF9C0900208E
:1035F0000000AD0BD40900202DE9F0411D46204B01
:10360000174693F824200E46002A33D093F825302D
:1036100083B3030631D401B97FBBFFF7EBFA04464D
:1036200058B3037A4BB34FF0FF3316484FF0FF32D5
:1036300004F0DAFEE3689F42B84628BF984646B9D0
:103640003FB905B12B600F4804F0D0FE0020BDE863
:10365000F081A1694246304604F098FEA3694344D4
:10366000A361E368A3EB0803E360002DEBD0C5F88A
:103670000080E8E76FF01200E9E76FF01500E6E779
:103680009C090020D409002070B51E4D95F8242017
:10369000034682B395F825206AB31B062ED4FFF7A4
:1036A000A9FA044650B3037A43B34FF0FF334FF007
:1036B000FF3205F1380004F097FEE368B3B9012644
:1036C00063692677A361637F83B1FFF773FB30B92A
:1036D00005F1380004F08AFE6FF00B0070BD06742F
:1036E00084600673FFF7BEFAFFF7B4FA064804F0E9
:1036F0007DFE0020F2E76FF01200EFE76FF015009B
:10370000ECE700BF9C090020D409002010B5084B4D
:1037100093F824300C462BB1FFF76CFA28B1046003
:10372000002010BD6FF01200FBE76FF01500F8E706
:103730009C090020014B1860704700BF9C090020C5
:1037400008B5074B93F8243023B1FFF753FA20B1A3
:10375000406808BD6FF01200FBE76FF01500F8E756
:103760009C090020064B10F0800FA3F1D80208BF7F
:10377000134600F00F00182202FB0030704700BF14
:1037800044130020EFF31180202383F31288BFF34A
:103790006F8F0A4BD3F8001C032261B949F27531CF
:1037A000C3F8001CC3F8142DC3F8001C80F3118863
:1037B000BFF36F8F7047C3F8142DF7E700E00640A2
:1037C000EFF31180202383F31288BFF36F8F0A4B2E
:1037D000D3F8001C61B949F27532C3F8002CC3F864
:1037E000141DC3F8002C80F31188BFF36F8F70474E
:1037F0000022C3F8142DF6E700E0064008B54FF0AC
:103800008053D3F830310D2B01D1FFF7BBFF0B4BA9
:103810000122C3F80025D3F800241205FBD54FF48C
:103820000062C3F800244FF08053D3F830310D2BE1
:1038300003D1BDE80840FFF7C3BF08BD00700240D8
:10384000024A00231360024A1370704724140020B8
:10385000882F0020F8B51E4F4FF400634FF08054BE
:10386000C7F80034FFF7CAFFD4F830310D2B04D16C
:10387000184D2B7803BBFFF785FF154B8022C3F84B
:103880001C250122C3F83025134B40F2FF121A60A9
:10389000124A00231360124A1370124A1370124B1B
:1038A00002221A704FF08053D3F830310D2B0ED115
:1038B000BDE8F840FFF784BF0026C7F80065FFF7B2
:1038C0009DFF2E70D4F830310D2BD6D1D3E7F8BD43
:1038D0000070024090020020201400201C140020E0
:1038E000842F0020862F0020882F0020094B0022E3
:1038F00010B51A70084A094B094C002808BF134636
:10390000C4F800332720FEF72BFF0123C4F8043549
:1039100010BD00BF872F0020FDFFDF01FDFFFF016D
:1039200000700240034B1878012894BF002001204A
:10393000704700BF882F002010B5EFF311812023BE
:1039400083F31288BFF36F8F0D4B1B7803F0FF00DA
:1039500083B10C4BD3F8002412F400720AD1012475
:10396000C3F82C45D3F82C45D3F80044A40502D560
:10397000C3F82C25002081F31188BFF36F8F10BD91
:10398000872F002000700240F8B51C4B1C7894BBB8
:103990001B4A106001221A7040F2FF17264664F09D
:1039A0007F0514F0080FEDB214BF394640212846B8
:1039B00004F063FD2846FFF7D5FE0134092C867517
:1039C00006730661EBD1002440F2FF17254614F080
:1039D000080FE6B214BF39464021304604F04DFDD1
:1039E0003046FFF7BFFE0134092C8575057305616C
:1039F000EDD10448F8BD0448FCE700BF882F002043
:103A0000241400200000AD0B0500AD0B084B10F096
:103A1000800F00F00F0114BFD3F81025D3F8142540
:103A200001238B40134214BF01200020704700BFC8
:103A3000007002402DE9F8430246EFF3118720237E
:103A400083F31288BFF36F8F030703D1184B1B78E2
:103A5000834229D1174B184E1C683568104604F074
:103A600004FDE443A4B24FF001092C4309FA00F825
:103A700014EA08041AD11046FFF774FE80F80C907F
:103A8000034607C91C6183E807009C750B4B0C4873
:103A900045EA080580223560C3F8042187F31188C0
:103AA000BFF36F8FBDE8F8830648F7E70648F5E7F0
:103AB000862F0020201400201C14002000E100E0CC
:103AC0000000AD0B0A00AD0B0B00AD0B10F0080FA2
:103AD000074B06D0D3F8C00410F4803F18BF002075
:103AE000704700F00F0000F5947053F82000704705
:103AF000007002402DE9F74FA74BD3F8604134B175
:103B00000022C3F86021D3F86C44C3F86C44D3F8A6
:103B100028214AB10022C3F82821A04B187804F0CC
:103B2000A4FC012383401C439D4F9E4E3D7897F992
:103B3000008015F0080141D1B8F1000F05F00F0326
:103B40002CDA994A52F8230010B342F823101422B9
:103B5000534303F1804303F51C33D3F80836934AEB
:103B6000117803F001034B401370914802F002FEFC
:103B70002846FFF7F7FD837D032B37D1284604F055
:103B800074FC012303FA00F0336823EA0003336076
:103B9000DFF82092DFF8208201255FE0874A52F8A3
:103BA00023000028F4D042F823101422534303F1D9
:103BB000804303F51C33D3F80837D0E7B8F1000F82
:103BC000754B09DBD3F85021002AE1D00022C3F85D
:103BD0005021D3F8A837C2E7D3F82C21002AD7D038
:103BE0000022C3F82C21D3F8A836B8E7037BDBB951
:103BF000284604F03AFC012303FA00F03368B8F1D8
:103C0000000F23EA0003336001DA882DC0D10623B8
:103C10008DF8043000238DF80730674B8DF806507F
:103C20001B6801A89847B3E7002DB1D15A4B012278
:103C3000DA64ADE794FAA4F0D9F80020B0FA80F085
:103C400005FA00F31A430F28C9F8002024EA0304F8
:103C5000326840F3B780134200F0C580002CE9D1F0
:103C60004D4BD3F800215AB1C3F80041544B1C709E
:103C70004A4B1C70012301934F4B01A81B689847C6
:103C8000454BD3F85421EAB10022C3F85421D3F8AC
:103C90000413890216D58DF80420D3F82025ADF839
:103CA0000620D3F8C034002BD9F8003014BF4FF0F1
:103CB00001224FF480721343C9F800303E4B01A833
:103CC0001B689847344BD3F85821002A2ED0002285
:103CD000C3F85821D3F80044C3F80044E30508D5DD
:103CE000374B01221A7002230193334B01A81B6842
:103CF0009847A50508D5324B00221A70032301937B
:103D00002D4B01A81B68984760050FD52C4B1A78DE
:103D100062B100221A70204B0122C3F808259A656F
:103D200004230193244B01A81B6898471A4BD3F82E
:103D30005C310BB31E4B9B6813B93B7859061BD003
:103D4000154B0022C3F85C21D3F88034134A23F0CA
:103D50007F031370336823F001133360D9F8003008
:103D600023F4803343F00103C9F8003005230193A5
:103D7000114B01A81B6898473268D9F800301A42E5
:103D800007D00B480022002302F018FD002800F0A5
:103D90009F8003B0BDE8F08F00700240862F0020A6
:103DA000852F00201C14002008710240842F002061
:103DB000C80200202014002024140020307102408A
:103DC000872F002013407FF449AF062260F07F0167
:103DD0008DF804208DF806108DF80730D8F80030E3
:103DE00001A898473AE70623A0F110018DF80430A6
:103DF0008DF806108DF80750F0E718F0012314BF76
:103E000093FAA3F898FAA8F8B8FA88F8B8F10F0F5F
:103E100018D9A8F11005EDB22846FFF7A3FC044617
:103E20002846FFF753FE6368B4F814C0226898422E
:103E300030D81B1A00EB020E11466360C4F800E094
:103E400082462AE048F080052846FFF78BFC43684D
:103E5000B0F814A001689A4528BF9A4601F0604363
:103E6000B3F1005F044604D03E48524604F08EFA97
:103E70003C492268636852442260A268A3EB0A03AB
:103E8000D20768B2636033D5BAF1000F32D1002394
:103E900023732FE011464FF0000A604525D1003B07
:103EA00018BF01231AB3504521D9012303FA08F39F
:103EB0002BEA0303336006238DF804302A4B8DF878
:103EC000065002221B68A2758DF8072001A89847AA
:103ED000D6F800B0D9F800301BEA03088DD123488A
:103EE00003B0BDE8F04F02F045BC0023DAE768B24A
:103EF000002BCCD0D9F800303D70012202FA08F82E
:103F000023EA0803C9F80030236915F0080F534469
:103F10002361174B17D1002805F00F054FF014004F
:103F200000FB0530B5BF03EB85030A35C0F800166A
:103F3000C0F80017B5BFC0F804A6C0F804A75A60BF
:103F400043F8252025E70028B5BFC3F8A016C3F81D
:103F5000A017C3F8A4A6C3F8A4A7B4BF5A629A6472
:103F600017E700BF2C12002024140020C8020020F4
:103F700000700240024B40F48070C3F8180570478F
:103F800000700240030713D400F00F0310F0800FFD
:103F9000084A0BBF03F5887303F5847302EB8302B1
:103FA00052F8230008BF5068003818BF012070473E
:103FB0000020704700700240034BC3F80C0540F42A
:103FC0008070C3F80C0570470070024010B50822DD
:103FD0000021044604F0E5F90E4BD3F8802422704A
:103FE000D3F884246270D3F88824D3F88C1442EA7E
:103FF00001226280D3F89024D3F8941442EA01227B
:10400000A280D3F89824D3F89C3442EA0323E380B7
:1040100010BD00BF00700240014B0122DA647047FE
:1040200000700240014B01221A6570470070024087
:10403000014B01225A65704700700240014B18780D
:10404000704700BF862F002010B50246EFF31184A1
:10405000202383F31288BFF36F8F04F006FA0B4915
:10406000012303FA00F00B6823EA00030B6012F04F
:10407000080101BF02F00F02054B02F5947243F8EC
:10408000221084F31188BFF36F8F10BD201400201D
:1040900000700240F7B50146EFF31185202383F34A
:1040A0001288BFF36F8FFFF75DFB0646084604F0EA
:1040B000DCF9012211F0800F02FA00F22D4818D12C
:1040C000036832EA03040AD00846FFF7BDFF032362
:1040D000B37585F31188BFF36F8F03B0F0BD264928
:1040E000347323EA020303600B6823EA02030B60C4
:1040F000EDE70B0715D48029204B2FD001F00F04DA
:1041000004F2DA346400C3F80048D3F80448D3F862
:104110000478E4B244F002043C43C3F80448D3F802
:104120000438154F04683B6864EA030C1CEA020F6C
:10413000CFD013433B60002333730323B3758DF853
:1041400007300F4B8DF8061024EA020406220460A3
:104150001B688DF8042001A89847BAE740F2B474B0
:10416000C3F80048D3F80448D3F80478E4B244F024
:104170000404D1E71C140020201400200070024029
:104180002414002038B50446094D4FF0FF324FF09B
:10419000FF33284602F012FB2046FFF77BFF28463C
:1041A00002F0E8FA034B8022C3F8042138BD00BFB7
:1041B000C802002000E100E0F8B54FF0FF324FF0F8
:1041C000FF332A4802F0FAFA294B8022C3F88421EF
:1041D0002720FEF7E7FA98B1264E274B34681B6874
:1041E000240C24041C43012754BB244D40F2FF132C
:1041F00033602720C5F80445FEF7C0FAC5F8004330
:104200001F4A13788BB11D4B0021C3F808110121FF
:10421000C3F80026C3F804165960D3F80811002922
:10422000FBD00021C3F808111170144B0022C3F811
:1042300000250E4802F09EFA124B01221A70F8BDBA
:1042400094FAA4F5B5FA85F50F2D2846C6BFA5F159
:104250001000C0B240F08000030701D4FFF71AFF3E
:1042600007FA05F524EA0504BEE700BFC8020020EE
:1042700000E100E0201400201C1400200070024027
:10428000842F0020882F002010B504464FF0FF3205
:104290004FF0FF33114802F091FA2046FFF7FAFE83
:1042A00004F00F02012393400D4A14F0800F14BF55
:1042B000D2F81015D2F814156FEA030315BF0B409E
:1042C0000B40C2F81035C2F81435044802F052FA17
:1042D000044B8022C3F8042110BD00BFC802002097
:1042E0000070024000E100E070B50446FFF78EFB6D
:1042F00068B904F00F02012514F0800F144B05FA81
:1043000002F205D0D3F810150A43C3F8102570BD8A
:10431000D3F814150A43C3F81425631E062BF6D8E8
:10432000EFF31186202383F31288BFF36F8F2046AB
:10433000FFF78AFE204604F098F8064A1368854085
:1043400023EA0503136086F31188BFF36F8FDEE75E
:10435000007002401C140020030610B5044605D46A
:10436000FFF710FE10B12046FFF76EFE014BC3F8B9
:10437000184510BD00700240084B70B5C31A0D46B9
:1043800007499B10044659430648402204F099F817
:104390002B4601462046BDE8704018473C140020DB
:1043A000B76DDBB674A5000073B50C4C0C4A402306
:1043B000041B00930D460B460A49A41061430646B0
:1043C000094804F0A9F8011E05DA30462B4602B070
:1043D000BDE87040184702B070BD00BF3C1400201B
:1043E00081850000B76DDBB674A5000010B5EFF352
:1043F0001184202383F31288BFF36F8F074A136859
:1044000023F00201DB07116002D4012005F079FBE3
:1044100084F31188BFF36F8F10BD00BF8C14002090
:10442000002270B5012104461046FEF7C9F90F4875
:1044300001F094FD0E4B984215D101F09FFD2669C5
:104440000C49304603F018FD00280BDB01253564CC
:104450002469084904F11C0003F00EFD002801DB6B
:10446000E564002070BD6FF00400FBE779450000B3
:104470000000AD0B0CA800007FB500220123CDE9A0
:10448000022304ABCDE90433094ACDF800D06B46D2
:10449000CDF804D004F06DF8002805DB4FF480421D
:1044A0000023684602F08AF907B05DF804FB00BFFC
:1044B0009F85000030B4104B0C2202FB00330146F4
:1044C0000020D3E90E529863EFF31180202484F387
:1044D0001288BFF36F8F1C6C04F0C00444F0020418
:1044E0001C6480F31188BFF36F8F1DB12B46034806
:1044F00030BC184730BC70473C14002074A5000045
:1045000010B4EFF31182202383F31288BFF36F8F6F
:104510001748016841F002040460C80707D482F319
:104520001188BFF36F8F012010BC01F03FBD4FF029
:104530008041D1F80C04D1F80C14C907EFD5EFF382
:10454000118083F31288BFF36F8F0A490B6C03F05D
:10455000C00343F002030B6480F31188BFF36F8F35
:1045600082F31188BFF36F8F002010BCFFF7A2BF4A
:104570008C1400203C14002010B1012804D0704796
:10458000034B1B6C5B0701D1FFF794BF704700BF63
:104590003C140020024AC3B21C2003FB00207047D9
:1045A0003C1400202DE9F0413849BFF35B8F0746EA
:1045B000012251E8003F41E800200028F9D1BFF373
:1045C0005B8F33B9324933484B60CB608A6003F06C
:1045D00066FC7B1E012B2BD8012F07D14FF08043A7
:1045E000D3F81C3403F00303012B21D005F050FC59
:1045F0000546F8B9284B1B78E3B14FF080430222FF
:10460000C3F808230646DFF894804FF08044D4F8BE
:104610001824D4F81834D20315D503F00303012B62
:1046200001D0012F0FD155B386F31188BFF36F8FDF
:10463000BDE8F081EFF31186202383F31288BFF3E6
:104640006F8F0125DFE7ADB1304603F069FED4F886
:104650001835002BDBD1D4F80421002AD7D0C4F8B8
:104660000431D4F804310123C4F81835C8F8803176
:10467000A360CCE70021212002F034FDE7E74FF0F2
:1046800080430222C3F80423D2E700BF381400207D
:1046900028140020581400209D33002000E100E081
:1046A00008B5074805F06AFA38B10648FEF786FAF9
:1046B0000448FCF705FA002008BD6FF01200FBE784
:1046C00088A50000C94600000A2838B5074D0446F1
:1046D00004D1AB680D215B6828469847AB68034856
:1046E0005B68E1B29847204638BD00BF88A500004E
:1046F000024B0B6001231360704700BF9014002031
:104700000048704760A8000010B501221146064815
:10471000064C05F036FB05F000FA206005F0F9F9CB
:104720006060002010BD00BF98140020901400208D
:1047300070B50C46154605F0ECF9294606462046AC
:1047400003F030FF08B3B4FBF6F306FB1343E3B901
:10475000B5FBF6F306FB1353BBB9AE4201D90020FB
:1047600070BD4FF0FF324FF0FF33094802F026F8DA
:1047700005F0CFF90646204601F0AAFCAD1B3444F3
:10478000F9D1034801F0F6FFE9E76FF01500E7E71C
:1047900098140020F8B50E463046194617461C46B8
:1047A00003F000FF08B344EA060515F003051CD129
:1047B000A4B10F484FF0FF324FF0FF3301F0FEFF7E
:1047C00024F00304A54206EB050009D1094AD2F8FA
:1047D0000034DB07FBD5064801F0CCFF0020F8BD14
:1047E000795901F095FC0435ECE76FF01500F6E718
:1047F0009814002000E00140036803F01F025B09E9
:10480000026004D0012B034818BF002070474FF00E
:10481000A0407047000300502DE9F04FDFF8609191
:10482000DFF860A185B01546834600EB810140F2B8
:10483000FF18594503D1002005B0BDE8F08FDBF823
:1048400000305804C3F3C322C3F3080400F191807D
:104850005B0C19F80270444508BF4FF0FF34192B68
:1048600000F28A80DFE803F00D141A1D20261D884F
:104870008888883663888888888888888888667C5D
:104880007F82C5F80C45621C5ED10BF1040BD0E7AA
:10489000C5F81445631CF8D000265FE0C5F808454C
:1048A000F1E7C5F81045F5E7661CC5F80845ECD0FA
:1048B000002604E0601CC5F80C45E6D0012603A8DC
:1048C0000394FFF799FF039B012202FA03F3C0F858
:1048D0000C3508E0C5F80845002FDBD1631CD4D0A7
:1048E000002632460627DBF80030019303F400402F
:1048F000002818BF002203A8009218BF01260394C5
:10490000FFF77AFF039C019B009A00EB8400C3F33E
:10491000412CD0F800473B0243EA8C03134304EADE
:104920000A04234343EA4603C0F80037ADE7C5F85D
:104930000C45D1E7C5F86045621CDBF80030A4D017
:10494000C3F30043002BB9D003A80394FFF754FF2F
:10495000039B012606FA03F3C0F808353246C2E786
:10496000C5F86445E8E7C5F86845E5E7C5F86C456E
:10497000E2E76FF015005FE76FF085005CE700BFCE
:1049800059AD0000F0F8FCFF2DE9F7430646002280
:1049900001210220FDF714FF0220FDF7E1FE7768F8
:1049A00035693C684FF00008C4F800852E60D7F8E0
:1049B0000C9001AA4146484603F08EFE00283FDBDA
:1049C000019BD9F8002019791868FFF725FF002806
:1049D00036DB6B7AD6F810C0012B03D0032B2DD118
:1049E0004FF01008AB7A032B28D195F80BE0BEF1FD
:1049F000000F02D0BEF1010F20D12A7A012A22D065
:104A0000022A24D0D2B910466B687168B3F5164FEC
:104A1000096800F0BA803AD8B3F5165F00F0B880A4
:104A200020D8B3F5966F00F0B58012D8B3F5967F15
:104A300000F0B380B3F5167F00F0B2806FF0850010
:104A400003B0BDE8F0834FF480700E22DCE7002055
:104A5000FBE7B3F5166F00F0A680B3F5965FEDD1D6
:104A60005D4B43E0B3F5E14F00F0A08008D8B3F50B
:104A7000615F00F09D80B3F5964FDFD1574B35E075
:104A800047F612294B45D9D14FF400032EE0B3F578
:104A9000613F00F08F8015D8B3F5963F00F08D8010
:104AA0000AD84DF6C0294B4500F08980B3F5614F17
:104AB000C4D14FF46B0319E0B3F5E13FBED14FF021
:104AC000EB7313E0B3F5612F7CD009D8DFF81091B8
:104AD0004B457AD0B3F5E12FB0D14FF0E86305E054
:104AE000DFF800914B45A9D14FF08053C1F8243530
:104AF000736840EA0E001B6842EA08021043C3F8DC
:104B00006C05D5E901010CF1040383E803007B681F
:104B1000990712D505F1180001F08CFB324B984231
:104B200056D1287E04F10C0204F5907104F085FF43
:104B30002B7E0120984001F00BFA0823C4F80035C1
:104B40003B7A53B9C4F81031D4F810316B69C4F80A
:104B500034350123C4F8383523607B689A075CBF7D
:104B60004FF48073C4F804337B68DB0644BF4FF412
:104B70008003C4F804332B69C4F8443500200123B2
:104B8000C4F84805A360E3605AE74FF41D03ADE79E
:104B9000164BABE74FF49E23A8E74FF4A033A5E7ED
:104BA0004FF41C33A2E74FF41D239FE7104B9DE702
:104BB000104B9BE74FF06C7398E70F4B96E74FF461
:104BC000650393E74FF0706390E74FF080638DE7E4
:104BD0006FF0040034E700BF00B0130000A04E00E7
:104BE00090D0030040420F000000AD0B00502700A2
:104BF00000C0750000F03A0000903A012DE9F04144
:104C0000044607690D4605F043F94FF02008B0B996
:104C10002C4B1B789BB16426606803F08BFDF0B9C8
:104C2000012004F008FF013EF6D10021212002F00E
:104C300059FAF0E786F31188BFF36F8FF5E7EFF3CA
:104C40001186314688F31288BFF36F8F606803F0D6
:104C500071FD80B986F31188BFF36F8FEFE7EFF333
:104C60001186314688F31288BFF36F8F606803F0B6
:104C700061FD0028DED03B691D70626838691368E9
:104C8000C3F844050120C3F848050020C3F82001FB
:104C9000D3F82051C3F858015268D3F85801D2060E
:104CA00008D5626812680820C2F800054FF4800237
:104CB000C3F8042301229A6081F31188BFF36F8F38
:104CC000BDE8F0819D33002070B5012383400E4A7A
:104CD000BFF35B8FDC4352E8001F01EA040542E8A2
:104CE0000056002EF7D1BFF35B8F4FF48032824025
:104CF0000648C0F80823BFF35F8FBFF36F8F0B42E6
:104D000014BF0120002070BDB41400200010014029
:104D100070B40E49D1E90034D01AC31844F100042C
:104D200022F07F46C1E90034A6F50013B3F5400F29
:104D300009D2074B1B681A0A1B069C19054B42F146
:104D40000005C3E9004570BC02F080BB18050020D7
:104D5000B81400202005002011B3BFF35B8F01239E
:104D6000104A834052E800CF4CEA030C42E800C1ED
:104D70000029F7D1BFF35B8F0B4A4FF48033834098
:104D8000C2F80433094BBFF35B8F1B68BFF35B8F23
:104D9000C340DB0742BF064B4FF40032C3F800218B
:104DA000704700BFB414002000100140B014002070
:104DB00000E100E00D4B1868010A0006BFF35F8FA9
:104DC0000B4BD3F80435181841F10001B3F5801FDF
:104DD0000AD2084BD3E90023904271EB030303D2BC
:104DE00010F1807041F10001704700BFB81400203D
:104DF00000100140200500202DE9F04F85B0164637
:104E00001F469DF840A00446FFF75EFF0190FFF7A4
:104E1000D1FFB04271EB070354D23E4B301A67EB1F
:104E20000101984271F100014FD23B4B03EB041397
:104E3000D3E902239F4208BF96425ED037494FF420
:104E4000803804F1500508FA04F8AD00C1F8488331
:104E50002046ADB203F0B5FC26F07F4B05F180454E
:104E600004F5A87305F58835DC464FF00309029375
:104E7000029A2CF07F4341F82230C1F84483D1F8E4
:104E80000435274A6FF00200C01A604420F07F40CA
:104E9000904232D9286868B1D1F804350393A3EB66
:104EA0000B0020F07F40B0F5000F26D9204603F01C
:104EB00088FC039BBAF1000F07D109EB030C09F141
:104EC0000109D5E7BAF1000F09D06FF015052046AA
:104ED0000199FFF741FF284605B0BDE8F08F012397
:104EE000104ABFF35B8FA34052E8000F184342E81B
:104EF00000010029F8D1BFF35B8F07490E98230109
:104F000001EB0412C8500F9B5360C2E902670025F1
:104F1000DDE700BF0100800008050020001001400F
:104F2000FDFF7F00B01400207FB51C4C1C4BC4F863
:104F30000833C4F848331B4B00254FF0FF304FF0C7
:104F4000FF31C4F80855C3E902014FF48033C4F8B7
:104F50000433154B02264FF400320121C4F80463D8
:104F60001120C3F880212A46FDF72AFC1120FDF705
:104F7000F7FB0E4A0123A360236013600C4B0D4A1C
:104F80000093CDE9015500232846FFF735FF304651
:104F9000FFF708FB284604B070BD00BF00100140B9
:104FA00003000F000805002000E100E0B414002019
:104FB000114D0000FFFF7F002DE9F7432F4CD4F87F
:104FC000043399070BD5D4F8043143B12C4A00239C
:104FD000C4F80431D4F80431136801331360D4F8F1
:104FE0000433DA0329D5BFF35B8F264B53E8002F38
:104FF00022F0010143E800100028F7D1BFF35B8FD6
:10500000D30702D4D4F84031BBB10025C4F84051D5
:10501000D4F84031FFF7CEFEEFF31182202383F363
:105020001288BFF36F8F184BD3E90267B042B941C2
:1050300006D282F31188BFF36F8F03B0BDE8F0830F
:105040004FF0FF384FF0FF39C3E90289D3E9001070
:105050001D604FF48033C4F84833C4F84051D4F88D
:10506000403182F31188BFF36F8F0029E5D00090A3
:1050700032463B4628468847DFE700BF0010014024
:10508000B8140020B01400200805002030B5431CDF
:10509000124C85B005D08442A8BF0446012CB8BF8D
:1050A0000124FFF787FE0E4B0C4DD3E90013401A85
:1050B000B0F5000F10D22218AA4228BF2A46521873
:1050C0004FF0000007490091CDE9010043F10003D2
:1050D000FFF792FE05B030BD2A46F0E7FFFF7F00E4
:1050E00018050020114D000008B5FFF763FE024BC4
:1050F0001B68C01A08BD00BF1805002010B5084C79
:10510000012363601120FDF739FB064BC4F8083317
:10511000C4F84833044B4FF40032C3F8802110BD6B
:105120000010014003000F0000E100E030B50C4921
:105130000C4D0B680246002405EB0310D0F808085C
:10514000C0B218B904B10B60002007E00133072B8F
:105150004FF00104F0D90B606FF01B00136030BDFD
:10516000BC14002000E0014038B50A460C4620235C
:105170000021054602F065FF28B11048452102F0E4
:1051800052FF012038BD22680D4B9A4205D00D48D0
:10519000452102F048FF0320F4E72369DB0604D52C
:1051A0000948452102F03FFFF5E7E26823899B1893
:1051B000F1D2AA689342E5D3EDE700BF6FAD0000DE
:1051C0003DB8F39690AD0000ABAD0000044B1B68FA
:1051D000584043085B4240421843C017704700BF25
:1051E000C01400208842F0B504D0094F04380025CF
:1051F000AA4200D1F0BD3E6850F8044F5E4024EA58
:10520000060451F825601E40344304600135EFE781
:10521000C0140020044B1B68584043085B424042C6
:105220001843C017704700BFC0140020F8B50E46E1
:10523000C9880546144603F0D4FD0746D0B9204678
:10524000FFF7E8FF104B1A68B5F90430424023EA33
:105250000203B6F9042002401343AB800446034620
:10526000F28831682868FFF7BDFFF388E443EA88D5
:10527000934201D33846F8BD296851F823202240D3
:1052800041F823200133F2E7C01400202DE9F04754
:10529000DFF83CA007468846164699460024DAF80F
:1052A0000050DAF800305D4085EA090585EA04001F
:1052B000FFF7B0FFC243D2B208EBC4013846FFF794
:1052C000B5FF10B90134A642E9D1BDE8F08700BFAF
:1052D000C01400202DE9F04F99B083460F461846C0
:1052E00000211646039303F0DFFE002800F08981B9
:1052F000784B14930024012515AB03991393304682
:10530000CDE90B45CDE90D45CDE90F45CDE9114579
:1053100003F053FEA04228DABBF1000F05D1E7B934
:105320000024204619B0BDE8F08F2146584603F00E
:10533000CCFD04460028F2D00BA803F044FD0DA8D4
:1053400003F041FD0FA803F03EFD11A803F03BFD63
:105350000C2115A800F02CFBE3E73146384603F09A
:105360007FFD04460028E7D1DAE731460BA803F0B9
:1053700077FD04460028DFD103990DA803F070FDE6
:1053800004460028D8D1F188ADF8385002310FA872
:10539000ADF8305003F025FD04460028CCD101467D
:1053A0000FA803F092FD04460028C5D1F18811A88A
:1053B000023103F016FD04460028BDD10DA803F00C
:1053C000B0FD00F01F001F2873D0C0F11F03194665
:1053D0000BA8019303F0CBFD04460028ACD1019942
:1053E0000DA803F0C4FD04460028A5D1BDF8325035
:1053F000BDF83A80A5EB080A4FEA4A1949460DA8BC
:1054000003F0B5FD0446002896D14FEA8A0A0DA99B
:105410000BA803F001FE00284DDA49460DA803F061
:10542000C3FD0446002887D108F1FF3305939B0094
:1054300005F1FF3A069305F1804508F18043023BF0
:10544000013D9B00A5EB08050893AB000293059B6B
:105450009A4541D8BBF1000F0DD00FA9584603F073
:10546000FFFC002840F0C980039AB388928813FBA0
:1054700002F3ABF80430002F3FF45EAF01990BA8A4
:1054800003F092FD002840F0B880B388ADF83030CA
:105490000BA9384603F0E4FC0146002840F0AF8039
:1054A000384603F001FE00287FF446AF0123BB809D
:1054B00042E701949AE70F9A52F80A300BA9013398
:1054C00042F80A3008460DAA03F0D4FE044600282C
:1054D0009DD031E7010003000D9B069A049313440D
:1054E000DDF82C900793049B59F82A109A580F9DC9
:1054F0004FEA8A08A8F104030993029B91421D44D4
:1055000076D2A8F10400002359F80000FAF7F8FD5C
:10551000002914BF4FF0FF330346BAF1010F2B608F
:1055200016BF09EB0803002353F8083C1593A8F1B4
:10553000040359F80330169359F8083017932B6871
:10554000DDF8108001332B60089B98442B68013BE9
:105550002B60002111A803F0B8FC00284DD1059B59
:10556000002B48D0D8F80020119B1A60079A1268C7
:105570005A6011A92A68084603F080FE00283CD131
:1055800013A911A803F048FD0028DFDC2A680DA943
:1055900011A803F073FE80BB029B4FEAC30841468B
:1055A00011A803F0E4FC40BB0BA9084611AA03F0C4
:1055B00061FE014618BB0BA803F076FD002812DA45
:1055C0000DA911A803F04CFCB8B9414611A803F08D
:1055D000CEFC90B90BA911AA084603F048FE60B9A9
:1055E0002B68013B2B60029B0AF1FF3A043B2DE73D
:1055F0004FF0FF3391E7059AB6E704469CE60C4668
:105600009AE66FF00B048CE62DE9F84F9246194AA2
:105610001568454006460F46ED43002B14BF9946DA
:10562000894600240A9B04F10408434504D20A9BDE
:105630009C4214D3BDE8F88F0AEB040004F081F813
:1056400000EA060B09EB040004F07BF800EA050110
:1056500041EA0B01381904F07FF84446E2E71AF8F2
:10566000043019F8042033402A4013433B550134D9
:10567000DDE700BFC0140020082804D00928034833
:1056800018BF002070470248704700BFC3AD00003C
:10569000C6AD000001680E4A9142034615D1C169AA
:1056A000A2F11022A2F1EF1291420ED18268012ADA
:1056B0000BD8C26812B101698A4206D0586928B174
:1056C0009B691B1A5842584170470120704700BF20
:1056D00055AA00FF70B50D4B9E68A6B13046FFF786
:1056E000D9FF044678B9F3686BB935690DB920461E
:1056F00070BD2846FFF7CEFF28B9EB68B34202D150
:105700002E462D69F2E70124F1E700BFC414002002
:105710002DE9F8433F4F3C68D4B1BC68C4B10028C0
:105720004AD0002948D001FB00F5B5FBF0F08842D3
:1057300042D1281D40D8A9070DD025F00306043614
:10574000FC6803E06368B34238D2A469002CF9D145
:105750002046BDE8F8832E46F2E7FB6041E006F103
:1057600020016318203A5A600022C3E902242A4823
:1057700022691A6160502949D96102B1D360626916
:105780005A61A1699961AAB193619A6902B15361A1
:105790004FF00109C4E9016923610023C4E905331D
:1057A0003B69DB072ED5FFF795FF58B31C4B4846E6
:1057B0001B6826E0FB60E8E70024C9E7A3681BB18B
:1057C000174B01201B6898476268921B232A04F13B
:1057D0002008C4D80123A360D4E90523002ABCD043
:1057E0009361A3690BB162695A610023C4E905336F
:1057F0003B69DA0706D5FFF76DFF18B1084B1B6848
:10580000012098472A4600214046444602F0C9FD3F
:105810009EE700BFC414002055AA00FF669911EE50
:105820007002002070B50546002800F08880444EC4
:105830003368002B00F08380B268002A7FD0834257
:1058400003D872681344984203D33E4B01201B686F
:105850009847A5F120042046FFF71CFF18B1394BEB
:1058600001201B68984755F8183C012B03D0354B95
:1058700001201B689847002345F8183C55F8143C54
:105880003BB39A682ABB55F81C2C02F120015A68D8
:105890000A445A6055E905321A6155F8145C2B69BF
:1058A00003B1DD6020220021204602F07AFD286944
:1058B00010B18368002B2ED033699B073FD5FFF7CB
:1058C00009FF00283BD01F4BBDE870401B6801203A
:1058D000184755F8100C00282AD0836843BB42684B
:1058E000636813442033636003692361D4E90523AB
:1058F0009AB9CBB9436963618269A261B3B19C6112
:10590000A36903B15C61236903B1DC60202200213B
:1059100002F047FDD0E72C46E1E79361A369002B35
:10592000E8D062695A61E5E7F360F7E7F460E7E71A
:10593000F36845F8083C03B15C61F460BCE770BDF6
:10594000C41400207002002038B514220C4605460D
:105950000021134802F025FD1249134800F040F8D9
:10596000232C1CD915F003031FBF043CE418C3F11A
:105970000403ED1822460021284602F012FD084BD0
:105980000A499D60C3E90054203C6C609A6811602C
:105990009A68DA60A1F11021A1F1EF11D16138BD4F
:1059A000C4140020255800001157000055AA00FF1C
:1059B00010B50A46044619B1024B00211B689847EE
:1059C00010BD00BF6C020020014B1B68184700BFD0
:1059D00078020020014B1B68184700BF74020020AA
:1059E000024B1860024B00201960704778020020BB
:1059F00074020020F8B500F10806476804463046F6
:105A00000D4603F092FA87424BD16368B3F5807F6D
:105A100047D80021304603F047FB002841DD002134
:105A2000304603F06EFAE0B345B9294604F11000A0
:105A300003F03AFB002834DD0020F8BD04F1200516
:105A40000021284603F030FB00282ADD00212846EB
:105A500003F057FA28B304F128050021284603F083
:105A600023FB00281DDD0021284603F04AFAC0B1BF
:105A7000002104F1100003F017FB002811DD0021C4
:105A800004F1300003F010FB00280ADD002104F1CE
:105A9000380003F009FB002803DD002104F1400079
:105AA000C6E70148C9E700BF80BFFFFF012938B53D
:105AB0000546144601D0074838BD22B90123C5E97F
:105AC0001C340020F8E71046FFF7D6FD0028F5D17A
:105AD000F1E700BF00BFFFFF70B500210446FFF7EC
