:020000040100F9
:10000000A066002185480001151A01017148000110
:1000100071480001714800017148000100000000B2
:10002000000000000000000000000000314A000154
:100030007148000100000000F14900017148000111
:10004000B14B0001B14B0001B14B0001B14B0001BC
:10005000B14B0001B14B0001B14B0001B14B0001AC
:10006000891E0101B14B0001B14B0001B14B0001F0
:100070003B1E0101B14B0001B14B0001B14B00012E
:10008000B14B00016F1E0101B14B0001B14B0001EA
:10009000B14B0001B14B0001B14B0001B14B00016C
:1000A000B14B0001B14B0001B14B0001B14B00015C
:1000B000B14B0001B14B00017BB972B90029BEBF41
:1000C00000204FF0004106E008BF00281CBF6FF081
:1000D00000414FF0FF3000F057B8ADF1080C6DE96A
:1000E00004CE002909DB002B1ADB03F00DFCDDF840
:1000F00004E0DDE9022304B07047404261EB4101B6
:10010000002B1BDB03F000FCDDF804E0DDE902233B
:1001100004B0404261EB4101524263EB430370473C
:10012000524263EB430303F0EFFBDDF804E0DDE94B
:10013000022304B0404261EB41017047524263EB3D
:10014000430303F0E1FBDDF804E0DDE9022304B042
:10015000524263EB4303704753B94AB9002908BFC1
:1001600000281CBF4FF0FF314FF0FF3000F00CB8FB
:10017000ADF1080C6DE904CE03F0C6FBDDF804E038
:10018000DDE9022304B07047704700BF014B1B68D4
:100190001B68184700000021014B1B685B6818476B
:1001A00000000021014B1B68DB681847000000219C
:1001B000014B1B681B69184700000021014B1B689D
:1001C0005B69184700000021014B1B689B691847B9
:1001D00000000021014B1B68DB691847000000216B
:1001E000014B1B689B6A184700000021014B1B68EC
:1001F0001B6B184700000021014B1B68DB6B184785
:100200000000002110B4034C2468A468A44610BC6C
:10021000604700BF00000021042810B511D883B149
:1002200004280CBF10242824A1420AD2064C54F8FA
:10023000200018B141568A42A8BF0A4600201A7011
:1002400010BD6FF01500FBE7C00200210228034635
:1002500010DC10F1270F0FDB2830084A40B2105C89
:10026000024492F92C209A4207D0002918BF01308D
:10027000C0B270470F20704700207047DC49010171
:10028000022808B506DCFFF7E1FF034B034493F9AE
:100290002C0008BD0320FCE7DC490101014B187963
:1002A000704700BFDC020021044B1A79824283BFF1
:1002B0001B68302202FB003000207047DC02002166
:1002C00043F60952C0F30803400A02FB03F302FBA2
:1002D00000F003F5807300EB532070470346C0F332
:1002E0000800C3F34E221B0E43EA0123090E10B58A
:1002F0004FEA411C43F609544FEA431E4CEAD36CC3
:1003000004FB00F0BEEB030E04FB02F200F580706C
:100310006CEB010402EB50204FEA841C4FEA8E1272
:100320004CEA9E6CB2EB0E026CEB040C4FEACC0C68
:100330004CEA527CD200D31841EB0C01DA03C9031A
:10034000801841EA534141F1000110BD48F2376C79
:10035000430B0CFB03F300B54FEA134C43F6095E65
:100360000F4B0EFB1C0000FB03F35B0D0EFB03FEAB
:1003700003EB4C2343F6085CF444B0EB5C2F08D845
:100380000EF5807E0B60A0EB5E20C0B210705DF8B1
:1003900004FB013300200B6010705DF804FB00BF0C
:1003A0006F0C010070B5274DA94246D84FEA507C2A
:1003B000254C43F6095E43F608564CEAC10CC0F3DF
:1003C0004F3101EB0C41A4FB0C5C204D4FEA9C3CEF
:1003D00005FB1C11A4FB01411D4C890B41EA0C419A
:1003E00048F2376C04FB1104600B0CFB00F04FEA81
:1003F000104C18480EFB1C4505FB00F0400D0EFB91
:1004000000FE00EB4C207644B5EB562F11D80EF5CC
:10041000807EA5EB5E2E5FFA8EFE049D85F800E0DF
:100420000D06090A281841F100011860596014608E
:1004300070BD01304FF0000EEFE796219B2002F0D7
:1004400025FF00BFFF7F841E83DE1B43000024F4D2
:100450000080841E6F0C010048F23761420B43F6A6
:10046000095C094B01FB02F2120C0CFB1201500259
:1004700001FB0333013B5B0D0CFB03FCB1EB5C2F79
:1004800088BF0130184470476F0C010000F0AABC0F
:10049000084A92F80034202B06D05801042102EBC0
:1004A00043131258586810475021022010B502F02B
:1004B000EDFE00BFE802002108B501B3F0B14FF036
:1004C000FF331A46E0FB01320E498A4203D97121FB
:1004D0006D2002F0DBFE180D4FF22441C3F30F1321
:1004E00040EA0230B0FBF1F203EB0040064B03FBA5
:1004F0001200B0FBF1F040EA0240013008BD0846AE
:10050000FCE700BF3F420F00000024F4014B588875
:10051000704700BF2407002110B5EFF3108472B6B6
:10052000064A93790133DBB293719379012B01D1A0
:1005300000F0D4F904B962B610BD00BF2407002151
:1005400070B50B4C26785EB90125A0602570FFF7C9
:10055000E3FF00F0DDF928B9064B2573C3F8045317
:10056000002070BDA368002BFAD09847A660F7E77B
:10057000240700210050004108B5FFF7CDFF00F02F
:10058000C7F9084A084B30B10121116104225A739E
:1005900000229A7308BD032159730121C2F8041384
:1005A000F6E700BF005000412407002110B5EFF32B
:1005B000108472B60A4B9A7922B94FF496716D2065
:1005C00002F064FE9A79013AD2B29A719A791AB914
:1005D000DB7B0BB900F088F904B962B610BD00BF2F
:1005E0002407002108B5054B1A7822B100221A739E
:1005F0001A70FFF7DBFF002008BD00BF24070021B1
:1006000037B5184C237F63B9206A00F0030000F06F
:10061000A7F930B1EFF3108372B6627B1AB103B958
:1006200062B603B030BD0122627303B962B68023A3
:100630000D4DC5F808334FF42073ADF80630BDF802
:1006400006309BB25A1E92B2ADF80620002BF6D1AE
:10065000C5F81C3184F82430FFF78EFF8023C5F8DD
:100660000433DEE72407002100500041F8B5264C92
:1006700094F82530002B45D0244BD3F80071D3F8E3
:10068000046157B10122C3F80823237B2BB1002555
:10069000A36825730BB19847A5601C4D3EB100239C
:1006A000C5F804310223C5F80833FFF7A9FFD5F8D0
:1006B0001C3194F82460F6B237B1627B032A01BF83
:1006C0000422627301222A617BB1104B0022C3F81D
:1006D0001C21637B042B04D040F2D7116D2002F063
:1006E000D5FD02236373FFF761FF5EB1002384F839
:1006F0002430637B022B01D1FFF73EFFBDE8F840B9
:10070000FFF754BFF8BD00BF24070021005000418F
:1007100010B5044C206A00F0030000F021F9002815
:10072000F8D010BD24070021F8B5054650B1027875
:10073000022A07D8437842B9013B1F2B02D883789D
:10074000212B07D96FF0150067E0002BFAD18378D1
:10075000002BF7D15D4B2022C3F88020BFF34F8FD1
:10076000BFF36F8F5A4EC3F880214FF0FF33594CBF
:10077000C6F808330023C6F80031C6F80431C6F8BD
:100780001C31A371AB88A38000F0D2F810B1012313
:100790002370A371D6F80C24D6F80C34D70303D5F4
:1007A000DE0701D500F0AEF840F2F553AA78638079
:1007B00001232274002223622B78A273012B23775A
:1007C0002CD0022B2DD0002B38D100F0B9F8002806
:1007D0003ED000F0BDF8236A03F00303984237D1FE
:1007E000AB7983BBFFF794FF237C63B12B7853B9BC
:1007F00000F08EF8054602F089FD6FF00043002DF1
:1008000061D0C4E9050301232022002084F82530AB
:100810002E4B6073C3F880211A60F8BD0223236257
:10082000D3E7FFF779FE2A4BD3F80C14D3F80C2446
:10083000C803F9D5D107F7D50323F0E740F2163105
:100840006D2002F023FD224B0222C3F80423CBE7E4
:100850001F4B01220021DA60C3F8041194F8201024
:10086000C3F818159A600222C3F80423AA79002A53
:10087000BAD1D3F80423920702D440F2CD21DFE7A6
:10088000154A1769116907F0100741F0100111614D
:10089000D3F804310BB903F002FA0D4ED6F8043147
:1008A00073B1FFF735FF27B90B4A136923F0100323
:1008B00013610223C6F808330023C6F8043193E716
:1008C00003F0ECF9EAE7C4E905309CE700E100E059
:1008D000005000412407002100ED00E0014B0122FF
:1008E0001A60704700500041044A012353600023FE
:1008F000C2F80031024A1370704700BF0050004137
:100900004B070021014B01221A7070474B07002151
:10091000054BD3F8003123B9044B187800F00100DF
:1009200070470120FAE700BF005000414B0700214B
:10093000024BD3F8080400F001007047005000415A
:10094000024BD3F8140400F001007047005000413E
:10095000024BD3F81C0400F0030070470050004124
:1009600007490246D1F81804D1F8181410F4803061
:1009700005D0D0B201F003031B1A5842584170470A
:100980000050004130B440494FF0FF344FF0FF3584
:100990000023FF223D480B700B618A70C1E90245BC
:1009A0004FF48054C0F88040BFF34F8FBFF36F8F78
:1009B000374A4FF0FF35C0F8804101240B75546071
:1009C000C2F80853C2F84035C2F84031C2F8443585
:1009D000C2F84431C2F84835C2F848314FF4003308
:1009E000C0F88030BFF34F8FBFF36F8F02F5A04286
:1009F000C0F8803154609460D2F80435002BFBD1EC
:100A00004FF44034234D8869C2F808531F49C2F897
:100A100048434FF40034C2F84031C2F84431C2F8C0
:100A200004310C6068B34FF00043194901241A4D9A
:100A3000C1F8C031C0F88030C2F880300523C5F855
:100A40000445C1F840350C60D1F84031002BFBD093
:100A50000122114C0023C4F8082504F500544A6013
:100A6000CA60C1F84031C1F84035C1F8C031C0F8A2
:100A70008030C4F88030094B022230BCC3F8042314
:100A8000704701231360F6E75007002100E100E002
:100A900000C000410200030000F0004100100141CD
:100AA000B1F1FF3F08BFB0F1FF3FF8B500F0C480DF
:100AB000BE4CD4E902538B4208BF85423AD0BC4BAE
:100AC0000522C3F808252378012B3DD0B94B4FF4FC
:100AD00040324FF4803520F07F46C3F84823C3F8F6
:100AE00008230022C3F84021C3F80853C3F8485331
:100AF000C3F84021D3F80425B21A22F07F47B7F596
:100B0000000F18D940F226316C2002F0BFFBD2F85A
:100B10000031002B40F0088101314FF000034FF00D
:100B2000807243F10003E6FB02134FF60272C4E940
:100B300002132280F8BDA04F1740002FE2D0C3F867
:100B40004065C3F8445326E09A4A4FF400334FF40B
:100B5000803720F07F4CC2F84833C2F808330023B6
:100B6000C2F80873C2F84873C2F84031D2F80435AD
:100B7000ACEB030323F07F46B6F5000FC2D88E4ED0
:100B80003342BFD0C2F840C5C2F84473D2F804352E
:100B9000EB1A3342FAD001250022884E4FF48057D9
:100BA000E561A270C6F88070BFF34F8FBFF36F8FFF
:100BB000834B4FF0FF3CC6F880715D60C3F808C3FB
:100BC000C3F84025C3F84021C3F84425C3F84421A5
:100BD000C3F84825C3F848212275D3F8042522F02C
:100BE0000302C3F80425D3F8082542F00302C3F832
:100BF0000825102292FAA2F2B2FA82F2092A00F330
:100C0000CF80C3F81025DD60E269DFF8A8C1C3F822
:100C100000226C4AC6F8807137602570CCF8C0217C
:100C2000C3F880200423624AC2F804356370C4E923
:100C30000201CCF84853F8BD5E4BD3F800110029EF
:100C400000F085805A4A0521584CC2F808152278D0
:100C5000012A00F09E804FF440320021C3F848235F
:100C6000C3F80823C3F840114FF0010C002053498A
:100C70004FF48056C4F81CC0A070C1F88060BFF368
:100C80004F8FBFF36F8F4E4D4FF0FF33C1F8806130
:100C9000C5F804C0C5F80833C5F84005C5F84001DB
:100CA000C5F84405C5F84401C5F84805C5F848012C
:100CB000D5F80435207523F00303C5F80435D5F8BD
:100CC000083543F00303C5F80835102393FAA3F35E
:100CD000B3FA83F3092B63DCC5F81035C5F80CC0F3
:100CE000E369344AC5F800324FF00043C1F880612F
:100CF0000E60C2F80001C2F88031C5F880302C4B7C
:100D0000C3F804C5EFF3108772B6D2F80415D2F811
:100D1000043183B92669002F7FF4F9AE62B6D2F8A8
:100D20000031002B3FF4F8AEC2F80001C5F804C052
:100D3000C5F80CC0E6E7236901332361C2F804015A
:100D4000D2F80415D2F80431002BF4D1E2E7EFF326
:100D5000108072B6D3F80455D3F80421134C62B94D
:100D6000236900B962B64FF0807203200021E3FBD3
:100D70000201401941F100019BE622690132226122
:100D8000C3F80411D3F80455D3F80421002AF4D190
:100D9000E6E74FF40032C3F84823C3F8082363E7BB
:100DA00040F29131084802F067FA00BF5007002175
:100DB00000F0004100100141FEFFFF0000E100E0F3
:100DC00000C0004102000080F84E0101014BD3E950
:100DD0000201704750070021014BD3F8040570470A
:100DE0000010014138B5EFF3108572B60E4A0F4975
:100DF000D2F80405D2F804315BB100240B69013349
:100E00000B61C2F80441D2F80405D2F80431002B7A
:100E1000F4D10C6905B962B6FFF752FA044B002110
:100E2000E4FB030138BD00BF001001415007002161
:100E30000080841E30B4EFF3108572B60E4A0F495D
:100E4000D2F80405D2F804315BB100240B690133F8
:100E50000B61C2F80441D2F80405D2F80431002B2A
:100E6000F4D10B6905B962B600214FF0807230BC35
:100E7000E3FB0201704700BF001001415007002151
:100E8000032870B51ED8354BD3E90241B1F1FF3FBD
:100E900008BFB4F1FF3F48D0314C8100012310302E
:100EA00003FA00F501F140002144C4F8085303514E
:100EB000D1F84005101A02283FDC00231846C1F87B
:100EC000403570BD031FDCB2012C3CD8234B197890
:100ED00011B15B7883423BD04FF48031A300214DA8
:100EE00022F07F4603F5A07301FA04F200211E48A8
:100EF000C5F80823C5F848235951D5F80435F31A25
:100F0000184023F07F43401A18BF0120B3F5000FAB
:100F100088BF00200028D4D004F5A87345F82360CA
:100F2000C5F80423C5F8442370BD1B7D002BB3D145
:100F300040F255316C2002F0A9F9C1F8402518465D
:100F4000C4F8045370BD40F276316C2002F09EF973
:100F500040F272316C2002F099F900BF5007002175
:100F600000C0004100100141FEFFFF00032838B51A
:100F700010D800F1100482000121324B00F5A87056
:100F800002F5A072A1400024C3F8081343F82040E2
:100F9000D45038BD031FDBB2012B4DD82A4A11783B
:100FA000C1B94FF48031294A03F5A8709940C2F8BD
:100FB0000813C2F8481352F82000D2F80445244917
:100FC000001B01400029E4D09B00002103F5A07321
:100FD000995038BD54788442E3D11E480524012934
:100FE000C0F8084508D000244FF0FF304FF0FF3123
:100FF0001470C2E90201D4E717484FF48054C0F8D6
:101000008040BFF34F8FBFF36F8F4FF0FF35C0F8B5
:1010100080410C48002441601475C0F80853C0F8A2
:101020004045C0F84041C0F84445C0F84441C0F8CC
:101030004845C0F84841D6E740F2CA316C2002F07A
:1010400025F900BF00C000415007002100100141F8
:10105000FEFFFF0000F0004100E100E0134B1B78B1
:10106000012B134B1BD04FF440320021C3F848230F
:10107000C3F80823C3F840110E4B00224FF0FF3194
:10108000C3F80813C3F84025C3F84021C3F844252A
:10109000C3F84421C3F84825C3F8482170474FF4EA
:1010A0000032C3F84823C3F80823E5E750070021BE
:1010B0000010014100C0004120B1194B0122C3F8CA
:1010C0004423704730B40121154C164B4FF4805225
:1010D000C4F84813C3F88020BFF34F8FBFF36F8F5E
:1010E0004FF0FF34C3F880210F4B4FF0FF350F4A0C
:1010F00059601075C3F808434FF0FF34C3F840053A
:10110000C3F84001C3F84405C2E90245C3F84401ED
:10111000C3F84805C3F84801107030BC704700BFE1
:101120000010014100E100E000C000415007002133
:1011300008B5294BD3F80423D10302D5D3F84021B5
:101140008ABB254BD3F80423920302D5D3F844215C
:1011500082B9214BD3F8042132B1204A0021C3F8CF
:1011600004111369013313611D4B4FF40032C3F8AE
:10117000802108BD00221B49C3F84421D3F844252F
:10118000D3F80435D31A194021B123F07F43B3F5C6
:10119000000FDED9104B4FF400320520C3F80823AE
:1011A00001F08CFCD5E700220E49C3F84021D3F8AA
:1011B0004025D3F80435D31A194021B123F07F43D9
:1011C000B3F5000FBDD9044B4FF480320420C3F8AF
:1011D000082301F073FCB4E700100141500700211F
:1011E00000E100E0FEFFFF0010B5484CA378FF2BA4
:1011F00032D0237873B10122022B227576D1444B71
:101200000021C3F808254FF0FF324FF0FF33217063
:10121000C4E902233F4BD3F80423120303D5D3F8C8
:101220004C31002B6DD13B4BD3F80423500302D536
:10123000D3F84821AAB9374BD3F80423910302D538
:10124000D3F8442122BB334BD3F80423D20302D575
:10125000D3F840219ABB10BD0620BDE8104001F034
:101260002DBC00224FF480202B49C3F80803022034
:10127000C3F84825C3F848214FF48053C1F88031A2
:1012800001F01CFC234BD3F804239103DBD5D7E7F3
:1012900000224FF400302049C3F808030120C3F8AE
:1012A0004425C3F844214FF48053C1F8803101F044
:1012B00005FC184BD3F80423D203CCD5C8E74FF470
:1012C00080310020144AC3F808134FF48051C3F84A
:1012D0004005C3F84001E061C2F88011FF22A2700E
:1012E000C3F80002BDE8104001F0E8BB02236078BB
:1012F0002370FFF73BFE074BD3F80423120392D56C
:101300008DE740F20F416C2001F0C0FF5007002133
:1013100000F0004100C0004100E100E02DE9F04F85
:101320001C4699B0DFF8DC82059202900491FFF729
:101330004DFD6201D8F8003005460E460832B2492C
:1013400001200DF1400E01EB441C18605318545855
:101350000CF1080CDF8993F80C900697D3E901A2F1
:1013600007925A7BDB6801920893BCE80F00AEE855
:101370000F009CE803008EE8030024F07F40FEF796
:101380009FFF3B4601339944A04B9842814400F2B1
:101390002F82994500F3DF80B9F1000F48DBCB467F
:1013A000FFF7B6FA019B0746012B07D0D8E90631B3
:1013B0000B40013302D1002800F0F980FFF7A6F8B6
:1013C00040F25633984200F0E18040F2F5539842E3
:1013D00000F0D980B0F5C67F00F0CE8000230393E3
:1013E000002103208E460991B6F1FF3F08BFB5F1F9
:1013F000FF3F21D0A54276EB0A0380F0B080B4EB2A
:10140000050C6AEB0603BCF5000F73F1000380F0D6
:10141000FE81BCF1000F2B460EDDBEF1000F00F087
:10142000B88098F8200000280CBF0846002004E08F
:10143000DFF8DCB1CB44B3E7029B14F1FF39A9EB31
:10144000030C4AF1FF314B4684457FDB7FB9D8E975
:101450000620B0F1FF3F08BFB2F1FF3F07D0A21A4C
:10146000039F6AEB0000BA4270F100026BD30B934A
:10147000029B0291B9EB0302049B0A9261EB030702
:10148000FFF744F840F2563C02996045DDE90A2333
:1014900000F0B68040F2F55C604500F09F80B0F54A
:1014A000C67F14BF09201620824277F1000280F027
:1014B0009B80059A012A6ED005EA0602099FB2F1C7
:1014C000FF3F08BF47F00107002F00F0A780484604
:1014D000049302910027FFF7E3FA0299049BB1F10C
:1014E000FF3F08BFB9F1FF3F00F0878123F07F4045
:1014F000079B1A19121A22F07F42B2F5000F25D865
:10150000221A22F07F42013AB2F5000F1ED2029158
:10151000FEF7D6FE3F4BABEB000602999E42C0F0B1
:101520009480A0EB0B009842C0F0FA80374B9E42AB
:1015300000F28780984240F26F81DFF8DCB0ABEBBD
:10154000000B5E4682E0019A012A90D000252846D1
:1015500019B0BDE8F08FDFF8C0B0CB4420E7B5EBA1
:10156000040C66EB0A03BCF5000F73F1000380F076
:101570004981A4EB050C4CE700210D2303208E4686
:101580000393099130E73223039329E71C23039344
:1015900026E7084651E7B6F1FF3F08BFB5F1FF3F28
:1015A00000F049812B4631460027A9469EE7FEF709
:1015B000ADFF40F25633984200F0FE8040F2F55302
:1015C000984200F0EB80B0F5C67F00F0EE8001237A
:1015D0000320394603979E46099305E73B20824244
:1015E00077F10002FFF465AF04934846019B029136
:1015F0005F1E18BF0127FFF753FA049B02996EE79D
:10160000252051E770070021E8020021FF7F841E9A
:101610000080841E0040420F00807BE1B5EB090C86
:1016200066EB0102BCF1050F72F1000080F2A980A7
:10163000BCF1010F72F1000388DA2B463146A9464E
:1016400054E706F1F45606F59026B3467C4B93F822
:1016500028301BB9069B1E335B4569DA059B012BBD
:1016600004D001200291FFF781FC0299069B4BB147
:10167000F21A012000230291FFF702FC02990028D0
:1016800000F087800023324602911846FFF7F8FBEE
:101690000299054600287CD0019BD8F81820012B20
:1016A000D8F81C3049D0002F40F08D80B3F1FF3FB7
:1016B00008BFB2F1FF3F00F094800120FFF7FCFC6F
:1016C00098F82030002B40F08580069A19325A4550
:1016D00080F2AC80B21A002602203346FFF7D0FB1E
:1016E00010B1D8F800301E60079B4FF0FF320CAEEF
:1016F00010941293089BCDF844A013930023504CF0
:101700008DF858300C934FF0FF33CDE90E230FCEF8
:101710000FC40FCE0FC496E80F0084E80F0016E741
:10172000474BC0F1000B93F828305E46002B95D153
:101730004FF4F261702001F0A9FDB3F1FF3F08BF43
:10174000B2F1FF3F09D00191FEF730FF4FF0FF32B9
:101750004FF0FF330199C8E90623002FB0D0039B57
:101760000520B9EB030261F10003FFF789FB0028B4
:1017700057D098F82030002BA7D1012388F82030CB
:10178000A3E7484604930291FFF78AF90299049B64
:10179000A5E601200025FFF7E9FBD8E60123322169
:1017A00035209E46099303911EE601230D2110204A
:1017B0009E460993039117E601231C211F209E4694
:1017C0000993039110E6B3F1FF3F08BFB2F1FF3F69
:1017D000C5D0B8E70520FFF7C9FB002388F8203003
:1017E00073E7FEF799FEFFF725FBC8E9060164E7FA
:1017F00040F22141702001F049FD40F27C717020DF
:1018000001F044FD40F23571702001F03FFD40F2DF
:101810003171702001F03AFD40F65801702001F05E
:1018200035FD40F22621702001F030FD40F2BA7102
:10183000702001F02BFD40F2A361702001F026FD25
:10184000F00600212DE9F04F914F83B097F8214029
:1018500004EB44033B445E7A202E46D08D4BE5B228
:101860006400002B00F089808B4BDFF83092002B56
:1018700061D006EB45124FEA451807EB420A9AF889
:101880002830013BDBB2052B32D8854A12F803B071
:10189000BBF1090F2CD0AFF30080EFF3108372B6C9
:1018A0002C449AF829203C446272A27AB24200F099
:1018B000E88013B9AFF3008062B6B044730101222F
:1018C00009EB461607EB480859F80330706859468B
:1018D00088F82820984797F8214004EB4403E5B2A4
:1018E0003B4464005E7A202EC3D103B0BDE8F08F84
:1018F00040F26E61702001F0C9FC4FF02002A2722C
:10190000002B00F0BC80B0447301012209EB4616A5
:1019100007EB480859F803307068594688F82820C2
:10192000984797F8214004EB4403E5B23B44640038
:101930005E7A202ED9D006EB45124FEA451807EB08
:10194000420A9AF82830013BDBB2052BD0D8544A22
:1019500012F803B0BBF1090FCAD0AFF30080EFF368
:10196000108372B62C449AF829203C446272A27A01
:101970009642C2D0002BC6D181E0474B4FF02009E0
:10198000DFF81CB1DFF814A1002B4FD006EB451295
:101990004FEA451807EB420292F82830013BDBB2D0
:1019A000052BA5D81BF803100929A1D0EFF310834C
:1019B00072B62C4492F829203C446272A27A964274
:1019C00008BF84F80A90002B52D0B0447301012262
:1019D0000AEB461607EB48085AF80330706888F897
:1019E0002820984797F8214004EB4403E5B23B4494
:1019F00064005E7A202EC9D177E762B6B0447301E5
:101A000001220AEB461607EB48085AF803307068C3
:101A100088F82820984797F8214004EB4403E5B262
:101A20003B4464005E7A202E3FF45FAF06EB451224
:101A30004FEA451807EB420292F82830013BDBB22F
:101A4000052B3FF655AF1BF8031009293FF450AFA3
:101A5000EFF3108372B62C4492F829203C44627252
:101A6000A27A964208BF84F80A90002BC6D1C4E738
:101A70000191AFF3008062B6B0440199A6E762B667
:101A800041E74FF02002A272002B7FF416AF11E75E
:101A9000700700210000000000000000E8020021A3
:101AA000184A01012DE9F04F0D4685B014461F4636
:101AB0009DF838B0FEF7D0FC2E680319696847F12D
:101AC0000002B342019372EB01030292C0F0CA809C
:101AD000DFF8A8910BEB4B03DFF8A481DA464B4407
:101AE0000393039B1C7A202C3BD040F2F5578C4685
:101AF0000FE06B7B012B02D0537D012B56D004EB02
:101B00004A1409EB440494F82940202C29D0D5E943
:101B1000006C08EB44124FEA441B91681369D068CB
:101B20005B1840F100009E427CEB0003E1D240F2E2
:101B3000563740F2F55608EB0B0C2968AB68DCF819
:101B400008005B186A6842F100029842DCF80C3029
:101B500093411AD39CF81530012B02D06B7B012BDB
:101B600003D0012005B0BDE8F08F411A0091FEF7C7
:101B7000CDFCB84200993FD0B04228D0B0F5C67F26
:101B800014BF01230E239942EBDA08EB0B032A7CE6
:101B9000197E91421FD904EB4A1409EB440494F8CE
:101BA0002940202CDDD04FEA441BC4E7761AFEF70B
:101BB000ADFC40F25633984220D0B84209D0B0F57F
:101BC000C67F14BF01230E239E42B0DB97E7332369
:101BD000D9E73323F8E7D3E902611C695B7DA619D5
:101BE00041F10001012B0BD0019BB342029B8B41C1
:101BF00038D3C5E9006174E71D23C4E71D23E3E77B
:101C00006B7B012BF0D00091FEF780FC40F2563345
:101C1000009998422CD040F2F553984226D0B0F566
:101C2000C67F14BF01230E239C42DDDAFEF76EFC53
:101C300040F2563398421FD040F2F553984219D0E3
:101C4000B0F5C67F14BF01260E26C344DBF808306A
:101C5000DBF80C10F618019B41F10001B342029B26
:101C60008B41C6D2002005B0BDE8F08F3323DBE7FF
:101C70001D23D9E73326E8E71D26E6E77007002194
:101C8000E80200212DE9F04715461C4692F80BC0EA
:101C90000023AF7A86B01289064695F800809DF839
:101CA0003890E360236184F80DC027740F46A36069
:101CB0006361E28184F81180C4E90033B8F1000F58
:101CC00042D1FEF70BFB4D4BD5E904C2C31841F1DD
:101CD000000E9C4572EB0E030AD3013E4FF47A735B
:101CE00047F1FF372660C4E9017306B0BDE8F0870D
:101CF0002C3041F10001844572EB0103EDD32889BA
:101D000000210130844572EB01036AD3BCEB000073
:101D100062EB010104F10C0303AA009304ABFEF78C
:101D200041FB039B6A685533288913441844FEF726
:101D300093FBDDE90432C01A20F07F40C4E9003291
:101D4000A06006B0BDE8F0872D4804A9801A04F110
:101D50000C02FEF7FBFA2B4B1B78202B24D02A49D0
:101D60000B69D1E90521073342F1000A13EB0108A1
:101D70004AF1000A6B68227BE08955331044C4E9BC
:101D8000008A1844FEF768FBCDF800903246A06048
:101D90003B4628692146FFF785FE0028A5D1C4E906
:101DA000006706B0BDE8F08716F10B08637B47F1CA
:101DB000000A012BDED0FEF7ABFD0028DAD1FEF7DA
:101DC000A5FB40F2563398420ED040F2F5539842AC
:101DD0000FD0B0F5C67FCDD116F1180847F1000A33
:101DE000C8E74046414695E716F1270847F1000A43
:101DF000C0E716F13D0847F1000ABBE70040420F7B
:101E0000FF7F841EE8060021F00600212DE9F04145
:101E100000EB4003334D064647002B44DFF8C880F3
:101E20001C7AFEF7D9FF4FF0200C4FEA461E05E062
:101E300091F82930A446202B1C464ED008EB4413C1
:101E40000EEB04019A6805EB41011B699B18121AFD
:101E50001B1A22F07F4223F07F43B3F5000FE7D82F
:101E6000B2F5000FE4D8BCF1200F02D12046BDE846
:101E7000F081BB190CEB461271014FF0040E2B449C
:101E800005EB420293F8088092F8292044461A7222
:101E90000B192246204605EB4303944593F829404D
:101EA00083F828E0F4D1BB192B4493F80AE0BEF183
:101EB000200F5FFA8EFC12D08C4405EB4C0C8CF892
:101EC00029800A443E44202305EB4202354482F82F
:101ED0002930A8722046BDE8F0811C46C3E783F88C
:101EE0000980EEE770070021E80200212DE9F041AA
:101EF00001EB4103494D0C4680462B444F001E7AAE
:101F0000202E3DD1464B0BB1AFF30080FEF792FF80
:101F100095F82230202B0AD0424B10F1020CD3E965
:101F200004E241F10003E64572EB03032DD3202EBA
:101F30000AD042463346FFF7F1F900283BD0022091
:101F400085F82260BDE8F081D5E90623B3F1FF3FB3
:101F500008BFB2F1FF3F1BD195F8203023BB04200E
:101F6000FFF704F8FFF77AF80020FFF7A5F8202123
:101F70002B68002285F8221001201A60BDE8F0814C
:101F80000846FFF743FF8642BCD00020BDE8F08141
:101F9000FEF70CFB4FF0FF334FF0FF32C5E906238D
:101FA00095F82030002BDAD00520FEF7DFFF002364
:101FB00085F82030D3E73B1906EB44126101042079
:101FC0002B4405EB420293F808E092F829201A729C
:101FD00073469C46CA18664505EB420292F82930C2
:101FE00082F82800F5D13B192B44987A2028C2B2F8
:101FF00011D00A4405EB420282F829E03C446144D6
:102000002023002005EB4101254481F8293085F883
:102010000AC0BDE8F08183F809E0EFE7700700210E
:1020200000000000F0060021F8B50021194D1A4B00
:1020300042F2200020224FF0FF364FF0FF37288178
:10204000AA72196083F8281085F82110C3E9026785
:10205000A97385F822200C4605F128020B4685F865
:102060002010C5E9066702F814300134202CFAD19B
:1020700001260A48EE7301F087F9094B1870094BE5
:102080001C7001F0E1F92860FEF77CFC85F8236004
:10209000F8BD00BF70070021F006002145180001BF
:1020A00020070021E80600212DE9F04FBE4E85B043
:1020B000FEF7C0FE07468846FEF7D0FFD6E90223AA
:1020C000B3F1FF3F08BFB2F1FF3F05D04FF0FF3241
:1020D0004FF0FF33C6E9022396F82830ABB94FF42E
:1020E0000C71B069FEF7E8F9336972690233B169BE
:1020F00042F100025B1842F100021B1842F100029B
:102100009F4278EB020380F05B81A84C4FF0FF30D8
:102110004FF0FF31FEF7C4FCE37B002B40F06481FD
:10212000A349012291F800B0E273BBF1200F00F047
:10213000568120220A7084F82220A373336094F819
:10214000213003EB430A5FFA83F9A2445B009AF85B
:1021500008500093954209D0964B2A464FEA451CF9
:1021600003EB4510407E012800F0C680009B202D27
:10217000DFF844A24FEA491703EB0908A04408D04E
:102180004846FFF743FE854203D098F80850202DBB
:10219000F6D1BAF1000F01D0AFF30080FEF74AFE8E
:1021A00094F82230202B09D010F1020ED6E9042336
:1021B00041F1000C724573EB0C03E6D3202D1AD0CD
:1021C0002B460122FFF7AAF8002859D007EB0B0392
:1021D00084F8225004EB430393F82820022A34D0D9
:1021E000FF232374009B4B441C44637A202B76D13D
:1021F00005B0BDE8F08FD4E90623B3F1FF3F08BF77
:10220000B2F1FF3F07D0FEF7D1F94FF0FF324FF0A8
:10221000FF33C4E9062394F82030002B58D1042062
:10222000FEF7A4FEFEF71AFF0020FEF745FF236825
:102230000022202184F822101A6007EB0B0304EB24
:10224000430393F82820022ACAD1009A06214A445F
:1022500083F828102244917A2029CBB249D03B44FC
:1022600004EB430383F829B0009B5F444B4404EB29
:102270004707234483F80AB0202387F82930AFE7C3
:102280007B1998F80800042104EB4303024693F8F5
:10229000293088F808301346BA189D4204EB4202F0
:1022A00082F8281092F82920F5D198F80A102029F0
:1022B000CAB21BD03A4404EB420282F8290088F8E3
:1022C0000A303B44202204EB430383F829205CE7D7
:1022D0000520FEF74BFE002384F820309FE7374BA4
:1022E000187805B0BDE8F04F01F06AB888F8090029
:1022F000E5E782F809B0B7E70978202914D03169F9
:102300007069CF1DB16940F10000791840F10000FB
:10231000019003EB4213D3E9020288420198824103
:1023200028BFC3E9021021E79C4417F10B019CF878
:10233000150048F1000C0128CDF804C0E9D0CDE922
:102340000251FEF7E5FA1B4BDDE9022110B19AF8C4
:102350000850DEE740F25635CDE90221FEF7D6F807
:10236000A842029A134B0CD040F2F555A84214D063
:10237000B0F5C67F03990AD0009848442044057AF6
:10238000C7E717F1270148F100000190F4E717F1C2
:10239000180148F100000190EEE717F13D0148F106
:1023A00000000190E8E700BFF0060021700700215F
:1023B000E8060021E80200210000000020070021BB
:1023C0000C4B08210C4A1B78580102EB431312589E
:1023D0005868904740F2B621702000F057FF4FF444
:1023E0003171702000F052FF40F2C121702000F0E6
:1023F0004DFF00BFE8060021E802002170B5134C34
:102400000D460646FEF784F994F8213004F1280CB5
:10241000D9B20CEB831C002302E00133202B12D035
:102420001CF81320D8B2002AF7D103EB4111084A57
:1024300004EB4104590102EB4313565001225D6045
:1024400084F8282070BD184670BD00BF70070021B9
:10245000E802002110B5094C04EB4014D4E9020154
:10246000FDF73CFF227DE38A9B184FF0000203F149
:1024700001035241181842EB010110BDE80200218E
:10248000844A53682DE9F04FC3F3080393B00490D6
:102490000991002B40F03A8208230893099B1B788E
:1024A000012B00F2F182DFF8F0B1BBF1000F04D094
:1024B000002140F24350AFF3008000240125DFF8F3
:1024C000DCA1DFF8DC91BBF1000F04D000214FF458
:1024D000AA60AFF3008025B9724B0BB1AFF3008057
:1024E00062B69AF82130DAB207924FF000038AF808
:1024F0001030089B002B40F0AF810592BBF1000F1C
:1025000004D0002140F26450AFF30080FEF792FC4B
:10251000079B099A054600930CABFFF7B3FBBBF191
:10252000000F04D0002140F26C50AFF30080DDE9D1
:10253000042302EB43114FEA43180AEB410191F8DF
:102540002830013B012B00F2918025F07F450C9B48
:10255000554C581B0E9A044020F07F40003C18BF99
:102560000124B0F5000F88BF0024D218521B22F0BE
:102570007F42B2F5000F8CBF002404F001040D9AD5
:102580000694002C75D10598042200EB400381F8D5
:102590002820420053440B92997A2029CAB200F0B5
:1025A0000A824244049B0AEB420282F82930034625
:1025B0000B9A002404991A4408EB010352440AEBD5
:1025C00043039172202283F8292001230693BBF153
:1025D000000F04D0002140F27150AFF30080334B64
:1025E0000BB1AFF30080EFF31086354672B69AF860
:1025F0001030002B7FF467AF049B0CAF09EB431541
:102600000FCF08350FC597E80300069B85E8030048
:1026100073B1089B4BB1002C40F097819AF82130A0
:10262000DB4303F001038AF82130FF238AF81030DE
:1026300026B91C4B0BB1AFF3008062B6BBF1000FA3
:1026400004D000214FF4B560AFF30080069B002B4F
:1026500040F04681BBF1000F04D0002140F2B4509D
:10266000AFF30080069813B0BDE8F08F0023069307
:10267000ADE7059800EB400151440C7A4100202C55
:102680000B9100F0D3812021944640F2F5561A4672
:10269000039122E000ED00E000000000700700213F
:1026A000E802002100000000FEFFFF000000000023
:1026B0009DF83D10012903D0417D012900F0B5802E
:1026C00008EB04030AEB430393F82930202B00F0B6
:1026D000BD8103941C46DDE90C2C09EB4410650117
:1026E00087680169C368C91943F1000E8A427CEB0F
:1026F0000E03DDD213466246039E40F2F55709EB06
:1027000005000E99D0F808C0C91842F100028C45A6
:10271000C16871EB020273D3427D012A03D09DF898
:102720003D20012A58D0039B9E4200F07881202E44
:1027300000F0AF81039B202B08EB06030AEB430359
:1027400093F8292000F09581039B43440AEB43034F
:1027500093F8295083F829202946052408EB010322
:102760000A4608460AEB4303964293F8291083F879
:102770002840F3D1059C0B9B234453449E7A202E82
:10278000F4B200F0748144440AEB440484F8295004
:102790000B9B4244059C0AEB42022344534498722B
:1027A0002020049B82F8290043440AEB430383F86A
:1027B0002910039B834200F03F811C464444049B44
:1027C0000AEB440484F829300024434403220AEB32
:1027D000430383F82820FAE6ACEB03030A93FDF7E2
:1027E00095FE40F2563398420A9B00F0AA80B84208
:1027F00030D0B0F5C67F14BF01220E22934292DA88
:102800004D449DF840302A7E9A4240F2E08008EB29
:10281000040326460AEB430393F82940202C00F0DA
:10282000FA806501DDE90C3269E7D71BFDF76EFE22
:1028300040F25633984200F08680B0424ED0B0F558
:10284000C67F14BF01220E22BA427FF739AFDDE9FD
:102850000C3251E73322D1E7079B934F5E1C07EB05
:10286000831C06F00106BCE80F0007EB86170596EF
:102870000FC7BCE80F000FC7BCE80F000FC79CE8EC
:102880000F0087E80F00BBF1000F04D0002140F2D9
:10289000DE30AFF30080079B06EB460203EB4301FB
:1028A000824B585A5F18B978985213449970BBF10B
:1028B000000F0CD0002140F2E230AFF30080BBF1FA
:1028C000000F04D0002140F25A50AFF300809AF874
:1028D0001030002B7FF4F7AD07960FE63322B3E7F5
:1028E0009AF8213003EB430353445B7A202B3FF4E7
:1028F000B1AEBBF1000F04D0002140F2AF50AFF3F6
:1029000000806B4B187800F05BFDA3E6103B59B2DA
:10291000002954DB674B5B5C5B090893002B7FF459
:10292000BDAD654B1B78202B00F0B880099B1B7850
:102930000893002B3FF4B7AD40F23C51702000F0FB
:10294000A5FC1D225AE71D227EE75B4B1B78202B3E
:102950007FF464AE07990220FFF7C8FA00287FF4DD
:102960005DAE9AF821300421DDF810C003EB43007E
:102970000CEB43125044DFB20AEB4202857A82F834
:1029800028105A01202D4FEA4303E9B278D01144B0
:102990000AEB410181F829C061463B440A44069490
:1029A00053440AEB42029972202382F82930002E08
:1029B0007FF444AE3DE6049A5A720346F8E503F00C
:1029C0000F03043B13441B7E5B090893A6E7059A9B
:1029D00004200B9B1344049A53444244997A0AEB13
:1029E0004202202982F82800CAB23CD0049B42440B
:1029F00019460AEB420282F82930059B00240B9A03
:102A00001A4408EB010352440AEB4303917220225B
:102A100083F82920DBE5039B9E427FF48BAE202BBD
:102A200013D10B9B059A134453441C7A049B4344D3
:102A30000AEB430383F82940059A0B9B069C134439
:102A4000049A53441A721346BFE61C46049B08EBD3
:102A5000040243440AEB42020AEB430392F82920A2
:102A600083F82920AAE6049A11465A72C5E75D72D6
:102A70008EE60B9B05990B4453441D7A1A726BE644
:102A8000614680F809C088E74FF4A861702000F023
:102A9000FDFB4FF4E871702000F0F8FB40F2395173
:102AA000702000F0F3FB00BF980700217807002199
:102AB0002007002100E400E0E806002170B50628A8
:102AC00009D8DFE800F0184E040808690900A84B8F
:102AD00001221B681A6070BDA64D2B78202B00F0D8
:102AE0008380A54C5A01052104EB4313A258586872
:102AF000BDE8704010479E4CD4E90623B3F1FF3F78
:102B000008BFB2F1FF3F00F0C2809C4E0120FEF7EB
:102B1000D3FA737F012B04D0FDF7FAFE002800F0F2
:102B20002281944D2B78202B00F08D80FF23A373FE
:102B3000D6E90223B3F1FF3F08BFB2F1FF3F05D052
:102B40000520FEF79DF9002800F008812B7801216F
:102B5000894A580102EB431312585868BDE8704087
:102B60001047844D2B78202B00F09880834E737F84
:102B7000012B04D0FDF7CCFE002800F0E5807C4C52
:102B8000D4E90623B3F1FF3F08BFB2F1FF3F53D0B2
:102B90002B780021784ADCE7754C94F820307BB123
:102BA000D4E90623B3F1FF3F08BFB2F1FF3F00F0C5
:102BB0009B800120FEF780FA002384F8203070BD4E
:102BC0006C4D2A78202A00F096806C4E4FF0FF3230
:102BD0004FF0FF33C6E90223A37B002B00F0AF8048
:102BE0002B780621644AB4E7614991F8213003EB60
:102BF0004300DAB20844037A202B00F0AA8003EBEA
:102C0000421201EB420292F829400472FF2008743C
:102C10000220594C2B7082F828000022CA735749B1
:102C200081F8282004EB4312127E002A7FF45AAF69
:102C300000F064FE2B7855E7FDF76EFCFEF7FAF81E
:102C4000C4E90601A4E794F82130DAB203EB4303A8
:102C50002344197A20297CD001EB421204EB420272
:102C600092F829001872FF232374434B297003EB59
:102C700041110023097EE37386F82830022382F88D
:102C8000283000297FF452AF00F038FE4EE7FDF700
:102C900043FCFEF7CFF8C4E9060136E7344A92F860
:102CA000213003EB4300DBB21044017A202950D0DD
:102CB00001EB431302EB430393F829400472FF2016
:102CC0001074022029702D4E83F8280000202A4B12
:102CD000D07303EB411186F828000B7E002B7FF4A4
:102CE00046AF00F00BFE42E7FDF716FCFEF7A2F838
:102CF000C4E906015DE794F82120D1B202EB42025B
:102D00002244107A202824D000EB411104EB410129
:102D100091F829601672FF222274174A287002EB7C
:102D20004010164EE373027E022086F8283081F8A8
:102D30002800002A7FF44AAF00F0E0FD46E740F2A9
:102D40004361702000F0A2FA40F25161702000F05F
:102D50009DFA40F24721702000F098FA40F22F616E
:102D6000702000F093FA40F22961702000F08EFA92
:102D700070070021E8060021E8020021F00600218A
:102D8000274B70B51A7886B0202A44D0254CD4E958
:102D90000213B3F1FF3F08BFB1F1FF3F36D1224D1F
:102DA000064605EB4215D5E90201FDF797FAEA8AD6
:102DB0002B7DD3184FF0000203F1010352419B1900
:102DC00042F10002181804AB42EB01010DF10B02B5
:102DD000009203AAFDF7E6FA9DF80B200F2ADDE921
:102DE000043194BF002201229B1841F10001C4E983
:102DF00002310E4B9B7B13B9012006B070BDD4E9A4
:102E000002230520FEF73CF806B070BD40F62F0106
:102E1000702000F03BFA40F62E01702000F036FAE8
:102E2000E8060021F0060021E802002170070021D9
:102E300038B5234B93F800E0BEF1200F3AD0214D76
:102E400095F8213095F821C003EB43035FFA8CFC21
:102E50002B441B7A202B1FD04FEA4C1C1A4C06E047
:102E6000634405EB430393F82930202B14D004EB83
:102E70004312117E8142F3D804EB4E14D4E90213BD
:102E800020694018D2E9021243F10003814272EB3B
:102E9000030304D2002038BD4FF0FF3038BD0B4B88
:102EA000081A1C68FDF70CFA04F140038342F1D8BC
:102EB000001B38BD40F66801702000F0E7F900BF44
:102EC000E806002170070021E8020021F006002139
:102ED0008D4B2DE9F04F1E7887B0202E019000F029
:102EE0000D818A4F81468A4D0DF1130297F82130EA
:102EF0008846286805A903EB430348443B441C7AF1
:102F00002B690393AB690293FDF720FAA9F1400204
:102F1000804B9A4260D8DFF80092059B09EB461679
:102F2000B0681B183069D5E904211B189B1A23F0DF
:102F30007F40B0F5000F4FD897F821A0202CAB614F
:102F40005FFA8AFA85F8208000F0CB804FF0200BE2
:102F500009EB441C9B184FEA4416DCF8080041F1C9
:102F600000019842DCF80C308B414ED39CF81530B0
:102F7000012B02D06B7F012B32D00520FDF7F6FF2D
:102F800097F821104FF0FF324FF0FF33BBF1200FC5
:102F9000C9B2C5E9022340F0A28001EB410120241F
:102FA00039440B7A584A97F82110127802EB4112F3
:102FB00007EB420282F829302B68019A13442B60F8
:102FC000FF233B74202C40D0544B187800F0F8F9C4
:102FD000002007B0BDE8F08F012007B0BDE8F08FFA
:102FE000A0EB0208FDF792FA40F25633984220D047
:102FF00040F2F55398421AD0B0F5C67F14BF0123B2
:103000000E234345B9DD95F820804E44337E434579
:1030100011D904EB4A1307EB430393F82930202B13
:1030200017D0A3461C46AB69D5E9042190E73323AA
:10303000E7E71D23E5E7DDE9023202209B182A6954
:103040009B1AAB6107B0BDE8F08F002007B0BDE868
:10305000F08F0520FDF78AFF97F821104FF0FF321F
:103060004FF0FF33C9B2C5E9022301EB41034FF032
:10307000050804EB41123B444FEA410C07EB4202C6
:1030800093F808A0480192F829201A72534600EBE1
:10309000030E1A461E4607EB4E0E94429EF8293048
:1030A0008EF82880F3D10CEB010EBE449EF80A90F6
:1030B000B9F1200F5FFA89F80ED0804407EB480879
:1030C00088F829A061440244394407EB42028E7219
:1030D000202182F8291065E78EF809A0F2E75C4606
:1030E000C3E70520FDF742FF4FF0FF324FF0FF33FB
:1030F00097F82110C5E90223C9B24EE74FF40961E0
:10310000702000F0C3F800BFE8060021700700211E
:10311000F0060021C03F420FE802002120070021F5
:10312000BFF34F8F0549064BCA6802F4E0621343B0
:10313000CB60BFF34F8F00BFFDE700BF00ED00E0A5
:103140000400FA05094B01225A604FF0FF32C3F820
:1031500008234FF40052064BC3F88020BFF34F8F73
:10316000BFF36F8FC3F88021704700BF00D00041CC
:1031700000E100E0094B01225A604FF0FF32C3F832
:1031800008234FF48032064BC3F88020BFF34F8FE3
:10319000BFF36F8FC3F88021704700BF000001416B
:1031A00000E100E010B5134900230122124CC1F8E0
:1031B000FC3FC1F8FC2FDA00013302F1FF7202F587
:1031C0008032D2F800032040884202BFD2F80003C8
:1031D000D2F804230260202BEDD1084B4FF480720B
:1031E000C3F88020BFF34F8FBFF36F8FC3F88021E8
:1031F00010BD00BF0080004100F0FFFF00E100E0D3
:10320000F8B51B4E05460C46174633786BBB00F0ED
:1032100031FD184B7760002D08BF1D463472FFF753
:10322000C1FF2846FFF7A6FFFFF78CFFFDF77CFAEA
:103230000546C0B9FEF7F8FEFDF76AFAFDF7E0F9BA
:1032400000F019FD002C0CDB04F01F0264090123BF
:10325000A400934004F1604404F56144C4F8803153
:103260002360012333702846F8BD4FF0FF35FAE79D
:10327000180800211E4A010108B572B6024B5B68AE
:1032800003B19847FFF74CFF180800211FB572B62D
:10329000134B5D688DB9FFF743FFB4FBF6F4D3B26F
:1032A0000132002CF9D103F110026A4402F80C4CEF
:1032B0000A2233B901A8A847EDE7044600220A26EE
:1032C000EDE7013BDBB203F110040DEB0406B0FBAC
:1032D000F2F402FB1400303006F80C0C2046E8E74C
:1032E00018080021074B93F90830002B09DB5A0915
:1032F000012103F01F03403201FA03F3024941F8B0
:10330000223070471808002100E100E01B4B4FF409
:10331000803270B5C3F88020BFF34F8FBFF36F8F3B
:10332000174D0021174CC5F80011C3F880212669FC
:10333000236906F0100643F0100323610123C5F84A
:1033400004332B60D5F80031A3B11EB9236923F0F3
:10335000100323610A4B0122D3F808055A60C3F811
:1033600008230022C3F800214FF48032034BC3F836
:10337000802170BD00F092FCE4E700BF00E100E0B6
:103380000000014100ED00E002460C49052038B57F
:103390000138C0B2FF2803D148216920FFF776FF2A
:1033A00001EBC0031D7905F0FF04002DF0D141F8B9
:1033B000302001225C719C711A7138BD28080021EF
:1033C000042808B503D958216920FFF75FFF094B8E
:1033D00003EBC0000379012B01D05921F4E74379B5
:1033E00082790133DBB29A4218BF4371BDE80840CD
:1033F000FFF778BF2808002170B50625114C00267C
:10340000013D15F0FF0500D170BD94F8281004EBC4
:10341000C1031A79012A09D158799A79904205D0C5
:103420005A79D2B29A7154F83130984794F82830CA
:103430000133DBB2042B94BF84F8283084F8286071
:10344000DEE700BF28080021004870470007084158
:10345000014B1B681B68184744000021014B1B6887
:103460005B68184744000021014B1B689B681847A4
:1034700044000021014B1B681B69184744000021D0
:1034800038B51F4C0420FFF7D3FC04212568854282
:1034900028BF05462846FFF71BFD20B1012820D094
:1034A00040F2451108E02368E068AB420DD1FFF718
:1034B00067FC20B940F225116B20FFF7E7FEE268B8
:1034C000236822611344E36038BD05446089012309
:1034D000281AE5602375FFF753FC60B940F22F11FD
:1034E000EAE763892075E068C01AFFF749FC10B964
:1034F0004FF49E71E0E76289E3689B1A2361E3E77A
:103500005808002108B50C4B1A7802F0FF0312B1DD
:103510005A1E1A4203D0E0216B20FFF7B7FE19B103
:10352000034207D1E521F7E723EA00039B0601D117
:10353000E921F1E708BD00BF4800002108B50122DC
:103540000C4B02211A764FF0827293F830001A6207
:103550001A68DA615A689A62074A117003F1180111
:10356000FEF78EFF20B94FF483716B20FFF78EFEBC
:1035700008BD00BF580800214800002170B5EFF3D6
:10358000108572B6264C002394F8316084F83130EF
:10359000012E06D0022E1DD0002E3BD185F31088BF
:1035A00070BD85F3108894F8323003F0FF0123B129
:1035B0004FF4A9716B20FFF769FE1420FFF7A2FFFB
:1035C000184B84F832601B78012BE9D1BDE87040BC
:1035D000FFF7B4BF94F8322012B940F26311E9E763
:1035E000104984F832300B78023BDBB21E2B0ED828
:1035F000012202FA03F30C4A1342CFD144F204022F
:10360000134204D020230B70FEF74EFDC6E740F2B4
:103610007F11CFE785F3108840F2A511CAE700BFFC
:1036200058080021480000214100004070B5144CAA
:1036300094F8335025B14FF422716B20FFF726FE2A
:10364000104B01264FF4C85284F832501E700E4BB6
:103650000E48C4E900230E4BA360FFF795FE2946F0
:1036600084F834000B48FEF7C9FE202884F83000A7
:1036700002D140F29721E0E784F8336070BD00BFCB
:103680005808002148000021FF3F420F7D3500010E
:103690000500B7000538000108B5104B93F833203A
:1036A00022B940F2F7216B20FFF7F0FDEFF3108114
:1036B00072B693F8312022B1012A0DD040F20731C1
:1036C000F1E7022283F8312001B962B693F83400A1
:1036D000BDE80840FFF774BE0022F3E75808002158
:1036E0000B4B93F8333010B523B940F216316B20F1
:1036F000FFF7CCFDEFF3108472B6064B1A78102A50
:1037000003D108221A70FEF7CFFC04B962B610BDCF
:103710005808002148000021164B70B51B78042B77
:1037200026D1154D2B7D1BB96B892868C01A70BD39
:10373000FCF7ACFE10F11E0495F8300041F10006D4
:10374000FEF788FE2B6900221B1841F100019C4204
:1037500076EB01000CD2181B4FF0FF3361EB060132
:10376000834272EB0103E2D2A7216B20FFF78EFDAB
:103770000020DCE7480000215808002138B5144C2F
:1037800094F8333023B94FF433716B20FFF77EFD8B
:10379000EFF3108572B694F8313023B1022B0DD0BF
:1037A00040F2DF21F1E7012384F8313005B962B638
:1037B00094F83400BDE83840FFF702BE054B002204
:1037C0001B7884F83120042BF0D10BF06FFDEDE76E
:1037D000580800214800002108B5094B1978102924
:1037E000CAB207D0202A05D0042A04D110221A70A8
:1037F0000BF06CFD08BD4FF4E2716B20FFF746FD46
:103800004800002170B50C46FDF7E6FA611E062956
:103810004AD8DFE801F004545428236760000121EE
:103820000220FFF76FFE324B324A93F8321079B123
:10383000042111701A68DA6000221A7593F8313089
:10384000022B01D00BF032FDBDE87040FFF718BE2F
:1038500020231370BDE87040FEF726BC4FF40471BE
:103860006B20FFF713FD224C94F83230E3B1214B6B
:103870001B78042B19D1FCF709FE064694F830009A
:103880000D46FEF7E7FD237D012B0BD122691218AF
:1038900041F10003964275EB030303D3BDE870408A
:1038A000FFF79ABF05F0B6FC70BD134B4FF4807262
:1038B000C3F88020BFF34F8FBFF36F8FF4E7012170
:1038C0000220FFF71FFE0A4B93F8323033B1BDE8F8
:1038D0007040FFF733BE01212820F2E7054B01229B
:1038E0001A70E1E7024B1B7D012BADD1D6E700BF7B
:1038F000580800214800002100E100E0014B0122AE
:103900009A777047900800212DE9F04786468C464B
:103910000846089E154674461946002B40F0C180A3
:103920008542B2FA82F245D94AB1C2F1200300FAC7
:1039300002FC954094402EFA03F343EA0C0C4FEA44
:10394000154EA8B2230CBCFBFEF80EFB18CC08FBEE
:1039500000F943EA0C43994528D9EB1808F1FF37E1
:1039600004D2994502D9A8F102072B44A3EB09031D
:10397000A4B2B3FBFEFC0EFB1C330CFB00F044EACC
:103980000344A04214D92C190CF1FF3304D2A042F5
:1039900002D9ACF102032C44241A43EA07401EB1B9
:1039A000D440002334607360BDE8F0874746DDE70C
:1039B0006346F1E792BB431B01214FEA154EAFB2BC
:1039C000200CB3FBFEFC0EFB1C330CFB07F840EA9B
:1039D0000343984561D9EB180CF1FF3004D29845A8
:1039E00002D9ACF102002B44A3EB0803A4B2B3FB51
:1039F000FEFC0EFB1C330CFB07F744EA0344A74212
:103A00004DD92C190CF1FF3304D2A74202D9ACF1E5
:103A100002032C44E41B43EA0040C0E7C2F1200348
:103A20009540944020FA03F12EFA03F34FEA154E25
:103A30009040AFB20343B1FBFEFC0EFB1C10190C0F
:103A40000CFB07F841EA0041884522D969180CF1BE
:103A5000FF3004D2884502D9ACF102002944A1EB21
:103A600008019BB2B1FBFEFC0EFB1C110CFB07F71F
:103A700043EA01439F420ED9EB180CF1FF3104D207
:103A80009F4202D9ACF102012B44DB1B41EA004109
:103A900093E76046E3E76146F7E76046A4E76346DD
:103AA000B8E7834206D916B9002108467CE7C6E983
:103AB00000E0F9E7B3FA83F78FB9834201D3724587
:103AC00008D8BEEB020460EB030301209C461EB93C
:103AD000002169E73846FAE7C6E9004CF8E7C7F184
:103AE000200CBB400EFA07F522FA0CF42EFA0CF16A
:103AF000BA401C4320FA0CF3B8404FEA1449014382
:103B00001FFA84FEB3FBF9F809FB18300B0C08FB15
:103B10000EFA43EA00439A4540D9E31808F1FF3012
:103B200004D29A4502D9A8F102002344A3EB0A0368
:103B300089B2B3FBF9F809FB183308FB0EFE41EA22
:103B400003418E452CD9611808F1FF3304D28E450C
:103B500002D9A8F10203214443EA0040A1EB0E017F
:103B6000A0FB02984145CE46434602D306D14D45BF
:103B700004D20138B9EB020E68EB0403002EA7D083
:103B8000B5EB0E0261EB030101FA0CFC22FA07F31C
:103B9000F9404CEA0303C6E9003199E74046C5E71E
:103BA0004346D9E700F066B8801A00F3070038B53D
:103BB0000D46144659B240B2FCF762FB0023287050
:103BC00020446B7040B238BD73B5A0F10B040E46B3
:103BD0001546E1B20F2903D94F216420FFF756FBA8
:103BE0000DF1030332460420FCF716FB034608B12F
:103BF0005821F2E704EB840401A99DF9030004F6BF
:103C00006514A2B2FCF7FEFA9DF804302B709DF803
:103C100005306B7002B070BD002303607047002058
:103C200070474FF0FF3070474FF0FF3070477047DC
:103C30007047002070474FF0FF30704700207047FA
:103C4000002070470023037070470022FFF7ACBFCD
:103C5000002070474FF0FF3070474FF0FF30704743
:103C60004FF0FF3070470346C0B2002BC4BF03388B
:103C7000C0B27047704770B50024FCF70FFB0546D3
:103C80002646E0B2854200D870BDFCF70DFB01343A
:103C9000868480F82660F4E7FFF7AEBB704720BF4C
:103CA000704700280CBF6FF01500002070470020FF
:103CB00070470723037000207047002070470020E2
:103CC000704710B50446FFF727FDA04294BF0020BF
:103CD000012010BD10F8012B11F8013B012A28BF6B
:103CE0009A42F7D0D01A7047034613F8012B002AE6
:103CF000FBD1181A01387047014B1B68184700BFE9
:103D00004C00002130B585B004460D46102200213C
:103D1000684610F099FD02238DF80230044B2A46C4
:103D20002146684601930BF0DDFE05B030BD00BFB3
:103D3000F93C000180B505460E46174698460AF044
:103D40003BFE034610F088FD0446DFF8189042461B
:103D500049F8003039463046A84754F8090000F0C9
:103D6000F9FD00BF080000002DE9F047058B04466F
:103D70002807904611D4022905F0070540F0CC80B1
:103D800020460DF0FBFA78B10138218B042811D8B8
:103D9000DFE800F0C2106D85950001290CBF45F0E9
:103DA000100545F02005258388F31188BFF36F8F38
:103DB000BDE8F08701F0070AAA4500F0A5800027BA
:103DC000B9463E46A368002B00F0BC8041F00801D4
:103DD000218388F31188BFF36F8FA168002900F059
:103DE000BA800D68002900F0B6803346524620465E
:103DF000D1F80480C047002D76D02B6829461D4697
:103E0000F0E701F007035A1F012A1BD8002221F016
:103E10000701062B276889B2C4E9002209D13B4675
:103E200003E0628B013262831B68002BF9D141F001
:103E30000201204621830DF0A1FA00287AD041F03A
:103E4000200176E0042B0AD121F0070189B2204637
:103E500021830DF093FA10B141F020012183218BD1
:103E600001F0070AAA454FD00027B946AAE72369FF
:103E700021F0070141F00601062DD3F800902183BF
:103E80002DD1B9F1000F3FD041F00801218388F313
:103E90001188BFF36F8F20463949C84729E021F0C8
:103EA0000701236941F0040189B2042DD3F804907D
:103EB0002183E6D000274FF0040A3E4682E721F036
:103EC0000701236941F0050189B2052DD3F8089057
:103ED0002183D6D000274FF0050A3E4672E700271F
:103EE0004FF0060A3E466DE72B4687E7B9F1000F13
:103EF000D1D1EFF31188402383F31288BFF36F8F82
:103F0000238B23F008032383258BEA062ED525F087
:103F10001003238305F007056669218B002EBFF689
:103F200070AF00232768C4E9003321F0070141F096
:103F300001012183218B4FF0000901F0070AAA45F6
:103F40007FF440AF002F9CD041F00801218388F31B
:103F50001188BFF36F8F002FC8D03D6839463346B4
:103F6000524620460DF036FA2F46F4E7AB067FF5B1
:103F70001BAF25F02003238305F0070500E700BFF2
:103F80000114010130B50C460E4985B00291D0F8FC
:103F9000A4110546CDE9003100F1E0014FF0FF33F7
:103FA000204609F08BFB50B9012384F86430D5F822
:103FB000A03123B1204605B0BDE83040184705B018
:103FC00030BD00BF1117010138B50C46114605463A
:103FD0000DF0A0FB034638B9284604490DF09AFBC2
:103FE00003460020236038BD0120FBE7ED540101AA
:103FF0002DE9F04F012381460569466887B005F534
:104000005777D7E8EF2F002A03D1C7E8E13F00290F
:10401000F7D10CBF1A46002240F0B480B368B16AF1
:1040200005F5E0781C1F10460DF0F8FB844272D8AD
:10403000013A00F0A180B2FA82F24FF00044D4407D
:1040400072682046073222F00302C5F85822B16A8E
:104050000DF0E4FBC5F85C02B36A404663430333EA
:1040600023F0030302EB4302230103EB4403093370
:1040700023F0030303EBC403C5F850221A440832AB
:10408000C5F84C227368C5F85442C5F848323F4B16
:10409000C5E9A763D9F80030C5F8F431316800F0FC
:1040A000DFF90446002834D1D9F810B0D9F804A0BB
:1040B000D9F800300BF52E79059004934846DAE9DB
:1040C0000734012B08BF103C0FF07CFEDAF8240007
:1040D0002F4904AB01EB80214FF4806248460093E6
:1040E00023460AF07FF82B490BF52A700FF023FEC8
:1040F000DAE9050183685C684CB15B46264AA04753
:10410000044630B9DAE9050183681B692BB96FF001
:104110005704002129E0013285E70122984704462F
:104120000028F6D11D4B2846C5F8A0311C4BC5F818
:10413000A4311C4B0393D5F808320293D5F8003212
:10414000CDE90083D5F86032B26AD5F8581300F093
:104150004FF904460028DCD105F1E00009F05EFBD0
:104160000028C5F860030ADB022138460DF006FB83
:10417000204607B0BDE8F08F6FF00B04C9E76FF081
:104180001504C6E76FF07704F2E700BF6717010177
:10419000A04D00214D17010141170101A941000166
:1041A000F3180101AD17010113B5044640B1002316
:1041B0000122CDE90032074BD0E9091209F032FAA9
:1041C000A36E1B6823B1E06E02B0BDE81040184733
:1041D00002B010BDED54010113B504460846216933
:1041E00001F55771D1E8AF1F022910D193B1A0B1E9
:1041F0000121CDE900311346D0E9091209F012FA84
:10420000074B984208BF6FF00B0002B010BD6FF073
:104210000F00FAE76FF04C00F7E76FF00100F4E7EA
:104220002EF8FFFF2DE9F74388461546066906F587
:104230005773D3E8AF3F022B5FD1136823B96FF0F8
:10424000150003B0BDE8F0831B78002BF7D0D6F83B
:104250005893B9F1000F33D106F5D4774FF0FF3200
:104260004FF0FF33384609F07DFD30462A6801A93A
:10427000FFF7AAFE019C1CB938460DF07DFADEE777
:1042800005F10803A3666B6984F86490E366E46350
:1042900060B138460DF070FA21463046236E2A6828
:1042A000FFF770FE0020C8F80040CAE72022296806
:1042B00004F1400010F05AF938460DF05DFAF1E7CC
:1042C00030460F490DF026FA04460028B7D005F114
:1042D000080383666B69C063C366002380F864309B
:1042E00020222968403010F041F922460121304651
:1042F00000F060F80028D5D0A1E76FF00F00A0E72C
:10430000ED54010110B50C46006900F55773D3E870
:10431000AF3F022B0FD189B10A4900F52A700FF087
:1043200036FD20460FF040FA70220021204610F0A2
:104330008BFA002010BD6FF00F00FBE76FF001005B
:10434000F8E700BFB81700212DE9F04F05460E46EB
:1043500090460027D0F8A8A085B0AAF5AA742146F7
:104360003046FFF7B7FCE0B9114BA4F1400B0293C4
:10437000DAF810303246CDE9008329464FF0FF339A
:104380005846AAF5CA7909F099F960B97023012253
:1043900003FB079383F86420DAF80C300BB158461E
:1043A0009847703417B105B0BDE8F08F0127D6E704
:1043B000211901011FB5144690B18AB1012912D10A
:1043C0000A4B00F1E0010293D0F8A431403201938E
:1043D0004FF0FF332046009309F070F904B010BD90
:1043E0006FF01500FAE70020F8E700BF211901017E
:1043F0002DE9F04387B00E46DDE90E811446DDE974
:1044000010251F4630B329B3DFF850C000F1E00992
:10441000002D08BF65469EB9CDE9034400F5CA7476
:10442000204605960FF0E5FB03ABCDE900432A4695
:104430003B464146484609F017FA07B0BDE8F0830D
:10444000002241460E9248462A4607B0BDE8F04396
:1044500009F034BB6FF01500EFE700BF49430001DE
:10446000F0B50E46044689B0002872D0436B0BB9F4
:10447000394B436301232246E3630023D4F89810A9
:1044800004F1400042F8301FCDE901334FF0FF3313
:104490000093D4F89C300EF06EFE304A06AB92E8E2
:1044A000030083E80300184608F0C2FF0546D8B9A8
:1044B00004F1340008F09EFF0546A8B9616B284856
:1044C00005AA0EF034FE054670B9059B9A6872B1D4
:1044D0000C33D4F89400C4F8A0300DF052FAC4F8AC
:1044E000D40030B96FF00B05284609B0F0BD034683
:1044F000EFE7D4F894000DF044FAC4F8D80000288F
:10450000F0D0D4F88C30D4F8A010C4F8A83004232C
:10451000C4F8AC30C4F8C4300223A362114BB4F821
:104520009420D4F8D470C4F8B810C4F8D010D4F8DB
:104530009010236204F1A403A4F8B020C4F8A4707E
:10454000C4F8C010A4F8C820C4F8BC00A661E36297
:10455000CAE76FF01505C7E7D94F0101C04901014E
:10456000E34F0101144D0101014B0360002070472E
:10457000404D010108B504480CF0D8FEBDE80840E4
:1045800002480CF0D3BE00BFEB4F010124500101E3
:1045900038B50C4615460DF032FA034B43F830504F
:1045A00003EBC0035C6038BD7401002130BFFFF72E
:1045B000FDBF00BF2DE9F04105460B4EDFF82C8012
:1045C000324606EB0807CC1B2046094910F015F9C6
:1045D000A01942460021083C10F036F92C6707F17B
:1045E0000800BDE8F08100BF0000000008000000E6
:1045F000C0490101074A936893F90E10002907DBAF
:10460000526993421FBF044A536843F0805353607A
:10461000704700BF9C43002100ED00E0154B9A6AF3
:1046200012F0007F9A6A14BF1E201D2012F0807FB6
:104630009A6A18BF1F2012F4801F9A6A18BF0220BE
:1046400012F4002F9A6A18BF212012F4802F9A6A60
:1046500018BF222012F4003F9A6A18BF232012F4D8
:10466000803F9A6A18BF24206FEA02426FEA124222
:104670009A62704700ED00E010B5164B9A6A9C6A8A
:1046800012F4805F14BF1722162214F4006F9C6A84
:1046900018BF1822A40509D59A6B9A6A120404D58A
:1046A00018B19A6A22F400429A621922094B986A58
:1046B00010F4806F986A18BF1A2210F4807F986AED
:1046C00040F47F4098624FF000030CBF10461B205F
:1046D0000B7010BD00ED00E010B5154B0246986A56
:1046E0009C6A10F0100F14BF1120102014F0080F56
:1046F0009C6A18BF1220A40709D5586B986A000657
:1047000004D51AB19A6A22F080029A621320084BEB
:104710009A6A12F0010F9A6A18BF1420D20658BF85
:104720009A6A9A6A42F0FF029A6200230B7010BDE7
:1047300000ED00E0F0B5474B04465B6800258BB008
:10474000C3F3080385F31188BFF36F8F02F07F4036
:10475000B0F17F4F11D102F00C0008280DD01007E6
:104760004CBF0C4601250022033B8DF80720032B8C
:1047700005D8DFE803F02462665F2C46F3E70023E8
:104780009DF80720CAB902AE04F12007324620681E
:104790006168083403C2BC421646F7D1099A002D5D
:1047A00053D0C2F3080121B96FEA52226FEA4222C4
:1047B0000992184602A90DF023F90BB0F0BD254B64
:1047C000DA6A9107DBD4DA6A002AD8DBDA6A5200A7
:1047D000D5D55A69A16942F480725A61BFF34F8FEF
:1047E000BFF36F8F5A6931F8021C22F480725A614C
:1047F000BFF34F8FBFF36F8F4DF60272914209D016
:104800009A6AD2B242B101200DF10701FFF764FFAD
:104810000346B5E72368B3E79A6A12F47F4F05D0E1
:1048200001200DF10701FFF727FFF1E79B6AB3F5C0
:10483000803FA4D3FFF7F2FEEAE700200DF1070165
:10484000E4E700200DF10701EDE722F4FF7222F00A
:104850000102ADE700ED00E0044B5A6942F010029E
:104860005A615A6942F480625A61704700ED00E073
:10487000EFF30880EFF3098101B57246FFF75AFFA5
:1048800001BD00BF002080F31488BFF36F8F0020AC
:1048900080F30A8880F30B8808F01AF800200E498C
:1048A0000860BFF34F8F0D4880F3088800F02CF8A4
:1048B000402080F311880A484FF40061401880F3CB
:1048C0000988EFF314800221084380F31488BFF3B2
:1048D0006F8F00F007F9000094ED00E0A066002162
:1048E000A0590021002318460649D1F89020C2F3B0
:1048F0000722934200DB7047C1F89830C1F8A0004E
:104900000133F6E700ED00E010B572B6002484F341
:104910001388FFF7E7FF23464FF0FF300C4A03F1FF
:1049200020010133102B42F82100F8D100234FF071
:10493000FF30074A03F160010133102B42F82100D8
:10494000F8D162B6BFF34F8FBFF36F8F10BD00BFBA
:1049500000E100E0084B9B6883420BD1EFF3058335
:1049600043B1064B5A6842F080525A605A6A22F4A8
:1049700000425A620FF00DBB9C43002100ED00E0A5
:104980006FF00A01084A93689967084958674B68AD
:1049900043F080534B60002383F31188BFF36F8F84
:1049A0009368986F704700BF9C43002100ED00E0C2
:1049B000EFF31183402383F31288BFF36F8F4FF01F
:1049C0000061084A53699360074A5160196F074AAA
:1049D000116000215A6F596782F31188BFF36F8FFE
:1049E000704700BF9C43002100ED00E0D817002174
:1049F0000E498A684FF030001044EFF3098C80E8CC
:104A0000F01F74467046FFF7D3FFA64607498A6831
:104A100002F1300090E8F01F8CF3098802F10000E9
:104A200004B50DF010F8BDE8044070479C43002128
:104A30001EF0040F0CBFEFF30880EFF309808169CB
:104A400011F8021C0229FFD001B50CF0DFFF01BDF7
:104A500040B2002807DB01234109034A00F01F0090
:104A6000834042F82130704700E100E040B2002866
:104A70000CDB01220649430900F01F00824020336D
:104A800041F82320BFF34F8FBFF36F8F704700BFF4
:104A900000E100E0054B420953F82220012300F019
:104AA0001F0003FA00F01040704700BF00E100E073
:104AB000D30748BF002140B258BF02310028ACBF25
:104AC00000F16040064A4FEA4113DBB2ABBF00F58C
:104AD000614000F00F0080F800331354704700BFAE
:104AE00014ED00E008B5084B084A23F07F039360FB
:104AF000BFF34F8FBFF36F8F09F084F809F0FAFF0F
:104B000000F04AF809F0BEF80000000100ED00E0F6
:104B100042F8203C009B0B4942F81C3C019B21F0D1
:104B2000010142F8183C029B42F8081C42F8143C70
:104B30004FF0807342F8043C0023203A026543673B
:104B4000704700BF353D00010C4B15469860026F61
:104B50000B4B0E461A60036E83F30B882C4686F3CC
:104B600009884FF00000074B984720464FF000019E
:104B70004FF000024FF00003034C20479C430021FC
:104B8000D81700214F1A0101353D00011022014BB9
:104B90001A61704700ED00E0002340210348C2186D
:104BA00001331E2B82F80013F9D1704700E100E0B9
:104BB00008B5EFF30583064A103B02EBC30152F838
:104BC000330049688847BDE80840FFF713BD00BFC0
:104BD000740100211FB5094C094A234601210948E7
:104BE00000F0FAF800230393074B0121E41A01A80F
:104BF0000193029400F0FAF804B010BD0000012106
:104C000000000021404D0101C002002110B50C7AC6
:104C10000B6804F01F0223F01F031A43CB686409DA
:104C200023F01F03054943EA440343F00103C1F89D
:104C30009800C1F89C20C1F8A03010BD00ED00E044
:104C400010B5074BD3F89030C3F30723013B9842CC
:104C500002D8FFF7DBFF10BD6FF01500FBE700BFC8
:104C600000ED00E02DE9F04F0F46144606464FF0E8
:104C700000084D4D85B0B84580F29280D6F804907A
:104C8000B9F1000F36D0B9F11F0F40F2878019F04B
:104C90001F0F40F08380D6F800A01AF01F0F7DD1BF
:104CA00050460CF014FF834609EB0A0001380CF063
:104CB0000EFF834572D11BF1160F6FD05C456DDD81
:104CC000C5F898B0D5F89C10C5F898B0D5F8A030C4
:104CD00021F01F0143F01F0AD6E900321A4499421D
:104CE00002F1FF391ED1CA4508D131465FFA8BF077
:104CF0000CF0F6FE08F101080C36BCE73146C5F8A9
:104D000098B0D5F89C3022F01F0203F01F03134324
:104D1000C5F89C30E0B20CF0E3FE10F1160F3DD068
:104D2000441CE7E7C5F898B0D5F8A020013B23F074
:104D30001F0302F01F021343CA453146E0B2C5F813
:104D4000A030E8D00CF0CCFE10F1160F26D0C5F83C
:104D500098B0D5F89C209DF808300AF1FF3A62F32C
:104D600004038DF80830D5F8A0309DF808205B08C2
:104D700063F347128DF80820D6E9003213440093FC
:104D800023F01F035344A3EB0903013023F01F0357
:104D90006946C0B20393FFF753FFBEE76FF01504F7
:104DA000204605B0BDE8F08F00ED00E00522044B81
:104DB000C3F89420BFF34F8FBFF36F8F704700BFCE
:104DC00000ED00E0BFF35F8F0022024BC3F8942098
:104DD000704700BF00ED00E010B5034C2278FFF7EC
:104DE00041FF207010BD00BF0C4400212DE9F74F9A
:104DF000294D8A4606464FF00008AB46274FD0455E
:104E00001BDAD6F80490B9F1000F3FD0316808469C
:104E100001910CF05CFE0199044609EB0100013898
:104E20000CF055FE84424FF014021D4B08D002FBDB
:104E300008F36FF015024BF8032003B0BDE8F08FC4
:104E400014F1160F2C60F8D01978A142F5DD02FBA1
:104E500008B0C7F89840C7F89840D7F89C4000F1D0
:104E60000801007B64F304000871D7F8A0000C79F6
:104E7000400860F347140C71D7F89C1021F01F0113
:104E80006960D7F8A01021F01F01296108F101081D
:104E900014350C36B3E700BFDC17002100ED00E04D
:104EA0000C440021F0B54149414CD1F890302568BF
:104EB000C3F307239D4287B075D80020FFF782FF18
:104EC0003C4BC1F8C030854216D13B4C01A825703F
:104ED000FFF74AFB00250646384FAE4213D10020AB
:104EE00023783249D1F89020C2F30722934254DB51
:104EF000FFF75CFF00202FE0616801EB0011FFF776
:104F000085FE0130DFE70199280101EB0513DA681E
:104F10003A40B2F5001F21D0B2F5800F2BD0B2F588
:104F2000801F38D15A689B680958013B22F01F0046
:104F300003440120844623F01F0340EA4C10CDE9CE
:104F400002218DF8100002A920780593FFF778FE62
:104F500000281DDA6FF0150007B0F0BD5A689B6895
:104F60000958013B22F01F0003444FF0020C0120BE
:104F700023F01F03E1E75A689B680958013B22F0C0
:104F80001F0003444FF0000C062023F01F03D4E75A
:104F900023780133237001359FE7C1F89830C1F8B9
:104FA000A00001339EE74FF0FF30D5E700ED00E0B1
:104FB0004C4D0101AAFF44000C4400210000F0FF09
:104FC00008B5024B1B689847002008BDF017002168
:104FD00008B505480CF0AAF9002383F31188BFF344
:104FE0006F8F0423184602DF6150010108B506499E
:104FF000064821F00701C1F1045202F580320CF09D
:105000003BF9002008BD00BFA77A0021F41700215A
:10501000064AD2F8AC3123F00043C2F8AC3100228A
:10502000034BC3F84C21D3F84C31704700200141A9
:10503000006001410122024B0020C3F84025704767
:10504000000008415023142213B51F4C0DF1070036
:10505000C4F80C351D4BC3F820214FF400621C4BE3
:10506000C3F8BC254FF48062C3F838250DF0DEFF8D
:10507000184B984225D118499DF807000DF0C8FF3C
:1050800016499DF807000DF0C8FF15499DF8070067
:105090000DF0BEFF21469DF807000DF0BEFF012078
:1050A0009DF80730984007F0B7FC4FF4002200202D
:1050B0000C4BC3F84423C3F84C01D3F84C3102B075
:1050C00010BD6FF00B00FAE700B000410030204146
:1050D000002001410000AD0B4C610141282001413D
:1050E0002C2101410060014173B5354BD3E84F3F9E
:1050F00000233449CDE90033334BD3F80445BFF3E3
:105100005F8FD1F80465BFF35F8FD3F80425944215
:10511000F3D16B46224607212B480CF0FFFC3246A8
:1051200005460F21274801AB0CF0F8FCE0B1019BCC
:105130000DB9009302E0009A9342FAD3009B2248F3
:105140001C44013CD0F84C3524F07F449C421F495C
:1051500032D0FFF75DFFC0F84C451D4B009A9A42D4
:1051600018D901230B7001E0002DE7D1194AD2F8BC
:10517000AC3143F00043C2F8AC31134BD3F84C21AF
:1051800032B90121144A5160D3F84C3103B1116096
:1051900001230DE0BFF35F8FD0F80435E41A24F04B
:1051A0007F440E4B033C9C42DBD900230B70002351
:1051B0000B4A137002B070BD0B78002BF7D0D5E707
:1051C0001144002100100141006001410F44002101
:1051D000FEFF7F000020014100B00041FBFF7F0087
:1051E00010440021F8B51E490023C1E8423F52BBDC
:1051F0001C4B1D783DB305231B4E1C4F34780134E6
:10520000B4FBF3F303EB8303E41A0CF012FE184A29
:10521000137823B157F82430C01A072813D9154B37
:10522000D3F8141141B10021C3F81411D3F814318B
:1052300034700CB90123137034780CF0FAFD47F880
:1052400024002846F8BD0C4A0025D2F8AC3123F0E2
:105250000043C2F8AC310122084B5A60F1E700BFAD
:1052600011440021104400210E44002100180021A7
:105270000D440021005000410020014100B00041D8
:10528000084B70B5C31A0D4607499B100446594395
:10529000402206480CF07EFC2B4601462046BDE825
:1052A0007040184728180021B76DDBB6044901018A
:1052B000402373B50B4C0093041B0B460D460A4963
:1052C000A41061430646094A09480CF08FFC011EF0
:1052D00005DA30462B4602B0BDE87040184702B0F0
:1052E00070BD00BF28180021B76DDBB6571C010147
:1052F0000449010110B5EFF31184402383F31288B0
:10530000BFF36F8F074A136823F00201DB071160B8
:1053100002D401200CF0DAFD84F31188BFF36F8F03
:1053200010BD00BF7818002170B50022012104468D
:105330000520FFF7BDFB0F4800F054FF0E4B9842CD
:1053400015D10CF0C8FD26690C4930460CF065F803
:1053500000280BDB012535642469084904F11C0091
:105360000CF05BF8002801DB0020E56470BD6FF0F5
:105370000400FBE77D5400010000AD0B784D0101F6
:105380001FB500220123CDE902236B46084ACDF860
:1053900000D0CDF804D00CF057FC002805DB4FF40A
:1053A00080420023684608F0B5FD05B05DF804FBB7
:1053B000751C01010C22104B014602FB003300203A
:1053C00030B4D3E90E529863EFF31180402484F394
:1053D0001288BFF36F8F1C6C04F0C00444F0020409
:1053E0001C6480F31188BFF36F8F1DB12B4630BC56
:1053F0000248184730BC70472818002104490101B1
:1054000010B4EFF31182402383F31288BFF36F8F40
:105410001748016841F002040460C80707D482F30A
:105420001188BFF36F8F012010BC00F0CBBE114973
:10543000D1F80C04D1F80C14C907F0D5EFF31180A2
:1054400083F31288BFF36F8F0B490B6C03F0C0031B
:1054500043F002030B6480F31188BFF36F8F82F374
:105460001188BFF36F8F002010BCFFF7A3BF00BFF0
:1054700078180021005000412818002110B101289F
:1054800004D07047034B1B6C5B0701D1FFF792BF41
:10549000704700BF28180021C3B21C20014A03FB3B
:1054A00000207047281800212DE9F041012207460D
:1054B0003449D1E8EF3FC1E8E02F0028F9D133B9F2
:1054C000314932484B60CB608A600BF0B9FF7B1EDC
:1054D000012B28D8012F06D12D4BD3F81C3403F013
:1054E0000303022B1FD00EF07FFC0546E8B9294BC1
:1054F0001B78D3B102220646254BC3F80823244C5F
:10550000DFF89480D4F81824D4F81834D20315D5D1
:1055100003F00303022B01D0012F0FD16DB386F3EB
:105520001188BFF36F8FBDE8F081EFF31186402340
:1055300083F31288BFF36F8F0125E0E7C5B13046D2
:105540000CF0A7FAD4F81835DBB2012BDAD1D4F875
:105550000421002AD6D00022C4F80421D4F8042162
:105560000222C4F818252022C8F88021A360C9E7C8
:105570000021212009F002FAE4E70222044BC3F8DB
:105580000423D0E724180021141800214418002116
:1055900000500041894D002100E100E0EFF311824D
:1055A000402383F31288BFF36F8F0A4BD3F80011A7
:1055B00061B10021D3F80805C3F80011D3F8003118
:1055C000C0B282F31188BFF36F8F70476FF00A008B
:1055D000F7E700BF009000410346F0B510469C7805
:1055E00093F803C0EFF31182402585F31288BFF3CF
:1055F0006F8F1F7893F801E0E41B04EA0C04A042CB
:1056000088BFA0B23E180CEA06063D461E7082F323
:105610001188BFF36F8F0A188A4216D177450CD1D3
:10562000EFF31182402181F31288BFF36F8F197855
:10563000597082F31188BFF36F8F1B79241AA3422C
:1056400022BF0122054B1A60F0BD5E197679013543
:1056500001F8016B05EA0C05DEE700BF0090004190
:10566000DB432DE9F04713F001050E46144604D044
:105670002248FFF7B1FFBDE8F0879AB3EFF3118836
:10568000402383F31288BFF36F8F0920FFF702FADC
:1056900007460920FFF7EAF988F31188BFF36F8FF7
:1056A000DFF85CA04FF40079CAF80051DAF8003155
:1056B00001232546DFF84C80CAF80030C8F88091F5
:1056C000DAF8003183B1FFF769FF031EC8F8809153
:1056D000F6DB013DADB27355002DF1D117B10920B4
:1056E000FFF7B6F92046C6E7EFF31180402383F3B6
:1056F0001288BFF36F8F0CF0CCF9E1E79C18002102
:105700000090004100E100E02DE9F0410D46144613
:10571000114F07F1350814B92046BDE8F0814FF06C
:10572000FF334FF0FF32384608F0F4FB224629469B
:105730004046FFF751FF0646384608F0C7FB3EB922
:105740004FF0FF324FF0FF33044808F0E3FBE6E789
:10575000A41BA4B23544DEE77C1800218C1800217C
:1057600038B50122174C114620460EF098FA012256
:10577000002104F110000EF092FA40F20743238753
:105780004FF0706323620C230025012184F824303C
:105790000D4B84F83550E586D3F80425092022F016
:1057A0000102C3F80425C3F80051D3F80021C3F85F
:1057B00004132A461960FFF77BF90920FFF748F91F
:1057C000284638BD7C1800210090004110B5FFF735
:1057D000E5FE002820DB174BC0B293F8222093F897
:1057E000214093F82310141B31EA04040DD193F8DF
:1057F000372093F8364093F83810141B31EA04042C
:105800000BD101220C4B5A600EE09C180132114062
:1058100084F8250083F8221010BD9C180132114035
:1058200084F83A0083F837100448BDE8104008F0C7
:105830004DBB00BF7C180021009000418C18002156
:10584000F0B5406801F01F04057B87B044EA4514B9
:105850000569002D63D0B2F5001F00F1100506D1D7
:10586000214628460DF061FC002007B0F0BD00275E
:10587000B2F5800F01AE0197776039D1B3F1007FA7
:1058800014BF052304238DF804300023CDE90463FD
:105890000393836823FA01F111F001011AD1B2F1E7
:1058A000A07F17D104F01F03620903F180032AD0FF
:1058B000012A3AD11E4A52F82330DB070AD40DF1EF
:1058C000030632462146284607F010FB194B984242
:1058D0001BD002962146284603AA07F0C3F9164BAF
:1058E00098421FD101222146284607F061FBBBE701
:1058F000B3F1C06F05D0B3F1007F14BF01230223C1
:10590000C1E70323BFE70D4AD5E73146284607F034
:1059100049FB094B9842DCD06FF00B00A5E76FF014
:105920008500A2E76FF015009FE751F82330FFDEF6
:1059300000088C410400AD0B0000AD0B00058C414C
:1059400038B545682B69B3B11035284607F01AFB06
:10595000044680B90146284607F0E2FA084B98420F
:105960000BD122462846074907F0BAFA22460521FC
:105970000A20FFF79DF8002038BD6FF00400FBE718
:105980000000AD0B895900014209034670B502D0F1
:10599000012A17D070BD0D4E326951680029F9D027
:1059A000012503F01F030C689D400029F2D08A688E
:1059B0002A4002D030464B6898472CB123682146D4
:1059C0001C46F2E7024EE7E72346F8E72C490101BF
:1059D000184901012DE9F04340F206354668D0062A
:1059E00048BF0320337B02EA050558BFC2F34010CD
:1059F00087B001F01F07B5F5837F144647EA4317C8
:105A00008DF8030043D00FD8062D18D007D8B5B1B4
:105A1000022D3ED06FF0150007B0BDE8F083B5F55C
:105A2000807FF7D101250AE040F20222954232D070
:105A3000B5F5407F31D0B5F5007FEBD102252203CB
:105A40002DD5012372688B409360326982BB07F0C9
:105A50001F037F092AD0012F77D13E4A02EB830230
:105A600084F48033D2F80012C3F30043C4F34044FB
:105A700044EA430421F4706144EA800421F00F01F8
:105A800044EA05230B43C2F800320020C4E707258F
:105A9000D5E70425D3E70525D1E70325CFE7630341
:105AA00041BF012372688B40D360CEE72A4AD5E715
:105AB0001036394630460DF1020207F017FA14F499
:105AC000403F80460CD1394630460DF02CFB234B2D
:105AD0009845DAD130469DF8021007F05DFAD4E718
