:020000040000FA
:1000000000630020A12C00005BAB00008D2C0000E1
:100010008D2C00008D2C00008D2C000000000000B5
:10002000000000000000000000000000952E00000D
:100030008D2C000000000000292E00008D2C0000F7
:100040006931000069310000693100006931000048
:100050006931000069310000693100006931000038
:100060006931000069310000693100006931000028
:100070006931000069310000693100006931000018
:100080006931000069310000693100006931000008
:1000900069310000693100006931000069310000F8
:1000A00069310000693100006931000069310000E8
:1000B00069310000693100006931000069310000D8
:1000C00069310000693100006931000069310000C8
:1000D00069310000693100006931000069310000B8
:1000E00069310000693100006931000069310000A8
:1000F0006931000069310000693100006931000098
:1001000053B94AB9002908BF00281CBF4FF0FF317E
:100110004FF0FF3000F00CB8ADF1080C6DE904CEE3
:1001200000F008F8DDF804E0DDE9022304B07047D0
:10013000704700BF2DE9F04786468C460846089E6A
:10014000154674461946002B40F0C2808542B2FA2B
:1001500082F245D94AB1C2F1200300FA02FC2EFA1C
:1001600003F3954043EA0C0C94404FEA154EA8B2B5
:10017000BCFBFEF8230C0EFB18CC08FB00F943EA8D
:100180000C43994528D9EB1808F1FF3704D299455B
:1001900002D9A8F102072B44A3EB0903A4B2B3FBD5
:1001A000FEFC0EFB1C330CFB00F044EA0344A042AF
:1001B00014D92C190CF1FF3304D2A04202D9ACF1AE
:1001C00002032C44241A43EA07401EB1D440002302
:1001D00034607360BDE8F0874746DDE76346F1E7CA
:1001E00092BB431B01214FEA154EAFB2B3FBFEFC9D
:1001F000200C0EFB1C330CFB07F840EA0343984528
:1002000062D9EB180CF1FF3004D2984502D9ACF159
:1002100002002B44A3EB0803A4B2B3FBFEFC0EFBCD
:100220001C330CFB07F744EA0344A7424ED92C19B0
:100230000CF1FF3304D2A74202D9ACF102032C44E3
:10024000E41B43EA0040C0E7C2F1200320FA03F1B7
:10025000954090402EFA03F303434FEA154EAFB298
:10026000B1FBFEFC0EFB1C10190C0CFB07F841EA5D
:100270000041884504FA02F422D969180CF1FF30D4
:1002800004D2884502D9ACF102002944A1EB08014F
:100290009BB2B1FBFEFC0EFB1C110CFB07F743EA03
:1002A00001439F420ED9EB180CF1FF3104D29F425B
:1002B00002D9ACF102012B44DB1B41EA004192E779
:1002C0006046E3E76146F7E76046A3E76346B7E7C2
:1002D000834206D916B9002108467BE7C6E900E04B
:1002E000F9E7B3FA83F78FB9834201D3724508D88F
:1002F000BEEB020460EB030301209C461EB9002103
:1003000068E73846FAE7C6E9004CF8E7C7F1200C81
:10031000BB4022FA0CF41C432EFA0CF120FA0CF329
:10032000B84001434FEA14490EFA07F5B3FBF9F858
:100330001FFA84FE09FB18300B0C08FB0EFA43EA87
:1003400000439A4502FA07F240D9E31808F1FF305A
:1003500004D29A4502D9A8F102002344A3EB0A0370
:1003600089B2B3FBF9F809FB183308FB0EFE41EA2A
:1003700003418E452CD9611808F1FF3304D28E4514
:1003800002D9A8F10203214443EA0040A0FB0298ED
:10039000A1EB0E014145CE46434602D306D14D4561
:1003A00004D2B9EB020E68EB04030138002EA6D08C
:1003B000B5EB0E0261EB030101FA0CFC22FA07F324
:1003C0004CEA0303F940C6E9003198E74046C5E727
:1003D0004346D9E7F0B53E4B3E4AC3F8002685B008
:1003E000C3F804263C48C3F808264921C3F80C2664
:1003F000C3F81026C3F81426C3F81826C3F81C2621
:100400000AF0A5F900F07CF809F03AFB00F09EF83C
:1004100050B1012000F092F8002001F001FB78B10A
:100420002E4845210AF093F901A800F077FA2C4BE9
:100430001B68834211D02B4845210AF088F9FEE75A
:10044000294849210AF083F94FF0FF304FF0FF317E
:1004500002F070F925484921E4E7039A244849212C
:100460000AF075F9234849210AF071F94FF48031F7
:1004700000200AF094FF044620B11F4845210AF0ED
:1004800066F9FEE769469DF8080000F07FF8009BDA
:10049000039D1D44019B1E8905F0DCFCAF1901F092
:1004A000DBF900F0D3FA00F0A7FA02F023FCAB5915
:1004B00083F3088884F31488BFF36F8FBFF36F8FC3
:1004C0007B6898470D4845210AF041F9FEE700BFD7
:1004D000000001403546526E0CC6000025C60000E3
:1004E000880C002074C600003CC6000055C6000001
:1004F00097C60000C6C60000EBC600001EC700007D
:1005000008B50B480BF023F828B9BDE808400948A6
:1005100045210AF01CB908484FF4003109F099FA56
:10052000BDE80840024800220D2109F082BA00BF50
:100530000CC0000041C7000020C2000002460D218F
:10054000014809F076BA00BF0CC0000037B50D4C69
:1005500020460AF0FCFF98B10B484FF4803109F0B7
:1005600078FA2569A36801A95B682046984720B9F5
:100570002B6801985840C0F30040003818BF012094
:1005800003B030BD0CC0000018C2000008B5024620
:1005900038B10548002345210AF0D9F86FF015005D
:1005A00008BD0860FCE700BF78C700002DE9F04FE8
:1005B000DFF828B2DDB0DDE9688916461C466A9F7F
:1005C000DBF8005000F0E2F9804B0122C3F800256F
:1005D0003CA808F06DF9B8F1000F07D0B9F1000F91
:1005E00004DD4A4641463CA809F0ECFB3389728998
:1005F000D6F80CA013449A444FF00008C2455DD8C9
:100600000FA93CA808F0C6F9704B0022C3F80025DA
:10061000C3F8002527B120220FA938460AF0F2FAC4
:100620000023009331464FF6FF73224609A809F0D4
:1006300028FA0646002852D120460E9F09F002FBF8
:1006400087424CD8DFF898A1DFF880814FF0FF3760
:100650000DF11E0307AA08A909A809F060FA0028ED
:100660003DDB40F0AC80089909A809F0A4FA50B924
:10067000BDF81E00564A4FF6FF7132F8023B8B421E
:100680002DD09842F9D1BDF81E90B9F1100F30D19C
:10069000BDF81C60202E22D1089933463CAA204682
:1006A0000AF063F8D8B932463CA90FA809F0BDFAA0
:1006B000484B1B68834212D10126C9E7679B669AA3
:1006C000AAEB0809994528BF99464B464146204662
:1006D0000AF04BF830B13D4B0022C3F80025DBF89F
:1006E00000506EE066994A463CA809F06BFBC8448E
:1006F00084E7B9F1010F41D1BDF81C30202BEED8B1
:1007000008993CAA20460AF030F807460028E6D1AE
:100710009DF81C300393202B09D8DAF800202E4BCB
:100720000492049A974205DB0023C8F800354FF085
:10073000FF378DE7059300F029F9C8F800951FA849
:1007400008F0B6F8059B5A6853F8081B1268059321
:100750001FA809F037FB17A91FA808F01BF90022F2
:10076000C8F80025039A3CA917A80AF03BFA059B94
:1007700010B9C8F800056BE70137D2E7B9F1220FCD
:100780007FF466AF7B1C3FF463AFDAF80030BB4206
:10079000CDDDBDF81C30802BA1D808993CAA20469D
:1007A00009F0E3FF00289AD1FFB2BDF81C30009792
:1007B0003CAA20210FA800F015F80546B7E7002E47
:1007C0008DD028465DB0BDE8F08F00BF00A002507C
:1007D000F0C50000880C00202CC20000B0000020F2
:1007E00028C200002DE9F04796B016461D469DF838
:1007F0007820374BDFF8E88053F83210019103EB93
:10080000C20307465B68D8F80090186802AA014442
:10081000302301A809F064FA002851D1DDE9014331
:100820001C4403AA06AB214601A809F081FA00285E
:1008300046D1049A072A43D1264905980AF0D2F9ED
:1008400000283DD1079A082A3AD1234908980AF08E
:10085000C9F9A8BB02AA214601A809F055FA78BB3C
:10086000DDE901A30AEB0302944229D1412B27D1F0
:100870003544302303AA294602A8029609F030FA2B
:10088000E0B9DDE9023213449D4217D32A4602A99A
:1008900006A809F09EF988B92A4602A90EA809F00F
:1008A00098F958B99AF80030042B07D1202306AAEA
:1008B0000AF10101384600F081F828B1D8F800901B
:1008C000484616B0BDE8F087044BD3F80090F7E730
:1008D0002CC20000A7C700009EC70000880C0020A3
:1008E000B00000207FB50A46096911F00C0F18BF4F
:1008F00021F00C01034618BF11614FF480700021F4
:10090000019005480090CDE9031102910846FFF7D8
:100910004DFE07B05DF804FB74220020F8B5124CC0
:10092000124B134F1D6821460646022000F030FC92
:100930002068394605F0C4FA80B920683946FFF7C7
:10094000D1FF05460B4B1B68834207D1206809F095
:1009500095F8236830715B68B3603760206809F0F0
:1009600003FF2846F8BD00BF8C0C0020B00000201B
:1009700074230020880C00200A4619B1024B002184
:100980001B681847704700BFB400002070B5094DC0
:100990002B780BB1002070BD074C0126C4F8006510
:1009A00008F028F818B92E70C4F80005F2E74FF0E7
:1009B000FF30F0E79423002000A002502DE9F04121
:1009C000DFF83080ACB01F4606460C461546FFF7F0
:1009D000DDFF0123C8F800352A463346009721463B
:1009E00003A80BF087FA0023C8F800352CB0BDE847
:1009F000F08100BF00A00250BFF36F8F72B6124BA0
:100A00004FF0FF32C3F88020C3F88420C3F8882059
:100A1000C3F88C20C3F89020C3F89420C3F8982022
:100A2000C3F89C20C3F88021C3F88421C3F888212F
:100A3000C3F88C21C3F89021C3F89421C3F89821FE
:100A4000C3F89C21704700BF00E100E0F8B5254BDA
:100A5000254D4FF0FF3401275F60C3F84843C3F8CA
:100A6000084303F5C04300265F60C3F84843C3F85A
:100A7000084303F5983302205F60C3F84843C3F886
:100A80000843C5F8084302F023FA6F60C5F84C61CB
:100A9000D5F84C31C5F81061D5F81031C5F844616E
:100AA000D5F84431C5F8006505F518352820C5F896
:100AB000084302F00DFA6F60C5F84C61D5F84C316F
:100AC000C5F81061D5F81031C5F84461D5F8443146
:100AD000064BC5F80065C3F808454FF08043C3F8DE
:100AE0000843F8BD00B000400020004000F0014085
:100AF000014B1B68184700BFB800002007B50B4624
:100B0000002102460091034800F00CF803B05DF8A4
:100B100004FB00BFF10A0000014B1860704700BFE2
:100B2000B80000202DE9F04F8DB01D46531E8246BF
:100B3000019103934FF00009039B5878252803F196
:100B4000010419D11E4600204FF0FF38023603463B
:100B50000290444631780396392954D81F2914D875
:100B6000002900F0EE8101992520D04701993078C5
:100B7000D04709F10209DFE7002800F0E28101997E
:100B8000D04709F101090394D6E7A1F12002192AFF
:100B9000E9D801A757F822F0010C0000670B00000C
:100BA000670B0000010C0000670B0000810C0000C7
:100BB000670B0000670B0000670B0000670B00006D
:100BC000CD0C0000010C0000670B0000E10C0000E0
:100BD0008D0C0000670B00009B0C0000BB0C00009C
:100BE000BB0C0000BB0C0000BB0C0000BB0C0000E9
:100BF000BB0C0000BB0C0000BB0C0000BB0C0000D9
:100C000008460136A6E7582900F0EB80A1F16302FF
:100C1000D7B2172FA7D8172AA5D801A757F822F0BF
:100C2000890E0000070D0000670B0000670B000035
:100C3000670B0000E70C0000070D0000670B0000C9
:100C4000670B0000E70C0000670B0000670B00005B
:100C5000670B0000BD0D0000670B0000670B000074
:100C60005D0E0000670B0000070D0000670B000021
:100C7000670B0000BD0D0000670B0000E70C0000D3
:100C800001992520D04709F1010955E7029A02F0A0
:100C9000FE0202924FF00008B3E7002C0DDAB8F123
:100CA000000F0DDA029A002A00F0438124EAE4746E
:100CB0000A2202FB0414303CA3E7B8F1000FF5DB75
:100CC0000A2202FB0812A2F130089AE7B8F1000FDD
:100CD00055F8042B80F22F81002A80F22E81544295
:100CE000022202928DE7682903D1682B06D148239E
:100CF00087E76C2902D16C2B00F02181002B7FF457
:100D000032AF0B467DE77A2B06D1752955F8046B77
:100D100014D14FF0000B0CE06C2BF6D04C2BF4D11F
:100D2000073525F007037529D3E9006B03F10805A2
:100D300006D120283BD1854F013C09E04FEAE67BF4
:100D4000BBF1000FF5DA7642814F6BEB4B0B013CA8
:100D50000DF12D03059300230493304659460A22D2
:100D60000023FFF7CDF9059B303203F8012DB4467F
:100D70000593049B5A46BCF10A0F8B4672F10002A0
:100D800003F1FF3106460491E7D2C3F1010B303382
:100D90000DEB0306B8F1000FA6F104066DDA029B15
:100DA000D9077DD4A8EB0B03A4EB0B0413E02B288D
:100DB0000ABF684F684F04F1FF34C9E770290FD1AB
:100DC00055F8042B0023FAB9634F644E053C6FF0CD
:100DD00004034FF0050B029A920770D4A04666E018
:100DE00078216C2B03D155F8042B002308E04C2B01
:100DF000F9D1073525F007031D465B6855F8082B28
:100E0000232825D1880621D5554F023C01F06001E9
:100E1000A1F1390B0DF12D0E002602F00F01092969
:100E200088BF594430310EF8011D102A4FEA1211C3
:100E300041EA03714FEA131C73F1000306F1FF301E
:100E400008D2C6F1010B06F13003A1E7454FDCE7FC
:100E5000414FDBE706460A466346DEE755F8046B7A
:100E6000304609F0B8FEB8F1000F834602DB40457A
:100E7000A8BFC346384F4FF00008A8EB0B03002B68
:100E800092DDA4EB0804A6E755F8043B8DF8183072
:100E9000314F013C4FF0FF334FF0010B06AE9AE7A4
:100EA000A046EAE7029301992020D047029BB8F1BF
:100EB0000108F7D524EAE472013C9144A41AB8462B
:100EC00006E0049302920199D047029A049B90464F
:100ED000424612F8010B0028F3D11A46013A15D503
:100EE000002BACBFC7EB03077F425B46013B15D528
:100EF000BBF1000FA8BF5F444F442646013E14D506
:100F0000002CA8BF3F1907EB080915E604930292CD
:100F100001993020D047049B029ADFE702930199A0
:100F200016F8010BD047029BE0E701992020D0473B
:100F3000E4E70122D5E6904663E6144661E64C23D9
:100F40005FE648460DB0BDE8F08F00BF0CC800005A
:100F50000AC800000EC8000077C7000016C80000CD
:100F600010C8000013C800002DE9F047058B0446A7
:100F70002807904611D4022905F0070540F0CC80DF
:100F8000204609F015FA78B10138218B042811D8D0
:100F9000DFE800F0C2106D85950001290CBF45F017
:100FA000100545F02005258388F31188BFF36F8F66
:100FB000BDE8F08701F0070AAA4500F0A5800027E8
:100FC000B9463E46A368002B00F0BC8041F0080102
:100FD000218388F31188BFF36F8FA168002900F087
:100FE000BA800D68002900F0B680D1F8048033463D
:100FF00052462046C047002D76D02B6829461D4614
:10100000F0E701F007035A1F012A1BD8002221F044
:101010000701062B276889B2C4E9002209D13B46A3
:1010200003E0628B013262831B68002BF9D141F02F
:1010300002012183204609F0BBF900287AD041F053
:10104000200176E0042B0AD121F0070189B2218327
:10105000204609F0ADF910B141F020012183218B28
:1010600001F0070AAA454FD00027B946AAE723692D
:1010700021F0070141F00601062DD3F800902183ED
:101080002DD1B9F1000F3FD041F00801218388F341
:101090001188BFF36F8F3A492046C84729E021F0F5
:1010A0000701236941F0040189B2042DD3F80490AB
:1010B0002183E6D000273E464FF0040A82E721F064
:1010C0000701236941F0050189B2052DD3F8089085
:1010D0002183D6D000273E464FF0050A72E700274D
:1010E0003E464FF0060A6DE72B4687E7B9F1000F41
:1010F000D1D1EFF31188202383F31288BFF36F8FD0
:10110000238B23F008032383258BEA062ED525F0B5
:101110001003238305F007056669218B002EBFF6B7
:1011200070AF00232768C4E9003321F0070141F0C4
:1011300001012183218B01F0070AAA454FF0000924
:101140007FF440AF002F9CD041F00801218388F349
:101150001188BFF36F8F002FC8D03D6839463346E2
:101160005246204609F050F92F46F4E7AB067FF5CA
:101170001BAF25F02003238305F0070500E700BF20
:1011800035A40000014B03600020704738C2000006
:1011900070B5114B1C680D46DCB1104B196800236B
:1011A0008B4202DB6FF0010070BD224612F8106B1B
:1011B000864202D001331446F2E7E06810B96FF0BE
:1011C0001200F1E70AF0C3F90028F8D02C600020E3
:1011D000EAE76FF00C00E7E7540300207CC2000050
:1011E0002DE9F7430D46DDE90A8691461F46044680
:1011F00020B96FF00D0003B0BDE8F0830029F8D0EE
:10120000002AF6D0009308460023019309F0CBFA98
:10121000B7FBF0F303FB10700028EAD113496A46CC
:10122000284609F058FE019B002BE2D008EB06028D
:101230009342DED3284609F0B6FAB8FBF0F303FB7D
:1012400010800028D5D1C4E90097E5602061A06036
:10125000C4F8148016B9019EA6EB08060C9BE36146
:101260004FF0FF33A66123620020C4E7B3A700005C
:10127000F0B40C4B0C4E5F6A0C4BB34203D36FF0CF
:101280008500F0BC70475D68BD4209D31C693CB164
:1012900095F802C00579AC4502D12346F0BC184749
:1012A0002433EAE7900C0020080700209C06002069
:1012B0002DE9F047134CDFF85080DFF850900546D9
:1012C0000E461746444503D36FF08500BDE8F0870E
:1012D0006268D9F824309A4212D3A36983B1907816
:1012E0002979884205D13A4631462846BDE8F0477B
:1012F00018475279012A03D13A4631462846984781
:101300002434DFE79C06002008070020900C002012
:101310002DE9F0410B4CDFF8308005460E461746AC
:10132000444502D36FF0850009E063690BB92434AA
:10133000F6E73A463146284698470028F7D1BDE8F7
:10134000F08100BF9C0600200807002010B504466D
:1013500009F09FFC10F1780F00D050B9054A2046E3
:1013600009F0DEFAD2F8C43023EA0003C2F8C43030
:10137000002010BD900C002002480822002109F036
:101380004CBC00BF4B0D002070B50B4B0B4CA34267
:1013900001D3002070BD196A1E7F00220439D5B226
:1013A000AE4201D82433F2E7013211F832508542BF
:1013B000F5D10120EEE700BF9C06002008070020C1
:1013C00008B509480378C3F341130A3350F82330B2
:1013D0003BB100F1080200F110019847C043C00F73
:1013E00008BD1846FCE700BF900C002004282DE93A
:1013F000F14FDFF8A09004460F4616D001282DD1FA
:10140000DFF88C8098F8B93043B300F037FE1F4DF9
:101410004D4520D2D5F820B04FF0000A2B7F5FFA5F
:101420008AF6B34204D82435F2E7FFF7A5FFE7E7D1
:101430000BEBC6060AF1010A307909F02AFC0246D4
:10144000307909F06DFAD8F8C430002A23EA000395
:10145000C8F8C430E2DA002388F8B9300B4D4D45A6
:1014600008D30B4B1B6A6BB13946204601B0BDE86F
:10147000F04F1847EB681BB13A462146284698477B
:101480002435ECE701B0BDE8F08F00BF9C060020DA
:10149000900C00200807002073B5C4B263060D4607
:1014A0008DF8074007D02046FFF76EFF78B10D4B4F
:1014B00093F8BA0058B10B4E204655B102F0ECFB40
:1014C000F3691BB10DF1070108209847012002B014
:1014D00070BD02F009FCF369002BF7D00DF1070194
:1014E0000920F2E7900C002073B586788DF8006033
:1014F000037942791C4C43EA0223ADF80230C378E9
:10150000304603F003038DF8043009F009FAD4F8EB
:10151000C430184205460BD0304600F091FD3046ED
:10152000FFF714FF0AF0ABF910B9962006F0B0FBF4
:10153000684602F08DFB10F1780F03D010B1002047
:1015400002B070BD9DF8000002F00AFC10F1780FA7
:1015500001D00028F3D1D4F8C43001202B4384F803
:10156000B900C4F8C430EBE7900C00202DE9F04737
:10157000A34EB36904460F461546FBB9237803F022
:101580001F03012B00F09D80022B00F0048133BB70
:1015900094F900002A686178002834DA062912D00C
:1015A00008292BD0D9B901231370517096F8C33094
:1015B0005B0043F00103137002232AE198470028DF
:1015C000DCD100200DE06288100A011F0129844649
:1015D00005D9072803D8716AD2B20C781CB96FF00C
:1015E0001500BDE8F0874E78664503D19A4200F0B9
:1015F0000B8101332144F0E70B780AE196F8BA3009
:101600001370012305E101390829E8D801A353F833
:1016100021F000BFAD160000DF150000BB16000072
:10162000DF15000039160000DF150000DF1500008F
:10163000DF15000045160000A07802F0F7FA002838
:10164000BFD0CCE76388756A63BBFFF795FE6388FC
:1016500086F8BA30F369002BB3D06A490320984763
:10166000AFE76B78042B10D0052B11D0022B04D1DF
:101670006F796388BB4208BF01202B781D442B780B
:10168000002BEED10028AAD0DFE795F80380F4E71D
:101690006388BB42F1D1B8F1000FEED12846FFF7C5
:1016A00023FFEAE7FF270020B846E8E76388012B1D
:1016B00095D1002386F8C33083E76388012B8ED150
:1016C000F8E796F8BA30D5F800C0002B87D0756AD5
:1016D000A38894F804E02A46107800283FF47FAFEE
:1016E0005178022904D192F80480F04500F29380E9
:1016F0000244F1E78CF800208CF80120396060E7A3
:10170000154494E00B2A7FF46AAF00274FF0FF08DE
:10171000C146BA4606E06B78042B0FD0052B21D0CA
:101720002B781D442B78002BF5D1F36913B151466A
:1017300007209847002F7FF444AF50E795F80280C8
:10174000A38895F803909845EAD163889945E7D135
:10175000B8F1070F1CD806EB0803AA4683F8BB9024
:101760000127DDE7A3884345DAD1A3784B450AD0AA
:10177000AF78384600F064FC3846FFF7E7FDB0FA72
:1017800080F77F09CCE72846FFF7AEFE0746C7E79C
:10179000AA460027C4E794F900206378002A18DAE3
:1017A000002B7FF41CAF24792D6863060AD02046F5
:1017B000FFF7EAFD00283FF412AF96F8BA30002B8D
:1017C0003FF40DAF2946204602F0AEFA00236B70BD
:1017D000F2E6012B08D0032B7FF401AF6388002BC6
:1017E0007FF4FDAE012103E0618800297FF4F7AEAC
:1017F000A088FFF751FE00287FF4E3AEEFE600BFBC
:10180000900C00204A0D0020022829607FF4F4AEDD
:101810004B883B60D5E694F9000062780028BFF65B
:1018200071AF002A3FF466AF0A2A7FF4D8AE2A7857
:10183000002A3FF4D4AE697804297FF461AFA97817
:101840008B427FF45DAF072B96BF9B19002393F863
:10185000BB308CF80030D4E670B5164D95F8B83032
:10186000FBB102F0C3F9002822DB00F007FC0024E2
:10187000D5F8C430E340DA07E6B214D4D5F8C43062
:1018800004F11002D340DB0705D546F08000FFF7D6
:101890005DFD00280CDB0134102CE9D1002385F814
:1018A000B830002004E03046FFF750FD0028E5DAAC
:1018B00070BD00BF900C002013B5164C237DF3B90A
:1018C000E268A168019201AB802009F037F8019A23
:1018D000A3681344A360E3689B1AE3606BB962B129
:1018E0002369E2889A4208DD94F8C82093FBF2F15C
:1018F00002FB11330BB90123237502B010BD002385
:101900001A4619468020237502B0BDE8104002F047
:1019100051BA00BF900C002030B585B000230246BC
:101920000D460193002858D1002935D108220B46D5
:101930000DEB020109F0C6F9002804DA802002F05C
:10194000ABF905B030BD2A4C029A2260039A62605E
:1019500004F13802A2609DF90820BDF80E3025750B
:10196000002AC4E903550ADB802B04D9802002F049
:1019700093F90020E3E713B1C4E90333E1E7FFF78C
:101980001FFD0028DAD0E28823699A42D4BFE260C2
:10199000E360FFF791FFD4E7154CD4E90215002D61
:1019A00001AB04DC09F08EF90028CADAC6E72A4642
:1019B00009F088F90028D9DB019AA3681344A360D1
:1019C000E3689B1AE360002BBBD104F13803A360EA
:1019D000FFF7F6FC0028DCD1B0E78028B1D1044B3A
:1019E000DA68002AD5D11B7D002BD2D1A9E700BF30
:1019F000900C0020054B064A9A62064ADA62064AB3
:101A00001A63064A58629A6100207047900C0020C1
:101A10006D1500007112000011130000B1120000DA
:101A20002DE9F3410446474D47484FF0FF334FF04F
:101A3000FF3205F05DFB95F8B830002B7BD16B6A67
:101A400083B142482C62E8616E6A02F0CDFA02F07E
:101A50009BF8041E10DA3C4805F0C2FB204602B099
:101A6000BDE8F08100F0BEF8FFF7C4FF6B6A002B01
:101A7000E7D14FF0FF34EEE700F022FB041EEADB73
:101A80007378012B5AD1F379002B57D00026684682
:101A900085F8C830ADF802308DF804608DF800602C
:101AA00002F0D6F8041ED6DB802768468DF8007059
:101AB00002F0CEF8041ECEDB2549304602F080FA53
:101AC000041EC8DB2249384602F07AFA041EC2DB43
:101AD000204CDFF8848044451AD3002002F040F9FE
:101AE000041EB8DBD5F8C430802043F00103C5F8EC
:101AF000C43002F035F9041EADDBD5F8C43043F430
:101B00008033C5F8C430012385F8B8300024A2E73B
:101B1000276A0026227FF3B29A4201D82434DAE7FA
:101B200007EBC30257F83310107902F049FA013677
:101B30000028EFD09DE76FF077048CE76FF0150475
:101B400089E700BF900C002020050020ED13000065
:101B5000191900009C0600200807002030B51F4B13
:101B60008BB005AA03F1100518685968144603C420
:101B70000833AB422246F7D11B7823701022002194
:101B800001A809F04AF812220021154809F045F889
:101B9000102101A809F020FA00281BDD0828B8BF91
:101BA0000820093801AB0E491A18002012F8013F2D
:101BB0000AAC04EB131403F00F0328336B44013019
:101BC00014F8144C13F8143C0C7008284B7001F1F5
:101BD0000201EBD102480BB030BD00BF1CC80000B1
:101BE000962300202DE9F04F744B93F800B087B096
:101BF000BBF1000F03D0724807B0BDE8F08F704C06
:101C000000264FF0011AB0463546B14623783BB95D
:101C10006C4B02349C42F3D1684A01231370EAE70B
:101C20006378052B1BD8DFE803F08E03C68E1D39C1
:101C3000402304A88DF810B0ADF812308DF814B020
:101C400009F012F840B1082304A8ADF8123009F0E9
:101C50000BF808B1ADF812B0BDF81230E37123787B
:101C60001C44D3E7E378002BF9D1A37863B108F1E2
:101C700001085FFA88F8F2E76A68944207D02435D1
:101C80009D42F9D30020B7E74F4D504BF8E7AB68C2
:101C9000002BECD0414620469847E8E7002DF1D0D4
:101CA00000222B7F9A42EDD2296AA07801EBC20173
:101CB0000B79984201D00132F3E70127E07800F078
:101CC00003008DF81400207994F805C040EA0C2038
:101CD000ADF8120094F902000028FBB228DA07F1EF
:101CE00010004FF0010C0CFA00F010EA0A0F26D198
:101CF00043F080008DF8100004A8CDE90213019292
:101D000008F0B2FFDDE90121039BC0B99DF8102066
:101D1000A27012F0800F18BF10330A7118BFDBB227
:101D20004FF0010214BF9A40BA404AEA020A96E70D
:101D30000120B84010EA0A0F01D11846DAE701374E
:101D4000102FBBD1B7E7032E1DD1FFF707FF0746C2
:101D500068B108F040FF019048B11D4808F03BFF12
:101D6000019A824203D13946A01C08F04BFF237828
:101D70006FF00201E218091B04EB5303D14213D5A3
:101D80000136F6B26BE7002EF1D1B9F1000F3FF446
:101D900079AFA4EB090389F80230C3F3072389F86C
:101DA000033089F80480EBE702F801BC13F801095D
:101DB00002F8020DE2E7A14651E700BF952300209B
:101DC000640500209C0600209C06002008070020D7
:101DD0001CC8000010B5094B00211A461C7884422B
:101DE00005D15C681CB1482303FB012010BD013103
:101DF000042903F14803F1D10020F7E75C0D00202E
:101E00002DE9F34150F8303C10F8346C103304469F
:101E10000AD1036950F8282C980736D5D2B959074A
:101E200015D5002344F8303C54F8303C10330BD027
:101E300054E9097554F81C8C09F021FD00284FD095
:101E40002E48214609F0FFFC02B0BDE8F08143F0C6
:101E50000403236154F82C1C01AB304608F06EFDDE
:101E600010B16FF01503DDE7019A54F82C3C1344D0
:101E700044F82C3C54F8283C9B1A44F8283C54F86D
:101E8000243C134444F8243CCEE754F82C1C01AB0A
:101E9000304602F00BF80028E3D1019D54F82C3CA9
:101EA0002B4444F82C3C54F8283C5B1B44F8283C59
:101EB00054F8243C2B4444F8243C002DB1D0304647
:101EC00002F098F8B5FBF0F303FB1055002DA8D1F4
:101ED00054F8283C002BA4D0304602F02FF8A3E79A
:101EE00044F8200CA4F1180005F0E8F9002DABD05F
:101EF000424639463046A847A6E700BF38070020CB
:101F00004B1E012B73B506460D460FD8FFF762FF37
:101F1000044668B9012D09D101AB01220DF103017D
:101F2000304601F0C3FF019B002BF5D102B070BD1C
:101F300009F0A5FC04F1340108B1012D05D10846D2
:101F400002B0BDE87040FFF75BBF034802B0BDE8D8
:101F5000704009F078BC00BF380700202DE9F74F2A
:101F6000804600911746994608F030FD0446002847
:101F70005CD1EFF3118B202383F31288BFF36F8FB3
:101F80002C49002208460023019105F0BBF9019974
:101F900068B9DFF8A8A0482262430AEB02056E6820
:101FA00016F1100F12D1084605F088F906E0013449
:101FB000042C01F14801E4D16FF00B068BF311887A
:101FC000BFF36F8F304603B0BDE8F08F0AF8028090
:101FD0000C9A009B6A610D9A2861AA6140466FF0D5
:101FE0000F02C5E90237C5F844906A6002F002F8B2
:101FF00058B1404601F0FEFFB7FBF0F202FB10774C
:102000001FB16A6C42F004026A6419F0020F08D032
:10201000482202FB04A10848343109F014FC0026D0
:10202000CCE7404601F08AFF0646C7E76FF00F068F
:10203000C8E700BF780D0020380700205C0D0020A5
:1020400010B5EFF31184202383F31288BFF36F8F51
:10205000FFF7C0FE50B14368103307D16FF08B0318
:10206000436000F13401044809F0EDFB84F311886A
:10207000BFF36F8F10BD00BF38070020F8B50E4CBE
:1020800004252027EFF3118687F31288BFF36F8FA3
:102090006368103307D16FF08B030848636004F165
:1020A000340109F0D0FB86F31188BFF36F8F013D37
:1020B00004F14804E6D1F8BD5C0D0020380700208B
:1020C00070B50A4C0A4E00253146204609F09FFBA8
:1020D0000122A4F118001146013509F049FB042D35
:1020E00004F14804F0D1002070BD00BF900D002025
:1020F000011E000070B504460E46017912481546CF
:1021000008F040FCE8B194F900206378002A11DB64
:10211000202B04D0222B09D06FF0850005E0296820
:102120000722103808F06EFD002070BD638800F8AB
:10213000093CF9E7212BEFD11038072328603360E1
:10214000F2E76FF01200F0E77C0E002008B50146C0
:10215000034808F025FC10B1012300F8073C08BD36
:102160007C0E00200169012381F84B300B6833B1EC
:1021700091F849301BB10248083109F064BB70473F
:10218000380700200169012381F84A300B6833B118
:1021900091F848301BB10248083109F054BB704730
:1021A0003807002070B5012382F8483013680D46C7
:1021B00014463BB192F84A3023B10E4802F10801AF
:1021C00009F041FBD4F890309A681B699A4205D116
:1021D0007DB904F1180140F6CD4204E004F1180184
:1021E000002DF8D00022BDE870400248002305F021
:1021F000E3B970BD3807002038B5056995F89E0031
:1022000088B195F89F307BB985F84830D5F89000B3
:1022100008F028FA002204460023044805F11801BA
:1022200005F0CAF9204638BD0020FCE73807002039
:102230000D4A03460021A0F848101068C3F8940026
:1022400090889279A3F8980083F89A2083F89C10DC
:1022500083F89B10A3F89E1083F8A010402203F18E
:102260004C0008F0DABC00BF08C20000F0B5D0F89E
:102270008C305B681B6A1F7D85B00446384608F0C9
:10228000A5FB0646F8B994F88630E3B1A06F4FF489
:10229000806203A908F005FA0546A0B18306A4F1FF
:1022A000180308BF00F1FF3584F830600193074B35
:1022B000039900932A4602233846FFF74FFEA06F8A
:1022C000294608F00EFA05B0F0BD00BFA5210000B8
:1022D00010B504690023C4F8A8300C4BC4F8A4005E
:1022E000596804F1A80269B9C3E9002204F10800A1
:1022F000074909F08CFA04F11800064909F0B3FA0D
:10230000002010BD0A605A60F0E700BF7C0E00207C
:10231000F7A900006D22000013B504698DF80710BD
:10232000002384F84830D4F8900001220DF1070111
:1023300008F098F910B909F0A2FA40B1212200235F
:1023400004F11801064805F037F902B010BD94F801
:10235000A130002BF2D00021212005F07BFCE2E728
:102360003807002037B514460A1E054620DDD4F88C
:102370008C0004F14C0108F075F9012384F8493010
:1023800023683BB194F84B3023B1114804F10801A4
:1023900009F059FAD4F88C104B684A699A1ACB693B
:1023A0009B1A3F2B04D8012384F8A03003B030BD22
:1023B00094F89E30002BF9D0064B00930194012332
:1023C000402204F14C012846FFF7C8FDEEE700BFAC
:1023D0003807002065230000F7B50D4601461D486B
:1023E00008F0C4FA044610B30646691E56F8A4392C
:1023F0005F6805291BD8DFE801F01C1A031C2226A0
:1024000010F8061C99B9012300F8063C3B6A3246D5
:10241000187BFFF7A7FF14F85C2C42B93B6A187DC4
:102420000D4B0093019602231146FFF797FD03B071
:10243000F0BD304603B0BDE8F040FFF7F9BE012320
:1024400004F8053CF3E710F8053C002BEFD000231F
:10245000F6E700BF7C0E0020A5210000014B99701B
:10246000704700BFC105002037B590F90020037800
:10247000002A04461DDB03F01F03012B19D143780A
:102480000B2B0FD14388A3B90B4D022001A9287053
:10249000FEF77EFE50B9019883686B6008F064F91E
:1024A0006388EB606FF0150003B030BD6FF004007F
:1024B000FAE76FF08500F7E71401002010B5074C2C
:1024C000002304F11000A360A4F83A3208F037FBAF
:1024D00018B140F60A63A4F8383210BD1401002088
:1024E00010B50A4C94F83832012B0DD101F07EFB67
:1024F000022384F83832064B06481860FFF77AFA50
:10250000BDE8104001F040BB10BD00BF1401002029
:10251000C00600201906002037B50E490E4809F004
:1025200076F90E480E4D09F070FC0E490E4809F080
:102530009AF9287801A9FEF72BFE044638B90198CC
:1025400083686B6008F010F9204603B030BD6FF06F
:102550000404F9E76D250000840E0020940E00208D
:1025600014010020E12400000807002038B5184BB2
:1025700093F88020022A01D0052A0FD1B3F88250A7
:1025800013491448144CB5FA85F35B092A4608F040
:1025900095FA20B140F20A33A4F8383238BD95B923
:1025A000062384F83832FFF789FF284608F041FBFC
:1025B00018B140F20A33A4F838320848BDE8384070
:1025C000002105F0D3BD052384F83832E6E700BFCB
:1025D000F02100202401002014010020940E00208E
:1025E00070B5144690F900204378002A064633DA85
:1025F000032B0BD0052B28D0022B44D1474B40F6A0
:102600000A72A3F838226FF085001DE0434B93F85F
:10261000382293F83902062A04BF022283F83822AE
:1026200022681070B3F83C2220684270120A82704F
:1026300020680022C270206893F838320371236842
:102640005A7106230B60002070BD344A236892F84B
:1026500038221A700123F5E7062B14D8DFE803F0BF
:102660004D1F1313161304002C4C94F83832012B11
:1026700005D9FFF723FF0223A4F83832E3E7274BFD
:10268000002283F838226FF01500DDE7234B93F822
:102690003822012AF3D90222A3F83822D3E71F4DAA
:1026A00095F83832012BEAD9022B08D0052B13D02C
:1026B00040F60A63A5F83832FFF700FFE3E7FFF7BB
:1026C000FDFE174809F0A6FB2B78022B04D040F240
:1026D0000A33A5F83832B6E71248042285F83822C2
:1026E00080F88030F288A0F88220216808F08AFA09
:1026F0000D490E4809F0A7F8A5E7084B93F83822D2
:10270000002ABCD1012283F838220949074840F643
:10271000CD42002304F07AFF95E700BF14010020AA
:10272000940E0020F0210020840E002038070020A5
:102730000807002073B502460B46684609F0DAF92F
:10274000DDE90045134E22462B46684609F0F6F9AE
:10275000DDE90023134301D102B070BD96F8383291
:10276000043B012B05D9002140F2676005F072FAA5
:10277000E9E7094B09480022012109F01DFB074840
:102780004FF0FF324FF0FF33012102B0BDE870403F
:1027900005F094BC14010020940E0020A40E00202B
:1027A00037B5094D0949002400944FF0FF334FF429
:1027B0008862284604F0C2FE0549284609F065F8FB
:1027C000204603B030BD00BF38070020002800209D
:1027D0003BC8000008B5054807F0B8FD044807F0FD
:1027E000B5FDBDE80840034807F0B0BD44C800008F
:1027F00075C80000A8C80000014805F075BD00BFFD
:10280000E0C2000038B5044618B90F4B0F485B68AA
:1028100098476168B1F5683F10D0B1F5680F0DD0E9
:102820000B4DA9420AD011F46861206807D0014617
:10283000084808F0E2FE00232360656038BD1422DA
:1028400008F0EBF9F9E700BF48040020D6C8000003
:102850002C5F5CA9B813002008B520B34368B3F51A
:10286000683F10D101220368BFF35B8F53E8001F5C
:10287000002903D143E800200028F7D1BFF35B8F84
:102880000DD1002008BD094A93420AD000684FF0DC
:10289000FF324FF0FF3304F02BFC0028F1D0044846
:1028A000F0E70448EEE76FF4E040EBE72C5F5CA94B
:1028B000E98FFFFFEA8FFFFF08B5D8B14368B3F592
:1028C000683F10D100220368BFF35B8F53E8001FFD
:1028D000012903D143E800200028F7D1BFF35B8F23
:1028E0000BD1002008BD074A934208D0006804F0CD
:1028F00077FCF6E76FF4E040F4E70348F2E70348BB
:10290000F0E700BF2C5F5CA9E98FFFFFEA8FFFFFB4
:1029100010B5044618B91D4B1D485B68984763689D
:10292000B3F5683F2FD0B3F5680F2CD0194A934206
:1029300019D1236803BB18484FF0FF324FF0FF3323
:10294000214604F0A7FB08B923681BB90F4B1348B5
:102950005B68984720681422002108F05EF94FF464
:102960006863636008E0B3F5683F0DD83A2B03D085
:1029700040F6BA629342DED1206808F076FE6368C2
:1029800043F03A03636010BD054AF3E748040020B2
:10299000D6C800002C5F5CA9B8130020FCC800005A
:1029A0003A00003A08B5064906484023142208F0C8
:1029B00016FEBDE808400449044805F007BD00BF05
:1029C000B80E0020B8130020E8C20000FCC20000CE
:1029D00030BFFFF7FDBF00BF074A936893F90E10A1
:1029E000002907DB926993421FBF044A536843F0F2
:1029F00080535360704700BFD81F002000ED00E0F7
:102A000070B5264B15469A6A12F0100F9A6A14BFD9
:102A10001124102412F0080F9A6A18BF122492078A
:102A200006460AD5586B9A6A140634D519B19A6AC3
:102A300022F080029A62132401E06FF01500174B18
:102A40009A6A12F0010F9A6A18BF142412F0200F2C
:102A50009A6A18BF1524D20602D49B6A9B070AD52E
:102A60000E4B5B68190506D5314600F001FB10B12D
:102A700080F309880224094B9A6A920642BF5A6A77
:102A800022F400525A629A6A42F0FF029A620023CC
:102A90002B70204670BD6FF01500CCE700ED00E014
:102AA000134B9A6A12F0007F9A6A14BF1E201D20F1
:102AB00012F0807F9A6A18BF1F2012F4002F9A6AC2
:102AC00018BF212012F4802F9A6A18BF222012F416
:102AD000003F9A6A18BF232012F4803F9A6A6FEA77
:102AE00002426FEA12429A6218BF2420704700BF68
:102AF00000ED00E010B5194B0246986A9C6A10F48C
:102B0000805F14BF1720162014F4006F9C6A18BF52
:102B10001820A40509D5986B986A000404D51AB149
:102B20009A6A22F400429A6219200C4B9A6A12F4B3
:102B3000806F9A6A18BF1A20D2050CD49B6A13F4CE
:102B4000005F18BF1C20054A936A43F47F439362D9
:102B500000230B7010BD1B20F5E700BF00ED00E067
:102B600070B5454B5B689CB00546C3F3080300266F
:102B700086F31188BFF36F8F02F07F40B0F17F4F73
:102B800011D102F00C0008280DD010074CBF0D46E3
:102B900001260022033B8DF80720032B05D8DFE830
:102BA00003F01E5D615A3546F3E700249DF80730B7
:102BB0009BB96822294602A808F024F8099B002E38
:102BC00054D0C3F3080222B96FEA53236FEA4323B8
:102BD000099302A9204607F0B6FF1CB070BD264B32
:102BE000DA6A9107E1D4DA6A002ADEDBDA6A520097
:102BF000DBD55A69A96942F480725A61BFF34F8FDD
:102C0000BFF36F8F5A6931F8021C22F480725A6147
:102C1000BFF34F8FBFF36F8F4DF6027291420AD010
:102C20009A6AD2B24AB10DF1070201212846FFF794
:102C3000E7FE0446BAE72C68B8E79A6A12F47F4FB9
:102C400005D00DF107010120FFF754FFF1E79B6A62
:102C5000B3F5803FA9D3FFF723FFEAE70DF10702A1
:102C60000021E3E70DF107010020EDE723F4FF73F6
:102C700023F00103ACE700BF00ED00E0024A536916
:102C800043F010035361704700ED00E0EFF308805C
:102C9000EFF3098101B57246FFF762FF01BD00BF86
:102CA000002080F31488BFF36F8F03F055F90020E4
:102CB0000D490860BFF34F8F0C4880F3088800F07F
:102CC0002BF8202080F3118809484FF40461401844
:102CD00080F30988EFF314800221084380F31488FD
:102CE000BFF36F8F00F02EF994ED00E00063002039
:102CF000003100200749D1F890200023C2F30722B9
:102D00001846934200DB7047C1F89830C1F8A00024
:102D10000133F6E700ED00E008B572B6002383F357
:102D20001388FFF7E7FF144B4FF0FF32C3F8802002
:102D3000C3F88420C3F88820C3F88C20C3F89020FF
:102D4000C3F89420C3F89820C3F89C20C3F88021CE
:102D5000C3F88421C3F88821C3F88C21C3F89021DB
:102D6000C3F89421C3F89821C3F89C2162B6BFF33D
:102D70004F8FBFF36F8F08BD00E100E0084B9B68E9
:102D800083420BD1EFF3058343B1064B5A6842F0FF
:102D900080525A605A6A22F400425A6208F04DBECC
:102DA000D81F002000ED00E0094A93686FF00A0187
:102DB000D967084998674B6843F080534B600023FC
:102DC00083F31188BFF36F8F9368D86F704700BF8C
:102DD000D81F002000ED00E010B5114A91680346AD
:102DE00081F8C100EFF31181202181F31288BFF334
:102DF0006F8F906990600B4A4FF00061516090F8BE
:102E0000C14023F0FF0300221C43836F826783F3DA
:102E10001188BFF36F8F00F0C5F9204610BD00BFC9
:102E2000D81F002000ED00E019498A6882F8C1E04F
:102E30004FF030001044EFF3098C80E8F01F1EF0D3
:102E4000100F03D102F1800080EC108A74467046A6
:102E5000FFF7C2FFA6460E498A6886461EF0100F8D
:102E600003D00023E1EE103A03E002F1800090EC81
:102E7000108AEFF3148323F0040383F31488BFF361
:102E80006F8F02F1300090E8F01F8CF309887047D3
:102E9000D81F00201EF0040F0CBFEFF30880EFF3E3
:102EA0000980816911F8021C0229FFD001B507F0E1
:102EB00050FE01BD40B2002807DB044A410901234E
:102EC00000F01F00834042F82130704700E100E02D
:102ED00040B200280CDB4309064900F01F002033F4
:102EE0000122824041F82320BFF34F8FBFF36F8F41
:102EF000704700BF00E100E0054B420900F01F00F1
:102F000053F82220012303FA00F01040704700BF5D
:102F100000E100E040B20028A8BF00F1604001F1EC
:102F20000101B8BF064B4FEA4111ACBF00F561404B
:102F300000F00F00C9B2B4BF195480F800137047F5
:102F400014ED00E0144A08B5144B22F07F029A6099
:102F5000BFF34F8FBFF36F8FD3F8882022F4700236
:102F6000C3F88820D3F8882042F4A002C3F8882050
:102F70004FF04042C3F83422BFF34F8FBFF36F8F3F
:102F80000023E1EE103A03F0C1FF04F03DFF00F032
:102F9000DFF803F0FFFF00BF0000000000ED00E0DD
:102FA000017B890705D5816E40318166C16E40394C
:102FB000C16642F8203C009B42F81C3C0F49019B33
:102FC00042F8183C029B42F8143C21F001014FF0FA
:102FD000807342F8043C42F8081C00238367037B9B
:102FE00013F0020FA2F120024FF6085308BF4FF46E
:102FF0007D430265C0F8C030704700BF67A3000082
:10300000037B13F0020F194B03D190F8C120D206B5
:1030100017D45A6B42F080425A63D0F8C030190777
:1030200009D443F00803C0F8C030836E4033836690
:10303000C36E403BC366037B43F0020303738020EF
:1030400070475A6B22F080425A63D0F8C0301A079A
:1030500001D44020704723F00803C0F8C030836ECD
:10306000403B8366C36E4033C366F2E700EF00E087
:103070000C4A03469068A0B1D0F8C020806E12F0D0
:10308000080F0CBF4022802213F1160F04D0821AC1
:103090009A4205D8834203D2814228BF002070475C
:1030A00000207047D81F0020104B9B6883421AD124
:1030B000EFF30580B8B9EFF31181202282F3128873
:1030C000BFF36F8F1A7B22F002021A73EFF314839F
:1030D00023F0040383F31488BFF36F8F81F3118807
:1030E000BFF36F8F70476FF015007047D81F002037
:1030F00008B515460E460022E1EE102AEFF31482C1
:1031000022F0040282F31488BFF36F8FBFF36F8F36
:10311000094A906000F046F82C4686F309884FF083
:103120000000064B984720464FF000014FF0000288
:103130004FF00003024C2047D81F002071AB000065
:1031400067A30000014B10221A61704700ED00E0F8
:10315000044800232021C2180133302B82F80013C9
:10316000F9D1704700E100E008B5EFF30583064AA6
:10317000103B02EBC30152F8330049688847BDE8B1
:103180000840FFF729BC00BF5CC00000024B034AA7
:103190000348012100F07CB800000420000000205A
:1031A0000CC3000010B50446FFF72AFFA26E0346C9
:1031B0000548D21AC0E90023044B8360BDE81040E3
:1031C000012100F06FB800BFD413002000000B15E0
:1031D000084AC2F898000B6823F01F03034343F02A
:1031E0001003C2F89C308B6843F00103C2F8A03092
:1031F000704700BF00ED00E02DE9F043DFF860808C
:1032000085B00E461F4604464FF00009B14523DA4B
:103210006068D8B13FB1411E08421BD11F2819D99F
:103220002368194216D12368019307F0C4FCA368F0
:1032300003430393D8F89050C5F30725D0B2013D5E
:10324000A84207D801A9FFF7C3FF421C09F10109F1
:103250000C34DBE76FF01502104605B0BDE8F083D3
:1032600000ED00E0044B0522C3F89420BFF34F8F1C
:10327000BFF36F8F704700BF00ED00E0BFF35F8FBB
:10328000024B0022C3F89420704700BF00ED00E01D
:1032900010B5034C01232278FFF7AEFF207010BD5C
:1032A000A823002008B50B4A00231278FFF7A4FFDB
:1032B00010F1160F07D0084A0021D2F89030C3F35E
:1032C0000723984200DB08BDC2F89800C2F8A0109E
:1032D0000130F2E7A823002000ED00E02DE9F043E3
:1032E000534B544CD3F890302568C3F307239D42C9
:1032F00085B000F29A80FFF7C1FF00200C268542BE
:103300001AD14D4C4D4F25706846FDF73BFFDFF855
:103310002081DFF82C9106460025AE4213D1237898
:1033200043490020D1F89020C2F30722934276DB74
:10333000FFF798FF002042E0616806FB0011FFF7ED
:1033400047FF0130DBE7009800EB05114FEA051C51
:10335000CB683B40B3F5000F48D00AD8B3F5001F47
:1033600030D0B3F5800F36D0B3F5801F10D00135C3
:10337000D3E7B3F1807F42D0B3F1007FF7D150F8AB
:103380000C3088684A6807F016FC40F4802009E099
:1033900050F80C3088684A6807F00DFC40F08850FF
:1033A00040F43020CDE901230390D8F89030207804
:1033B000C3F30723013B98422AD96FF0150005B0EB
:1033C000BDE8F08350F80C3088684A6807F0F3FBDA
:1033D00040EA0900E6E750F80C3088684A6807F0D0
:1033E000EAFB40F0007040F40030DBE750F80C30AE
:1033F00088684A6807F0DFFB40F08270D2E750F837
:103400000C3088684A6807F0D6FB40F08870C9E73E
:1034100001A9FFF7DDFE237801332370A7E7C1F888
:103420009830C1F8A00001337CE74FF0FF30C6E7C9
:1034300000ED00E018C30000A82300200000F0FF0A
:1034400000000811014B1860704700BF780300208E
:103450000E4A0123C2F840354FF080424FF08051B0
:10346000C2F87835D1F83001082808D1D1F83411E4
:10347000052904D80648415C09B1C2F838364FF036
:1034800080430122C3F880250020704700E00140FE
:1034900038C9000020B1034B800143F001031847F5
:1034A000704700BF10C20000020600F07F0312D573
:1034B000082B05D1010700F00F0306D50E48704711
:1034C00010F0780F12D100F00F034C2000EB4310E6
:1034D0000A4B18447047082B05D1020700F00F0370
:1034E00006D50748704710F0780FF6D000207047D7
:1034F000044800EB431070472C150020E013002017
:103500004C1600204C1500200149024808F09BB9D8
:1035100008140020200800200146014808F01DB9C9
:103520004C05002002480022002303F095BE00BF96
:103530004C05002013B5124800F0D8FE114B9842FC
:103540001AD1114803F07AFB0024104803F0BCFBA9
:103550000F49104800944FF0FF334FF4886203F096
:10356000EDFF0D490B4808F090F90C480C4908F0A4
:103570004EF9204602B010BD6FF00400FAE700BF1C
:10358000893700000000AD0B4CC9000038C30000B3
:10359000802C0020200800203EC9000008140020D4
:1035A000A538000010B50E49BFF35B8F002351E82A
:1035B000002F012A03D141E800300028F7D1BFF3E2
:1035C0005B8F0CD151F8044C1439204606F0CEFF25
:1035D000783004D12046BDE8104006F0A3BF10BDEE
:1035E0000014002038B5002464F07F00C0B2FFF75B
:1035F0005BFF013407F021FB082CF5D10E4D0024B0
:10360000E0B2FFF751FF036903B90561013407F028
:1036100014FB082C05F14005F2D1084807F00DFB1A
:10362000074BD3F87C2212B9064AC3F87C2206481D
:1036300007F003FB002038BD701A00202C15002075
:10364000E0130020701600204C16002010B5054C29
:10365000FFF768FF20B14168204607F0CEFFF7E78B
:1036600010BD00BFB404002007B500230E4800229F
:1036700001A903F00FFD90B1FFF7E8FF0A4800220F
:10368000002301A903F006FD38B901980423406026
:103690000374FFF741FFFFF737FF002001E00198B7
:1036A000406003B05DF804FBB4040020022810B5AC
:1036B00011D8094B1C5CFFF7D7FF60B100220274E0
:1036C0000472FFF729FF054B93F824301BB1BDE8C6
:1036D0001040FFF719BF10BD49C90000E0130020DA
:1036E000F8B5877806463846FFF7DEFE3B06F578E4
:1036F000044612D5002D43D1FFF7B6FF034600283C
:103700003ED00122A5770274032202739C60FFF76A
:1037100003FFBDE8F840FFF7F7BE4DB1012D2FD1F3
:10372000FFF7A2FF034658B3657705740573EDE70D
:10373000FFF79AFF20B3B278124B12F0800F02F01D
:10374000080111D041B1D3F8A836E3600123037416
:10375000022303738460DAE702F00F02142101FBF5
:103760000233D3F80836F0E711B1D3F8A837ECE705
:1037700002F00F02142101FB0233D3F80837E4E70B
:10378000F8BD00BF00700240F0B5064689B01422B3
:10379000002103A807F041FA3378013B052B21D81B
:1037A000DFE803F07A0314146A1603238DF814304B
:1037B0000024FFF759FF0346A0B1047400F108028A
:1037C000DDE9050182E8030018461DE00423EDE76A
:1037D000B7783846FFF768FE837A044623B1013B89
:1037E000022B43D909B0F0BD3B06F57813D5002D67
:1037F000F8D1FFF739FF03460028F3D00122A5775F
:103800000274032202739C60FFF786FE09B0BDE8D4
:10381000F040FFF779BE55B1012DE3D1FFF724FF4A
:1038200003460028DED0657705740573EBE7FFF7E4
:103830001BFF07460028D5D001230374022303731E
:10384000846004F10C01B07807F058FA134AE1687B
:10385000B2F88C328B4206D95B1AA2F88C3201F096
:1038600099F83846D0E7A2F88C52FAE7304609B00A
:10387000BDE8F040FFF734BF01A801F065F89DF8FE
:103880000530052B04D19DF8043013F0600FA9D04A
:10389000034B059301248CE702248AE7E013002000
:1038A0004C1500202DE9F043A74CDFF8A09285B01D
:1038B0008046FFF737FE064610B905B0BDE8F08335
:1038C00094F82530327C3BB9002A00F0888071687A
:1038D0009E4807F092FEECE7042A44D8DFE812F095
:1038E0007F000500020118014201337BB568032BFC
:1038F00039D8DFE803F0023F5C616F6908220021DC
:10390000384607F08AF9924B9248D3F880243A70EF
:10391000D3F884247A70D3F88824D3F88C1442EA3C
:1039200001227A80D3F89024D3F8941442EA012239
:10393000BA80D3F89824D3F89C3442EA03230822AF
:10394000FB803946EA6007F05DF92B68687A002150
:10395000984797F90030002B08DBFB8833B1A4F8B7
:103960008C3201F017F871684846B2E70023A4F8DA
:103970008C32F8E76B7F002BF5D02B7F002BF2D039
:1039800000276F774FF0FF3273482F774FF0FF33E8
:1039900007F066F96B6901936B68CDE9023701A9FD
:1039A000687A00F0F9FC6C4807F05CF9DBE72B68FB
:1039B0000121687A9847D6E7AB7A6BB9EB7F5BB9A0
:1039C00065484FF0FF324FF0FF3307F049F900F040
:1039D000E7FF614807F046F92B680221E9E7327AF0
:1039E000042AC0D8DFE802F059032367730000F00F
:1039F0004BFC05460028B6D100F086FBBFF35B8F79
:103A00005649012351E8002F002A03D141E8003034
:103A10000028F7D1BFF35B8FA5D141F8085C41F8CE
:103A2000105CE0696361143906F025FD9BE7002511
:103A300065F07F00C0B2FFF737FD037A13B1407A1B
:103A400001F012F90135082DF2D194F854311BB16F
:103A500094F8550101F008F90025E8B2FFF724FDBC
:103A6000037A13B1407A01F0FFF80135082DF4D143
:103A700094F874321BB194F8750201F0F5F8002047
:103A800000F0E6FB012384F825302368002B3FF487
:103A90006AAF00210220984765E7002584F8255089
:103AA00001F048F8FFF77EFD2368002B3FF45BAF81
:103AB00029460420EFE7002B3FF455AF00F0EEFB62
:103AC0002368002B3FF44FAF00210520E3E7226875
:103AD000002A3FF448AF002B3FF445AF00210620F9
:103AE000904740E708F110054FF0FF334FF0FF32E9
:103AF000284607F0B5F8FFF775FD284607F0B2F83D
:103B000058F8283C002B3FF42EAF00210120C2E7DB
:103B100094F874327BB1012584F8895284F8885274
:103B2000FFF7A2FD38B10E4A057405738260FFF7F6
:103B3000F3FCFFF7E9FC58F8283C002B3FF413AFE7
:103B400000210A20A7E700BFE0130020B4040020F2
:103B500000700240E413002018140020001400201C
:103B60004C16002007F0D9FC00F0E4FF00F0C2FA88
:103B7000FFF76CFDFFF736FD07F0C8FC014800F0C9
:103B8000B5FBF0E68937000038B5164D95F82440AE
:103B90002CBB05F1380007F068FD204601F0BCF9A8
:103BA00022460121E8612720FFF7B4F907F0AEFCB7
:103BB000FFF718FD044610B9012385F824300A4B9D
:103BC0001B680BB1FFF7A0FC4FF08043D3F83834EB
:103BD000DB0702D50020FFF769FD204638BD002431
:103BE000FBE700BFE01300204C05002010B50D4896
:103BF0004FF0FF324FF0FF3307F032F8FFF726FDAA
:103C000000F042FB08B100F095FFFFF7CBFC07F096
:103C100084FC0548002480F82440383007F022F85E
:103C2000204610BD18140020E0130020074B93F825
:103C300024203AB193F82530002B14BF00206FF0F8
:103C4000120070476FF01200704700BFE0130020B1
:103C500038B5104B93F824300446C3B10578284694
:103C6000FFF722FC10B96FF0150038BD45722379BB
:103C70008372638843602078618810F0080F02D156
:103C80004B1E0B42EFD107F034F80020EDE76FF048
:103C90001200EAE7E013002038B5124B93F8242015
:103CA0000546CAB193F82530B3B1FFF7FDFB0446D2
:103CB000A8B1837A012B12D007D9023B012B07D977
:103CC0006369A3610020E06038BD00F06FFEF7E794
:103CD000284600F00DFEF3E76FF01200F4E76FF0F6
:103CE0001500F1E7E013002038B50E4B93F82420BF
:103CF000054682B193F825306BB1FFF7D5FB68B16B
:103D000015F008040AD1284600F014FE284600F0F9
:103D1000E3FF204638BD6FF01200FBE76FF015009F
:103D2000F8E700BFE013002038B50C4B93F82420CF
:103D300005460C4662B193F825304BB1FFF7B4FB52
:103D400048B144B1284600F0DBFD2070002038BDAA
:103D50006FF01200FBE76FF01500F8E7E0130020AA
:103D600070B5134E96F824300446C3B1FFF79CFBA0
:103D70000546B8B1230705D4204600F0DBFD2046F8
:103D800000F0AAFF2B7A83B901232B7296F8253015
:103D90000BB9002070BD204600F066FFF9E76FF018
:103DA0001200F7E76FF01500F4E76FF07700F1E726
:103DB000E01300202DE9F043DFF8EC801E4698F870
:103DC000243085B0074689461546002B61D098F807
:103DD0002530002B5DD003065ED5FFF765FB04465A
:103DE000002859D0037A002B56D04FF0FF334FF004
:103DF000FF3208F1380006F033FFA37F4BB108F122
:103E0000380006F02FFF6FF00A04204605B0BDE829
:103E1000F083A37AC5B13BB30123A3774FF0000829
:103E200001A93846CDE90195CDF80C8000F0B4FA2F
:103E30001B4B984229D084F81E801EBB6FF00404EF
:103E4000184806F00FFFE0E7E27F02B1E577002BAC
:103E5000E2D100F0B1FDB842DED000F0A1FD114882
:103E600006F000FF0024D0E7B8F80A30AB42F0D9E2
:103E70006268B5FBF2F302FB1353002BE9D1012377
:103E8000E377E6E7C6F80080D8E706B1356000249E
:103E9000D6E76FF01204B8E76FF01504B5E700BF7E
:103EA0000000AD0B18140020E01300202DE9F041B4
:103EB0001D46204B174693F824200E46002A33D087
:103EC00093F8253083B3030631D401B97FBBFFF7E4
:103ED000EBFA044658B3037A4BB34FF0FF3316485E
:103EE0004FF0FF3206F0BCFEE3689F42B84628BFA1
:103EF000984646B93FB905B12B600F4806F0B2FEAF
:103F00000020BDE8F081A1694246304606F07AFE05
:103F1000A3694344A361E368A3EB0803E360002DB6
:103F2000EBD0C5F80080E8E76FF01200E9E76FF02A
:103F30001500E6E7E01300201814002070B51E4DB0
:103F400095F82420034682B395F825206AB31B0612
:103F50002ED4FFF7A9FA044650B3037A43B34FF0C7
:103F6000FF334FF0FF3205F1380006F079FEE368C9
:103F7000B3B9012663692677A361637F83B1FFF735
:103F800073FB30B905F1380006F06CFE6FF00B00E2
:103F900070BD067484600673FFF7BEFAFFF7B4FACB
:103FA000064806F05FFE0020F2E76FF01200EFE730
:103FB0006FF01500ECE700BFE0130020181400209C
:103FC00010B5084B93F824300C462BB1FFF76CFA70
:103FD00028B10460002010BD6FF01200FBE76FF005
:103FE0001500F8E7E0130020014B1860704700BF90
:103FF000E013002008B5074B93F8243023B1FFF7F6
:1040000053FA20B1406808BD6FF01200FBE76FF073
:104010001500F8E7E01300204FF08053D3F830216B
:10402000082A06D1D3F83431052B04D8034AD05CD2
:104030007047002070470120704700BF4DC9000045
:10404000064B10F0800FA3F1D80208BF134600F012
:104050000F00182202FB0030704700BF881D0020AF
:10406000EFF31180202383F31288BFF36F8F0A4B85
:10407000D3F8001C032261B949F27531C3F8001C62
:10408000C3F8142DC3F8001C80F31188BFF36F8FA1
:104090007047C3F8142DF7E700E00640EFF31180F6
:1040A000202383F31288BFF36F8F0A4BD3F8001CD1
:1040B00061B949F27532C3F8002CC3F8141DC3F876
:1040C000002C80F31188BFF36F8F70470022C3F874
:1040D000142DF6E700E006404FF08053D3F830315E
:1040E000082B02BF024B0022C3F81C2C704700BFF4
:1040F00000700240024A00231360024A13707047A6
:10410000681E0020AD23002008B54A4B4FF4006222
:10411000C3F80024FFF780FF08B1FFF7A1FF4FF0BD
:104120008053D3F83031082B18D1EFF311802023BE
:1041300083F31288BFF36F8F3F4BD3F8001CC0226C
:1041400000296ED149F27531C3F8001CC3F8142C54
:10415000C3F8001C80F31188BFF36F8F354B012229
:10416000C3F80025D3F800241205FBD54FF40062F4
:10417000C3F800244FF08053D3F83031082B17D107
:10418000EFF31180202383F31288BFF36F8F2A4B44
:10419000D3F8001C002947D149F27532C3F8002C2E
:1041A000C3F8141CC3F8002C80F31188BFF36F8F81
:1041B000FFF732FF30B1FFF771FFFFF72DFF08B1B6
:1041C000FFF74EFF4FF08053D3F83031082B194BD7
:1041D0000AD140F2E372C3F800284022C3F8042851
:1041E000BFF36F8FBFF34F8F8022C3F81C250122CE
:1041F000C3F83025114B40F2FF121A60104B00211A
:104200001960104B1970FFF767FF0F4B19700F4BB8
:1042100002221A70FFF700FF50B1BDE80840FFF717
:104220003DBFC3F8142C95E70022C3F8142CBBE75C
:1042300008BD00BF0070024000E00640641E002080
:10424000601E0020A9230020AB230020AD23002006
:10425000094B002210B51A70084A094B094C002876
:1042600008BF1346C4F800332720FEF723FE0123BE
:10427000C4F8043510BD00BFAC230020FDFFDF01F2
:10428000FDFFFF0100700240034B1878012894BF26
:1042900000200120704700BFAD23002010B5EFF3D0
:1042A0001181202383F31288BFF36F8F0D4B1B788E
:1042B00003F0FF0083B10C4BD3F8002412F400721A
:1042C0000AD10124C3F82C45D3F82C45D3F8004477
:1042D000A40502D5C3F82C25002081F31188BFF373
:1042E0006F8F10BDAC23002000700240F8B51C4B4E
:1042F0001C7894BB1B4A106001221A7040F2FF1711
:10430000264664F07F0514F0080FEDB214BF39465D
:104310004021284606F0EDFC2846FFF791FE0134C7
:10432000092C867506730661EBD1002440F2FF1755
:10433000254614F0080FE6B214BF39464021304636
:1043400006F0D7FC3046FFF77BFE0134092C85755B
:1043500005730561EDD10448F8BD0448FCE700BFD2
:10436000AD230020681E00200000AD0B0500AD0B42
:10437000084B10F0800F00F00F0114BFD3F8102588
:10438000D3F8142501238B40134214BF01200020D1
:10439000704700BF007002402DE9F8430246EFF37A
:1043A0001187202383F31288BFF36F8F030703D194
:1043B000184B1B78834229D1174B184E1C6835685F
:1043C000104606F08EFCE443A4B24FF001092C43E2
:1043D00009FA00F814EA08041AD11046FFF730FE73
:1043E00080F80C90034607C91C6183E807009C75A0
:1043F0000B4B0C4845EA080580223560C3F80421C0
:1044000087F31188BFF36F8FBDE8F8830648F7E79D
:104410000648F5E7AB230020641E0020601E002044
:1044200000E100E00000AD0B0A00AD0B0B00AD0B8E
:1044300010F0080F074B06D0D3F8C00410F4803FEB
:1044400018BF0020704700F00F0000F5947053F87B
:1044500020007047007002402DE9F74FA84BD3F8B9
:10446000604134B10022C3F86021D3F86C44C3F832
:104470006C44D3F828214AB10022C3F82821A14B6B
:10448000187806F02EFC012383401C439E4F9F4E5C
:104490003D7897F9008015F0080143D1B8F1000F7D
:1044A00005F00F032EDA9A4A52F8230020B342F89F
:1044B00023101422534303F1804303F51C33D3F834
:1044C0000836944A117803F001034B401370FFF74C
:1044D00003FE914802F0F2FE2846FFF7B1FD837D0E
:1044E000032B37D1284606F0FCFB012303FA00F02A
:1044F000336823EA00033360DFF82C92DFF8208270
:1045000001255FE0854A52F823000028F4D042F8E4
:1045100023101422534303F1804303F51C33D3F8D3
:104520000837CEE7B8F1000F754B09DBD3F85021FF
:10453000002AE1D00022C3F85021D3F8A837C0E701
:10454000D3F82C21002AD7D00022C3F82C21D3F88D
:10455000A836B6E7037BDBB9284606F0C2FB012389
:1045600003FA00F03368B8F1000F23EA0003336068
:1045700001DA882DC0D106238DF8043000238DF890
:104580000730674B8DF806501B6801A89847B3E7C2
:10459000002DB1D15A4B0122DA64ADE794FAA4F0B0
:1045A000D9F80020B0FA80F005FA00F31A430F287A
:1045B000C9F8002024EA0304326840F3B7801342AC
:1045C00000F0C580002CE9D14D4BD3F800215AB141
:1045D000C3F80041534B1C704A4B1C7001230193DC
:1045E0004F4B01A81B689847454BD3F85421EAB1BB
:1045F0000022C3F85421D3F80413890216D58DF88C
:104600000420D3F82025ADF80620D3F8C034002BC1
:10461000D9F8003014BF4FF001224FF480721343D9
:10462000C9F800303E4B01A81B689847344BD3F8BB
:104630005821002A2ED00022C3F85821D3F8004474
:10464000C3F80044E30508D5364B01221A70022353
:104650000193334B01A81B689847A50508D5314B3A
:1046600000221A70032301932D4B01A81B68984761
:1046700060050FD52B4B1A7862B100221A70204BBF
:104680000122C3F808259A6504230193244B01A84D
:104690001B6898471A4BD3F85C310BB31E4B9B68D1
:1046A00013B93B7859061BD0154B0022C3F85C2187
:1046B000D3F88034134A23F07F031370336823F058
:1046C00001133360D9F8003023F4803343F0010341
:1046D000C9F8003005230193114B01A81B689847C6
:1046E0003268D9F800301A4207D00B480022002364
:1046F00002F008FE002800F09F8003B0BDE8F08FB4
:1047000000700240AB230020AA230020601E00207E
:1047100008710240A92300203405002030710240B6
:10472000681E0020AC230020641E002013407FF48C
:1047300049AF062260F07F018DF804208DF8061045
:104740008DF80730D8F8003001A898473AE70623DB
:10475000A0F110018DF804308DF806108DF8075087
:10476000F0E718F0012314BF93FAA3F898FAA8F819
:10477000B8FA88F8B8F10F0F18D9A8F11005EDB202
:104780002846FFF75DFC04462846FFF751FE6368A4
:10479000B4F814C02268984230D81B1A00EB020EFD
:1047A00011466360C4F800E082462AE048F08005C4
:1047B0002846FFF745FC4368B0F814A001689A4505
:1047C00028BF9A4601F06043B3F1005F044604D06D
:1047D0004348524606F016FA41492268636852443B
:1047E0002260A268A3EB0A03D20768B2636033D5E4
:1047F000BAF1000F32D1002323732FE011464FF09E
:10480000000A604525D1003B18BF01231AB350456B
:1048100021D9012303FA08F32BEA030333600623AB
:104820008DF804302F4B8DF8065002221B68A275BC
:104830008DF8072001A89847D6F800B0D9F80030C5
:104840001BEA03088DD1284803B0BDE8F04F02F001
:1048500035BD0023DAE768B2002BCCD04FF080538F
:10486000D3F83031082B02BF204B8222C3F81C2C16
:10487000D9F800303D70012202FA08F823EA080353
:10488000C9F80030236915F0080F53442361174B12
:1048900017D1002805F00F054FF0140000FB05307C
:1048A000B5BF03EB85030A35C0F80016C0F8001742
:1048B000B5BFC0F804A6C0F804A75A6043F8252085
:1048C0001BE70028B5BFC3F8A016C3F8A017C3F8AC
:1048D000A4A6C3F8A4A7B4BF5A629A640DE700BFA8
:1048E000701C0020681E002034050020007002406B
:1048F000024B40F48070C3F8180570470070024006
:10490000030713D400F00F0310F0800F084A0BBF09
:1049100003F5887303F5847302EB830252F82300D6
:1049200008BF5068003818BF01207047002070474A
:1049300000700240034BC3F80C0540F48070C3F8CC
:104940000C0570470070024010B508220021044693
:1049500006F063F90E4BD3F880242270D3F8842438
:104960006270D3F88824D3F88C1442EA0122628062
:10497000D3F89024D3F8941442EA0122A280D3F809
:104980009824D3F89C3442EA0323E38010BD00BF8F
:1049900000700240014B0122DA647047007002404F
:1049A000014B01221A65704700700240014B012241
:1049B0005A65704700700240014B1878704700BF7D
:1049C000AB23002010B50246EFF31184202383F3BC
:1049D0001288BFF36F8F06F084F90B49012303FAA5
:1049E00000F00B6823EA00030B6012F0080101BF1E
:1049F00002F00F02054B02F5947243F8221084F383
:104A00001188BFF36F8F10BD641E0020007002403C
:104A1000F7B50146EFF31185202383F31288BFF326
:104A20006F8FFFF70DFB0646084606F05AF9012284
:104A300011F0800F02FA00F22D4818D1036832EA13
:104A400003040AD00846FFF7BDFF0323B37585F3BF
:104A50001188BFF36F8F03B0F0BD2649347323EA8A
:104A6000020303600B6823EA02030B60EDE70B0708
:104A700015D48029204B2FD001F00F0404F2DA3432
:104A80006400C3F80048D3F80448D3F80478E4B2CB
:104A900044F002043C43C3F80448D3F80438154FEB
:104AA00004683B6864EA030C1CEA020FCFD013438E
:104AB0003B60002333730323B3758DF807300F4B2E
:104AC0008DF8061024EA0204062204601B688DF8A3
:104AD000042001A89847BAE740F2B474C3F800482C
:104AE000D3F80448D3F80478E4B244F00404D1E7DE
:104AF000601E0020641E002000700240681E00201E
:104B000038B50446094D4FF0FF324FF0FF332846C9
:104B100002F0F8FB2046FFF77BFF284602F0CEFBB1
:104B2000034B8022C3F8042138BD00BF34050020A8
:104B300000E100E0F8B54FF0FF324FF0FF332B48B3
:104B400002F0E0FB2A4B8022C3F884212720FEF7E5
:104B5000D3F998B1274E284B34681B68240C2404E1
:104B60001C43012764BB254D40F2FF13336027200F
:104B7000C5F80445FEF7ACF9C5F80043204A1378A0
:104B80008BB11E4B0021C3F808110121C3F8002688
:104B9000C3F804165960D3F808110029FBD000218E
:104BA000C3F808111170154B0022C3F80025FFF758
:104BB00093FA0E4802F082FB124B01221A70F8BDE4
:104BC00094FAA4F5B5FA85F50F2D2846C6BFA5F1D0
:104BD0001000C0B240F08000030701D4FFF718FFB7
:104BE00007FA05F524EA0504BCE700BF34050020F8
:104BF00000E100E0641E0020601E00200070024002
:104C0000A9230020AD23002010B504464FF0FF3249
:104C10004FF0FF33114802F075FB2046FFF7F8FE16
:104C200004F00F02012393400D4A14F0800F14BFCB
:104C3000D2F81015D2F814156FEA030315BF0B4014
:104C40000B40C2F81035C2F81435044802F036FBA8
:104C5000044B8022C3F8042110BD00BF340500209E
:104C60000070024000E100E070B50446FFF780FBF1
:104C700068B904F00F02012514F0800F144B05FAF7
:104C800002F205D0D3F810150A43C3F8102570BD01
:104C9000D3F814150A43C3F81425631E062BF6D85F
:104CA000EFF31186202383F31288BFF36F8F204622
:104CB000FFF788FE204606F014F8064A1368854080
:104CC00023EA0503136086F31188BFF36F8FDEE7D5
:104CD00000700240601E0020030610B5044605D493
:104CE000FFF70EFE10B12046FFF76CFE014BC3F834
:104CF000184510BD00700240084B70B5C31A0D4630
:104D000007499B10044659430648402206F015F80F
:104D10002B4601462046BDE870401847801E002003
:104D2000B76DDBB6E4BF000073B50C4C0C4A4023F2
:104D3000041B00930D460B460A49A4106143064626
:104D4000094806F025F8011E05DA30462B4602B068
:104D5000BDE87040184702B070BD00BF801E002043
:104D6000F9AD0000B76DDBB6E4BF000010B5EFF39E
:104D70001184202383F31288BFF36F8F074A1368CF
:104D800023F00201DB07116002D4012006F022FBB0
:104D900084F31188BFF36F8F10BD00BFD01E0020B9
:104DA000002270B5012104461046FEF7B3F80F4803
:104DB00001F06AFA0E4B984215D101F075FA266996
:104DC0000C49304605F044FB00280BDB0125356417
:104DD0002469084904F11C0005F03AFB002801DBB6
:104DE000E564002070BD6FF00400FBE7FD4E00009D
:104DF0000000AD0B3CC300007FB500220123CDE9CC
:104E0000022304ABCDE90433094ACDF800D06B4648
:104E1000CDF804D005F0E9FF002805DB4FF480420F
:104E20000023684602F06EFA07B05DF804FB00BF8D
:104E300019AE000030B4104B0C2202FB00330146C7
:104E40000020D3E90E529863EFF31180202484F3FD
:104E50001288BFF36F8F1C6C04F0C00444F002048E
:104E60001C6480F31188BFF36F8F1DB12B4603487C
:104E700030BC184730BC7047801E0020E4BF0000E3
:104E800010B4EFF31182202383F31288BFF36F8FE6
:104E90001848016841F002040460C80708D482F38E
:104EA0001188BFF36F8F01205DF8044B01F014BA35
:104EB0004FF08041D1F80C04D1F80C14C907EED59D
:104EC000EFF3118083F31288BFF36F8F0A490B6CE5
:104ED00003F0C00343F002030B6480F31188BFF3B7
:104EE0006F8F82F31188BFF36F8F00205DF8044B42
:104EF000FFF7A0BFD01E0020801E002010B10128A7
:104F000004D07047034B1B6C5B0701D1FFF792BFC6
:104F1000704700BF801E0020024AC3B21C2003FB62
:104F200000207047801E00202DE9F0413849BFF372
:104F30005B8F0746012251E8003F41E8002000282E
:104F4000F9D1BFF35B8F33B9324933484B60CB6043
:104F50008A6005F090FA7B1E012B2BD8012F07D118
:104F60004FF08043D3F81C3403F00303012B21D00E
:104F700006F085FC0546F8B9284B1B78E3B14FF0E5
:104F800080430222C3F808230646DFF894804FF0DE
:104F90008044D4F81824D4F81834D20315D503F07B
:104FA0000303012B01D0012F0FD155B386F31188D4
:104FB000BFF36F8FBDE8F081EFF31186202383F3F9
:104FC0001288BFF36F8F0125DFE7ADB1304605F0E2
:104FD000E3FDD4F81835002BDBD1D4F80421002AE6
:104FE000D7D0C4F80431D4F804310123C4F81835FB
:104FF000C8F88031A360CCE70021212002F02AFE0E
:10500000E7E74FF080430222C3F80423D2E700BF52
:105010007C1E00206C1E00209C1E0020E327002028
:1050200000E100E008B5074806F091FA38B10648FB
:10503000FEF708FA0448FBF76FFD002008BD6FF08B
:105040001200FBE734C000004D5000000A2838B5BC
:10505000074D044604D1AB680D215B68284698478C
:10506000AB6803485B68E1B29847204638BD00BF93
:1050700034C00000024B0B6001231360704700BF77
:10508000D41E00200048704790C3000010B50122D4
:1050900011460648064C06F06BFB06F027FA206026
:1050A00006F020FA6060002010BD00BFDC1E00206A
:1050B000D41E00204FF08042D2F81015D2F81035DF
:1050C00001F01E0123F01F030B4343F00103C2F85C
:1050D0001035024B00221A70704700BFAE2300202B
:1050E0004FF08053D3F83031082B20D14FF080425D
:1050F000D2F81015CB071AD5D2F8103501F01E01E1
:1051000023F01F030B43C2F81035D2F808315BB10E
:10511000D2F8103523F01F030B4343F00103C2F80C
:1051200010356FF08B007047024B01221A7000207F
:10513000704700BFAE2300202DE9F0410D46164612
:1051400006F0D0F931460746284605F068FE78B3E8
:10515000B5FBF7F307FB135353BBB6FBF7F407FBA1
:1051600014642CBBB7421DD84FF0FF324FF0FF3311
:105170001148DFF8488002F0C5F806F0B3F9074699
:10518000FFF7AEFF044680B9284601F029FD98F8E4
:1051900000300BB1FFF78EFFF61B3D44F0D10648FF
:1051A00002F08CF82046BDE8F0816FF08B04F6E742
:1051B0006FF01504F6E700BFDC1E0020AE230020D0
:1051C0002DE9F8430E463046194617461C4605F0B1
:1051D00026FE88B344EA060515F003052CD1BCB1C0
:1051E0001748DFF864904FF0FF324FF0FF3302F0C2
:1051F00089F824F00304AC4206EB05080BD1114AF0
:10520000D2F80034DB07FBD500240D4802F056F835
:105210002046BDE8F883FFF763FF50B9795940464F
:1052200001F0FEFC99F800300BB1FFF743FF0435A5
:10523000E1E76FF08B04E8E76FF01504E8E700BFE3
:10524000DC1E002000E00140AE230020F0B54068E5
:10525000057B01F01F0444EA4514056987B0002D61
:1052600064D0B2F5001F00F1100506D12146284692
:1052700006F030F9002007B0F0BD01AE0027B2F50E
:10528000800F0197776039D1B3F1007F14BF0523F8
:1052900004238DF804300023CDE90463039383686D
:1052A00023FA01F111F001011AD1B2F1A07F17D157
:1052B00004F01F03620903F5E0732AD0012A3BD1F1
:1052C0001F4A52F82330DB070AD40DF10306324699
:1052D0002146284601F0DEFA1A4B98421CD002966D
:1052E00003AA2146284601F097F9174B984220D18E
:1052F00001222146284601F031FBBBE7B3F1C06F24
:1053000005D0B3F1007F14BF01230223C1E70323BB
:10531000BFE74FF0A042D4E73146284601F018FB22
:10532000094B9842DBD06FF00B00A4E76FF08500CB
:10533000A1E76FF015009EE751F82330FFDE00BFB4
:10534000000300500400AD0B0000AD0B38B54568FC
:105350002B69B3B11035284601F0EAFA044680B94A
:105360000146284601F0B0FA084B98420BD1084993
:105370002246284601F088FA224605210620FDF73C
:10538000C9FD002038BD6FF00400FBE70000AD0B45
:1053900095530000420970B5034602D0012A17D088
:1053A00070BD0D4E326951680029F9D003F01F031A
:1053B00001250C689D400029F2D08A682A4002D05D
:1053C0004B68304698472CB1236821461C46F2E7CB
:1053D000024EE7E72346F8E70CC00000F8BF0000E4
:1053E0002DE9F043466840F20635D006337B87B09E
:1053F00002EA050554BFC2F34010032001F01F0765
:10540000B5F5837F144647EA43178DF8030044D06F
:105410000FD8062D18D007D8B5B1022D3FD06FF0A8
:10542000150007B0BDE8F083B5F5807FF7D1012501
:105430000AE040F20222954233D0B5F5407F32D0E7
:10544000B5F5007FEBD1022522032ED5726801232A
:105450008B40C2F80835326992BB07F01F037F0901
:105460002BD0012F79D13F4A02EB830284F48033A1
:10547000D2F80017C3F30043C4F3404444EA4304A2
:1054800021F4E16144EA800421F0070144EA0523A4
:105490000B43C2F800370020C3E70725D4E70425F3
:1054A000D2E70525D0E70325CEE7630341BF0123FB
:1054B00072688B40C2F80C35CDE74FF0A042D3E7BD
:1054C00010360DF102023946304601F0E3F914F4CA
:1054D000403F80460CD13946304605F0F9FF224B5B
:1054E0009845D8D19DF80210304601F02BFAD2E74A
:1054F00001AB4FF0000903AA39463046CDE9043923
:10550000CDE90199CDF80C9001F086F8164B984240
:1055100085D114F4003315D09DF803308DF80E308A
:1055200084F48034C4F300444B4603AA3946304621
:105530008DF80C508DF80D4001F028F90A4B984277
:10554000CDD06CE7CDE9043303AA0DF1030339464E
:105550003046039301F060F8F0E703F5E07352F88A
:105560002330FFDE000300500000AD0B036803F0A2
:105570001F025B09026004D0012B034818BF002002
:1055800070474FF0A0407047000300502DE9F04FE6
:10559000DFF89491DFF894A185B01546834600EBBF
:1055A000810140F2FF18594503D1002005B0BDE844
:1055B000F08FDBF800305E04C3F3C322C3F30804AA
:1055C00000F1AC805B0C19F80270444508BF4FF045
:1055D000FF34222B00F2A580DFE803F012191F220E
:1055E000252B22A3A3A3A33B68A3A3A3A3A3A3A3A5
:1055F000A3A36B818487A3A3A38A9194979A9D0008
:10560000C5F80C45601C5ED10BF1040BCBE7C5F867
:105610001445621CF8D000265FE0C5F80845F1E7A4
:10562000C5F81045F5E7631CC5F80845ECD0002621
:1056300004E0661CC5F80C45E6D0012603A80394D7
:10564000FFF794FF039B012202FA03F3C0F80C3525
:1056500008E0C5F80845002FDBD1631CD4D0002634
:1056600032460627DBF80030019303F4004000289F
:1056700018BF002203A8009218BF01260394FFF769
:1056800075FF039C019B009A00EB8400C3F3412C3F
:10569000D0F800473B0243EA8C03134304EA0A04B0
:1056A000234343EA4603C0F80037ADE7C5F80C458D
:1056B000D1E7C5F86045601CDBF80030A4D0C3F327
:1056C0000043002BB9D003A80394FFF74FFF039BBF
:1056D000012606FA03F3C0F808353246C2E7C5F8DA
:1056E0006445E8E7C5F86845E5E7C5F86C45E2E7D5
:1056F000C5F82445621C87D000220126B2E7C5F810
:1057000028457FE7C5F83045F4E7C5F83445F1E7AB
:10571000C5F83845EEE7C5F83C4573E76FF015006E
:1057200044E76FF0850041E7A4C90000F0F8FCFFF2
:105730002DE9F7430646002201210220FDF7EAFB8E
:105740000220FDF7B7FB776835693C684FF0000829
:10575000C4F800852E60D7F80C9001AA414648464F
:1057600005F04EFC002839DB019BD9F8002019799F
:105770001868FFF70BFF002830DB6B7AD6F810C0F3
:10578000012B03D0032B27D14FF01008AB7A032B4A
:1057900022D1E97A09B101291ED12A7A12B1022A4D
:1057A0001AD10E226B687068B3F5164F006800F0CE
:1057B000B28034D8B3F5165F00F0B0801AD8B3F5D4
:1057C000966F00F0AD800CD8B3F5967F00F0AB80FB
:1057D000B3F5167F00F0AA806FF0850003B0BDE836
:1057E000F083B3F5166F00F0A480B3F5965FF3D1A4
:1057F0005C4B43E0B3F5E14F00F09E8008D8B3F571
:10580000615F00F09B80B3F5964FE5D1564B35E0D4
:1058100047F6122E7345DFD14FF400032EE0B3F5A7
:10582000613F00F08D8015D8B3F5963F00F08B8076
:105830000AD84DF6C02E734500F08780B3F5614F4E
:10584000CAD14FF46B0319E0B3F5E13FC4D14FF077
:10585000EB7313E0B3F5612F7AD009D8DFF820E1BC
:10586000734578D0B3F5E12FB6D14FF0E86305E08A
:10587000DFF810E17345AFD14FF08053C0F8243505
:10588000736841EA08011B680A43C3F86C25D5E92F
:1058900001010CF1040383E803007B68990712D52A
:1058A00005F11C0001F06AFA304B984256D1287F6E
:1058B00004F10C0204F5907105F082FD2B7F0120AC
:1058C000984000F079FC0823C4F800353B7A53B9BE
:1058D000C4F81031D4F81031AB69C4F83435012361
:1058E000C4F8383523607B689A075CBF4FF4807337
:1058F000C4F804337B68DB0644BF4FF48003C4F86C
:1059000004336B69C4F8443500200123C4F848050A
:10591000A360E36062E74FF41D03AFE7144BADE70C
:105920004FF49E23AAE74FF4A033A7E74FF41C33AC
:10593000A4E74FF41D23A1E70E4B9FE70E4B9DE715
:105940004FF06C739AE70D4B98E74FF4650395E7BA
:105950004FF0706392E74FF080638FE76FF00400C1
:105960003CE700BF00B0130000A04E000000AD0BEC
:105970000050270000C0750000F03A0000903A0186
:1059800090D0030040420F002DE9F0410446076922
:105990000D4605F074FF4FF02008B0B91F4B1B787F
:1059A0009BB16426606805F004FCF0B9012005F0A5
:1059B00005FD013EF6D10021212002F04BF9F0E770
:1059C00081F31188BFF36F8FF5E7EFF311810E4676
:1059D00088F31288BFF36F8F606805F0EAFB80B927
:1059E00081F31188BFF36F8FEFE7EFF311810E465C
:1059F00088F31288BFF36F8F606805F0DAFB002828
:105A0000DED07B691D7079690122204605F012FB0A
:105A100086F31188BFF36F8FBDE8F081E327002084
:105A200070B5012383400E4ABFF35B8FDC4352E81D
:105A3000001F01EA040542E80056002EF7D1BFF32B
:105A40005B8F4FF4803282400648C0F80823BFF3D2
:105A50005F8FBFF36F8F0B4214BF0120002070BD1A
:105A6000101F00200010014070B40E49D1E900342D
:105A7000D01AC31844F1000422F07F46C1E9003473
:105A8000A6F50013B3F5400F09D2074B1B681A0A9D
:105A90001B069C19054B42F10005C3E9004570BC8B
:105AA00002F08CBA18090020141F002020090020E1
:105AB00011B3BFF35B8F0123104A834052E800CF3C
:105AC0004CEA030C42E800C10029F7D1BFF35B8F19
:105AD0000B4A4FF480338340C2F80433094BBFF3C1
