:020000040000FA
:1000000000450020FD1E0000D9680000E91E000028
:10001000E91E0000E91E0000E91E000000000000CB
:10002000000000000000000000000000D91F0000D8
:10003000E91E000000000000E91E0000E91E0000AB
:100040007121000071210000712100007121000068
:100050007121000071210000712100007121000058
:100060007121000071210000712100007121000048
:100070007121000071210000712100007121000038
:100080007121000071210000712100007121000028
:100090007121000071210000712100007121000018
:1000A0007121000071210000712100007121000008
:1000B00071210000712100007121000071210000F8
:1000C00071210000712100007121000071210000E8
:1000D00071210000712100007121000071210000D8
:1000E00071210000712100007121000071210000C8
:1000F00071210000712100007121000071210000B8
:1001000053B94AB9002908BF00281CBF4FF0FF317E
:100110004FF0FF3000F00CB8ADF1080C6DE904CEE3
:1001200000F008F8DDF804E0DDE9022304B07047D0
:10013000704700BF2DE9F04786468C460846089E6A
:10014000154674461946002B40F0C2808542B2FA2B
:1001500082F245D94AB1C2F1200300FA02FC2EFA1C
:1001600003F3954043EA0C0C94404FEA154EA8B2B5
:10017000BCFBFEF8230C0EFB18CC08FB00F943EA8D
:100180000C43994528D9EB1808F1FF3704D299455B
:1001900002D9A8F102072B44A3EB0903A4B2B3FBD5
:1001A000FEFC0EFB1C330CFB00F044EA0344A042AF
:1001B00014D92C190CF1FF3304D2A04202D9ACF1AE
:1001C00002032C44241A43EA07401EB1D440002302
:1001D00034607360BDE8F0874746DDE76346F1E7CA
:1001E00092BB431B01214FEA154EAFB2B3FBFEFC9D
:1001F000200C0EFB1C330CFB07F840EA0343984528
:1002000062D9EB180CF1FF3004D2984502D9ACF159
:1002100002002B44A3EB0803A4B2B3FBFEFC0EFBCD
:100220001C330CFB07F744EA0344A7424ED92C19B0
:100230000CF1FF3304D2A74202D9ACF102032C44E3
:10024000E41B43EA0040C0E7C2F1200320FA03F1B7
:10025000954090402EFA03F303434FEA154EAFB298
:10026000B1FBFEFC0EFB1C10190C0CFB07F841EA5D
:100270000041884504FA02F422D969180CF1FF30D4
:1002800004D2884502D9ACF102002944A1EB08014F
:100290009BB2B1FBFEFC0EFB1C110CFB07F743EA03
:1002A00001439F420ED9EB180CF1FF3104D29F425B
:1002B00002D9ACF102012B44DB1B41EA004192E779
:1002C0006046E3E76146F7E76046A3E76346B7E7C2
:1002D000834206D916B9002108467BE7C6E900E04B
:1002E000F9E7B3FA83F78FB9834201D3724508D88F
:1002F000BEEB020460EB030301209C461EB9002103
:1003000068E73846FAE7C6E9004CF8E7C7F1200C81
:10031000BB4022FA0CF41C432EFA0CF120FA0CF329
:10032000B84001434FEA14490EFA07F5B3FBF9F858
:100330001FFA84FE09FB18300B0C08FB0EFA43EA87
:1003400000439A4502FA07F240D9E31808F1FF305A
:1003500004D29A4502D9A8F102002344A3EB0A0370
:1003600089B2B3FBF9F809FB183308FB0EFE41EA2A
:1003700003418E452CD9611808F1FF3304D28E4514
:1003800002D9A8F10203214443EA0040A0FB0298ED
:10039000A1EB0E014145CE46434602D306D14D4561
:1003A00004D2B9EB020E68EB04030138002EA6D08C
:1003B000B5EB0E0261EB030101FA0CFC22FA07F324
:1003C0004CEA0303F940C6E9003198E74046C5E727
:1003D0004346D9E7F0B52E4B2E4AC3F800262E48E7
:1003E000C3F8042685B0C3F808264921C3F80C26B3
:1003F000C3F81026C3F81426C3F81826C3F81C2621
:1004000006F0E0F905F098FD01A800F0AFFC234BE1
:100410001B68834204D02248452106F0D3F9FEE749
:10042000039A2048492106F0CDF91F48492106F0DA
:10043000C9F94FF48031002006F0CEFC044620B10B
:100440001A48452106F0BEF9FEE769469DF8080006
:1004500000F030F8009B039D1D44019B1E8903F0B2
:100460006FF8AF1900F0E4FF00F0B8FF01F070FD85
:10047000AB5983F3088884F31488BFF36F8FBFF3FD
:100480006F8F7B6898470A48452106F09BF9FEE785
:10049000000001403546526EA4770000D8010020CC
:1004A000BD770000E07700000F780000347800008E
:1004B0006778000008B5024638B105480023452199
:1004C00006F080F96FF0150008BD0860FCE700BF7A
:1004D0008A78000021B1012906D06FF0150070471D
:1004E000044B53F830007047024B03EBC0035868CD
:1004F000704700BFF87300002DE9F04FDFF828B215
:10050000DDB0DDE9688916461C466A9FDBF80050BD
:1005100000F02EFF804B0122C3F800253CA804F018
:100520002FFCB8F1000F07D0B9F1000F04DD4A46E7
:1005300041463CA806F043F833897289D6F80CA0EE
:1005400013449A444FF00008C2455DD80FA93CA857
:1005500004F088FC704B0022C3F80025C3F8002586
:1005600027B120220FA9384606F007FA002300938E
:1005700031464FF6FF73224609A805F0DEFC064619
:10058000002852D120460E9F00F08CF987424CD8AB
:10059000DFF898A1DFF880814FF0FF370DF11E03DF
:1005A00007AA08A909A805F016FD00283DDB40F0C0
:1005B000AC80089909A805F05AFD50B9BDF81E0095
:1005C000564A4FF6FF7132F8023B8B422DD09842CB
:1005D000F9D1BDF81E90B9F1100F30D1BDF81C60F3
:1005E000202E22D1089933463CAA204606F0F8F87E
:1005F000D8B932463CA90FA805F073FD484B1B68DB
:10060000834212D10126C9E7679B669AAAEB0809C3
:10061000994528BF99464B464146204606F0E0F8EA
:1006200030B13D4B0022C3F80025DBF800506EE0EE
:1006300066994A463CA805F0C2FFC84484E7B9F170
:10064000010F41D1BDF81C30202BEED808993CAAEF
:10065000204606F0C5F807460028E6D19DF81C3074
:100660000393202B09D8DAF800202E4B0492049A29
:10067000974205DB0023C8F800354FF0FF378DE7C0
:10068000059300F075FEC8F800951FA804F078FBEC
:10069000059B5A6853F8081B126805931FA805F0BC
:1006A0008EFF17A91FA804F0DDFB0022C8F8002563
:1006B000039A3CA917A806F050F9059B10B9C8F891
:1006C00000056BE70137D2E7B9F1220F7FF466AF7F
:1006D0007B1C3FF463AFDAF80030BB42CDDDBDF8E0
:1006E0001C30802BA1D808993CAA204606F078F847
:1006F00000289AD1FFB2BDF81C3000973CAA2021F7
:100700000FA800F015F80546B7E7002E8DD0284653
:100710005DB0BDE8F08F00BF00A002507877000008
:10072000D8010020047400000400002000740000C0
:100730002DE9F04796B016461D469DF87820374BB8
:10074000DFF8E88053F83210019103EBC20307464B
:100750005B68D8F80090186802AA0144302301A809
:1007600005F0BBFE002851D1DDE901431C4403AA7A
:1007700006AB214601A805F0D8FE002846D1049A10
:10078000072A43D12649059806F0E7F800283DD10D
:10079000079A082A3AD12349089806F0DEF8A8BB40
:1007A00002AA214601A805F0ACFE78BBDDE901A351
:1007B0000AEB0302944229D1412B27D1354430233F
:1007C00003AA294602A8029605F087FEE0B9DDE9F2
:1007D000023213449D4217D32A4602A906A805F007
:1007E00054FC88B92A4602A90EA805F04EFC58B957
:1007F0009AF80030042B07D1202306AA0AF1010140
:10080000384600F0CDFD28B1D8F80090484616B023
:10081000BDE8F087044BD3F80090F7E704740000BC
:10082000B9780000B0780000D80100200400002052
:10083000094A0B78400052F820108B4209D0013051
:1008400052F82000834214BF4FF0FF304FF4C070C5
:1008500070474FF4C07070470C7400001FB50F4B09
:1008600013F830000C4601F085F950B92068816812
:1008700010236A46103905F0B3FF28B1206805F04F
:10088000AEFF4FF0FF3006E005491022684606F043
:1008900064F80028F2D104B010BD00BF0C74000051
:1008A0009477000013B5044605F022FC6A46014621
:1008B000204605F028FB30B10448452105F082FFB1
:1008C000002002B010BD0098FBE700BFC178000017
:1008D0002DE9F041364B88B0064600200D461C68D5
:1008E000FFF7F8FD06A9C0B201F044F9002858D17D
:1008F0002946FFF7EFFD2C2407A9C0B204FB0564CD
:1009000001F038F9002833D02C276F4306EB070895
:10091000069BD8F8101011F0100138D14FF48072F6
:100920000192244A0092CDE9031122460291084621
:10093000FFF7E2FD0446204BF25906989A420CD18B
:10094000D8F80C20B8F808309B1806D28268934279
:1009500003D21A4B1B68A34220D035B38268002112
:1009600005F068FF164A1748452105F02BFF13E0F4
:10097000079805F07CFF0746079805F030FF631ED7
:10098000E21C13F8011FB942BED19342F9D11DB147
:100990000699304605F096FC0B4B1C68069805F04E
:1009A0001EFF204608B0BDE8F081084ADBE700BF23
:1009B00004000020A40F00203DB8F396D8010020C9
:1009C000047900000E79000000000020FC7800008F
:1009D0007FB50D46044600212846CDE9021105F0F9
:1009E00030FC28B32368194EB34203D103AA204632
:1009F00005F0BCFBE36AB34204D102AA0121204600
:100A000005F0B4FBDDE90232934288BF0393039BF8
:100A1000AB60039A2946204600F0A8FB0C4B1A68ED
:100A2000002A03DD0B48572105F0CCFE04B070BD51
:100A300001A9FFF713FF019805F1080105F063FB19
:100A4000AB680198039305F0CAFEE2E73DB8F39660
:100A50003C0E0020367900002DE9F84FDFF878B021
:100A60001B4C1C4D884691469A4600260B9B9E4285
:100A700001D300200FE00B9B174A9F1BB7F5806F37
:100A800028BF4FF480673B4606EB0A01404605F05D
:100A9000A7FE10B10120BDE8F88F0A993B465A46DF
:100AA0007118484605F0B1FE0028F3D1C4F800568D
:100AB0003E44C4F80456C4F80856C4F80C56C4F8AA
:100AC0001056C4F81456C4F81856C4F81C56CDE78E
:100AD000000001403546526EDC090020F0B5994B0C
:100AE00043620E46984B0365002189B004460846D0
:100AF000FFF7F0FC04F120010546C0B201F03AF81E
:100B00000346E8B90121FFF7E5FC04F14C01054675
:100B1000C0B201F02FF80346E0B9204605F067FBAC
:100B20000546C8B900221146204605F009FB0546D6
:100B300060B386480022572105F044FE01239CE063
:100B40000022CDE90023824800232A46452105F0F2
:100B500039FEFEE70122F4E77E488022572105F0A6
:100B600031FE01239D4284F85830DBD194F858308F
:100B70008DF81730042B00F28380012B00F2878060
:100B800000F09A80FF2384F8583095E0204600F06A
:100B9000FFF90028D2D004A805F04AFB0146204600
:100BA00005F0E5FB18B16C482A465721C4E704A8B4
:100BB00005F047FB80F0010104AAC9B2204605F008
:100BC000BFFA02460028B4D104A805F03AFB054656
:100BD00060BB04A92046FFF7FBFE9DF8173084F8A0
:100BE0005830033B012B06D8284600F0E5F810B139
:100BF000FF2384F858309DF81730023B022B0BD8A6
:100C0000002000F0C3F838B1FF2384F8583053486F
:100C1000452105F0D7FDFEE794F85830FF2BF6D0BC
:100C200004AA0021204605F08BFA87E79DF817708B
:100C3000012F17D1104602F02FFD831E022B05460F
:100C40000DD839462046FFF743FE454B1B689842B6
:100C500005D0444B1D68A84214BF0525012584F822
:100C6000585083E701212046FFF732FE3C4B1B68BA
:100C700098420CBF9DF81730052384F8583075E76B
:100C8000052B7FF47FAF002000F096F811E004A957
:100C90002046FFF79DFE94F85830DA1E012A14D83A
:100CA000002000F089F800287FF46CAF002000F0ED
:100CB0006DF800287FF466AF94F85830FF2B07D109
:100CC0002648452105F07EFDFEE7022BF4D1EDE735
:100CD0000022012B244D039214D01146204605F02A
:100CE0002FFA78B12D68102200210DEB020005F0DB
:100CF0004FFEE06C05F073FD206A05F070FD28469C
:100D000009B0F0BD00212046FFF7E2FD144F3B681B
:100D10009842E7D12B689842E4D0124B1B68984266
:100D2000E0D0039B01330393039B012B00D0FEE72C
:100D3000206A05F0E6F83071236A5B6834603D682C
:100D4000B360D0E7DC050020DC010020F47900006E
:100D500065790000B2790000207A00004A7A00002C
:100D6000D8010020000000200400002038B5064D06
:100D7000044660220021284605F00AFE2146284646
:100D8000FFF7ACFE38BD00BFDC0D002013B5094BEA
:100D900001A913F8300000F0EDFE48B9019806F003
:100DA000D4F80446019805F01AFD204602B010BDA3
:100DB0000124FAE7147400001FB50F4B01A913F8C2
:100DC000300000F0D7FEA8B9019802A902F00EFC8D
:100DD000044668B99DF80B30032B03D1019806F047
:100DE00082F80446019805F0FAFC204604B010BDD4
:100DF0000124F7E70124F8E7147400002DE9F3411A
:100E000006460C4617461D460BB9002628E0184634
:100E100005F017FA0028F8D16946FFF71FFD009882
:100E200038B90124009805F0DAFC204602B0BDE88C
:100E3000F08101A905F067F90028F2D1009805F0CA
:100E4000CEFC3046019905F0DFFA736A5E686B7973
:100E5000012B21D1002CD8D12B68834298BF0026CA
:100E600021460020FFF736FB6946C0B200F082FE43
:100E70000028D6D1009820233A46314605F0B0FC30
:100E800004460028CDD1002DCCD03C680D4BE41A8F
:100E900018BF4FF0FF34C5E7022BB6D12B68012BEA
:100EA00005D98342B1D8B4FA84F46409ADE7ACD172
:100EB000002CD5D0012CA8D12C79023C18BF0124DC
:100EC000A3E700BF3DB8F3962DE9F04F074685B084
:100ED0000C46014600201646FFF7AAFC051E50DB13
:100EE0003846E46D05F004F95FFA84F96B1E09FBDE
:100EF00003084FF0000A4FF0010B4FF0FF349DB98B
:100F0000BAF1010F03DD2148452105F05BFC631CAC
:100F100006D07F2C2ADC013440F201133460B38008
:100F2000284605B0BDE8F08F6B1E00930DF10F024F
:100F300001234146384605F053FC031E019322DB92
:100F400001220DF10F01384605F068FF019B40B109
:100F50005B4501D00AF1010A009DA8EB09089B46F8
:100F6000CDE7B4F1FF3F08BF2C46F5E70223803CF4
:100F70007371631004F00104013301343360347180
:100F8000CEE70725CCE70125CAE700BF567A000067
:100F900070B5866A456D044605F025FAAE420AD062
:100FA0006B1CB34207D0834205D01448572105F08B
:100FB00009FC002070BD802E1CD911485721F6E78E
:100FC000626A216D02EBC30201EBC30152684968FA
:100FD000914202D00B485721E9E701339D42EFD1FE
:100FE000AE4205D9636A03EBC5035B689342F1D156
:100FF0000120DFE700231A46F0E700BF797A0000FE
:10100000B17A0000E07A000000B589B004A902209E
:1010100005F076FF9DF81020012A41D0254B264986
:10102000032A08BF0B469DF8132002929DF8122058
:1010300001929DF81120214800924921204A05F093
:10104000C1FB06A9052005F05BFF9DF81820012AC9
:1010500028D0184B1849032A08BF0B469DF81B20BF
:1010600002929DF81A2001929DF8192000921348CF
:10107000144A492105F0A6FB9DF81030012B13D12D
:101080009DF81230032B0FD19DF81830012B0BD097
:101090000D48492105F096FB022009B05DF804FBDC
:1010A0000A4BC0E7094BD9E70948492105F08AFBFB
:1010B0000020F2E70C7B0000157B0000297B00007C
:1010C0001B7B00006A7B00007A7B0000107B000025
:1010D000997B000070B54B6814461E4A03F0FF234D
:1010E000934286B006460D462FD10B68012B2CD1BA
:1010F00004A9204602F07AFA9DF81020012A26D091
:10110000154B1649032A08BF0B469DF8132002927F
:101110009DF8122001929DF8112000921048114A6A
:10112000492105F04FFB9DF81030032B0DD12146CE
:10113000304605F0C7F8204605F0D5FEA9682046E0
:1011400004F0EFFF204602F031FA06B070BD064B06
:10115000DBE700BF000100040C7B0000157B0000F2
:10116000297B00006A7B0000107B00002DE9F04F16
:10117000164689B005460C467448492105F022FB05
:101180003146284605F040F96B6A824620465E6883
:1011900005F057F8E8B1E86D04F0A5FFAF6A002349
:1011A000013F3344834201D2013FFAE7BA4510D3ED
:1011B0006748572105F006FB07FB06F365480AFB65
:1011C0000662572105F0FEFA0123E37109B0BDE87C
:1011D000F08F06A9022000F0CDFC07A9052000F041
:1011E000C9FC079A21462846FFF774FF6379012B53
:1011F0004BD1DFF864B1574641E02268C2F10103E8
:1012000053449F423AD86B6A196853F8370003EB8E
:10121000C703012A53F8083CA3EB0103A0EB010923
:10122000049311D1079B0393E368022B08D0414636
:10123000284605F047F822464146284605F078F84A
:101240000399284605F03EF832464946404605F0E7
:1012500037F8049B42464146CDE900962846FFF701
:10126000FBFB2146284604F0F9FF23680133236085
:1012700020B1DBF800300133CBF80030013FDDF85E
:101280001880002FB9D10123236002236371012745
:10129000BA45DDF8189006D2484605F0A0FA07983E
:1012A00005F09DFA92E723689F424DD36A6ADDF804
:1012B0001CB052F837100491FB00083B11680391F1
:1012C000D1582A6DD0581368A0EB03082379012B5D
:1012D00038D1039B3246C91A4846059104F0F0FF05
:1012E0000599009143464A46594601962846FFF71C
:1012F000B3FB2146284604F0B1FF0223237118B145
:10130000154A13680133136032464146584604F0CB
:10131000D7FFDDE9032349469B1ACDE900865A46EB
:101320002846FFF799FB2146284604F097FF2368DB
:10133000013323600123237130B1074A136801335D
:10134000136001E0022BDFD00137A1E7B07B000082
:10135000D97B0000087C00003C0E00200A4619B131
:10136000024B00211B681847704700BF080000208F
:1013700070B5094D2B780BB1002070BD074C0126CC
:10138000C4F8006503F09EFD18B92E70C4F800057E
:10139000F2E74FF0FF30F0E7A410002000A0025069
:1013A0002DE9F041DFF83080ACB01F4606460C4610
:1013B0001546FFF7DDFF0123C8F800352A463346FE
:1013C0000097214603A805F0B8FE0023C8F80035B1
:1013D0002CB0BDE8F08100BF00A00250BFF36F8FBA
:1013E00072B6124B4FF0FF32C3F88020C3F884204E
:1013F000C3F88820C3F88C20C3F89020C3F8942049
:10140000C3F89820C3F89C20C3F88021C3F8842136
:10141000C3F88821C3F88C21C3F89021C3F8942124
:10142000C3F89821C3F89C21704700BF00E100E099
:10143000F8B5254B254D4FF0FF3401275F60C3F809
:101440004843C3F8084303F5C04300265F60C3F870
:101450004843C3F8084303F5983302205F60C3F89C
:101460004843C3F80843C5F8084300F0D3FD6F6054
:10147000C5F84C61D5F84C31C5F81061D5F810317C
:10148000C5F84461D5F84431C5F8006505F518354F
:101490002820C5F8084300F0BDFD6F60C5F84C6119
:1014A000D5F84C31C5F81061D5F81031C5F8446154
:1014B000D5F84431064BC5F80065C3F808454FF030
:1014C0008043C3F80843F8BD00B00040002000404E
:1014D00000F00140014B1B68184700BF0C000020C2
:1014E00007B50B46002102460091034800F00CF8B6
:1014F00003B05DF804FB00BFD5140000014B186079
:10150000704700BF0C0000202DE9F04F8DB01D4644
:10151000531E8246019103934FF00009039B5878B4
:10152000252803F1010419D11E4600204FF0FF3891
:10153000023603460290444631780396392954D83E
:101540001F2914D8002900F0EE8101992520D047E9
:1015500001993078D04709F10209DFE7002800F04F
:10156000E2810199D04709F101090394D6E7A1F17D
:101570002002192AE9D801A757F822F0E515000042
:101580004B1500004B150000E51500004B15000041
:10159000651600004B1500004B1500004B150000B0
:1015A0004B150000B1160000E51500004B150000BA
:1015B000C5160000711600004B1500007F160000D4
:1015C0009F1600009F1600009F1600009F16000047
:1015D0009F1600009F1600009F1600009F16000037
:1015E0009F16000008460136A6E7582900F0EB8058
:1015F000A1F16302D7B2172FA7D8172AA5D801A740
:1016000057F822F06D180000EB1600004B15000093
:101610004B1500004B150000CB160000EB16000028
:101620004B1500004B150000CB1600004B150000B9
:101630004B1500004B150000A11700004B150000D2
:101640004B150000411800004B150000EB16000080
:101650004B1500004B150000A11700004B150000B2
:10166000CB16000001992520D04709F1010955E763
:10167000029A02F0FE0202924FF00008B3E7002C3B
:101680000DDAB8F1000F0DDA029A002A00F043815A
:1016900024EAE4740A2202FB0414303CA3E7B8F104
:1016A000000FF5DB0A2202FB0812A2F130089AE7CC
:1016B000B8F1000F55F8042B80F22F81002A80F238
:1016C0002E815442022202928DE7682903D1682BB1
:1016D00006D1482387E76C2902D16C2B00F02181C9
:1016E000002B7FF432AF0B467DE77A2B06D17529AC
:1016F00055F8046B14D14FF0000B0CE06C2BF6D0B6
:101700004C2BF4D1073525F007037529D3E9006B7D
:1017100003F1080506D120283BD1854F013C09E0A3
:101720004FEAE67BBBF1000FF5DA7642814F6BEBB7
:101730004B0B013C0DF12D03059300230493304620
:1017400059460A220023FEF7DBFC059B303203F8E2
:10175000012DB4460593049B5A46BCF10A0F8B46F3
:1017600072F1000203F1FF3106460491E7D2C3F1A2
:10177000010B30330DEB0306B8F1000FA6F10406A0
:101780006DDA029BD9077DD4A8EB0B03A4EB0B0405
:1017900013E02B280ABF684F684F04F1FF34C9E7F4
:1017A00070290FD155F8042B0023FAB9634F644E0A
:1017B000053C6FF004034FF0050B029A920770D4BA
:1017C000A04666E078216C2B03D155F8042B00234A
:1017D00008E04C2BF9D1073525F007031D465B685F
:1017E00055F8082B232825D1880621D5554F023CD2
:1017F00001F06001A1F1390B0DF12D0E002602F070
:101800000F01092988BF594430310EF8011D102AF3
:101810004FEA121141EA03714FEA131C73F10003FE
:1018200006F1FF3008D2C6F1010B06F13003A1E743
:10183000454FDCE7414FDBE706460A466346DEE7F5
:1018400055F8046B304605F081F8B8F1000F834677
:1018500002DB4045A8BFC346384F4FF00008A8EB55
:101860000B03002B92DDA4EB0804A6E755F8043B1C
:101870008DF81830314F013C4FF0FF334FF0010B22
:1018800006AE9AE7A046EAE7029301992020D047E6
:10189000029BB8F10108F7D524EAE472013C9144B7
:1018A000A41AB84606E0049302920199D047029A1E
:1018B000049B9046424612F8010B0028F3D11A46C9
:1018C000013A15D5002BACBFC7EB03077F425B463F
:1018D000013B15D5BBF1000FA8BF5F444F4426461E
:1018E000013E14D5002CA8BF3F1907EB080915E6E7
:1018F0000493029201993020D047049B029ADFE7BB
:101900000293019916F8010BD047029BE0E7019979
:101910002020D047E4E70122D5E6904663E614464E
:1019200061E64C235FE648460DB0BDE8F08F00BF8E
:10193000967C0000947C0000987C0000557A0000A2
:10194000A07C00009A7C00009D7C00002DE9F047FF
:10195000058B04462807904611D4022905F0070597
:1019600040F0CC80204604F054FE78B10138218B41
:10197000042811D8DFE800F0C2106D859500012918
:101980000CBF45F0100545F02005258388F311882C
:10199000BFF36F8FBDE8F08701F0070AAA4500F09A
:1019A000A5800027B9463E46A368002B00F0BC8006
:1019B00041F00801218388F31188BFF36F8FA1687C
:1019C000002900F0BA800D68002900F0B680D1F837
:1019D0000480334652462046C047002D76D02B68FF
:1019E00029461D46F0E701F007035A1F012A1BD8BC
:1019F000002221F00701062B276889B2C4E90022E2
:101A000009D13B4603E0628B013262831B68002BE5
:101A1000F9D141F002012183204604F0FAFD0028AB
:101A20007AD041F0200176E0042B0AD121F00701A1
:101A300089B22183204604F0ECFD10B141F0200171
:101A40002183218B01F0070AAA454FD00027B94610
:101A5000AAE7236921F0070141F00601062DD3F81A
:101A6000009021832DD1B9F1000F3FD041F0080142
:101A7000218388F31188BFF36F8F3A492046C84706
:101A800029E021F00701236941F0040189B2042D06
:101A9000D3F804902183E6D000273E464FF0040A95
:101AA00082E721F00701236941F0050189B2052D84
:101AB000D3F808902183D6D000273E464FF0050A80
:101AC00072E700273E464FF0060A6DE72B4687E790
:101AD000B9F1000FD1D1EFF31188202383F31288DD
:101AE000BFF36F8F238B23F008032383258BEA0634
:101AF0002ED525F01003238305F007056669218B99
:101B0000002EBFF670AF00232768C4E9003321F030
:101B1000070141F001012183218B01F0070AAA4549
:101B20004FF000097FF440AF002F9CD041F0080136
:101B3000218388F31188BFF36F8F002FC8D03D68D1
:101B4000394633465246204604F08FFD2F46F4E7CF
:101B5000AB067FF51BAF25F02003238305F00705B7
:101B600000E700BF97660000014B0360002070474C
:101B70002074000070B5114B1C680D46DCB1104B91
:101B8000196800238B4202DB6FF0010070BD224612
:101B900012F8106B864202D001331446F2E7E06877
:101BA00010B96FF01200F1E705F080FA0028F8D0C4
:101BB0002C600020EAE76FF00C00E7E7100000203F
:101BC0002074000070B588B005460C46C0B2694666
:101BD0001646FFF7CFFF00281BDB0098C8B143680B
:101BE0000293836822680195CDE903360023CDE98D
:101BF00006230593C56804F0F2FD6DB12846084937
:101C000001AA04F0A8FF079808B9059B236008B053
:101C100070BD6FF01500FAE76FF01200F7E700BF34
:101C20007D68000008B5054804F0E6FC044804F0AF
:101C3000E3FCBDE80840034804F0DEBCA67C0000DD
:101C4000D77C00000A7D0000014802F0EBBD00BF18
:101C5000B474000030BFFFF7FDBF00BF70B5264B66
:101C600015469A6A12F0100F9A6A14BF11241024B4
:101C700012F0080F9A6A18BF1224920706460AD576
:101C8000586B9A6A140634D519B19A6A22F0800208
:101C90009A62132401E06FF01500174B9A6A12F054
:101CA000010F9A6A18BF142412F0200F9A6A18BF05
:101CB0001524D20602D49B6A9B070AD50E4B5B689B
:101CC000190506D5314600F00DFA10B180F30988E8
:101CD0000224094B9A6A920642BF5A6A22F40052C1
:101CE0005A629A6A42F0FF029A6200232B702046E1
:101CF00070BD6FF01500CCE700ED00E0134B9A6A61
:101D000012F0007F9A6A14BF1E201D2012F0807FFF
:101D10009A6A18BF1F2012F4002F9A6A18BF212058
:101D200012F4802F9A6A18BF222012F4003F9A6A98
:101D300018BF232012F4803F9A6A6FEA02426FEACA
:101D400012429A6218BF2420704700BF00ED00E0E5
:101D500010B5194B0246986A9C6A10F4805F14BF54
:101D60001720162014F4006F9C6A18BF1820A405D1
:101D700009D5986B986A000404D51AB19A6A22F4BE
:101D800000429A6219200C4B9A6A12F4806F9A6A88
:101D900018BF1A20D2050CD49B6A13F4005F18BF39
:101DA0001C20054A936A43F47F43936200230B701F
:101DB00010BD1B20F5E700BF00ED00E070B5454BFE
:101DC0005B688AB00546C3F30803002686F31188D2
:101DD000BFF36F8F02F07F40B0F17F4F11D102F05F
:101DE0000C0008280DD010074CBF0D46012600221C
:101DF000033B8DF80720032B05D8DFE803F01E5DB9
:101E0000615A3546F3E700249DF807309BB920223C
:101E1000294602A804F0B1FD099B002E54D0C3F35B
:101E2000080222B96FEA53236FEA4323099302A9F8
:101E3000204604F047FD0AB070BD264BDA6A9107D0
:101E4000E1D4DA6A002ADEDBDA6A5200DBD55A69AD
:101E5000A96942F480725A61BFF34F8FBFF36F8F4D
:101E60005A6931F8021C22F480725A61BFF34F8F15
:101E7000BFF36F8F4DF6027291420AD09A6AD2B2C6
:101E80004AB10DF1070201212846FFF7E7FE04469B
:101E9000BAE72C68B8E79A6A12F47F4F05D00DF1C3
:101EA00007010120FFF754FFF1E79B6AB3F5803F7C
:101EB000A9D3FFF723FFEAE70DF107020021E3E7CB
:101EC0000DF107010020EDE723F4FF7323F0010378
:101ED000ACE700BF00ED00E0024A536943F0100395
:101EE0005361704700ED00E0EFF30880EFF30981E4
:101EF00001B57246FFF762FF01BD00BF002080F30D
:101F00001488BFF36F8F01F061FC00200D49086059
:101F1000BFF34F8F0C4880F3088800F02BF8202087
:101F200080F3118809484FF40461401880F3098850
:101F3000EFF314800221084380F31488BFF36F8FFE
:101F400000F0A2F894ED00E000450020C01400204D
:101F50000749D1F890200023C2F307221846934284
:101F600000DB7047C1F89830C1F8A0000133F6E7F4
:101F700000ED00E008B572B6002383F31388FFF785
:101F8000E7FF144B4FF0FF32C3F88020C3F88420E2
:101F9000C3F88820C3F88C20C3F89020C3F894209D
:101FA000C3F89820C3F89C20C3F88021C3F884218B
:101FB000C3F88821C3F88C21C3F89021C3F8942179
:101FC000C3F89821C3F89C2162B6BFF34F8FBFF3CB
:101FD0006F8F08BD00E100E01EF0040F0CBFEFF3AF
:101FE0000880EFF30980816911F8021C0229FFD0F3
:101FF00001B504F06DFC01BD40B2002807DB044AC6
:102000004109012300F01F00834042F8213070474E
:1020100000E100E040B200280CDB4309064900F073
:102020001F0020330122824041F82320BFF34F8F4D
:10203000BFF36F8F704700BF00E100E0054B42091E
:1020400000F01F0053F82220012303FA00F0104093
:10205000704700BF00E100E040B20028A8BF00F1D7
:10206000604001F10101B8BF064B4FEA4111ACBF1E
:1020700000F5614000F00F00C9B2B4BF195480F8F8
:102080000013704714ED00E0144A08B5144B22F019
:102090007F029A60BFF34F8FBFF36F8FD3F8882012
:1020A00022F47002C3F88820D3F8882042F4A002FA
:1020B000C3F888204FF04042C3F83422BFF34F8F5B
:1020C000BFF36F8F0023E1EE103A02F053FA02F0F3
:1020D00099FA00F041F802F059FA00BF0000000040
:1020E00000ED00E010F1160F074B08D0984208D31E
:1020F0004033834205D98B4203D9044870474033AB
:10210000F9E70020704700BF001D0020401D00209F
:1021100080B51E4607460C4615460023E1EE103AF0
:10212000DFF81CC08CF309884FF000000549884790
:10213000204629463246B84703488047FEE700BF9D
:1021400040450020F1680000FF680000014B1022AC
:102150001A61704700ED00E0044800232021C218F6
:102160000133302B82F80013F9D1704700E100E011
:1021700008B5EFF30583064A103B02EBC30152F8A2
:10218000330049688847BDE8084004F0ACBB00BF95
:1021900058720000024B034A0348022100F066B85F
:1021A0000000042000000020BC740000084AC2F8AF
:1021B00098000B6823F01F03034343F01003C2F899
:1021C0009C308B6843F00103C2F8A030704700BF19
:1021D00000ED00E02DE9F043DFF8608085B00E46A9
:1021E0001F4604464FF00009B14523DA6068D8B1B4
:1021F0003FB1411E08421BD11F2819D9236819423B
:1022000016D12368019304F091FBA3680343039361
:10221000D8F89050C5F30725D0B2013DA84207D8A1
:1022200001A9FFF7C3FF421C09F101090C34DBE7E8
:102230006FF01502104605B0BDE8F08300ED00E038
:10224000044B0522C3F89420BFF34F8FBFF36F8F69
:10225000704700BF00ED00E0BFF35F8F024B00222C
:10226000C3F89420704700BF00ED00E010B5034CA8
:1022700001232278FFF7AEFF207010BDA5100020CB
:102280002DE9F043534B544CD3F890302568C3F3F9
:1022900007239D4285B000F29A80FFF7DDFF002002
:1022A0000C2685421AD14D4C4D4F25706846FFF7DC
:1022B0005BFCDFF82081DFF82C9106460025AE425A
:1022C00013D1237843490020D1F89020C2F307228C
:1022D000934276DBFFF7B4FF002042E0616806FB23
:1022E0000011FFF763FF0130DBE7009800EB0511F9
:1022F0004FEA051CCB683B40B3F5000F48D00AD825
:10230000B3F5001F30D0B3F5800F36D0B3F5801F82
:1023100010D00135D3E7B3F1807F42D0B3F1007F15
:10232000F7D150F80C3088684A6804F0FFFA40F49E
:10233000802009E050F80C3088684A6804F0F6FA0A
:1023400040F0885040F43020CDE901230390D8F8C4
:1023500090302078C3F30723013B98422AD96FF0CD
:10236000150005B0BDE8F08350F80C3088684A6865
:1023700004F0DCFA40EA0900E6E750F80C3088681F
:102380004A6804F0D3FA40F0007040F40030DBE714
:1023900050F80C3088684A6804F0C8FA40F082703F
:1023A000D2E750F80C3088684A6804F0BFFA40F071
:1023B0008870C9E701A9FFF7F9FE2378013323707C
:1023C000A7E7C1F89830C1F8A00001337CE74FF0CF
:1023D000FF30C6E700ED00E0D4740000A510002037
:1023E0000000F0FF00000811014B1860704700BFAB
:1023F000140000200E4A0123C2F840354FF08042FD
:102400004FF08051C2F87835D1F83001082808D152
:10241000D1F83411052904D80648415C09B1C2F845
:1024200038364FF080430122C3F8802500207047E2
:1024300000E00140477D000020B1034B800143F0E4
:1024400001031847704700BFF0730000084B70B5D8
:10245000C31A0D4607499B100446594306484022BB
:1024600004F0ABFA2B4601462046BDE87040184701
:10247000540E0020B76DDBB6F471000073B50C4C40
:102480000C4A4023041B00930D460B460A49A41036
:1024900061430646094804F0BBFA011E05DA3046DE
:1024A0002B4602B0BDE87040184702B070BD00BFB7
:1024B000540E00207F6A0000B76DDBB6F471000097
:1024C00010B5EFF31184202383F31288BFF36F8FCD
:1024D000074A136823F00201DB07116002D40120D0
:1024E00004F048FD84F31188BFF36F8F10BD00BF67
:1024F000A40E0020002270B5012104461046FFF70B
:10250000ABFD0F4801F0FAFA0E4B984215D101F0DD
:1025100005FB26690C49304604F0CBF800280BDB9C
:10252000012535642469084904F11C0004F0C1F850
:10253000002801DBE564002070BD6FF00400FBE7BC
:10254000152600000000AD0BF474000030B4104BF1
:102550000C2202FB003301460020D3E90E5298639F
:10256000EFF31180202484F31288BFF36F8F1C6C6B
:1025700004F0C00444F002041C6480F31188BFF32B
:102580006F8F1DB12B46034830BC184730BC7047D5
:10259000540E0020F471000010B4EFF311822023D8
:1025A00083F31288BFF36F8F1848016841F002046B
:1025B0000460C80708D482F31188BFF36F8F01202D
:1025C0005DF8044B01F0BCBA4FF08041D1F80C0427
:1025D000D1F80C14C907EED5EFF3118083F31288FC
:1025E000BFF36F8F0A490B6C03F0C00343F0020383
:1025F0000B6480F31188BFF36F8F82F31188BFF3F0
:102600006F8F00205DF8044BFFF7A0BFA40E0020E1
:10261000540E002010B1012804D07047034B1B6CEE
:102620005B0701D1FFF792BF704700BF540E002037
:102630002DE9F8433649BFF35B8F0746012251E885
:10264000003F41E800200028F9D1BFF35B8F33B988
:10265000304931484B60CB608A6004F03DF87B1E06
:10266000012B2DD8012F07D14FF08043D3F81C3414
:1026700003F00303012B23D004F059FD054608BBEA
:10268000264B1B78F3B14FF080430222C3F8082396
:102690000646DFF88C904FF080444FF00108D4F8E4
:1026A0001824D4F81834D20315D503F00303012BF2
:1026B00001D0012F0FD125B386F31188BFF36F8F9F
:1026C000BDE8F883EFF31186202383F31288BFF36C
:1026D0006F8F0125DDE7304604F019F9D4F818357D
:1026E000002BDCD1D4F80421002AD8D0C4F804315E
:1026F000D4F80431C4F81885C9F88081C4F808807A
:10270000CDE74FF080430222C3F80423D8E700BF8F
:10271000500E0020400E0020700E0020B914002042
:1027200000E100E008B5074804F0C0FC38B10648F5
:10273000FFF75AFE0448FEF7E1FE002008BD6FF0E7
:102740001200FBE7307200004D2700000A2838B560
:10275000074D044604D1AB680D215B6828469847B5
:10276000AB6803485B68E1B29847204638BD00BFBC
:1027700030720000024B0B6001231360704700BFF2
:10278000A80E0020004870474875000010B504F0FE
:102790007DFC034C206004F075FC6060002010BDDF
:1027A000A80E00204FF08042D2F81015D2F8103554
:1027B00001F01E0123F01F030B4343F00103C2F895
:1027C0001035024B00221A70704700BFA61000207F
:1027D0004FF08053D3F83031082B20D14FF0804296
:1027E000D2F81015CB071AD5D2F8103501F01E011A
:1027F00023F01F030B43C2F81035D2F808315BB148
:10280000D2F8103523F01F030B4343F00103C2F845
:1028100010356FF08B007047024B01221A700020B8
:10282000704700BFA61000202DE9F0410D46164666
:1028300004F028FC31460746284604F030F928B356
:10284000B5FBF7F307FB135303BBB6FBF7F407FB2A
:102850001464DCB9B74213D804F014FCDFF83480F8
:102860000746FFF7B5FF044668B9284601F0ECFDBE
:1028700098F800300BB1FFF795FFF61B3D44F0D1FF
:102880002046BDE8F0816FF08B04F9E76FF0150486
:10289000F6E700BFA61000202DE9F8430E463046AB
:1028A000194617461C4604F0FAF830B346EA040508
:1028B00015F0030521D11CB3DFF84C906319032BED
:1028C000A6EB050807D80F4AD2F80034DB07FBD582
:1028D0000020BDE8F883FFF77BFF58B97B1B40461B
:1028E000196801F0D1FD99F800300BB1FFF75AFFDC
:1028F000043DE3E76FF08B00EBE76FF01500E8E7CE
:102900002046E6E700E00140A6100020F0B5406850
:10291000057B01F01F0444EA4514056987B0002DCA
:1029200064D0B2F5001F00F1100506D121462846FB
:1029300004F0A0FB002007B0F0BD01AE0027B2F507
:10294000800F0197776039D1B3F1007F14BF052361
:1029500004238DF804300023CDE9046303938368D6
:1029600023FA01F111F001011AD1B2F1A07F17D1C0
:1029700004F01F03620903F5E0732AD0012A3BD15A
:102980001F4A52F82330DB070AD40DF10306324602
:102990002146284601F0B2FB1A4B98421CD0029601
:1029A00003AA2146284601F06BFA174B984220D122
:1029B00001222146284601F005FCBBE7B3F1C06FB8
:1029C00005D0B3F1007F14BF01230223C1E7032325
:1029D000BFE74FF0A042D4E73146284601F0ECFBB8
:1029E000094B9842DBD06FF00B00A4E76FF0850035
:1029F000A1E76FF015009EE751F82330FFDE00BF1E
:102A0000000300500400AD0B0000AD0B38B5456865
:102A10002B69B3B11035284601F0BEFB044680B9DE
:102A20000146284601F084FB084B98420BD1084927
:102A30002246284601F05CFB224605210620FFF7CE
:102A40000BFB002038BD6FF00400FBE70000AD0B6E
:102A5000552A0000420970B5034602D0012A17D05A
:102A600070BD0D4E326951680029F9D003F01F0383
:102A700001250C689D400029F2D08A682A4002D0C6
:102A80004B68304698472CB1236821461C46F2E734
:102A9000024EE7E72346F8E71C72000008720000C8
:102AA0002DE9F043466840F20635D006337B87B007
:102AB00002EA050554BFC2F34010032001F01F07CE
:102AC000B5F5837F144647EA43178DF8030044D0D9
:102AD0000FD8062D18D007D8B5B1022D3FD06FF012
:102AE000150007B0BDE8F083B5F5807FF7D101256B
:102AF0000AE040F20222954233D0B5F5407F32D051
:102B0000B5F5007FEBD1022522032ED57268012393
:102B10008B40C2F80835326992BB07F01F037F096A
:102B20002BD0012F79D13F4A02EB830284F480330A
:102B3000D2F80017C3F30043C4F3404444EA43040B
:102B400021F4E16144EA800421F0070144EA05230D
:102B50000B43C2F800370020C3E70725D4E704255C
:102B6000D2E70525D0E70325CEE7630341BF012364
:102B700072688B40C2F80C35CDE74FF0A042D3E726
:102B800010360DF102023946304601F0B7FA14F45E
:102B9000403F80460CD13946304604F069FA224B5A
:102BA0009845D8D19DF80210304601F0FFFAD2E7DF
:102BB00001AB4FF0000903AA39463046CDE904398C
:102BC000CDE90199CDF80C9001F05AF9164B9842D5
:102BD00085D114F4003315D09DF803308DF80E30F4
:102BE00084F48034C4F300444B4603AA394630468B
:102BF0008DF80C508DF80D4001F0FCF90A4B98420D
:102C0000CDD06CE7CDE9043303AA0DF103033946B7
:102C10003046039301F034F9F0E703F5E07352F81E
:102C20002330FFDE000300500000AD0B036803F00B
:102C30001F025B09026004D0012B034818BF00206B
:102C400070474FF0A0407047000300502DE9F04F4F
:102C5000DFF89491DFF894A185B01546834600EB28
:102C6000810140F2FF18594503D1002005B0BDE8AD
:102C7000F08FDBF800305E04C3F3C322C3F3080413
:102C800000F1AC805B0C19F80270444508BF4FF0AE
:102C9000FF34222B00F2A580DFE803F012191F2277
:102CA000252B22A3A3A3A33B68A3A3A3A3A3A3A30E
:102CB000A3A36B818487A3A3A38A9194979A9D0071
:102CC000C5F80C45601C5ED10BF1040BCBE7C5F8D1
:102CD0001445621CF8D000265FE0C5F80845F1E70E
:102CE000C5F81045F5E7631CC5F80845ECD000268B
:102CF00004E0661CC5F80C45E6D0012603A8039441
:102D0000FFF794FF039B012202FA03F3C0F80C358E
:102D100008E0C5F80845002FDBD1631CD4D000269D
:102D200032460627DBF80030019303F40040002808
:102D300018BF002203A8009218BF01260394FFF7D2
:102D400075FF039C019B009A00EB8400C3F3412CA8
:102D5000D0F800473B0243EA8C03134304EA0A0419
:102D6000234343EA4603C0F80037ADE7C5F80C45F6
:102D7000D1E7C5F86045601CDBF80030A4D0C3F390
:102D80000043002BB9D003A80394FFF74FFF039B28
:102D9000012606FA03F3C0F808353246C2E7C5F843
:102DA0006445E8E7C5F86845E5E7C5F86C45E2E73E
:102DB000C5F82445621C87D000220126B2E7C5F879
:102DC00028457FE7C5F83045F4E7C5F83445F1E715
:102DD000C5F83845EEE7C5F83C4573E76FF01500D8
:102DE00044E76FF0850041E79E7D0000F0F8FCFFAE
:102DF0002DE9F041044607690D4604F098F94FF0BB
:102E0000200890B92A4B1B787BB16426606803F0D8
:102E100051FFD0B9012004F0A1F8013EF6D1F4E74A
:102E200086F31188BFF36F8FEFE7EFF3118631461A
:102E300088F31288BFF36F8F606803F03BFF80B99F
:102E400086F31188BFF36F8FEFE7EFF311863146FA
:102E500088F31288BFF36F8F606803F02BFF0028A0
:102E6000DED03B691D70626838691368C3F8440599
:102E70000120C3F848050020C3F82001D3F82051F1
:102E8000C3F858015268D3F85801D20608D56268D1
:102E900012680820C2F800054FF48002C3F804232A
:102EA00001229A6081F31188BFF36F8FBDE8F08132
:102EB000B91400202DE9F743064600220121022023
:102EC000FFF7CAF80220FFF797F8776835693C6882
:102ED0004FF00008C4F800852E60D7F80C9001AAC6
:102EE0004146484603F0B8FE002839DB019BD9F87B
:102EF000002019791868FFF7A9FE002830DB6B7AEB
:102F0000D6F810C0012B03D0032B27D14FF01008A7
:102F1000AB7A032B22D1E97A09B101291ED12A7A91
:102F200012B1022A1AD10E226B687068B3F5164FDF
:102F3000006800F0B28034D8B3F5165F00F0B080BE
:102F40001AD8B3F5966F00F0AD800CD8B3F5967F24
:102F500000F0AB80B3F5167F00F0AA806FF085001B
:102F600003B0BDE8F083B3F5166F00F0A480B3F5AD
:102F7000965FF3D15C4B43E0B3F5E14F00F09E80E8
:102F800008D8B3F5615F00F09B80B3F5964FE5D1AB
:102F9000564B35E047F6122E7345DFD14FF4000350
:102FA0002EE0B3F5613F00F08D8015D8B3F5963F64
:102FB00000F08B800AD84DF6C02E734500F0878054
:102FC000B3F5614FCAD14FF46B0319E0B3F5E13F9C
:102FD000C4D14FF0EB7313E0B3F5612F7AD009D869
:102FE000DFF820E1734578D0B3F5E12FB6D14FF08B
:102FF000E86305E0DFF810E17345AFD14FF080538F
:10300000C0F82435736841EA08011B680A43C3F815
:103010006C25D5E901010CF1040383E803007B680A
:10302000990712D505F1180001F03CFA304B98428F
:1030300056D1287E04F10C0204F5907103F090FF44
:103040002B7E0120984000F0F1FC0823C4F80035E5
:103050003B7A53B9C4F81031D4F810316B69C4F815
:1030600034350123C4F8383523607B689A075CBF88
:103070004FF48073C4F804337B68DB0644BF4FF41D
:103080008003C4F804332B69C4F8443500200123BD
:10309000C4F84805A360E36062E74FF41D03AFE79F
:1030A000144BADE74FF49E23AAE74FF4A033A7E7F4
:1030B0004FF41C33A4E74FF41D23A1E70E4B9FE709
:1030C0000E4B9DE74FF06C739AE70D4B98E74FF46A
:1030D000650395E74FF0706392E74FF080638FE7E9
:1030E0006FF004003CE700BF00B0130000A04E00EA
:1030F0000000AD0B0050270000C0750000F03A0042
:1031000000903A0190D0030040420F0070B50123B7
:1031100083400E4ABFF35B8FDC4352E8001F01EA95
:10312000040542E80056002EF7D1BFF35B8F4FF441
:10313000803282400648C0F80823BFF35F8FBFF398
:103140006F8F0B4214BF0120002070BDCC0E0020F9
:103150000010014070B40E49D1E90034D01AC318F0
:1031600044F1000422F07F46C1E90034A6F50013C3
:10317000B3F5400F09D2074B1B681A0A1B069C19AE
:10318000054B42F10005C3E9004570BC01F09ABA55
:1031900040010020D00E00204801002011B3BFF3F1
:1031A0005B8F0123104A834052E800CF4CEA030CA6
:1031B00042E800C10029F7D1BFF35B8F0B4A4FF4FF
:1031C00080338340C2F80433094BBFF35B8F1B6825
:1031D000BFF35B8FC340DB0742BF064B4FF40032A7
:1031E000C3F80021704700BFCC0E00200010014042
:1031F000C80E002000E100E00D4B1868010A00062F
:10320000BFF35F8F0B4BD3F80435181841F1000161
:10321000B3F5801F0AD2084BD3E90023904271EB2B
:10322000030303D210F1807041F10001704700BF29
:10323000D00E002000100140480100202DE9F04F81
:1032400085B016461F469DF840A00446FFF75EFF76
:103250000190FFF7D1FFB04271EB070354D23E4B10
:10326000301A67EB0101984271F100014FD23B4BDC
:1032700003EB0413D3E902239F4208BF96425ED0BA
:1032800037494FF4803804F1500508FA04F8AD00CE
:10329000C1F848832046ADB203F053FD26F07F4BC2
:1032A00005F1804504F5A87305F58835DC464FF037
:1032B00003090293029A2CF07F4341F82230C1F8AF
:1032C0004483D1F80435274A6FF00200C01A6044E5
:1032D00020F07F40904232D9286868B1D1F8043597
:1032E0000393A3EB0B0020F07F40B0F5000F26D92D
:1032F000204603F026FD039BBAF1000F07D109EB2E
:10330000030C09F10109D5E7BAF1000F09D06FF0FC
:10331000150520460199FFF741FF284605B0BDE895
:10332000F08F0123104ABFF35B8FA34052E8000FD8
:10333000184342E800010029F8D1BFF35B8F074929
:103340000E98230101EB0412C8500F9B5360C2E991
:1033500002670025DDE700BF01008000300100208A
:1033600000100140FDFF7F00C80E00207FB51C4CFF
:103370001C4BC4F80833C4F848331B4B00254FF0EE
:10338000FF304FF0FF31C4F80855C3E902014FF494
:103390008033C4F80433154B02264FF40032012168
:1033A000C4F804631120C3F880212A46FEF754FEB6
:1033B0001120FEF721FE0E4A0123A3602360136053
:1033C0000C4B0D4A0093CDE9015500232846FFF729
:1033D00035FF3046FFF72CF9284604B070BD00BF1A
:1033E0000010014003000F003001002000E100E068
:1033F000CC0E002055310000FFFF7F002DE9F74380
:103400002F4CD4F8043399070BD5D4F8043143B1C9
:103410002C4A0023C4F80431D4F804311368013372
:103420001360D4F80433DA0329D5BFF35B8F264B3E
:1034300053E8002F22F0010143E800100028F7D1E3
:10344000BFF35B8FD30702D4D4F84031BBB1002562
:10345000C4F84051D4F84031FFF7CEFEEFF31182AB
:10346000202383F31288BFF36F8F184BD3E90267D1
:10347000B042B94106D282F31188BFF36F8F03B017
:10348000BDE8F0834FF0FF384FF0FF39C3E9028900
:10349000D3E900101D604FF48033C4F84833C4F8FA
:1034A0004051D4F8403182F31188BFF36F8F002967
:1034B000E5D0009032463B4628468847DFE700BF0C
:1034C00000100140D00E0020C80E00203001002066
:1034D00030B5431C124C85B005D08442A8BF0446C9
:1034E000012CB8BF0124FFF787FE0E4B0C4DD3E92A
:1034F0000013401AB0F5000F10D22218AA4228BFBC
:103500002A4652184FF0000007490091CDE901000A
:1035100043F10003FFF792FE05B030BD2A46F0E705
:10352000FFFF7F00400100205531000008B5FFF784
:1035300063FE024B1B68C01A08BD00BF400100209B
:1035400010B5084C012363601120FEF763FD064BA4
:10355000C4F80833C4F84833044B4FF40032C3F8BE
:10356000802110BD0010014003000F0000E100E0C9
:1035700030B50C490C4D0B680246002405EB0310D6
:10358000D0F80808C0B218B904B10B60002007E0F9
:103590000133072B4FF00104F0D90B606FF01B00D3
:1035A000136030BDD40E002000E0014030B58168CA
:1035B00085B0103921F00704054603F058F91022B0
:1035C0000146684603F0E4F907491022684603F013
:1035D000D4F910236A462146284603F016F900382C
:1035E00018BF012005B030BD9477000030B50D46FE
:1035F000816887B0102302AA1039044603F0F0F85E
:10360000002802DA012007B030BD102202A92046AE
:1036100003F004FC00283AD11E49102202A803F04E
:103620009CF900280CBF012302232B70204603F0D5
:10363000E1FB012301460DF10702204603F0D0F81B
:103640000028DFDB9DF8073003F00F021B096A70CA
:103650002B7101220DF10701204603F0DFFB10B9A9
:103660006B78042B03D901236B7000232B71A268A4
:10367000183A22F00702083AA91C204603F0E1FBA1
:103680000028BFD1E91C204603F034FCBBE703232C
:10369000CBE700BF94770000F0B5354F460085B00A
:1036A0000546694657F8260003F02AFC044610B187
:1036B000FF2005B0F0BD013602A957F8260003F03F
:1036C0001FFC012837D12B482A46492103F07AF8FC
:1036D000294B02938DF80C409DF800609DF808700E
:1036E000264C00222078314603F08AFB50B36078E4
:1036F000394603F085FB28B3A378042B03D09DF84B
:10370000031099421ED1E378042B03D09DF80B10CF
:10371000994217D12379042B10D16279022A1DD145
:10372000174B18482A46492103F04CF86079831E4C
:10373000022BBED9BCE70028CED0B9E79DF8021015
:103740009942EAD00132032A04F10604CAD10E4894
:103750002A46492103F036F80120AAE7032A05D0BA
:103760000A4B0B49042A08BF0B46DAE7094BD8E796
:10377000E4750000D77D0000030103036C7E0000A8
:10378000B97D0000227E0000467E0000BE7D000064
:10379000D07D0000B47D00004FF08053D3F830217D
:1037A000082A06D1D3F83431052B02D8024AD05C5E
:1037B00070470020704700BF847E0000024AD2F8A4
:1037C0000034002BFBD0704700E0014010B54FF0F3
:1037D0008053D3F83021082A4ED14FF08042002187
:1037E000C2F80C11C2F81011C2F8381502F54042A7
:1037F000D3F80414C2F82015D3F80814C2F824151D
:10380000D3F80C14C2F82815D3F81014C2F82C15EC
:10381000D3F81414C2F83015D3F81814C2F83415BC
:10382000D3F81C14C2F84015D3F82014C2F844157C
:10383000D3F82414C2F84815D3F82814C2F84C154C
:10384000D3F82C14C2F85015D3F83014C2F854151C
:10385000D3F83414C2F86015D3F83814C2F86415DC
:10386000D3F83C14C2F86815D3F84014C2F86C15AC
:10387000D3F84434C2F87035FFF78EFF18B1414BCE
:10388000414AC3F88C26FFF787FF18B13F4BFB2254
:10389000C3F81825FFF780FF70B14FF080414FF05B
:1038A0008053D1F8E42ED3F8583222F00F0203F0FF
:1038B0000F031343C1F8E43EFFF76EFF20B1344B12
:1038C0004FF40072C3F840264FF08053D3F83031E4
:1038D000082B09D14FF08043D3F80024D20744BF0E
:1038E0006FF00102C3F800242A4AD2F8883043F46A
:1038F0007003C2F88830BFF34F8FBFF36F8F4FF064
:103900008053D3F83021082A0ED1D3F83431052B57
:1039100002D8214AD35C3BB14FF01023D3F80822E0
:103920004FF08043C3F858254FF01023D3F80022FE
:10393000002A03DBD3F80432002B22DA17490123D3
:103940004FF01020C1F804351224FFF737FFC0F8FC
:103950000042FFF733FFC0F80442FFF72FFF0023B8
:10396000C1F80435FFF72AFFBFF34F8F09490C4B0D
:10397000CA6802F4E0621343CB60BFF34F8F00BF0D
:10398000FDE710BD005000404881030000F00040FA
:103990000090024000ED00E07E7E000000E001406B
:1039A0000400FA0530B50468CCB1BFF35B8FB4FAFC
:1039B00084F3C3F11F03DBB201229A4024EA02021E
:1039C00050E8005FA54204D140E8002CBCF1000F94
:1039D000F6D1BFF35B8FE6D102480B7030BD0248D1
:1039E000FCE700BF0000AD0B0200AD0B10B5036893
:1039F000CB40DB0714D401238B400268BFF35B8FFD
:103A000043EA020150E8004F944204D140E8001C10
:103A1000BCF1000FF6D1BFF35B8FEED1014810BDB2
:103A20000148FCE70000AD0B0400AD0B014BC3F8EF
:103A30000405704700F00140F7B5044618B10128AD
:103A400023D003B0F0BD4FF080430222C3F8082317
:103A50000122DA60C3F80401D3F8043106460123D9
:103A60008DF8073042F210754FF08047D4B1012C29
:103A7000E7D1D7F80C3403F48033AEBB83B3012015
:103A800003F06CFA013DF4D12AE04FF080430022AC
:103A9000C3F808035860C3F80021D3F800310DF1D2
:103AA0000706DCE7D7F8183403F480333EB9002B5F
:103AB000C7D0012003F052FA013DF3D1C1E7D7F896
:103AC000182402F003023260002BBAD09DF80700E0
:103AD000012803D103F042FA013DC7D1012CB0D136
:103AE000054B00225A71ACE7D7F80C2402F0010212
:103AF0003270002BEAD1F3E7D80E0020044B1A797C
:103B000022B9012218609A80024870470248704723
:103B1000D80E00200000AD0B0C00AD0B08B5074B14
:103B20001B682BB10020FEF789FA08B9FEF764FA8A
:103B30004FF080430022C3F8182508BDD80E00209E
:103B400010B510B1012843D010BD4FF08043D3F819
:103B50001814D3F81824C80321D502F00303012B4D
:103B600004D013B10020FFF767FF00234FF080421D
:103B70000220C2F8183508224FF4827303F1804303
:103B80000021196002F180421C6801241460154A6A
:103B900012680AB34FF08043C3F80403D4E7D3F8A4
:103BA0001424D107E1D5D3F81C249207DAD40D4AA6
:103BB00012681AB10222C3F80423C5E7D3F804211E
:103BC000002AFBD00022C3F80421D3F80431BBE75C
:103BD00000224FF48073D1E71A68002AFCD01960E4
:103BE0001B68B1E7D80E002010B54FF08043D3F822
:103BF00000216AB10022C3F80021D3F8002101227C
:103C0000C3F80823114B587910B95A711B689847AB
:103C10004FF08043D3F8042172B10022C3F804218D
:103C2000D3F80421D3F81824D3F81824920704D128
:103C30000122C3F818259A6010BD0222C3F8082398
:103C4000024BBDE810401B6801201847D80E002029
:103C5000036803F01F025B09026004D0012B0348D4
:103C600018BF002070474FF0A0407047000300507D
:103C7000034A430900F01F00D35C1844C0B27047E8
:103C80008A7E000070B50546FFF7F2FF0C4C083045
:103C90000E4634F81030DA0508D5C3F3432304EB9D
:103CA000C302284654F8333052689847A3682BB1B2
:103CB000E26831462846BDE87040184770BD00BF35
:103CC0003400002008B5FFF7D3FF034B083033F86A
:103CD0001000400B08BD00BF3400002008B5FFF7FE
:103CE000C7FF034B083033F81000C0F3400008BD95
:103CF0003400002008B5FFF7BBFF034B083033F852
:103D00001000C0F3401008BD34000020034611F03D
:103D1000010010B5CCB20DD1A207C4F3400012D5FA
:103D2000094AD2F820055860C2F82005003818BFAB
:103D3000012008E04FF0A041D1F820251A60C1F819
:103D40002025002AE8D010BD0003005010B5FFF771
:103D50008FFF124A083032F81030D9051CD5C3F352
:103D6000432123F4F85322F8103002F10E0400200E
:103D700034F8023F13F4807F03D0C3F34323994206
:103D80000AD001303028F3D1002342F83130044802
:103D9000BDE81040FFF72ABE10BD00BF3400002070
:103DA000AC000020F0B50546002004460126074679
:103DB0008C420BD1114BD3F87C2132B10022C3F8D5
:103DC0007C21D3F87C3140F00040F0BDE3B29B0091
:103DD00003F580729B0806FA03F31D420BD002F133
:103DE000804202F5C042D2F800C0BCF1000F02D000
:103DF0001760126818430134DAE700BF0060004022
:103E0000F7B506460846FFF733FF194F00F10805DE
:103E10000C4637F81530DB0727D5304603F004F998
:103E20002046FFF767FF40B12046FFF74BFF3168A0
:103E300000F5A270002341F820302046FFF786FFEE
:103E4000002301A827F815300194FFF701FF019B1B
:103E500000EB8300074BD0F80027134043F0020328
:103E6000C0F80037044803B0F0BD0448FBE700BFCA
:103E700034000020F0F8FCFF0000AD0B0400AD0B97
:103E80002DE9FF41164680460846FFF7F1FE0D4634
:103E90003168044609B32846FFF720FF18B12846C9
:103EA000FFF728FF10BB0023CDE900338DF80E305B
:103EB0008DF80F300DF10F020B4628460DF10E0163
:103EC00003F05AF8474A04F1080132F8113023F0A0
:103ED000020343F0010322F81130736863B32846EC
:103EE0001F785968FFF7FAFE10B1D1B13E4826E0BD
:103EF0003C4A04F1080032F8103023F02003DB04C0
:103F0000DB0C22F8103061B1032FEFD871684968DB
:103F100091F800C0D8F80010A7B90CF5A27C41F8C0
:103F20002C70304A04F1080132F8113023F01C03E0
:103F300043EA870322F81130B3684BBB2B4804B027
:103F4000BDE8F08101EB8C0143EA4C33D1F810E578
:103F50002EF0030EC1F810E5D8F8001001EB8C0E1E
:103F600043F02003DEF8101522F8103021F44F3111
:103F700021F44071CEF810152902DEF8108501F405
:103F80007C5141EA074141EA0801CEF81015C8E723
:103F9000D3E900672846FFF7D9FE002ECED0114D99
:103FA000D5E90023964203D19F4201D1002209E0C6
:103FB0000F480DF10F01FFF7F5FC0C4B9842BED1F5
:103FC0009DF80F2045F8326005EBC20308345F60AE
:103FD00035F8143043EA422343F4807325F8143053
:103FE000ACE700BF340000200400AD0B0000AD0BB7
:103FF000AC0000202DE9F0430C4685B080462046F9
:1040000011461E46FFF734FE054629B32046FFF74A
:1040100065FE18B92046FFF76DFE18BB314F05F15C
:10402000080937F8193013F01C0F02D04B78012B18
:1040300018D001238DF80F300023CDE900134A1C5E
:104040008B1C20460DF10F0102F096FF37F8193056
:1040500043F0030327F81930002E41D02046FFF724
:104060003DFE18B9204805B0BDE8F08396F800C0C1
:10407000D8F800301B4F0CF5A272002143F8221033
:1040800005F1080237F8121021F02001C904C90C0B
:1040900027F8121075781DB3D8F80000B67800EB39
:1040A0008C002D04D0F8103523F4991323F4F85321
:1040B000C0F81035230203F47C5305F4403536056F
:1040C000D0F810E52B4306F4801641EA4C31334317
:1040D00041F0200143EA0E0327F81210C0F8103512
:1040E0000248C0E7340000200400AD0B0000AD0B17
:1040F000014BC3E9021270473400002010B5084696
:104100001446FFF7F7FD50B10846FFF7B1FD054B28
:10411000083033F8103004485B0B237010BD03489F
:10412000FCE700BF340000200000AD0B0400AD0B25
:1041300070B5164D95F8804006462CBB214660228E
:1041400005F1100002F024FC30682E6F21468E42EB
:104150000ED10023C0F87C31D0F87C3140F3073019
:10416000FDF74AFF01230A4885F88030AB6770BD30
:10417000CBB29B0003F580727C2B08BF845001F109
:10418000010108BF8358E2E70248F0E7340000204D
:104190000000AD0B0C00AD0B034B93F88000003812
:1041A00018BF0120704700BF340000200148FFF70E
:1041B0001DBC00BFA80000200148FFF7F3BB00BFF3
:1041C000A800002073B503681646D3F80423002A1C
:1041D000A8BF4FF000420546A8BFC3F80423084615
:1041E0000C46FFF787FD00B30846FFF777FD014651
:1041F000D8B92046FFF766FD04B2A40004F580722A
:10420000034628688150296882582144D1F8102536
:1042100042F00102C1F810252EB12968012202FAEC
:1042200003F3C1F8043302B070BD2046FFF720FD50
:104230000F4B083033F81030C3F38203042B12D035
:10424000052B12D001A80194FFF702FD019AD0F8C6
:104250001035D34003F00103991C204602B0BDE89D
:10426000704002F0D2BE0321F7E70221F5E700BF5C
:10427000340000202DE9F04F694BDFF8B081D3F80E
:104280000403D8F87010C0B289B040F00040FFF7C6
:1042900089FD051E2FDAC24600235AF87C1F06A8A6
:1042A000CDE90633FFF732FD5E4B01930DF118099E
:1042B0004FF0000B019A12F8013B0192DA0803F06B
:1042C00007031AF8022022FA03F3DA071CD409F1D3
:1042D0000409BBF1000F14D0D8F870104FF0004063
:1042E000FFF760FDD8F87C1006A8FFF70FFD002847
:1042F000DAD125F000450124002D79D109B0BDE8BF
:10430000F08F4FF0010BD5E7474B5B440293D9F890
:1043100000100029DBD0029B91FAA1F11C78B1FAC0
:1043200081F141EA44142046FFF7A2FC08300594CD
:1043300038F81070C808BB0819F80020039301F082
:104340000701012303FA01F122EA010209F8002022
:1043500005A8FFF77DFC059A039B02F5E072C7F301
:10436000820650F822205B073746C2F3014224D56B
:1043700020463946D6B2FFF785FC05A80594FFF71D
:1043800067FC059B03F5E07350F82330C3F301434A
:104390009E4207D10021204602F037FE31462046DA
:1043A00002F033FE05A80594FFF752FC059B01229D
:1043B00002FA03F3C0F82035A9E7022A0CD1032141
:1043C000204602F022FE06F00503012BEAD1394611
:1043D0002046FFF757FCE5E702212046039202F052
:1043E00014FE032EF3D0039A032ADBD1022EEDE74D
:1043F00095FAA5F3B3FA83F304FA03F29B0003F1F1
:10440000804303F5C04325EA0205D3F81005D3F82D
:104410001015C0F30520C1F30141FFF733FC6BE732
:10442000006000409A7E00009A7E00003400002068
:10443000044AD2F80034DB07FBD50160BFF35F8F7D
:10444000704700BF00E001404FF080531A69B0FB95
:10445000F2F302FB130373B9084B0222C3F80425DD
:10446000C3F80805D3F80024D207FBD5002204487E
:10447000C3F8042570470348704700BF00E00140BF
:104480000000AD0B0A00AD0B10B5054C0123C4F8BC
:104490000435FFF7CDFF0023C4F8043510BD00BF7D
:1044A00000E0014001460148FFF77CBAB800002057
:1044B00010B5144CA8220021204602F069FA03230B
:1044C0002361114A6361114BA261E3614FF4806380
:1044D00023620023A3626362E36222660C4A62667F
:1044E0001022A2662367E3666367BFF35F8F094A02
:1044F00012F8011DE1540133102BF9D1BFF35F8F86
:1045000010BD00BFE00E00209C7E0000B91000200E
:10451000A9100020B57E000038B5094B53F82040A3
:10452000013053F82050A54200D838BD636823B14C
:10453000204602F0E0FD0834F5E723689847FAE7E3
:10454000EC75000008B5094B012203201A70FFF733
:10455000E3FFFDF767FB0420FFF7DEFFFBF73AFF01
:10456000034A137B23F00103137308BDB914002021
:104570005001002008B50348034A0021121A02F036
:10458000D2FD08BD30010020BC14002008B5002079
:10459000FFF7C2FF184B83F30888184C636943F494
:1045A000007363610025E02384F82230E5772576E7
:1045B0006576A57684F82050636A43F4E02363624D
:1045C00084F82350FDF788FCFDF7C0FD4FF0FF3362
:1045D000A362E362FDF754FEFDF7DCFD02F065FD2A
:1045E0000120FFF799FF0220FFF796FF04482B46B2
:1045F0002A462946FDF78CFD001D002000ED00E055
:104600004545000008B50648064A0749121A02F057
:104610008CFDBDE80840054A0549064802F085BD05
:10462000000000202E010020B87E000000000000E5
:10463000B87E000000000020034B1B680BB9FEF79A
:1046400075BF0020704700BF880F002030B570B1E3
:104650000B4B5B6898420AD0036843B1D3E904214D
:10466000D0E90445121941EB0501C3E90421D0E961
:10467000003213605A600023C0E9003330BD00BF30
:10468000BC00002010B50E4B1C689C4204D1FFF703
:10469000D3FF6FF0004010BDFFF7CEFF002CF8D025
:1046A000D4E904321B1A62EBE072B3F1004F72F1ED
:1046B0000001EEDA002AACBF18460020EBE700BF8D
:1046C000BC0000202DE9F84FEFF31186202383F37F
:1046D0001288BFF36F8FDFF8B4902A4D2A4C286000
:1046E000D9F800004FF0000A484508BF00204FF0FD
:1046F000000BD4E9001E2B68374680B3D0E904864E
:104700004FEAE37C43457CEB060206DAB8EB030292
:1047100066EB0C06C0E9042621E018EB01014EEB24
:10472000E873C0E904ABC4E90013FFF78FFF87F318
:104730001188BFF36F8F83689847EFF311872023A9
:1047400083F31288BFF36F8F2B68D9F80000A3EBB7
:10475000080348453E462B60CBD1D4E9001E5918CA
:104760004EEBE373C4E9001300242C60FFF78AFFCB
:104770002146FEF7ADFE87F31188BFF36F8FBDE8CA
:10478000F88F00BF880F0020D0010020BC0000205F
:1047900010B50A4C23681BB101232360002010BD13
:1047A00000F048F80028F7D00138062803D8044B59
:1047B00053F8200010BD034810BD00BF8C0F00202F
:1047C00004760000FE8FFFFFBFF34F8F0549064BB5
:1047D000CA6802F4E0621343CB60BFF34F8F00BF9F
:1047E000FDE700BF00ED00E00400FA0510B40A4B3D
:1047F0000A490B4C4FF0FE32C3F800244968C3F855
:104800000424C3F80824C3F80C240023C4F800359A
:104810005DF8044B084700BF00B00250C400002000
:1048200000A00250D0E90012014BC3E9001270470A
:10483000C400002038B500F02FF820B1032400F0A8
:1048400063F8204638BD00F031F898B900F0ACF8B4
:1048500098B90F4DD5F828391B0EF02B08D1D5F893
:10486000242A0C4B9A420AD0072400F017F8E6E7F6
:104870000624FAE70424204638BD0024F5E7012089
:1048800000F092F804460028F7D1C5F80C0AD8E7E2
:1048900000B002500000E020002070470020704768
:1048A000014BC3F8040A704700B0025010B511481C
:1048B00000F048F800B110BD0F4800F043F80028A0
:1048C000F9D10E4C204600F03DF80028F3D10C4BF6
:1048D0000C481C6000F036F801460028EBD100F0CF
:1048E0002DF8044608B1204610BD00F03FF82046E0
:1048F000FAE700BFDC000020D8000020D400002030
:10490000CC000020D000002008B5084800F024F8B2
:10491000074800F021F8074800F01EF8064800F0AC
:104920001BF8BDE8084000F00BB800BFDC00002019
:10493000D8000020D4000020D000002000207047C4
:10494000704700BF08B5034B02681B6810689847A2
:10495000002008BDF400002008B5034B02685B6826
:1049600010689847002008BDF400002070B5094C7D
:10497000094D2069AB68984718B1084B08485B6837
:104980009847084AEB68206900211160BDE8704033
:10499000184700BFE0000020F4000020C400002001
:1049A00020760000900F0020F8B51A4D1A4E0446EC
:1049B000B26828699047E8B9184F3B684CB1A3B179
:1049C000012B19D0013B3B602869F3689847002010
:1049D000F8BD43B9124A0121C2F800151149D1F8B6
:1049E0001029002AFBD101333B60F36828699847FE
:1049F0000020F8BD0C48F8BD0A4AD2F81039002B47
:104A0000FBD1074A6FF07E40C2F80035FFF748FF40
:104A10003B68D7E7E0000020F4000020900F002062
:104A200000A0025000B00250E98FFFFF10B504460D
:104A300050B1636813F0685F05D0064A934202D014
:104A400000232360626010BD034B04485B689847F5
:104A5000EFE700BF2C5F5CA9C40000204076000097
:104A6000C8B143680D4A934213D013F0685F0ED06B
:104A7000012350E8002F194640E8001C9CF0000F6D
:104A8000F7D1012AF5D0BFF35F8F002070470448AB
:104A90007047044870476FF4E04070472C5F5CA992
:104AA000E98FFFFFEA8FFFFF80B14368094A934215
:104AB0000AD013F0685F05D0BFF35F8F0023036057
:104AC0001846704704487047044870476FF4E04048
:104AD000704700BF2C5F5CA9E98FFFFFEA8FFFFFE3
:104AE00010B5044620B1044B63600022226010BD63
:104AF0000248FFF77BFEF6E73A00003A68760000CE
:104B000030B10268034B04489A4208BF0020704746
:104B100002487047DD55AABB8208F0007108F0001A
:104B200038B50D460446B0B1A0220021043002F091
:104B30001DFB95B10822294604F1640002F01CFB1C
:104B4000082205F1200104F1840002F015FB044B5A
:104B50002360002038BD0348FCE70348FAE700BFA4
:104B6000DD55AABB7108F0008308F0002DE9F7437A
:104B700005460E4699461146FFF7C2FF0446002837
:104B800040F08480002E00F08580002900F08480B1
:104B9000B9F1200F40F0828005F14404082205F1AC
:104BA0000408204602F0E8FA05F1240708223146FD
:104BB000404602F0E1FA06F120010822384602F0F0
:104BC000DBFA02A94FF4807041F8049D02F0C8FAA4
:104BD000002865D1334A4FF480731360012193603C
:104BE0000823314A00F02EFB0121084605232F4AF5
:104BF00000F028FB0823424601211C2000F022FB84
:104C000008233A460121032000F01CFB224608231A
:104C10000121022000F016FB0823254A01211A2059
:104C200000F010FB0523234A01211B2000F00AFBA2
:104C30000823214A0121142000F004FB08231F4A05
:104C40000121152000F0FEFA082305F1640201217C
:104C5000162000F0F7FA082305F18402012117203D
:104C600000F0F0FA0823164A01210B2000F0EAFABE
:104C700000F044FB0446019800F0D2FA114B002CDE
:104C800018BF1C46A421284602F072FA204603B041
:104C9000BDE8F0830C4CF9E70C4CF7E70C4CF5E75A
:104CA000084CEFE790B00250CC760000447700004B
:104CB0008C76000030770000F0760000107700005E
:104CC000AC7600008408F0007608F0008008F00060
:104CD0008108F0000C4BC2691A60826943F8042C09
:104CE000426943F8082C026943F80C2CC26843F867
:104CF000102C826843F8142C426843F8182C026880
:104D000043F81C2C704700BF5CB602500C4B1B686C
:104D1000C3610C4B1B6883610B4B1B6843610B4BDE
:104D20001B6803610A4B1B68C3600A4B1B688360E6
:104D3000094B1B684360094B1B680360704700BF49
:104D40005CB6025058B6025054B6025050B60250EB
:104D50004CB6025048B6025044B6025040B602501B
:104D600030B10268034B04489A4208BF00207047E4
:104D700002487047DD55AABB0202F0000002F000B5
:104D800038B5044668B1051D7021284602F0F0F9D7
:104D900028462022044902F0E7F9044B2360002052
:104DA00038BD0348FCE700BF58770000DD55AABBBB
:104DB0000002F0002DE9F043284B04460E4615464C
:104DC0000FCB85B06F4687E80F002DB94FF0000973
:104DD000484605B0BDE8F0832046FFF7C1FF814695
:104DE0000028F5D1231D0193636AA3BB236F8BB108
:104DF000C3F14008A84528BFA84604F13000314659
:104E00001844424602F0B0F9236F434446442367F6
:104E1000A5EB0805226F402A06D104F1300138467F
:104E200000F0AEFB0023236705F03F0835F03F0597
:104E300005D031462A46384600F0A2FB2E44B8F190
:104E4000000FC3D04246314604F1300002F08CF925
:104E5000C4F87080BCE7DFF80890B9E7E0730000A1
:104E60000C02F0002DE9FF41144B04460E460FCB17
:104E70006F4687E80F002046FFF772FF8046B0B903
:104E8000CEB1636A251D01953BB901236362226F90
:104E900004F13001384600F073FB2B46043E243405
:104EA00053F8042B12BAA34246F8042FF8D1404617
:104EB00004B0BDE8F081DFF80880F8E7E073000097
:104EC0000502F000084B1B681B0EF02B08D1074BA6
:104ED0001A68074B9A4205D1064B002018607047AC
:104EE000052070470620704728B9025024BA0250A6
:104EF0000000E0200CBA0250002230B549001346F1
:104F0000023840F6FC7502F1A05404F52C44A400CC
:104F1000904202F10102CABF236025605B181E2A7D
:104F2000F1D1044A13600B445360034B034A1A60E7
:104F300030BD00BF78B0025084B0025020F80F009E
:104F400030B51E4B85B01A46196800910099CC0700
:104F5000FAD500F1A05000F52C40800001681368DC
:104F60000193019BD807FAD5154B164C1868164DBE
:104F70001F30202390FBF3F00138002810DA0023C3
:104F80000130400153B1A0F120014FF00042134223
:104F900004D1013888424FEA5202F8D105B030BD41
:104FA00013680393039BDB07FAD5431823602B6830
:104FB0000293029B002BE3D10138DEE7B4B002502C
:104FC000ACB00250E4B00250DCB00250F0B51D6845
:104FD00085B001F01F040DB91F2C25D1154D2E46AB
:104FE0002F680197019FFF07FAD500F1A05000F547
:104FF0002C408000006835680395039DED07FAD5C5
:105000000D4D00EB611028600C48006802901F2CC9
:1050100018BFC94302980FBF106001F01F0100FACA
:1050200001F111600021196010684300C00F136086
:1050300005B0F0BDB4B00250E4B00250DCB0025094
:105040000C4B18603F3020F03F0089014030586021
:105050009960D9601961596199611C3306481960DA
:1050600082B002680192019AD207FAD5196002B0A3
:10507000704700BF90B00250B4B0025038B5A0F1F4
:105080002003B3F5426F05462CD88F2826D800F1AF
:10509000470300F16604DB064FEA541400D00134E4
:1050A00064013F34A409013411B1A1421AD30C4662
:1050B000E3004FF48050B0FBF3F0202828BF2020FD
:1050C00002B11060084B01221A602146FFF714FF5D
:1050D00028462146FFF7B4FF002038BD00F11F0429
:1050E0006409DDE70148F8E71CB802502221F0000E
:1050F000F0B5454B89B01D461C680194019CE4073E
:10510000FAD5424BDFF80CE1DFF80CC113449B00E9
:1051100000241A680B181E2B88BFC0F11E011F3215
:105120000B1852095343B3F5806F82BF4FF480616F
:10513000B1FBF2F1091A00F1A05000F52C4027460E
:10514000A14233DC2B680493049BDB07FAD5304B78
:105150001B68296805910599CF07FAD52D4C2E4972
:10516000236000231E46934203F1010040D120F04A
:1051700001022948194600268A423CD8296806912E
:105180000699CE07FAD52549096828680790079837
:10519000C007FAD52160204800210C468B422DD152
:1051A0001D4900209A422CD809B0F0BD2B6802930B
:1051B000029BDB07FAD503199B001B682E68039638
:1051C000039EF607FAD5CEF800300023934203F190
:1051D000010306D1164623F00103B34204D801347B
:1051E000AEE7CCF80070F1E7CCF800700136F4E7D8
:1051F0000E600346B7E706600131BDE70460013188
:10520000CCE708600133CDE7B4B0025024AC001401
:105210007CB00250D4B00250D8B0025078B00250E6
:1052200008B540B1202801464FF0070228BF2021D1
:105230000020FFF75DFF024B00221A6008BD00BF8F
:105240001CB80250F0B5294D85B02C462E6800964A
:10525000009EF607FAD500F1A05000F52C40800022
:105260000568206801900198C707FAD52048214FAA
:10527000056002EB8306B24229D15A1C1D4E22F072
:10528000010200279A4227D823680293029BDE0777
:10529000FAD5194B0B449B001B681F335B099A42DC
:1052A00013D2216803910399C907FAD51544002147
:1052B0009B1A104A056008468B4210D85A1C0D49AB
:1052C00022F0010200209A420CD805B0F0BD52F83D
:1052D00004CBC7F800C0CEE737600133D2E71060D7
:1052E0000131E9E708600133EDE700BFB4B00250D7
:1052F000D4B00250D8B0025024AC00142DE9F041D3
:10530000814B1D6898682033A0B01E461A68019230
:10531000019AD707FAD57D4B7D4A1A60326802920E
:10532000029AD407FAD57B4A1A607B4A1446116860
:1053300003910399C907FAD5784A1168C1F340214E
:1053400037680497049FFF07FAD5754F1F602768D9
:105350000597059FFF07FAD51768002900F0CF8051
:10536000B90540F1CC80316806910699CF07FAD58E
:105370006C491960216807910799C907FAD5116826
:10538000C1F3402137680897089FFF07FAD5664F99
:105390001F6027680997099FFF07FAD5126800293F
:1053A00000F0AF80910540F1AC8032680A920A9A11
:1053B000D207FAD5564A1A6032680B920B9AD70771
:1053C000FAD55A4A1A6031680C910C99CC07FAD573
:1053D0005749196031680D910D99C907FAD555499A
:1053E000196031680E910E99CF07FAD552491960AC
:1053F00031680F910F99CC07FAD550491960504B7D
:105400001E46196810911099C907FAD53F4C4D4BAB
:10541000236033681193119BDB07FAD54A4B236055
:1054200033681293129BDF07FAD5484B23603A4B3F
:105430009846196813911399C907FAD5324F386005
:1054400033681493149BDB07FAD5226033681593F5
:10545000159BD807FAD53E4B236033681693169BED
:10546000D907FAD53B4B236033681793179BDA07AC
:10547000FAD5394B236033681893189BDB07FAD5AC
:10548000364B236033681993199BD807FAD5344BF0
:10549000236033681A931A9BD907FAD5314B2360DE
:1054A00033681B931B9BDA07FAD52F4B236000F060
:1054B0001DFC08BBD8F800301C931C9BDB07F9D5FA
:1054C0003D6033681D931D9BD907FAD5274B236098
:1054D00033681E931E9BDA07FAD5254B2360D8F854
:1054E00000301F931F9BDB07F9D50C4B1B6813F48F
:1054F000805F204B08BF184620B0BDE8F0811E48F1
:10550000FAE71E48F8E700BF90B0025080B00250A2
:1055100000100251C01F7229B4B0025088B002506E
:10552000C0CF0129C01F0E29C03F002940010249F8
:10553000003184A800001649400108A18044088871
:10554000B0B00250C044708880077A41C0077E41E5
:1055500000006A498006164940006E490002002199
:1055600000822021408220218082242140A161A14B
:1055700000C861510308F1000108F1000208F100C0
:105580002DE9F74F314B44688046924699461A6898
:10559000002AFCD12E4B9B461A68002AFCD14FF002
:1055A000FF30019100F094FC802000F097FC294D21
:1055B000294A2A4F2A4E012307202B60A2F59E720A
:1055C000C2F83C011360636A3B60A36A3360D8F899
:1055D000003042F8043CD8F808302046984701993A
:1055E000D9F80030002BFBD1BAF1000F20D11D4BB0
:1055F00004221A60D9F80030002BFBD1DBF800A0A0
:10560000BAF1000FFAD1D8F80C30204698473B6821
:1056100063623368A362144BC3F800A0C3F844A1CB
:10562000D9F80030002BFBD12B6003B0BDE8F08F20
:10563000236A012B04BF0C4A13600C4B40201960F5
:10564000C3F804A000F050FCD4E700BF10B902502A
:1056500020BC025018B8025000B90250CCB702501A
:10566000D0B70250C8B7025084B6025028BC0250CE
:1056700010B5544B98B019461A680192019AD20796
:10568000FAD5514B514A1A600A680292029AD4071D
:10569000FAD54F4A1A600A680392039AD007FAD5DE
:1056A0004C4818600A680492049AD207FAD54A4A0C
:1056B0001A600A680592059AD407FAD5474A1A6013
:1056C0000A680692069AD207FAD5454A1A600A680D
:1056D0000792079AD407FAD5424A1A600A680892D4
:1056E000089AD207FAD5404A1A600A680992099ABC
:1056F000D407FAD53D4A1A600A680A920A9AD20774
:10570000FAD53B4A1A600A680B920B9AD407FAD56D
:10571000384A1A600A680C920C9AD207FAD5364AAF
:105720001A600A680D920D9AD407FAD5334A1A60A6
:105730000A680E920E9AD207FAD5314A1A600A68A0
:105740000F920F9AD407FAD52E4A1A600A6810925F
:10575000109AD207FAD52C4A1A601A4B19461C68BF
:105760001194119CE407FAD5174B18600868129041
:105770001298C407FAD51A600A681392139AD007D0
:10578000FAD5124A1A600A681492149AD207FAD506
:105790001E4A1A600A681592159AD407FAD51C4A4F
:1057A0001A600A681692169AD007FAD5194A1A6032
:1057B0000A681792179AD207FAD5174A1A6018B0D2
:1057C00010BD00BFB0B0025080B002500093652100
:1057D00000043190409665900083612100C3302120
:1057E00000C3649000816190004610210081112166
:1057F0000041442100C320290C4610C800863121F5
:1058000000C3602140C128294096652100133190D2
:1058100040962529594614C84004324910B5494BD1
:1058200094B019461A680092009AD207FAD5464BEE
:10583000464A1A600A680192019AD407FAD5444A86
:105840001A600A680292029AD007FAD54148186095
:105850000A680392039AD207FAD53F4A1A600A6887
:105860000492049AD407FAD53C4A1A600A68059251
:10587000059AD207FAD53A4A1A600A680692069A39
:10588000D407FAD5374A1A600A680792079AD207EE
:10589000FAD5354A1A600A680892089AD407FAD5E8
:1058A000324A1A600A680992099AD207FAD5304A30
:1058B0001A600A680A920A9AD407FAD52D4A1A6021
:1058C0000A680B920B9AD207FAD52B4A1A600A681B
:1058D0000C920C9AD407FAD5284A1A600A680D92DD
:1058E0000D9AD207FAD5264A1A600A680E920E9AC5
:1058F000D407FAD5234A1A600A680F920F9AD20782
:10590000FAD5214A1A600F4B19461C681094109C56
:10591000E407FAD50C4B1860086811901198C40779
:10592000FAD51A600A681292129AD007FAD5174A65
:105930001A600A681392139AD207FAD5144A1A60A9
:1059400014B010BDB0B0025080B0025080906521FC
:105950000004099040966590808061218020082194
:105960008020649000816190004610210081112107
:105970000041442180202029024610C800860921C8
:1059800080206021402128294096652140962529C4
:10599000594614C810B5504B96B01C461A6801926F
:1059A000019AD207FAD54D4B4D4A1A6022680292ED
:1059B000029AD207FAD54B4A1A604B4A42EA804013
:1059C00022680392039AD207FAD5186022680492DB
:1059D000049AD007FAD5454A1A60A2F5800242EA35
:1059E000814122680592059AD207FAD5196022688A
:1059F0000692069AD007FAD53D4A1A6022680792A5
:105A0000079AD107FAD53B4A1A6022680892089A89
:105A1000D207FAD5384A1A6022680992099AD00743
:105A2000FAD5364A1A6022680A920A9AD107FAD53C
:105A3000334A1A6022680B920B9AD207FAD5314A80
:105A40001A6022680C920C9AD007FAD52E4A1A6076
:105A500022680D920D9AD107FAD52C4A1A60226855
:105A60000E920E9AD207FAD5294A1A6022680F922E
:105A70000F9AD007FAD5274A1A6021681091109919
:105A8000C907FAD51A60144B1A4619681191119971
:105A9000C807FAD5114B2049196011681291129963
:105AA000C907FAD51D491960116813911399CC07DC
:105AB000FAD50B491960116814911499C807FAD5E1
:105AC00017491960116815911599C907FAD5154A32
:105AD0001A6016B010BD00BFB0B0025080B00250C6
